{
	"contracts/ItemOwnership.sol": {
		"ItemOwnership": {
			"abi": [
				{
					"inputs": [],
					"stateMutability": "nonpayable",
					"type": "constructor"
				},
				{
					"inputs": [
						{
							"internalType": "uint256",
							"name": "_id",
							"type": "uint256"
						},
						{
							"internalType": "string[]",
							"name": "_attributeKeys",
							"type": "string[]"
						},
						{
							"internalType": "string[]",
							"name": "_attributeValues",
							"type": "string[]"
						}
					],
					"name": "addItemToAdress",
					"outputs": [],
					"stateMutability": "nonpayable",
					"type": "function"
				},
				{
					"inputs": [
						{
							"internalType": "uint256",
							"name": "_id",
							"type": "uint256"
						}
					],
					"name": "getAttributesOfItemByID",
					"outputs": [
						{
							"internalType": "string[]",
							"name": "",
							"type": "string[]"
						},
						{
							"internalType": "string[]",
							"name": "",
							"type": "string[]"
						}
					],
					"stateMutability": "view",
					"type": "function"
				}
			],
			"devdoc": {
				"kind": "dev",
				"methods": {},
				"version": 1
			},
			"evm": {
				"assembly": "    /* \"contracts/ItemOwnership.sol\":364:2083  contract ItemOwnership is ContractOwnable {... */\n  mstore(0x40, 0x80)\n    /* \"contracts/ItemOwnership.sol\":615:653  constructor() {... */\n  callvalue\n  dup1\n  iszero\n  tag_1\n  jumpi\n  0x00\n  dup1\n  revert\ntag_1:\n  pop\n    /* \"contracts/ItemOwnership.sol\":339:349  msg.sender */\n  caller\n    /* \"contracts/ItemOwnership.sol\":331:336  owner */\n  0x00\n  dup1\n    /* \"contracts/ItemOwnership.sol\":331:349  owner = msg.sender */\n  0x0100\n  exp\n  dup2\n  sload\n  dup2\n  0xffffffffffffffffffffffffffffffffffffffff\n  mul\n  not\n  and\n  swap1\n  dup4\n  0xffffffffffffffffffffffffffffffffffffffff\n  and\n  mul\n  or\n  swap1\n  sstore\n  pop\n    /* \"contracts/ItemOwnership.sol\":364:2083  contract ItemOwnership is ContractOwnable {... */\n  dataSize(sub_0)\n  dup1\n  dataOffset(sub_0)\n  0x00\n  codecopy\n  0x00\n  return\nstop\n\nsub_0: assembly {\n        /* \"contracts/ItemOwnership.sol\":364:2083  contract ItemOwnership is ContractOwnable {... */\n      mstore(0x40, 0x80)\n      callvalue\n      dup1\n      iszero\n      tag_1\n      jumpi\n      0x00\n      dup1\n      revert\n    tag_1:\n      pop\n      jumpi(tag_2, lt(calldatasize, 0x04))\n      shr(0xe0, calldataload(0x00))\n      dup1\n      0x4f6e9de4\n      eq\n      tag_3\n      jumpi\n      dup1\n      0x97ff7ae0\n      eq\n      tag_4\n      jumpi\n    tag_2:\n      0x00\n      dup1\n      revert\n        /* \"contracts/ItemOwnership.sol\":681:1327  function addItemToAdress(uint256 _id, string[] memory _attributeKeys, string[] memory _attributeValues) public {... */\n    tag_3:\n      tag_5\n      0x04\n      dup1\n      calldatasize\n      sub\n      dup2\n      add\n      swap1\n      tag_6\n      swap2\n      swap1\n      tag_7\n      jump\t// in\n    tag_6:\n      tag_8\n      jump\t// in\n    tag_5:\n      stop\n        /* \"contracts/ItemOwnership.sol\":1335:1795  function getAttributesOfItemByID(uint256 _id) public view returns(string[] memory, string[] memory) {... */\n    tag_4:\n      tag_9\n      0x04\n      dup1\n      calldatasize\n      sub\n      dup2\n      add\n      swap1\n      tag_10\n      swap2\n      swap1\n      tag_11\n      jump\t// in\n    tag_10:\n      tag_12\n      jump\t// in\n    tag_9:\n      mload(0x40)\n      tag_13\n      swap3\n      swap2\n      swap1\n      tag_14\n      jump\t// in\n    tag_13:\n      mload(0x40)\n      dup1\n      swap2\n      sub\n      swap1\n      return\n        /* \"contracts/ItemOwnership.sol\":681:1327  function addItemToAdress(uint256 _id, string[] memory _attributeKeys, string[] memory _attributeValues) public {... */\n    tag_8:\n        /* \"contracts/ItemOwnership.sol\":850:860  msg.sender */\n      caller\n        /* \"contracts/ItemOwnership.sol\":811:860  itemDatabase[msg.sender][_id].owner != msg.sender */\n      0xffffffffffffffffffffffffffffffffffffffff\n      and\n        /* \"contracts/ItemOwnership.sol\":811:823  itemDatabase */\n      0x01\n        /* \"contracts/ItemOwnership.sol\":811:835  itemDatabase[msg.sender] */\n      0x00\n        /* \"contracts/ItemOwnership.sol\":824:834  msg.sender */\n      caller\n        /* \"contracts/ItemOwnership.sol\":811:835  itemDatabase[msg.sender] */\n      0xffffffffffffffffffffffffffffffffffffffff\n      and\n      0xffffffffffffffffffffffffffffffffffffffff\n      and\n      dup2\n      mstore\n      0x20\n      add\n      swap1\n      dup2\n      mstore\n      0x20\n      add\n      0x00\n      keccak256\n        /* \"contracts/ItemOwnership.sol\":811:840  itemDatabase[msg.sender][_id] */\n      0x00\n        /* \"contracts/ItemOwnership.sol\":836:839  _id */\n      dup6\n        /* \"contracts/ItemOwnership.sol\":811:840  itemDatabase[msg.sender][_id] */\n      dup2\n      mstore\n      0x20\n      add\n      swap1\n      dup2\n      mstore\n      0x20\n      add\n      0x00\n      keccak256\n        /* \"contracts/ItemOwnership.sol\":811:846  itemDatabase[msg.sender][_id].owner */\n      0x00\n      add\n      0x00\n      swap1\n      sload\n      swap1\n      0x0100\n      exp\n      swap1\n      div\n      0xffffffffffffffffffffffffffffffffffffffff\n      and\n        /* \"contracts/ItemOwnership.sol\":811:860  itemDatabase[msg.sender][_id].owner != msg.sender */\n      0xffffffffffffffffffffffffffffffffffffffff\n      and\n      sub\n        /* \"contracts/ItemOwnership.sol\":803:889  require(itemDatabase[msg.sender][_id].owner != msg.sender, \"[ERROR] ID always in use\") */\n      tag_16\n      jumpi\n      mload(0x40)\n      0x08c379a000000000000000000000000000000000000000000000000000000000\n      dup2\n      mstore\n      0x04\n      add\n      tag_17\n      swap1\n      tag_18\n      jump\t// in\n    tag_17:\n      mload(0x40)\n      dup1\n      swap2\n      sub\n      swap1\n      revert\n    tag_16:\n        /* \"contracts/ItemOwnership.sol\":902:922  Item storage newItem */\n      0x00\n        /* \"contracts/ItemOwnership.sol\":925:937  itemDatabase */\n      0x01\n        /* \"contracts/ItemOwnership.sol\":925:949  itemDatabase[msg.sender] */\n      0x00\n        /* \"contracts/ItemOwnership.sol\":938:948  msg.sender */\n      caller\n        /* \"contracts/ItemOwnership.sol\":925:949  itemDatabase[msg.sender] */\n      0xffffffffffffffffffffffffffffffffffffffff\n      and\n      0xffffffffffffffffffffffffffffffffffffffff\n      and\n      dup2\n      mstore\n      0x20\n      add\n      swap1\n      dup2\n      mstore\n      0x20\n      add\n      0x00\n      keccak256\n        /* \"contracts/ItemOwnership.sol\":925:954  itemDatabase[msg.sender][_id] */\n      0x00\n        /* \"contracts/ItemOwnership.sol\":950:953  _id */\n      dup6\n        /* \"contracts/ItemOwnership.sol\":925:954  itemDatabase[msg.sender][_id] */\n      dup2\n      mstore\n      0x20\n      add\n      swap1\n      dup2\n      mstore\n      0x20\n      add\n      0x00\n      keccak256\n        /* \"contracts/ItemOwnership.sol\":902:954  Item storage newItem = itemDatabase[msg.sender][_id] */\n      swap1\n      pop\n        /* \"contracts/ItemOwnership.sol\":981:991  msg.sender */\n      caller\n        /* \"contracts/ItemOwnership.sol\":965:972  newItem */\n      dup2\n        /* \"contracts/ItemOwnership.sol\":965:978  newItem.owner */\n      0x00\n      add\n      0x00\n        /* \"contracts/ItemOwnership.sol\":965:991  newItem.owner = msg.sender */\n      0x0100\n      exp\n      dup2\n      sload\n      dup2\n      0xffffffffffffffffffffffffffffffffffffffff\n      mul\n      not\n      and\n      swap1\n      dup4\n      0xffffffffffffffffffffffffffffffffffffffff\n      and\n      mul\n      or\n      swap1\n      sstore\n      pop\n        /* \"contracts/ItemOwnership.sol\":1037:1053  _attributeValues */\n      dup2\n        /* \"contracts/ItemOwnership.sol\":1037:1060  _attributeValues.length */\n      mload\n        /* \"contracts/ItemOwnership.sol\":1012:1026  _attributeKeys */\n      dup4\n        /* \"contracts/ItemOwnership.sol\":1012:1033  _attributeKeys.length */\n      mload\n        /* \"contracts/ItemOwnership.sol\":1012:1060  _attributeKeys.length == _attributeValues.length */\n      eq\n        /* \"contracts/ItemOwnership.sol\":1004:1121  require(_attributeKeys.length == _attributeValues.length, \"[ERROR] The length of the keys and values are note equal\") */\n      tag_19\n      jumpi\n      mload(0x40)\n      0x08c379a000000000000000000000000000000000000000000000000000000000\n      dup2\n      mstore\n      0x04\n      add\n      tag_20\n      swap1\n      tag_21\n      jump\t// in\n    tag_20:\n      mload(0x40)\n      dup1\n      swap2\n      sub\n      swap1\n      revert\n    tag_19:\n        /* \"contracts/ItemOwnership.sol\":1138:1147  uint256 i */\n      0x00\n        /* \"contracts/ItemOwnership.sol\":1134:1271  for(uint256 i = 0; i < _attributeKeys.length; i++) {... */\n    tag_22:\n        /* \"contracts/ItemOwnership.sol\":1157:1171  _attributeKeys */\n      dup4\n        /* \"contracts/ItemOwnership.sol\":1157:1178  _attributeKeys.length */\n      mload\n        /* \"contracts/ItemOwnership.sol\":1153:1154  i */\n      dup2\n        /* \"contracts/ItemOwnership.sol\":1153:1178  i < _attributeKeys.length */\n      lt\n        /* \"contracts/ItemOwnership.sol\":1134:1271  for(uint256 i = 0; i < _attributeKeys.length; i++) {... */\n      iszero\n      tag_23\n      jumpi\n        /* \"contracts/ItemOwnership.sol\":1240:1256  _attributeValues */\n      dup3\n        /* \"contracts/ItemOwnership.sol\":1257:1258  i */\n      dup2\n        /* \"contracts/ItemOwnership.sol\":1240:1259  _attributeValues[i] */\n      dup2\n      mload\n      dup2\n      lt\n      tag_25\n      jumpi\n      tag_26\n      tag_27\n      jump\t// in\n    tag_26:\n    tag_25:\n      0x20\n      mul\n      0x20\n      add\n      add\n      mload\n        /* \"contracts/ItemOwnership.sol\":1200:1207  newItem */\n      dup3\n        /* \"contracts/ItemOwnership.sol\":1200:1218  newItem.attributes */\n      0x01\n      add\n        /* \"contracts/ItemOwnership.sol\":1219:1233  _attributeKeys */\n      dup6\n        /* \"contracts/ItemOwnership.sol\":1234:1235  i */\n      dup4\n        /* \"contracts/ItemOwnership.sol\":1219:1236  _attributeKeys[i] */\n      dup2\n      mload\n      dup2\n      lt\n      tag_28\n      jumpi\n      tag_29\n      tag_27\n      jump\t// in\n    tag_29:\n    tag_28:\n      0x20\n      mul\n      0x20\n      add\n      add\n      mload\n        /* \"contracts/ItemOwnership.sol\":1200:1237  newItem.attributes[_attributeKeys[i]] */\n      mload(0x40)\n      tag_30\n      swap2\n      swap1\n      tag_31\n      jump\t// in\n    tag_30:\n      swap1\n      dup2\n      mstore\n      0x20\n      add\n      mload(0x40)\n      dup1\n      swap2\n      sub\n      swap1\n      keccak256\n        /* \"contracts/ItemOwnership.sol\":1200:1259  newItem.attributes[_attributeKeys[i]] = _attributeValues[i] */\n      swap1\n      dup2\n      tag_32\n      swap2\n      swap1\n      tag_33\n      jump\t// in\n    tag_32:\n      pop\n        /* \"contracts/ItemOwnership.sol\":1180:1183  i++ */\n      dup1\n      dup1\n      tag_34\n      swap1\n      tag_35\n      jump\t// in\n    tag_34:\n      swap2\n      pop\n      pop\n        /* \"contracts/ItemOwnership.sol\":1134:1271  for(uint256 i = 0; i < _attributeKeys.length; i++) {... */\n      jump(tag_22)\n    tag_23:\n      pop\n        /* \"contracts/ItemOwnership.sol\":1305:1319  _attributeKeys */\n      dup3\n        /* \"contracts/ItemOwnership.sol\":1281:1288  newItem */\n      dup2\n        /* \"contracts/ItemOwnership.sol\":1281:1302  newItem.attributeKeys */\n      0x02\n      add\n        /* \"contracts/ItemOwnership.sol\":1281:1319  newItem.attributeKeys = _attributeKeys */\n      swap1\n      dup1\n      mload\n      swap1\n      0x20\n      add\n      swap1\n      tag_36\n      swap3\n      swap2\n      swap1\n      tag_37\n      jump\t// in\n    tag_36:\n      pop\n        /* \"contracts/ItemOwnership.sol\":792:1327  {... */\n      pop\n        /* \"contracts/ItemOwnership.sol\":681:1327  function addItemToAdress(uint256 _id, string[] memory _attributeKeys, string[] memory _attributeValues) public {... */\n      pop\n      pop\n      pop\n      jump\t// out\n        /* \"contracts/ItemOwnership.sol\":1335:1795  function getAttributesOfItemByID(uint256 _id) public view returns(string[] memory, string[] memory) {... */\n    tag_12:\n        /* \"contracts/ItemOwnership.sol\":1401:1416  string[] memory */\n      0x60\n        /* \"contracts/ItemOwnership.sol\":1418:1433  string[] memory */\n      dup1\n        /* \"contracts/ItemOwnership.sol\":1446:1463  Item storage item */\n      0x00\n        /* \"contracts/ItemOwnership.sol\":1466:1478  itemDatabase */\n      0x01\n        /* \"contracts/ItemOwnership.sol\":1466:1490  itemDatabase[msg.sender] */\n      0x00\n        /* \"contracts/ItemOwnership.sol\":1479:1489  msg.sender */\n      caller\n        /* \"contracts/ItemOwnership.sol\":1466:1490  itemDatabase[msg.sender] */\n      0xffffffffffffffffffffffffffffffffffffffff\n      and\n      0xffffffffffffffffffffffffffffffffffffffff\n      and\n      dup2\n      mstore\n      0x20\n      add\n      swap1\n      dup2\n      mstore\n      0x20\n      add\n      0x00\n      keccak256\n        /* \"contracts/ItemOwnership.sol\":1466:1495  itemDatabase[msg.sender][_id] */\n      0x00\n        /* \"contracts/ItemOwnership.sol\":1491:1494  _id */\n      dup6\n        /* \"contracts/ItemOwnership.sol\":1466:1495  itemDatabase[msg.sender][_id] */\n      dup2\n      mstore\n      0x20\n      add\n      swap1\n      dup2\n      mstore\n      0x20\n      add\n      0x00\n      keccak256\n        /* \"contracts/ItemOwnership.sol\":1446:1495  Item storage item = itemDatabase[msg.sender][_id] */\n      swap1\n      pop\n        /* \"contracts/ItemOwnership.sol\":1506:1537  string[] memory attributeValues */\n      0x00\n        /* \"contracts/ItemOwnership.sol\":1553:1557  item */\n      dup2\n        /* \"contracts/ItemOwnership.sol\":1553:1571  item.attributeKeys */\n      0x02\n      add\n        /* \"contracts/ItemOwnership.sol\":1553:1578  item.attributeKeys.length */\n      dup1\n      sload\n      swap1\n      pop\n        /* \"contracts/ItemOwnership.sol\":1540:1579  new string[](item.attributeKeys.length) */\n      0xffffffffffffffff\n      dup2\n      gt\n      iszero\n      tag_39\n      jumpi\n      tag_40\n      tag_41\n      jump\t// in\n    tag_40:\n    tag_39:\n      mload(0x40)\n      swap1\n      dup1\n      dup3\n      mstore\n      dup1\n      0x20\n      mul\n      0x20\n      add\n      dup3\n      add\n      0x40\n      mstore\n      dup1\n      iszero\n      tag_42\n      jumpi\n      dup2\n      0x20\n      add\n    tag_43:\n      0x60\n      dup2\n      mstore\n      0x20\n      add\n      swap1\n      0x01\n      swap1\n      sub\n      swap1\n      dup2\n      tag_43\n      jumpi\n      swap1\n      pop\n    tag_42:\n      pop\n        /* \"contracts/ItemOwnership.sol\":1506:1579  string[] memory attributeValues = new string[](item.attributeKeys.length) */\n      swap1\n      pop\n        /* \"contracts/ItemOwnership.sol\":1596:1605  uint256 i */\n      0x00\n        /* \"contracts/ItemOwnership.sol\":1592:1733  for(uint256 i = 0; i < item.attributeKeys.length; i++) {... */\n    tag_44:\n        /* \"contracts/ItemOwnership.sol\":1615:1619  item */\n      dup3\n        /* \"contracts/ItemOwnership.sol\":1615:1633  item.attributeKeys */\n      0x02\n      add\n        /* \"contracts/ItemOwnership.sol\":1615:1640  item.attributeKeys.length */\n      dup1\n      sload\n      swap1\n      pop\n        /* \"contracts/ItemOwnership.sol\":1611:1612  i */\n      dup2\n        /* \"contracts/ItemOwnership.sol\":1611:1640  i < item.attributeKeys.length */\n      lt\n        /* \"contracts/ItemOwnership.sol\":1592:1733  for(uint256 i = 0; i < item.attributeKeys.length; i++) {... */\n      iszero\n      tag_45\n      jumpi\n        /* \"contracts/ItemOwnership.sol\":1683:1687  item */\n      dup3\n        /* \"contracts/ItemOwnership.sol\":1683:1698  item.attributes */\n      0x01\n      add\n        /* \"contracts/ItemOwnership.sol\":1699:1703  item */\n      dup4\n        /* \"contracts/ItemOwnership.sol\":1699:1717  item.attributeKeys */\n      0x02\n      add\n        /* \"contracts/ItemOwnership.sol\":1718:1719  i */\n      dup3\n        /* \"contracts/ItemOwnership.sol\":1699:1720  item.attributeKeys[i] */\n      dup2\n      sload\n      dup2\n      lt\n      tag_47\n      jumpi\n      tag_48\n      tag_27\n      jump\t// in\n    tag_48:\n    tag_47:\n      swap1\n      0x00\n      mstore\n      keccak256(0x00, 0x20)\n      add\n        /* \"contracts/ItemOwnership.sol\":1683:1721  item.attributes[item.attributeKeys[i]] */\n      mload(0x40)\n      tag_50\n      swap2\n      swap1\n      tag_51\n      jump\t// in\n    tag_50:\n      swap1\n      dup2\n      mstore\n      0x20\n      add\n      mload(0x40)\n      dup1\n      swap2\n      sub\n      swap1\n      keccak256\n        /* \"contracts/ItemOwnership.sol\":1662:1721  attributeValues[i] = item.attributes[item.attributeKeys[i]] */\n      dup1\n      sload\n      tag_52\n      swap1\n      tag_53\n      jump\t// in\n    tag_52:\n      dup1\n      0x1f\n      add\n      0x20\n      dup1\n      swap2\n      div\n      mul\n      0x20\n      add\n      mload(0x40)\n      swap1\n      dup2\n      add\n      0x40\n      mstore\n      dup1\n      swap3\n      swap2\n      swap1\n      dup2\n      dup2\n      mstore\n      0x20\n      add\n      dup3\n      dup1\n      sload\n      tag_54\n      swap1\n      tag_53\n      jump\t// in\n    tag_54:\n      dup1\n      iszero\n      tag_55\n      jumpi\n      dup1\n      0x1f\n      lt\n      tag_56\n      jumpi\n      0x0100\n      dup1\n      dup4\n      sload\n      div\n      mul\n      dup4\n      mstore\n      swap2\n      0x20\n      add\n      swap2\n      jump(tag_55)\n    tag_56:\n      dup3\n      add\n      swap2\n      swap1\n      0x00\n      mstore\n      keccak256(0x00, 0x20)\n      swap1\n    tag_57:\n      dup2\n      sload\n      dup2\n      mstore\n      swap1\n      0x01\n      add\n      swap1\n      0x20\n      add\n      dup1\n      dup4\n      gt\n      tag_57\n      jumpi\n      dup3\n      swap1\n      sub\n      0x1f\n      and\n      dup3\n      add\n      swap2\n    tag_55:\n      pop\n      pop\n      pop\n      pop\n      pop\n        /* \"contracts/ItemOwnership.sol\":1662:1677  attributeValues */\n      dup3\n        /* \"contracts/ItemOwnership.sol\":1678:1679  i */\n      dup3\n        /* \"contracts/ItemOwnership.sol\":1662:1680  attributeValues[i] */\n      dup2\n      mload\n      dup2\n      lt\n      tag_58\n      jumpi\n      tag_59\n      tag_27\n      jump\t// in\n    tag_59:\n    tag_58:\n      0x20\n      mul\n      0x20\n      add\n      add\n        /* \"contracts/ItemOwnership.sol\":1662:1721  attributeValues[i] = item.attributes[item.attributeKeys[i]] */\n      dup2\n      swap1\n      mstore\n      pop\n        /* \"contracts/ItemOwnership.sol\":1642:1645  i++ */\n      dup1\n      dup1\n      tag_60\n      swap1\n      tag_35\n      jump\t// in\n    tag_60:\n      swap2\n      pop\n      pop\n        /* \"contracts/ItemOwnership.sol\":1592:1733  for(uint256 i = 0; i < item.attributeKeys.length; i++) {... */\n      jump(tag_44)\n    tag_45:\n      pop\n        /* \"contracts/ItemOwnership.sol\":1751:1755  item */\n      dup2\n        /* \"contracts/ItemOwnership.sol\":1751:1769  item.attributeKeys */\n      0x02\n      add\n        /* \"contracts/ItemOwnership.sol\":1771:1786  attributeValues */\n      dup2\n        /* \"contracts/ItemOwnership.sol\":1743:1787  return (item.attributeKeys, attributeValues) */\n      dup2\n      dup1\n      sload\n      dup1\n      0x20\n      mul\n      0x20\n      add\n      mload(0x40)\n      swap1\n      dup2\n      add\n      0x40\n      mstore\n      dup1\n      swap3\n      swap2\n      swap1\n      dup2\n      dup2\n      mstore\n      0x20\n      add\n      0x00\n      swap1\n    tag_61:\n      dup3\n      dup3\n      lt\n      iszero\n      tag_62\n      jumpi\n      dup4\n      dup3\n      swap1\n      0x00\n      mstore\n      keccak256(0x00, 0x20)\n      add\n      dup1\n      sload\n      tag_64\n      swap1\n      tag_53\n      jump\t// in\n    tag_64:\n      dup1\n      0x1f\n      add\n      0x20\n      dup1\n      swap2\n      div\n      mul\n      0x20\n      add\n      mload(0x40)\n      swap1\n      dup2\n      add\n      0x40\n      mstore\n      dup1\n      swap3\n      swap2\n      swap1\n      dup2\n      dup2\n      mstore\n      0x20\n      add\n      dup3\n      dup1\n      sload\n      tag_65\n      swap1\n      tag_53\n      jump\t// in\n    tag_65:\n      dup1\n      iszero\n      tag_66\n      jumpi\n      dup1\n      0x1f\n      lt\n      tag_67\n      jumpi\n      0x0100\n      dup1\n      dup4\n      sload\n      div\n      mul\n      dup4\n      mstore\n      swap2\n      0x20\n      add\n      swap2\n      jump(tag_66)\n    tag_67:\n      dup3\n      add\n      swap2\n      swap1\n      0x00\n      mstore\n      keccak256(0x00, 0x20)\n      swap1\n    tag_68:\n      dup2\n      sload\n      dup2\n      mstore\n      swap1\n      0x01\n      add\n      swap1\n      0x20\n      add\n      dup1\n      dup4\n      gt\n      tag_68\n      jumpi\n      dup3\n      swap1\n      sub\n      0x1f\n      and\n      dup3\n      add\n      swap2\n    tag_66:\n      pop\n      pop\n      pop\n      pop\n      pop\n      dup2\n      mstore\n      0x20\n      add\n      swap1\n      0x01\n      add\n      swap1\n      jump(tag_61)\n    tag_62:\n      pop\n      pop\n      pop\n      pop\n      swap2\n      pop\n      swap4\n      pop\n      swap4\n      pop\n      pop\n      pop\n        /* \"contracts/ItemOwnership.sol\":1335:1795  function getAttributesOfItemByID(uint256 _id) public view returns(string[] memory, string[] memory) {... */\n      swap2\n      pop\n      swap2\n      jump\t// out\n    tag_37:\n      dup3\n      dup1\n      sload\n      dup3\n      dup3\n      sstore\n      swap1\n      0x00\n      mstore\n      keccak256(0x00, 0x20)\n      swap1\n      dup2\n      add\n      swap3\n      dup3\n      iszero\n      tag_69\n      jumpi\n      swap2\n      0x20\n      mul\n      dup3\n      add\n    tag_70:\n      dup3\n      dup2\n      gt\n      iszero\n      tag_71\n      jumpi\n      dup3\n      mload\n      dup3\n      swap1\n      dup2\n      tag_72\n      swap2\n      swap1\n      tag_33\n      jump\t// in\n    tag_72:\n      pop\n      swap2\n      0x20\n      add\n      swap2\n      swap1\n      0x01\n      add\n      swap1\n      jump(tag_70)\n    tag_71:\n    tag_69:\n      pop\n      swap1\n      pop\n      tag_73\n      swap2\n      swap1\n      tag_74\n      jump\t// in\n    tag_73:\n      pop\n      swap1\n      jump\t// out\n    tag_74:\n    tag_75:\n      dup1\n      dup3\n      gt\n      iszero\n      tag_76\n      jumpi\n      0x00\n      dup2\n      dup2\n      tag_77\n      swap2\n      swap1\n      tag_78\n      jump\t// in\n    tag_77:\n      pop\n      0x01\n      add\n      jump(tag_75)\n    tag_76:\n      pop\n      swap1\n      jump\t// out\n    tag_78:\n      pop\n      dup1\n      sload\n      tag_79\n      swap1\n      tag_53\n      jump\t// in\n    tag_79:\n      0x00\n      dup3\n      sstore\n      dup1\n      0x1f\n      lt\n      tag_81\n      jumpi\n      pop\n      jump(tag_80)\n    tag_81:\n      0x1f\n      add\n      0x20\n      swap1\n      div\n      swap1\n      0x00\n      mstore\n      keccak256(0x00, 0x20)\n      swap1\n      dup2\n      add\n      swap1\n      tag_82\n      swap2\n      swap1\n      tag_83\n      jump\t// in\n    tag_82:\n    tag_80:\n      pop\n      jump\t// out\n    tag_83:\n    tag_84:\n      dup1\n      dup3\n      gt\n      iszero\n      tag_85\n      jumpi\n      0x00\n      dup2\n      0x00\n      swap1\n      sstore\n      pop\n      0x01\n      add\n      jump(tag_84)\n    tag_85:\n      pop\n      swap1\n      jump\t// out\n        /* \"#utility.yul\":7:82   */\n    tag_86:\n        /* \"#utility.yul\":40:46   */\n      0x00\n        /* \"#utility.yul\":73:75   */\n      0x40\n        /* \"#utility.yul\":67:76   */\n      mload\n        /* \"#utility.yul\":57:76   */\n      swap1\n      pop\n        /* \"#utility.yul\":7:82   */\n      swap1\n      jump\t// out\n        /* \"#utility.yul\":88:205   */\n    tag_87:\n        /* \"#utility.yul\":197:198   */\n      0x00\n        /* \"#utility.yul\":194:195   */\n      dup1\n        /* \"#utility.yul\":187:199   */\n      revert\n        /* \"#utility.yul\":211:328   */\n    tag_88:\n        /* \"#utility.yul\":320:321   */\n      0x00\n        /* \"#utility.yul\":317:318   */\n      dup1\n        /* \"#utility.yul\":310:322   */\n      revert\n        /* \"#utility.yul\":334:411   */\n    tag_89:\n        /* \"#utility.yul\":371:378   */\n      0x00\n        /* \"#utility.yul\":400:405   */\n      dup2\n        /* \"#utility.yul\":389:405   */\n      swap1\n      pop\n        /* \"#utility.yul\":334:411   */\n      swap2\n      swap1\n      pop\n      jump\t// out\n        /* \"#utility.yul\":417:539   */\n    tag_90:\n        /* \"#utility.yul\":490:514   */\n      tag_146\n        /* \"#utility.yul\":508:513   */\n      dup2\n        /* \"#utility.yul\":490:514   */\n      tag_89\n      jump\t// in\n    tag_146:\n        /* \"#utility.yul\":483:488   */\n      dup2\n        /* \"#utility.yul\":480:515   */\n      eq\n        /* \"#utility.yul\":470:533   */\n      tag_147\n      jumpi\n        /* \"#utility.yul\":529:530   */\n      0x00\n        /* \"#utility.yul\":526:527   */\n      dup1\n        /* \"#utility.yul\":519:531   */\n      revert\n        /* \"#utility.yul\":470:533   */\n    tag_147:\n        /* \"#utility.yul\":417:539   */\n      pop\n      jump\t// out\n        /* \"#utility.yul\":545:684   */\n    tag_91:\n        /* \"#utility.yul\":591:596   */\n      0x00\n        /* \"#utility.yul\":629:635   */\n      dup2\n        /* \"#utility.yul\":616:636   */\n      calldataload\n        /* \"#utility.yul\":607:636   */\n      swap1\n      pop\n        /* \"#utility.yul\":645:678   */\n      tag_149\n        /* \"#utility.yul\":672:677   */\n      dup2\n        /* \"#utility.yul\":645:678   */\n      tag_90\n      jump\t// in\n    tag_149:\n        /* \"#utility.yul\":545:684   */\n      swap3\n      swap2\n      pop\n      pop\n      jump\t// out\n        /* \"#utility.yul\":690:807   */\n    tag_92:\n        /* \"#utility.yul\":799:800   */\n      0x00\n        /* \"#utility.yul\":796:797   */\n      dup1\n        /* \"#utility.yul\":789:801   */\n      revert\n        /* \"#utility.yul\":813:915   */\n    tag_93:\n        /* \"#utility.yul\":854:860   */\n      0x00\n        /* \"#utility.yul\":905:907   */\n      0x1f\n        /* \"#utility.yul\":901:908   */\n      not\n        /* \"#utility.yul\":896:898   */\n      0x1f\n        /* \"#utility.yul\":889:894   */\n      dup4\n        /* \"#utility.yul\":885:899   */\n      add\n        /* \"#utility.yul\":881:909   */\n      and\n        /* \"#utility.yul\":871:909   */\n      swap1\n      pop\n        /* \"#utility.yul\":813:915   */\n      swap2\n      swap1\n      pop\n      jump\t// out\n        /* \"#utility.yul\":921:1101   */\n    tag_41:\n        /* \"#utility.yul\":969:1046   */\n      0x4e487b7100000000000000000000000000000000000000000000000000000000\n        /* \"#utility.yul\":966:967   */\n      0x00\n        /* \"#utility.yul\":959:1047   */\n      mstore\n        /* \"#utility.yul\":1066:1070   */\n      0x41\n        /* \"#utility.yul\":1063:1064   */\n      0x04\n        /* \"#utility.yul\":1056:1071   */\n      mstore\n        /* \"#utility.yul\":1090:1094   */\n      0x24\n        /* \"#utility.yul\":1087:1088   */\n      0x00\n        /* \"#utility.yul\":1080:1095   */\n      revert\n        /* \"#utility.yul\":1107:1388   */\n    tag_94:\n        /* \"#utility.yul\":1190:1217   */\n      tag_154\n        /* \"#utility.yul\":1212:1216   */\n      dup3\n        /* \"#utility.yul\":1190:1217   */\n      tag_93\n      jump\t// in\n    tag_154:\n        /* \"#utility.yul\":1182:1188   */\n      dup2\n        /* \"#utility.yul\":1178:1218   */\n      add\n        /* \"#utility.yul\":1320:1326   */\n      dup2\n        /* \"#utility.yul\":1308:1318   */\n      dup2\n        /* \"#utility.yul\":1305:1327   */\n      lt\n        /* \"#utility.yul\":1284:1302   */\n      0xffffffffffffffff\n        /* \"#utility.yul\":1272:1282   */\n      dup3\n        /* \"#utility.yul\":1269:1303   */\n      gt\n        /* \"#utility.yul\":1266:1328   */\n      or\n        /* \"#utility.yul\":1263:1351   */\n      iszero\n      tag_155\n      jumpi\n        /* \"#utility.yul\":1331:1349   */\n      tag_156\n      tag_41\n      jump\t// in\n    tag_156:\n        /* \"#utility.yul\":1263:1351   */\n    tag_155:\n        /* \"#utility.yul\":1371:1381   */\n      dup1\n        /* \"#utility.yul\":1367:1369   */\n      0x40\n        /* \"#utility.yul\":1360:1382   */\n      mstore\n        /* \"#utility.yul\":1150:1388   */\n      pop\n        /* \"#utility.yul\":1107:1388   */\n      pop\n      pop\n      jump\t// out\n        /* \"#utility.yul\":1394:1523   */\n    tag_95:\n        /* \"#utility.yul\":1428:1434   */\n      0x00\n        /* \"#utility.yul\":1455:1475   */\n      tag_158\n      tag_86\n      jump\t// in\n    tag_158:\n        /* \"#utility.yul\":1445:1475   */\n      swap1\n      pop\n        /* \"#utility.yul\":1484:1517   */\n      tag_159\n        /* \"#utility.yul\":1512:1516   */\n      dup3\n        /* \"#utility.yul\":1504:1510   */\n      dup3\n        /* \"#utility.yul\":1484:1517   */\n      tag_94\n      jump\t// in\n    tag_159:\n        /* \"#utility.yul\":1394:1523   */\n      swap2\n      swap1\n      pop\n      jump\t// out\n        /* \"#utility.yul\":1529:1850   */\n    tag_96:\n        /* \"#utility.yul\":1616:1620   */\n      0x00\n        /* \"#utility.yul\":1706:1724   */\n      0xffffffffffffffff\n        /* \"#utility.yul\":1698:1704   */\n      dup3\n        /* \"#utility.yul\":1695:1725   */\n      gt\n        /* \"#utility.yul\":1692:1748   */\n      iszero\n      tag_161\n      jumpi\n        /* \"#utility.yul\":1728:1746   */\n      tag_162\n      tag_41\n      jump\t// in\n    tag_162:\n        /* \"#utility.yul\":1692:1748   */\n    tag_161:\n        /* \"#utility.yul\":1778:1782   */\n      0x20\n        /* \"#utility.yul\":1770:1776   */\n      dup3\n        /* \"#utility.yul\":1766:1783   */\n      mul\n        /* \"#utility.yul\":1758:1783   */\n      swap1\n      pop\n        /* \"#utility.yul\":1838:1842   */\n      0x20\n        /* \"#utility.yul\":1832:1836   */\n      dup2\n        /* \"#utility.yul\":1828:1843   */\n      add\n        /* \"#utility.yul\":1820:1843   */\n      swap1\n      pop\n        /* \"#utility.yul\":1529:1850   */\n      swap2\n      swap1\n      pop\n      jump\t// out\n        /* \"#utility.yul\":1856:1973   */\n    tag_97:\n        /* \"#utility.yul\":1965:1966   */\n      0x00\n        /* \"#utility.yul\":1962:1963   */\n      dup1\n        /* \"#utility.yul\":1955:1967   */\n      revert\n        /* \"#utility.yul\":1979:2096   */\n    tag_98:\n        /* \"#utility.yul\":2088:2089   */\n      0x00\n        /* \"#utility.yul\":2085:2086   */\n      dup1\n        /* \"#utility.yul\":2078:2090   */\n      revert\n        /* \"#utility.yul\":2102:2410   */\n    tag_99:\n        /* \"#utility.yul\":2164:2168   */\n      0x00\n        /* \"#utility.yul\":2254:2272   */\n      0xffffffffffffffff\n        /* \"#utility.yul\":2246:2252   */\n      dup3\n        /* \"#utility.yul\":2243:2273   */\n      gt\n        /* \"#utility.yul\":2240:2296   */\n      iszero\n      tag_166\n      jumpi\n        /* \"#utility.yul\":2276:2294   */\n      tag_167\n      tag_41\n      jump\t// in\n    tag_167:\n        /* \"#utility.yul\":2240:2296   */\n    tag_166:\n        /* \"#utility.yul\":2314:2343   */\n      tag_168\n        /* \"#utility.yul\":2336:2342   */\n      dup3\n        /* \"#utility.yul\":2314:2343   */\n      tag_93\n      jump\t// in\n    tag_168:\n        /* \"#utility.yul\":2306:2343   */\n      swap1\n      pop\n        /* \"#utility.yul\":2398:2402   */\n      0x20\n        /* \"#utility.yul\":2392:2396   */\n      dup2\n        /* \"#utility.yul\":2388:2403   */\n      add\n        /* \"#utility.yul\":2380:2403   */\n      swap1\n      pop\n        /* \"#utility.yul\":2102:2410   */\n      swap2\n      swap1\n      pop\n      jump\t// out\n        /* \"#utility.yul\":2416:2562   */\n    tag_100:\n        /* \"#utility.yul\":2513:2519   */\n      dup3\n        /* \"#utility.yul\":2508:2511   */\n      dup2\n        /* \"#utility.yul\":2503:2506   */\n      dup4\n        /* \"#utility.yul\":2490:2520   */\n      calldatacopy\n        /* \"#utility.yul\":2554:2555   */\n      0x00\n        /* \"#utility.yul\":2545:2551   */\n      dup4\n        /* \"#utility.yul\":2540:2543   */\n      dup4\n        /* \"#utility.yul\":2536:2552   */\n      add\n        /* \"#utility.yul\":2529:2556   */\n      mstore\n        /* \"#utility.yul\":2416:2562   */\n      pop\n      pop\n      pop\n      jump\t// out\n        /* \"#utility.yul\":2568:2993   */\n    tag_101:\n        /* \"#utility.yul\":2646:2651   */\n      0x00\n        /* \"#utility.yul\":2671:2737   */\n      tag_171\n        /* \"#utility.yul\":2687:2736   */\n      tag_172\n        /* \"#utility.yul\":2729:2735   */\n      dup5\n        /* \"#utility.yul\":2687:2736   */\n      tag_99\n      jump\t// in\n    tag_172:\n        /* \"#utility.yul\":2671:2737   */\n      tag_95\n      jump\t// in\n    tag_171:\n        /* \"#utility.yul\":2662:2737   */\n      swap1\n      pop\n        /* \"#utility.yul\":2760:2766   */\n      dup3\n        /* \"#utility.yul\":2753:2758   */\n      dup2\n        /* \"#utility.yul\":2746:2767   */\n      mstore\n        /* \"#utility.yul\":2798:2802   */\n      0x20\n        /* \"#utility.yul\":2791:2796   */\n      dup2\n        /* \"#utility.yul\":2787:2803   */\n      add\n        /* \"#utility.yul\":2836:2839   */\n      dup5\n        /* \"#utility.yul\":2827:2833   */\n      dup5\n        /* \"#utility.yul\":2822:2825   */\n      dup5\n        /* \"#utility.yul\":2818:2834   */\n      add\n        /* \"#utility.yul\":2815:2840   */\n      gt\n        /* \"#utility.yul\":2812:2924   */\n      iszero\n      tag_173\n      jumpi\n        /* \"#utility.yul\":2843:2922   */\n      tag_174\n      tag_98\n      jump\t// in\n    tag_174:\n        /* \"#utility.yul\":2812:2924   */\n    tag_173:\n        /* \"#utility.yul\":2933:2987   */\n      tag_175\n        /* \"#utility.yul\":2980:2986   */\n      dup5\n        /* \"#utility.yul\":2975:2978   */\n      dup3\n        /* \"#utility.yul\":2970:2973   */\n      dup6\n        /* \"#utility.yul\":2933:2987   */\n      tag_100\n      jump\t// in\n    tag_175:\n        /* \"#utility.yul\":2652:2993   */\n      pop\n        /* \"#utility.yul\":2568:2993   */\n      swap4\n      swap3\n      pop\n      pop\n      pop\n      jump\t// out\n        /* \"#utility.yul\":3013:3353   */\n    tag_102:\n        /* \"#utility.yul\":3069:3074   */\n      0x00\n        /* \"#utility.yul\":3118:3121   */\n      dup3\n        /* \"#utility.yul\":3111:3115   */\n      0x1f\n        /* \"#utility.yul\":3103:3109   */\n      dup4\n        /* \"#utility.yul\":3099:3116   */\n      add\n        /* \"#utility.yul\":3095:3122   */\n      slt\n        /* \"#utility.yul\":3085:3207   */\n      tag_177\n      jumpi\n        /* \"#utility.yul\":3126:3205   */\n      tag_178\n      tag_92\n      jump\t// in\n    tag_178:\n        /* \"#utility.yul\":3085:3207   */\n    tag_177:\n        /* \"#utility.yul\":3243:3249   */\n      dup2\n        /* \"#utility.yul\":3230:3250   */\n      calldataload\n        /* \"#utility.yul\":3268:3347   */\n      tag_179\n        /* \"#utility.yul\":3343:3346   */\n      dup5\n        /* \"#utility.yul\":3335:3341   */\n      dup3\n        /* \"#utility.yul\":3328:3332   */\n      0x20\n        /* \"#utility.yul\":3320:3326   */\n      dup7\n        /* \"#utility.yul\":3316:3333   */\n      add\n        /* \"#utility.yul\":3268:3347   */\n      tag_101\n      jump\t// in\n    tag_179:\n        /* \"#utility.yul\":3259:3347   */\n      swap2\n      pop\n        /* \"#utility.yul\":3075:3353   */\n      pop\n        /* \"#utility.yul\":3013:3353   */\n      swap3\n      swap2\n      pop\n      pop\n      jump\t// out\n        /* \"#utility.yul\":3375:4320   */\n    tag_103:\n        /* \"#utility.yul\":3481:3486   */\n      0x00\n        /* \"#utility.yul\":3506:3597   */\n      tag_181\n        /* \"#utility.yul\":3522:3596   */\n      tag_182\n        /* \"#utility.yul\":3589:3595   */\n      dup5\n        /* \"#utility.yul\":3522:3596   */\n      tag_96\n      jump\t// in\n    tag_182:\n        /* \"#utility.yul\":3506:3597   */\n      tag_95\n      jump\t// in\n    tag_181:\n        /* \"#utility.yul\":3497:3597   */\n      swap1\n      pop\n        /* \"#utility.yul\":3617:3622   */\n      dup1\n        /* \"#utility.yul\":3646:3652   */\n      dup4\n        /* \"#utility.yul\":3639:3644   */\n      dup3\n        /* \"#utility.yul\":3632:3653   */\n      mstore\n        /* \"#utility.yul\":3680:3684   */\n      0x20\n        /* \"#utility.yul\":3673:3678   */\n      dup3\n        /* \"#utility.yul\":3669:3685   */\n      add\n        /* \"#utility.yul\":3662:3685   */\n      swap1\n      pop\n        /* \"#utility.yul\":3733:3737   */\n      0x20\n        /* \"#utility.yul\":3725:3731   */\n      dup5\n        /* \"#utility.yul\":3721:3738   */\n      mul\n        /* \"#utility.yul\":3713:3719   */\n      dup4\n        /* \"#utility.yul\":3709:3739   */\n      add\n        /* \"#utility.yul\":3762:3765   */\n      dup6\n        /* \"#utility.yul\":3754:3760   */\n      dup2\n        /* \"#utility.yul\":3751:3766   */\n      gt\n        /* \"#utility.yul\":3748:3870   */\n      iszero\n      tag_183\n      jumpi\n        /* \"#utility.yul\":3781:3860   */\n      tag_184\n      tag_97\n      jump\t// in\n    tag_184:\n        /* \"#utility.yul\":3748:3870   */\n    tag_183:\n        /* \"#utility.yul\":3896:3902   */\n      dup4\n        /* \"#utility.yul\":3879:4314   */\n    tag_185:\n        /* \"#utility.yul\":3913:3919   */\n      dup2\n        /* \"#utility.yul\":3908:3911   */\n      dup2\n        /* \"#utility.yul\":3905:3920   */\n      lt\n        /* \"#utility.yul\":3879:4314   */\n      iszero\n      tag_187\n      jumpi\n        /* \"#utility.yul\":4002:4005   */\n      dup1\n        /* \"#utility.yul\":3989:4006   */\n      calldataload\n        /* \"#utility.yul\":4038:4056   */\n      0xffffffffffffffff\n        /* \"#utility.yul\":4025:4036   */\n      dup2\n        /* \"#utility.yul\":4022:4057   */\n      gt\n        /* \"#utility.yul\":4019:4141   */\n      iszero\n      tag_188\n      jumpi\n        /* \"#utility.yul\":4060:4139   */\n      tag_189\n      tag_92\n      jump\t// in\n    tag_189:\n        /* \"#utility.yul\":4019:4141   */\n    tag_188:\n        /* \"#utility.yul\":4184:4195   */\n      dup1\n        /* \"#utility.yul\":4176:4182   */\n      dup7\n        /* \"#utility.yul\":4172:4196   */\n      add\n        /* \"#utility.yul\":4222:4269   */\n      tag_190\n        /* \"#utility.yul\":4265:4268   */\n      dup10\n        /* \"#utility.yul\":4253:4263   */\n      dup3\n        /* \"#utility.yul\":4222:4269   */\n      tag_102\n      jump\t// in\n    tag_190:\n        /* \"#utility.yul\":4217:4220   */\n      dup6\n        /* \"#utility.yul\":4210:4270   */\n      mstore\n        /* \"#utility.yul\":4299:4303   */\n      0x20\n        /* \"#utility.yul\":4294:4297   */\n      dup6\n        /* \"#utility.yul\":4290:4304   */\n      add\n        /* \"#utility.yul\":4283:4304   */\n      swap5\n      pop\n        /* \"#utility.yul\":3955:4314   */\n      pop\n      pop\n        /* \"#utility.yul\":3939:3943   */\n      0x20\n        /* \"#utility.yul\":3934:3937   */\n      dup2\n        /* \"#utility.yul\":3930:3944   */\n      add\n        /* \"#utility.yul\":3923:3944   */\n      swap1\n      pop\n        /* \"#utility.yul\":3879:4314   */\n      jump(tag_185)\n    tag_187:\n        /* \"#utility.yul\":3883:3904   */\n      pop\n        /* \"#utility.yul\":3487:4320   */\n      pop\n      pop\n        /* \"#utility.yul\":3375:4320   */\n      swap4\n      swap3\n      pop\n      pop\n      pop\n      jump\t// out\n        /* \"#utility.yul\":4342:4732   */\n    tag_104:\n        /* \"#utility.yul\":4423:4428   */\n      0x00\n        /* \"#utility.yul\":4472:4475   */\n      dup3\n        /* \"#utility.yul\":4465:4469   */\n      0x1f\n        /* \"#utility.yul\":4457:4463   */\n      dup4\n        /* \"#utility.yul\":4453:4470   */\n      add\n        /* \"#utility.yul\":4449:4476   */\n      slt\n        /* \"#utility.yul\":4439:4561   */\n      tag_192\n      jumpi\n        /* \"#utility.yul\":4480:4559   */\n      tag_193\n      tag_92\n      jump\t// in\n    tag_193:\n        /* \"#utility.yul\":4439:4561   */\n    tag_192:\n        /* \"#utility.yul\":4597:4603   */\n      dup2\n        /* \"#utility.yul\":4584:4604   */\n      calldataload\n        /* \"#utility.yul\":4622:4726   */\n      tag_194\n        /* \"#utility.yul\":4722:4725   */\n      dup5\n        /* \"#utility.yul\":4714:4720   */\n      dup3\n        /* \"#utility.yul\":4707:4711   */\n      0x20\n        /* \"#utility.yul\":4699:4705   */\n      dup7\n        /* \"#utility.yul\":4695:4712   */\n      add\n        /* \"#utility.yul\":4622:4726   */\n      tag_103\n      jump\t// in\n    tag_194:\n        /* \"#utility.yul\":4613:4726   */\n      swap2\n      pop\n        /* \"#utility.yul\":4429:4732   */\n      pop\n        /* \"#utility.yul\":4342:4732   */\n      swap3\n      swap2\n      pop\n      pop\n      jump\t// out\n        /* \"#utility.yul\":4738:5817   */\n    tag_7:\n        /* \"#utility.yul\":4885:4891   */\n      0x00\n        /* \"#utility.yul\":4893:4899   */\n      dup1\n        /* \"#utility.yul\":4901:4907   */\n      0x00\n        /* \"#utility.yul\":4950:4952   */\n      0x60\n        /* \"#utility.yul\":4938:4947   */\n      dup5\n        /* \"#utility.yul\":4929:4936   */\n      dup7\n        /* \"#utility.yul\":4925:4948   */\n      sub\n        /* \"#utility.yul\":4921:4953   */\n      slt\n        /* \"#utility.yul\":4918:5037   */\n      iszero\n      tag_196\n      jumpi\n        /* \"#utility.yul\":4956:5035   */\n      tag_197\n      tag_87\n      jump\t// in\n    tag_197:\n        /* \"#utility.yul\":4918:5037   */\n    tag_196:\n        /* \"#utility.yul\":5076:5077   */\n      0x00\n        /* \"#utility.yul\":5101:5154   */\n      tag_198\n        /* \"#utility.yul\":5146:5153   */\n      dup7\n        /* \"#utility.yul\":5137:5143   */\n      dup3\n        /* \"#utility.yul\":5126:5135   */\n      dup8\n        /* \"#utility.yul\":5122:5144   */\n      add\n        /* \"#utility.yul\":5101:5154   */\n      tag_91\n      jump\t// in\n    tag_198:\n        /* \"#utility.yul\":5091:5154   */\n      swap4\n      pop\n        /* \"#utility.yul\":5047:5164   */\n      pop\n        /* \"#utility.yul\":5231:5233   */\n      0x20\n        /* \"#utility.yul\":5220:5229   */\n      dup5\n        /* \"#utility.yul\":5216:5234   */\n      add\n        /* \"#utility.yul\":5203:5235   */\n      calldataload\n        /* \"#utility.yul\":5262:5280   */\n      0xffffffffffffffff\n        /* \"#utility.yul\":5254:5260   */\n      dup2\n        /* \"#utility.yul\":5251:5281   */\n      gt\n        /* \"#utility.yul\":5248:5365   */\n      iszero\n      tag_199\n      jumpi\n        /* \"#utility.yul\":5284:5363   */\n      tag_200\n      tag_88\n      jump\t// in\n    tag_200:\n        /* \"#utility.yul\":5248:5365   */\n    tag_199:\n        /* \"#utility.yul\":5389:5477   */\n      tag_201\n        /* \"#utility.yul\":5469:5476   */\n      dup7\n        /* \"#utility.yul\":5460:5466   */\n      dup3\n        /* \"#utility.yul\":5449:5458   */\n      dup8\n        /* \"#utility.yul\":5445:5467   */\n      add\n        /* \"#utility.yul\":5389:5477   */\n      tag_104\n      jump\t// in\n    tag_201:\n        /* \"#utility.yul\":5379:5477   */\n      swap3\n      pop\n        /* \"#utility.yul\":5174:5487   */\n      pop\n        /* \"#utility.yul\":5554:5556   */\n      0x40\n        /* \"#utility.yul\":5543:5552   */\n      dup5\n        /* \"#utility.yul\":5539:5557   */\n      add\n        /* \"#utility.yul\":5526:5558   */\n      calldataload\n        /* \"#utility.yul\":5585:5603   */\n      0xffffffffffffffff\n        /* \"#utility.yul\":5577:5583   */\n      dup2\n        /* \"#utility.yul\":5574:5604   */\n      gt\n        /* \"#utility.yul\":5571:5688   */\n      iszero\n      tag_202\n      jumpi\n        /* \"#utility.yul\":5607:5686   */\n      tag_203\n      tag_88\n      jump\t// in\n    tag_203:\n        /* \"#utility.yul\":5571:5688   */\n    tag_202:\n        /* \"#utility.yul\":5712:5800   */\n      tag_204\n        /* \"#utility.yul\":5792:5799   */\n      dup7\n        /* \"#utility.yul\":5783:5789   */\n      dup3\n        /* \"#utility.yul\":5772:5781   */\n      dup8\n        /* \"#utility.yul\":5768:5790   */\n      add\n        /* \"#utility.yul\":5712:5800   */\n      tag_104\n      jump\t// in\n    tag_204:\n        /* \"#utility.yul\":5702:5800   */\n      swap2\n      pop\n        /* \"#utility.yul\":5497:5810   */\n      pop\n        /* \"#utility.yul\":4738:5817   */\n      swap3\n      pop\n      swap3\n      pop\n      swap3\n      jump\t// out\n        /* \"#utility.yul\":5823:6152   */\n    tag_11:\n        /* \"#utility.yul\":5882:5888   */\n      0x00\n        /* \"#utility.yul\":5931:5933   */\n      0x20\n        /* \"#utility.yul\":5919:5928   */\n      dup3\n        /* \"#utility.yul\":5910:5917   */\n      dup5\n        /* \"#utility.yul\":5906:5929   */\n      sub\n        /* \"#utility.yul\":5902:5934   */\n      slt\n        /* \"#utility.yul\":5899:6018   */\n      iszero\n      tag_206\n      jumpi\n        /* \"#utility.yul\":5937:6016   */\n      tag_207\n      tag_87\n      jump\t// in\n    tag_207:\n        /* \"#utility.yul\":5899:6018   */\n    tag_206:\n        /* \"#utility.yul\":6057:6058   */\n      0x00\n        /* \"#utility.yul\":6082:6135   */\n      tag_208\n        /* \"#utility.yul\":6127:6134   */\n      dup5\n        /* \"#utility.yul\":6118:6124   */\n      dup3\n        /* \"#utility.yul\":6107:6116   */\n      dup6\n        /* \"#utility.yul\":6103:6125   */\n      add\n        /* \"#utility.yul\":6082:6135   */\n      tag_91\n      jump\t// in\n    tag_208:\n        /* \"#utility.yul\":6072:6135   */\n      swap2\n      pop\n        /* \"#utility.yul\":6028:6145   */\n      pop\n        /* \"#utility.yul\":5823:6152   */\n      swap3\n      swap2\n      pop\n      pop\n      jump\t// out\n        /* \"#utility.yul\":6158:6282   */\n    tag_105:\n        /* \"#utility.yul\":6235:6241   */\n      0x00\n        /* \"#utility.yul\":6269:6274   */\n      dup2\n        /* \"#utility.yul\":6263:6275   */\n      mload\n        /* \"#utility.yul\":6253:6275   */\n      swap1\n      pop\n        /* \"#utility.yul\":6158:6282   */\n      swap2\n      swap1\n      pop\n      jump\t// out\n        /* \"#utility.yul\":6288:6482   */\n    tag_106:\n        /* \"#utility.yul\":6397:6408   */\n      0x00\n        /* \"#utility.yul\":6431:6437   */\n      dup3\n        /* \"#utility.yul\":6426:6429   */\n      dup3\n        /* \"#utility.yul\":6419:6438   */\n      mstore\n        /* \"#utility.yul\":6471:6475   */\n      0x20\n        /* \"#utility.yul\":6466:6469   */\n      dup3\n        /* \"#utility.yul\":6462:6476   */\n      add\n        /* \"#utility.yul\":6447:6476   */\n      swap1\n      pop\n        /* \"#utility.yul\":6288:6482   */\n      swap3\n      swap2\n      pop\n      pop\n      jump\t// out\n        /* \"#utility.yul\":6488:6630   */\n    tag_107:\n        /* \"#utility.yul\":6565:6569   */\n      0x00\n        /* \"#utility.yul\":6588:6591   */\n      dup2\n        /* \"#utility.yul\":6580:6591   */\n      swap1\n      pop\n        /* \"#utility.yul\":6618:6622   */\n      0x20\n        /* \"#utility.yul\":6613:6616   */\n      dup3\n        /* \"#utility.yul\":6609:6623   */\n      add\n        /* \"#utility.yul\":6601:6623   */\n      swap1\n      pop\n        /* \"#utility.yul\":6488:6630   */\n      swap2\n      swap1\n      pop\n      jump\t// out\n        /* \"#utility.yul\":6636:6735   */\n    tag_108:\n        /* \"#utility.yul\":6688:6694   */\n      0x00\n        /* \"#utility.yul\":6722:6727   */\n      dup2\n        /* \"#utility.yul\":6716:6728   */\n      mload\n        /* \"#utility.yul\":6706:6728   */\n      swap1\n      pop\n        /* \"#utility.yul\":6636:6735   */\n      swap2\n      swap1\n      pop\n      jump\t// out\n        /* \"#utility.yul\":6741:6900   */\n    tag_109:\n        /* \"#utility.yul\":6815:6826   */\n      0x00\n        /* \"#utility.yul\":6849:6855   */\n      dup3\n        /* \"#utility.yul\":6844:6847   */\n      dup3\n        /* \"#utility.yul\":6837:6856   */\n      mstore\n        /* \"#utility.yul\":6889:6893   */\n      0x20\n        /* \"#utility.yul\":6884:6887   */\n      dup3\n        /* \"#utility.yul\":6880:6894   */\n      add\n        /* \"#utility.yul\":6865:6894   */\n      swap1\n      pop\n        /* \"#utility.yul\":6741:6900   */\n      swap3\n      swap2\n      pop\n      pop\n      jump\t// out\n        /* \"#utility.yul\":6906:7152   */\n    tag_110:\n        /* \"#utility.yul\":6987:6988   */\n      0x00\n        /* \"#utility.yul\":6997:7110   */\n    tag_215:\n        /* \"#utility.yul\":7011:7017   */\n      dup4\n        /* \"#utility.yul\":7008:7009   */\n      dup2\n        /* \"#utility.yul\":7005:7018   */\n      lt\n        /* \"#utility.yul\":6997:7110   */\n      iszero\n      tag_217\n      jumpi\n        /* \"#utility.yul\":7096:7097   */\n      dup1\n        /* \"#utility.yul\":7091:7094   */\n      dup3\n        /* \"#utility.yul\":7087:7098   */\n      add\n        /* \"#utility.yul\":7081:7099   */\n      mload\n        /* \"#utility.yul\":7077:7078   */\n      dup2\n        /* \"#utility.yul\":7072:7075   */\n      dup5\n        /* \"#utility.yul\":7068:7079   */\n      add\n        /* \"#utility.yul\":7061:7100   */\n      mstore\n        /* \"#utility.yul\":7033:7035   */\n      0x20\n        /* \"#utility.yul\":7030:7031   */\n      dup2\n        /* \"#utility.yul\":7026:7036   */\n      add\n        /* \"#utility.yul\":7021:7036   */\n      swap1\n      pop\n        /* \"#utility.yul\":6997:7110   */\n      jump(tag_215)\n    tag_217:\n        /* \"#utility.yul\":7144:7145   */\n      0x00\n        /* \"#utility.yul\":7135:7141   */\n      dup5\n        /* \"#utility.yul\":7130:7133   */\n      dup5\n        /* \"#utility.yul\":7126:7142   */\n      add\n        /* \"#utility.yul\":7119:7146   */\n      mstore\n        /* \"#utility.yul\":6968:7152   */\n      pop\n        /* \"#utility.yul\":6906:7152   */\n      pop\n      pop\n      pop\n      jump\t// out\n        /* \"#utility.yul\":7158:7515   */\n    tag_111:\n        /* \"#utility.yul\":7236:7239   */\n      0x00\n        /* \"#utility.yul\":7264:7303   */\n      tag_219\n        /* \"#utility.yul\":7297:7302   */\n      dup3\n        /* \"#utility.yul\":7264:7303   */\n      tag_108\n      jump\t// in\n    tag_219:\n        /* \"#utility.yul\":7319:7380   */\n      tag_220\n        /* \"#utility.yul\":7373:7379   */\n      dup2\n        /* \"#utility.yul\":7368:7371   */\n      dup6\n        /* \"#utility.yul\":7319:7380   */\n      tag_109\n      jump\t// in\n    tag_220:\n        /* \"#utility.yul\":7312:7380   */\n      swap4\n      pop\n        /* \"#utility.yul\":7389:7454   */\n      tag_221\n        /* \"#utility.yul\":7447:7453   */\n      dup2\n        /* \"#utility.yul\":7442:7445   */\n      dup6\n        /* \"#utility.yul\":7435:7439   */\n      0x20\n        /* \"#utility.yul\":7428:7433   */\n      dup7\n        /* \"#utility.yul\":7424:7440   */\n      add\n        /* \"#utility.yul\":7389:7454   */\n      tag_110\n      jump\t// in\n    tag_221:\n        /* \"#utility.yul\":7479:7508   */\n      tag_222\n        /* \"#utility.yul\":7501:7507   */\n      dup2\n        /* \"#utility.yul\":7479:7508   */\n      tag_93\n      jump\t// in\n    tag_222:\n        /* \"#utility.yul\":7474:7477   */\n      dup5\n        /* \"#utility.yul\":7470:7509   */\n      add\n        /* \"#utility.yul\":7463:7509   */\n      swap2\n      pop\n        /* \"#utility.yul\":7240:7515   */\n      pop\n        /* \"#utility.yul\":7158:7515   */\n      swap3\n      swap2\n      pop\n      pop\n      jump\t// out\n        /* \"#utility.yul\":7521:7717   */\n    tag_112:\n        /* \"#utility.yul\":7610:7620   */\n      0x00\n        /* \"#utility.yul\":7645:7711   */\n      tag_224\n        /* \"#utility.yul\":7707:7710   */\n      dup4\n        /* \"#utility.yul\":7699:7705   */\n      dup4\n        /* \"#utility.yul\":7645:7711   */\n      tag_111\n      jump\t// in\n    tag_224:\n        /* \"#utility.yul\":7631:7711   */\n      swap1\n      pop\n        /* \"#utility.yul\":7521:7717   */\n      swap3\n      swap2\n      pop\n      pop\n      jump\t// out\n        /* \"#utility.yul\":7723:7846   */\n    tag_113:\n        /* \"#utility.yul\":7803:7807   */\n      0x00\n        /* \"#utility.yul\":7835:7839   */\n      0x20\n        /* \"#utility.yul\":7830:7833   */\n      dup3\n        /* \"#utility.yul\":7826:7840   */\n      add\n        /* \"#utility.yul\":7818:7840   */\n      swap1\n      pop\n        /* \"#utility.yul\":7723:7846   */\n      swap2\n      swap1\n      pop\n      jump\t// out\n        /* \"#utility.yul\":7880:8871   */\n    tag_114:\n        /* \"#utility.yul\":8019:8022   */\n      0x00\n        /* \"#utility.yul\":8048:8112   */\n      tag_227\n        /* \"#utility.yul\":8106:8111   */\n      dup3\n        /* \"#utility.yul\":8048:8112   */\n      tag_105\n      jump\t// in\n    tag_227:\n        /* \"#utility.yul\":8128:8224   */\n      tag_228\n        /* \"#utility.yul\":8217:8223   */\n      dup2\n        /* \"#utility.yul\":8212:8215   */\n      dup6\n        /* \"#utility.yul\":8128:8224   */\n      tag_106\n      jump\t// in\n    tag_228:\n        /* \"#utility.yul\":8121:8224   */\n      swap4\n      pop\n        /* \"#utility.yul\":8250:8253   */\n      dup4\n        /* \"#utility.yul\":8295:8299   */\n      0x20\n        /* \"#utility.yul\":8287:8293   */\n      dup3\n        /* \"#utility.yul\":8283:8300   */\n      mul\n        /* \"#utility.yul\":8278:8281   */\n      dup6\n        /* \"#utility.yul\":8274:8301   */\n      add\n        /* \"#utility.yul\":8325:8391   */\n      tag_229\n        /* \"#utility.yul\":8385:8390   */\n      dup6\n        /* \"#utility.yul\":8325:8391   */\n      tag_107\n      jump\t// in\n    tag_229:\n        /* \"#utility.yul\":8414:8421   */\n      dup1\n        /* \"#utility.yul\":8445:8446   */\n      0x00\n        /* \"#utility.yul\":8430:8826   */\n    tag_230:\n        /* \"#utility.yul\":8455:8461   */\n      dup6\n        /* \"#utility.yul\":8452:8453   */\n      dup2\n        /* \"#utility.yul\":8449:8462   */\n      lt\n        /* \"#utility.yul\":8430:8826   */\n      iszero\n      tag_232\n      jumpi\n        /* \"#utility.yul\":8526:8535   */\n      dup5\n        /* \"#utility.yul\":8520:8524   */\n      dup5\n        /* \"#utility.yul\":8516:8536   */\n      sub\n        /* \"#utility.yul\":8511:8514   */\n      dup10\n        /* \"#utility.yul\":8504:8537   */\n      mstore\n        /* \"#utility.yul\":8577:8583   */\n      dup2\n        /* \"#utility.yul\":8571:8584   */\n      mload\n        /* \"#utility.yul\":8605:8689   */\n      tag_233\n        /* \"#utility.yul\":8684:8688   */\n      dup6\n        /* \"#utility.yul\":8669:8682   */\n      dup3\n        /* \"#utility.yul\":8605:8689   */\n      tag_112\n      jump\t// in\n    tag_233:\n        /* \"#utility.yul\":8597:8689   */\n      swap5\n      pop\n        /* \"#utility.yul\":8712:8782   */\n      tag_234\n        /* \"#utility.yul\":8775:8781   */\n      dup4\n        /* \"#utility.yul\":8712:8782   */\n      tag_113\n      jump\t// in\n    tag_234:\n        /* \"#utility.yul\":8702:8782   */\n      swap3\n      pop\n        /* \"#utility.yul\":8811:8815   */\n      0x20\n        /* \"#utility.yul\":8806:8809   */\n      dup11\n        /* \"#utility.yul\":8802:8816   */\n      add\n        /* \"#utility.yul\":8795:8816   */\n      swap10\n      pop\n        /* \"#utility.yul\":8490:8826   */\n      pop\n        /* \"#utility.yul\":8477:8478   */\n      0x01\n        /* \"#utility.yul\":8474:8475   */\n      dup2\n        /* \"#utility.yul\":8470:8479   */\n      add\n        /* \"#utility.yul\":8465:8479   */\n      swap1\n      pop\n        /* \"#utility.yul\":8430:8826   */\n      jump(tag_230)\n    tag_232:\n        /* \"#utility.yul\":8434:8448   */\n      pop\n        /* \"#utility.yul\":8842:8846   */\n      dup3\n        /* \"#utility.yul\":8835:8846   */\n      swap8\n      pop\n        /* \"#utility.yul\":8862:8865   */\n      dup8\n        /* \"#utility.yul\":8855:8865   */\n      swap6\n      pop\n        /* \"#utility.yul\":8024:8871   */\n      pop\n      pop\n      pop\n      pop\n      pop\n        /* \"#utility.yul\":7880:8871   */\n      swap3\n      swap2\n      pop\n      pop\n      jump\t// out\n        /* \"#utility.yul\":8877:9591   */\n    tag_14:\n        /* \"#utility.yul\":9138:9142   */\n      0x00\n        /* \"#utility.yul\":9176:9178   */\n      0x40\n        /* \"#utility.yul\":9165:9174   */\n      dup3\n        /* \"#utility.yul\":9161:9179   */\n      add\n        /* \"#utility.yul\":9153:9179   */\n      swap1\n      pop\n        /* \"#utility.yul\":9225:9234   */\n      dup2\n        /* \"#utility.yul\":9219:9223   */\n      dup2\n        /* \"#utility.yul\":9215:9235   */\n      sub\n        /* \"#utility.yul\":9211:9212   */\n      0x00\n        /* \"#utility.yul\":9200:9209   */\n      dup4\n        /* \"#utility.yul\":9196:9213   */\n      add\n        /* \"#utility.yul\":9189:9236   */\n      mstore\n        /* \"#utility.yul\":9253:9381   */\n      tag_236\n        /* \"#utility.yul\":9376:9380   */\n      dup2\n        /* \"#utility.yul\":9367:9373   */\n      dup6\n        /* \"#utility.yul\":9253:9381   */\n      tag_114\n      jump\t// in\n    tag_236:\n        /* \"#utility.yul\":9245:9381   */\n      swap1\n      pop\n        /* \"#utility.yul\":9428:9437   */\n      dup2\n        /* \"#utility.yul\":9422:9426   */\n      dup2\n        /* \"#utility.yul\":9418:9438   */\n      sub\n        /* \"#utility.yul\":9413:9415   */\n      0x20\n        /* \"#utility.yul\":9402:9411   */\n      dup4\n        /* \"#utility.yul\":9398:9416   */\n      add\n        /* \"#utility.yul\":9391:9439   */\n      mstore\n        /* \"#utility.yul\":9456:9584   */\n      tag_237\n        /* \"#utility.yul\":9579:9583   */\n      dup2\n        /* \"#utility.yul\":9570:9576   */\n      dup5\n        /* \"#utility.yul\":9456:9584   */\n      tag_114\n      jump\t// in\n    tag_237:\n        /* \"#utility.yul\":9448:9584   */\n      swap1\n      pop\n        /* \"#utility.yul\":8877:9591   */\n      swap4\n      swap3\n      pop\n      pop\n      pop\n      jump\t// out\n        /* \"#utility.yul\":9597:9766   */\n    tag_115:\n        /* \"#utility.yul\":9681:9692   */\n      0x00\n        /* \"#utility.yul\":9715:9721   */\n      dup3\n        /* \"#utility.yul\":9710:9713   */\n      dup3\n        /* \"#utility.yul\":9703:9722   */\n      mstore\n        /* \"#utility.yul\":9755:9759   */\n      0x20\n        /* \"#utility.yul\":9750:9753   */\n      dup3\n        /* \"#utility.yul\":9746:9760   */\n      add\n        /* \"#utility.yul\":9731:9760   */\n      swap1\n      pop\n        /* \"#utility.yul\":9597:9766   */\n      swap3\n      swap2\n      pop\n      pop\n      jump\t// out\n        /* \"#utility.yul\":9772:9946   */\n    tag_116:\n        /* \"#utility.yul\":9912:9938   */\n      0x5b4552524f525d20494420616c7761797320696e207573650000000000000000\n        /* \"#utility.yul\":9908:9909   */\n      0x00\n        /* \"#utility.yul\":9900:9906   */\n      dup3\n        /* \"#utility.yul\":9896:9910   */\n      add\n        /* \"#utility.yul\":9889:9939   */\n      mstore\n        /* \"#utility.yul\":9772:9946   */\n      pop\n      jump\t// out\n        /* \"#utility.yul\":9952:10318   */\n    tag_117:\n        /* \"#utility.yul\":10094:10097   */\n      0x00\n        /* \"#utility.yul\":10115:10182   */\n      tag_241\n        /* \"#utility.yul\":10179:10181   */\n      0x18\n        /* \"#utility.yul\":10174:10177   */\n      dup4\n        /* \"#utility.yul\":10115:10182   */\n      tag_115\n      jump\t// in\n    tag_241:\n        /* \"#utility.yul\":10108:10182   */\n      swap2\n      pop\n        /* \"#utility.yul\":10191:10284   */\n      tag_242\n        /* \"#utility.yul\":10280:10283   */\n      dup3\n        /* \"#utility.yul\":10191:10284   */\n      tag_116\n      jump\t// in\n    tag_242:\n        /* \"#utility.yul\":10309:10311   */\n      0x20\n        /* \"#utility.yul\":10304:10307   */\n      dup3\n        /* \"#utility.yul\":10300:10312   */\n      add\n        /* \"#utility.yul\":10293:10312   */\n      swap1\n      pop\n        /* \"#utility.yul\":9952:10318   */\n      swap2\n      swap1\n      pop\n      jump\t// out\n        /* \"#utility.yul\":10324:10743   */\n    tag_18:\n        /* \"#utility.yul\":10490:10494   */\n      0x00\n        /* \"#utility.yul\":10528:10530   */\n      0x20\n        /* \"#utility.yul\":10517:10526   */\n      dup3\n        /* \"#utility.yul\":10513:10531   */\n      add\n        /* \"#utility.yul\":10505:10531   */\n      swap1\n      pop\n        /* \"#utility.yul\":10577:10586   */\n      dup2\n        /* \"#utility.yul\":10571:10575   */\n      dup2\n        /* \"#utility.yul\":10567:10587   */\n      sub\n        /* \"#utility.yul\":10563:10564   */\n      0x00\n        /* \"#utility.yul\":10552:10561   */\n      dup4\n        /* \"#utility.yul\":10548:10565   */\n      add\n        /* \"#utility.yul\":10541:10588   */\n      mstore\n        /* \"#utility.yul\":10605:10736   */\n      tag_244\n        /* \"#utility.yul\":10731:10735   */\n      dup2\n        /* \"#utility.yul\":10605:10736   */\n      tag_117\n      jump\t// in\n    tag_244:\n        /* \"#utility.yul\":10597:10736   */\n      swap1\n      pop\n        /* \"#utility.yul\":10324:10743   */\n      swap2\n      swap1\n      pop\n      jump\t// out\n        /* \"#utility.yul\":10749:10992   */\n    tag_118:\n        /* \"#utility.yul\":10889:10923   */\n      0x5b4552524f525d20546865206c656e677468206f6620746865206b6579732061\n        /* \"#utility.yul\":10885:10886   */\n      0x00\n        /* \"#utility.yul\":10877:10883   */\n      dup3\n        /* \"#utility.yul\":10873:10887   */\n      add\n        /* \"#utility.yul\":10866:10924   */\n      mstore\n        /* \"#utility.yul\":10958:10984   */\n      0x6e642076616c75657320617265206e6f746520657175616c0000000000000000\n        /* \"#utility.yul\":10953:10955   */\n      0x20\n        /* \"#utility.yul\":10945:10951   */\n      dup3\n        /* \"#utility.yul\":10941:10956   */\n      add\n        /* \"#utility.yul\":10934:10985   */\n      mstore\n        /* \"#utility.yul\":10749:10992   */\n      pop\n      jump\t// out\n        /* \"#utility.yul\":10998:11364   */\n    tag_119:\n        /* \"#utility.yul\":11140:11143   */\n      0x00\n        /* \"#utility.yul\":11161:11228   */\n      tag_247\n        /* \"#utility.yul\":11225:11227   */\n      0x38\n        /* \"#utility.yul\":11220:11223   */\n      dup4\n        /* \"#utility.yul\":11161:11228   */\n      tag_115\n      jump\t// in\n    tag_247:\n        /* \"#utility.yul\":11154:11228   */\n      swap2\n      pop\n        /* \"#utility.yul\":11237:11330   */\n      tag_248\n        /* \"#utility.yul\":11326:11329   */\n      dup3\n        /* \"#utility.yul\":11237:11330   */\n      tag_118\n      jump\t// in\n    tag_248:\n        /* \"#utility.yul\":11355:11357   */\n      0x40\n        /* \"#utility.yul\":11350:11353   */\n      dup3\n        /* \"#utility.yul\":11346:11358   */\n      add\n        /* \"#utility.yul\":11339:11358   */\n      swap1\n      pop\n        /* \"#utility.yul\":10998:11364   */\n      swap2\n      swap1\n      pop\n      jump\t// out\n        /* \"#utility.yul\":11370:11789   */\n    tag_21:\n        /* \"#utility.yul\":11536:11540   */\n      0x00\n        /* \"#utility.yul\":11574:11576   */\n      0x20\n        /* \"#utility.yul\":11563:11572   */\n      dup3\n        /* \"#utility.yul\":11559:11577   */\n      add\n        /* \"#utility.yul\":11551:11577   */\n      swap1\n      pop\n        /* \"#utility.yul\":11623:11632   */\n      dup2\n        /* \"#utility.yul\":11617:11621   */\n      dup2\n        /* \"#utility.yul\":11613:11633   */\n      sub\n        /* \"#utility.yul\":11609:11610   */\n      0x00\n        /* \"#utility.yul\":11598:11607   */\n      dup4\n        /* \"#utility.yul\":11594:11611   */\n      add\n        /* \"#utility.yul\":11587:11634   */\n      mstore\n        /* \"#utility.yul\":11651:11782   */\n      tag_250\n        /* \"#utility.yul\":11777:11781   */\n      dup2\n        /* \"#utility.yul\":11651:11782   */\n      tag_119\n      jump\t// in\n    tag_250:\n        /* \"#utility.yul\":11643:11782   */\n      swap1\n      pop\n        /* \"#utility.yul\":11370:11789   */\n      swap2\n      swap1\n      pop\n      jump\t// out\n        /* \"#utility.yul\":11795:11975   */\n    tag_27:\n        /* \"#utility.yul\":11843:11920   */\n      0x4e487b7100000000000000000000000000000000000000000000000000000000\n        /* \"#utility.yul\":11840:11841   */\n      0x00\n        /* \"#utility.yul\":11833:11921   */\n      mstore\n        /* \"#utility.yul\":11940:11944   */\n      0x32\n        /* \"#utility.yul\":11937:11938   */\n      0x04\n        /* \"#utility.yul\":11930:11945   */\n      mstore\n        /* \"#utility.yul\":11964:11968   */\n      0x24\n        /* \"#utility.yul\":11961:11962   */\n      0x00\n        /* \"#utility.yul\":11954:11969   */\n      revert\n        /* \"#utility.yul\":11981:12129   */\n    tag_120:\n        /* \"#utility.yul\":12083:12094   */\n      0x00\n        /* \"#utility.yul\":12120:12123   */\n      dup2\n        /* \"#utility.yul\":12105:12123   */\n      swap1\n      pop\n        /* \"#utility.yul\":11981:12129   */\n      swap3\n      swap2\n      pop\n      pop\n      jump\t// out\n        /* \"#utility.yul\":12135:12525   */\n    tag_121:\n        /* \"#utility.yul\":12241:12244   */\n      0x00\n        /* \"#utility.yul\":12269:12308   */\n      tag_254\n        /* \"#utility.yul\":12302:12307   */\n      dup3\n        /* \"#utility.yul\":12269:12308   */\n      tag_108\n      jump\t// in\n    tag_254:\n        /* \"#utility.yul\":12324:12413   */\n      tag_255\n        /* \"#utility.yul\":12406:12412   */\n      dup2\n        /* \"#utility.yul\":12401:12404   */\n      dup6\n        /* \"#utility.yul\":12324:12413   */\n      tag_120\n      jump\t// in\n    tag_255:\n        /* \"#utility.yul\":12317:12413   */\n      swap4\n      pop\n        /* \"#utility.yul\":12422:12487   */\n      tag_256\n        /* \"#utility.yul\":12480:12486   */\n      dup2\n        /* \"#utility.yul\":12475:12478   */\n      dup6\n        /* \"#utility.yul\":12468:12472   */\n      0x20\n        /* \"#utility.yul\":12461:12466   */\n      dup7\n        /* \"#utility.yul\":12457:12473   */\n      add\n        /* \"#utility.yul\":12422:12487   */\n      tag_110\n      jump\t// in\n    tag_256:\n        /* \"#utility.yul\":12512:12518   */\n      dup1\n        /* \"#utility.yul\":12507:12510   */\n      dup5\n        /* \"#utility.yul\":12503:12519   */\n      add\n        /* \"#utility.yul\":12496:12519   */\n      swap2\n      pop\n        /* \"#utility.yul\":12245:12525   */\n      pop\n        /* \"#utility.yul\":12135:12525   */\n      swap3\n      swap2\n      pop\n      pop\n      jump\t// out\n        /* \"#utility.yul\":12531:12806   */\n    tag_31:\n        /* \"#utility.yul\":12663:12666   */\n      0x00\n        /* \"#utility.yul\":12685:12780   */\n      tag_258\n        /* \"#utility.yul\":12776:12779   */\n      dup3\n        /* \"#utility.yul\":12767:12773   */\n      dup5\n        /* \"#utility.yul\":12685:12780   */\n      tag_121\n      jump\t// in\n    tag_258:\n        /* \"#utility.yul\":12678:12780   */\n      swap2\n      pop\n        /* \"#utility.yul\":12797:12800   */\n      dup2\n        /* \"#utility.yul\":12790:12800   */\n      swap1\n      pop\n        /* \"#utility.yul\":12531:12806   */\n      swap3\n      swap2\n      pop\n      pop\n      jump\t// out\n        /* \"#utility.yul\":12812:12992   */\n    tag_122:\n        /* \"#utility.yul\":12860:12937   */\n      0x4e487b7100000000000000000000000000000000000000000000000000000000\n        /* \"#utility.yul\":12857:12858   */\n      0x00\n        /* \"#utility.yul\":12850:12938   */\n      mstore\n        /* \"#utility.yul\":12957:12961   */\n      0x22\n        /* \"#utility.yul\":12954:12955   */\n      0x04\n        /* \"#utility.yul\":12947:12962   */\n      mstore\n        /* \"#utility.yul\":12981:12985   */\n      0x24\n        /* \"#utility.yul\":12978:12979   */\n      0x00\n        /* \"#utility.yul\":12971:12986   */\n      revert\n        /* \"#utility.yul\":12998:13318   */\n    tag_53:\n        /* \"#utility.yul\":13042:13048   */\n      0x00\n        /* \"#utility.yul\":13079:13080   */\n      0x02\n        /* \"#utility.yul\":13073:13077   */\n      dup3\n        /* \"#utility.yul\":13069:13081   */\n      div\n        /* \"#utility.yul\":13059:13081   */\n      swap1\n      pop\n        /* \"#utility.yul\":13126:13127   */\n      0x01\n        /* \"#utility.yul\":13120:13124   */\n      dup3\n        /* \"#utility.yul\":13116:13128   */\n      and\n        /* \"#utility.yul\":13147:13165   */\n      dup1\n        /* \"#utility.yul\":13137:13218   */\n      tag_261\n      jumpi\n        /* \"#utility.yul\":13203:13207   */\n      0x7f\n        /* \"#utility.yul\":13195:13201   */\n      dup3\n        /* \"#utility.yul\":13191:13208   */\n      and\n        /* \"#utility.yul\":13181:13208   */\n      swap2\n      pop\n        /* \"#utility.yul\":13137:13218   */\n    tag_261:\n        /* \"#utility.yul\":13265:13267   */\n      0x20\n        /* \"#utility.yul\":13257:13263   */\n      dup3\n        /* \"#utility.yul\":13254:13268   */\n      lt\n        /* \"#utility.yul\":13234:13252   */\n      dup2\n        /* \"#utility.yul\":13231:13269   */\n      sub\n        /* \"#utility.yul\":13228:13312   */\n      tag_262\n      jumpi\n        /* \"#utility.yul\":13284:13302   */\n      tag_263\n      tag_122\n      jump\t// in\n    tag_263:\n        /* \"#utility.yul\":13228:13312   */\n    tag_262:\n        /* \"#utility.yul\":13049:13318   */\n      pop\n        /* \"#utility.yul\":12998:13318   */\n      swap2\n      swap1\n      pop\n      jump\t// out\n        /* \"#utility.yul\":13324:13465   */\n    tag_123:\n        /* \"#utility.yul\":13373:13377   */\n      0x00\n        /* \"#utility.yul\":13396:13399   */\n      dup2\n        /* \"#utility.yul\":13388:13399   */\n      swap1\n      pop\n        /* \"#utility.yul\":13419:13422   */\n      dup2\n        /* \"#utility.yul\":13416:13417   */\n      0x00\n        /* \"#utility.yul\":13409:13423   */\n      mstore\n        /* \"#utility.yul\":13453:13457   */\n      0x20\n        /* \"#utility.yul\":13450:13451   */\n      0x00\n        /* \"#utility.yul\":13440:13458   */\n      keccak256\n        /* \"#utility.yul\":13432:13458   */\n      swap1\n      pop\n        /* \"#utility.yul\":13324:13465   */\n      swap2\n      swap1\n      pop\n      jump\t// out\n        /* \"#utility.yul\":13471:13564   */\n    tag_124:\n        /* \"#utility.yul\":13508:13514   */\n      0x00\n        /* \"#utility.yul\":13555:13557   */\n      0x20\n        /* \"#utility.yul\":13550:13552   */\n      0x1f\n        /* \"#utility.yul\":13543:13548   */\n      dup4\n        /* \"#utility.yul\":13539:13553   */\n      add\n        /* \"#utility.yul\":13535:13558   */\n      div\n        /* \"#utility.yul\":13525:13558   */\n      swap1\n      pop\n        /* \"#utility.yul\":13471:13564   */\n      swap2\n      swap1\n      pop\n      jump\t// out\n        /* \"#utility.yul\":13570:13677   */\n    tag_125:\n        /* \"#utility.yul\":13614:13622   */\n      0x00\n        /* \"#utility.yul\":13664:13669   */\n      dup3\n        /* \"#utility.yul\":13658:13662   */\n      dup3\n        /* \"#utility.yul\":13654:13670   */\n      shl\n        /* \"#utility.yul\":13633:13670   */\n      swap1\n      pop\n        /* \"#utility.yul\":13570:13677   */\n      swap3\n      swap2\n      pop\n      pop\n      jump\t// out\n        /* \"#utility.yul\":13683:14076   */\n    tag_126:\n        /* \"#utility.yul\":13752:13758   */\n      0x00\n        /* \"#utility.yul\":13802:13803   */\n      0x08\n        /* \"#utility.yul\":13790:13800   */\n      dup4\n        /* \"#utility.yul\":13786:13804   */\n      mul\n        /* \"#utility.yul\":13825:13922   */\n      tag_268\n        /* \"#utility.yul\":13855:13921   */\n      0xffffffffffffffffffffffffffffffffffffffffffffffffffffffffffffffff\n        /* \"#utility.yul\":13844:13853   */\n      dup3\n        /* \"#utility.yul\":13825:13922   */\n      tag_125\n      jump\t// in\n    tag_268:\n        /* \"#utility.yul\":13943:13982   */\n      tag_269\n        /* \"#utility.yul\":13973:13981   */\n      dup7\n        /* \"#utility.yul\":13962:13971   */\n      dup4\n        /* \"#utility.yul\":13943:13982   */\n      tag_125\n      jump\t// in\n    tag_269:\n        /* \"#utility.yul\":13931:13982   */\n      swap6\n      pop\n        /* \"#utility.yul\":14015:14019   */\n      dup1\n        /* \"#utility.yul\":14011:14020   */\n      not\n        /* \"#utility.yul\":14004:14009   */\n      dup5\n        /* \"#utility.yul\":14000:14021   */\n      and\n        /* \"#utility.yul\":13991:14021   */\n      swap4\n      pop\n        /* \"#utility.yul\":14064:14068   */\n      dup1\n        /* \"#utility.yul\":14054:14062   */\n      dup7\n        /* \"#utility.yul\":14050:14069   */\n      and\n        /* \"#utility.yul\":14043:14048   */\n      dup5\n        /* \"#utility.yul\":14040:14070   */\n      or\n        /* \"#utility.yul\":14030:14070   */\n      swap3\n      pop\n        /* \"#utility.yul\":13759:14076   */\n      pop\n      pop\n        /* \"#utility.yul\":13683:14076   */\n      swap4\n      swap3\n      pop\n      pop\n      pop\n      jump\t// out\n        /* \"#utility.yul\":14082:14142   */\n    tag_127:\n        /* \"#utility.yul\":14110:14113   */\n      0x00\n        /* \"#utility.yul\":14131:14136   */\n      dup2\n        /* \"#utility.yul\":14124:14136   */\n      swap1\n      pop\n        /* \"#utility.yul\":14082:14142   */\n      swap2\n      swap1\n      pop\n      jump\t// out\n        /* \"#utility.yul\":14148:14290   */\n    tag_128:\n        /* \"#utility.yul\":14198:14207   */\n      0x00\n        /* \"#utility.yul\":14231:14284   */\n      tag_272\n        /* \"#utility.yul\":14249:14283   */\n      tag_273\n        /* \"#utility.yul\":14258:14282   */\n      tag_274\n        /* \"#utility.yul\":14276:14281   */\n      dup5\n        /* \"#utility.yul\":14258:14282   */\n      tag_89\n      jump\t// in\n    tag_274:\n        /* \"#utility.yul\":14249:14283   */\n      tag_127\n      jump\t// in\n    tag_273:\n        /* \"#utility.yul\":14231:14284   */\n      tag_89\n      jump\t// in\n    tag_272:\n        /* \"#utility.yul\":14218:14284   */\n      swap1\n      pop\n        /* \"#utility.yul\":14148:14290   */\n      swap2\n      swap1\n      pop\n      jump\t// out\n        /* \"#utility.yul\":14296:14371   */\n    tag_129:\n        /* \"#utility.yul\":14339:14342   */\n      0x00\n        /* \"#utility.yul\":14360:14365   */\n      dup2\n        /* \"#utility.yul\":14353:14365   */\n      swap1\n      pop\n        /* \"#utility.yul\":14296:14371   */\n      swap2\n      swap1\n      pop\n      jump\t// out\n        /* \"#utility.yul\":14377:14646   */\n    tag_130:\n        /* \"#utility.yul\":14487:14526   */\n      tag_277\n        /* \"#utility.yul\":14518:14525   */\n      dup4\n        /* \"#utility.yul\":14487:14526   */\n      tag_128\n      jump\t// in\n    tag_277:\n        /* \"#utility.yul\":14548:14639   */\n      tag_278\n        /* \"#utility.yul\":14597:14638   */\n      tag_279\n        /* \"#utility.yul\":14621:14637   */\n      dup3\n        /* \"#utility.yul\":14597:14638   */\n      tag_129\n      jump\t// in\n    tag_279:\n        /* \"#utility.yul\":14589:14595   */\n      dup5\n        /* \"#utility.yul\":14582:14586   */\n      dup5\n        /* \"#utility.yul\":14576:14587   */\n      sload\n        /* \"#utility.yul\":14548:14639   */\n      tag_126\n      jump\t// in\n    tag_278:\n        /* \"#utility.yul\":14542:14546   */\n      dup3\n        /* \"#utility.yul\":14535:14640   */\n      sstore\n        /* \"#utility.yul\":14453:14646   */\n      pop\n        /* \"#utility.yul\":14377:14646   */\n      pop\n      pop\n      pop\n      jump\t// out\n        /* \"#utility.yul\":14652:14725   */\n    tag_131:\n        /* \"#utility.yul\":14697:14700   */\n      0x00\n        /* \"#utility.yul\":14652:14725   */\n      swap1\n      jump\t// out\n        /* \"#utility.yul\":14731:14920   */\n    tag_132:\n        /* \"#utility.yul\":14808:14840   */\n      tag_282\n      tag_131\n      jump\t// in\n    tag_282:\n        /* \"#utility.yul\":14849:14914   */\n      tag_283\n        /* \"#utility.yul\":14907:14913   */\n      dup2\n        /* \"#utility.yul\":14899:14905   */\n      dup5\n        /* \"#utility.yul\":14893:14897   */\n      dup5\n        /* \"#utility.yul\":14849:14914   */\n      tag_130\n      jump\t// in\n    tag_283:\n        /* \"#utility.yul\":14784:14920   */\n      pop\n        /* \"#utility.yul\":14731:14920   */\n      pop\n      pop\n      jump\t// out\n        /* \"#utility.yul\":14926:15112   */\n    tag_133:\n        /* \"#utility.yul\":14986:15106   */\n    tag_285:\n        /* \"#utility.yul\":15003:15006   */\n      dup2\n        /* \"#utility.yul\":14996:15001   */\n      dup2\n        /* \"#utility.yul\":14993:15007   */\n      lt\n        /* \"#utility.yul\":14986:15106   */\n      iszero\n      tag_287\n      jumpi\n        /* \"#utility.yul\":15057:15096   */\n      tag_288\n        /* \"#utility.yul\":15094:15095   */\n      0x00\n        /* \"#utility.yul\":15087:15092   */\n      dup3\n        /* \"#utility.yul\":15057:15096   */\n      tag_132\n      jump\t// in\n    tag_288:\n        /* \"#utility.yul\":15030:15031   */\n      0x01\n        /* \"#utility.yul\":15023:15028   */\n      dup2\n        /* \"#utility.yul\":15019:15032   */\n      add\n        /* \"#utility.yul\":15010:15032   */\n      swap1\n      pop\n        /* \"#utility.yul\":14986:15106   */\n      jump(tag_285)\n    tag_287:\n        /* \"#utility.yul\":14926:15112   */\n      pop\n      pop\n      jump\t// out\n        /* \"#utility.yul\":15118:15661   */\n    tag_134:\n        /* \"#utility.yul\":15219:15221   */\n      0x1f\n        /* \"#utility.yul\":15214:15217   */\n      dup3\n        /* \"#utility.yul\":15211:15222   */\n      gt\n        /* \"#utility.yul\":15208:15654   */\n      iszero\n      tag_290\n      jumpi\n        /* \"#utility.yul\":15253:15291   */\n      tag_291\n        /* \"#utility.yul\":15285:15290   */\n      dup2\n        /* \"#utility.yul\":15253:15291   */\n      tag_123\n      jump\t// in\n    tag_291:\n        /* \"#utility.yul\":15337:15366   */\n      tag_292\n        /* \"#utility.yul\":15355:15365   */\n      dup5\n        /* \"#utility.yul\":15337:15366   */\n      tag_124\n      jump\t// in\n    tag_292:\n        /* \"#utility.yul\":15327:15335   */\n      dup2\n        /* \"#utility.yul\":15323:15367   */\n      add\n        /* \"#utility.yul\":15520:15522   */\n      0x20\n        /* \"#utility.yul\":15508:15518   */\n      dup6\n        /* \"#utility.yul\":15505:15523   */\n      lt\n        /* \"#utility.yul\":15502:15551   */\n      iszero\n      tag_293\n      jumpi\n        /* \"#utility.yul\":15541:15549   */\n      dup2\n        /* \"#utility.yul\":15526:15549   */\n      swap1\n      pop\n        /* \"#utility.yul\":15502:15551   */\n    tag_293:\n        /* \"#utility.yul\":15564:15644   */\n      tag_294\n        /* \"#utility.yul\":15620:15642   */\n      tag_295\n        /* \"#utility.yul\":15638:15641   */\n      dup6\n        /* \"#utility.yul\":15620:15642   */\n      tag_124\n      jump\t// in\n    tag_295:\n        /* \"#utility.yul\":15610:15618   */\n      dup4\n        /* \"#utility.yul\":15606:15643   */\n      add\n        /* \"#utility.yul\":15593:15604   */\n      dup3\n        /* \"#utility.yul\":15564:15644   */\n      tag_133\n      jump\t// in\n    tag_294:\n        /* \"#utility.yul\":15223:15654   */\n      pop\n      pop\n        /* \"#utility.yul\":15208:15654   */\n    tag_290:\n        /* \"#utility.yul\":15118:15661   */\n      pop\n      pop\n      pop\n      jump\t// out\n        /* \"#utility.yul\":15667:15784   */\n    tag_135:\n        /* \"#utility.yul\":15721:15729   */\n      0x00\n        /* \"#utility.yul\":15771:15776   */\n      dup3\n        /* \"#utility.yul\":15765:15769   */\n      dup3\n        /* \"#utility.yul\":15761:15777   */\n      shr\n        /* \"#utility.yul\":15740:15777   */\n      swap1\n      pop\n        /* \"#utility.yul\":15667:15784   */\n      swap3\n      swap2\n      pop\n      pop\n      jump\t// out\n        /* \"#utility.yul\":15790:15959   */\n    tag_136:\n        /* \"#utility.yul\":15834:15840   */\n      0x00\n        /* \"#utility.yul\":15867:15918   */\n      tag_298\n        /* \"#utility.yul\":15915:15916   */\n      0x00\n        /* \"#utility.yul\":15911:15917   */\n      not\n        /* \"#utility.yul\":15903:15908   */\n      dup5\n        /* \"#utility.yul\":15900:15901   */\n      0x08\n        /* \"#utility.yul\":15896:15909   */\n      mul\n        /* \"#utility.yul\":15867:15918   */\n      tag_135\n      jump\t// in\n    tag_298:\n        /* \"#utility.yul\":15863:15919   */\n      not\n        /* \"#utility.yul\":15948:15952   */\n      dup1\n        /* \"#utility.yul\":15942:15946   */\n      dup4\n        /* \"#utility.yul\":15938:15953   */\n      and\n        /* \"#utility.yul\":15928:15953   */\n      swap2\n      pop\n        /* \"#utility.yul\":15841:15959   */\n      pop\n        /* \"#utility.yul\":15790:15959   */\n      swap3\n      swap2\n      pop\n      pop\n      jump\t// out\n        /* \"#utility.yul\":15964:16259   */\n    tag_137:\n        /* \"#utility.yul\":16040:16044   */\n      0x00\n        /* \"#utility.yul\":16186:16215   */\n      tag_300\n        /* \"#utility.yul\":16211:16214   */\n      dup4\n        /* \"#utility.yul\":16205:16209   */\n      dup4\n        /* \"#utility.yul\":16186:16215   */\n      tag_136\n      jump\t// in\n    tag_300:\n        /* \"#utility.yul\":16178:16215   */\n      swap2\n      pop\n        /* \"#utility.yul\":16248:16251   */\n      dup3\n        /* \"#utility.yul\":16245:16246   */\n      0x02\n        /* \"#utility.yul\":16241:16252   */\n      mul\n        /* \"#utility.yul\":16235:16239   */\n      dup3\n        /* \"#utility.yul\":16232:16253   */\n      or\n        /* \"#utility.yul\":16224:16253   */\n      swap1\n      pop\n        /* \"#utility.yul\":15964:16259   */\n      swap3\n      swap2\n      pop\n      pop\n      jump\t// out\n        /* \"#utility.yul\":16264:17659   */\n    tag_33:\n        /* \"#utility.yul\":16381:16418   */\n      tag_302\n        /* \"#utility.yul\":16414:16417   */\n      dup3\n        /* \"#utility.yul\":16381:16418   */\n      tag_108\n      jump\t// in\n    tag_302:\n        /* \"#utility.yul\":16483:16501   */\n      0xffffffffffffffff\n        /* \"#utility.yul\":16475:16481   */\n      dup2\n        /* \"#utility.yul\":16472:16502   */\n      gt\n        /* \"#utility.yul\":16469:16525   */\n      iszero\n      tag_303\n      jumpi\n        /* \"#utility.yul\":16505:16523   */\n      tag_304\n      tag_41\n      jump\t// in\n    tag_304:\n        /* \"#utility.yul\":16469:16525   */\n    tag_303:\n        /* \"#utility.yul\":16549:16587   */\n      tag_305\n        /* \"#utility.yul\":16581:16585   */\n      dup3\n        /* \"#utility.yul\":16575:16586   */\n      sload\n        /* \"#utility.yul\":16549:16587   */\n      tag_53\n      jump\t// in\n    tag_305:\n        /* \"#utility.yul\":16634:16701   */\n      tag_306\n        /* \"#utility.yul\":16694:16700   */\n      dup3\n        /* \"#utility.yul\":16686:16692   */\n      dup3\n        /* \"#utility.yul\":16680:16684   */\n      dup6\n        /* \"#utility.yul\":16634:16701   */\n      tag_134\n      jump\t// in\n    tag_306:\n        /* \"#utility.yul\":16728:16729   */\n      0x00\n        /* \"#utility.yul\":16752:16756   */\n      0x20\n        /* \"#utility.yul\":16739:16756   */\n      swap1\n      pop\n        /* \"#utility.yul\":16784:16786   */\n      0x1f\n        /* \"#utility.yul\":16776:16782   */\n      dup4\n        /* \"#utility.yul\":16773:16787   */\n      gt\n        /* \"#utility.yul\":16801:16802   */\n      0x01\n        /* \"#utility.yul\":16796:17414   */\n      dup2\n      eq\n      tag_308\n      jumpi\n        /* \"#utility.yul\":17458:17459   */\n      0x00\n        /* \"#utility.yul\":17475:17481   */\n      dup5\n        /* \"#utility.yul\":17472:17549   */\n      iszero\n      tag_309\n      jumpi\n        /* \"#utility.yul\":17524:17533   */\n      dup3\n        /* \"#utility.yul\":17519:17522   */\n      dup8\n        /* \"#utility.yul\":17515:17534   */\n      add\n        /* \"#utility.yul\":17509:17535   */\n      mload\n        /* \"#utility.yul\":17500:17535   */\n      swap1\n      pop\n        /* \"#utility.yul\":17472:17549   */\n    tag_309:\n        /* \"#utility.yul\":17575:17642   */\n      tag_310\n        /* \"#utility.yul\":17635:17641   */\n      dup6\n        /* \"#utility.yul\":17628:17633   */\n      dup3\n        /* \"#utility.yul\":17575:17642   */\n      tag_137\n      jump\t// in\n    tag_310:\n        /* \"#utility.yul\":17569:17573   */\n      dup7\n        /* \"#utility.yul\":17562:17643   */\n      sstore\n        /* \"#utility.yul\":17431:17653   */\n      pop\n        /* \"#utility.yul\":16766:17653   */\n      jump(tag_307)\n        /* \"#utility.yul\":16796:17414   */\n    tag_308:\n        /* \"#utility.yul\":16848:16852   */\n      0x1f\n        /* \"#utility.yul\":16844:16853   */\n      not\n        /* \"#utility.yul\":16836:16842   */\n      dup5\n        /* \"#utility.yul\":16832:16854   */\n      and\n        /* \"#utility.yul\":16882:16919   */\n      tag_311\n        /* \"#utility.yul\":16914:16918   */\n      dup7\n        /* \"#utility.yul\":16882:16919   */\n      tag_123\n      jump\t// in\n    tag_311:\n        /* \"#utility.yul\":16941:16942   */\n      0x00\n        /* \"#utility.yul\":16955:17163   */\n    tag_312:\n        /* \"#utility.yul\":16969:16976   */\n      dup3\n        /* \"#utility.yul\":16966:16967   */\n      dup2\n        /* \"#utility.yul\":16963:16977   */\n      lt\n        /* \"#utility.yul\":16955:17163   */\n      iszero\n      tag_314\n      jumpi\n        /* \"#utility.yul\":17048:17057   */\n      dup5\n        /* \"#utility.yul\":17043:17046   */\n      dup10\n        /* \"#utility.yul\":17039:17058   */\n      add\n        /* \"#utility.yul\":17033:17059   */\n      mload\n        /* \"#utility.yul\":17025:17031   */\n      dup3\n        /* \"#utility.yul\":17018:17060   */\n      sstore\n        /* \"#utility.yul\":17099:17100   */\n      0x01\n        /* \"#utility.yul\":17091:17097   */\n      dup3\n        /* \"#utility.yul\":17087:17101   */\n      add\n        /* \"#utility.yul\":17077:17101   */\n      swap2\n      pop\n        /* \"#utility.yul\":17146:17148   */\n      0x20\n        /* \"#utility.yul\":17135:17144   */\n      dup6\n        /* \"#utility.yul\":17131:17149   */\n      add\n        /* \"#utility.yul\":17118:17149   */\n      swap5\n      pop\n        /* \"#utility.yul\":16992:16996   */\n      0x20\n        /* \"#utility.yul\":16989:16990   */\n      dup2\n        /* \"#utility.yul\":16985:16997   */\n      add\n        /* \"#utility.yul\":16980:16997   */\n      swap1\n      pop\n        /* \"#utility.yul\":16955:17163   */\n      jump(tag_312)\n    tag_314:\n        /* \"#utility.yul\":17191:17197   */\n      dup7\n        /* \"#utility.yul\":17182:17189   */\n      dup4\n        /* \"#utility.yul\":17179:17198   */\n      lt\n        /* \"#utility.yul\":17176:17355   */\n      iszero\n      tag_315\n      jumpi\n        /* \"#utility.yul\":17249:17258   */\n      dup5\n        /* \"#utility.yul\":17244:17247   */\n      dup10\n        /* \"#utility.yul\":17240:17259   */\n      add\n        /* \"#utility.yul\":17234:17260   */\n      mload\n        /* \"#utility.yul\":17292:17340   */\n      tag_316\n        /* \"#utility.yul\":17334:17338   */\n      0x1f\n        /* \"#utility.yul\":17326:17332   */\n      dup10\n        /* \"#utility.yul\":17322:17339   */\n      and\n        /* \"#utility.yul\":17311:17320   */\n      dup3\n        /* \"#utility.yul\":17292:17340   */\n      tag_136\n      jump\t// in\n    tag_316:\n        /* \"#utility.yul\":17284:17290   */\n      dup4\n        /* \"#utility.yul\":17277:17341   */\n      sstore\n        /* \"#utility.yul\":17199:17355   */\n      pop\n        /* \"#utility.yul\":17176:17355   */\n    tag_315:\n        /* \"#utility.yul\":17401:17402   */\n      0x01\n        /* \"#utility.yul\":17397:17398   */\n      0x02\n        /* \"#utility.yul\":17389:17395   */\n      dup9\n        /* \"#utility.yul\":17385:17399   */\n      mul\n        /* \"#utility.yul\":17381:17403   */\n      add\n        /* \"#utility.yul\":17375:17379   */\n      dup9\n        /* \"#utility.yul\":17368:17404   */\n      sstore\n        /* \"#utility.yul\":16803:17414   */\n      pop\n      pop\n      pop\n        /* \"#utility.yul\":16766:17653   */\n    tag_307:\n      pop\n        /* \"#utility.yul\":16356:17659   */\n      pop\n      pop\n      pop\n        /* \"#utility.yul\":16264:17659   */\n      pop\n      pop\n      jump\t// out\n        /* \"#utility.yul\":17665:17845   */\n    tag_138:\n        /* \"#utility.yul\":17713:17790   */\n      0x4e487b7100000000000000000000000000000000000000000000000000000000\n        /* \"#utility.yul\":17710:17711   */\n      0x00\n        /* \"#utility.yul\":17703:17791   */\n      mstore\n        /* \"#utility.yul\":17810:17814   */\n      0x11\n        /* \"#utility.yul\":17807:17808   */\n      0x04\n        /* \"#utility.yul\":17800:17815   */\n      mstore\n        /* \"#utility.yul\":17834:17838   */\n      0x24\n        /* \"#utility.yul\":17831:17832   */\n      0x00\n        /* \"#utility.yul\":17824:17839   */\n      revert\n        /* \"#utility.yul\":17851:18084   */\n    tag_35:\n        /* \"#utility.yul\":17890:17893   */\n      0x00\n        /* \"#utility.yul\":17913:17937   */\n      tag_319\n        /* \"#utility.yul\":17931:17936   */\n      dup3\n        /* \"#utility.yul\":17913:17937   */\n      tag_89\n      jump\t// in\n    tag_319:\n        /* \"#utility.yul\":17904:17937   */\n      swap2\n      pop\n        /* \"#utility.yul\":17959:18025   */\n      0xffffffffffffffffffffffffffffffffffffffffffffffffffffffffffffffff\n        /* \"#utility.yul\":17952:17957   */\n      dup3\n        /* \"#utility.yul\":17949:18026   */\n      sub\n        /* \"#utility.yul\":17946:18049   */\n      tag_320\n      jumpi\n        /* \"#utility.yul\":18029:18047   */\n      tag_321\n      tag_138\n      jump\t// in\n    tag_321:\n        /* \"#utility.yul\":17946:18049   */\n    tag_320:\n        /* \"#utility.yul\":18076:18077   */\n      0x01\n        /* \"#utility.yul\":18069:18074   */\n      dup3\n        /* \"#utility.yul\":18065:18078   */\n      add\n        /* \"#utility.yul\":18058:18078   */\n      swap1\n      pop\n        /* \"#utility.yul\":17851:18084   */\n      swap2\n      swap1\n      pop\n      jump\t// out\n        /* \"#utility.yul\":18114:18988   */\n    tag_139:\n        /* \"#utility.yul\":18217:18220   */\n      0x00\n        /* \"#utility.yul\":18254:18259   */\n      dup2\n        /* \"#utility.yul\":18248:18260   */\n      sload\n        /* \"#utility.yul\":18283:18319   */\n      tag_323\n        /* \"#utility.yul\":18309:18318   */\n      dup2\n        /* \"#utility.yul\":18283:18319   */\n      tag_53\n      jump\t// in\n    tag_323:\n        /* \"#utility.yul\":18335:18424   */\n      tag_324\n        /* \"#utility.yul\":18417:18423   */\n      dup2\n        /* \"#utility.yul\":18412:18415   */\n      dup7\n        /* \"#utility.yul\":18335:18424   */\n      tag_120\n      jump\t// in\n    tag_324:\n        /* \"#utility.yul\":18328:18424   */\n      swap5\n      pop\n        /* \"#utility.yul\":18455:18456   */\n      0x01\n        /* \"#utility.yul\":18444:18453   */\n      dup3\n        /* \"#utility.yul\":18440:18457   */\n      and\n        /* \"#utility.yul\":18471:18472   */\n      0x00\n        /* \"#utility.yul\":18466:18632   */\n      dup2\n      eq\n      tag_326\n      jumpi\n        /* \"#utility.yul\":18646:18647   */\n      0x01\n        /* \"#utility.yul\":18641:18982   */\n      dup2\n      eq\n      tag_327\n      jumpi\n        /* \"#utility.yul\":18433:18982   */\n      jump(tag_325)\n        /* \"#utility.yul\":18466:18632   */\n    tag_326:\n        /* \"#utility.yul\":18550:18554   */\n      0xff\n        /* \"#utility.yul\":18546:18555   */\n      not\n        /* \"#utility.yul\":18535:18544   */\n      dup4\n        /* \"#utility.yul\":18531:18556   */\n      and\n        /* \"#utility.yul\":18526:18529   */\n      dup7\n        /* \"#utility.yul\":18519:18557   */\n      mstore\n        /* \"#utility.yul\":18612:18618   */\n      dup2\n        /* \"#utility.yul\":18605:18619   */\n      iszero\n        /* \"#utility.yul\":18598:18620   */\n      iszero\n        /* \"#utility.yul\":18590:18596   */\n      dup3\n        /* \"#utility.yul\":18586:18621   */\n      mul\n        /* \"#utility.yul\":18581:18584   */\n      dup7\n        /* \"#utility.yul\":18577:18622   */\n      add\n        /* \"#utility.yul\":18570:18622   */\n      swap4\n      pop\n        /* \"#utility.yul\":18466:18632   */\n      jump(tag_325)\n        /* \"#utility.yul\":18641:18982   */\n    tag_327:\n        /* \"#utility.yul\":18708:18746   */\n      tag_328\n        /* \"#utility.yul\":18740:18745   */\n      dup6\n        /* \"#utility.yul\":18708:18746   */\n      tag_123\n      jump\t// in\n    tag_328:\n        /* \"#utility.yul\":18768:18769   */\n      0x00\n        /* \"#utility.yul\":18782:18936   */\n    tag_329:\n        /* \"#utility.yul\":18796:18802   */\n      dup4\n        /* \"#utility.yul\":18793:18794   */\n      dup2\n        /* \"#utility.yul\":18790:18803   */\n      lt\n        /* \"#utility.yul\":18782:18936   */\n      iszero\n      tag_331\n      jumpi\n        /* \"#utility.yul\":18870:18877   */\n      dup2\n        /* \"#utility.yul\":18864:18878   */\n      sload\n        /* \"#utility.yul\":18860:18861   */\n      dup2\n        /* \"#utility.yul\":18855:18858   */\n      dup10\n        /* \"#utility.yul\":18851:18862   */\n      add\n        /* \"#utility.yul\":18844:18879   */\n      mstore\n        /* \"#utility.yul\":18920:18921   */\n      0x01\n        /* \"#utility.yul\":18911:18918   */\n      dup3\n        /* \"#utility.yul\":18907:18922   */\n      add\n        /* \"#utility.yul\":18896:18922   */\n      swap2\n      pop\n        /* \"#utility.yul\":18818:18822   */\n      0x20\n        /* \"#utility.yul\":18815:18816   */\n      dup2\n        /* \"#utility.yul\":18811:18823   */\n      add\n        /* \"#utility.yul\":18806:18823   */\n      swap1\n      pop\n        /* \"#utility.yul\":18782:18936   */\n      jump(tag_329)\n    tag_331:\n        /* \"#utility.yul\":18965:18971   */\n      dup4\n        /* \"#utility.yul\":18960:18963   */\n      dup9\n        /* \"#utility.yul\":18956:18972   */\n      add\n        /* \"#utility.yul\":18949:18972   */\n      swap6\n      pop\n        /* \"#utility.yul\":18648:18982   */\n      pop\n      pop\n        /* \"#utility.yul\":18433:18982   */\n    tag_325:\n      pop\n        /* \"#utility.yul\":18221:18988   */\n      pop\n      pop\n        /* \"#utility.yul\":18114:18988   */\n      swap3\n      swap2\n      pop\n      pop\n      jump\t// out\n        /* \"#utility.yul\":18994:19263   */\n    tag_51:\n        /* \"#utility.yul\":19123:19126   */\n      0x00\n        /* \"#utility.yul\":19145:19237   */\n      tag_333\n        /* \"#utility.yul\":19233:19236   */\n      dup3\n        /* \"#utility.yul\":19224:19230   */\n      dup5\n        /* \"#utility.yul\":19145:19237   */\n      tag_139\n      jump\t// in\n    tag_333:\n        /* \"#utility.yul\":19138:19237   */\n      swap2\n      pop\n        /* \"#utility.yul\":19254:19257   */\n      dup2\n        /* \"#utility.yul\":19247:19257   */\n      swap1\n      pop\n        /* \"#utility.yul\":18994:19263   */\n      swap3\n      swap2\n      pop\n      pop\n      jump\t// out\n\n    auxdata: 0xa2646970667358221220242e531e541315e61ac199af48edff9a39ac7af5da959b16b1be4f40b10a8c9664736f6c63430008140033\n}\n",
				"bytecode": {
					"linkReferences": {},
					"object": "608060405234801561000f575f80fd5b50335f806101000a81548173ffffffffffffffffffffffffffffffffffffffff021916908373ffffffffffffffffffffffffffffffffffffffff1602179055506110408061005c5f395ff3fe608060405234801561000f575f80fd5b5060043610610034575f3560e01c80634f6e9de41461003857806397ff7ae014610054575b5f80fd5b610052600480360381019061004d9190610897565b610085565b005b61006e6004803603810190610069919061091f565b6102d4565b60405161007c929190610a7f565b60405180910390f35b3373ffffffffffffffffffffffffffffffffffffffff1660015f3373ffffffffffffffffffffffffffffffffffffffff1673ffffffffffffffffffffffffffffffffffffffff1681526020019081526020015f205f8581526020019081526020015f205f015f9054906101000a900473ffffffffffffffffffffffffffffffffffffffff1673ffffffffffffffffffffffffffffffffffffffff1603610160576040517f08c379a000000000000000000000000000000000000000000000000000000000815260040161015790610b0e565b60405180910390fd5b5f60015f3373ffffffffffffffffffffffffffffffffffffffff1673ffffffffffffffffffffffffffffffffffffffff1681526020019081526020015f205f8581526020019081526020015f20905033815f015f6101000a81548173ffffffffffffffffffffffffffffffffffffffff021916908373ffffffffffffffffffffffffffffffffffffffff1602179055508151835114610234576040517f08c379a000000000000000000000000000000000000000000000000000000000815260040161022b90610b9c565b60405180910390fd5b5f5b83518110156102b45782818151811061025257610251610bba565b5b60200260200101518260010185838151811061027157610270610bba565b5b60200260200101516040516102869190610c21565b908152602001604051809103902090816102a09190610e31565b5080806102ac90610f2d565b915050610236565b50828160020190805190602001906102cd929190610563565b5050505050565b6060805f60015f3373ffffffffffffffffffffffffffffffffffffffff1673ffffffffffffffffffffffffffffffffffffffff1681526020019081526020015f205f8581526020019081526020015f2090505f816002018054905067ffffffffffffffff8111156103485761034761068d565b5b60405190808252806020026020018201604052801561037b57816020015b60608152602001906001900390816103665790505b5090505f5b826002018054905081101561048457826001018360020182815481106103a9576103a8610bba565b5b905f5260205f20016040516103be9190610ff4565b908152602001604051809103902080546103d790610c64565b80601f016020809104026020016040519081016040528092919081815260200182805461040390610c64565b801561044e5780601f106104255761010080835404028352916020019161044e565b820191905f5260205f20905b81548152906001019060200180831161043157829003601f168201915b505050505082828151811061046657610465610bba565b5b6020026020010181905250808061047c90610f2d565b915050610380565b50816002018181805480602002602001604051908101604052809291908181526020015f905b82821015610552578382905f5260205f200180546104c790610c64565b80601f01602080910402602001604051908101604052809291908181526020018280546104f390610c64565b801561053e5780601f106105155761010080835404028352916020019161053e565b820191905f5260205f20905b81548152906001019060200180831161052157829003601f168201915b5050505050815260200190600101906104aa565b505050509150935093505050915091565b828054828255905f5260205f209081019282156105a9579160200282015b828111156105a85782518290816105989190610e31565b5091602001919060010190610581565b5b5090506105b691906105ba565b5090565b5b808211156105d9575f81816105d091906105dd565b506001016105bb565b5090565b5080546105e990610c64565b5f825580601f106105fa5750610617565b601f0160209004905f5260205f2090810190610616919061061a565b5b50565b5b80821115610631575f815f90555060010161061b565b5090565b5f604051905090565b5f80fd5b5f80fd5b5f819050919050565b61065881610646565b8114610662575f80fd5b50565b5f813590506106738161064f565b92915050565b5f80fd5b5f601f19601f8301169050919050565b7f4e487b71000000000000000000000000000000000000000000000000000000005f52604160045260245ffd5b6106c38261067d565b810181811067ffffffffffffffff821117156106e2576106e161068d565b5b80604052505050565b5f6106f4610635565b905061070082826106ba565b919050565b5f67ffffffffffffffff82111561071f5761071e61068d565b5b602082029050602081019050919050565b5f80fd5b5f80fd5b5f67ffffffffffffffff8211156107525761075161068d565b5b61075b8261067d565b9050602081019050919050565b828183375f83830152505050565b5f61078861078384610738565b6106eb565b9050828152602081018484840111156107a4576107a3610734565b5b6107af848285610768565b509392505050565b5f82601f8301126107cb576107ca610679565b5b81356107db848260208601610776565b91505092915050565b5f6107f66107f184610705565b6106eb565b9050808382526020820190506020840283018581111561081957610818610730565b5b835b8181101561086057803567ffffffffffffffff81111561083e5761083d610679565b5b80860161084b89826107b7565b8552602085019450505060208101905061081b565b5050509392505050565b5f82601f83011261087e5761087d610679565b5b813561088e8482602086016107e4565b91505092915050565b5f805f606084860312156108ae576108ad61063e565b5b5f6108bb86828701610665565b935050602084013567ffffffffffffffff8111156108dc576108db610642565b5b6108e88682870161086a565b925050604084013567ffffffffffffffff81111561090957610908610642565b5b6109158682870161086a565b9150509250925092565b5f602082840312156109345761093361063e565b5b5f61094184828501610665565b91505092915050565b5f81519050919050565b5f82825260208201905092915050565b5f819050602082019050919050565b5f81519050919050565b5f82825260208201905092915050565b5f5b838110156109aa57808201518184015260208101905061098f565b5f8484015250505050565b5f6109bf82610973565b6109c9818561097d565b93506109d981856020860161098d565b6109e28161067d565b840191505092915050565b5f6109f883836109b5565b905092915050565b5f602082019050919050565b5f610a168261094a565b610a208185610954565b935083602082028501610a3285610964565b805f5b85811015610a6d5784840389528151610a4e85826109ed565b9450610a5983610a00565b925060208a01995050600181019050610a35565b50829750879550505050505092915050565b5f6040820190508181035f830152610a978185610a0c565b90508181036020830152610aab8184610a0c565b90509392505050565b5f82825260208201905092915050565b7f5b4552524f525d20494420616c7761797320696e2075736500000000000000005f82015250565b5f610af8601883610ab4565b9150610b0382610ac4565b602082019050919050565b5f6020820190508181035f830152610b2581610aec565b9050919050565b7f5b4552524f525d20546865206c656e677468206f6620746865206b65797320615f8201527f6e642076616c75657320617265206e6f746520657175616c0000000000000000602082015250565b5f610b86603883610ab4565b9150610b9182610b2c565b604082019050919050565b5f6020820190508181035f830152610bb381610b7a565b9050919050565b7f4e487b71000000000000000000000000000000000000000000000000000000005f52603260045260245ffd5b5f81905092915050565b5f610bfb82610973565b610c058185610be7565b9350610c1581856020860161098d565b80840191505092915050565b5f610c2c8284610bf1565b915081905092915050565b7f4e487b71000000000000000000000000000000000000000000000000000000005f52602260045260245ffd5b5f6002820490506001821680610c7b57607f821691505b602082108103610c8e57610c8d610c37565b5b50919050565b5f819050815f5260205f209050919050565b5f6020601f8301049050919050565b5f82821b905092915050565b5f60088302610cf07fffffffffffffffffffffffffffffffffffffffffffffffffffffffffffffffff82610cb5565b610cfa8683610cb5565b95508019841693508086168417925050509392505050565b5f819050919050565b5f610d35610d30610d2b84610646565b610d12565b610646565b9050919050565b5f819050919050565b610d4e83610d1b565b610d62610d5a82610d3c565b848454610cc1565b825550505050565b5f90565b610d76610d6a565b610d81818484610d45565b505050565b5b81811015610da457610d995f82610d6e565b600181019050610d87565b5050565b601f821115610de957610dba81610c94565b610dc384610ca6565b81016020851015610dd2578190505b610de6610dde85610ca6565b830182610d86565b50505b505050565b5f82821c905092915050565b5f610e095f1984600802610dee565b1980831691505092915050565b5f610e218383610dfa565b9150826002028217905092915050565b610e3a82610973565b67ffffffffffffffff811115610e5357610e5261068d565b5b610e5d8254610c64565b610e68828285610da8565b5f60209050601f831160018114610e99575f8415610e87578287015190505b610e918582610e16565b865550610ef8565b601f198416610ea786610c94565b5f5b82811015610ece57848901518255600182019150602085019450602081019050610ea9565b86831015610eeb5784890151610ee7601f891682610dfa565b8355505b6001600288020188555050505b505050505050565b7f4e487b71000000000000000000000000000000000000000000000000000000005f52601160045260245ffd5b5f610f3782610646565b91507fffffffffffffffffffffffffffffffffffffffffffffffffffffffffffffffff8203610f6957610f68610f00565b5b600182019050919050565b5f8154610f8081610c64565b610f8a8186610be7565b9450600182165f8114610fa45760018114610fb957610feb565b60ff1983168652811515820286019350610feb565b610fc285610c94565b5f5b83811015610fe357815481890152600182019150602081019050610fc4565b838801955050505b50505092915050565b5f610fff8284610f74565b91508190509291505056fea2646970667358221220242e531e541315e61ac199af48edff9a39ac7af5da959b16b1be4f40b10a8c9664736f6c63430008140033",
					"opcodes": "PUSH1 0x80 PUSH1 0x40 MSTORE CALLVALUE DUP1 ISZERO PUSH2 0xF JUMPI PUSH0 DUP1 REVERT JUMPDEST POP CALLER PUSH0 DUP1 PUSH2 0x100 EXP DUP2 SLOAD DUP2 PUSH20 0xFFFFFFFFFFFFFFFFFFFFFFFFFFFFFFFFFFFFFFFF MUL NOT AND SWAP1 DUP4 PUSH20 0xFFFFFFFFFFFFFFFFFFFFFFFFFFFFFFFFFFFFFFFF AND MUL OR SWAP1 SSTORE POP PUSH2 0x1040 DUP1 PUSH2 0x5C PUSH0 CODECOPY PUSH0 RETURN INVALID PUSH1 0x80 PUSH1 0x40 MSTORE CALLVALUE DUP1 ISZERO PUSH2 0xF JUMPI PUSH0 DUP1 REVERT JUMPDEST POP PUSH1 0x4 CALLDATASIZE LT PUSH2 0x34 JUMPI PUSH0 CALLDATALOAD PUSH1 0xE0 SHR DUP1 PUSH4 0x4F6E9DE4 EQ PUSH2 0x38 JUMPI DUP1 PUSH4 0x97FF7AE0 EQ PUSH2 0x54 JUMPI JUMPDEST PUSH0 DUP1 REVERT JUMPDEST PUSH2 0x52 PUSH1 0x4 DUP1 CALLDATASIZE SUB DUP2 ADD SWAP1 PUSH2 0x4D SWAP2 SWAP1 PUSH2 0x897 JUMP JUMPDEST PUSH2 0x85 JUMP JUMPDEST STOP JUMPDEST PUSH2 0x6E PUSH1 0x4 DUP1 CALLDATASIZE SUB DUP2 ADD SWAP1 PUSH2 0x69 SWAP2 SWAP1 PUSH2 0x91F JUMP JUMPDEST PUSH2 0x2D4 JUMP JUMPDEST PUSH1 0x40 MLOAD PUSH2 0x7C SWAP3 SWAP2 SWAP1 PUSH2 0xA7F JUMP JUMPDEST PUSH1 0x40 MLOAD DUP1 SWAP2 SUB SWAP1 RETURN JUMPDEST CALLER PUSH20 0xFFFFFFFFFFFFFFFFFFFFFFFFFFFFFFFFFFFFFFFF AND PUSH1 0x1 PUSH0 CALLER PUSH20 0xFFFFFFFFFFFFFFFFFFFFFFFFFFFFFFFFFFFFFFFF AND PUSH20 0xFFFFFFFFFFFFFFFFFFFFFFFFFFFFFFFFFFFFFFFF AND DUP2 MSTORE PUSH1 0x20 ADD SWAP1 DUP2 MSTORE PUSH1 0x20 ADD PUSH0 KECCAK256 PUSH0 DUP6 DUP2 MSTORE PUSH1 0x20 ADD SWAP1 DUP2 MSTORE PUSH1 0x20 ADD PUSH0 KECCAK256 PUSH0 ADD PUSH0 SWAP1 SLOAD SWAP1 PUSH2 0x100 EXP SWAP1 DIV PUSH20 0xFFFFFFFFFFFFFFFFFFFFFFFFFFFFFFFFFFFFFFFF AND PUSH20 0xFFFFFFFFFFFFFFFFFFFFFFFFFFFFFFFFFFFFFFFF AND SUB PUSH2 0x160 JUMPI PUSH1 0x40 MLOAD PUSH32 0x8C379A000000000000000000000000000000000000000000000000000000000 DUP2 MSTORE PUSH1 0x4 ADD PUSH2 0x157 SWAP1 PUSH2 0xB0E JUMP JUMPDEST PUSH1 0x40 MLOAD DUP1 SWAP2 SUB SWAP1 REVERT JUMPDEST PUSH0 PUSH1 0x1 PUSH0 CALLER PUSH20 0xFFFFFFFFFFFFFFFFFFFFFFFFFFFFFFFFFFFFFFFF AND PUSH20 0xFFFFFFFFFFFFFFFFFFFFFFFFFFFFFFFFFFFFFFFF AND DUP2 MSTORE PUSH1 0x20 ADD SWAP1 DUP2 MSTORE PUSH1 0x20 ADD PUSH0 KECCAK256 PUSH0 DUP6 DUP2 MSTORE PUSH1 0x20 ADD SWAP1 DUP2 MSTORE PUSH1 0x20 ADD PUSH0 KECCAK256 SWAP1 POP CALLER DUP2 PUSH0 ADD PUSH0 PUSH2 0x100 EXP DUP2 SLOAD DUP2 PUSH20 0xFFFFFFFFFFFFFFFFFFFFFFFFFFFFFFFFFFFFFFFF MUL NOT AND SWAP1 DUP4 PUSH20 0xFFFFFFFFFFFFFFFFFFFFFFFFFFFFFFFFFFFFFFFF AND MUL OR SWAP1 SSTORE POP DUP2 MLOAD DUP4 MLOAD EQ PUSH2 0x234 JUMPI PUSH1 0x40 MLOAD PUSH32 0x8C379A000000000000000000000000000000000000000000000000000000000 DUP2 MSTORE PUSH1 0x4 ADD PUSH2 0x22B SWAP1 PUSH2 0xB9C JUMP JUMPDEST PUSH1 0x40 MLOAD DUP1 SWAP2 SUB SWAP1 REVERT JUMPDEST PUSH0 JUMPDEST DUP4 MLOAD DUP2 LT ISZERO PUSH2 0x2B4 JUMPI DUP3 DUP2 DUP2 MLOAD DUP2 LT PUSH2 0x252 JUMPI PUSH2 0x251 PUSH2 0xBBA JUMP JUMPDEST JUMPDEST PUSH1 0x20 MUL PUSH1 0x20 ADD ADD MLOAD DUP3 PUSH1 0x1 ADD DUP6 DUP4 DUP2 MLOAD DUP2 LT PUSH2 0x271 JUMPI PUSH2 0x270 PUSH2 0xBBA JUMP JUMPDEST JUMPDEST PUSH1 0x20 MUL PUSH1 0x20 ADD ADD MLOAD PUSH1 0x40 MLOAD PUSH2 0x286 SWAP2 SWAP1 PUSH2 0xC21 JUMP JUMPDEST SWAP1 DUP2 MSTORE PUSH1 0x20 ADD PUSH1 0x40 MLOAD DUP1 SWAP2 SUB SWAP1 KECCAK256 SWAP1 DUP2 PUSH2 0x2A0 SWAP2 SWAP1 PUSH2 0xE31 JUMP JUMPDEST POP DUP1 DUP1 PUSH2 0x2AC SWAP1 PUSH2 0xF2D JUMP JUMPDEST SWAP2 POP POP PUSH2 0x236 JUMP JUMPDEST POP DUP3 DUP2 PUSH1 0x2 ADD SWAP1 DUP1 MLOAD SWAP1 PUSH1 0x20 ADD SWAP1 PUSH2 0x2CD SWAP3 SWAP2 SWAP1 PUSH2 0x563 JUMP JUMPDEST POP POP POP POP POP JUMP JUMPDEST PUSH1 0x60 DUP1 PUSH0 PUSH1 0x1 PUSH0 CALLER PUSH20 0xFFFFFFFFFFFFFFFFFFFFFFFFFFFFFFFFFFFFFFFF AND PUSH20 0xFFFFFFFFFFFFFFFFFFFFFFFFFFFFFFFFFFFFFFFF AND DUP2 MSTORE PUSH1 0x20 ADD SWAP1 DUP2 MSTORE PUSH1 0x20 ADD PUSH0 KECCAK256 PUSH0 DUP6 DUP2 MSTORE PUSH1 0x20 ADD SWAP1 DUP2 MSTORE PUSH1 0x20 ADD PUSH0 KECCAK256 SWAP1 POP PUSH0 DUP2 PUSH1 0x2 ADD DUP1 SLOAD SWAP1 POP PUSH8 0xFFFFFFFFFFFFFFFF DUP2 GT ISZERO PUSH2 0x348 JUMPI PUSH2 0x347 PUSH2 0x68D JUMP JUMPDEST JUMPDEST PUSH1 0x40 MLOAD SWAP1 DUP1 DUP3 MSTORE DUP1 PUSH1 0x20 MUL PUSH1 0x20 ADD DUP3 ADD PUSH1 0x40 MSTORE DUP1 ISZERO PUSH2 0x37B JUMPI DUP2 PUSH1 0x20 ADD JUMPDEST PUSH1 0x60 DUP2 MSTORE PUSH1 0x20 ADD SWAP1 PUSH1 0x1 SWAP1 SUB SWAP1 DUP2 PUSH2 0x366 JUMPI SWAP1 POP JUMPDEST POP SWAP1 POP PUSH0 JUMPDEST DUP3 PUSH1 0x2 ADD DUP1 SLOAD SWAP1 POP DUP2 LT ISZERO PUSH2 0x484 JUMPI DUP3 PUSH1 0x1 ADD DUP4 PUSH1 0x2 ADD DUP3 DUP2 SLOAD DUP2 LT PUSH2 0x3A9 JUMPI PUSH2 0x3A8 PUSH2 0xBBA JUMP JUMPDEST JUMPDEST SWAP1 PUSH0 MSTORE PUSH1 0x20 PUSH0 KECCAK256 ADD PUSH1 0x40 MLOAD PUSH2 0x3BE SWAP2 SWAP1 PUSH2 0xFF4 JUMP JUMPDEST SWAP1 DUP2 MSTORE PUSH1 0x20 ADD PUSH1 0x40 MLOAD DUP1 SWAP2 SUB SWAP1 KECCAK256 DUP1 SLOAD PUSH2 0x3D7 SWAP1 PUSH2 0xC64 JUMP JUMPDEST DUP1 PUSH1 0x1F ADD PUSH1 0x20 DUP1 SWAP2 DIV MUL PUSH1 0x20 ADD PUSH1 0x40 MLOAD SWAP1 DUP2 ADD PUSH1 0x40 MSTORE DUP1 SWAP3 SWAP2 SWAP1 DUP2 DUP2 MSTORE PUSH1 0x20 ADD DUP3 DUP1 SLOAD PUSH2 0x403 SWAP1 PUSH2 0xC64 JUMP JUMPDEST DUP1 ISZERO PUSH2 0x44E JUMPI DUP1 PUSH1 0x1F LT PUSH2 0x425 JUMPI PUSH2 0x100 DUP1 DUP4 SLOAD DIV MUL DUP4 MSTORE SWAP2 PUSH1 0x20 ADD SWAP2 PUSH2 0x44E JUMP JUMPDEST DUP3 ADD SWAP2 SWAP1 PUSH0 MSTORE PUSH1 0x20 PUSH0 KECCAK256 SWAP1 JUMPDEST DUP2 SLOAD DUP2 MSTORE SWAP1 PUSH1 0x1 ADD SWAP1 PUSH1 0x20 ADD DUP1 DUP4 GT PUSH2 0x431 JUMPI DUP3 SWAP1 SUB PUSH1 0x1F AND DUP3 ADD SWAP2 JUMPDEST POP POP POP POP POP DUP3 DUP3 DUP2 MLOAD DUP2 LT PUSH2 0x466 JUMPI PUSH2 0x465 PUSH2 0xBBA JUMP JUMPDEST JUMPDEST PUSH1 0x20 MUL PUSH1 0x20 ADD ADD DUP2 SWAP1 MSTORE POP DUP1 DUP1 PUSH2 0x47C SWAP1 PUSH2 0xF2D JUMP JUMPDEST SWAP2 POP POP PUSH2 0x380 JUMP JUMPDEST POP DUP2 PUSH1 0x2 ADD DUP2 DUP2 DUP1 SLOAD DUP1 PUSH1 0x20 MUL PUSH1 0x20 ADD PUSH1 0x40 MLOAD SWAP1 DUP2 ADD PUSH1 0x40 MSTORE DUP1 SWAP3 SWAP2 SWAP1 DUP2 DUP2 MSTORE PUSH1 0x20 ADD PUSH0 SWAP1 JUMPDEST DUP3 DUP3 LT ISZERO PUSH2 0x552 JUMPI DUP4 DUP3 SWAP1 PUSH0 MSTORE PUSH1 0x20 PUSH0 KECCAK256 ADD DUP1 SLOAD PUSH2 0x4C7 SWAP1 PUSH2 0xC64 JUMP JUMPDEST DUP1 PUSH1 0x1F ADD PUSH1 0x20 DUP1 SWAP2 DIV MUL PUSH1 0x20 ADD PUSH1 0x40 MLOAD SWAP1 DUP2 ADD PUSH1 0x40 MSTORE DUP1 SWAP3 SWAP2 SWAP1 DUP2 DUP2 MSTORE PUSH1 0x20 ADD DUP3 DUP1 SLOAD PUSH2 0x4F3 SWAP1 PUSH2 0xC64 JUMP JUMPDEST DUP1 ISZERO PUSH2 0x53E JUMPI DUP1 PUSH1 0x1F LT PUSH2 0x515 JUMPI PUSH2 0x100 DUP1 DUP4 SLOAD DIV MUL DUP4 MSTORE SWAP2 PUSH1 0x20 ADD SWAP2 PUSH2 0x53E JUMP JUMPDEST DUP3 ADD SWAP2 SWAP1 PUSH0 MSTORE PUSH1 0x20 PUSH0 KECCAK256 SWAP1 JUMPDEST DUP2 SLOAD DUP2 MSTORE SWAP1 PUSH1 0x1 ADD SWAP1 PUSH1 0x20 ADD DUP1 DUP4 GT PUSH2 0x521 JUMPI DUP3 SWAP1 SUB PUSH1 0x1F AND DUP3 ADD SWAP2 JUMPDEST POP POP POP POP POP DUP2 MSTORE PUSH1 0x20 ADD SWAP1 PUSH1 0x1 ADD SWAP1 PUSH2 0x4AA JUMP JUMPDEST POP POP POP POP SWAP2 POP SWAP4 POP SWAP4 POP POP POP SWAP2 POP SWAP2 JUMP JUMPDEST DUP3 DUP1 SLOAD DUP3 DUP3 SSTORE SWAP1 PUSH0 MSTORE PUSH1 0x20 PUSH0 KECCAK256 SWAP1 DUP2 ADD SWAP3 DUP3 ISZERO PUSH2 0x5A9 JUMPI SWAP2 PUSH1 0x20 MUL DUP3 ADD JUMPDEST DUP3 DUP2 GT ISZERO PUSH2 0x5A8 JUMPI DUP3 MLOAD DUP3 SWAP1 DUP2 PUSH2 0x598 SWAP2 SWAP1 PUSH2 0xE31 JUMP JUMPDEST POP SWAP2 PUSH1 0x20 ADD SWAP2 SWAP1 PUSH1 0x1 ADD SWAP1 PUSH2 0x581 JUMP JUMPDEST JUMPDEST POP SWAP1 POP PUSH2 0x5B6 SWAP2 SWAP1 PUSH2 0x5BA JUMP JUMPDEST POP SWAP1 JUMP JUMPDEST JUMPDEST DUP1 DUP3 GT ISZERO PUSH2 0x5D9 JUMPI PUSH0 DUP2 DUP2 PUSH2 0x5D0 SWAP2 SWAP1 PUSH2 0x5DD JUMP JUMPDEST POP PUSH1 0x1 ADD PUSH2 0x5BB JUMP JUMPDEST POP SWAP1 JUMP JUMPDEST POP DUP1 SLOAD PUSH2 0x5E9 SWAP1 PUSH2 0xC64 JUMP JUMPDEST PUSH0 DUP3 SSTORE DUP1 PUSH1 0x1F LT PUSH2 0x5FA JUMPI POP PUSH2 0x617 JUMP JUMPDEST PUSH1 0x1F ADD PUSH1 0x20 SWAP1 DIV SWAP1 PUSH0 MSTORE PUSH1 0x20 PUSH0 KECCAK256 SWAP1 DUP2 ADD SWAP1 PUSH2 0x616 SWAP2 SWAP1 PUSH2 0x61A JUMP JUMPDEST JUMPDEST POP JUMP JUMPDEST JUMPDEST DUP1 DUP3 GT ISZERO PUSH2 0x631 JUMPI PUSH0 DUP2 PUSH0 SWAP1 SSTORE POP PUSH1 0x1 ADD PUSH2 0x61B JUMP JUMPDEST POP SWAP1 JUMP JUMPDEST PUSH0 PUSH1 0x40 MLOAD SWAP1 POP SWAP1 JUMP JUMPDEST PUSH0 DUP1 REVERT JUMPDEST PUSH0 DUP1 REVERT JUMPDEST PUSH0 DUP2 SWAP1 POP SWAP2 SWAP1 POP JUMP JUMPDEST PUSH2 0x658 DUP2 PUSH2 0x646 JUMP JUMPDEST DUP2 EQ PUSH2 0x662 JUMPI PUSH0 DUP1 REVERT JUMPDEST POP JUMP JUMPDEST PUSH0 DUP2 CALLDATALOAD SWAP1 POP PUSH2 0x673 DUP2 PUSH2 0x64F JUMP JUMPDEST SWAP3 SWAP2 POP POP JUMP JUMPDEST PUSH0 DUP1 REVERT JUMPDEST PUSH0 PUSH1 0x1F NOT PUSH1 0x1F DUP4 ADD AND SWAP1 POP SWAP2 SWAP1 POP JUMP JUMPDEST PUSH32 0x4E487B7100000000000000000000000000000000000000000000000000000000 PUSH0 MSTORE PUSH1 0x41 PUSH1 0x4 MSTORE PUSH1 0x24 PUSH0 REVERT JUMPDEST PUSH2 0x6C3 DUP3 PUSH2 0x67D JUMP JUMPDEST DUP2 ADD DUP2 DUP2 LT PUSH8 0xFFFFFFFFFFFFFFFF DUP3 GT OR ISZERO PUSH2 0x6E2 JUMPI PUSH2 0x6E1 PUSH2 0x68D JUMP JUMPDEST JUMPDEST DUP1 PUSH1 0x40 MSTORE POP POP POP JUMP JUMPDEST PUSH0 PUSH2 0x6F4 PUSH2 0x635 JUMP JUMPDEST SWAP1 POP PUSH2 0x700 DUP3 DUP3 PUSH2 0x6BA JUMP JUMPDEST SWAP2 SWAP1 POP JUMP JUMPDEST PUSH0 PUSH8 0xFFFFFFFFFFFFFFFF DUP3 GT ISZERO PUSH2 0x71F JUMPI PUSH2 0x71E PUSH2 0x68D JUMP JUMPDEST JUMPDEST PUSH1 0x20 DUP3 MUL SWAP1 POP PUSH1 0x20 DUP2 ADD SWAP1 POP SWAP2 SWAP1 POP JUMP JUMPDEST PUSH0 DUP1 REVERT JUMPDEST PUSH0 DUP1 REVERT JUMPDEST PUSH0 PUSH8 0xFFFFFFFFFFFFFFFF DUP3 GT ISZERO PUSH2 0x752 JUMPI PUSH2 0x751 PUSH2 0x68D JUMP JUMPDEST JUMPDEST PUSH2 0x75B DUP3 PUSH2 0x67D JUMP JUMPDEST SWAP1 POP PUSH1 0x20 DUP2 ADD SWAP1 POP SWAP2 SWAP1 POP JUMP JUMPDEST DUP3 DUP2 DUP4 CALLDATACOPY PUSH0 DUP4 DUP4 ADD MSTORE POP POP POP JUMP JUMPDEST PUSH0 PUSH2 0x788 PUSH2 0x783 DUP5 PUSH2 0x738 JUMP JUMPDEST PUSH2 0x6EB JUMP JUMPDEST SWAP1 POP DUP3 DUP2 MSTORE PUSH1 0x20 DUP2 ADD DUP5 DUP5 DUP5 ADD GT ISZERO PUSH2 0x7A4 JUMPI PUSH2 0x7A3 PUSH2 0x734 JUMP JUMPDEST JUMPDEST PUSH2 0x7AF DUP5 DUP3 DUP6 PUSH2 0x768 JUMP JUMPDEST POP SWAP4 SWAP3 POP POP POP JUMP JUMPDEST PUSH0 DUP3 PUSH1 0x1F DUP4 ADD SLT PUSH2 0x7CB JUMPI PUSH2 0x7CA PUSH2 0x679 JUMP JUMPDEST JUMPDEST DUP2 CALLDATALOAD PUSH2 0x7DB DUP5 DUP3 PUSH1 0x20 DUP7 ADD PUSH2 0x776 JUMP JUMPDEST SWAP2 POP POP SWAP3 SWAP2 POP POP JUMP JUMPDEST PUSH0 PUSH2 0x7F6 PUSH2 0x7F1 DUP5 PUSH2 0x705 JUMP JUMPDEST PUSH2 0x6EB JUMP JUMPDEST SWAP1 POP DUP1 DUP4 DUP3 MSTORE PUSH1 0x20 DUP3 ADD SWAP1 POP PUSH1 0x20 DUP5 MUL DUP4 ADD DUP6 DUP2 GT ISZERO PUSH2 0x819 JUMPI PUSH2 0x818 PUSH2 0x730 JUMP JUMPDEST JUMPDEST DUP4 JUMPDEST DUP2 DUP2 LT ISZERO PUSH2 0x860 JUMPI DUP1 CALLDATALOAD PUSH8 0xFFFFFFFFFFFFFFFF DUP2 GT ISZERO PUSH2 0x83E JUMPI PUSH2 0x83D PUSH2 0x679 JUMP JUMPDEST JUMPDEST DUP1 DUP7 ADD PUSH2 0x84B DUP10 DUP3 PUSH2 0x7B7 JUMP JUMPDEST DUP6 MSTORE PUSH1 0x20 DUP6 ADD SWAP5 POP POP POP PUSH1 0x20 DUP2 ADD SWAP1 POP PUSH2 0x81B JUMP JUMPDEST POP POP POP SWAP4 SWAP3 POP POP POP JUMP JUMPDEST PUSH0 DUP3 PUSH1 0x1F DUP4 ADD SLT PUSH2 0x87E JUMPI PUSH2 0x87D PUSH2 0x679 JUMP JUMPDEST JUMPDEST DUP2 CALLDATALOAD PUSH2 0x88E DUP5 DUP3 PUSH1 0x20 DUP7 ADD PUSH2 0x7E4 JUMP JUMPDEST SWAP2 POP POP SWAP3 SWAP2 POP POP JUMP JUMPDEST PUSH0 DUP1 PUSH0 PUSH1 0x60 DUP5 DUP7 SUB SLT ISZERO PUSH2 0x8AE JUMPI PUSH2 0x8AD PUSH2 0x63E JUMP JUMPDEST JUMPDEST PUSH0 PUSH2 0x8BB DUP7 DUP3 DUP8 ADD PUSH2 0x665 JUMP JUMPDEST SWAP4 POP POP PUSH1 0x20 DUP5 ADD CALLDATALOAD PUSH8 0xFFFFFFFFFFFFFFFF DUP2 GT ISZERO PUSH2 0x8DC JUMPI PUSH2 0x8DB PUSH2 0x642 JUMP JUMPDEST JUMPDEST PUSH2 0x8E8 DUP7 DUP3 DUP8 ADD PUSH2 0x86A JUMP JUMPDEST SWAP3 POP POP PUSH1 0x40 DUP5 ADD CALLDATALOAD PUSH8 0xFFFFFFFFFFFFFFFF DUP2 GT ISZERO PUSH2 0x909 JUMPI PUSH2 0x908 PUSH2 0x642 JUMP JUMPDEST JUMPDEST PUSH2 0x915 DUP7 DUP3 DUP8 ADD PUSH2 0x86A JUMP JUMPDEST SWAP2 POP POP SWAP3 POP SWAP3 POP SWAP3 JUMP JUMPDEST PUSH0 PUSH1 0x20 DUP3 DUP5 SUB SLT ISZERO PUSH2 0x934 JUMPI PUSH2 0x933 PUSH2 0x63E JUMP JUMPDEST JUMPDEST PUSH0 PUSH2 0x941 DUP5 DUP3 DUP6 ADD PUSH2 0x665 JUMP JUMPDEST SWAP2 POP POP SWAP3 SWAP2 POP POP JUMP JUMPDEST PUSH0 DUP2 MLOAD SWAP1 POP SWAP2 SWAP1 POP JUMP JUMPDEST PUSH0 DUP3 DUP3 MSTORE PUSH1 0x20 DUP3 ADD SWAP1 POP SWAP3 SWAP2 POP POP JUMP JUMPDEST PUSH0 DUP2 SWAP1 POP PUSH1 0x20 DUP3 ADD SWAP1 POP SWAP2 SWAP1 POP JUMP JUMPDEST PUSH0 DUP2 MLOAD SWAP1 POP SWAP2 SWAP1 POP JUMP JUMPDEST PUSH0 DUP3 DUP3 MSTORE PUSH1 0x20 DUP3 ADD SWAP1 POP SWAP3 SWAP2 POP POP JUMP JUMPDEST PUSH0 JUMPDEST DUP4 DUP2 LT ISZERO PUSH2 0x9AA JUMPI DUP1 DUP3 ADD MLOAD DUP2 DUP5 ADD MSTORE PUSH1 0x20 DUP2 ADD SWAP1 POP PUSH2 0x98F JUMP JUMPDEST PUSH0 DUP5 DUP5 ADD MSTORE POP POP POP POP JUMP JUMPDEST PUSH0 PUSH2 0x9BF DUP3 PUSH2 0x973 JUMP JUMPDEST PUSH2 0x9C9 DUP2 DUP6 PUSH2 0x97D JUMP JUMPDEST SWAP4 POP PUSH2 0x9D9 DUP2 DUP6 PUSH1 0x20 DUP7 ADD PUSH2 0x98D JUMP JUMPDEST PUSH2 0x9E2 DUP2 PUSH2 0x67D JUMP JUMPDEST DUP5 ADD SWAP2 POP POP SWAP3 SWAP2 POP POP JUMP JUMPDEST PUSH0 PUSH2 0x9F8 DUP4 DUP4 PUSH2 0x9B5 JUMP JUMPDEST SWAP1 POP SWAP3 SWAP2 POP POP JUMP JUMPDEST PUSH0 PUSH1 0x20 DUP3 ADD SWAP1 POP SWAP2 SWAP1 POP JUMP JUMPDEST PUSH0 PUSH2 0xA16 DUP3 PUSH2 0x94A JUMP JUMPDEST PUSH2 0xA20 DUP2 DUP6 PUSH2 0x954 JUMP JUMPDEST SWAP4 POP DUP4 PUSH1 0x20 DUP3 MUL DUP6 ADD PUSH2 0xA32 DUP6 PUSH2 0x964 JUMP JUMPDEST DUP1 PUSH0 JUMPDEST DUP6 DUP2 LT ISZERO PUSH2 0xA6D JUMPI DUP5 DUP5 SUB DUP10 MSTORE DUP2 MLOAD PUSH2 0xA4E DUP6 DUP3 PUSH2 0x9ED JUMP JUMPDEST SWAP5 POP PUSH2 0xA59 DUP4 PUSH2 0xA00 JUMP JUMPDEST SWAP3 POP PUSH1 0x20 DUP11 ADD SWAP10 POP POP PUSH1 0x1 DUP2 ADD SWAP1 POP PUSH2 0xA35 JUMP JUMPDEST POP DUP3 SWAP8 POP DUP8 SWAP6 POP POP POP POP POP POP SWAP3 SWAP2 POP POP JUMP JUMPDEST PUSH0 PUSH1 0x40 DUP3 ADD SWAP1 POP DUP2 DUP2 SUB PUSH0 DUP4 ADD MSTORE PUSH2 0xA97 DUP2 DUP6 PUSH2 0xA0C JUMP JUMPDEST SWAP1 POP DUP2 DUP2 SUB PUSH1 0x20 DUP4 ADD MSTORE PUSH2 0xAAB DUP2 DUP5 PUSH2 0xA0C JUMP JUMPDEST SWAP1 POP SWAP4 SWAP3 POP POP POP JUMP JUMPDEST PUSH0 DUP3 DUP3 MSTORE PUSH1 0x20 DUP3 ADD SWAP1 POP SWAP3 SWAP2 POP POP JUMP JUMPDEST PUSH32 0x5B4552524F525D20494420616C7761797320696E207573650000000000000000 PUSH0 DUP3 ADD MSTORE POP JUMP JUMPDEST PUSH0 PUSH2 0xAF8 PUSH1 0x18 DUP4 PUSH2 0xAB4 JUMP JUMPDEST SWAP2 POP PUSH2 0xB03 DUP3 PUSH2 0xAC4 JUMP JUMPDEST PUSH1 0x20 DUP3 ADD SWAP1 POP SWAP2 SWAP1 POP JUMP JUMPDEST PUSH0 PUSH1 0x20 DUP3 ADD SWAP1 POP DUP2 DUP2 SUB PUSH0 DUP4 ADD MSTORE PUSH2 0xB25 DUP2 PUSH2 0xAEC JUMP JUMPDEST SWAP1 POP SWAP2 SWAP1 POP JUMP JUMPDEST PUSH32 0x5B4552524F525D20546865206C656E677468206F6620746865206B6579732061 PUSH0 DUP3 ADD MSTORE PUSH32 0x6E642076616C75657320617265206E6F746520657175616C0000000000000000 PUSH1 0x20 DUP3 ADD MSTORE POP JUMP JUMPDEST PUSH0 PUSH2 0xB86 PUSH1 0x38 DUP4 PUSH2 0xAB4 JUMP JUMPDEST SWAP2 POP PUSH2 0xB91 DUP3 PUSH2 0xB2C JUMP JUMPDEST PUSH1 0x40 DUP3 ADD SWAP1 POP SWAP2 SWAP1 POP JUMP JUMPDEST PUSH0 PUSH1 0x20 DUP3 ADD SWAP1 POP DUP2 DUP2 SUB PUSH0 DUP4 ADD MSTORE PUSH2 0xBB3 DUP2 PUSH2 0xB7A JUMP JUMPDEST SWAP1 POP SWAP2 SWAP1 POP JUMP JUMPDEST PUSH32 0x4E487B7100000000000000000000000000000000000000000000000000000000 PUSH0 MSTORE PUSH1 0x32 PUSH1 0x4 MSTORE PUSH1 0x24 PUSH0 REVERT JUMPDEST PUSH0 DUP2 SWAP1 POP SWAP3 SWAP2 POP POP JUMP JUMPDEST PUSH0 PUSH2 0xBFB DUP3 PUSH2 0x973 JUMP JUMPDEST PUSH2 0xC05 DUP2 DUP6 PUSH2 0xBE7 JUMP JUMPDEST SWAP4 POP PUSH2 0xC15 DUP2 DUP6 PUSH1 0x20 DUP7 ADD PUSH2 0x98D JUMP JUMPDEST DUP1 DUP5 ADD SWAP2 POP POP SWAP3 SWAP2 POP POP JUMP JUMPDEST PUSH0 PUSH2 0xC2C DUP3 DUP5 PUSH2 0xBF1 JUMP JUMPDEST SWAP2 POP DUP2 SWAP1 POP SWAP3 SWAP2 POP POP JUMP JUMPDEST PUSH32 0x4E487B7100000000000000000000000000000000000000000000000000000000 PUSH0 MSTORE PUSH1 0x22 PUSH1 0x4 MSTORE PUSH1 0x24 PUSH0 REVERT JUMPDEST PUSH0 PUSH1 0x2 DUP3 DIV SWAP1 POP PUSH1 0x1 DUP3 AND DUP1 PUSH2 0xC7B JUMPI PUSH1 0x7F DUP3 AND SWAP2 POP JUMPDEST PUSH1 0x20 DUP3 LT DUP2 SUB PUSH2 0xC8E JUMPI PUSH2 0xC8D PUSH2 0xC37 JUMP JUMPDEST JUMPDEST POP SWAP2 SWAP1 POP JUMP JUMPDEST PUSH0 DUP2 SWAP1 POP DUP2 PUSH0 MSTORE PUSH1 0x20 PUSH0 KECCAK256 SWAP1 POP SWAP2 SWAP1 POP JUMP JUMPDEST PUSH0 PUSH1 0x20 PUSH1 0x1F DUP4 ADD DIV SWAP1 POP SWAP2 SWAP1 POP JUMP JUMPDEST PUSH0 DUP3 DUP3 SHL SWAP1 POP SWAP3 SWAP2 POP POP JUMP JUMPDEST PUSH0 PUSH1 0x8 DUP4 MUL PUSH2 0xCF0 PUSH32 0xFFFFFFFFFFFFFFFFFFFFFFFFFFFFFFFFFFFFFFFFFFFFFFFFFFFFFFFFFFFFFFFF DUP3 PUSH2 0xCB5 JUMP JUMPDEST PUSH2 0xCFA DUP7 DUP4 PUSH2 0xCB5 JUMP JUMPDEST SWAP6 POP DUP1 NOT DUP5 AND SWAP4 POP DUP1 DUP7 AND DUP5 OR SWAP3 POP POP POP SWAP4 SWAP3 POP POP POP JUMP JUMPDEST PUSH0 DUP2 SWAP1 POP SWAP2 SWAP1 POP JUMP JUMPDEST PUSH0 PUSH2 0xD35 PUSH2 0xD30 PUSH2 0xD2B DUP5 PUSH2 0x646 JUMP JUMPDEST PUSH2 0xD12 JUMP JUMPDEST PUSH2 0x646 JUMP JUMPDEST SWAP1 POP SWAP2 SWAP1 POP JUMP JUMPDEST PUSH0 DUP2 SWAP1 POP SWAP2 SWAP1 POP JUMP JUMPDEST PUSH2 0xD4E DUP4 PUSH2 0xD1B JUMP JUMPDEST PUSH2 0xD62 PUSH2 0xD5A DUP3 PUSH2 0xD3C JUMP JUMPDEST DUP5 DUP5 SLOAD PUSH2 0xCC1 JUMP JUMPDEST DUP3 SSTORE POP POP POP POP JUMP JUMPDEST PUSH0 SWAP1 JUMP JUMPDEST PUSH2 0xD76 PUSH2 0xD6A JUMP JUMPDEST PUSH2 0xD81 DUP2 DUP5 DUP5 PUSH2 0xD45 JUMP JUMPDEST POP POP POP JUMP JUMPDEST JUMPDEST DUP2 DUP2 LT ISZERO PUSH2 0xDA4 JUMPI PUSH2 0xD99 PUSH0 DUP3 PUSH2 0xD6E JUMP JUMPDEST PUSH1 0x1 DUP2 ADD SWAP1 POP PUSH2 0xD87 JUMP JUMPDEST POP POP JUMP JUMPDEST PUSH1 0x1F DUP3 GT ISZERO PUSH2 0xDE9 JUMPI PUSH2 0xDBA DUP2 PUSH2 0xC94 JUMP JUMPDEST PUSH2 0xDC3 DUP5 PUSH2 0xCA6 JUMP JUMPDEST DUP2 ADD PUSH1 0x20 DUP6 LT ISZERO PUSH2 0xDD2 JUMPI DUP2 SWAP1 POP JUMPDEST PUSH2 0xDE6 PUSH2 0xDDE DUP6 PUSH2 0xCA6 JUMP JUMPDEST DUP4 ADD DUP3 PUSH2 0xD86 JUMP JUMPDEST POP POP JUMPDEST POP POP POP JUMP JUMPDEST PUSH0 DUP3 DUP3 SHR SWAP1 POP SWAP3 SWAP2 POP POP JUMP JUMPDEST PUSH0 PUSH2 0xE09 PUSH0 NOT DUP5 PUSH1 0x8 MUL PUSH2 0xDEE JUMP JUMPDEST NOT DUP1 DUP4 AND SWAP2 POP POP SWAP3 SWAP2 POP POP JUMP JUMPDEST PUSH0 PUSH2 0xE21 DUP4 DUP4 PUSH2 0xDFA JUMP JUMPDEST SWAP2 POP DUP3 PUSH1 0x2 MUL DUP3 OR SWAP1 POP SWAP3 SWAP2 POP POP JUMP JUMPDEST PUSH2 0xE3A DUP3 PUSH2 0x973 JUMP JUMPDEST PUSH8 0xFFFFFFFFFFFFFFFF DUP2 GT ISZERO PUSH2 0xE53 JUMPI PUSH2 0xE52 PUSH2 0x68D JUMP JUMPDEST JUMPDEST PUSH2 0xE5D DUP3 SLOAD PUSH2 0xC64 JUMP JUMPDEST PUSH2 0xE68 DUP3 DUP3 DUP6 PUSH2 0xDA8 JUMP JUMPDEST PUSH0 PUSH1 0x20 SWAP1 POP PUSH1 0x1F DUP4 GT PUSH1 0x1 DUP2 EQ PUSH2 0xE99 JUMPI PUSH0 DUP5 ISZERO PUSH2 0xE87 JUMPI DUP3 DUP8 ADD MLOAD SWAP1 POP JUMPDEST PUSH2 0xE91 DUP6 DUP3 PUSH2 0xE16 JUMP JUMPDEST DUP7 SSTORE POP PUSH2 0xEF8 JUMP JUMPDEST PUSH1 0x1F NOT DUP5 AND PUSH2 0xEA7 DUP7 PUSH2 0xC94 JUMP JUMPDEST PUSH0 JUMPDEST DUP3 DUP2 LT ISZERO PUSH2 0xECE JUMPI DUP5 DUP10 ADD MLOAD DUP3 SSTORE PUSH1 0x1 DUP3 ADD SWAP2 POP PUSH1 0x20 DUP6 ADD SWAP5 POP PUSH1 0x20 DUP2 ADD SWAP1 POP PUSH2 0xEA9 JUMP JUMPDEST DUP7 DUP4 LT ISZERO PUSH2 0xEEB JUMPI DUP5 DUP10 ADD MLOAD PUSH2 0xEE7 PUSH1 0x1F DUP10 AND DUP3 PUSH2 0xDFA JUMP JUMPDEST DUP4 SSTORE POP JUMPDEST PUSH1 0x1 PUSH1 0x2 DUP9 MUL ADD DUP9 SSTORE POP POP POP JUMPDEST POP POP POP POP POP POP JUMP JUMPDEST PUSH32 0x4E487B7100000000000000000000000000000000000000000000000000000000 PUSH0 MSTORE PUSH1 0x11 PUSH1 0x4 MSTORE PUSH1 0x24 PUSH0 REVERT JUMPDEST PUSH0 PUSH2 0xF37 DUP3 PUSH2 0x646 JUMP JUMPDEST SWAP2 POP PUSH32 0xFFFFFFFFFFFFFFFFFFFFFFFFFFFFFFFFFFFFFFFFFFFFFFFFFFFFFFFFFFFFFFFF DUP3 SUB PUSH2 0xF69 JUMPI PUSH2 0xF68 PUSH2 0xF00 JUMP JUMPDEST JUMPDEST PUSH1 0x1 DUP3 ADD SWAP1 POP SWAP2 SWAP1 POP JUMP JUMPDEST PUSH0 DUP2 SLOAD PUSH2 0xF80 DUP2 PUSH2 0xC64 JUMP JUMPDEST PUSH2 0xF8A DUP2 DUP7 PUSH2 0xBE7 JUMP JUMPDEST SWAP5 POP PUSH1 0x1 DUP3 AND PUSH0 DUP2 EQ PUSH2 0xFA4 JUMPI PUSH1 0x1 DUP2 EQ PUSH2 0xFB9 JUMPI PUSH2 0xFEB JUMP JUMPDEST PUSH1 0xFF NOT DUP4 AND DUP7 MSTORE DUP2 ISZERO ISZERO DUP3 MUL DUP7 ADD SWAP4 POP PUSH2 0xFEB JUMP JUMPDEST PUSH2 0xFC2 DUP6 PUSH2 0xC94 JUMP JUMPDEST PUSH0 JUMPDEST DUP4 DUP2 LT ISZERO PUSH2 0xFE3 JUMPI DUP2 SLOAD DUP2 DUP10 ADD MSTORE PUSH1 0x1 DUP3 ADD SWAP2 POP PUSH1 0x20 DUP2 ADD SWAP1 POP PUSH2 0xFC4 JUMP JUMPDEST DUP4 DUP9 ADD SWAP6 POP POP POP JUMPDEST POP POP POP SWAP3 SWAP2 POP POP JUMP JUMPDEST PUSH0 PUSH2 0xFFF DUP3 DUP5 PUSH2 0xF74 JUMP JUMPDEST SWAP2 POP DUP2 SWAP1 POP SWAP3 SWAP2 POP POP JUMP INVALID LOG2 PUSH5 0x6970667358 0x22 SLT KECCAK256 0x24 0x2E MSTORE8 0x1E SLOAD SGT ISZERO 0xE6 BYTE 0xC1 SWAP10 0xAF BASEFEE 0xED SELFDESTRUCT SWAP11 CODECOPY 0xAC PUSH27 0xF5DA959B16B1BE4F40B10A8C9664736F6C63430008140033000000 "
				},
				"gasEstimates": {
					"creation": {
						"codeDepositCost": "832000",
						"executionCost": "25127",
						"totalCost": "857127"
					},
					"external": {
						"addItemToAdress(uint256,string[],string[])": "infinite",
						"getAttributesOfItemByID(uint256)": "infinite"
					}
				},
				"methodIdentifiers": {
					"addItemToAdress(uint256,string[],string[])": "4f6e9de4",
					"getAttributesOfItemByID(uint256)": "97ff7ae0"
				}
			},
			"storageLayout": {
				"storage": [
					{
						"astId": 3,
						"contract": "contracts/ItemOwnership.sol:ItemOwnership",
						"label": "owner",
						"offset": 0,
						"slot": "0",
						"type": "t_address"
					},
					{
						"astId": 34,
						"contract": "contracts/ItemOwnership.sol:ItemOwnership",
						"label": "itemDatabase",
						"offset": 0,
						"slot": "1",
						"type": "t_mapping(t_address,t_mapping(t_uint256,t_struct(Item)44_storage))"
					}
				],
				"types": {
					"t_address": {
						"encoding": "inplace",
						"label": "address",
						"numberOfBytes": "20"
					},
					"t_array(t_string_storage)dyn_storage": {
						"base": "t_string_storage",
						"encoding": "dynamic_array",
						"label": "string[]",
						"numberOfBytes": "32"
					},
					"t_mapping(t_address,t_mapping(t_uint256,t_struct(Item)44_storage))": {
						"encoding": "mapping",
						"key": "t_address",
						"label": "mapping(address => mapping(uint256 => struct ItemOwnership.Item))",
						"numberOfBytes": "32",
						"value": "t_mapping(t_uint256,t_struct(Item)44_storage)"
					},
					"t_mapping(t_string_memory_ptr,t_string_storage)": {
						"encoding": "mapping",
						"key": "t_string_memory_ptr",
						"label": "mapping(string => string)",
						"numberOfBytes": "32",
						"value": "t_string_storage"
					},
					"t_mapping(t_uint256,t_struct(Item)44_storage)": {
						"encoding": "mapping",
						"key": "t_uint256",
						"label": "mapping(uint256 => struct ItemOwnership.Item)",
						"numberOfBytes": "32",
						"value": "t_struct(Item)44_storage"
					},
					"t_string_memory_ptr": {
						"encoding": "bytes",
						"label": "string",
						"numberOfBytes": "32"
					},
					"t_string_storage": {
						"encoding": "bytes",
						"label": "string",
						"numberOfBytes": "32"
					},
					"t_struct(Item)44_storage": {
						"encoding": "inplace",
						"label": "struct ItemOwnership.Item",
						"members": [
							{
								"astId": 36,
								"contract": "contracts/ItemOwnership.sol:ItemOwnership",
								"label": "owner",
								"offset": 0,
								"slot": "0",
								"type": "t_address"
							},
							{
								"astId": 40,
								"contract": "contracts/ItemOwnership.sol:ItemOwnership",
								"label": "attributes",
								"offset": 0,
								"slot": "1",
								"type": "t_mapping(t_string_memory_ptr,t_string_storage)"
							},
							{
								"astId": 43,
								"contract": "contracts/ItemOwnership.sol:ItemOwnership",
								"label": "attributeKeys",
								"offset": 0,
								"slot": "2",
								"type": "t_array(t_string_storage)dyn_storage"
							}
						],
						"numberOfBytes": "96"
					},
					"t_uint256": {
						"encoding": "inplace",
						"label": "uint256",
						"numberOfBytes": "32"
					}
				}
			},
			"userdoc": {
				"kind": "user",
				"methods": {},
				"version": 1
			}
		}
	}
}