{
	"contracts/ItemOwnership.sol": {
		"ItemOwnership": {
			"abi": [
				{
					"inputs": [],
					"stateMutability": "nonpayable",
					"type": "constructor"
				},
				{
					"inputs": [
						{
							"internalType": "string",
							"name": "searchKey",
							"type": "string"
						},
						{
							"internalType": "string",
							"name": "value",
							"type": "string"
						}
					],
					"name": "AddressHasItem",
					"outputs": [
						{
							"internalType": "bool",
							"name": "",
							"type": "bool"
						}
					],
					"stateMutability": "view",
					"type": "function"
				},
				{
					"inputs": [
						{
							"internalType": "uint256",
							"name": "_id",
							"type": "uint256"
						},
						{
							"internalType": "string[]",
							"name": "_attributeKeys",
							"type": "string[]"
						},
						{
							"internalType": "string[]",
							"name": "_attributeValues",
							"type": "string[]"
						}
					],
					"name": "addItemToAdress",
					"outputs": [],
					"stateMutability": "nonpayable",
					"type": "function"
				},
				{
					"inputs": [],
					"name": "getAllItemsFromAddress",
					"outputs": [
						{
							"internalType": "uint256[]",
							"name": "",
							"type": "uint256[]"
						}
					],
					"stateMutability": "view",
					"type": "function"
				},
				{
					"inputs": [],
					"name": "getAmountOfItems",
					"outputs": [
						{
							"internalType": "uint256",
							"name": "",
							"type": "uint256"
						}
					],
					"stateMutability": "view",
					"type": "function"
				},
				{
					"inputs": [
						{
							"internalType": "uint256",
							"name": "_id",
							"type": "uint256"
						}
					],
					"name": "getAttributesOfItemByID",
					"outputs": [
						{
							"internalType": "string[]",
							"name": "",
							"type": "string[]"
						},
						{
							"internalType": "string[]",
							"name": "",
							"type": "string[]"
						}
					],
					"stateMutability": "view",
					"type": "function"
				},
				{
					"inputs": [
						{
							"internalType": "uint256",
							"name": "_id",
							"type": "uint256"
						}
					],
					"name": "removeItemFromAddress",
					"outputs": [],
					"stateMutability": "nonpayable",
					"type": "function"
				},
				{
					"inputs": [
						{
							"internalType": "uint256",
							"name": "_id",
							"type": "uint256"
						},
						{
							"internalType": "string[]",
							"name": "_attributeKeys",
							"type": "string[]"
						},
						{
							"internalType": "string[]",
							"name": "_attributeValues",
							"type": "string[]"
						}
					],
					"name": "updateItemFromAddress",
					"outputs": [],
					"stateMutability": "nonpayable",
					"type": "function"
				}
			],
			"devdoc": {
				"kind": "dev",
				"methods": {},
				"version": 1
			},
			"evm": {
				"assembly": "    /* \"contracts/ItemOwnership.sol\":1028:4452  contract ItemOwnership is ContractOwnable, ItemValidator {... */\n  mstore(0x40, 0x80)\n    /* \"contracts/ItemOwnership.sol\":1091:1127  constructor() {... */\n  callvalue\n  dup1\n  iszero\n  tag_1\n  jumpi\n  0x00\n  dup1\n  revert\ntag_1:\n  pop\n    /* \"contracts/ItemOwnership.sol\":360:370  msg.sender */\n  caller\n    /* \"contracts/ItemOwnership.sol\":352:357  owner */\n  0x00\n  dup1\n    /* \"contracts/ItemOwnership.sol\":352:370  owner = msg.sender */\n  0x0100\n  exp\n  dup2\n  sload\n  dup2\n  0xffffffffffffffffffffffffffffffffffffffff\n  mul\n  not\n  and\n  swap1\n  dup4\n  0xffffffffffffffffffffffffffffffffffffffff\n  and\n  mul\n  or\n  swap1\n  sstore\n  pop\n    /* \"contracts/ItemOwnership.sol\":1028:4452  contract ItemOwnership is ContractOwnable, ItemValidator {... */\n  dataSize(sub_0)\n  dup1\n  dataOffset(sub_0)\n  0x00\n  codecopy\n  0x00\n  return\nstop\n\nsub_0: assembly {\n        /* \"contracts/ItemOwnership.sol\":1028:4452  contract ItemOwnership is ContractOwnable, ItemValidator {... */\n      mstore(0x40, 0x80)\n      callvalue\n      dup1\n      iszero\n      tag_1\n      jumpi\n      0x00\n      dup1\n      revert\n    tag_1:\n      pop\n      jumpi(tag_2, lt(calldatasize, 0x04))\n      shr(0xe0, calldataload(0x00))\n      dup1\n      0x4f6e9de4\n      gt\n      tag_10\n      jumpi\n      dup1\n      0x4f6e9de4\n      eq\n      tag_6\n      jumpi\n      dup1\n      0x97ff7ae0\n      eq\n      tag_7\n      jumpi\n      dup1\n      0xba54b7bf\n      eq\n      tag_8\n      jumpi\n      dup1\n      0xf6ebbb76\n      eq\n      tag_9\n      jumpi\n      jump(tag_2)\n    tag_10:\n      dup1\n      0x32636123\n      eq\n      tag_3\n      jumpi\n      dup1\n      0x40c8068d\n      eq\n      tag_4\n      jumpi\n      dup1\n      0x474a1c15\n      eq\n      tag_5\n      jumpi\n    tag_2:\n      0x00\n      dup1\n      revert\n        /* \"contracts/ItemOwnership.sol\":2774:3391  function updateItemFromAddress(... */\n    tag_3:\n      tag_11\n      0x04\n      dup1\n      calldatasize\n      sub\n      dup2\n      add\n      swap1\n      tag_12\n      swap2\n      swap1\n      tag_13\n      jump\t// in\n    tag_12:\n      tag_14\n      jump\t// in\n    tag_11:\n      stop\n        /* \"contracts/ItemOwnership.sol\":3397:3508  function getAmountOfItems() public view returns (uint256) {... */\n    tag_4:\n      tag_15\n      tag_16\n      jump\t// in\n    tag_15:\n      mload(0x40)\n      tag_17\n      swap2\n      swap1\n      tag_18\n      jump\t// in\n    tag_17:\n      mload(0x40)\n      dup1\n      swap2\n      sub\n      swap1\n      return\n        /* \"contracts/ItemOwnership.sol\":3986:4450  function AddressHasItem(string memory searchKey, string memory value) public view returns(bool) {... */\n    tag_5:\n      tag_19\n      0x04\n      dup1\n      calldatasize\n      sub\n      dup2\n      add\n      swap1\n      tag_20\n      swap2\n      swap1\n      tag_21\n      jump\t// in\n    tag_20:\n      tag_22\n      jump\t// in\n    tag_19:\n      mload(0x40)\n      tag_23\n      swap2\n      swap1\n      tag_24\n      jump\t// in\n    tag_23:\n      mload(0x40)\n      dup1\n      swap2\n      sub\n      swap1\n      return\n        /* \"contracts/ItemOwnership.sol\":1152:1817  function addItemToAdress(... */\n    tag_6:\n      tag_25\n      0x04\n      dup1\n      calldatasize\n      sub\n      dup2\n      add\n      swap1\n      tag_26\n      swap2\n      swap1\n      tag_13\n      jump\t// in\n    tag_26:\n      tag_27\n      jump\t// in\n    tag_25:\n      stop\n        /* \"contracts/ItemOwnership.sol\":1823:2356  function getAttributesOfItemByID(uint256 _id)... */\n    tag_7:\n      tag_28\n      0x04\n      dup1\n      calldatasize\n      sub\n      dup2\n      add\n      swap1\n      tag_29\n      swap2\n      swap1\n      tag_30\n      jump\t// in\n    tag_29:\n      tag_31\n      jump\t// in\n    tag_28:\n      mload(0x40)\n      tag_32\n      swap3\n      swap2\n      swap1\n      tag_33\n      jump\t// in\n    tag_32:\n      mload(0x40)\n      dup1\n      swap2\n      sub\n      swap1\n      return\n        /* \"contracts/ItemOwnership.sol\":2362:2768  function removeItemFromAddress(uint256 _id) public itemIsAvailable(_id) {... */\n    tag_8:\n      tag_34\n      0x04\n      dup1\n      calldatasize\n      sub\n      dup2\n      add\n      swap1\n      tag_35\n      swap2\n      swap1\n      tag_30\n      jump\t// in\n    tag_35:\n      tag_36\n      jump\t// in\n    tag_34:\n      stop\n        /* \"contracts/ItemOwnership.sol\":3862:3980  function getAllItemsFromAddress() public view returns(uint256[] memory) {... */\n    tag_9:\n      tag_37\n      tag_38\n      jump\t// in\n    tag_37:\n      mload(0x40)\n      tag_39\n      swap2\n      swap1\n      tag_40\n      jump\t// in\n    tag_39:\n      mload(0x40)\n      dup1\n      swap2\n      sub\n      swap1\n      return\n        /* \"contracts/ItemOwnership.sol\":2774:3391  function updateItemFromAddress(... */\n    tag_14:\n        /* \"contracts/ItemOwnership.sol\":2937:2940  _id */\n      dup3\n        /* \"contracts/ItemOwnership.sol\":754:764  msg.sender */\n      caller\n        /* \"contracts/ItemOwnership.sol\":715:764  itemDatabase[msg.sender][_id].owner == msg.sender */\n      0xffffffffffffffffffffffffffffffffffffffff\n      and\n        /* \"contracts/ItemOwnership.sol\":715:727  itemDatabase */\n      0x01\n        /* \"contracts/ItemOwnership.sol\":715:739  itemDatabase[msg.sender] */\n      0x00\n        /* \"contracts/ItemOwnership.sol\":728:738  msg.sender */\n      caller\n        /* \"contracts/ItemOwnership.sol\":715:739  itemDatabase[msg.sender] */\n      0xffffffffffffffffffffffffffffffffffffffff\n      and\n      0xffffffffffffffffffffffffffffffffffffffff\n      and\n      dup2\n      mstore\n      0x20\n      add\n      swap1\n      dup2\n      mstore\n      0x20\n      add\n      0x00\n      keccak256\n        /* \"contracts/ItemOwnership.sol\":715:744  itemDatabase[msg.sender][_id] */\n      0x00\n        /* \"contracts/ItemOwnership.sol\":740:743  _id */\n      dup4\n        /* \"contracts/ItemOwnership.sol\":715:744  itemDatabase[msg.sender][_id] */\n      dup2\n      mstore\n      0x20\n      add\n      swap1\n      dup2\n      mstore\n      0x20\n      add\n      0x00\n      keccak256\n        /* \"contracts/ItemOwnership.sol\":715:750  itemDatabase[msg.sender][_id].owner */\n      0x00\n      add\n      0x00\n      swap1\n      sload\n      swap1\n      0x0100\n      exp\n      swap1\n      div\n      0xffffffffffffffffffffffffffffffffffffffff\n      and\n        /* \"contracts/ItemOwnership.sol\":715:764  itemDatabase[msg.sender][_id].owner == msg.sender */\n      0xffffffffffffffffffffffffffffffffffffffff\n      and\n      eq\n        /* \"contracts/ItemOwnership.sol\":694:814  require(... */\n      tag_42\n      jumpi\n      mload(0x40)\n      0x08c379a000000000000000000000000000000000000000000000000000000000\n      dup2\n      mstore\n      0x04\n      add\n      tag_43\n      swap1\n      tag_44\n      jump\t// in\n    tag_43:\n      mload(0x40)\n      dup1\n      swap2\n      sub\n      swap1\n      revert\n    tag_42:\n        /* \"contracts/ItemOwnership.sol\":2998:3014  _attributeValues */\n      dup2\n        /* \"contracts/ItemOwnership.sol\":2998:3021  _attributeValues.length */\n      mload\n        /* \"contracts/ItemOwnership.sol\":2973:2987  _attributeKeys */\n      dup4\n        /* \"contracts/ItemOwnership.sol\":2973:2994  _attributeKeys.length */\n      mload\n        /* \"contracts/ItemOwnership.sol\":2973:3021  _attributeKeys.length == _attributeValues.length */\n      eq\n        /* \"contracts/ItemOwnership.sol\":2952:3103  require(... */\n      tag_46\n      jumpi\n      mload(0x40)\n      0x08c379a000000000000000000000000000000000000000000000000000000000\n      dup2\n      mstore\n      0x04\n      add\n      tag_47\n      swap1\n      tag_48\n      jump\t// in\n    tag_47:\n      mload(0x40)\n      dup1\n      swap2\n      sub\n      swap1\n      revert\n    tag_46:\n        /* \"contracts/ItemOwnership.sol\":3114:3131  Item storage item */\n      0x00\n        /* \"contracts/ItemOwnership.sol\":3134:3146  itemDatabase */\n      0x01\n        /* \"contracts/ItemOwnership.sol\":3134:3158  itemDatabase[msg.sender] */\n      0x00\n        /* \"contracts/ItemOwnership.sol\":3147:3157  msg.sender */\n      caller\n        /* \"contracts/ItemOwnership.sol\":3134:3158  itemDatabase[msg.sender] */\n      0xffffffffffffffffffffffffffffffffffffffff\n      and\n      0xffffffffffffffffffffffffffffffffffffffff\n      and\n      dup2\n      mstore\n      0x20\n      add\n      swap1\n      dup2\n      mstore\n      0x20\n      add\n      0x00\n      keccak256\n        /* \"contracts/ItemOwnership.sol\":3134:3163  itemDatabase[msg.sender][_id] */\n      0x00\n        /* \"contracts/ItemOwnership.sol\":3159:3162  _id */\n      dup7\n        /* \"contracts/ItemOwnership.sol\":3134:3163  itemDatabase[msg.sender][_id] */\n      dup2\n      mstore\n      0x20\n      add\n      swap1\n      dup2\n      mstore\n      0x20\n      add\n      0x00\n      keccak256\n        /* \"contracts/ItemOwnership.sol\":3114:3163  Item storage item = itemDatabase[msg.sender][_id] */\n      swap1\n      pop\n        /* \"contracts/ItemOwnership.sol\":3186:3196  msg.sender */\n      caller\n        /* \"contracts/ItemOwnership.sol\":3173:3177  item */\n      dup2\n        /* \"contracts/ItemOwnership.sol\":3173:3183  item.owner */\n      0x00\n      add\n      0x00\n        /* \"contracts/ItemOwnership.sol\":3173:3196  item.owner = msg.sender */\n      0x0100\n      exp\n      dup2\n      sload\n      dup2\n      0xffffffffffffffffffffffffffffffffffffffff\n      mul\n      not\n      and\n      swap1\n      dup4\n      0xffffffffffffffffffffffffffffffffffffffff\n      and\n      mul\n      or\n      swap1\n      sstore\n      pop\n        /* \"contracts/ItemOwnership.sol\":3212:3221  uint256 i */\n      0x00\n        /* \"contracts/ItemOwnership.sol\":3207:3340  for (uint256 i = 0; i < _attributeKeys.length; i++) {... */\n    tag_49:\n        /* \"contracts/ItemOwnership.sol\":3231:3245  _attributeKeys */\n      dup5\n        /* \"contracts/ItemOwnership.sol\":3231:3252  _attributeKeys.length */\n      mload\n        /* \"contracts/ItemOwnership.sol\":3227:3228  i */\n      dup2\n        /* \"contracts/ItemOwnership.sol\":3227:3252  i < _attributeKeys.length */\n      lt\n        /* \"contracts/ItemOwnership.sol\":3207:3340  for (uint256 i = 0; i < _attributeKeys.length; i++) {... */\n      iszero\n      tag_50\n      jumpi\n        /* \"contracts/ItemOwnership.sol\":3310:3326  _attributeValues */\n      dup4\n        /* \"contracts/ItemOwnership.sol\":3327:3328  i */\n      dup2\n        /* \"contracts/ItemOwnership.sol\":3310:3329  _attributeValues[i] */\n      dup2\n      mload\n      dup2\n      lt\n      tag_52\n      jumpi\n      tag_53\n      tag_54\n      jump\t// in\n    tag_53:\n    tag_52:\n      0x20\n      mul\n      0x20\n      add\n      add\n      mload\n        /* \"contracts/ItemOwnership.sol\":3273:3277  item */\n      dup3\n        /* \"contracts/ItemOwnership.sol\":3273:3288  item.attributes */\n      0x01\n      add\n        /* \"contracts/ItemOwnership.sol\":3289:3303  _attributeKeys */\n      dup7\n        /* \"contracts/ItemOwnership.sol\":3304:3305  i */\n      dup4\n        /* \"contracts/ItemOwnership.sol\":3289:3306  _attributeKeys[i] */\n      dup2\n      mload\n      dup2\n      lt\n      tag_55\n      jumpi\n      tag_56\n      tag_54\n      jump\t// in\n    tag_56:\n    tag_55:\n      0x20\n      mul\n      0x20\n      add\n      add\n      mload\n        /* \"contracts/ItemOwnership.sol\":3273:3307  item.attributes[_attributeKeys[i]] */\n      mload(0x40)\n      tag_57\n      swap2\n      swap1\n      tag_58\n      jump\t// in\n    tag_57:\n      swap1\n      dup2\n      mstore\n      0x20\n      add\n      mload(0x40)\n      dup1\n      swap2\n      sub\n      swap1\n      keccak256\n        /* \"contracts/ItemOwnership.sol\":3273:3329  item.attributes[_attributeKeys[i]] = _attributeValues[i] */\n      swap1\n      dup2\n      tag_59\n      swap2\n      swap1\n      tag_60\n      jump\t// in\n    tag_59:\n      pop\n        /* \"contracts/ItemOwnership.sol\":3254:3257  i++ */\n      dup1\n      dup1\n      tag_61\n      swap1\n      tag_62\n      jump\t// in\n    tag_61:\n      swap2\n      pop\n      pop\n        /* \"contracts/ItemOwnership.sol\":3207:3340  for (uint256 i = 0; i < _attributeKeys.length; i++) {... */\n      jump(tag_49)\n    tag_50:\n      pop\n        /* \"contracts/ItemOwnership.sol\":3370:3384  _attributeKeys */\n      dup4\n        /* \"contracts/ItemOwnership.sol\":3349:3353  item */\n      dup2\n        /* \"contracts/ItemOwnership.sol\":3349:3367  item.attributeKeys */\n      0x02\n      add\n        /* \"contracts/ItemOwnership.sol\":3349:3384  item.attributeKeys = _attributeKeys */\n      swap1\n      dup1\n      mload\n      swap1\n      0x20\n      add\n      swap1\n      tag_63\n      swap3\n      swap2\n      swap1\n      tag_64\n      jump\t// in\n    tag_63:\n      pop\n        /* \"contracts/ItemOwnership.sol\":2942:3391  {... */\n      pop\n        /* \"contracts/ItemOwnership.sol\":2774:3391  function updateItemFromAddress(... */\n      pop\n      pop\n      pop\n      pop\n      jump\t// out\n        /* \"contracts/ItemOwnership.sol\":3397:3508  function getAmountOfItems() public view returns (uint256) {... */\n    tag_16:\n        /* \"contracts/ItemOwnership.sol\":3446:3453  uint256 */\n      0x00\n        /* \"contracts/ItemOwnership.sol\":3472:3482  itemIdList */\n      0x02\n        /* \"contracts/ItemOwnership.sol\":3472:3494  itemIdList[msg.sender] */\n      0x00\n        /* \"contracts/ItemOwnership.sol\":3483:3493  msg.sender */\n      caller\n        /* \"contracts/ItemOwnership.sol\":3472:3494  itemIdList[msg.sender] */\n      0xffffffffffffffffffffffffffffffffffffffff\n      and\n      0xffffffffffffffffffffffffffffffffffffffff\n      and\n      dup2\n      mstore\n      0x20\n      add\n      swap1\n      dup2\n      mstore\n      0x20\n      add\n      0x00\n      keccak256\n        /* \"contracts/ItemOwnership.sol\":3472:3501  itemIdList[msg.sender].length */\n      dup1\n      sload\n      swap1\n      pop\n        /* \"contracts/ItemOwnership.sol\":3465:3501  return itemIdList[msg.sender].length */\n      swap1\n      pop\n        /* \"contracts/ItemOwnership.sol\":3397:3508  function getAmountOfItems() public view returns (uint256) {... */\n      swap1\n      jump\t// out\n        /* \"contracts/ItemOwnership.sol\":3986:4450  function AddressHasItem(string memory searchKey, string memory value) public view returns(bool) {... */\n    tag_22:\n        /* \"contracts/ItemOwnership.sol\":4076:4080  bool */\n      0x00\n        /* \"contracts/ItemOwnership.sol\":4097:4106  uint256 i */\n      dup1\n        /* \"contracts/ItemOwnership.sol\":4109:4110  0 */\n      0x00\n        /* \"contracts/ItemOwnership.sol\":4097:4110  uint256 i = 0 */\n      swap1\n      pop\n        /* \"contracts/ItemOwnership.sol\":4092:4421  for (uint256 i = 0; i < itemIdList[msg.sender].length; i++) {... */\n    tag_67:\n        /* \"contracts/ItemOwnership.sol\":4116:4126  itemIdList */\n      0x02\n        /* \"contracts/ItemOwnership.sol\":4116:4138  itemIdList[msg.sender] */\n      0x00\n        /* \"contracts/ItemOwnership.sol\":4127:4137  msg.sender */\n      caller\n        /* \"contracts/ItemOwnership.sol\":4116:4138  itemIdList[msg.sender] */\n      0xffffffffffffffffffffffffffffffffffffffff\n      and\n      0xffffffffffffffffffffffffffffffffffffffff\n      and\n      dup2\n      mstore\n      0x20\n      add\n      swap1\n      dup2\n      mstore\n      0x20\n      add\n      0x00\n      keccak256\n        /* \"contracts/ItemOwnership.sol\":4116:4145  itemIdList[msg.sender].length */\n      dup1\n      sload\n      swap1\n      pop\n        /* \"contracts/ItemOwnership.sol\":4112:4113  i */\n      dup2\n        /* \"contracts/ItemOwnership.sol\":4112:4145  i < itemIdList[msg.sender].length */\n      lt\n        /* \"contracts/ItemOwnership.sol\":4092:4421  for (uint256 i = 0; i < itemIdList[msg.sender].length; i++) {... */\n      iszero\n      tag_68\n      jumpi\n        /* \"contracts/ItemOwnership.sol\":4166:4194  string memory foundAttribute */\n      0x00\n        /* \"contracts/ItemOwnership.sol\":4197:4209  itemDatabase */\n      0x01\n        /* \"contracts/ItemOwnership.sol\":4197:4221  itemDatabase[msg.sender] */\n      0x00\n        /* \"contracts/ItemOwnership.sol\":4210:4220  msg.sender */\n      caller\n        /* \"contracts/ItemOwnership.sol\":4197:4221  itemDatabase[msg.sender] */\n      0xffffffffffffffffffffffffffffffffffffffff\n      and\n      0xffffffffffffffffffffffffffffffffffffffff\n      and\n      dup2\n      mstore\n      0x20\n      add\n      swap1\n      dup2\n      mstore\n      0x20\n      add\n      0x00\n      keccak256\n        /* \"contracts/ItemOwnership.sol\":4197:4248  itemDatabase[msg.sender][itemIdList[msg.sender][i]] */\n      0x00\n        /* \"contracts/ItemOwnership.sol\":4222:4232  itemIdList */\n      0x02\n        /* \"contracts/ItemOwnership.sol\":4222:4244  itemIdList[msg.sender] */\n      0x00\n        /* \"contracts/ItemOwnership.sol\":4233:4243  msg.sender */\n      caller\n        /* \"contracts/ItemOwnership.sol\":4222:4244  itemIdList[msg.sender] */\n      0xffffffffffffffffffffffffffffffffffffffff\n      and\n      0xffffffffffffffffffffffffffffffffffffffff\n      and\n      dup2\n      mstore\n      0x20\n      add\n      swap1\n      dup2\n      mstore\n      0x20\n      add\n      0x00\n      keccak256\n        /* \"contracts/ItemOwnership.sol\":4245:4246  i */\n      dup5\n        /* \"contracts/ItemOwnership.sol\":4222:4247  itemIdList[msg.sender][i] */\n      dup2\n      sload\n      dup2\n      lt\n      tag_70\n      jumpi\n      tag_71\n      tag_54\n      jump\t// in\n    tag_71:\n    tag_70:\n      swap1\n      0x00\n      mstore\n      keccak256(0x00, 0x20)\n      add\n      sload\n        /* \"contracts/ItemOwnership.sol\":4197:4248  itemDatabase[msg.sender][itemIdList[msg.sender][i]] */\n      dup2\n      mstore\n      0x20\n      add\n      swap1\n      dup2\n      mstore\n      0x20\n      add\n      0x00\n      keccak256\n        /* \"contracts/ItemOwnership.sol\":4197:4259  itemDatabase[msg.sender][itemIdList[msg.sender][i]].attributes */\n      0x01\n      add\n        /* \"contracts/ItemOwnership.sol\":4260:4269  searchKey */\n      dup6\n        /* \"contracts/ItemOwnership.sol\":4197:4270  itemDatabase[msg.sender][itemIdList[msg.sender][i]].attributes[searchKey] */\n      mload(0x40)\n      tag_73\n      swap2\n      swap1\n      tag_58\n      jump\t// in\n    tag_73:\n      swap1\n      dup2\n      mstore\n      0x20\n      add\n      mload(0x40)\n      dup1\n      swap2\n      sub\n      swap1\n      keccak256\n        /* \"contracts/ItemOwnership.sol\":4166:4270  string memory foundAttribute = itemDatabase[msg.sender][itemIdList[msg.sender][i]].attributes[searchKey] */\n      dup1\n      sload\n      tag_74\n      swap1\n      tag_75\n      jump\t// in\n    tag_74:\n      dup1\n      0x1f\n      add\n      0x20\n      dup1\n      swap2\n      div\n      mul\n      0x20\n      add\n      mload(0x40)\n      swap1\n      dup2\n      add\n      0x40\n      mstore\n      dup1\n      swap3\n      swap2\n      swap1\n      dup2\n      dup2\n      mstore\n      0x20\n      add\n      dup3\n      dup1\n      sload\n      tag_76\n      swap1\n      tag_75\n      jump\t// in\n    tag_76:\n      dup1\n      iszero\n      tag_77\n      jumpi\n      dup1\n      0x1f\n      lt\n      tag_78\n      jumpi\n      0x0100\n      dup1\n      dup4\n      sload\n      div\n      mul\n      dup4\n      mstore\n      swap2\n      0x20\n      add\n      swap2\n      jump(tag_77)\n    tag_78:\n      dup3\n      add\n      swap2\n      swap1\n      0x00\n      mstore\n      keccak256(0x00, 0x20)\n      swap1\n    tag_79:\n      dup2\n      sload\n      dup2\n      mstore\n      swap1\n      0x01\n      add\n      swap1\n      0x20\n      add\n      dup1\n      dup4\n      gt\n      tag_79\n      jumpi\n      dup3\n      swap1\n      sub\n      0x1f\n      and\n      dup3\n      add\n      swap2\n    tag_77:\n      pop\n      pop\n      pop\n      pop\n      pop\n      swap1\n      pop\n        /* \"contracts/ItemOwnership.sol\":4374:4379  value */\n      dup4\n        /* \"contracts/ItemOwnership.sol\":4357:4380  abi.encodePacked(value) */\n      add(0x20, mload(0x40))\n      tag_80\n      swap2\n      swap1\n      tag_58\n      jump\t// in\n    tag_80:\n      mload(0x40)\n      0x20\n      dup2\n      dup4\n      sub\n      sub\n      dup2\n      mstore\n      swap1\n      0x40\n      mstore\n        /* \"contracts/ItemOwnership.sol\":4347:4381  keccak256(abi.encodePacked(value)) */\n      dup1\n      mload\n      swap1\n      0x20\n      add\n      keccak256\n        /* \"contracts/ItemOwnership.sol\":4327:4341  foundAttribute */\n      dup2\n        /* \"contracts/ItemOwnership.sol\":4310:4342  abi.encodePacked(foundAttribute) */\n      add(0x20, mload(0x40))\n      tag_81\n      swap2\n      swap1\n      tag_58\n      jump\t// in\n    tag_81:\n      mload(0x40)\n      0x20\n      dup2\n      dup4\n      sub\n      sub\n      dup2\n      mstore\n      swap1\n      0x40\n      mstore\n        /* \"contracts/ItemOwnership.sol\":4300:4343  keccak256(abi.encodePacked(foundAttribute)) */\n      dup1\n      mload\n      swap1\n      0x20\n      add\n      keccak256\n        /* \"contracts/ItemOwnership.sol\":4300:4381  keccak256(abi.encodePacked(foundAttribute)) == keccak256(abi.encodePacked(value)) */\n      sub\n        /* \"contracts/ItemOwnership.sol\":4297:4410  if(keccak256(abi.encodePacked(foundAttribute)) == keccak256(abi.encodePacked(value)))... */\n      tag_82\n      jumpi\n        /* \"contracts/ItemOwnership.sol\":4406:4410  true */\n      0x01\n        /* \"contracts/ItemOwnership.sol\":4399:4410  return true */\n      swap3\n      pop\n      pop\n      pop\n      jump(tag_66)\n        /* \"contracts/ItemOwnership.sol\":4297:4410  if(keccak256(abi.encodePacked(foundAttribute)) == keccak256(abi.encodePacked(value)))... */\n    tag_82:\n        /* \"contracts/ItemOwnership.sol\":4152:4421  {... */\n      pop\n        /* \"contracts/ItemOwnership.sol\":4147:4150  i++ */\n      dup1\n      dup1\n      tag_83\n      swap1\n      tag_62\n      jump\t// in\n    tag_83:\n      swap2\n      pop\n      pop\n        /* \"contracts/ItemOwnership.sol\":4092:4421  for (uint256 i = 0; i < itemIdList[msg.sender].length; i++) {... */\n      jump(tag_67)\n    tag_68:\n      pop\n        /* \"contracts/ItemOwnership.sol\":4438:4443  false */\n      0x00\n        /* \"contracts/ItemOwnership.sol\":4431:4443  return false */\n      swap1\n      pop\n        /* \"contracts/ItemOwnership.sol\":3986:4450  function AddressHasItem(string memory searchKey, string memory value) public view returns(bool) {... */\n    tag_66:\n      swap3\n      swap2\n      pop\n      pop\n      jump\t// out\n        /* \"contracts/ItemOwnership.sol\":1152:1817  function addItemToAdress(... */\n    tag_27:\n        /* \"contracts/ItemOwnership.sol\":1309:1312  _id */\n      dup3\n        /* \"contracts/ItemOwnership.sol\":946:956  msg.sender */\n      caller\n        /* \"contracts/ItemOwnership.sol\":907:956  itemDatabase[msg.sender][_id].owner != msg.sender */\n      0xffffffffffffffffffffffffffffffffffffffff\n      and\n        /* \"contracts/ItemOwnership.sol\":907:919  itemDatabase */\n      0x01\n        /* \"contracts/ItemOwnership.sol\":907:931  itemDatabase[msg.sender] */\n      0x00\n        /* \"contracts/ItemOwnership.sol\":920:930  msg.sender */\n      caller\n        /* \"contracts/ItemOwnership.sol\":907:931  itemDatabase[msg.sender] */\n      0xffffffffffffffffffffffffffffffffffffffff\n      and\n      0xffffffffffffffffffffffffffffffffffffffff\n      and\n      dup2\n      mstore\n      0x20\n      add\n      swap1\n      dup2\n      mstore\n      0x20\n      add\n      0x00\n      keccak256\n        /* \"contracts/ItemOwnership.sol\":907:936  itemDatabase[msg.sender][_id] */\n      0x00\n        /* \"contracts/ItemOwnership.sol\":932:935  _id */\n      dup4\n        /* \"contracts/ItemOwnership.sol\":907:936  itemDatabase[msg.sender][_id] */\n      dup2\n      mstore\n      0x20\n      add\n      swap1\n      dup2\n      mstore\n      0x20\n      add\n      0x00\n      keccak256\n        /* \"contracts/ItemOwnership.sol\":907:942  itemDatabase[msg.sender][_id].owner */\n      0x00\n      add\n      0x00\n      swap1\n      sload\n      swap1\n      0x0100\n      exp\n      swap1\n      div\n      0xffffffffffffffffffffffffffffffffffffffff\n      and\n        /* \"contracts/ItemOwnership.sol\":907:956  itemDatabase[msg.sender][_id].owner != msg.sender */\n      0xffffffffffffffffffffffffffffffffffffffff\n      and\n      sub\n        /* \"contracts/ItemOwnership.sol\":886:1006  require(... */\n      tag_85\n      jumpi\n      mload(0x40)\n      0x08c379a000000000000000000000000000000000000000000000000000000000\n      dup2\n      mstore\n      0x04\n      add\n      tag_86\n      swap1\n      tag_87\n      jump\t// in\n    tag_86:\n      mload(0x40)\n      dup1\n      swap2\n      sub\n      swap1\n      revert\n    tag_85:\n        /* \"contracts/ItemOwnership.sol\":1370:1386  _attributeValues */\n      dup2\n        /* \"contracts/ItemOwnership.sol\":1370:1393  _attributeValues.length */\n      mload\n        /* \"contracts/ItemOwnership.sol\":1345:1359  _attributeKeys */\n      dup4\n        /* \"contracts/ItemOwnership.sol\":1345:1366  _attributeKeys.length */\n      mload\n        /* \"contracts/ItemOwnership.sol\":1345:1393  _attributeKeys.length == _attributeValues.length */\n      eq\n        /* \"contracts/ItemOwnership.sol\":1324:1475  require(... */\n      tag_89\n      jumpi\n      mload(0x40)\n      0x08c379a000000000000000000000000000000000000000000000000000000000\n      dup2\n      mstore\n      0x04\n      add\n      tag_90\n      swap1\n      tag_48\n      jump\t// in\n    tag_90:\n      mload(0x40)\n      dup1\n      swap2\n      sub\n      swap1\n      revert\n    tag_89:\n        /* \"contracts/ItemOwnership.sol\":1486:1506  Item storage newItem */\n      0x00\n        /* \"contracts/ItemOwnership.sol\":1509:1521  itemDatabase */\n      0x01\n        /* \"contracts/ItemOwnership.sol\":1509:1533  itemDatabase[msg.sender] */\n      0x00\n        /* \"contracts/ItemOwnership.sol\":1522:1532  msg.sender */\n      caller\n        /* \"contracts/ItemOwnership.sol\":1509:1533  itemDatabase[msg.sender] */\n      0xffffffffffffffffffffffffffffffffffffffff\n      and\n      0xffffffffffffffffffffffffffffffffffffffff\n      and\n      dup2\n      mstore\n      0x20\n      add\n      swap1\n      dup2\n      mstore\n      0x20\n      add\n      0x00\n      keccak256\n        /* \"contracts/ItemOwnership.sol\":1509:1538  itemDatabase[msg.sender][_id] */\n      0x00\n        /* \"contracts/ItemOwnership.sol\":1534:1537  _id */\n      dup7\n        /* \"contracts/ItemOwnership.sol\":1509:1538  itemDatabase[msg.sender][_id] */\n      dup2\n      mstore\n      0x20\n      add\n      swap1\n      dup2\n      mstore\n      0x20\n      add\n      0x00\n      keccak256\n        /* \"contracts/ItemOwnership.sol\":1486:1538  Item storage newItem = itemDatabase[msg.sender][_id] */\n      swap1\n      pop\n        /* \"contracts/ItemOwnership.sol\":1564:1574  msg.sender */\n      caller\n        /* \"contracts/ItemOwnership.sol\":1548:1555  newItem */\n      dup2\n        /* \"contracts/ItemOwnership.sol\":1548:1561  newItem.owner */\n      0x00\n      add\n      0x00\n        /* \"contracts/ItemOwnership.sol\":1548:1574  newItem.owner = msg.sender */\n      0x0100\n      exp\n      dup2\n      sload\n      dup2\n      0xffffffffffffffffffffffffffffffffffffffff\n      mul\n      not\n      and\n      swap1\n      dup4\n      0xffffffffffffffffffffffffffffffffffffffff\n      and\n      mul\n      or\n      swap1\n      sstore\n      pop\n        /* \"contracts/ItemOwnership.sol\":1590:1599  uint256 i */\n      0x00\n        /* \"contracts/ItemOwnership.sol\":1585:1721  for (uint256 i = 0; i < _attributeKeys.length; i++) {... */\n    tag_91:\n        /* \"contracts/ItemOwnership.sol\":1609:1623  _attributeKeys */\n      dup5\n        /* \"contracts/ItemOwnership.sol\":1609:1630  _attributeKeys.length */\n      mload\n        /* \"contracts/ItemOwnership.sol\":1605:1606  i */\n      dup2\n        /* \"contracts/ItemOwnership.sol\":1605:1630  i < _attributeKeys.length */\n      lt\n        /* \"contracts/ItemOwnership.sol\":1585:1721  for (uint256 i = 0; i < _attributeKeys.length; i++) {... */\n      iszero\n      tag_92\n      jumpi\n        /* \"contracts/ItemOwnership.sol\":1691:1707  _attributeValues */\n      dup4\n        /* \"contracts/ItemOwnership.sol\":1708:1709  i */\n      dup2\n        /* \"contracts/ItemOwnership.sol\":1691:1710  _attributeValues[i] */\n      dup2\n      mload\n      dup2\n      lt\n      tag_94\n      jumpi\n      tag_95\n      tag_54\n      jump\t// in\n    tag_95:\n    tag_94:\n      0x20\n      mul\n      0x20\n      add\n      add\n      mload\n        /* \"contracts/ItemOwnership.sol\":1651:1658  newItem */\n      dup3\n        /* \"contracts/ItemOwnership.sol\":1651:1669  newItem.attributes */\n      0x01\n      add\n        /* \"contracts/ItemOwnership.sol\":1670:1684  _attributeKeys */\n      dup7\n        /* \"contracts/ItemOwnership.sol\":1685:1686  i */\n      dup4\n        /* \"contracts/ItemOwnership.sol\":1670:1687  _attributeKeys[i] */\n      dup2\n      mload\n      dup2\n      lt\n      tag_96\n      jumpi\n      tag_97\n      tag_54\n      jump\t// in\n    tag_97:\n    tag_96:\n      0x20\n      mul\n      0x20\n      add\n      add\n      mload\n        /* \"contracts/ItemOwnership.sol\":1651:1688  newItem.attributes[_attributeKeys[i]] */\n      mload(0x40)\n      tag_98\n      swap2\n      swap1\n      tag_58\n      jump\t// in\n    tag_98:\n      swap1\n      dup2\n      mstore\n      0x20\n      add\n      mload(0x40)\n      dup1\n      swap2\n      sub\n      swap1\n      keccak256\n        /* \"contracts/ItemOwnership.sol\":1651:1710  newItem.attributes[_attributeKeys[i]] = _attributeValues[i] */\n      swap1\n      dup2\n      tag_99\n      swap2\n      swap1\n      tag_60\n      jump\t// in\n    tag_99:\n      pop\n        /* \"contracts/ItemOwnership.sol\":1632:1635  i++ */\n      dup1\n      dup1\n      tag_100\n      swap1\n      tag_62\n      jump\t// in\n    tag_100:\n      swap2\n      pop\n      pop\n        /* \"contracts/ItemOwnership.sol\":1585:1721  for (uint256 i = 0; i < _attributeKeys.length; i++) {... */\n      jump(tag_91)\n    tag_92:\n      pop\n        /* \"contracts/ItemOwnership.sol\":1754:1768  _attributeKeys */\n      dup4\n        /* \"contracts/ItemOwnership.sol\":1730:1737  newItem */\n      dup2\n        /* \"contracts/ItemOwnership.sol\":1730:1751  newItem.attributeKeys */\n      0x02\n      add\n        /* \"contracts/ItemOwnership.sol\":1730:1768  newItem.attributeKeys = _attributeKeys */\n      swap1\n      dup1\n      mload\n      swap1\n      0x20\n      add\n      swap1\n      tag_101\n      swap3\n      swap2\n      swap1\n      tag_64\n      jump\t// in\n    tag_101:\n      pop\n        /* \"contracts/ItemOwnership.sol\":1778:1788  itemIdList */\n      0x02\n        /* \"contracts/ItemOwnership.sol\":1778:1800  itemIdList[msg.sender] */\n      0x00\n        /* \"contracts/ItemOwnership.sol\":1789:1799  msg.sender */\n      caller\n        /* \"contracts/ItemOwnership.sol\":1778:1800  itemIdList[msg.sender] */\n      0xffffffffffffffffffffffffffffffffffffffff\n      and\n      0xffffffffffffffffffffffffffffffffffffffff\n      and\n      dup2\n      mstore\n      0x20\n      add\n      swap1\n      dup2\n      mstore\n      0x20\n      add\n      0x00\n      keccak256\n        /* \"contracts/ItemOwnership.sol\":1806:1809  _id */\n      dup6\n        /* \"contracts/ItemOwnership.sol\":1778:1810  itemIdList[msg.sender].push(_id) */\n      swap1\n      dup1\n      0x01\n      dup2\n      sload\n      add\n      dup1\n      dup3\n      sstore\n      dup1\n      swap2\n      pop\n      pop\n      0x01\n      swap1\n      sub\n      swap1\n      0x00\n      mstore\n      keccak256(0x00, 0x20)\n      add\n      0x00\n      swap1\n      swap2\n      swap1\n      swap2\n      swap1\n      swap2\n      pop\n      sstore\n        /* \"contracts/ItemOwnership.sol\":1314:1817  {... */\n      pop\n        /* \"contracts/ItemOwnership.sol\":1152:1817  function addItemToAdress(... */\n      pop\n      pop\n      pop\n      pop\n      jump\t// out\n        /* \"contracts/ItemOwnership.sol\":1823:2356  function getAttributesOfItemByID(uint256 _id)... */\n    tag_31:\n        /* \"contracts/ItemOwnership.sol\":1943:1958  string[] memory */\n      0x60\n        /* \"contracts/ItemOwnership.sol\":1960:1975  string[] memory */\n      dup1\n        /* \"contracts/ItemOwnership.sol\":1921:1924  _id */\n      dup3\n        /* \"contracts/ItemOwnership.sol\":754:764  msg.sender */\n      caller\n        /* \"contracts/ItemOwnership.sol\":715:764  itemDatabase[msg.sender][_id].owner == msg.sender */\n      0xffffffffffffffffffffffffffffffffffffffff\n      and\n        /* \"contracts/ItemOwnership.sol\":715:727  itemDatabase */\n      0x01\n        /* \"contracts/ItemOwnership.sol\":715:739  itemDatabase[msg.sender] */\n      0x00\n        /* \"contracts/ItemOwnership.sol\":728:738  msg.sender */\n      caller\n        /* \"contracts/ItemOwnership.sol\":715:739  itemDatabase[msg.sender] */\n      0xffffffffffffffffffffffffffffffffffffffff\n      and\n      0xffffffffffffffffffffffffffffffffffffffff\n      and\n      dup2\n      mstore\n      0x20\n      add\n      swap1\n      dup2\n      mstore\n      0x20\n      add\n      0x00\n      keccak256\n        /* \"contracts/ItemOwnership.sol\":715:744  itemDatabase[msg.sender][_id] */\n      0x00\n        /* \"contracts/ItemOwnership.sol\":740:743  _id */\n      dup4\n        /* \"contracts/ItemOwnership.sol\":715:744  itemDatabase[msg.sender][_id] */\n      dup2\n      mstore\n      0x20\n      add\n      swap1\n      dup2\n      mstore\n      0x20\n      add\n      0x00\n      keccak256\n        /* \"contracts/ItemOwnership.sol\":715:750  itemDatabase[msg.sender][_id].owner */\n      0x00\n      add\n      0x00\n      swap1\n      sload\n      swap1\n      0x0100\n      exp\n      swap1\n      div\n      0xffffffffffffffffffffffffffffffffffffffff\n      and\n        /* \"contracts/ItemOwnership.sol\":715:764  itemDatabase[msg.sender][_id].owner == msg.sender */\n      0xffffffffffffffffffffffffffffffffffffffff\n      and\n      eq\n        /* \"contracts/ItemOwnership.sol\":694:814  require(... */\n      tag_104\n      jumpi\n      mload(0x40)\n      0x08c379a000000000000000000000000000000000000000000000000000000000\n      dup2\n      mstore\n      0x04\n      add\n      tag_105\n      swap1\n      tag_44\n      jump\t// in\n    tag_105:\n      mload(0x40)\n      dup1\n      swap2\n      sub\n      swap1\n      revert\n    tag_104:\n        /* \"contracts/ItemOwnership.sol\":1991:2008  Item storage item */\n      0x00\n        /* \"contracts/ItemOwnership.sol\":2011:2023  itemDatabase */\n      0x01\n        /* \"contracts/ItemOwnership.sol\":2011:2035  itemDatabase[msg.sender] */\n      0x00\n        /* \"contracts/ItemOwnership.sol\":2024:2034  msg.sender */\n      caller\n        /* \"contracts/ItemOwnership.sol\":2011:2035  itemDatabase[msg.sender] */\n      0xffffffffffffffffffffffffffffffffffffffff\n      and\n      0xffffffffffffffffffffffffffffffffffffffff\n      and\n      dup2\n      mstore\n      0x20\n      add\n      swap1\n      dup2\n      mstore\n      0x20\n      add\n      0x00\n      keccak256\n        /* \"contracts/ItemOwnership.sol\":2011:2040  itemDatabase[msg.sender][_id] */\n      0x00\n        /* \"contracts/ItemOwnership.sol\":2036:2039  _id */\n      dup7\n        /* \"contracts/ItemOwnership.sol\":2011:2040  itemDatabase[msg.sender][_id] */\n      dup2\n      mstore\n      0x20\n      add\n      swap1\n      dup2\n      mstore\n      0x20\n      add\n      0x00\n      keccak256\n        /* \"contracts/ItemOwnership.sol\":1991:2040  Item storage item = itemDatabase[msg.sender][_id] */\n      swap1\n      pop\n        /* \"contracts/ItemOwnership.sol\":2050:2081  string[] memory attributeValues */\n      0x00\n        /* \"contracts/ItemOwnership.sol\":2110:2114  item */\n      dup2\n        /* \"contracts/ItemOwnership.sol\":2110:2128  item.attributeKeys */\n      0x02\n      add\n        /* \"contracts/ItemOwnership.sol\":2110:2135  item.attributeKeys.length */\n      dup1\n      sload\n      swap1\n      pop\n        /* \"contracts/ItemOwnership.sol\":2084:2145  new string[](... */\n      0xffffffffffffffff\n      dup2\n      gt\n      iszero\n      tag_107\n      jumpi\n      tag_108\n      tag_109\n      jump\t// in\n    tag_108:\n    tag_107:\n      mload(0x40)\n      swap1\n      dup1\n      dup3\n      mstore\n      dup1\n      0x20\n      mul\n      0x20\n      add\n      dup3\n      add\n      0x40\n      mstore\n      dup1\n      iszero\n      tag_110\n      jumpi\n      dup2\n      0x20\n      add\n    tag_111:\n      0x60\n      dup2\n      mstore\n      0x20\n      add\n      swap1\n      0x01\n      swap1\n      sub\n      swap1\n      dup2\n      tag_111\n      jumpi\n      swap1\n      pop\n    tag_110:\n      pop\n        /* \"contracts/ItemOwnership.sol\":2050:2145  string[] memory attributeValues = new string[](... */\n      swap1\n      pop\n        /* \"contracts/ItemOwnership.sol\":2161:2170  uint256 i */\n      0x00\n        /* \"contracts/ItemOwnership.sol\":2156:2296  for (uint256 i = 0; i < item.attributeKeys.length; i++) {... */\n    tag_112:\n        /* \"contracts/ItemOwnership.sol\":2180:2184  item */\n      dup3\n        /* \"contracts/ItemOwnership.sol\":2180:2198  item.attributeKeys */\n      0x02\n      add\n        /* \"contracts/ItemOwnership.sol\":2180:2205  item.attributeKeys.length */\n      dup1\n      sload\n      swap1\n      pop\n        /* \"contracts/ItemOwnership.sol\":2176:2177  i */\n      dup2\n        /* \"contracts/ItemOwnership.sol\":2176:2205  i < item.attributeKeys.length */\n      lt\n        /* \"contracts/ItemOwnership.sol\":2156:2296  for (uint256 i = 0; i < item.attributeKeys.length; i++) {... */\n      iszero\n      tag_113\n      jumpi\n        /* \"contracts/ItemOwnership.sol\":2247:2251  item */\n      dup3\n        /* \"contracts/ItemOwnership.sol\":2247:2262  item.attributes */\n      0x01\n      add\n        /* \"contracts/ItemOwnership.sol\":2263:2267  item */\n      dup4\n        /* \"contracts/ItemOwnership.sol\":2263:2281  item.attributeKeys */\n      0x02\n      add\n        /* \"contracts/ItemOwnership.sol\":2282:2283  i */\n      dup3\n        /* \"contracts/ItemOwnership.sol\":2263:2284  item.attributeKeys[i] */\n      dup2\n      sload\n      dup2\n      lt\n      tag_115\n      jumpi\n      tag_116\n      tag_54\n      jump\t// in\n    tag_116:\n    tag_115:\n      swap1\n      0x00\n      mstore\n      keccak256(0x00, 0x20)\n      add\n        /* \"contracts/ItemOwnership.sol\":2247:2285  item.attributes[item.attributeKeys[i]] */\n      mload(0x40)\n      tag_118\n      swap2\n      swap1\n      tag_119\n      jump\t// in\n    tag_118:\n      swap1\n      dup2\n      mstore\n      0x20\n      add\n      mload(0x40)\n      dup1\n      swap2\n      sub\n      swap1\n      keccak256\n        /* \"contracts/ItemOwnership.sol\":2226:2285  attributeValues[i] = item.attributes[item.attributeKeys[i]] */\n      dup1\n      sload\n      tag_120\n      swap1\n      tag_75\n      jump\t// in\n    tag_120:\n      dup1\n      0x1f\n      add\n      0x20\n      dup1\n      swap2\n      div\n      mul\n      0x20\n      add\n      mload(0x40)\n      swap1\n      dup2\n      add\n      0x40\n      mstore\n      dup1\n      swap3\n      swap2\n      swap1\n      dup2\n      dup2\n      mstore\n      0x20\n      add\n      dup3\n      dup1\n      sload\n      tag_121\n      swap1\n      tag_75\n      jump\t// in\n    tag_121:\n      dup1\n      iszero\n      tag_122\n      jumpi\n      dup1\n      0x1f\n      lt\n      tag_123\n      jumpi\n      0x0100\n      dup1\n      dup4\n      sload\n      div\n      mul\n      dup4\n      mstore\n      swap2\n      0x20\n      add\n      swap2\n      jump(tag_122)\n    tag_123:\n      dup3\n      add\n      swap2\n      swap1\n      0x00\n      mstore\n      keccak256(0x00, 0x20)\n      swap1\n    tag_124:\n      dup2\n      sload\n      dup2\n      mstore\n      swap1\n      0x01\n      add\n      swap1\n      0x20\n      add\n      dup1\n      dup4\n      gt\n      tag_124\n      jumpi\n      dup3\n      swap1\n      sub\n      0x1f\n      and\n      dup3\n      add\n      swap2\n    tag_122:\n      pop\n      pop\n      pop\n      pop\n      pop\n        /* \"contracts/ItemOwnership.sol\":2226:2241  attributeValues */\n      dup3\n        /* \"contracts/ItemOwnership.sol\":2242:2243  i */\n      dup3\n        /* \"contracts/ItemOwnership.sol\":2226:2244  attributeValues[i] */\n      dup2\n      mload\n      dup2\n      lt\n      tag_125\n      jumpi\n      tag_126\n      tag_54\n      jump\t// in\n    tag_126:\n    tag_125:\n      0x20\n      mul\n      0x20\n      add\n      add\n        /* \"contracts/ItemOwnership.sol\":2226:2285  attributeValues[i] = item.attributes[item.attributeKeys[i]] */\n      dup2\n      swap1\n      mstore\n      pop\n        /* \"contracts/ItemOwnership.sol\":2207:2210  i++ */\n      dup1\n      dup1\n      tag_127\n      swap1\n      tag_62\n      jump\t// in\n    tag_127:\n      swap2\n      pop\n      pop\n        /* \"contracts/ItemOwnership.sol\":2156:2296  for (uint256 i = 0; i < item.attributeKeys.length; i++) {... */\n      jump(tag_112)\n    tag_113:\n      pop\n        /* \"contracts/ItemOwnership.sol\":2313:2317  item */\n      dup2\n        /* \"contracts/ItemOwnership.sol\":2313:2331  item.attributeKeys */\n      0x02\n      add\n        /* \"contracts/ItemOwnership.sol\":2333:2348  attributeValues */\n      dup2\n        /* \"contracts/ItemOwnership.sol\":2305:2349  return (item.attributeKeys, attributeValues) */\n      dup2\n      dup1\n      sload\n      dup1\n      0x20\n      mul\n      0x20\n      add\n      mload(0x40)\n      swap1\n      dup2\n      add\n      0x40\n      mstore\n      dup1\n      swap3\n      swap2\n      swap1\n      dup2\n      dup2\n      mstore\n      0x20\n      add\n      0x00\n      swap1\n    tag_128:\n      dup3\n      dup3\n      lt\n      iszero\n      tag_129\n      jumpi\n      dup4\n      dup3\n      swap1\n      0x00\n      mstore\n      keccak256(0x00, 0x20)\n      add\n      dup1\n      sload\n      tag_131\n      swap1\n      tag_75\n      jump\t// in\n    tag_131:\n      dup1\n      0x1f\n      add\n      0x20\n      dup1\n      swap2\n      div\n      mul\n      0x20\n      add\n      mload(0x40)\n      swap1\n      dup2\n      add\n      0x40\n      mstore\n      dup1\n      swap3\n      swap2\n      swap1\n      dup2\n      dup2\n      mstore\n      0x20\n      add\n      dup3\n      dup1\n      sload\n      tag_132\n      swap1\n      tag_75\n      jump\t// in\n    tag_132:\n      dup1\n      iszero\n      tag_133\n      jumpi\n      dup1\n      0x1f\n      lt\n      tag_134\n      jumpi\n      0x0100\n      dup1\n      dup4\n      sload\n      div\n      mul\n      dup4\n      mstore\n      swap2\n      0x20\n      add\n      swap2\n      jump(tag_133)\n    tag_134:\n      dup3\n      add\n      swap2\n      swap1\n      0x00\n      mstore\n      keccak256(0x00, 0x20)\n      swap1\n    tag_135:\n      dup2\n      sload\n      dup2\n      mstore\n      swap1\n      0x01\n      add\n      swap1\n      0x20\n      add\n      dup1\n      dup4\n      gt\n      tag_135\n      jumpi\n      dup3\n      swap1\n      sub\n      0x1f\n      and\n      dup3\n      add\n      swap2\n    tag_133:\n      pop\n      pop\n      pop\n      pop\n      pop\n      dup2\n      mstore\n      0x20\n      add\n      swap1\n      0x01\n      add\n      swap1\n      jump(tag_128)\n    tag_129:\n      pop\n      pop\n      pop\n      pop\n      swap2\n      pop\n      swap5\n      pop\n      swap5\n      pop\n      pop\n      pop\n        /* \"contracts/ItemOwnership.sol\":1823:2356  function getAttributesOfItemByID(uint256 _id)... */\n      pop\n      swap2\n      pop\n      swap2\n      jump\t// out\n        /* \"contracts/ItemOwnership.sol\":2362:2768  function removeItemFromAddress(uint256 _id) public itemIsAvailable(_id) {... */\n    tag_36:\n        /* \"contracts/ItemOwnership.sol\":2429:2432  _id */\n      dup1\n        /* \"contracts/ItemOwnership.sol\":754:764  msg.sender */\n      caller\n        /* \"contracts/ItemOwnership.sol\":715:764  itemDatabase[msg.sender][_id].owner == msg.sender */\n      0xffffffffffffffffffffffffffffffffffffffff\n      and\n        /* \"contracts/ItemOwnership.sol\":715:727  itemDatabase */\n      0x01\n        /* \"contracts/ItemOwnership.sol\":715:739  itemDatabase[msg.sender] */\n      0x00\n        /* \"contracts/ItemOwnership.sol\":728:738  msg.sender */\n      caller\n        /* \"contracts/ItemOwnership.sol\":715:739  itemDatabase[msg.sender] */\n      0xffffffffffffffffffffffffffffffffffffffff\n      and\n      0xffffffffffffffffffffffffffffffffffffffff\n      and\n      dup2\n      mstore\n      0x20\n      add\n      swap1\n      dup2\n      mstore\n      0x20\n      add\n      0x00\n      keccak256\n        /* \"contracts/ItemOwnership.sol\":715:744  itemDatabase[msg.sender][_id] */\n      0x00\n        /* \"contracts/ItemOwnership.sol\":740:743  _id */\n      dup4\n        /* \"contracts/ItemOwnership.sol\":715:744  itemDatabase[msg.sender][_id] */\n      dup2\n      mstore\n      0x20\n      add\n      swap1\n      dup2\n      mstore\n      0x20\n      add\n      0x00\n      keccak256\n        /* \"contracts/ItemOwnership.sol\":715:750  itemDatabase[msg.sender][_id].owner */\n      0x00\n      add\n      0x00\n      swap1\n      sload\n      swap1\n      0x0100\n      exp\n      swap1\n      div\n      0xffffffffffffffffffffffffffffffffffffffff\n      and\n        /* \"contracts/ItemOwnership.sol\":715:764  itemDatabase[msg.sender][_id].owner == msg.sender */\n      0xffffffffffffffffffffffffffffffffffffffff\n      and\n      eq\n        /* \"contracts/ItemOwnership.sol\":694:814  require(... */\n      tag_137\n      jumpi\n      mload(0x40)\n      0x08c379a000000000000000000000000000000000000000000000000000000000\n      dup2\n      mstore\n      0x04\n      add\n      tag_138\n      swap1\n      tag_44\n      jump\t// in\n    tag_138:\n      mload(0x40)\n      dup1\n      swap2\n      sub\n      swap1\n      revert\n    tag_137:\n        /* \"contracts/ItemOwnership.sol\":2449:2458  uint256 i */\n      0x00\n        /* \"contracts/ItemOwnership.sol\":2444:2715  for (uint256 i = 0; i < itemIdList[msg.sender].length; i++) {... */\n    tag_140:\n        /* \"contracts/ItemOwnership.sol\":2468:2478  itemIdList */\n      0x02\n        /* \"contracts/ItemOwnership.sol\":2468:2490  itemIdList[msg.sender] */\n      0x00\n        /* \"contracts/ItemOwnership.sol\":2479:2489  msg.sender */\n      caller\n        /* \"contracts/ItemOwnership.sol\":2468:2490  itemIdList[msg.sender] */\n      0xffffffffffffffffffffffffffffffffffffffff\n      and\n      0xffffffffffffffffffffffffffffffffffffffff\n      and\n      dup2\n      mstore\n      0x20\n      add\n      swap1\n      dup2\n      mstore\n      0x20\n      add\n      0x00\n      keccak256\n        /* \"contracts/ItemOwnership.sol\":2468:2497  itemIdList[msg.sender].length */\n      dup1\n      sload\n      swap1\n      pop\n        /* \"contracts/ItemOwnership.sol\":2464:2465  i */\n      dup2\n        /* \"contracts/ItemOwnership.sol\":2464:2497  i < itemIdList[msg.sender].length */\n      lt\n        /* \"contracts/ItemOwnership.sol\":2444:2715  for (uint256 i = 0; i < itemIdList[msg.sender].length; i++) {... */\n      iszero\n      tag_141\n      jumpi\n        /* \"contracts/ItemOwnership.sol\":2551:2554  _id */\n      dup3\n        /* \"contracts/ItemOwnership.sol\":2522:2532  itemIdList */\n      0x02\n        /* \"contracts/ItemOwnership.sol\":2522:2544  itemIdList[msg.sender] */\n      0x00\n        /* \"contracts/ItemOwnership.sol\":2533:2543  msg.sender */\n      caller\n        /* \"contracts/ItemOwnership.sol\":2522:2544  itemIdList[msg.sender] */\n      0xffffffffffffffffffffffffffffffffffffffff\n      and\n      0xffffffffffffffffffffffffffffffffffffffff\n      and\n      dup2\n      mstore\n      0x20\n      add\n      swap1\n      dup2\n      mstore\n      0x20\n      add\n      0x00\n      keccak256\n        /* \"contracts/ItemOwnership.sol\":2545:2546  i */\n      dup3\n        /* \"contracts/ItemOwnership.sol\":2522:2547  itemIdList[msg.sender][i] */\n      dup2\n      sload\n      dup2\n      lt\n      tag_143\n      jumpi\n      tag_144\n      tag_54\n      jump\t// in\n    tag_144:\n    tag_143:\n      swap1\n      0x00\n      mstore\n      keccak256(0x00, 0x20)\n      add\n      sload\n        /* \"contracts/ItemOwnership.sol\":2522:2554  itemIdList[msg.sender][i] == _id */\n      sub\n        /* \"contracts/ItemOwnership.sol\":2518:2594  if (itemIdList[msg.sender][i] == _id)... */\n      tag_146\n      jumpi\n        /* \"contracts/ItemOwnership.sol\":2572:2594  removeItemFromArray(i) */\n      tag_147\n        /* \"contracts/ItemOwnership.sol\":2592:2593  i */\n      dup2\n        /* \"contracts/ItemOwnership.sol\":2572:2591  removeItemFromArray */\n      tag_148\n        /* \"contracts/ItemOwnership.sol\":2572:2594  removeItemFromArray(i) */\n      jump\t// in\n    tag_147:\n        /* \"contracts/ItemOwnership.sol\":2518:2594  if (itemIdList[msg.sender][i] == _id)... */\n    tag_146:\n        /* \"contracts/ItemOwnership.sol\":2499:2502  i++ */\n      dup1\n      dup1\n      tag_149\n      swap1\n      tag_62\n      jump\t// in\n    tag_149:\n      swap2\n      pop\n      pop\n        /* \"contracts/ItemOwnership.sol\":2444:2715  for (uint256 i = 0; i < itemIdList[msg.sender].length; i++) {... */\n      jump(tag_140)\n    tag_141:\n      pop\n        /* \"contracts/ItemOwnership.sol\":2732:2744  itemDatabase */\n      0x01\n        /* \"contracts/ItemOwnership.sol\":2732:2756  itemDatabase[msg.sender] */\n      0x00\n        /* \"contracts/ItemOwnership.sol\":2745:2755  msg.sender */\n      caller\n        /* \"contracts/ItemOwnership.sol\":2732:2756  itemDatabase[msg.sender] */\n      0xffffffffffffffffffffffffffffffffffffffff\n      and\n      0xffffffffffffffffffffffffffffffffffffffff\n      and\n      dup2\n      mstore\n      0x20\n      add\n      swap1\n      dup2\n      mstore\n      0x20\n      add\n      0x00\n      keccak256\n        /* \"contracts/ItemOwnership.sol\":2732:2761  itemDatabase[msg.sender][_id] */\n      0x00\n        /* \"contracts/ItemOwnership.sol\":2757:2760  _id */\n      dup4\n        /* \"contracts/ItemOwnership.sol\":2732:2761  itemDatabase[msg.sender][_id] */\n      dup2\n      mstore\n      0x20\n      add\n      swap1\n      dup2\n      mstore\n      0x20\n      add\n      0x00\n      keccak256\n      0x00\n        /* \"contracts/ItemOwnership.sol\":2725:2761  delete itemDatabase[msg.sender][_id] */\n      dup1\n      dup3\n      add\n      exp(0x0100, 0x00)\n      dup2\n      sload\n      swap1\n      0xffffffffffffffffffffffffffffffffffffffff\n      mul\n      not\n      and\n      swap1\n      sstore\n      0x02\n      dup3\n      add\n      0x00\n      tag_150\n      swap2\n      swap1\n      tag_151\n      jump\t// in\n    tag_150:\n      pop\n      pop\n        /* \"contracts/ItemOwnership.sol\":2362:2768  function removeItemFromAddress(uint256 _id) public itemIsAvailable(_id) {... */\n      pop\n      pop\n      jump\t// out\n        /* \"contracts/ItemOwnership.sol\":3862:3980  function getAllItemsFromAddress() public view returns(uint256[] memory) {... */\n    tag_38:\n        /* \"contracts/ItemOwnership.sol\":3916:3932  uint256[] memory */\n      0x60\n        /* \"contracts/ItemOwnership.sol\":3951:3961  itemIdList */\n      0x02\n        /* \"contracts/ItemOwnership.sol\":3951:3973  itemIdList[msg.sender] */\n      0x00\n        /* \"contracts/ItemOwnership.sol\":3962:3972  msg.sender */\n      caller\n        /* \"contracts/ItemOwnership.sol\":3951:3973  itemIdList[msg.sender] */\n      0xffffffffffffffffffffffffffffffffffffffff\n      and\n      0xffffffffffffffffffffffffffffffffffffffff\n      and\n      dup2\n      mstore\n      0x20\n      add\n      swap1\n      dup2\n      mstore\n      0x20\n      add\n      0x00\n      keccak256\n        /* \"contracts/ItemOwnership.sol\":3944:3973  return itemIdList[msg.sender] */\n      dup1\n      sload\n      dup1\n      0x20\n      mul\n      0x20\n      add\n      mload(0x40)\n      swap1\n      dup2\n      add\n      0x40\n      mstore\n      dup1\n      swap3\n      swap2\n      swap1\n      dup2\n      dup2\n      mstore\n      0x20\n      add\n      dup3\n      dup1\n      sload\n      dup1\n      iszero\n      tag_153\n      jumpi\n      0x20\n      mul\n      dup3\n      add\n      swap2\n      swap1\n      0x00\n      mstore\n      keccak256(0x00, 0x20)\n      swap1\n    tag_154:\n      dup2\n      sload\n      dup2\n      mstore\n      0x20\n      add\n      swap1\n      0x01\n      add\n      swap1\n      dup1\n      dup4\n      gt\n      tag_154\n      jumpi\n    tag_153:\n      pop\n      pop\n      pop\n      pop\n      pop\n      swap1\n      pop\n        /* \"contracts/ItemOwnership.sol\":3862:3980  function getAllItemsFromAddress() public view returns(uint256[] memory) {... */\n      swap1\n      jump\t// out\n        /* \"contracts/ItemOwnership.sol\":3514:3856  function removeItemFromArray(uint256 index) private  {... */\n    tag_148:\n        /* \"contracts/ItemOwnership.sol\":3590:3600  itemIdList */\n      0x02\n        /* \"contracts/ItemOwnership.sol\":3590:3612  itemIdList[msg.sender] */\n      0x00\n        /* \"contracts/ItemOwnership.sol\":3601:3611  msg.sender */\n      caller\n        /* \"contracts/ItemOwnership.sol\":3590:3612  itemIdList[msg.sender] */\n      0xffffffffffffffffffffffffffffffffffffffff\n      and\n      0xffffffffffffffffffffffffffffffffffffffff\n      and\n      dup2\n      mstore\n      0x20\n      add\n      swap1\n      dup2\n      mstore\n      0x20\n      add\n      0x00\n      keccak256\n        /* \"contracts/ItemOwnership.sol\":3590:3619  itemIdList[msg.sender].length */\n      dup1\n      sload\n      swap1\n      pop\n        /* \"contracts/ItemOwnership.sol\":3581:3586  index */\n      dup2\n        /* \"contracts/ItemOwnership.sol\":3581:3619  index >= itemIdList[msg.sender].length */\n      lt\n        /* \"contracts/ItemOwnership.sol\":3577:3628  if (index >= itemIdList[msg.sender].length) return; */\n      iszero\n        /* \"contracts/ItemOwnership.sol\":3621:3628  return; */\n      tag_155\n        /* \"contracts/ItemOwnership.sol\":3577:3628  if (index >= itemIdList[msg.sender].length) return; */\n      jumpi\n        /* \"contracts/ItemOwnership.sol\":3674:3683  uint256 i */\n      0x00\n        /* \"contracts/ItemOwnership.sol\":3686:3691  index */\n      dup2\n        /* \"contracts/ItemOwnership.sol\":3674:3691  uint256 i = index */\n      swap1\n      pop\n        /* \"contracts/ItemOwnership.sol\":3669:3812  for (uint256 i = index; i<itemIdList[msg.sender].length-1; i++){... */\n    tag_157:\n        /* \"contracts/ItemOwnership.sol\":3725:3726  1 */\n      0x01\n        /* \"contracts/ItemOwnership.sol\":3695:3705  itemIdList */\n      0x02\n        /* \"contracts/ItemOwnership.sol\":3695:3717  itemIdList[msg.sender] */\n      0x00\n        /* \"contracts/ItemOwnership.sol\":3706:3716  msg.sender */\n      caller\n        /* \"contracts/ItemOwnership.sol\":3695:3717  itemIdList[msg.sender] */\n      0xffffffffffffffffffffffffffffffffffffffff\n      and\n      0xffffffffffffffffffffffffffffffffffffffff\n      and\n      dup2\n      mstore\n      0x20\n      add\n      swap1\n      dup2\n      mstore\n      0x20\n      add\n      0x00\n      keccak256\n        /* \"contracts/ItemOwnership.sol\":3695:3724  itemIdList[msg.sender].length */\n      dup1\n      sload\n      swap1\n      pop\n        /* \"contracts/ItemOwnership.sol\":3695:3726  itemIdList[msg.sender].length-1 */\n      tag_160\n      swap2\n      swap1\n      tag_161\n      jump\t// in\n    tag_160:\n        /* \"contracts/ItemOwnership.sol\":3693:3694  i */\n      dup2\n        /* \"contracts/ItemOwnership.sol\":3693:3726  i<itemIdList[msg.sender].length-1 */\n      lt\n        /* \"contracts/ItemOwnership.sol\":3669:3812  for (uint256 i = index; i<itemIdList[msg.sender].length-1; i++){... */\n      iszero\n      tag_158\n      jumpi\n        /* \"contracts/ItemOwnership.sol\":3774:3784  itemIdList */\n      0x02\n        /* \"contracts/ItemOwnership.sol\":3774:3796  itemIdList[msg.sender] */\n      0x00\n        /* \"contracts/ItemOwnership.sol\":3785:3795  msg.sender */\n      caller\n        /* \"contracts/ItemOwnership.sol\":3774:3796  itemIdList[msg.sender] */\n      0xffffffffffffffffffffffffffffffffffffffff\n      and\n      0xffffffffffffffffffffffffffffffffffffffff\n      and\n      dup2\n      mstore\n      0x20\n      add\n      swap1\n      dup2\n      mstore\n      0x20\n      add\n      0x00\n      keccak256\n        /* \"contracts/ItemOwnership.sol\":3799:3800  1 */\n      0x01\n        /* \"contracts/ItemOwnership.sol\":3797:3798  i */\n      dup3\n        /* \"contracts/ItemOwnership.sol\":3797:3800  i+1 */\n      tag_162\n      swap2\n      swap1\n      tag_163\n      jump\t// in\n    tag_162:\n        /* \"contracts/ItemOwnership.sol\":3774:3801  itemIdList[msg.sender][i+1] */\n      dup2\n      sload\n      dup2\n      lt\n      tag_164\n      jumpi\n      tag_165\n      tag_54\n      jump\t// in\n    tag_165:\n    tag_164:\n      swap1\n      0x00\n      mstore\n      keccak256(0x00, 0x20)\n      add\n      sload\n        /* \"contracts/ItemOwnership.sol\":3746:3756  itemIdList */\n      0x02\n        /* \"contracts/ItemOwnership.sol\":3746:3768  itemIdList[msg.sender] */\n      0x00\n        /* \"contracts/ItemOwnership.sol\":3757:3767  msg.sender */\n      caller\n        /* \"contracts/ItemOwnership.sol\":3746:3768  itemIdList[msg.sender] */\n      0xffffffffffffffffffffffffffffffffffffffff\n      and\n      0xffffffffffffffffffffffffffffffffffffffff\n      and\n      dup2\n      mstore\n      0x20\n      add\n      swap1\n      dup2\n      mstore\n      0x20\n      add\n      0x00\n      keccak256\n        /* \"contracts/ItemOwnership.sol\":3769:3770  i */\n      dup3\n        /* \"contracts/ItemOwnership.sol\":3746:3771  itemIdList[msg.sender][i] */\n      dup2\n      sload\n      dup2\n      lt\n      tag_167\n      jumpi\n      tag_168\n      tag_54\n      jump\t// in\n    tag_168:\n    tag_167:\n      swap1\n      0x00\n      mstore\n      keccak256(0x00, 0x20)\n      add\n        /* \"contracts/ItemOwnership.sol\":3746:3801  itemIdList[msg.sender][i] = itemIdList[msg.sender][i+1] */\n      dup2\n      swap1\n      sstore\n      pop\n        /* \"contracts/ItemOwnership.sol\":3728:3731  i++ */\n      dup1\n      dup1\n      tag_170\n      swap1\n      tag_62\n      jump\t// in\n    tag_170:\n      swap2\n      pop\n      pop\n        /* \"contracts/ItemOwnership.sol\":3669:3812  for (uint256 i = index; i<itemIdList[msg.sender].length-1; i++){... */\n      jump(tag_157)\n    tag_158:\n      pop\n        /* \"contracts/ItemOwnership.sol\":3821:3831  itemIdList */\n      0x02\n        /* \"contracts/ItemOwnership.sol\":3821:3843  itemIdList[msg.sender] */\n      0x00\n        /* \"contracts/ItemOwnership.sol\":3832:3842  msg.sender */\n      caller\n        /* \"contracts/ItemOwnership.sol\":3821:3843  itemIdList[msg.sender] */\n      0xffffffffffffffffffffffffffffffffffffffff\n      and\n      0xffffffffffffffffffffffffffffffffffffffff\n      and\n      dup2\n      mstore\n      0x20\n      add\n      swap1\n      dup2\n      mstore\n      0x20\n      add\n      0x00\n      keccak256\n        /* \"contracts/ItemOwnership.sol\":3821:3849  itemIdList[msg.sender].pop() */\n      dup1\n      sload\n      dup1\n      tag_171\n      jumpi\n      tag_172\n      tag_173\n      jump\t// in\n    tag_172:\n    tag_171:\n      0x01\n      swap1\n      sub\n      dup2\n      dup2\n      swap1\n      0x00\n      mstore\n      keccak256(0x00, 0x20)\n      add\n      0x00\n      swap1\n      sstore\n      swap1\n      sstore\n        /* \"contracts/ItemOwnership.sol\":3514:3856  function removeItemFromArray(uint256 index) private  {... */\n    tag_155:\n      pop\n      jump\t// out\n    tag_64:\n      dup3\n      dup1\n      sload\n      dup3\n      dup3\n      sstore\n      swap1\n      0x00\n      mstore\n      keccak256(0x00, 0x20)\n      swap1\n      dup2\n      add\n      swap3\n      dup3\n      iszero\n      tag_175\n      jumpi\n      swap2\n      0x20\n      mul\n      dup3\n      add\n    tag_176:\n      dup3\n      dup2\n      gt\n      iszero\n      tag_177\n      jumpi\n      dup3\n      mload\n      dup3\n      swap1\n      dup2\n      tag_178\n      swap2\n      swap1\n      tag_60\n      jump\t// in\n    tag_178:\n      pop\n      swap2\n      0x20\n      add\n      swap2\n      swap1\n      0x01\n      add\n      swap1\n      jump(tag_176)\n    tag_177:\n    tag_175:\n      pop\n      swap1\n      pop\n      tag_179\n      swap2\n      swap1\n      tag_180\n      jump\t// in\n    tag_179:\n      pop\n      swap1\n      jump\t// out\n    tag_151:\n      pop\n      dup1\n      sload\n      0x00\n      dup3\n      sstore\n      swap1\n      0x00\n      mstore\n      keccak256(0x00, 0x20)\n      swap1\n      dup2\n      add\n      swap1\n      tag_182\n      swap2\n      swap1\n      tag_180\n      jump\t// in\n    tag_182:\n      pop\n      jump\t// out\n    tag_180:\n    tag_183:\n      dup1\n      dup3\n      gt\n      iszero\n      tag_184\n      jumpi\n      0x00\n      dup2\n      dup2\n      tag_185\n      swap2\n      swap1\n      tag_186\n      jump\t// in\n    tag_185:\n      pop\n      0x01\n      add\n      jump(tag_183)\n    tag_184:\n      pop\n      swap1\n      jump\t// out\n    tag_186:\n      pop\n      dup1\n      sload\n      tag_187\n      swap1\n      tag_75\n      jump\t// in\n    tag_187:\n      0x00\n      dup3\n      sstore\n      dup1\n      0x1f\n      lt\n      tag_189\n      jumpi\n      pop\n      jump(tag_188)\n    tag_189:\n      0x1f\n      add\n      0x20\n      swap1\n      div\n      swap1\n      0x00\n      mstore\n      keccak256(0x00, 0x20)\n      swap1\n      dup2\n      add\n      swap1\n      tag_190\n      swap2\n      swap1\n      tag_191\n      jump\t// in\n    tag_190:\n    tag_188:\n      pop\n      jump\t// out\n    tag_191:\n    tag_192:\n      dup1\n      dup3\n      gt\n      iszero\n      tag_193\n      jumpi\n      0x00\n      dup2\n      0x00\n      swap1\n      sstore\n      pop\n      0x01\n      add\n      jump(tag_192)\n    tag_193:\n      pop\n      swap1\n      jump\t// out\n        /* \"#utility.yul\":7:82   */\n    tag_194:\n        /* \"#utility.yul\":40:46   */\n      0x00\n        /* \"#utility.yul\":73:75   */\n      0x40\n        /* \"#utility.yul\":67:76   */\n      mload\n        /* \"#utility.yul\":57:76   */\n      swap1\n      pop\n        /* \"#utility.yul\":7:82   */\n      swap1\n      jump\t// out\n        /* \"#utility.yul\":88:205   */\n    tag_195:\n        /* \"#utility.yul\":197:198   */\n      0x00\n        /* \"#utility.yul\":194:195   */\n      dup1\n        /* \"#utility.yul\":187:199   */\n      revert\n        /* \"#utility.yul\":211:328   */\n    tag_196:\n        /* \"#utility.yul\":320:321   */\n      0x00\n        /* \"#utility.yul\":317:318   */\n      dup1\n        /* \"#utility.yul\":310:322   */\n      revert\n        /* \"#utility.yul\":334:411   */\n    tag_197:\n        /* \"#utility.yul\":371:378   */\n      0x00\n        /* \"#utility.yul\":400:405   */\n      dup2\n        /* \"#utility.yul\":389:405   */\n      swap1\n      pop\n        /* \"#utility.yul\":334:411   */\n      swap2\n      swap1\n      pop\n      jump\t// out\n        /* \"#utility.yul\":417:539   */\n    tag_198:\n        /* \"#utility.yul\":490:514   */\n      tag_266\n        /* \"#utility.yul\":508:513   */\n      dup2\n        /* \"#utility.yul\":490:514   */\n      tag_197\n      jump\t// in\n    tag_266:\n        /* \"#utility.yul\":483:488   */\n      dup2\n        /* \"#utility.yul\":480:515   */\n      eq\n        /* \"#utility.yul\":470:533   */\n      tag_267\n      jumpi\n        /* \"#utility.yul\":529:530   */\n      0x00\n        /* \"#utility.yul\":526:527   */\n      dup1\n        /* \"#utility.yul\":519:531   */\n      revert\n        /* \"#utility.yul\":470:533   */\n    tag_267:\n        /* \"#utility.yul\":417:539   */\n      pop\n      jump\t// out\n        /* \"#utility.yul\":545:684   */\n    tag_199:\n        /* \"#utility.yul\":591:596   */\n      0x00\n        /* \"#utility.yul\":629:635   */\n      dup2\n        /* \"#utility.yul\":616:636   */\n      calldataload\n        /* \"#utility.yul\":607:636   */\n      swap1\n      pop\n        /* \"#utility.yul\":645:678   */\n      tag_269\n        /* \"#utility.yul\":672:677   */\n      dup2\n        /* \"#utility.yul\":645:678   */\n      tag_198\n      jump\t// in\n    tag_269:\n        /* \"#utility.yul\":545:684   */\n      swap3\n      swap2\n      pop\n      pop\n      jump\t// out\n        /* \"#utility.yul\":690:807   */\n    tag_200:\n        /* \"#utility.yul\":799:800   */\n      0x00\n        /* \"#utility.yul\":796:797   */\n      dup1\n        /* \"#utility.yul\":789:801   */\n      revert\n        /* \"#utility.yul\":813:915   */\n    tag_201:\n        /* \"#utility.yul\":854:860   */\n      0x00\n        /* \"#utility.yul\":905:907   */\n      0x1f\n        /* \"#utility.yul\":901:908   */\n      not\n        /* \"#utility.yul\":896:898   */\n      0x1f\n        /* \"#utility.yul\":889:894   */\n      dup4\n        /* \"#utility.yul\":885:899   */\n      add\n        /* \"#utility.yul\":881:909   */\n      and\n        /* \"#utility.yul\":871:909   */\n      swap1\n      pop\n        /* \"#utility.yul\":813:915   */\n      swap2\n      swap1\n      pop\n      jump\t// out\n        /* \"#utility.yul\":921:1101   */\n    tag_109:\n        /* \"#utility.yul\":969:1046   */\n      0x4e487b7100000000000000000000000000000000000000000000000000000000\n        /* \"#utility.yul\":966:967   */\n      0x00\n        /* \"#utility.yul\":959:1047   */\n      mstore\n        /* \"#utility.yul\":1066:1070   */\n      0x41\n        /* \"#utility.yul\":1063:1064   */\n      0x04\n        /* \"#utility.yul\":1056:1071   */\n      mstore\n        /* \"#utility.yul\":1090:1094   */\n      0x24\n        /* \"#utility.yul\":1087:1088   */\n      0x00\n        /* \"#utility.yul\":1080:1095   */\n      revert\n        /* \"#utility.yul\":1107:1388   */\n    tag_202:\n        /* \"#utility.yul\":1190:1217   */\n      tag_274\n        /* \"#utility.yul\":1212:1216   */\n      dup3\n        /* \"#utility.yul\":1190:1217   */\n      tag_201\n      jump\t// in\n    tag_274:\n        /* \"#utility.yul\":1182:1188   */\n      dup2\n        /* \"#utility.yul\":1178:1218   */\n      add\n        /* \"#utility.yul\":1320:1326   */\n      dup2\n        /* \"#utility.yul\":1308:1318   */\n      dup2\n        /* \"#utility.yul\":1305:1327   */\n      lt\n        /* \"#utility.yul\":1284:1302   */\n      0xffffffffffffffff\n        /* \"#utility.yul\":1272:1282   */\n      dup3\n        /* \"#utility.yul\":1269:1303   */\n      gt\n        /* \"#utility.yul\":1266:1328   */\n      or\n        /* \"#utility.yul\":1263:1351   */\n      iszero\n      tag_275\n      jumpi\n        /* \"#utility.yul\":1331:1349   */\n      tag_276\n      tag_109\n      jump\t// in\n    tag_276:\n        /* \"#utility.yul\":1263:1351   */\n    tag_275:\n        /* \"#utility.yul\":1371:1381   */\n      dup1\n        /* \"#utility.yul\":1367:1369   */\n      0x40\n        /* \"#utility.yul\":1360:1382   */\n      mstore\n        /* \"#utility.yul\":1150:1388   */\n      pop\n        /* \"#utility.yul\":1107:1388   */\n      pop\n      pop\n      jump\t// out\n        /* \"#utility.yul\":1394:1523   */\n    tag_203:\n        /* \"#utility.yul\":1428:1434   */\n      0x00\n        /* \"#utility.yul\":1455:1475   */\n      tag_278\n      tag_194\n      jump\t// in\n    tag_278:\n        /* \"#utility.yul\":1445:1475   */\n      swap1\n      pop\n        /* \"#utility.yul\":1484:1517   */\n      tag_279\n        /* \"#utility.yul\":1512:1516   */\n      dup3\n        /* \"#utility.yul\":1504:1510   */\n      dup3\n        /* \"#utility.yul\":1484:1517   */\n      tag_202\n      jump\t// in\n    tag_279:\n        /* \"#utility.yul\":1394:1523   */\n      swap2\n      swap1\n      pop\n      jump\t// out\n        /* \"#utility.yul\":1529:1850   */\n    tag_204:\n        /* \"#utility.yul\":1616:1620   */\n      0x00\n        /* \"#utility.yul\":1706:1724   */\n      0xffffffffffffffff\n        /* \"#utility.yul\":1698:1704   */\n      dup3\n        /* \"#utility.yul\":1695:1725   */\n      gt\n        /* \"#utility.yul\":1692:1748   */\n      iszero\n      tag_281\n      jumpi\n        /* \"#utility.yul\":1728:1746   */\n      tag_282\n      tag_109\n      jump\t// in\n    tag_282:\n        /* \"#utility.yul\":1692:1748   */\n    tag_281:\n        /* \"#utility.yul\":1778:1782   */\n      0x20\n        /* \"#utility.yul\":1770:1776   */\n      dup3\n        /* \"#utility.yul\":1766:1783   */\n      mul\n        /* \"#utility.yul\":1758:1783   */\n      swap1\n      pop\n        /* \"#utility.yul\":1838:1842   */\n      0x20\n        /* \"#utility.yul\":1832:1836   */\n      dup2\n        /* \"#utility.yul\":1828:1843   */\n      add\n        /* \"#utility.yul\":1820:1843   */\n      swap1\n      pop\n        /* \"#utility.yul\":1529:1850   */\n      swap2\n      swap1\n      pop\n      jump\t// out\n        /* \"#utility.yul\":1856:1973   */\n    tag_205:\n        /* \"#utility.yul\":1965:1966   */\n      0x00\n        /* \"#utility.yul\":1962:1963   */\n      dup1\n        /* \"#utility.yul\":1955:1967   */\n      revert\n        /* \"#utility.yul\":1979:2096   */\n    tag_206:\n        /* \"#utility.yul\":2088:2089   */\n      0x00\n        /* \"#utility.yul\":2085:2086   */\n      dup1\n        /* \"#utility.yul\":2078:2090   */\n      revert\n        /* \"#utility.yul\":2102:2410   */\n    tag_207:\n        /* \"#utility.yul\":2164:2168   */\n      0x00\n        /* \"#utility.yul\":2254:2272   */\n      0xffffffffffffffff\n        /* \"#utility.yul\":2246:2252   */\n      dup3\n        /* \"#utility.yul\":2243:2273   */\n      gt\n        /* \"#utility.yul\":2240:2296   */\n      iszero\n      tag_286\n      jumpi\n        /* \"#utility.yul\":2276:2294   */\n      tag_287\n      tag_109\n      jump\t// in\n    tag_287:\n        /* \"#utility.yul\":2240:2296   */\n    tag_286:\n        /* \"#utility.yul\":2314:2343   */\n      tag_288\n        /* \"#utility.yul\":2336:2342   */\n      dup3\n        /* \"#utility.yul\":2314:2343   */\n      tag_201\n      jump\t// in\n    tag_288:\n        /* \"#utility.yul\":2306:2343   */\n      swap1\n      pop\n        /* \"#utility.yul\":2398:2402   */\n      0x20\n        /* \"#utility.yul\":2392:2396   */\n      dup2\n        /* \"#utility.yul\":2388:2403   */\n      add\n        /* \"#utility.yul\":2380:2403   */\n      swap1\n      pop\n        /* \"#utility.yul\":2102:2410   */\n      swap2\n      swap1\n      pop\n      jump\t// out\n        /* \"#utility.yul\":2416:2562   */\n    tag_208:\n        /* \"#utility.yul\":2513:2519   */\n      dup3\n        /* \"#utility.yul\":2508:2511   */\n      dup2\n        /* \"#utility.yul\":2503:2506   */\n      dup4\n        /* \"#utility.yul\":2490:2520   */\n      calldatacopy\n        /* \"#utility.yul\":2554:2555   */\n      0x00\n        /* \"#utility.yul\":2545:2551   */\n      dup4\n        /* \"#utility.yul\":2540:2543   */\n      dup4\n        /* \"#utility.yul\":2536:2552   */\n      add\n        /* \"#utility.yul\":2529:2556   */\n      mstore\n        /* \"#utility.yul\":2416:2562   */\n      pop\n      pop\n      pop\n      jump\t// out\n        /* \"#utility.yul\":2568:2993   */\n    tag_209:\n        /* \"#utility.yul\":2646:2651   */\n      0x00\n        /* \"#utility.yul\":2671:2737   */\n      tag_291\n        /* \"#utility.yul\":2687:2736   */\n      tag_292\n        /* \"#utility.yul\":2729:2735   */\n      dup5\n        /* \"#utility.yul\":2687:2736   */\n      tag_207\n      jump\t// in\n    tag_292:\n        /* \"#utility.yul\":2671:2737   */\n      tag_203\n      jump\t// in\n    tag_291:\n        /* \"#utility.yul\":2662:2737   */\n      swap1\n      pop\n        /* \"#utility.yul\":2760:2766   */\n      dup3\n        /* \"#utility.yul\":2753:2758   */\n      dup2\n        /* \"#utility.yul\":2746:2767   */\n      mstore\n        /* \"#utility.yul\":2798:2802   */\n      0x20\n        /* \"#utility.yul\":2791:2796   */\n      dup2\n        /* \"#utility.yul\":2787:2803   */\n      add\n        /* \"#utility.yul\":2836:2839   */\n      dup5\n        /* \"#utility.yul\":2827:2833   */\n      dup5\n        /* \"#utility.yul\":2822:2825   */\n      dup5\n        /* \"#utility.yul\":2818:2834   */\n      add\n        /* \"#utility.yul\":2815:2840   */\n      gt\n        /* \"#utility.yul\":2812:2924   */\n      iszero\n      tag_293\n      jumpi\n        /* \"#utility.yul\":2843:2922   */\n      tag_294\n      tag_206\n      jump\t// in\n    tag_294:\n        /* \"#utility.yul\":2812:2924   */\n    tag_293:\n        /* \"#utility.yul\":2933:2987   */\n      tag_295\n        /* \"#utility.yul\":2980:2986   */\n      dup5\n        /* \"#utility.yul\":2975:2978   */\n      dup3\n        /* \"#utility.yul\":2970:2973   */\n      dup6\n        /* \"#utility.yul\":2933:2987   */\n      tag_208\n      jump\t// in\n    tag_295:\n        /* \"#utility.yul\":2652:2993   */\n      pop\n        /* \"#utility.yul\":2568:2993   */\n      swap4\n      swap3\n      pop\n      pop\n      pop\n      jump\t// out\n        /* \"#utility.yul\":3013:3353   */\n    tag_210:\n        /* \"#utility.yul\":3069:3074   */\n      0x00\n        /* \"#utility.yul\":3118:3121   */\n      dup3\n        /* \"#utility.yul\":3111:3115   */\n      0x1f\n        /* \"#utility.yul\":3103:3109   */\n      dup4\n        /* \"#utility.yul\":3099:3116   */\n      add\n        /* \"#utility.yul\":3095:3122   */\n      slt\n        /* \"#utility.yul\":3085:3207   */\n      tag_297\n      jumpi\n        /* \"#utility.yul\":3126:3205   */\n      tag_298\n      tag_200\n      jump\t// in\n    tag_298:\n        /* \"#utility.yul\":3085:3207   */\n    tag_297:\n        /* \"#utility.yul\":3243:3249   */\n      dup2\n        /* \"#utility.yul\":3230:3250   */\n      calldataload\n        /* \"#utility.yul\":3268:3347   */\n      tag_299\n        /* \"#utility.yul\":3343:3346   */\n      dup5\n        /* \"#utility.yul\":3335:3341   */\n      dup3\n        /* \"#utility.yul\":3328:3332   */\n      0x20\n        /* \"#utility.yul\":3320:3326   */\n      dup7\n        /* \"#utility.yul\":3316:3333   */\n      add\n        /* \"#utility.yul\":3268:3347   */\n      tag_209\n      jump\t// in\n    tag_299:\n        /* \"#utility.yul\":3259:3347   */\n      swap2\n      pop\n        /* \"#utility.yul\":3075:3353   */\n      pop\n        /* \"#utility.yul\":3013:3353   */\n      swap3\n      swap2\n      pop\n      pop\n      jump\t// out\n        /* \"#utility.yul\":3375:4320   */\n    tag_211:\n        /* \"#utility.yul\":3481:3486   */\n      0x00\n        /* \"#utility.yul\":3506:3597   */\n      tag_301\n        /* \"#utility.yul\":3522:3596   */\n      tag_302\n        /* \"#utility.yul\":3589:3595   */\n      dup5\n        /* \"#utility.yul\":3522:3596   */\n      tag_204\n      jump\t// in\n    tag_302:\n        /* \"#utility.yul\":3506:3597   */\n      tag_203\n      jump\t// in\n    tag_301:\n        /* \"#utility.yul\":3497:3597   */\n      swap1\n      pop\n        /* \"#utility.yul\":3617:3622   */\n      dup1\n        /* \"#utility.yul\":3646:3652   */\n      dup4\n        /* \"#utility.yul\":3639:3644   */\n      dup3\n        /* \"#utility.yul\":3632:3653   */\n      mstore\n        /* \"#utility.yul\":3680:3684   */\n      0x20\n        /* \"#utility.yul\":3673:3678   */\n      dup3\n        /* \"#utility.yul\":3669:3685   */\n      add\n        /* \"#utility.yul\":3662:3685   */\n      swap1\n      pop\n        /* \"#utility.yul\":3733:3737   */\n      0x20\n        /* \"#utility.yul\":3725:3731   */\n      dup5\n        /* \"#utility.yul\":3721:3738   */\n      mul\n        /* \"#utility.yul\":3713:3719   */\n      dup4\n        /* \"#utility.yul\":3709:3739   */\n      add\n        /* \"#utility.yul\":3762:3765   */\n      dup6\n        /* \"#utility.yul\":3754:3760   */\n      dup2\n        /* \"#utility.yul\":3751:3766   */\n      gt\n        /* \"#utility.yul\":3748:3870   */\n      iszero\n      tag_303\n      jumpi\n        /* \"#utility.yul\":3781:3860   */\n      tag_304\n      tag_205\n      jump\t// in\n    tag_304:\n        /* \"#utility.yul\":3748:3870   */\n    tag_303:\n        /* \"#utility.yul\":3896:3902   */\n      dup4\n        /* \"#utility.yul\":3879:4314   */\n    tag_305:\n        /* \"#utility.yul\":3913:3919   */\n      dup2\n        /* \"#utility.yul\":3908:3911   */\n      dup2\n        /* \"#utility.yul\":3905:3920   */\n      lt\n        /* \"#utility.yul\":3879:4314   */\n      iszero\n      tag_307\n      jumpi\n        /* \"#utility.yul\":4002:4005   */\n      dup1\n        /* \"#utility.yul\":3989:4006   */\n      calldataload\n        /* \"#utility.yul\":4038:4056   */\n      0xffffffffffffffff\n        /* \"#utility.yul\":4025:4036   */\n      dup2\n        /* \"#utility.yul\":4022:4057   */\n      gt\n        /* \"#utility.yul\":4019:4141   */\n      iszero\n      tag_308\n      jumpi\n        /* \"#utility.yul\":4060:4139   */\n      tag_309\n      tag_200\n      jump\t// in\n    tag_309:\n        /* \"#utility.yul\":4019:4141   */\n    tag_308:\n        /* \"#utility.yul\":4184:4195   */\n      dup1\n        /* \"#utility.yul\":4176:4182   */\n      dup7\n        /* \"#utility.yul\":4172:4196   */\n      add\n        /* \"#utility.yul\":4222:4269   */\n      tag_310\n        /* \"#utility.yul\":4265:4268   */\n      dup10\n        /* \"#utility.yul\":4253:4263   */\n      dup3\n        /* \"#utility.yul\":4222:4269   */\n      tag_210\n      jump\t// in\n    tag_310:\n        /* \"#utility.yul\":4217:4220   */\n      dup6\n        /* \"#utility.yul\":4210:4270   */\n      mstore\n        /* \"#utility.yul\":4299:4303   */\n      0x20\n        /* \"#utility.yul\":4294:4297   */\n      dup6\n        /* \"#utility.yul\":4290:4304   */\n      add\n        /* \"#utility.yul\":4283:4304   */\n      swap5\n      pop\n        /* \"#utility.yul\":3955:4314   */\n      pop\n      pop\n        /* \"#utility.yul\":3939:3943   */\n      0x20\n        /* \"#utility.yul\":3934:3937   */\n      dup2\n        /* \"#utility.yul\":3930:3944   */\n      add\n        /* \"#utility.yul\":3923:3944   */\n      swap1\n      pop\n        /* \"#utility.yul\":3879:4314   */\n      jump(tag_305)\n    tag_307:\n        /* \"#utility.yul\":3883:3904   */\n      pop\n        /* \"#utility.yul\":3487:4320   */\n      pop\n      pop\n        /* \"#utility.yul\":3375:4320   */\n      swap4\n      swap3\n      pop\n      pop\n      pop\n      jump\t// out\n        /* \"#utility.yul\":4342:4732   */\n    tag_212:\n        /* \"#utility.yul\":4423:4428   */\n      0x00\n        /* \"#utility.yul\":4472:4475   */\n      dup3\n        /* \"#utility.yul\":4465:4469   */\n      0x1f\n        /* \"#utility.yul\":4457:4463   */\n      dup4\n        /* \"#utility.yul\":4453:4470   */\n      add\n        /* \"#utility.yul\":4449:4476   */\n      slt\n        /* \"#utility.yul\":4439:4561   */\n      tag_312\n      jumpi\n        /* \"#utility.yul\":4480:4559   */\n      tag_313\n      tag_200\n      jump\t// in\n    tag_313:\n        /* \"#utility.yul\":4439:4561   */\n    tag_312:\n        /* \"#utility.yul\":4597:4603   */\n      dup2\n        /* \"#utility.yul\":4584:4604   */\n      calldataload\n        /* \"#utility.yul\":4622:4726   */\n      tag_314\n        /* \"#utility.yul\":4722:4725   */\n      dup5\n        /* \"#utility.yul\":4714:4720   */\n      dup3\n        /* \"#utility.yul\":4707:4711   */\n      0x20\n        /* \"#utility.yul\":4699:4705   */\n      dup7\n        /* \"#utility.yul\":4695:4712   */\n      add\n        /* \"#utility.yul\":4622:4726   */\n      tag_211\n      jump\t// in\n    tag_314:\n        /* \"#utility.yul\":4613:4726   */\n      swap2\n      pop\n        /* \"#utility.yul\":4429:4732   */\n      pop\n        /* \"#utility.yul\":4342:4732   */\n      swap3\n      swap2\n      pop\n      pop\n      jump\t// out\n        /* \"#utility.yul\":4738:5817   */\n    tag_13:\n        /* \"#utility.yul\":4885:4891   */\n      0x00\n        /* \"#utility.yul\":4893:4899   */\n      dup1\n        /* \"#utility.yul\":4901:4907   */\n      0x00\n        /* \"#utility.yul\":4950:4952   */\n      0x60\n        /* \"#utility.yul\":4938:4947   */\n      dup5\n        /* \"#utility.yul\":4929:4936   */\n      dup7\n        /* \"#utility.yul\":4925:4948   */\n      sub\n        /* \"#utility.yul\":4921:4953   */\n      slt\n        /* \"#utility.yul\":4918:5037   */\n      iszero\n      tag_316\n      jumpi\n        /* \"#utility.yul\":4956:5035   */\n      tag_317\n      tag_195\n      jump\t// in\n    tag_317:\n        /* \"#utility.yul\":4918:5037   */\n    tag_316:\n        /* \"#utility.yul\":5076:5077   */\n      0x00\n        /* \"#utility.yul\":5101:5154   */\n      tag_318\n        /* \"#utility.yul\":5146:5153   */\n      dup7\n        /* \"#utility.yul\":5137:5143   */\n      dup3\n        /* \"#utility.yul\":5126:5135   */\n      dup8\n        /* \"#utility.yul\":5122:5144   */\n      add\n        /* \"#utility.yul\":5101:5154   */\n      tag_199\n      jump\t// in\n    tag_318:\n        /* \"#utility.yul\":5091:5154   */\n      swap4\n      pop\n        /* \"#utility.yul\":5047:5164   */\n      pop\n        /* \"#utility.yul\":5231:5233   */\n      0x20\n        /* \"#utility.yul\":5220:5229   */\n      dup5\n        /* \"#utility.yul\":5216:5234   */\n      add\n        /* \"#utility.yul\":5203:5235   */\n      calldataload\n        /* \"#utility.yul\":5262:5280   */\n      0xffffffffffffffff\n        /* \"#utility.yul\":5254:5260   */\n      dup2\n        /* \"#utility.yul\":5251:5281   */\n      gt\n        /* \"#utility.yul\":5248:5365   */\n      iszero\n      tag_319\n      jumpi\n        /* \"#utility.yul\":5284:5363   */\n      tag_320\n      tag_196\n      jump\t// in\n    tag_320:\n        /* \"#utility.yul\":5248:5365   */\n    tag_319:\n        /* \"#utility.yul\":5389:5477   */\n      tag_321\n        /* \"#utility.yul\":5469:5476   */\n      dup7\n        /* \"#utility.yul\":5460:5466   */\n      dup3\n        /* \"#utility.yul\":5449:5458   */\n      dup8\n        /* \"#utility.yul\":5445:5467   */\n      add\n        /* \"#utility.yul\":5389:5477   */\n      tag_212\n      jump\t// in\n    tag_321:\n        /* \"#utility.yul\":5379:5477   */\n      swap3\n      pop\n        /* \"#utility.yul\":5174:5487   */\n      pop\n        /* \"#utility.yul\":5554:5556   */\n      0x40\n        /* \"#utility.yul\":5543:5552   */\n      dup5\n        /* \"#utility.yul\":5539:5557   */\n      add\n        /* \"#utility.yul\":5526:5558   */\n      calldataload\n        /* \"#utility.yul\":5585:5603   */\n      0xffffffffffffffff\n        /* \"#utility.yul\":5577:5583   */\n      dup2\n        /* \"#utility.yul\":5574:5604   */\n      gt\n        /* \"#utility.yul\":5571:5688   */\n      iszero\n      tag_322\n      jumpi\n        /* \"#utility.yul\":5607:5686   */\n      tag_323\n      tag_196\n      jump\t// in\n    tag_323:\n        /* \"#utility.yul\":5571:5688   */\n    tag_322:\n        /* \"#utility.yul\":5712:5800   */\n      tag_324\n        /* \"#utility.yul\":5792:5799   */\n      dup7\n        /* \"#utility.yul\":5783:5789   */\n      dup3\n        /* \"#utility.yul\":5772:5781   */\n      dup8\n        /* \"#utility.yul\":5768:5790   */\n      add\n        /* \"#utility.yul\":5712:5800   */\n      tag_212\n      jump\t// in\n    tag_324:\n        /* \"#utility.yul\":5702:5800   */\n      swap2\n      pop\n        /* \"#utility.yul\":5497:5810   */\n      pop\n        /* \"#utility.yul\":4738:5817   */\n      swap3\n      pop\n      swap3\n      pop\n      swap3\n      jump\t// out\n        /* \"#utility.yul\":5823:5941   */\n    tag_213:\n        /* \"#utility.yul\":5910:5934   */\n      tag_326\n        /* \"#utility.yul\":5928:5933   */\n      dup2\n        /* \"#utility.yul\":5910:5934   */\n      tag_197\n      jump\t// in\n    tag_326:\n        /* \"#utility.yul\":5905:5908   */\n      dup3\n        /* \"#utility.yul\":5898:5935   */\n      mstore\n        /* \"#utility.yul\":5823:5941   */\n      pop\n      pop\n      jump\t// out\n        /* \"#utility.yul\":5947:6169   */\n    tag_18:\n        /* \"#utility.yul\":6040:6044   */\n      0x00\n        /* \"#utility.yul\":6078:6080   */\n      0x20\n        /* \"#utility.yul\":6067:6076   */\n      dup3\n        /* \"#utility.yul\":6063:6081   */\n      add\n        /* \"#utility.yul\":6055:6081   */\n      swap1\n      pop\n        /* \"#utility.yul\":6091:6162   */\n      tag_328\n        /* \"#utility.yul\":6159:6160   */\n      0x00\n        /* \"#utility.yul\":6148:6157   */\n      dup4\n        /* \"#utility.yul\":6144:6161   */\n      add\n        /* \"#utility.yul\":6135:6141   */\n      dup5\n        /* \"#utility.yul\":6091:6162   */\n      tag_213\n      jump\t// in\n    tag_328:\n        /* \"#utility.yul\":5947:6169   */\n      swap3\n      swap2\n      pop\n      pop\n      jump\t// out\n        /* \"#utility.yul\":6175:7009   */\n    tag_21:\n        /* \"#utility.yul\":6263:6269   */\n      0x00\n        /* \"#utility.yul\":6271:6277   */\n      dup1\n        /* \"#utility.yul\":6320:6322   */\n      0x40\n        /* \"#utility.yul\":6308:6317   */\n      dup4\n        /* \"#utility.yul\":6299:6306   */\n      dup6\n        /* \"#utility.yul\":6295:6318   */\n      sub\n        /* \"#utility.yul\":6291:6323   */\n      slt\n        /* \"#utility.yul\":6288:6407   */\n      iszero\n      tag_330\n      jumpi\n        /* \"#utility.yul\":6326:6405   */\n      tag_331\n      tag_195\n      jump\t// in\n    tag_331:\n        /* \"#utility.yul\":6288:6407   */\n    tag_330:\n        /* \"#utility.yul\":6474:6475   */\n      0x00\n        /* \"#utility.yul\":6463:6472   */\n      dup4\n        /* \"#utility.yul\":6459:6476   */\n      add\n        /* \"#utility.yul\":6446:6477   */\n      calldataload\n        /* \"#utility.yul\":6504:6522   */\n      0xffffffffffffffff\n        /* \"#utility.yul\":6496:6502   */\n      dup2\n        /* \"#utility.yul\":6493:6523   */\n      gt\n        /* \"#utility.yul\":6490:6607   */\n      iszero\n      tag_332\n      jumpi\n        /* \"#utility.yul\":6526:6605   */\n      tag_333\n      tag_196\n      jump\t// in\n    tag_333:\n        /* \"#utility.yul\":6490:6607   */\n    tag_332:\n        /* \"#utility.yul\":6631:6694   */\n      tag_334\n        /* \"#utility.yul\":6686:6693   */\n      dup6\n        /* \"#utility.yul\":6677:6683   */\n      dup3\n        /* \"#utility.yul\":6666:6675   */\n      dup7\n        /* \"#utility.yul\":6662:6684   */\n      add\n        /* \"#utility.yul\":6631:6694   */\n      tag_210\n      jump\t// in\n    tag_334:\n        /* \"#utility.yul\":6621:6694   */\n      swap3\n      pop\n        /* \"#utility.yul\":6417:6704   */\n      pop\n        /* \"#utility.yul\":6771:6773   */\n      0x20\n        /* \"#utility.yul\":6760:6769   */\n      dup4\n        /* \"#utility.yul\":6756:6774   */\n      add\n        /* \"#utility.yul\":6743:6775   */\n      calldataload\n        /* \"#utility.yul\":6802:6820   */\n      0xffffffffffffffff\n        /* \"#utility.yul\":6794:6800   */\n      dup2\n        /* \"#utility.yul\":6791:6821   */\n      gt\n        /* \"#utility.yul\":6788:6905   */\n      iszero\n      tag_335\n      jumpi\n        /* \"#utility.yul\":6824:6903   */\n      tag_336\n      tag_196\n      jump\t// in\n    tag_336:\n        /* \"#utility.yul\":6788:6905   */\n    tag_335:\n        /* \"#utility.yul\":6929:6992   */\n      tag_337\n        /* \"#utility.yul\":6984:6991   */\n      dup6\n        /* \"#utility.yul\":6975:6981   */\n      dup3\n        /* \"#utility.yul\":6964:6973   */\n      dup7\n        /* \"#utility.yul\":6960:6982   */\n      add\n        /* \"#utility.yul\":6929:6992   */\n      tag_210\n      jump\t// in\n    tag_337:\n        /* \"#utility.yul\":6919:6992   */\n      swap2\n      pop\n        /* \"#utility.yul\":6714:7002   */\n      pop\n        /* \"#utility.yul\":6175:7009   */\n      swap3\n      pop\n      swap3\n      swap1\n      pop\n      jump\t// out\n        /* \"#utility.yul\":7015:7105   */\n    tag_214:\n        /* \"#utility.yul\":7049:7056   */\n      0x00\n        /* \"#utility.yul\":7092:7097   */\n      dup2\n        /* \"#utility.yul\":7085:7098   */\n      iszero\n        /* \"#utility.yul\":7078:7099   */\n      iszero\n        /* \"#utility.yul\":7067:7099   */\n      swap1\n      pop\n        /* \"#utility.yul\":7015:7105   */\n      swap2\n      swap1\n      pop\n      jump\t// out\n        /* \"#utility.yul\":7111:7220   */\n    tag_215:\n        /* \"#utility.yul\":7192:7213   */\n      tag_340\n        /* \"#utility.yul\":7207:7212   */\n      dup2\n        /* \"#utility.yul\":7192:7213   */\n      tag_214\n      jump\t// in\n    tag_340:\n        /* \"#utility.yul\":7187:7190   */\n      dup3\n        /* \"#utility.yul\":7180:7214   */\n      mstore\n        /* \"#utility.yul\":7111:7220   */\n      pop\n      pop\n      jump\t// out\n        /* \"#utility.yul\":7226:7436   */\n    tag_24:\n        /* \"#utility.yul\":7313:7317   */\n      0x00\n        /* \"#utility.yul\":7351:7353   */\n      0x20\n        /* \"#utility.yul\":7340:7349   */\n      dup3\n        /* \"#utility.yul\":7336:7354   */\n      add\n        /* \"#utility.yul\":7328:7354   */\n      swap1\n      pop\n        /* \"#utility.yul\":7364:7429   */\n      tag_342\n        /* \"#utility.yul\":7426:7427   */\n      0x00\n        /* \"#utility.yul\":7415:7424   */\n      dup4\n        /* \"#utility.yul\":7411:7428   */\n      add\n        /* \"#utility.yul\":7402:7408   */\n      dup5\n        /* \"#utility.yul\":7364:7429   */\n      tag_215\n      jump\t// in\n    tag_342:\n        /* \"#utility.yul\":7226:7436   */\n      swap3\n      swap2\n      pop\n      pop\n      jump\t// out\n        /* \"#utility.yul\":7442:7771   */\n    tag_30:\n        /* \"#utility.yul\":7501:7507   */\n      0x00\n        /* \"#utility.yul\":7550:7552   */\n      0x20\n        /* \"#utility.yul\":7538:7547   */\n      dup3\n        /* \"#utility.yul\":7529:7536   */\n      dup5\n        /* \"#utility.yul\":7525:7548   */\n      sub\n        /* \"#utility.yul\":7521:7553   */\n      slt\n        /* \"#utility.yul\":7518:7637   */\n      iszero\n      tag_344\n      jumpi\n        /* \"#utility.yul\":7556:7635   */\n      tag_345\n      tag_195\n      jump\t// in\n    tag_345:\n        /* \"#utility.yul\":7518:7637   */\n    tag_344:\n        /* \"#utility.yul\":7676:7677   */\n      0x00\n        /* \"#utility.yul\":7701:7754   */\n      tag_346\n        /* \"#utility.yul\":7746:7753   */\n      dup5\n        /* \"#utility.yul\":7737:7743   */\n      dup3\n        /* \"#utility.yul\":7726:7735   */\n      dup6\n        /* \"#utility.yul\":7722:7744   */\n      add\n        /* \"#utility.yul\":7701:7754   */\n      tag_199\n      jump\t// in\n    tag_346:\n        /* \"#utility.yul\":7691:7754   */\n      swap2\n      pop\n        /* \"#utility.yul\":7647:7764   */\n      pop\n        /* \"#utility.yul\":7442:7771   */\n      swap3\n      swap2\n      pop\n      pop\n      jump\t// out\n        /* \"#utility.yul\":7777:7901   */\n    tag_216:\n        /* \"#utility.yul\":7854:7860   */\n      0x00\n        /* \"#utility.yul\":7888:7893   */\n      dup2\n        /* \"#utility.yul\":7882:7894   */\n      mload\n        /* \"#utility.yul\":7872:7894   */\n      swap1\n      pop\n        /* \"#utility.yul\":7777:7901   */\n      swap2\n      swap1\n      pop\n      jump\t// out\n        /* \"#utility.yul\":7907:8101   */\n    tag_217:\n        /* \"#utility.yul\":8016:8027   */\n      0x00\n        /* \"#utility.yul\":8050:8056   */\n      dup3\n        /* \"#utility.yul\":8045:8048   */\n      dup3\n        /* \"#utility.yul\":8038:8057   */\n      mstore\n        /* \"#utility.yul\":8090:8094   */\n      0x20\n        /* \"#utility.yul\":8085:8088   */\n      dup3\n        /* \"#utility.yul\":8081:8095   */\n      add\n        /* \"#utility.yul\":8066:8095   */\n      swap1\n      pop\n        /* \"#utility.yul\":7907:8101   */\n      swap3\n      swap2\n      pop\n      pop\n      jump\t// out\n        /* \"#utility.yul\":8107:8249   */\n    tag_218:\n        /* \"#utility.yul\":8184:8188   */\n      0x00\n        /* \"#utility.yul\":8207:8210   */\n      dup2\n        /* \"#utility.yul\":8199:8210   */\n      swap1\n      pop\n        /* \"#utility.yul\":8237:8241   */\n      0x20\n        /* \"#utility.yul\":8232:8235   */\n      dup3\n        /* \"#utility.yul\":8228:8242   */\n      add\n        /* \"#utility.yul\":8220:8242   */\n      swap1\n      pop\n        /* \"#utility.yul\":8107:8249   */\n      swap2\n      swap1\n      pop\n      jump\t// out\n        /* \"#utility.yul\":8255:8354   */\n    tag_219:\n        /* \"#utility.yul\":8307:8313   */\n      0x00\n        /* \"#utility.yul\":8341:8346   */\n      dup2\n        /* \"#utility.yul\":8335:8347   */\n      mload\n        /* \"#utility.yul\":8325:8347   */\n      swap1\n      pop\n        /* \"#utility.yul\":8255:8354   */\n      swap2\n      swap1\n      pop\n      jump\t// out\n        /* \"#utility.yul\":8360:8519   */\n    tag_220:\n        /* \"#utility.yul\":8434:8445   */\n      0x00\n        /* \"#utility.yul\":8468:8474   */\n      dup3\n        /* \"#utility.yul\":8463:8466   */\n      dup3\n        /* \"#utility.yul\":8456:8475   */\n      mstore\n        /* \"#utility.yul\":8508:8512   */\n      0x20\n        /* \"#utility.yul\":8503:8506   */\n      dup3\n        /* \"#utility.yul\":8499:8513   */\n      add\n        /* \"#utility.yul\":8484:8513   */\n      swap1\n      pop\n        /* \"#utility.yul\":8360:8519   */\n      swap3\n      swap2\n      pop\n      pop\n      jump\t// out\n        /* \"#utility.yul\":8525:8771   */\n    tag_221:\n        /* \"#utility.yul\":8606:8607   */\n      0x00\n        /* \"#utility.yul\":8616:8729   */\n    tag_353:\n        /* \"#utility.yul\":8630:8636   */\n      dup4\n        /* \"#utility.yul\":8627:8628   */\n      dup2\n        /* \"#utility.yul\":8624:8637   */\n      lt\n        /* \"#utility.yul\":8616:8729   */\n      iszero\n      tag_355\n      jumpi\n        /* \"#utility.yul\":8715:8716   */\n      dup1\n        /* \"#utility.yul\":8710:8713   */\n      dup3\n        /* \"#utility.yul\":8706:8717   */\n      add\n        /* \"#utility.yul\":8700:8718   */\n      mload\n        /* \"#utility.yul\":8696:8697   */\n      dup2\n        /* \"#utility.yul\":8691:8694   */\n      dup5\n        /* \"#utility.yul\":8687:8698   */\n      add\n        /* \"#utility.yul\":8680:8719   */\n      mstore\n        /* \"#utility.yul\":8652:8654   */\n      0x20\n        /* \"#utility.yul\":8649:8650   */\n      dup2\n        /* \"#utility.yul\":8645:8655   */\n      add\n        /* \"#utility.yul\":8640:8655   */\n      swap1\n      pop\n        /* \"#utility.yul\":8616:8729   */\n      jump(tag_353)\n    tag_355:\n        /* \"#utility.yul\":8763:8764   */\n      0x00\n        /* \"#utility.yul\":8754:8760   */\n      dup5\n        /* \"#utility.yul\":8749:8752   */\n      dup5\n        /* \"#utility.yul\":8745:8761   */\n      add\n        /* \"#utility.yul\":8738:8765   */\n      mstore\n        /* \"#utility.yul\":8587:8771   */\n      pop\n        /* \"#utility.yul\":8525:8771   */\n      pop\n      pop\n      pop\n      jump\t// out\n        /* \"#utility.yul\":8777:9134   */\n    tag_222:\n        /* \"#utility.yul\":8855:8858   */\n      0x00\n        /* \"#utility.yul\":8883:8922   */\n      tag_357\n        /* \"#utility.yul\":8916:8921   */\n      dup3\n        /* \"#utility.yul\":8883:8922   */\n      tag_219\n      jump\t// in\n    tag_357:\n        /* \"#utility.yul\":8938:8999   */\n      tag_358\n        /* \"#utility.yul\":8992:8998   */\n      dup2\n        /* \"#utility.yul\":8987:8990   */\n      dup6\n        /* \"#utility.yul\":8938:8999   */\n      tag_220\n      jump\t// in\n    tag_358:\n        /* \"#utility.yul\":8931:8999   */\n      swap4\n      pop\n        /* \"#utility.yul\":9008:9073   */\n      tag_359\n        /* \"#utility.yul\":9066:9072   */\n      dup2\n        /* \"#utility.yul\":9061:9064   */\n      dup6\n        /* \"#utility.yul\":9054:9058   */\n      0x20\n        /* \"#utility.yul\":9047:9052   */\n      dup7\n        /* \"#utility.yul\":9043:9059   */\n      add\n        /* \"#utility.yul\":9008:9073   */\n      tag_221\n      jump\t// in\n    tag_359:\n        /* \"#utility.yul\":9098:9127   */\n      tag_360\n        /* \"#utility.yul\":9120:9126   */\n      dup2\n        /* \"#utility.yul\":9098:9127   */\n      tag_201\n      jump\t// in\n    tag_360:\n        /* \"#utility.yul\":9093:9096   */\n      dup5\n        /* \"#utility.yul\":9089:9128   */\n      add\n        /* \"#utility.yul\":9082:9128   */\n      swap2\n      pop\n        /* \"#utility.yul\":8859:9134   */\n      pop\n        /* \"#utility.yul\":8777:9134   */\n      swap3\n      swap2\n      pop\n      pop\n      jump\t// out\n        /* \"#utility.yul\":9140:9336   */\n    tag_223:\n        /* \"#utility.yul\":9229:9239   */\n      0x00\n        /* \"#utility.yul\":9264:9330   */\n      tag_362\n        /* \"#utility.yul\":9326:9329   */\n      dup4\n        /* \"#utility.yul\":9318:9324   */\n      dup4\n        /* \"#utility.yul\":9264:9330   */\n      tag_222\n      jump\t// in\n    tag_362:\n        /* \"#utility.yul\":9250:9330   */\n      swap1\n      pop\n        /* \"#utility.yul\":9140:9336   */\n      swap3\n      swap2\n      pop\n      pop\n      jump\t// out\n        /* \"#utility.yul\":9342:9465   */\n    tag_224:\n        /* \"#utility.yul\":9422:9426   */\n      0x00\n        /* \"#utility.yul\":9454:9458   */\n      0x20\n        /* \"#utility.yul\":9449:9452   */\n      dup3\n        /* \"#utility.yul\":9445:9459   */\n      add\n        /* \"#utility.yul\":9437:9459   */\n      swap1\n      pop\n        /* \"#utility.yul\":9342:9465   */\n      swap2\n      swap1\n      pop\n      jump\t// out\n        /* \"#utility.yul\":9499:10490   */\n    tag_225:\n        /* \"#utility.yul\":9638:9641   */\n      0x00\n        /* \"#utility.yul\":9667:9731   */\n      tag_365\n        /* \"#utility.yul\":9725:9730   */\n      dup3\n        /* \"#utility.yul\":9667:9731   */\n      tag_216\n      jump\t// in\n    tag_365:\n        /* \"#utility.yul\":9747:9843   */\n      tag_366\n        /* \"#utility.yul\":9836:9842   */\n      dup2\n        /* \"#utility.yul\":9831:9834   */\n      dup6\n        /* \"#utility.yul\":9747:9843   */\n      tag_217\n      jump\t// in\n    tag_366:\n        /* \"#utility.yul\":9740:9843   */\n      swap4\n      pop\n        /* \"#utility.yul\":9869:9872   */\n      dup4\n        /* \"#utility.yul\":9914:9918   */\n      0x20\n        /* \"#utility.yul\":9906:9912   */\n      dup3\n        /* \"#utility.yul\":9902:9919   */\n      mul\n        /* \"#utility.yul\":9897:9900   */\n      dup6\n        /* \"#utility.yul\":9893:9920   */\n      add\n        /* \"#utility.yul\":9944:10010   */\n      tag_367\n        /* \"#utility.yul\":10004:10009   */\n      dup6\n        /* \"#utility.yul\":9944:10010   */\n      tag_218\n      jump\t// in\n    tag_367:\n        /* \"#utility.yul\":10033:10040   */\n      dup1\n        /* \"#utility.yul\":10064:10065   */\n      0x00\n        /* \"#utility.yul\":10049:10445   */\n    tag_368:\n        /* \"#utility.yul\":10074:10080   */\n      dup6\n        /* \"#utility.yul\":10071:10072   */\n      dup2\n        /* \"#utility.yul\":10068:10081   */\n      lt\n        /* \"#utility.yul\":10049:10445   */\n      iszero\n      tag_370\n      jumpi\n        /* \"#utility.yul\":10145:10154   */\n      dup5\n        /* \"#utility.yul\":10139:10143   */\n      dup5\n        /* \"#utility.yul\":10135:10155   */\n      sub\n        /* \"#utility.yul\":10130:10133   */\n      dup10\n        /* \"#utility.yul\":10123:10156   */\n      mstore\n        /* \"#utility.yul\":10196:10202   */\n      dup2\n        /* \"#utility.yul\":10190:10203   */\n      mload\n        /* \"#utility.yul\":10224:10308   */\n      tag_371\n        /* \"#utility.yul\":10303:10307   */\n      dup6\n        /* \"#utility.yul\":10288:10301   */\n      dup3\n        /* \"#utility.yul\":10224:10308   */\n      tag_223\n      jump\t// in\n    tag_371:\n        /* \"#utility.yul\":10216:10308   */\n      swap5\n      pop\n        /* \"#utility.yul\":10331:10401   */\n      tag_372\n        /* \"#utility.yul\":10394:10400   */\n      dup4\n        /* \"#utility.yul\":10331:10401   */\n      tag_224\n      jump\t// in\n    tag_372:\n        /* \"#utility.yul\":10321:10401   */\n      swap3\n      pop\n        /* \"#utility.yul\":10430:10434   */\n      0x20\n        /* \"#utility.yul\":10425:10428   */\n      dup11\n        /* \"#utility.yul\":10421:10435   */\n      add\n        /* \"#utility.yul\":10414:10435   */\n      swap10\n      pop\n        /* \"#utility.yul\":10109:10445   */\n      pop\n        /* \"#utility.yul\":10096:10097   */\n      0x01\n        /* \"#utility.yul\":10093:10094   */\n      dup2\n        /* \"#utility.yul\":10089:10098   */\n      add\n        /* \"#utility.yul\":10084:10098   */\n      swap1\n      pop\n        /* \"#utility.yul\":10049:10445   */\n      jump(tag_368)\n    tag_370:\n        /* \"#utility.yul\":10053:10067   */\n      pop\n        /* \"#utility.yul\":10461:10465   */\n      dup3\n        /* \"#utility.yul\":10454:10465   */\n      swap8\n      pop\n        /* \"#utility.yul\":10481:10484   */\n      dup8\n        /* \"#utility.yul\":10474:10484   */\n      swap6\n      pop\n        /* \"#utility.yul\":9643:10490   */\n      pop\n      pop\n      pop\n      pop\n      pop\n        /* \"#utility.yul\":9499:10490   */\n      swap3\n      swap2\n      pop\n      pop\n      jump\t// out\n        /* \"#utility.yul\":10496:11210   */\n    tag_33:\n        /* \"#utility.yul\":10757:10761   */\n      0x00\n        /* \"#utility.yul\":10795:10797   */\n      0x40\n        /* \"#utility.yul\":10784:10793   */\n      dup3\n        /* \"#utility.yul\":10780:10798   */\n      add\n        /* \"#utility.yul\":10772:10798   */\n      swap1\n      pop\n        /* \"#utility.yul\":10844:10853   */\n      dup2\n        /* \"#utility.yul\":10838:10842   */\n      dup2\n        /* \"#utility.yul\":10834:10854   */\n      sub\n        /* \"#utility.yul\":10830:10831   */\n      0x00\n        /* \"#utility.yul\":10819:10828   */\n      dup4\n        /* \"#utility.yul\":10815:10832   */\n      add\n        /* \"#utility.yul\":10808:10855   */\n      mstore\n        /* \"#utility.yul\":10872:11000   */\n      tag_374\n        /* \"#utility.yul\":10995:10999   */\n      dup2\n        /* \"#utility.yul\":10986:10992   */\n      dup6\n        /* \"#utility.yul\":10872:11000   */\n      tag_225\n      jump\t// in\n    tag_374:\n        /* \"#utility.yul\":10864:11000   */\n      swap1\n      pop\n        /* \"#utility.yul\":11047:11056   */\n      dup2\n        /* \"#utility.yul\":11041:11045   */\n      dup2\n        /* \"#utility.yul\":11037:11057   */\n      sub\n        /* \"#utility.yul\":11032:11034   */\n      0x20\n        /* \"#utility.yul\":11021:11030   */\n      dup4\n        /* \"#utility.yul\":11017:11035   */\n      add\n        /* \"#utility.yul\":11010:11058   */\n      mstore\n        /* \"#utility.yul\":11075:11203   */\n      tag_375\n        /* \"#utility.yul\":11198:11202   */\n      dup2\n        /* \"#utility.yul\":11189:11195   */\n      dup5\n        /* \"#utility.yul\":11075:11203   */\n      tag_225\n      jump\t// in\n    tag_375:\n        /* \"#utility.yul\":11067:11203   */\n      swap1\n      pop\n        /* \"#utility.yul\":10496:11210   */\n      swap4\n      swap3\n      pop\n      pop\n      pop\n      jump\t// out\n        /* \"#utility.yul\":11216:11330   */\n    tag_226:\n        /* \"#utility.yul\":11283:11289   */\n      0x00\n        /* \"#utility.yul\":11317:11322   */\n      dup2\n        /* \"#utility.yul\":11311:11323   */\n      mload\n        /* \"#utility.yul\":11301:11323   */\n      swap1\n      pop\n        /* \"#utility.yul\":11216:11330   */\n      swap2\n      swap1\n      pop\n      jump\t// out\n        /* \"#utility.yul\":11336:11520   */\n    tag_227:\n        /* \"#utility.yul\":11435:11446   */\n      0x00\n        /* \"#utility.yul\":11469:11475   */\n      dup3\n        /* \"#utility.yul\":11464:11467   */\n      dup3\n        /* \"#utility.yul\":11457:11476   */\n      mstore\n        /* \"#utility.yul\":11509:11513   */\n      0x20\n        /* \"#utility.yul\":11504:11507   */\n      dup3\n        /* \"#utility.yul\":11500:11514   */\n      add\n        /* \"#utility.yul\":11485:11514   */\n      swap1\n      pop\n        /* \"#utility.yul\":11336:11520   */\n      swap3\n      swap2\n      pop\n      pop\n      jump\t// out\n        /* \"#utility.yul\":11526:11658   */\n    tag_228:\n        /* \"#utility.yul\":11593:11597   */\n      0x00\n        /* \"#utility.yul\":11616:11619   */\n      dup2\n        /* \"#utility.yul\":11608:11619   */\n      swap1\n      pop\n        /* \"#utility.yul\":11646:11650   */\n      0x20\n        /* \"#utility.yul\":11641:11644   */\n      dup3\n        /* \"#utility.yul\":11637:11651   */\n      add\n        /* \"#utility.yul\":11629:11651   */\n      swap1\n      pop\n        /* \"#utility.yul\":11526:11658   */\n      swap2\n      swap1\n      pop\n      jump\t// out\n        /* \"#utility.yul\":11664:11772   */\n    tag_229:\n        /* \"#utility.yul\":11741:11765   */\n      tag_380\n        /* \"#utility.yul\":11759:11764   */\n      dup2\n        /* \"#utility.yul\":11741:11765   */\n      tag_197\n      jump\t// in\n    tag_380:\n        /* \"#utility.yul\":11736:11739   */\n      dup3\n        /* \"#utility.yul\":11729:11766   */\n      mstore\n        /* \"#utility.yul\":11664:11772   */\n      pop\n      pop\n      jump\t// out\n        /* \"#utility.yul\":11778:11957   */\n    tag_230:\n        /* \"#utility.yul\":11847:11857   */\n      0x00\n        /* \"#utility.yul\":11868:11914   */\n      tag_382\n        /* \"#utility.yul\":11910:11913   */\n      dup4\n        /* \"#utility.yul\":11902:11908   */\n      dup4\n        /* \"#utility.yul\":11868:11914   */\n      tag_229\n      jump\t// in\n    tag_382:\n        /* \"#utility.yul\":11946:11950   */\n      0x20\n        /* \"#utility.yul\":11941:11944   */\n      dup4\n        /* \"#utility.yul\":11937:11951   */\n      add\n        /* \"#utility.yul\":11923:11951   */\n      swap1\n      pop\n        /* \"#utility.yul\":11778:11957   */\n      swap3\n      swap2\n      pop\n      pop\n      jump\t// out\n        /* \"#utility.yul\":11963:12076   */\n    tag_231:\n        /* \"#utility.yul\":12033:12037   */\n      0x00\n        /* \"#utility.yul\":12065:12069   */\n      0x20\n        /* \"#utility.yul\":12060:12063   */\n      dup3\n        /* \"#utility.yul\":12056:12070   */\n      add\n        /* \"#utility.yul\":12048:12070   */\n      swap1\n      pop\n        /* \"#utility.yul\":11963:12076   */\n      swap2\n      swap1\n      pop\n      jump\t// out\n        /* \"#utility.yul\":12112:12844   */\n    tag_232:\n        /* \"#utility.yul\":12231:12234   */\n      0x00\n        /* \"#utility.yul\":12260:12314   */\n      tag_385\n        /* \"#utility.yul\":12308:12313   */\n      dup3\n        /* \"#utility.yul\":12260:12314   */\n      tag_226\n      jump\t// in\n    tag_385:\n        /* \"#utility.yul\":12330:12416   */\n      tag_386\n        /* \"#utility.yul\":12409:12415   */\n      dup2\n        /* \"#utility.yul\":12404:12407   */\n      dup6\n        /* \"#utility.yul\":12330:12416   */\n      tag_227\n      jump\t// in\n    tag_386:\n        /* \"#utility.yul\":12323:12416   */\n      swap4\n      pop\n        /* \"#utility.yul\":12440:12496   */\n      tag_387\n        /* \"#utility.yul\":12490:12495   */\n      dup4\n        /* \"#utility.yul\":12440:12496   */\n      tag_228\n      jump\t// in\n    tag_387:\n        /* \"#utility.yul\":12519:12526   */\n      dup1\n        /* \"#utility.yul\":12550:12551   */\n      0x00\n        /* \"#utility.yul\":12535:12819   */\n    tag_388:\n        /* \"#utility.yul\":12560:12566   */\n      dup4\n        /* \"#utility.yul\":12557:12558   */\n      dup2\n        /* \"#utility.yul\":12554:12567   */\n      lt\n        /* \"#utility.yul\":12535:12819   */\n      iszero\n      tag_390\n      jumpi\n        /* \"#utility.yul\":12636:12642   */\n      dup2\n        /* \"#utility.yul\":12630:12643   */\n      mload\n        /* \"#utility.yul\":12663:12726   */\n      tag_391\n        /* \"#utility.yul\":12722:12725   */\n      dup9\n        /* \"#utility.yul\":12707:12720   */\n      dup3\n        /* \"#utility.yul\":12663:12726   */\n      tag_230\n      jump\t// in\n    tag_391:\n        /* \"#utility.yul\":12656:12726   */\n      swap8\n      pop\n        /* \"#utility.yul\":12749:12809   */\n      tag_392\n        /* \"#utility.yul\":12802:12808   */\n      dup4\n        /* \"#utility.yul\":12749:12809   */\n      tag_231\n      jump\t// in\n    tag_392:\n        /* \"#utility.yul\":12739:12809   */\n      swap3\n      pop\n        /* \"#utility.yul\":12595:12819   */\n      pop\n        /* \"#utility.yul\":12582:12583   */\n      0x01\n        /* \"#utility.yul\":12579:12580   */\n      dup2\n        /* \"#utility.yul\":12575:12584   */\n      add\n        /* \"#utility.yul\":12570:12584   */\n      swap1\n      pop\n        /* \"#utility.yul\":12535:12819   */\n      jump(tag_388)\n    tag_390:\n        /* \"#utility.yul\":12539:12553   */\n      pop\n        /* \"#utility.yul\":12835:12838   */\n      dup6\n        /* \"#utility.yul\":12828:12838   */\n      swap4\n      pop\n        /* \"#utility.yul\":12236:12844   */\n      pop\n      pop\n      pop\n        /* \"#utility.yul\":12112:12844   */\n      swap3\n      swap2\n      pop\n      pop\n      jump\t// out\n        /* \"#utility.yul\":12850:13223   */\n    tag_40:\n        /* \"#utility.yul\":12993:12997   */\n      0x00\n        /* \"#utility.yul\":13031:13033   */\n      0x20\n        /* \"#utility.yul\":13020:13029   */\n      dup3\n        /* \"#utility.yul\":13016:13034   */\n      add\n        /* \"#utility.yul\":13008:13034   */\n      swap1\n      pop\n        /* \"#utility.yul\":13080:13089   */\n      dup2\n        /* \"#utility.yul\":13074:13078   */\n      dup2\n        /* \"#utility.yul\":13070:13090   */\n      sub\n        /* \"#utility.yul\":13066:13067   */\n      0x00\n        /* \"#utility.yul\":13055:13064   */\n      dup4\n        /* \"#utility.yul\":13051:13068   */\n      add\n        /* \"#utility.yul\":13044:13091   */\n      mstore\n        /* \"#utility.yul\":13108:13216   */\n      tag_394\n        /* \"#utility.yul\":13211:13215   */\n      dup2\n        /* \"#utility.yul\":13202:13208   */\n      dup5\n        /* \"#utility.yul\":13108:13216   */\n      tag_232\n      jump\t// in\n    tag_394:\n        /* \"#utility.yul\":13100:13216   */\n      swap1\n      pop\n        /* \"#utility.yul\":12850:13223   */\n      swap3\n      swap2\n      pop\n      pop\n      jump\t// out\n        /* \"#utility.yul\":13229:13398   */\n    tag_233:\n        /* \"#utility.yul\":13313:13324   */\n      0x00\n        /* \"#utility.yul\":13347:13353   */\n      dup3\n        /* \"#utility.yul\":13342:13345   */\n      dup3\n        /* \"#utility.yul\":13335:13354   */\n      mstore\n        /* \"#utility.yul\":13387:13391   */\n      0x20\n        /* \"#utility.yul\":13382:13385   */\n      dup3\n        /* \"#utility.yul\":13378:13392   */\n      add\n        /* \"#utility.yul\":13363:13392   */\n      swap1\n      pop\n        /* \"#utility.yul\":13229:13398   */\n      swap3\n      swap2\n      pop\n      pop\n      jump\t// out\n        /* \"#utility.yul\":13404:13578   */\n    tag_234:\n        /* \"#utility.yul\":13544:13570   */\n      0x5b4552524f525d204944206e6f7420617661696c61626c650000000000000000\n        /* \"#utility.yul\":13540:13541   */\n      0x00\n        /* \"#utility.yul\":13532:13538   */\n      dup3\n        /* \"#utility.yul\":13528:13542   */\n      add\n        /* \"#utility.yul\":13521:13571   */\n      mstore\n        /* \"#utility.yul\":13404:13578   */\n      pop\n      jump\t// out\n        /* \"#utility.yul\":13584:13950   */\n    tag_235:\n        /* \"#utility.yul\":13726:13729   */\n      0x00\n        /* \"#utility.yul\":13747:13814   */\n      tag_398\n        /* \"#utility.yul\":13811:13813   */\n      0x18\n        /* \"#utility.yul\":13806:13809   */\n      dup4\n        /* \"#utility.yul\":13747:13814   */\n      tag_233\n      jump\t// in\n    tag_398:\n        /* \"#utility.yul\":13740:13814   */\n      swap2\n      pop\n        /* \"#utility.yul\":13823:13916   */\n      tag_399\n        /* \"#utility.yul\":13912:13915   */\n      dup3\n        /* \"#utility.yul\":13823:13916   */\n      tag_234\n      jump\t// in\n    tag_399:\n        /* \"#utility.yul\":13941:13943   */\n      0x20\n        /* \"#utility.yul\":13936:13939   */\n      dup3\n        /* \"#utility.yul\":13932:13944   */\n      add\n        /* \"#utility.yul\":13925:13944   */\n      swap1\n      pop\n        /* \"#utility.yul\":13584:13950   */\n      swap2\n      swap1\n      pop\n      jump\t// out\n        /* \"#utility.yul\":13956:14375   */\n    tag_44:\n        /* \"#utility.yul\":14122:14126   */\n      0x00\n        /* \"#utility.yul\":14160:14162   */\n      0x20\n        /* \"#utility.yul\":14149:14158   */\n      dup3\n        /* \"#utility.yul\":14145:14163   */\n      add\n        /* \"#utility.yul\":14137:14163   */\n      swap1\n      pop\n        /* \"#utility.yul\":14209:14218   */\n      dup2\n        /* \"#utility.yul\":14203:14207   */\n      dup2\n        /* \"#utility.yul\":14199:14219   */\n      sub\n        /* \"#utility.yul\":14195:14196   */\n      0x00\n        /* \"#utility.yul\":14184:14193   */\n      dup4\n        /* \"#utility.yul\":14180:14197   */\n      add\n        /* \"#utility.yul\":14173:14220   */\n      mstore\n        /* \"#utility.yul\":14237:14368   */\n      tag_401\n        /* \"#utility.yul\":14363:14367   */\n      dup2\n        /* \"#utility.yul\":14237:14368   */\n      tag_235\n      jump\t// in\n    tag_401:\n        /* \"#utility.yul\":14229:14368   */\n      swap1\n      pop\n        /* \"#utility.yul\":13956:14375   */\n      swap2\n      swap1\n      pop\n      jump\t// out\n        /* \"#utility.yul\":14381:14624   */\n    tag_236:\n        /* \"#utility.yul\":14521:14555   */\n      0x5b4552524f525d20546865206c656e677468206f6620746865206b6579732061\n        /* \"#utility.yul\":14517:14518   */\n      0x00\n        /* \"#utility.yul\":14509:14515   */\n      dup3\n        /* \"#utility.yul\":14505:14519   */\n      add\n        /* \"#utility.yul\":14498:14556   */\n      mstore\n        /* \"#utility.yul\":14590:14616   */\n      0x6e642076616c75657320617265206e6f746520657175616c0000000000000000\n        /* \"#utility.yul\":14585:14587   */\n      0x20\n        /* \"#utility.yul\":14577:14583   */\n      dup3\n        /* \"#utility.yul\":14573:14588   */\n      add\n        /* \"#utility.yul\":14566:14617   */\n      mstore\n        /* \"#utility.yul\":14381:14624   */\n      pop\n      jump\t// out\n        /* \"#utility.yul\":14630:14996   */\n    tag_237:\n        /* \"#utility.yul\":14772:14775   */\n      0x00\n        /* \"#utility.yul\":14793:14860   */\n      tag_404\n        /* \"#utility.yul\":14857:14859   */\n      0x38\n        /* \"#utility.yul\":14852:14855   */\n      dup4\n        /* \"#utility.yul\":14793:14860   */\n      tag_233\n      jump\t// in\n    tag_404:\n        /* \"#utility.yul\":14786:14860   */\n      swap2\n      pop\n        /* \"#utility.yul\":14869:14962   */\n      tag_405\n        /* \"#utility.yul\":14958:14961   */\n      dup3\n        /* \"#utility.yul\":14869:14962   */\n      tag_236\n      jump\t// in\n    tag_405:\n        /* \"#utility.yul\":14987:14989   */\n      0x40\n        /* \"#utility.yul\":14982:14985   */\n      dup3\n        /* \"#utility.yul\":14978:14990   */\n      add\n        /* \"#utility.yul\":14971:14990   */\n      swap1\n      pop\n        /* \"#utility.yul\":14630:14996   */\n      swap2\n      swap1\n      pop\n      jump\t// out\n        /* \"#utility.yul\":15002:15421   */\n    tag_48:\n        /* \"#utility.yul\":15168:15172   */\n      0x00\n        /* \"#utility.yul\":15206:15208   */\n      0x20\n        /* \"#utility.yul\":15195:15204   */\n      dup3\n        /* \"#utility.yul\":15191:15209   */\n      add\n        /* \"#utility.yul\":15183:15209   */\n      swap1\n      pop\n        /* \"#utility.yul\":15255:15264   */\n      dup2\n        /* \"#utility.yul\":15249:15253   */\n      dup2\n        /* \"#utility.yul\":15245:15265   */\n      sub\n        /* \"#utility.yul\":15241:15242   */\n      0x00\n        /* \"#utility.yul\":15230:15239   */\n      dup4\n        /* \"#utility.yul\":15226:15243   */\n      add\n        /* \"#utility.yul\":15219:15266   */\n      mstore\n        /* \"#utility.yul\":15283:15414   */\n      tag_407\n        /* \"#utility.yul\":15409:15413   */\n      dup2\n        /* \"#utility.yul\":15283:15414   */\n      tag_237\n      jump\t// in\n    tag_407:\n        /* \"#utility.yul\":15275:15414   */\n      swap1\n      pop\n        /* \"#utility.yul\":15002:15421   */\n      swap2\n      swap1\n      pop\n      jump\t// out\n        /* \"#utility.yul\":15427:15607   */\n    tag_54:\n        /* \"#utility.yul\":15475:15552   */\n      0x4e487b7100000000000000000000000000000000000000000000000000000000\n        /* \"#utility.yul\":15472:15473   */\n      0x00\n        /* \"#utility.yul\":15465:15553   */\n      mstore\n        /* \"#utility.yul\":15572:15576   */\n      0x32\n        /* \"#utility.yul\":15569:15570   */\n      0x04\n        /* \"#utility.yul\":15562:15577   */\n      mstore\n        /* \"#utility.yul\":15596:15600   */\n      0x24\n        /* \"#utility.yul\":15593:15594   */\n      0x00\n        /* \"#utility.yul\":15586:15601   */\n      revert\n        /* \"#utility.yul\":15613:15761   */\n    tag_238:\n        /* \"#utility.yul\":15715:15726   */\n      0x00\n        /* \"#utility.yul\":15752:15755   */\n      dup2\n        /* \"#utility.yul\":15737:15755   */\n      swap1\n      pop\n        /* \"#utility.yul\":15613:15761   */\n      swap3\n      swap2\n      pop\n      pop\n      jump\t// out\n        /* \"#utility.yul\":15767:16157   */\n    tag_239:\n        /* \"#utility.yul\":15873:15876   */\n      0x00\n        /* \"#utility.yul\":15901:15940   */\n      tag_411\n        /* \"#utility.yul\":15934:15939   */\n      dup3\n        /* \"#utility.yul\":15901:15940   */\n      tag_219\n      jump\t// in\n    tag_411:\n        /* \"#utility.yul\":15956:16045   */\n      tag_412\n        /* \"#utility.yul\":16038:16044   */\n      dup2\n        /* \"#utility.yul\":16033:16036   */\n      dup6\n        /* \"#utility.yul\":15956:16045   */\n      tag_238\n      jump\t// in\n    tag_412:\n        /* \"#utility.yul\":15949:16045   */\n      swap4\n      pop\n        /* \"#utility.yul\":16054:16119   */\n      tag_413\n        /* \"#utility.yul\":16112:16118   */\n      dup2\n        /* \"#utility.yul\":16107:16110   */\n      dup6\n        /* \"#utility.yul\":16100:16104   */\n      0x20\n        /* \"#utility.yul\":16093:16098   */\n      dup7\n        /* \"#utility.yul\":16089:16105   */\n      add\n        /* \"#utility.yul\":16054:16119   */\n      tag_221\n      jump\t// in\n    tag_413:\n        /* \"#utility.yul\":16144:16150   */\n      dup1\n        /* \"#utility.yul\":16139:16142   */\n      dup5\n        /* \"#utility.yul\":16135:16151   */\n      add\n        /* \"#utility.yul\":16128:16151   */\n      swap2\n      pop\n        /* \"#utility.yul\":15877:16157   */\n      pop\n        /* \"#utility.yul\":15767:16157   */\n      swap3\n      swap2\n      pop\n      pop\n      jump\t// out\n        /* \"#utility.yul\":16163:16438   */\n    tag_58:\n        /* \"#utility.yul\":16295:16298   */\n      0x00\n        /* \"#utility.yul\":16317:16412   */\n      tag_415\n        /* \"#utility.yul\":16408:16411   */\n      dup3\n        /* \"#utility.yul\":16399:16405   */\n      dup5\n        /* \"#utility.yul\":16317:16412   */\n      tag_239\n      jump\t// in\n    tag_415:\n        /* \"#utility.yul\":16310:16412   */\n      swap2\n      pop\n        /* \"#utility.yul\":16429:16432   */\n      dup2\n        /* \"#utility.yul\":16422:16432   */\n      swap1\n      pop\n        /* \"#utility.yul\":16163:16438   */\n      swap3\n      swap2\n      pop\n      pop\n      jump\t// out\n        /* \"#utility.yul\":16444:16624   */\n    tag_240:\n        /* \"#utility.yul\":16492:16569   */\n      0x4e487b7100000000000000000000000000000000000000000000000000000000\n        /* \"#utility.yul\":16489:16490   */\n      0x00\n        /* \"#utility.yul\":16482:16570   */\n      mstore\n        /* \"#utility.yul\":16589:16593   */\n      0x22\n        /* \"#utility.yul\":16586:16587   */\n      0x04\n        /* \"#utility.yul\":16579:16594   */\n      mstore\n        /* \"#utility.yul\":16613:16617   */\n      0x24\n        /* \"#utility.yul\":16610:16611   */\n      0x00\n        /* \"#utility.yul\":16603:16618   */\n      revert\n        /* \"#utility.yul\":16630:16950   */\n    tag_75:\n        /* \"#utility.yul\":16674:16680   */\n      0x00\n        /* \"#utility.yul\":16711:16712   */\n      0x02\n        /* \"#utility.yul\":16705:16709   */\n      dup3\n        /* \"#utility.yul\":16701:16713   */\n      div\n        /* \"#utility.yul\":16691:16713   */\n      swap1\n      pop\n        /* \"#utility.yul\":16758:16759   */\n      0x01\n        /* \"#utility.yul\":16752:16756   */\n      dup3\n        /* \"#utility.yul\":16748:16760   */\n      and\n        /* \"#utility.yul\":16779:16797   */\n      dup1\n        /* \"#utility.yul\":16769:16850   */\n      tag_418\n      jumpi\n        /* \"#utility.yul\":16835:16839   */\n      0x7f\n        /* \"#utility.yul\":16827:16833   */\n      dup3\n        /* \"#utility.yul\":16823:16840   */\n      and\n        /* \"#utility.yul\":16813:16840   */\n      swap2\n      pop\n        /* \"#utility.yul\":16769:16850   */\n    tag_418:\n        /* \"#utility.yul\":16897:16899   */\n      0x20\n        /* \"#utility.yul\":16889:16895   */\n      dup3\n        /* \"#utility.yul\":16886:16900   */\n      lt\n        /* \"#utility.yul\":16866:16884   */\n      dup2\n        /* \"#utility.yul\":16863:16901   */\n      sub\n        /* \"#utility.yul\":16860:16944   */\n      tag_419\n      jumpi\n        /* \"#utility.yul\":16916:16934   */\n      tag_420\n      tag_240\n      jump\t// in\n    tag_420:\n        /* \"#utility.yul\":16860:16944   */\n    tag_419:\n        /* \"#utility.yul\":16681:16950   */\n      pop\n        /* \"#utility.yul\":16630:16950   */\n      swap2\n      swap1\n      pop\n      jump\t// out\n        /* \"#utility.yul\":16956:17097   */\n    tag_241:\n        /* \"#utility.yul\":17005:17009   */\n      0x00\n        /* \"#utility.yul\":17028:17031   */\n      dup2\n        /* \"#utility.yul\":17020:17031   */\n      swap1\n      pop\n        /* \"#utility.yul\":17051:17054   */\n      dup2\n        /* \"#utility.yul\":17048:17049   */\n      0x00\n        /* \"#utility.yul\":17041:17055   */\n      mstore\n        /* \"#utility.yul\":17085:17089   */\n      0x20\n        /* \"#utility.yul\":17082:17083   */\n      0x00\n        /* \"#utility.yul\":17072:17090   */\n      keccak256\n        /* \"#utility.yul\":17064:17090   */\n      swap1\n      pop\n        /* \"#utility.yul\":16956:17097   */\n      swap2\n      swap1\n      pop\n      jump\t// out\n        /* \"#utility.yul\":17103:17196   */\n    tag_242:\n        /* \"#utility.yul\":17140:17146   */\n      0x00\n        /* \"#utility.yul\":17187:17189   */\n      0x20\n        /* \"#utility.yul\":17182:17184   */\n      0x1f\n        /* \"#utility.yul\":17175:17180   */\n      dup4\n        /* \"#utility.yul\":17171:17185   */\n      add\n        /* \"#utility.yul\":17167:17190   */\n      div\n        /* \"#utility.yul\":17157:17190   */\n      swap1\n      pop\n        /* \"#utility.yul\":17103:17196   */\n      swap2\n      swap1\n      pop\n      jump\t// out\n        /* \"#utility.yul\":17202:17309   */\n    tag_243:\n        /* \"#utility.yul\":17246:17254   */\n      0x00\n        /* \"#utility.yul\":17296:17301   */\n      dup3\n        /* \"#utility.yul\":17290:17294   */\n      dup3\n        /* \"#utility.yul\":17286:17302   */\n      shl\n        /* \"#utility.yul\":17265:17302   */\n      swap1\n      pop\n        /* \"#utility.yul\":17202:17309   */\n      swap3\n      swap2\n      pop\n      pop\n      jump\t// out\n        /* \"#utility.yul\":17315:17708   */\n    tag_244:\n        /* \"#utility.yul\":17384:17390   */\n      0x00\n        /* \"#utility.yul\":17434:17435   */\n      0x08\n        /* \"#utility.yul\":17422:17432   */\n      dup4\n        /* \"#utility.yul\":17418:17436   */\n      mul\n        /* \"#utility.yul\":17457:17554   */\n      tag_425\n        /* \"#utility.yul\":17487:17553   */\n      0xffffffffffffffffffffffffffffffffffffffffffffffffffffffffffffffff\n        /* \"#utility.yul\":17476:17485   */\n      dup3\n        /* \"#utility.yul\":17457:17554   */\n      tag_243\n      jump\t// in\n    tag_425:\n        /* \"#utility.yul\":17575:17614   */\n      tag_426\n        /* \"#utility.yul\":17605:17613   */\n      dup7\n        /* \"#utility.yul\":17594:17603   */\n      dup4\n        /* \"#utility.yul\":17575:17614   */\n      tag_243\n      jump\t// in\n    tag_426:\n        /* \"#utility.yul\":17563:17614   */\n      swap6\n      pop\n        /* \"#utility.yul\":17647:17651   */\n      dup1\n        /* \"#utility.yul\":17643:17652   */\n      not\n        /* \"#utility.yul\":17636:17641   */\n      dup5\n        /* \"#utility.yul\":17632:17653   */\n      and\n        /* \"#utility.yul\":17623:17653   */\n      swap4\n      pop\n        /* \"#utility.yul\":17696:17700   */\n      dup1\n        /* \"#utility.yul\":17686:17694   */\n      dup7\n        /* \"#utility.yul\":17682:17701   */\n      and\n        /* \"#utility.yul\":17675:17680   */\n      dup5\n        /* \"#utility.yul\":17672:17702   */\n      or\n        /* \"#utility.yul\":17662:17702   */\n      swap3\n      pop\n        /* \"#utility.yul\":17391:17708   */\n      pop\n      pop\n        /* \"#utility.yul\":17315:17708   */\n      swap4\n      swap3\n      pop\n      pop\n      pop\n      jump\t// out\n        /* \"#utility.yul\":17714:17774   */\n    tag_245:\n        /* \"#utility.yul\":17742:17745   */\n      0x00\n        /* \"#utility.yul\":17763:17768   */\n      dup2\n        /* \"#utility.yul\":17756:17768   */\n      swap1\n      pop\n        /* \"#utility.yul\":17714:17774   */\n      swap2\n      swap1\n      pop\n      jump\t// out\n        /* \"#utility.yul\":17780:17922   */\n    tag_246:\n        /* \"#utility.yul\":17830:17839   */\n      0x00\n        /* \"#utility.yul\":17863:17916   */\n      tag_429\n        /* \"#utility.yul\":17881:17915   */\n      tag_430\n        /* \"#utility.yul\":17890:17914   */\n      tag_431\n        /* \"#utility.yul\":17908:17913   */\n      dup5\n        /* \"#utility.yul\":17890:17914   */\n      tag_197\n      jump\t// in\n    tag_431:\n        /* \"#utility.yul\":17881:17915   */\n      tag_245\n      jump\t// in\n    tag_430:\n        /* \"#utility.yul\":17863:17916   */\n      tag_197\n      jump\t// in\n    tag_429:\n        /* \"#utility.yul\":17850:17916   */\n      swap1\n      pop\n        /* \"#utility.yul\":17780:17922   */\n      swap2\n      swap1\n      pop\n      jump\t// out\n        /* \"#utility.yul\":17928:18003   */\n    tag_247:\n        /* \"#utility.yul\":17971:17974   */\n      0x00\n        /* \"#utility.yul\":17992:17997   */\n      dup2\n        /* \"#utility.yul\":17985:17997   */\n      swap1\n      pop\n        /* \"#utility.yul\":17928:18003   */\n      swap2\n      swap1\n      pop\n      jump\t// out\n        /* \"#utility.yul\":18009:18278   */\n    tag_248:\n        /* \"#utility.yul\":18119:18158   */\n      tag_434\n        /* \"#utility.yul\":18150:18157   */\n      dup4\n        /* \"#utility.yul\":18119:18158   */\n      tag_246\n      jump\t// in\n    tag_434:\n        /* \"#utility.yul\":18180:18271   */\n      tag_435\n        /* \"#utility.yul\":18229:18270   */\n      tag_436\n        /* \"#utility.yul\":18253:18269   */\n      dup3\n        /* \"#utility.yul\":18229:18270   */\n      tag_247\n      jump\t// in\n    tag_436:\n        /* \"#utility.yul\":18221:18227   */\n      dup5\n        /* \"#utility.yul\":18214:18218   */\n      dup5\n        /* \"#utility.yul\":18208:18219   */\n      sload\n        /* \"#utility.yul\":18180:18271   */\n      tag_244\n      jump\t// in\n    tag_435:\n        /* \"#utility.yul\":18174:18178   */\n      dup3\n        /* \"#utility.yul\":18167:18272   */\n      sstore\n        /* \"#utility.yul\":18085:18278   */\n      pop\n        /* \"#utility.yul\":18009:18278   */\n      pop\n      pop\n      pop\n      jump\t// out\n        /* \"#utility.yul\":18284:18357   */\n    tag_249:\n        /* \"#utility.yul\":18329:18332   */\n      0x00\n        /* \"#utility.yul\":18284:18357   */\n      swap1\n      jump\t// out\n        /* \"#utility.yul\":18363:18552   */\n    tag_250:\n        /* \"#utility.yul\":18440:18472   */\n      tag_439\n      tag_249\n      jump\t// in\n    tag_439:\n        /* \"#utility.yul\":18481:18546   */\n      tag_440\n        /* \"#utility.yul\":18539:18545   */\n      dup2\n        /* \"#utility.yul\":18531:18537   */\n      dup5\n        /* \"#utility.yul\":18525:18529   */\n      dup5\n        /* \"#utility.yul\":18481:18546   */\n      tag_248\n      jump\t// in\n    tag_440:\n        /* \"#utility.yul\":18416:18552   */\n      pop\n        /* \"#utility.yul\":18363:18552   */\n      pop\n      pop\n      jump\t// out\n        /* \"#utility.yul\":18558:18744   */\n    tag_251:\n        /* \"#utility.yul\":18618:18738   */\n    tag_442:\n        /* \"#utility.yul\":18635:18638   */\n      dup2\n        /* \"#utility.yul\":18628:18633   */\n      dup2\n        /* \"#utility.yul\":18625:18639   */\n      lt\n        /* \"#utility.yul\":18618:18738   */\n      iszero\n      tag_444\n      jumpi\n        /* \"#utility.yul\":18689:18728   */\n      tag_445\n        /* \"#utility.yul\":18726:18727   */\n      0x00\n        /* \"#utility.yul\":18719:18724   */\n      dup3\n        /* \"#utility.yul\":18689:18728   */\n      tag_250\n      jump\t// in\n    tag_445:\n        /* \"#utility.yul\":18662:18663   */\n      0x01\n        /* \"#utility.yul\":18655:18660   */\n      dup2\n        /* \"#utility.yul\":18651:18664   */\n      add\n        /* \"#utility.yul\":18642:18664   */\n      swap1\n      pop\n        /* \"#utility.yul\":18618:18738   */\n      jump(tag_442)\n    tag_444:\n        /* \"#utility.yul\":18558:18744   */\n      pop\n      pop\n      jump\t// out\n        /* \"#utility.yul\":18750:19293   */\n    tag_252:\n        /* \"#utility.yul\":18851:18853   */\n      0x1f\n        /* \"#utility.yul\":18846:18849   */\n      dup3\n        /* \"#utility.yul\":18843:18854   */\n      gt\n        /* \"#utility.yul\":18840:19286   */\n      iszero\n      tag_447\n      jumpi\n        /* \"#utility.yul\":18885:18923   */\n      tag_448\n        /* \"#utility.yul\":18917:18922   */\n      dup2\n        /* \"#utility.yul\":18885:18923   */\n      tag_241\n      jump\t// in\n    tag_448:\n        /* \"#utility.yul\":18969:18998   */\n      tag_449\n        /* \"#utility.yul\":18987:18997   */\n      dup5\n        /* \"#utility.yul\":18969:18998   */\n      tag_242\n      jump\t// in\n    tag_449:\n        /* \"#utility.yul\":18959:18967   */\n      dup2\n        /* \"#utility.yul\":18955:18999   */\n      add\n        /* \"#utility.yul\":19152:19154   */\n      0x20\n        /* \"#utility.yul\":19140:19150   */\n      dup6\n        /* \"#utility.yul\":19137:19155   */\n      lt\n        /* \"#utility.yul\":19134:19183   */\n      iszero\n      tag_450\n      jumpi\n        /* \"#utility.yul\":19173:19181   */\n      dup2\n        /* \"#utility.yul\":19158:19181   */\n      swap1\n      pop\n        /* \"#utility.yul\":19134:19183   */\n    tag_450:\n        /* \"#utility.yul\":19196:19276   */\n      tag_451\n        /* \"#utility.yul\":19252:19274   */\n      tag_452\n        /* \"#utility.yul\":19270:19273   */\n      dup6\n        /* \"#utility.yul\":19252:19274   */\n      tag_242\n      jump\t// in\n    tag_452:\n        /* \"#utility.yul\":19242:19250   */\n      dup4\n        /* \"#utility.yul\":19238:19275   */\n      add\n        /* \"#utility.yul\":19225:19236   */\n      dup3\n        /* \"#utility.yul\":19196:19276   */\n      tag_251\n      jump\t// in\n    tag_451:\n        /* \"#utility.yul\":18855:19286   */\n      pop\n      pop\n        /* \"#utility.yul\":18840:19286   */\n    tag_447:\n        /* \"#utility.yul\":18750:19293   */\n      pop\n      pop\n      pop\n      jump\t// out\n        /* \"#utility.yul\":19299:19416   */\n    tag_253:\n        /* \"#utility.yul\":19353:19361   */\n      0x00\n        /* \"#utility.yul\":19403:19408   */\n      dup3\n        /* \"#utility.yul\":19397:19401   */\n      dup3\n        /* \"#utility.yul\":19393:19409   */\n      shr\n        /* \"#utility.yul\":19372:19409   */\n      swap1\n      pop\n        /* \"#utility.yul\":19299:19416   */\n      swap3\n      swap2\n      pop\n      pop\n      jump\t// out\n        /* \"#utility.yul\":19422:19591   */\n    tag_254:\n        /* \"#utility.yul\":19466:19472   */\n      0x00\n        /* \"#utility.yul\":19499:19550   */\n      tag_455\n        /* \"#utility.yul\":19547:19548   */\n      0x00\n        /* \"#utility.yul\":19543:19549   */\n      not\n        /* \"#utility.yul\":19535:19540   */\n      dup5\n        /* \"#utility.yul\":19532:19533   */\n      0x08\n        /* \"#utility.yul\":19528:19541   */\n      mul\n        /* \"#utility.yul\":19499:19550   */\n      tag_253\n      jump\t// in\n    tag_455:\n        /* \"#utility.yul\":19495:19551   */\n      not\n        /* \"#utility.yul\":19580:19584   */\n      dup1\n        /* \"#utility.yul\":19574:19578   */\n      dup4\n        /* \"#utility.yul\":19570:19585   */\n      and\n        /* \"#utility.yul\":19560:19585   */\n      swap2\n      pop\n        /* \"#utility.yul\":19473:19591   */\n      pop\n        /* \"#utility.yul\":19422:19591   */\n      swap3\n      swap2\n      pop\n      pop\n      jump\t// out\n        /* \"#utility.yul\":19596:19891   */\n    tag_255:\n        /* \"#utility.yul\":19672:19676   */\n      0x00\n        /* \"#utility.yul\":19818:19847   */\n      tag_457\n        /* \"#utility.yul\":19843:19846   */\n      dup4\n        /* \"#utility.yul\":19837:19841   */\n      dup4\n        /* \"#utility.yul\":19818:19847   */\n      tag_254\n      jump\t// in\n    tag_457:\n        /* \"#utility.yul\":19810:19847   */\n      swap2\n      pop\n        /* \"#utility.yul\":19880:19883   */\n      dup3\n        /* \"#utility.yul\":19877:19878   */\n      0x02\n        /* \"#utility.yul\":19873:19884   */\n      mul\n        /* \"#utility.yul\":19867:19871   */\n      dup3\n        /* \"#utility.yul\":19864:19885   */\n      or\n        /* \"#utility.yul\":19856:19885   */\n      swap1\n      pop\n        /* \"#utility.yul\":19596:19891   */\n      swap3\n      swap2\n      pop\n      pop\n      jump\t// out\n        /* \"#utility.yul\":19896:21291   */\n    tag_60:\n        /* \"#utility.yul\":20013:20050   */\n      tag_459\n        /* \"#utility.yul\":20046:20049   */\n      dup3\n        /* \"#utility.yul\":20013:20050   */\n      tag_219\n      jump\t// in\n    tag_459:\n        /* \"#utility.yul\":20115:20133   */\n      0xffffffffffffffff\n        /* \"#utility.yul\":20107:20113   */\n      dup2\n        /* \"#utility.yul\":20104:20134   */\n      gt\n        /* \"#utility.yul\":20101:20157   */\n      iszero\n      tag_460\n      jumpi\n        /* \"#utility.yul\":20137:20155   */\n      tag_461\n      tag_109\n      jump\t// in\n    tag_461:\n        /* \"#utility.yul\":20101:20157   */\n    tag_460:\n        /* \"#utility.yul\":20181:20219   */\n      tag_462\n        /* \"#utility.yul\":20213:20217   */\n      dup3\n        /* \"#utility.yul\":20207:20218   */\n      sload\n        /* \"#utility.yul\":20181:20219   */\n      tag_75\n      jump\t// in\n    tag_462:\n        /* \"#utility.yul\":20266:20333   */\n      tag_463\n        /* \"#utility.yul\":20326:20332   */\n      dup3\n        /* \"#utility.yul\":20318:20324   */\n      dup3\n        /* \"#utility.yul\":20312:20316   */\n      dup6\n        /* \"#utility.yul\":20266:20333   */\n      tag_252\n      jump\t// in\n    tag_463:\n        /* \"#utility.yul\":20360:20361   */\n      0x00\n        /* \"#utility.yul\":20384:20388   */\n      0x20\n        /* \"#utility.yul\":20371:20388   */\n      swap1\n      pop\n        /* \"#utility.yul\":20416:20418   */\n      0x1f\n        /* \"#utility.yul\":20408:20414   */\n      dup4\n        /* \"#utility.yul\":20405:20419   */\n      gt\n        /* \"#utility.yul\":20433:20434   */\n      0x01\n        /* \"#utility.yul\":20428:21046   */\n      dup2\n      eq\n      tag_465\n      jumpi\n        /* \"#utility.yul\":21090:21091   */\n      0x00\n        /* \"#utility.yul\":21107:21113   */\n      dup5\n        /* \"#utility.yul\":21104:21181   */\n      iszero\n      tag_466\n      jumpi\n        /* \"#utility.yul\":21156:21165   */\n      dup3\n        /* \"#utility.yul\":21151:21154   */\n      dup8\n        /* \"#utility.yul\":21147:21166   */\n      add\n        /* \"#utility.yul\":21141:21167   */\n      mload\n        /* \"#utility.yul\":21132:21167   */\n      swap1\n      pop\n        /* \"#utility.yul\":21104:21181   */\n    tag_466:\n        /* \"#utility.yul\":21207:21274   */\n      tag_467\n        /* \"#utility.yul\":21267:21273   */\n      dup6\n        /* \"#utility.yul\":21260:21265   */\n      dup3\n        /* \"#utility.yul\":21207:21274   */\n      tag_255\n      jump\t// in\n    tag_467:\n        /* \"#utility.yul\":21201:21205   */\n      dup7\n        /* \"#utility.yul\":21194:21275   */\n      sstore\n        /* \"#utility.yul\":21063:21285   */\n      pop\n        /* \"#utility.yul\":20398:21285   */\n      jump(tag_464)\n        /* \"#utility.yul\":20428:21046   */\n    tag_465:\n        /* \"#utility.yul\":20480:20484   */\n      0x1f\n        /* \"#utility.yul\":20476:20485   */\n      not\n        /* \"#utility.yul\":20468:20474   */\n      dup5\n        /* \"#utility.yul\":20464:20486   */\n      and\n        /* \"#utility.yul\":20514:20551   */\n      tag_468\n        /* \"#utility.yul\":20546:20550   */\n      dup7\n        /* \"#utility.yul\":20514:20551   */\n      tag_241\n      jump\t// in\n    tag_468:\n        /* \"#utility.yul\":20573:20574   */\n      0x00\n        /* \"#utility.yul\":20587:20795   */\n    tag_469:\n        /* \"#utility.yul\":20601:20608   */\n      dup3\n        /* \"#utility.yul\":20598:20599   */\n      dup2\n        /* \"#utility.yul\":20595:20609   */\n      lt\n        /* \"#utility.yul\":20587:20795   */\n      iszero\n      tag_471\n      jumpi\n        /* \"#utility.yul\":20680:20689   */\n      dup5\n        /* \"#utility.yul\":20675:20678   */\n      dup10\n        /* \"#utility.yul\":20671:20690   */\n      add\n        /* \"#utility.yul\":20665:20691   */\n      mload\n        /* \"#utility.yul\":20657:20663   */\n      dup3\n        /* \"#utility.yul\":20650:20692   */\n      sstore\n        /* \"#utility.yul\":20731:20732   */\n      0x01\n        /* \"#utility.yul\":20723:20729   */\n      dup3\n        /* \"#utility.yul\":20719:20733   */\n      add\n        /* \"#utility.yul\":20709:20733   */\n      swap2\n      pop\n        /* \"#utility.yul\":20778:20780   */\n      0x20\n        /* \"#utility.yul\":20767:20776   */\n      dup6\n        /* \"#utility.yul\":20763:20781   */\n      add\n        /* \"#utility.yul\":20750:20781   */\n      swap5\n      pop\n        /* \"#utility.yul\":20624:20628   */\n      0x20\n        /* \"#utility.yul\":20621:20622   */\n      dup2\n        /* \"#utility.yul\":20617:20629   */\n      add\n        /* \"#utility.yul\":20612:20629   */\n      swap1\n      pop\n        /* \"#utility.yul\":20587:20795   */\n      jump(tag_469)\n    tag_471:\n        /* \"#utility.yul\":20823:20829   */\n      dup7\n        /* \"#utility.yul\":20814:20821   */\n      dup4\n        /* \"#utility.yul\":20811:20830   */\n      lt\n        /* \"#utility.yul\":20808:20987   */\n      iszero\n      tag_472\n      jumpi\n        /* \"#utility.yul\":20881:20890   */\n      dup5\n        /* \"#utility.yul\":20876:20879   */\n      dup10\n        /* \"#utility.yul\":20872:20891   */\n      add\n        /* \"#utility.yul\":20866:20892   */\n      mload\n        /* \"#utility.yul\":20924:20972   */\n      tag_473\n        /* \"#utility.yul\":20966:20970   */\n      0x1f\n        /* \"#utility.yul\":20958:20964   */\n      dup10\n        /* \"#utility.yul\":20954:20971   */\n      and\n        /* \"#utility.yul\":20943:20952   */\n      dup3\n        /* \"#utility.yul\":20924:20972   */\n      tag_254\n      jump\t// in\n    tag_473:\n        /* \"#utility.yul\":20916:20922   */\n      dup4\n        /* \"#utility.yul\":20909:20973   */\n      sstore\n        /* \"#utility.yul\":20831:20987   */\n      pop\n        /* \"#utility.yul\":20808:20987   */\n    tag_472:\n        /* \"#utility.yul\":21033:21034   */\n      0x01\n        /* \"#utility.yul\":21029:21030   */\n      0x02\n        /* \"#utility.yul\":21021:21027   */\n      dup9\n        /* \"#utility.yul\":21017:21031   */\n      mul\n        /* \"#utility.yul\":21013:21035   */\n      add\n        /* \"#utility.yul\":21007:21011   */\n      dup9\n        /* \"#utility.yul\":21000:21036   */\n      sstore\n        /* \"#utility.yul\":20435:21046   */\n      pop\n      pop\n      pop\n        /* \"#utility.yul\":20398:21285   */\n    tag_464:\n      pop\n        /* \"#utility.yul\":19988:21291   */\n      pop\n      pop\n      pop\n        /* \"#utility.yul\":19896:21291   */\n      pop\n      pop\n      jump\t// out\n        /* \"#utility.yul\":21297:21477   */\n    tag_256:\n        /* \"#utility.yul\":21345:21422   */\n      0x4e487b7100000000000000000000000000000000000000000000000000000000\n        /* \"#utility.yul\":21342:21343   */\n      0x00\n        /* \"#utility.yul\":21335:21423   */\n      mstore\n        /* \"#utility.yul\":21442:21446   */\n      0x11\n        /* \"#utility.yul\":21439:21440   */\n      0x04\n        /* \"#utility.yul\":21432:21447   */\n      mstore\n        /* \"#utility.yul\":21466:21470   */\n      0x24\n        /* \"#utility.yul\":21463:21464   */\n      0x00\n        /* \"#utility.yul\":21456:21471   */\n      revert\n        /* \"#utility.yul\":21483:21716   */\n    tag_62:\n        /* \"#utility.yul\":21522:21525   */\n      0x00\n        /* \"#utility.yul\":21545:21569   */\n      tag_476\n        /* \"#utility.yul\":21563:21568   */\n      dup3\n        /* \"#utility.yul\":21545:21569   */\n      tag_197\n      jump\t// in\n    tag_476:\n        /* \"#utility.yul\":21536:21569   */\n      swap2\n      pop\n        /* \"#utility.yul\":21591:21657   */\n      0xffffffffffffffffffffffffffffffffffffffffffffffffffffffffffffffff\n        /* \"#utility.yul\":21584:21589   */\n      dup3\n        /* \"#utility.yul\":21581:21658   */\n      sub\n        /* \"#utility.yul\":21578:21681   */\n      tag_477\n      jumpi\n        /* \"#utility.yul\":21661:21679   */\n      tag_478\n      tag_256\n      jump\t// in\n    tag_478:\n        /* \"#utility.yul\":21578:21681   */\n    tag_477:\n        /* \"#utility.yul\":21708:21709   */\n      0x01\n        /* \"#utility.yul\":21701:21706   */\n      dup3\n        /* \"#utility.yul\":21697:21710   */\n      add\n        /* \"#utility.yul\":21690:21710   */\n      swap1\n      pop\n        /* \"#utility.yul\":21483:21716   */\n      swap2\n      swap1\n      pop\n      jump\t// out\n        /* \"#utility.yul\":21722:21896   */\n    tag_257:\n        /* \"#utility.yul\":21862:21888   */\n      0x5b4552524f525d20494420616c7761797320696e207573650000000000000000\n        /* \"#utility.yul\":21858:21859   */\n      0x00\n        /* \"#utility.yul\":21850:21856   */\n      dup3\n        /* \"#utility.yul\":21846:21860   */\n      add\n        /* \"#utility.yul\":21839:21889   */\n      mstore\n        /* \"#utility.yul\":21722:21896   */\n      pop\n      jump\t// out\n        /* \"#utility.yul\":21902:22268   */\n    tag_258:\n        /* \"#utility.yul\":22044:22047   */\n      0x00\n        /* \"#utility.yul\":22065:22132   */\n      tag_481\n        /* \"#utility.yul\":22129:22131   */\n      0x18\n        /* \"#utility.yul\":22124:22127   */\n      dup4\n        /* \"#utility.yul\":22065:22132   */\n      tag_233\n      jump\t// in\n    tag_481:\n        /* \"#utility.yul\":22058:22132   */\n      swap2\n      pop\n        /* \"#utility.yul\":22141:22234   */\n      tag_482\n        /* \"#utility.yul\":22230:22233   */\n      dup3\n        /* \"#utility.yul\":22141:22234   */\n      tag_257\n      jump\t// in\n    tag_482:\n        /* \"#utility.yul\":22259:22261   */\n      0x20\n        /* \"#utility.yul\":22254:22257   */\n      dup3\n        /* \"#utility.yul\":22250:22262   */\n      add\n        /* \"#utility.yul\":22243:22262   */\n      swap1\n      pop\n        /* \"#utility.yul\":21902:22268   */\n      swap2\n      swap1\n      pop\n      jump\t// out\n        /* \"#utility.yul\":22274:22693   */\n    tag_87:\n        /* \"#utility.yul\":22440:22444   */\n      0x00\n        /* \"#utility.yul\":22478:22480   */\n      0x20\n        /* \"#utility.yul\":22467:22476   */\n      dup3\n        /* \"#utility.yul\":22463:22481   */\n      add\n        /* \"#utility.yul\":22455:22481   */\n      swap1\n      pop\n        /* \"#utility.yul\":22527:22536   */\n      dup2\n        /* \"#utility.yul\":22521:22525   */\n      dup2\n        /* \"#utility.yul\":22517:22537   */\n      sub\n        /* \"#utility.yul\":22513:22514   */\n      0x00\n        /* \"#utility.yul\":22502:22511   */\n      dup4\n        /* \"#utility.yul\":22498:22515   */\n      add\n        /* \"#utility.yul\":22491:22538   */\n      mstore\n        /* \"#utility.yul\":22555:22686   */\n      tag_484\n        /* \"#utility.yul\":22681:22685   */\n      dup2\n        /* \"#utility.yul\":22555:22686   */\n      tag_258\n      jump\t// in\n    tag_484:\n        /* \"#utility.yul\":22547:22686   */\n      swap1\n      pop\n        /* \"#utility.yul\":22274:22693   */\n      swap2\n      swap1\n      pop\n      jump\t// out\n        /* \"#utility.yul\":22723:23597   */\n    tag_259:\n        /* \"#utility.yul\":22826:22829   */\n      0x00\n        /* \"#utility.yul\":22863:22868   */\n      dup2\n        /* \"#utility.yul\":22857:22869   */\n      sload\n        /* \"#utility.yul\":22892:22928   */\n      tag_486\n        /* \"#utility.yul\":22918:22927   */\n      dup2\n        /* \"#utility.yul\":22892:22928   */\n      tag_75\n      jump\t// in\n    tag_486:\n        /* \"#utility.yul\":22944:23033   */\n      tag_487\n        /* \"#utility.yul\":23026:23032   */\n      dup2\n        /* \"#utility.yul\":23021:23024   */\n      dup7\n        /* \"#utility.yul\":22944:23033   */\n      tag_238\n      jump\t// in\n    tag_487:\n        /* \"#utility.yul\":22937:23033   */\n      swap5\n      pop\n        /* \"#utility.yul\":23064:23065   */\n      0x01\n        /* \"#utility.yul\":23053:23062   */\n      dup3\n        /* \"#utility.yul\":23049:23066   */\n      and\n        /* \"#utility.yul\":23080:23081   */\n      0x00\n        /* \"#utility.yul\":23075:23241   */\n      dup2\n      eq\n      tag_489\n      jumpi\n        /* \"#utility.yul\":23255:23256   */\n      0x01\n        /* \"#utility.yul\":23250:23591   */\n      dup2\n      eq\n      tag_490\n      jumpi\n        /* \"#utility.yul\":23042:23591   */\n      jump(tag_488)\n        /* \"#utility.yul\":23075:23241   */\n    tag_489:\n        /* \"#utility.yul\":23159:23163   */\n      0xff\n        /* \"#utility.yul\":23155:23164   */\n      not\n        /* \"#utility.yul\":23144:23153   */\n      dup4\n        /* \"#utility.yul\":23140:23165   */\n      and\n        /* \"#utility.yul\":23135:23138   */\n      dup7\n        /* \"#utility.yul\":23128:23166   */\n      mstore\n        /* \"#utility.yul\":23221:23227   */\n      dup2\n        /* \"#utility.yul\":23214:23228   */\n      iszero\n        /* \"#utility.yul\":23207:23229   */\n      iszero\n        /* \"#utility.yul\":23199:23205   */\n      dup3\n        /* \"#utility.yul\":23195:23230   */\n      mul\n        /* \"#utility.yul\":23190:23193   */\n      dup7\n        /* \"#utility.yul\":23186:23231   */\n      add\n        /* \"#utility.yul\":23179:23231   */\n      swap4\n      pop\n        /* \"#utility.yul\":23075:23241   */\n      jump(tag_488)\n        /* \"#utility.yul\":23250:23591   */\n    tag_490:\n        /* \"#utility.yul\":23317:23355   */\n      tag_491\n        /* \"#utility.yul\":23349:23354   */\n      dup6\n        /* \"#utility.yul\":23317:23355   */\n      tag_241\n      jump\t// in\n    tag_491:\n        /* \"#utility.yul\":23377:23378   */\n      0x00\n        /* \"#utility.yul\":23391:23545   */\n    tag_492:\n        /* \"#utility.yul\":23405:23411   */\n      dup4\n        /* \"#utility.yul\":23402:23403   */\n      dup2\n        /* \"#utility.yul\":23399:23412   */\n      lt\n        /* \"#utility.yul\":23391:23545   */\n      iszero\n      tag_494\n      jumpi\n        /* \"#utility.yul\":23479:23486   */\n      dup2\n        /* \"#utility.yul\":23473:23487   */\n      sload\n        /* \"#utility.yul\":23469:23470   */\n      dup2\n        /* \"#utility.yul\":23464:23467   */\n      dup10\n        /* \"#utility.yul\":23460:23471   */\n      add\n        /* \"#utility.yul\":23453:23488   */\n      mstore\n        /* \"#utility.yul\":23529:23530   */\n      0x01\n        /* \"#utility.yul\":23520:23527   */\n      dup3\n        /* \"#utility.yul\":23516:23531   */\n      add\n        /* \"#utility.yul\":23505:23531   */\n      swap2\n      pop\n        /* \"#utility.yul\":23427:23431   */\n      0x20\n        /* \"#utility.yul\":23424:23425   */\n      dup2\n        /* \"#utility.yul\":23420:23432   */\n      add\n        /* \"#utility.yul\":23415:23432   */\n      swap1\n      pop\n        /* \"#utility.yul\":23391:23545   */\n      jump(tag_492)\n    tag_494:\n        /* \"#utility.yul\":23574:23580   */\n      dup4\n        /* \"#utility.yul\":23569:23572   */\n      dup9\n        /* \"#utility.yul\":23565:23581   */\n      add\n        /* \"#utility.yul\":23558:23581   */\n      swap6\n      pop\n        /* \"#utility.yul\":23257:23591   */\n      pop\n      pop\n        /* \"#utility.yul\":23042:23591   */\n    tag_488:\n      pop\n        /* \"#utility.yul\":22830:23597   */\n      pop\n      pop\n        /* \"#utility.yul\":22723:23597   */\n      swap3\n      swap2\n      pop\n      pop\n      jump\t// out\n        /* \"#utility.yul\":23603:23872   */\n    tag_119:\n        /* \"#utility.yul\":23732:23735   */\n      0x00\n        /* \"#utility.yul\":23754:23846   */\n      tag_496\n        /* \"#utility.yul\":23842:23845   */\n      dup3\n        /* \"#utility.yul\":23833:23839   */\n      dup5\n        /* \"#utility.yul\":23754:23846   */\n      tag_259\n      jump\t// in\n    tag_496:\n        /* \"#utility.yul\":23747:23846   */\n      swap2\n      pop\n        /* \"#utility.yul\":23863:23866   */\n      dup2\n        /* \"#utility.yul\":23856:23866   */\n      swap1\n      pop\n        /* \"#utility.yul\":23603:23872   */\n      swap3\n      swap2\n      pop\n      pop\n      jump\t// out\n        /* \"#utility.yul\":23878:24072   */\n    tag_161:\n        /* \"#utility.yul\":23918:23922   */\n      0x00\n        /* \"#utility.yul\":23938:23958   */\n      tag_498\n        /* \"#utility.yul\":23956:23957   */\n      dup3\n        /* \"#utility.yul\":23938:23958   */\n      tag_197\n      jump\t// in\n    tag_498:\n        /* \"#utility.yul\":23933:23958   */\n      swap2\n      pop\n        /* \"#utility.yul\":23972:23992   */\n      tag_499\n        /* \"#utility.yul\":23990:23991   */\n      dup4\n        /* \"#utility.yul\":23972:23992   */\n      tag_197\n      jump\t// in\n    tag_499:\n        /* \"#utility.yul\":23967:23992   */\n      swap3\n      pop\n        /* \"#utility.yul\":24016:24017   */\n      dup3\n        /* \"#utility.yul\":24013:24014   */\n      dup3\n        /* \"#utility.yul\":24009:24018   */\n      sub\n        /* \"#utility.yul\":24001:24018   */\n      swap1\n      pop\n        /* \"#utility.yul\":24040:24041   */\n      dup2\n        /* \"#utility.yul\":24034:24038   */\n      dup2\n        /* \"#utility.yul\":24031:24042   */\n      gt\n        /* \"#utility.yul\":24028:24065   */\n      iszero\n      tag_500\n      jumpi\n        /* \"#utility.yul\":24045:24063   */\n      tag_501\n      tag_256\n      jump\t// in\n    tag_501:\n        /* \"#utility.yul\":24028:24065   */\n    tag_500:\n        /* \"#utility.yul\":23878:24072   */\n      swap3\n      swap2\n      pop\n      pop\n      jump\t// out\n        /* \"#utility.yul\":24078:24269   */\n    tag_163:\n        /* \"#utility.yul\":24118:24121   */\n      0x00\n        /* \"#utility.yul\":24137:24157   */\n      tag_503\n        /* \"#utility.yul\":24155:24156   */\n      dup3\n        /* \"#utility.yul\":24137:24157   */\n      tag_197\n      jump\t// in\n    tag_503:\n        /* \"#utility.yul\":24132:24157   */\n      swap2\n      pop\n        /* \"#utility.yul\":24171:24191   */\n      tag_504\n        /* \"#utility.yul\":24189:24190   */\n      dup4\n        /* \"#utility.yul\":24171:24191   */\n      tag_197\n      jump\t// in\n    tag_504:\n        /* \"#utility.yul\":24166:24191   */\n      swap3\n      pop\n        /* \"#utility.yul\":24214:24215   */\n      dup3\n        /* \"#utility.yul\":24211:24212   */\n      dup3\n        /* \"#utility.yul\":24207:24216   */\n      add\n        /* \"#utility.yul\":24200:24216   */\n      swap1\n      pop\n        /* \"#utility.yul\":24235:24238   */\n      dup1\n        /* \"#utility.yul\":24232:24233   */\n      dup3\n        /* \"#utility.yul\":24229:24239   */\n      gt\n        /* \"#utility.yul\":24226:24262   */\n      iszero\n      tag_505\n      jumpi\n        /* \"#utility.yul\":24242:24260   */\n      tag_506\n      tag_256\n      jump\t// in\n    tag_506:\n        /* \"#utility.yul\":24226:24262   */\n    tag_505:\n        /* \"#utility.yul\":24078:24269   */\n      swap3\n      swap2\n      pop\n      pop\n      jump\t// out\n        /* \"#utility.yul\":24275:24455   */\n    tag_173:\n        /* \"#utility.yul\":24323:24400   */\n      0x4e487b7100000000000000000000000000000000000000000000000000000000\n        /* \"#utility.yul\":24320:24321   */\n      0x00\n        /* \"#utility.yul\":24313:24401   */\n      mstore\n        /* \"#utility.yul\":24420:24424   */\n      0x31\n        /* \"#utility.yul\":24417:24418   */\n      0x04\n        /* \"#utility.yul\":24410:24425   */\n      mstore\n        /* \"#utility.yul\":24444:24448   */\n      0x24\n        /* \"#utility.yul\":24441:24442   */\n      0x00\n        /* \"#utility.yul\":24434:24449   */\n      revert\n\n    auxdata: 0xa26469706673582212207d50f8d97877e32c2846a692714908f033935580d0197927ddfb62e7e6c8759064736f6c63430008140033\n}\n",
				"bytecode": {
					"linkReferences": {},
					"object": "608060405234801561000f575f80fd5b50335f806101000a81548173ffffffffffffffffffffffffffffffffffffffff021916908373ffffffffffffffffffffffffffffffffffffffff160217905550611e6d8061005c5f395ff3fe608060405234801561000f575f80fd5b506004361061007b575f3560e01c80634f6e9de4116100595780634f6e9de4146100e957806397ff7ae014610105578063ba54b7bf14610136578063f6ebbb76146101525761007b565b8063326361231461007f57806340c8068d1461009b578063474a1c15146100b9575b5f80fd5b61009960048036038101906100949190611421565b610170565b005b6100a36103c1565b6040516100b091906114b8565b60405180910390f35b6100d360048036038101906100ce91906114d1565b610408565b6040516100e09190611561565b60405180910390f35b61010360048036038101906100fe9190611421565b61061f565b005b61011f600480360381019061011a919061157a565b6108d1565b60405161012d9291906116da565b60405180910390f35b610150600480360381019061014b919061157a565b610c3d565b005b61015a610e66565b60405161016791906117c6565b60405180910390f35b823373ffffffffffffffffffffffffffffffffffffffff1660015f3373ffffffffffffffffffffffffffffffffffffffff1673ffffffffffffffffffffffffffffffffffffffff1681526020019081526020015f205f8381526020019081526020015f205f015f9054906101000a900473ffffffffffffffffffffffffffffffffffffffff1673ffffffffffffffffffffffffffffffffffffffff161461024c576040517f08c379a000000000000000000000000000000000000000000000000000000000815260040161024390611840565b60405180910390fd5b8151835114610290576040517f08c379a0000000000000000000000000000000000000000000000000000000008152600401610287906118ce565b60405180910390fd5b5f60015f3373ffffffffffffffffffffffffffffffffffffffff1673ffffffffffffffffffffffffffffffffffffffff1681526020019081526020015f205f8681526020019081526020015f20905033815f015f6101000a81548173ffffffffffffffffffffffffffffffffffffffff021916908373ffffffffffffffffffffffffffffffffffffffff1602179055505f5b84518110156103a05783818151811061033e5761033d6118ec565b5b60200260200101518260010186838151811061035d5761035c6118ec565b5b60200260200101516040516103729190611953565b9081526020016040518091039020908161038c9190611b63565b50808061039890611c5f565b915050610322565b50838160020190805190602001906103b99291906110cf565b505050505050565b5f60025f3373ffffffffffffffffffffffffffffffffffffffff1673ffffffffffffffffffffffffffffffffffffffff1681526020019081526020015f2080549050905090565b5f805f90505b60025f3373ffffffffffffffffffffffffffffffffffffffff1673ffffffffffffffffffffffffffffffffffffffff1681526020019081526020015f2080549050811015610614575f60015f3373ffffffffffffffffffffffffffffffffffffffff1673ffffffffffffffffffffffffffffffffffffffff1681526020019081526020015f205f60025f3373ffffffffffffffffffffffffffffffffffffffff1673ffffffffffffffffffffffffffffffffffffffff1681526020019081526020015f2084815481106104e4576104e36118ec565b5b905f5260205f20015481526020019081526020015f206001018560405161050b9190611953565b9081526020016040518091039020805461052490611996565b80601f016020809104026020016040519081016040528092919081815260200182805461055090611996565b801561059b5780601f106105725761010080835404028352916020019161059b565b820191905f5260205f20905b81548152906001019060200180831161057e57829003601f168201915b50505050509050836040516020016105b39190611953565b60405160208183030381529060405280519060200120816040516020016105da9190611953565b604051602081830303815290604052805190602001200361060057600192505050610619565b50808061060c90611c5f565b91505061040e565b505f90505b92915050565b823373ffffffffffffffffffffffffffffffffffffffff1660015f3373ffffffffffffffffffffffffffffffffffffffff1673ffffffffffffffffffffffffffffffffffffffff1681526020019081526020015f205f8381526020019081526020015f205f015f9054906101000a900473ffffffffffffffffffffffffffffffffffffffff1673ffffffffffffffffffffffffffffffffffffffff16036106fb576040517f08c379a00000000000000000000000000000000000000000000000000000000081526004016106f290611cf0565b60405180910390fd5b815183511461073f576040517f08c379a0000000000000000000000000000000000000000000000000000000008152600401610736906118ce565b60405180910390fd5b5f60015f3373ffffffffffffffffffffffffffffffffffffffff1673ffffffffffffffffffffffffffffffffffffffff1681526020019081526020015f205f8681526020019081526020015f20905033815f015f6101000a81548173ffffffffffffffffffffffffffffffffffffffff021916908373ffffffffffffffffffffffffffffffffffffffff1602179055505f5b845181101561084f578381815181106107ed576107ec6118ec565b5b60200260200101518260010186838151811061080c5761080b6118ec565b5b60200260200101516040516108219190611953565b9081526020016040518091039020908161083b9190611b63565b50808061084790611c5f565b9150506107d1565b50838160020190805190602001906108689291906110cf565b5060025f3373ffffffffffffffffffffffffffffffffffffffff1673ffffffffffffffffffffffffffffffffffffffff1681526020019081526020015f2085908060018154018082558091505060019003905f5260205f20015f90919091909150555050505050565b606080823373ffffffffffffffffffffffffffffffffffffffff1660015f3373ffffffffffffffffffffffffffffffffffffffff1673ffffffffffffffffffffffffffffffffffffffff1681526020019081526020015f205f8381526020019081526020015f205f015f9054906101000a900473ffffffffffffffffffffffffffffffffffffffff1673ffffffffffffffffffffffffffffffffffffffff16146109b0576040517f08c379a00000000000000000000000000000000000000000000000000000000081526004016109a790611840565b60405180910390fd5b5f60015f3373ffffffffffffffffffffffffffffffffffffffff1673ffffffffffffffffffffffffffffffffffffffff1681526020019081526020015f205f8681526020019081526020015f2090505f816002018054905067ffffffffffffffff811115610a2157610a20611217565b5b604051908082528060200260200182016040528015610a5457816020015b6060815260200190600190039081610a3f5790505b5090505f5b8260020180549050811015610b5d5782600101836002018281548110610a8257610a816118ec565b5b905f5260205f2001604051610a979190611d8e565b90815260200160405180910390208054610ab090611996565b80601f0160208091040260200160405190810160405280929190818152602001828054610adc90611996565b8015610b275780601f10610afe57610100808354040283529160200191610b27565b820191905f5260205f20905b815481529060010190602001808311610b0a57829003601f168201915b5050505050828281518110610b3f57610b3e6118ec565b5b60200260200101819052508080610b5590611c5f565b915050610a59565b50816002018181805480602002602001604051908101604052809291908181526020015f905b82821015610c2b578382905f5260205f20018054610ba090611996565b80601f0160208091040260200160405190810160405280929190818152602001828054610bcc90611996565b8015610c175780601f10610bee57610100808354040283529160200191610c17565b820191905f5260205f20905b815481529060010190602001808311610bfa57829003601f168201915b505050505081526020019060010190610b83565b50505050915094509450505050915091565b803373ffffffffffffffffffffffffffffffffffffffff1660015f3373ffffffffffffffffffffffffffffffffffffffff1673ffffffffffffffffffffffffffffffffffffffff1681526020019081526020015f205f8381526020019081526020015f205f015f9054906101000a900473ffffffffffffffffffffffffffffffffffffffff1673ffffffffffffffffffffffffffffffffffffffff1614610d19576040517f08c379a0000000000000000000000000000000000000000000000000000000008152600401610d1090611840565b60405180910390fd5b5f5b60025f3373ffffffffffffffffffffffffffffffffffffffff1673ffffffffffffffffffffffffffffffffffffffff1681526020019081526020015f2080549050811015610dde578260025f3373ffffffffffffffffffffffffffffffffffffffff1673ffffffffffffffffffffffffffffffffffffffff1681526020019081526020015f208281548110610db357610db26118ec565b5b905f5260205f20015403610dcb57610dca81610ef7565b5b8080610dd690611c5f565b915050610d1b565b5060015f3373ffffffffffffffffffffffffffffffffffffffff1673ffffffffffffffffffffffffffffffffffffffff1681526020019081526020015f205f8381526020019081526020015f205f8082015f6101000a81549073ffffffffffffffffffffffffffffffffffffffff0219169055600282015f610e609190611126565b50505050565b606060025f3373ffffffffffffffffffffffffffffffffffffffff1673ffffffffffffffffffffffffffffffffffffffff1681526020019081526020015f20805480602002602001604051908101604052809291908181526020018280548015610eed57602002820191905f5260205f20905b815481526020019060010190808311610ed9575b5050505050905090565b60025f3373ffffffffffffffffffffffffffffffffffffffff1673ffffffffffffffffffffffffffffffffffffffff1681526020019081526020015f20805490508110156110cc575f8190505b600160025f3373ffffffffffffffffffffffffffffffffffffffff1673ffffffffffffffffffffffffffffffffffffffff1681526020019081526020015f2080549050610f919190611da4565b81101561106a5760025f3373ffffffffffffffffffffffffffffffffffffffff1673ffffffffffffffffffffffffffffffffffffffff1681526020019081526020015f20600182610fe29190611dd7565b81548110610ff357610ff26118ec565b5b905f5260205f20015460025f3373ffffffffffffffffffffffffffffffffffffffff1673ffffffffffffffffffffffffffffffffffffffff1681526020019081526020015f20828154811061104b5761104a6118ec565b5b905f5260205f200181905550808061106290611c5f565b915050610f44565b5060025f3373ffffffffffffffffffffffffffffffffffffffff1673ffffffffffffffffffffffffffffffffffffffff1681526020019081526020015f208054806110b8576110b7611e0a565b5b600190038181905f5260205f20015f905590555b50565b828054828255905f5260205f20908101928215611115579160200282015b828111156111145782518290816111049190611b63565b50916020019190600101906110ed565b5b5090506111229190611144565b5090565b5080545f8255905f5260205f20908101906111419190611144565b50565b5b80821115611163575f818161115a9190611167565b50600101611145565b5090565b50805461117390611996565b5f825580601f1061118457506111a1565b601f0160209004905f5260205f20908101906111a091906111a4565b5b50565b5b808211156111bb575f815f9055506001016111a5565b5090565b5f604051905090565b5f80fd5b5f80fd5b5f819050919050565b6111e2816111d0565b81146111ec575f80fd5b50565b5f813590506111fd816111d9565b92915050565b5f80fd5b5f601f19601f8301169050919050565b7f4e487b71000000000000000000000000000000000000000000000000000000005f52604160045260245ffd5b61124d82611207565b810181811067ffffffffffffffff8211171561126c5761126b611217565b5b80604052505050565b5f61127e6111bf565b905061128a8282611244565b919050565b5f67ffffffffffffffff8211156112a9576112a8611217565b5b602082029050602081019050919050565b5f80fd5b5f80fd5b5f67ffffffffffffffff8211156112dc576112db611217565b5b6112e582611207565b9050602081019050919050565b828183375f83830152505050565b5f61131261130d846112c2565b611275565b90508281526020810184848401111561132e5761132d6112be565b5b6113398482856112f2565b509392505050565b5f82601f83011261135557611354611203565b5b8135611365848260208601611300565b91505092915050565b5f61138061137b8461128f565b611275565b905080838252602082019050602084028301858111156113a3576113a26112ba565b5b835b818110156113ea57803567ffffffffffffffff8111156113c8576113c7611203565b5b8086016113d58982611341565b855260208501945050506020810190506113a5565b5050509392505050565b5f82601f83011261140857611407611203565b5b813561141884826020860161136e565b91505092915050565b5f805f60608486031215611438576114376111c8565b5b5f611445868287016111ef565b935050602084013567ffffffffffffffff811115611466576114656111cc565b5b611472868287016113f4565b925050604084013567ffffffffffffffff811115611493576114926111cc565b5b61149f868287016113f4565b9150509250925092565b6114b2816111d0565b82525050565b5f6020820190506114cb5f8301846114a9565b92915050565b5f80604083850312156114e7576114e66111c8565b5b5f83013567ffffffffffffffff811115611504576115036111cc565b5b61151085828601611341565b925050602083013567ffffffffffffffff811115611531576115306111cc565b5b61153d85828601611341565b9150509250929050565b5f8115159050919050565b61155b81611547565b82525050565b5f6020820190506115745f830184611552565b92915050565b5f6020828403121561158f5761158e6111c8565b5b5f61159c848285016111ef565b91505092915050565b5f81519050919050565b5f82825260208201905092915050565b5f819050602082019050919050565b5f81519050919050565b5f82825260208201905092915050565b5f5b838110156116055780820151818401526020810190506115ea565b5f8484015250505050565b5f61161a826115ce565b61162481856115d8565b93506116348185602086016115e8565b61163d81611207565b840191505092915050565b5f6116538383611610565b905092915050565b5f602082019050919050565b5f611671826115a5565b61167b81856115af565b93508360208202850161168d856115bf565b805f5b858110156116c857848403895281516116a98582611648565b94506116b48361165b565b925060208a01995050600181019050611690565b50829750879550505050505092915050565b5f6040820190508181035f8301526116f28185611667565b905081810360208301526117068184611667565b90509392505050565b5f81519050919050565b5f82825260208201905092915050565b5f819050602082019050919050565b611741816111d0565b82525050565b5f6117528383611738565b60208301905092915050565b5f602082019050919050565b5f6117748261170f565b61177e8185611719565b935061178983611729565b805f5b838110156117b95781516117a08882611747565b97506117ab8361175e565b92505060018101905061178c565b5085935050505092915050565b5f6020820190508181035f8301526117de818461176a565b905092915050565b5f82825260208201905092915050565b7f5b4552524f525d204944206e6f7420617661696c61626c6500000000000000005f82015250565b5f61182a6018836117e6565b9150611835826117f6565b602082019050919050565b5f6020820190508181035f8301526118578161181e565b9050919050565b7f5b4552524f525d20546865206c656e677468206f6620746865206b65797320615f8201527f6e642076616c75657320617265206e6f746520657175616c0000000000000000602082015250565b5f6118b86038836117e6565b91506118c38261185e565b604082019050919050565b5f6020820190508181035f8301526118e5816118ac565b9050919050565b7f4e487b71000000000000000000000000000000000000000000000000000000005f52603260045260245ffd5b5f81905092915050565b5f61192d826115ce565b6119378185611919565b93506119478185602086016115e8565b80840191505092915050565b5f61195e8284611923565b915081905092915050565b7f4e487b71000000000000000000000000000000000000000000000000000000005f52602260045260245ffd5b5f60028204905060018216806119ad57607f821691505b6020821081036119c0576119bf611969565b5b50919050565b5f819050815f5260205f209050919050565b5f6020601f8301049050919050565b5f82821b905092915050565b5f60088302611a227fffffffffffffffffffffffffffffffffffffffffffffffffffffffffffffffff826119e7565b611a2c86836119e7565b95508019841693508086168417925050509392505050565b5f819050919050565b5f611a67611a62611a5d846111d0565b611a44565b6111d0565b9050919050565b5f819050919050565b611a8083611a4d565b611a94611a8c82611a6e565b8484546119f3565b825550505050565b5f90565b611aa8611a9c565b611ab3818484611a77565b505050565b5b81811015611ad657611acb5f82611aa0565b600181019050611ab9565b5050565b601f821115611b1b57611aec816119c6565b611af5846119d8565b81016020851015611b04578190505b611b18611b10856119d8565b830182611ab8565b50505b505050565b5f82821c905092915050565b5f611b3b5f1984600802611b20565b1980831691505092915050565b5f611b538383611b2c565b9150826002028217905092915050565b611b6c826115ce565b67ffffffffffffffff811115611b8557611b84611217565b5b611b8f8254611996565b611b9a828285611ada565b5f60209050601f831160018114611bcb575f8415611bb9578287015190505b611bc38582611b48565b865550611c2a565b601f198416611bd9866119c6565b5f5b82811015611c0057848901518255600182019150602085019450602081019050611bdb565b86831015611c1d5784890151611c19601f891682611b2c565b8355505b6001600288020188555050505b505050505050565b7f4e487b71000000000000000000000000000000000000000000000000000000005f52601160045260245ffd5b5f611c69826111d0565b91507fffffffffffffffffffffffffffffffffffffffffffffffffffffffffffffffff8203611c9b57611c9a611c32565b5b600182019050919050565b7f5b4552524f525d20494420616c7761797320696e2075736500000000000000005f82015250565b5f611cda6018836117e6565b9150611ce582611ca6565b602082019050919050565b5f6020820190508181035f830152611d0781611cce565b9050919050565b5f8154611d1a81611996565b611d248186611919565b9450600182165f8114611d3e5760018114611d5357611d85565b60ff1983168652811515820286019350611d85565b611d5c856119c6565b5f5b83811015611d7d57815481890152600182019150602081019050611d5e565b838801955050505b50505092915050565b5f611d998284611d0e565b915081905092915050565b5f611dae826111d0565b9150611db9836111d0565b9250828203905081811115611dd157611dd0611c32565b5b92915050565b5f611de1826111d0565b9150611dec836111d0565b9250828201905080821115611e0457611e03611c32565b5b92915050565b7f4e487b71000000000000000000000000000000000000000000000000000000005f52603160045260245ffdfea26469706673582212207d50f8d97877e32c2846a692714908f033935580d0197927ddfb62e7e6c8759064736f6c63430008140033",
					"opcodes": "PUSH1 0x80 PUSH1 0x40 MSTORE CALLVALUE DUP1 ISZERO PUSH2 0xF JUMPI PUSH0 DUP1 REVERT JUMPDEST POP CALLER PUSH0 DUP1 PUSH2 0x100 EXP DUP2 SLOAD DUP2 PUSH20 0xFFFFFFFFFFFFFFFFFFFFFFFFFFFFFFFFFFFFFFFF MUL NOT AND SWAP1 DUP4 PUSH20 0xFFFFFFFFFFFFFFFFFFFFFFFFFFFFFFFFFFFFFFFF AND MUL OR SWAP1 SSTORE POP PUSH2 0x1E6D DUP1 PUSH2 0x5C PUSH0 CODECOPY PUSH0 RETURN INVALID PUSH1 0x80 PUSH1 0x40 MSTORE CALLVALUE DUP1 ISZERO PUSH2 0xF JUMPI PUSH0 DUP1 REVERT JUMPDEST POP PUSH1 0x4 CALLDATASIZE LT PUSH2 0x7B JUMPI PUSH0 CALLDATALOAD PUSH1 0xE0 SHR DUP1 PUSH4 0x4F6E9DE4 GT PUSH2 0x59 JUMPI DUP1 PUSH4 0x4F6E9DE4 EQ PUSH2 0xE9 JUMPI DUP1 PUSH4 0x97FF7AE0 EQ PUSH2 0x105 JUMPI DUP1 PUSH4 0xBA54B7BF EQ PUSH2 0x136 JUMPI DUP1 PUSH4 0xF6EBBB76 EQ PUSH2 0x152 JUMPI PUSH2 0x7B JUMP JUMPDEST DUP1 PUSH4 0x32636123 EQ PUSH2 0x7F JUMPI DUP1 PUSH4 0x40C8068D EQ PUSH2 0x9B JUMPI DUP1 PUSH4 0x474A1C15 EQ PUSH2 0xB9 JUMPI JUMPDEST PUSH0 DUP1 REVERT JUMPDEST PUSH2 0x99 PUSH1 0x4 DUP1 CALLDATASIZE SUB DUP2 ADD SWAP1 PUSH2 0x94 SWAP2 SWAP1 PUSH2 0x1421 JUMP JUMPDEST PUSH2 0x170 JUMP JUMPDEST STOP JUMPDEST PUSH2 0xA3 PUSH2 0x3C1 JUMP JUMPDEST PUSH1 0x40 MLOAD PUSH2 0xB0 SWAP2 SWAP1 PUSH2 0x14B8 JUMP JUMPDEST PUSH1 0x40 MLOAD DUP1 SWAP2 SUB SWAP1 RETURN JUMPDEST PUSH2 0xD3 PUSH1 0x4 DUP1 CALLDATASIZE SUB DUP2 ADD SWAP1 PUSH2 0xCE SWAP2 SWAP1 PUSH2 0x14D1 JUMP JUMPDEST PUSH2 0x408 JUMP JUMPDEST PUSH1 0x40 MLOAD PUSH2 0xE0 SWAP2 SWAP1 PUSH2 0x1561 JUMP JUMPDEST PUSH1 0x40 MLOAD DUP1 SWAP2 SUB SWAP1 RETURN JUMPDEST PUSH2 0x103 PUSH1 0x4 DUP1 CALLDATASIZE SUB DUP2 ADD SWAP1 PUSH2 0xFE SWAP2 SWAP1 PUSH2 0x1421 JUMP JUMPDEST PUSH2 0x61F JUMP JUMPDEST STOP JUMPDEST PUSH2 0x11F PUSH1 0x4 DUP1 CALLDATASIZE SUB DUP2 ADD SWAP1 PUSH2 0x11A SWAP2 SWAP1 PUSH2 0x157A JUMP JUMPDEST PUSH2 0x8D1 JUMP JUMPDEST PUSH1 0x40 MLOAD PUSH2 0x12D SWAP3 SWAP2 SWAP1 PUSH2 0x16DA JUMP JUMPDEST PUSH1 0x40 MLOAD DUP1 SWAP2 SUB SWAP1 RETURN JUMPDEST PUSH2 0x150 PUSH1 0x4 DUP1 CALLDATASIZE SUB DUP2 ADD SWAP1 PUSH2 0x14B SWAP2 SWAP1 PUSH2 0x157A JUMP JUMPDEST PUSH2 0xC3D JUMP JUMPDEST STOP JUMPDEST PUSH2 0x15A PUSH2 0xE66 JUMP JUMPDEST PUSH1 0x40 MLOAD PUSH2 0x167 SWAP2 SWAP1 PUSH2 0x17C6 JUMP JUMPDEST PUSH1 0x40 MLOAD DUP1 SWAP2 SUB SWAP1 RETURN JUMPDEST DUP3 CALLER PUSH20 0xFFFFFFFFFFFFFFFFFFFFFFFFFFFFFFFFFFFFFFFF AND PUSH1 0x1 PUSH0 CALLER PUSH20 0xFFFFFFFFFFFFFFFFFFFFFFFFFFFFFFFFFFFFFFFF AND PUSH20 0xFFFFFFFFFFFFFFFFFFFFFFFFFFFFFFFFFFFFFFFF AND DUP2 MSTORE PUSH1 0x20 ADD SWAP1 DUP2 MSTORE PUSH1 0x20 ADD PUSH0 KECCAK256 PUSH0 DUP4 DUP2 MSTORE PUSH1 0x20 ADD SWAP1 DUP2 MSTORE PUSH1 0x20 ADD PUSH0 KECCAK256 PUSH0 ADD PUSH0 SWAP1 SLOAD SWAP1 PUSH2 0x100 EXP SWAP1 DIV PUSH20 0xFFFFFFFFFFFFFFFFFFFFFFFFFFFFFFFFFFFFFFFF AND PUSH20 0xFFFFFFFFFFFFFFFFFFFFFFFFFFFFFFFFFFFFFFFF AND EQ PUSH2 0x24C JUMPI PUSH1 0x40 MLOAD PUSH32 0x8C379A000000000000000000000000000000000000000000000000000000000 DUP2 MSTORE PUSH1 0x4 ADD PUSH2 0x243 SWAP1 PUSH2 0x1840 JUMP JUMPDEST PUSH1 0x40 MLOAD DUP1 SWAP2 SUB SWAP1 REVERT JUMPDEST DUP2 MLOAD DUP4 MLOAD EQ PUSH2 0x290 JUMPI PUSH1 0x40 MLOAD PUSH32 0x8C379A000000000000000000000000000000000000000000000000000000000 DUP2 MSTORE PUSH1 0x4 ADD PUSH2 0x287 SWAP1 PUSH2 0x18CE JUMP JUMPDEST PUSH1 0x40 MLOAD DUP1 SWAP2 SUB SWAP1 REVERT JUMPDEST PUSH0 PUSH1 0x1 PUSH0 CALLER PUSH20 0xFFFFFFFFFFFFFFFFFFFFFFFFFFFFFFFFFFFFFFFF AND PUSH20 0xFFFFFFFFFFFFFFFFFFFFFFFFFFFFFFFFFFFFFFFF AND DUP2 MSTORE PUSH1 0x20 ADD SWAP1 DUP2 MSTORE PUSH1 0x20 ADD PUSH0 KECCAK256 PUSH0 DUP7 DUP2 MSTORE PUSH1 0x20 ADD SWAP1 DUP2 MSTORE PUSH1 0x20 ADD PUSH0 KECCAK256 SWAP1 POP CALLER DUP2 PUSH0 ADD PUSH0 PUSH2 0x100 EXP DUP2 SLOAD DUP2 PUSH20 0xFFFFFFFFFFFFFFFFFFFFFFFFFFFFFFFFFFFFFFFF MUL NOT AND SWAP1 DUP4 PUSH20 0xFFFFFFFFFFFFFFFFFFFFFFFFFFFFFFFFFFFFFFFF AND MUL OR SWAP1 SSTORE POP PUSH0 JUMPDEST DUP5 MLOAD DUP2 LT ISZERO PUSH2 0x3A0 JUMPI DUP4 DUP2 DUP2 MLOAD DUP2 LT PUSH2 0x33E JUMPI PUSH2 0x33D PUSH2 0x18EC JUMP JUMPDEST JUMPDEST PUSH1 0x20 MUL PUSH1 0x20 ADD ADD MLOAD DUP3 PUSH1 0x1 ADD DUP7 DUP4 DUP2 MLOAD DUP2 LT PUSH2 0x35D JUMPI PUSH2 0x35C PUSH2 0x18EC JUMP JUMPDEST JUMPDEST PUSH1 0x20 MUL PUSH1 0x20 ADD ADD MLOAD PUSH1 0x40 MLOAD PUSH2 0x372 SWAP2 SWAP1 PUSH2 0x1953 JUMP JUMPDEST SWAP1 DUP2 MSTORE PUSH1 0x20 ADD PUSH1 0x40 MLOAD DUP1 SWAP2 SUB SWAP1 KECCAK256 SWAP1 DUP2 PUSH2 0x38C SWAP2 SWAP1 PUSH2 0x1B63 JUMP JUMPDEST POP DUP1 DUP1 PUSH2 0x398 SWAP1 PUSH2 0x1C5F JUMP JUMPDEST SWAP2 POP POP PUSH2 0x322 JUMP JUMPDEST POP DUP4 DUP2 PUSH1 0x2 ADD SWAP1 DUP1 MLOAD SWAP1 PUSH1 0x20 ADD SWAP1 PUSH2 0x3B9 SWAP3 SWAP2 SWAP1 PUSH2 0x10CF JUMP JUMPDEST POP POP POP POP POP POP JUMP JUMPDEST PUSH0 PUSH1 0x2 PUSH0 CALLER PUSH20 0xFFFFFFFFFFFFFFFFFFFFFFFFFFFFFFFFFFFFFFFF AND PUSH20 0xFFFFFFFFFFFFFFFFFFFFFFFFFFFFFFFFFFFFFFFF AND DUP2 MSTORE PUSH1 0x20 ADD SWAP1 DUP2 MSTORE PUSH1 0x20 ADD PUSH0 KECCAK256 DUP1 SLOAD SWAP1 POP SWAP1 POP SWAP1 JUMP JUMPDEST PUSH0 DUP1 PUSH0 SWAP1 POP JUMPDEST PUSH1 0x2 PUSH0 CALLER PUSH20 0xFFFFFFFFFFFFFFFFFFFFFFFFFFFFFFFFFFFFFFFF AND PUSH20 0xFFFFFFFFFFFFFFFFFFFFFFFFFFFFFFFFFFFFFFFF AND DUP2 MSTORE PUSH1 0x20 ADD SWAP1 DUP2 MSTORE PUSH1 0x20 ADD PUSH0 KECCAK256 DUP1 SLOAD SWAP1 POP DUP2 LT ISZERO PUSH2 0x614 JUMPI PUSH0 PUSH1 0x1 PUSH0 CALLER PUSH20 0xFFFFFFFFFFFFFFFFFFFFFFFFFFFFFFFFFFFFFFFF AND PUSH20 0xFFFFFFFFFFFFFFFFFFFFFFFFFFFFFFFFFFFFFFFF AND DUP2 MSTORE PUSH1 0x20 ADD SWAP1 DUP2 MSTORE PUSH1 0x20 ADD PUSH0 KECCAK256 PUSH0 PUSH1 0x2 PUSH0 CALLER PUSH20 0xFFFFFFFFFFFFFFFFFFFFFFFFFFFFFFFFFFFFFFFF AND PUSH20 0xFFFFFFFFFFFFFFFFFFFFFFFFFFFFFFFFFFFFFFFF AND DUP2 MSTORE PUSH1 0x20 ADD SWAP1 DUP2 MSTORE PUSH1 0x20 ADD PUSH0 KECCAK256 DUP5 DUP2 SLOAD DUP2 LT PUSH2 0x4E4 JUMPI PUSH2 0x4E3 PUSH2 0x18EC JUMP JUMPDEST JUMPDEST SWAP1 PUSH0 MSTORE PUSH1 0x20 PUSH0 KECCAK256 ADD SLOAD DUP2 MSTORE PUSH1 0x20 ADD SWAP1 DUP2 MSTORE PUSH1 0x20 ADD PUSH0 KECCAK256 PUSH1 0x1 ADD DUP6 PUSH1 0x40 MLOAD PUSH2 0x50B SWAP2 SWAP1 PUSH2 0x1953 JUMP JUMPDEST SWAP1 DUP2 MSTORE PUSH1 0x20 ADD PUSH1 0x40 MLOAD DUP1 SWAP2 SUB SWAP1 KECCAK256 DUP1 SLOAD PUSH2 0x524 SWAP1 PUSH2 0x1996 JUMP JUMPDEST DUP1 PUSH1 0x1F ADD PUSH1 0x20 DUP1 SWAP2 DIV MUL PUSH1 0x20 ADD PUSH1 0x40 MLOAD SWAP1 DUP2 ADD PUSH1 0x40 MSTORE DUP1 SWAP3 SWAP2 SWAP1 DUP2 DUP2 MSTORE PUSH1 0x20 ADD DUP3 DUP1 SLOAD PUSH2 0x550 SWAP1 PUSH2 0x1996 JUMP JUMPDEST DUP1 ISZERO PUSH2 0x59B JUMPI DUP1 PUSH1 0x1F LT PUSH2 0x572 JUMPI PUSH2 0x100 DUP1 DUP4 SLOAD DIV MUL DUP4 MSTORE SWAP2 PUSH1 0x20 ADD SWAP2 PUSH2 0x59B JUMP JUMPDEST DUP3 ADD SWAP2 SWAP1 PUSH0 MSTORE PUSH1 0x20 PUSH0 KECCAK256 SWAP1 JUMPDEST DUP2 SLOAD DUP2 MSTORE SWAP1 PUSH1 0x1 ADD SWAP1 PUSH1 0x20 ADD DUP1 DUP4 GT PUSH2 0x57E JUMPI DUP3 SWAP1 SUB PUSH1 0x1F AND DUP3 ADD SWAP2 JUMPDEST POP POP POP POP POP SWAP1 POP DUP4 PUSH1 0x40 MLOAD PUSH1 0x20 ADD PUSH2 0x5B3 SWAP2 SWAP1 PUSH2 0x1953 JUMP JUMPDEST PUSH1 0x40 MLOAD PUSH1 0x20 DUP2 DUP4 SUB SUB DUP2 MSTORE SWAP1 PUSH1 0x40 MSTORE DUP1 MLOAD SWAP1 PUSH1 0x20 ADD KECCAK256 DUP2 PUSH1 0x40 MLOAD PUSH1 0x20 ADD PUSH2 0x5DA SWAP2 SWAP1 PUSH2 0x1953 JUMP JUMPDEST PUSH1 0x40 MLOAD PUSH1 0x20 DUP2 DUP4 SUB SUB DUP2 MSTORE SWAP1 PUSH1 0x40 MSTORE DUP1 MLOAD SWAP1 PUSH1 0x20 ADD KECCAK256 SUB PUSH2 0x600 JUMPI PUSH1 0x1 SWAP3 POP POP POP PUSH2 0x619 JUMP JUMPDEST POP DUP1 DUP1 PUSH2 0x60C SWAP1 PUSH2 0x1C5F JUMP JUMPDEST SWAP2 POP POP PUSH2 0x40E JUMP JUMPDEST POP PUSH0 SWAP1 POP JUMPDEST SWAP3 SWAP2 POP POP JUMP JUMPDEST DUP3 CALLER PUSH20 0xFFFFFFFFFFFFFFFFFFFFFFFFFFFFFFFFFFFFFFFF AND PUSH1 0x1 PUSH0 CALLER PUSH20 0xFFFFFFFFFFFFFFFFFFFFFFFFFFFFFFFFFFFFFFFF AND PUSH20 0xFFFFFFFFFFFFFFFFFFFFFFFFFFFFFFFFFFFFFFFF AND DUP2 MSTORE PUSH1 0x20 ADD SWAP1 DUP2 MSTORE PUSH1 0x20 ADD PUSH0 KECCAK256 PUSH0 DUP4 DUP2 MSTORE PUSH1 0x20 ADD SWAP1 DUP2 MSTORE PUSH1 0x20 ADD PUSH0 KECCAK256 PUSH0 ADD PUSH0 SWAP1 SLOAD SWAP1 PUSH2 0x100 EXP SWAP1 DIV PUSH20 0xFFFFFFFFFFFFFFFFFFFFFFFFFFFFFFFFFFFFFFFF AND PUSH20 0xFFFFFFFFFFFFFFFFFFFFFFFFFFFFFFFFFFFFFFFF AND SUB PUSH2 0x6FB JUMPI PUSH1 0x40 MLOAD PUSH32 0x8C379A000000000000000000000000000000000000000000000000000000000 DUP2 MSTORE PUSH1 0x4 ADD PUSH2 0x6F2 SWAP1 PUSH2 0x1CF0 JUMP JUMPDEST PUSH1 0x40 MLOAD DUP1 SWAP2 SUB SWAP1 REVERT JUMPDEST DUP2 MLOAD DUP4 MLOAD EQ PUSH2 0x73F JUMPI PUSH1 0x40 MLOAD PUSH32 0x8C379A000000000000000000000000000000000000000000000000000000000 DUP2 MSTORE PUSH1 0x4 ADD PUSH2 0x736 SWAP1 PUSH2 0x18CE JUMP JUMPDEST PUSH1 0x40 MLOAD DUP1 SWAP2 SUB SWAP1 REVERT JUMPDEST PUSH0 PUSH1 0x1 PUSH0 CALLER PUSH20 0xFFFFFFFFFFFFFFFFFFFFFFFFFFFFFFFFFFFFFFFF AND PUSH20 0xFFFFFFFFFFFFFFFFFFFFFFFFFFFFFFFFFFFFFFFF AND DUP2 MSTORE PUSH1 0x20 ADD SWAP1 DUP2 MSTORE PUSH1 0x20 ADD PUSH0 KECCAK256 PUSH0 DUP7 DUP2 MSTORE PUSH1 0x20 ADD SWAP1 DUP2 MSTORE PUSH1 0x20 ADD PUSH0 KECCAK256 SWAP1 POP CALLER DUP2 PUSH0 ADD PUSH0 PUSH2 0x100 EXP DUP2 SLOAD DUP2 PUSH20 0xFFFFFFFFFFFFFFFFFFFFFFFFFFFFFFFFFFFFFFFF MUL NOT AND SWAP1 DUP4 PUSH20 0xFFFFFFFFFFFFFFFFFFFFFFFFFFFFFFFFFFFFFFFF AND MUL OR SWAP1 SSTORE POP PUSH0 JUMPDEST DUP5 MLOAD DUP2 LT ISZERO PUSH2 0x84F JUMPI DUP4 DUP2 DUP2 MLOAD DUP2 LT PUSH2 0x7ED JUMPI PUSH2 0x7EC PUSH2 0x18EC JUMP JUMPDEST JUMPDEST PUSH1 0x20 MUL PUSH1 0x20 ADD ADD MLOAD DUP3 PUSH1 0x1 ADD DUP7 DUP4 DUP2 MLOAD DUP2 LT PUSH2 0x80C JUMPI PUSH2 0x80B PUSH2 0x18EC JUMP JUMPDEST JUMPDEST PUSH1 0x20 MUL PUSH1 0x20 ADD ADD MLOAD PUSH1 0x40 MLOAD PUSH2 0x821 SWAP2 SWAP1 PUSH2 0x1953 JUMP JUMPDEST SWAP1 DUP2 MSTORE PUSH1 0x20 ADD PUSH1 0x40 MLOAD DUP1 SWAP2 SUB SWAP1 KECCAK256 SWAP1 DUP2 PUSH2 0x83B SWAP2 SWAP1 PUSH2 0x1B63 JUMP JUMPDEST POP DUP1 DUP1 PUSH2 0x847 SWAP1 PUSH2 0x1C5F JUMP JUMPDEST SWAP2 POP POP PUSH2 0x7D1 JUMP JUMPDEST POP DUP4 DUP2 PUSH1 0x2 ADD SWAP1 DUP1 MLOAD SWAP1 PUSH1 0x20 ADD SWAP1 PUSH2 0x868 SWAP3 SWAP2 SWAP1 PUSH2 0x10CF JUMP JUMPDEST POP PUSH1 0x2 PUSH0 CALLER PUSH20 0xFFFFFFFFFFFFFFFFFFFFFFFFFFFFFFFFFFFFFFFF AND PUSH20 0xFFFFFFFFFFFFFFFFFFFFFFFFFFFFFFFFFFFFFFFF AND DUP2 MSTORE PUSH1 0x20 ADD SWAP1 DUP2 MSTORE PUSH1 0x20 ADD PUSH0 KECCAK256 DUP6 SWAP1 DUP1 PUSH1 0x1 DUP2 SLOAD ADD DUP1 DUP3 SSTORE DUP1 SWAP2 POP POP PUSH1 0x1 SWAP1 SUB SWAP1 PUSH0 MSTORE PUSH1 0x20 PUSH0 KECCAK256 ADD PUSH0 SWAP1 SWAP2 SWAP1 SWAP2 SWAP1 SWAP2 POP SSTORE POP POP POP POP POP JUMP JUMPDEST PUSH1 0x60 DUP1 DUP3 CALLER PUSH20 0xFFFFFFFFFFFFFFFFFFFFFFFFFFFFFFFFFFFFFFFF AND PUSH1 0x1 PUSH0 CALLER PUSH20 0xFFFFFFFFFFFFFFFFFFFFFFFFFFFFFFFFFFFFFFFF AND PUSH20 0xFFFFFFFFFFFFFFFFFFFFFFFFFFFFFFFFFFFFFFFF AND DUP2 MSTORE PUSH1 0x20 ADD SWAP1 DUP2 MSTORE PUSH1 0x20 ADD PUSH0 KECCAK256 PUSH0 DUP4 DUP2 MSTORE PUSH1 0x20 ADD SWAP1 DUP2 MSTORE PUSH1 0x20 ADD PUSH0 KECCAK256 PUSH0 ADD PUSH0 SWAP1 SLOAD SWAP1 PUSH2 0x100 EXP SWAP1 DIV PUSH20 0xFFFFFFFFFFFFFFFFFFFFFFFFFFFFFFFFFFFFFFFF AND PUSH20 0xFFFFFFFFFFFFFFFFFFFFFFFFFFFFFFFFFFFFFFFF AND EQ PUSH2 0x9B0 JUMPI PUSH1 0x40 MLOAD PUSH32 0x8C379A000000000000000000000000000000000000000000000000000000000 DUP2 MSTORE PUSH1 0x4 ADD PUSH2 0x9A7 SWAP1 PUSH2 0x1840 JUMP JUMPDEST PUSH1 0x40 MLOAD DUP1 SWAP2 SUB SWAP1 REVERT JUMPDEST PUSH0 PUSH1 0x1 PUSH0 CALLER PUSH20 0xFFFFFFFFFFFFFFFFFFFFFFFFFFFFFFFFFFFFFFFF AND PUSH20 0xFFFFFFFFFFFFFFFFFFFFFFFFFFFFFFFFFFFFFFFF AND DUP2 MSTORE PUSH1 0x20 ADD SWAP1 DUP2 MSTORE PUSH1 0x20 ADD PUSH0 KECCAK256 PUSH0 DUP7 DUP2 MSTORE PUSH1 0x20 ADD SWAP1 DUP2 MSTORE PUSH1 0x20 ADD PUSH0 KECCAK256 SWAP1 POP PUSH0 DUP2 PUSH1 0x2 ADD DUP1 SLOAD SWAP1 POP PUSH8 0xFFFFFFFFFFFFFFFF DUP2 GT ISZERO PUSH2 0xA21 JUMPI PUSH2 0xA20 PUSH2 0x1217 JUMP JUMPDEST JUMPDEST PUSH1 0x40 MLOAD SWAP1 DUP1 DUP3 MSTORE DUP1 PUSH1 0x20 MUL PUSH1 0x20 ADD DUP3 ADD PUSH1 0x40 MSTORE DUP1 ISZERO PUSH2 0xA54 JUMPI DUP2 PUSH1 0x20 ADD JUMPDEST PUSH1 0x60 DUP2 MSTORE PUSH1 0x20 ADD SWAP1 PUSH1 0x1 SWAP1 SUB SWAP1 DUP2 PUSH2 0xA3F JUMPI SWAP1 POP JUMPDEST POP SWAP1 POP PUSH0 JUMPDEST DUP3 PUSH1 0x2 ADD DUP1 SLOAD SWAP1 POP DUP2 LT ISZERO PUSH2 0xB5D JUMPI DUP3 PUSH1 0x1 ADD DUP4 PUSH1 0x2 ADD DUP3 DUP2 SLOAD DUP2 LT PUSH2 0xA82 JUMPI PUSH2 0xA81 PUSH2 0x18EC JUMP JUMPDEST JUMPDEST SWAP1 PUSH0 MSTORE PUSH1 0x20 PUSH0 KECCAK256 ADD PUSH1 0x40 MLOAD PUSH2 0xA97 SWAP2 SWAP1 PUSH2 0x1D8E JUMP JUMPDEST SWAP1 DUP2 MSTORE PUSH1 0x20 ADD PUSH1 0x40 MLOAD DUP1 SWAP2 SUB SWAP1 KECCAK256 DUP1 SLOAD PUSH2 0xAB0 SWAP1 PUSH2 0x1996 JUMP JUMPDEST DUP1 PUSH1 0x1F ADD PUSH1 0x20 DUP1 SWAP2 DIV MUL PUSH1 0x20 ADD PUSH1 0x40 MLOAD SWAP1 DUP2 ADD PUSH1 0x40 MSTORE DUP1 SWAP3 SWAP2 SWAP1 DUP2 DUP2 MSTORE PUSH1 0x20 ADD DUP3 DUP1 SLOAD PUSH2 0xADC SWAP1 PUSH2 0x1996 JUMP JUMPDEST DUP1 ISZERO PUSH2 0xB27 JUMPI DUP1 PUSH1 0x1F LT PUSH2 0xAFE JUMPI PUSH2 0x100 DUP1 DUP4 SLOAD DIV MUL DUP4 MSTORE SWAP2 PUSH1 0x20 ADD SWAP2 PUSH2 0xB27 JUMP JUMPDEST DUP3 ADD SWAP2 SWAP1 PUSH0 MSTORE PUSH1 0x20 PUSH0 KECCAK256 SWAP1 JUMPDEST DUP2 SLOAD DUP2 MSTORE SWAP1 PUSH1 0x1 ADD SWAP1 PUSH1 0x20 ADD DUP1 DUP4 GT PUSH2 0xB0A JUMPI DUP3 SWAP1 SUB PUSH1 0x1F AND DUP3 ADD SWAP2 JUMPDEST POP POP POP POP POP DUP3 DUP3 DUP2 MLOAD DUP2 LT PUSH2 0xB3F JUMPI PUSH2 0xB3E PUSH2 0x18EC JUMP JUMPDEST JUMPDEST PUSH1 0x20 MUL PUSH1 0x20 ADD ADD DUP2 SWAP1 MSTORE POP DUP1 DUP1 PUSH2 0xB55 SWAP1 PUSH2 0x1C5F JUMP JUMPDEST SWAP2 POP POP PUSH2 0xA59 JUMP JUMPDEST POP DUP2 PUSH1 0x2 ADD DUP2 DUP2 DUP1 SLOAD DUP1 PUSH1 0x20 MUL PUSH1 0x20 ADD PUSH1 0x40 MLOAD SWAP1 DUP2 ADD PUSH1 0x40 MSTORE DUP1 SWAP3 SWAP2 SWAP1 DUP2 DUP2 MSTORE PUSH1 0x20 ADD PUSH0 SWAP1 JUMPDEST DUP3 DUP3 LT ISZERO PUSH2 0xC2B JUMPI DUP4 DUP3 SWAP1 PUSH0 MSTORE PUSH1 0x20 PUSH0 KECCAK256 ADD DUP1 SLOAD PUSH2 0xBA0 SWAP1 PUSH2 0x1996 JUMP JUMPDEST DUP1 PUSH1 0x1F ADD PUSH1 0x20 DUP1 SWAP2 DIV MUL PUSH1 0x20 ADD PUSH1 0x40 MLOAD SWAP1 DUP2 ADD PUSH1 0x40 MSTORE DUP1 SWAP3 SWAP2 SWAP1 DUP2 DUP2 MSTORE PUSH1 0x20 ADD DUP3 DUP1 SLOAD PUSH2 0xBCC SWAP1 PUSH2 0x1996 JUMP JUMPDEST DUP1 ISZERO PUSH2 0xC17 JUMPI DUP1 PUSH1 0x1F LT PUSH2 0xBEE JUMPI PUSH2 0x100 DUP1 DUP4 SLOAD DIV MUL DUP4 MSTORE SWAP2 PUSH1 0x20 ADD SWAP2 PUSH2 0xC17 JUMP JUMPDEST DUP3 ADD SWAP2 SWAP1 PUSH0 MSTORE PUSH1 0x20 PUSH0 KECCAK256 SWAP1 JUMPDEST DUP2 SLOAD DUP2 MSTORE SWAP1 PUSH1 0x1 ADD SWAP1 PUSH1 0x20 ADD DUP1 DUP4 GT PUSH2 0xBFA JUMPI DUP3 SWAP1 SUB PUSH1 0x1F AND DUP3 ADD SWAP2 JUMPDEST POP POP POP POP POP DUP2 MSTORE PUSH1 0x20 ADD SWAP1 PUSH1 0x1 ADD SWAP1 PUSH2 0xB83 JUMP JUMPDEST POP POP POP POP SWAP2 POP SWAP5 POP SWAP5 POP POP POP POP SWAP2 POP SWAP2 JUMP JUMPDEST DUP1 CALLER PUSH20 0xFFFFFFFFFFFFFFFFFFFFFFFFFFFFFFFFFFFFFFFF AND PUSH1 0x1 PUSH0 CALLER PUSH20 0xFFFFFFFFFFFFFFFFFFFFFFFFFFFFFFFFFFFFFFFF AND PUSH20 0xFFFFFFFFFFFFFFFFFFFFFFFFFFFFFFFFFFFFFFFF AND DUP2 MSTORE PUSH1 0x20 ADD SWAP1 DUP2 MSTORE PUSH1 0x20 ADD PUSH0 KECCAK256 PUSH0 DUP4 DUP2 MSTORE PUSH1 0x20 ADD SWAP1 DUP2 MSTORE PUSH1 0x20 ADD PUSH0 KECCAK256 PUSH0 ADD PUSH0 SWAP1 SLOAD SWAP1 PUSH2 0x100 EXP SWAP1 DIV PUSH20 0xFFFFFFFFFFFFFFFFFFFFFFFFFFFFFFFFFFFFFFFF AND PUSH20 0xFFFFFFFFFFFFFFFFFFFFFFFFFFFFFFFFFFFFFFFF AND EQ PUSH2 0xD19 JUMPI PUSH1 0x40 MLOAD PUSH32 0x8C379A000000000000000000000000000000000000000000000000000000000 DUP2 MSTORE PUSH1 0x4 ADD PUSH2 0xD10 SWAP1 PUSH2 0x1840 JUMP JUMPDEST PUSH1 0x40 MLOAD DUP1 SWAP2 SUB SWAP1 REVERT JUMPDEST PUSH0 JUMPDEST PUSH1 0x2 PUSH0 CALLER PUSH20 0xFFFFFFFFFFFFFFFFFFFFFFFFFFFFFFFFFFFFFFFF AND PUSH20 0xFFFFFFFFFFFFFFFFFFFFFFFFFFFFFFFFFFFFFFFF AND DUP2 MSTORE PUSH1 0x20 ADD SWAP1 DUP2 MSTORE PUSH1 0x20 ADD PUSH0 KECCAK256 DUP1 SLOAD SWAP1 POP DUP2 LT ISZERO PUSH2 0xDDE JUMPI DUP3 PUSH1 0x2 PUSH0 CALLER PUSH20 0xFFFFFFFFFFFFFFFFFFFFFFFFFFFFFFFFFFFFFFFF AND PUSH20 0xFFFFFFFFFFFFFFFFFFFFFFFFFFFFFFFFFFFFFFFF AND DUP2 MSTORE PUSH1 0x20 ADD SWAP1 DUP2 MSTORE PUSH1 0x20 ADD PUSH0 KECCAK256 DUP3 DUP2 SLOAD DUP2 LT PUSH2 0xDB3 JUMPI PUSH2 0xDB2 PUSH2 0x18EC JUMP JUMPDEST JUMPDEST SWAP1 PUSH0 MSTORE PUSH1 0x20 PUSH0 KECCAK256 ADD SLOAD SUB PUSH2 0xDCB JUMPI PUSH2 0xDCA DUP2 PUSH2 0xEF7 JUMP JUMPDEST JUMPDEST DUP1 DUP1 PUSH2 0xDD6 SWAP1 PUSH2 0x1C5F JUMP JUMPDEST SWAP2 POP POP PUSH2 0xD1B JUMP JUMPDEST POP PUSH1 0x1 PUSH0 CALLER PUSH20 0xFFFFFFFFFFFFFFFFFFFFFFFFFFFFFFFFFFFFFFFF AND PUSH20 0xFFFFFFFFFFFFFFFFFFFFFFFFFFFFFFFFFFFFFFFF AND DUP2 MSTORE PUSH1 0x20 ADD SWAP1 DUP2 MSTORE PUSH1 0x20 ADD PUSH0 KECCAK256 PUSH0 DUP4 DUP2 MSTORE PUSH1 0x20 ADD SWAP1 DUP2 MSTORE PUSH1 0x20 ADD PUSH0 KECCAK256 PUSH0 DUP1 DUP3 ADD PUSH0 PUSH2 0x100 EXP DUP2 SLOAD SWAP1 PUSH20 0xFFFFFFFFFFFFFFFFFFFFFFFFFFFFFFFFFFFFFFFF MUL NOT AND SWAP1 SSTORE PUSH1 0x2 DUP3 ADD PUSH0 PUSH2 0xE60 SWAP2 SWAP1 PUSH2 0x1126 JUMP JUMPDEST POP POP POP POP JUMP JUMPDEST PUSH1 0x60 PUSH1 0x2 PUSH0 CALLER PUSH20 0xFFFFFFFFFFFFFFFFFFFFFFFFFFFFFFFFFFFFFFFF AND PUSH20 0xFFFFFFFFFFFFFFFFFFFFFFFFFFFFFFFFFFFFFFFF AND DUP2 MSTORE PUSH1 0x20 ADD SWAP1 DUP2 MSTORE PUSH1 0x20 ADD PUSH0 KECCAK256 DUP1 SLOAD DUP1 PUSH1 0x20 MUL PUSH1 0x20 ADD PUSH1 0x40 MLOAD SWAP1 DUP2 ADD PUSH1 0x40 MSTORE DUP1 SWAP3 SWAP2 SWAP1 DUP2 DUP2 MSTORE PUSH1 0x20 ADD DUP3 DUP1 SLOAD DUP1 ISZERO PUSH2 0xEED JUMPI PUSH1 0x20 MUL DUP3 ADD SWAP2 SWAP1 PUSH0 MSTORE PUSH1 0x20 PUSH0 KECCAK256 SWAP1 JUMPDEST DUP2 SLOAD DUP2 MSTORE PUSH1 0x20 ADD SWAP1 PUSH1 0x1 ADD SWAP1 DUP1 DUP4 GT PUSH2 0xED9 JUMPI JUMPDEST POP POP POP POP POP SWAP1 POP SWAP1 JUMP JUMPDEST PUSH1 0x2 PUSH0 CALLER PUSH20 0xFFFFFFFFFFFFFFFFFFFFFFFFFFFFFFFFFFFFFFFF AND PUSH20 0xFFFFFFFFFFFFFFFFFFFFFFFFFFFFFFFFFFFFFFFF AND DUP2 MSTORE PUSH1 0x20 ADD SWAP1 DUP2 MSTORE PUSH1 0x20 ADD PUSH0 KECCAK256 DUP1 SLOAD SWAP1 POP DUP2 LT ISZERO PUSH2 0x10CC JUMPI PUSH0 DUP2 SWAP1 POP JUMPDEST PUSH1 0x1 PUSH1 0x2 PUSH0 CALLER PUSH20 0xFFFFFFFFFFFFFFFFFFFFFFFFFFFFFFFFFFFFFFFF AND PUSH20 0xFFFFFFFFFFFFFFFFFFFFFFFFFFFFFFFFFFFFFFFF AND DUP2 MSTORE PUSH1 0x20 ADD SWAP1 DUP2 MSTORE PUSH1 0x20 ADD PUSH0 KECCAK256 DUP1 SLOAD SWAP1 POP PUSH2 0xF91 SWAP2 SWAP1 PUSH2 0x1DA4 JUMP JUMPDEST DUP2 LT ISZERO PUSH2 0x106A JUMPI PUSH1 0x2 PUSH0 CALLER PUSH20 0xFFFFFFFFFFFFFFFFFFFFFFFFFFFFFFFFFFFFFFFF AND PUSH20 0xFFFFFFFFFFFFFFFFFFFFFFFFFFFFFFFFFFFFFFFF AND DUP2 MSTORE PUSH1 0x20 ADD SWAP1 DUP2 MSTORE PUSH1 0x20 ADD PUSH0 KECCAK256 PUSH1 0x1 DUP3 PUSH2 0xFE2 SWAP2 SWAP1 PUSH2 0x1DD7 JUMP JUMPDEST DUP2 SLOAD DUP2 LT PUSH2 0xFF3 JUMPI PUSH2 0xFF2 PUSH2 0x18EC JUMP JUMPDEST JUMPDEST SWAP1 PUSH0 MSTORE PUSH1 0x20 PUSH0 KECCAK256 ADD SLOAD PUSH1 0x2 PUSH0 CALLER PUSH20 0xFFFFFFFFFFFFFFFFFFFFFFFFFFFFFFFFFFFFFFFF AND PUSH20 0xFFFFFFFFFFFFFFFFFFFFFFFFFFFFFFFFFFFFFFFF AND DUP2 MSTORE PUSH1 0x20 ADD SWAP1 DUP2 MSTORE PUSH1 0x20 ADD PUSH0 KECCAK256 DUP3 DUP2 SLOAD DUP2 LT PUSH2 0x104B JUMPI PUSH2 0x104A PUSH2 0x18EC JUMP JUMPDEST JUMPDEST SWAP1 PUSH0 MSTORE PUSH1 0x20 PUSH0 KECCAK256 ADD DUP2 SWAP1 SSTORE POP DUP1 DUP1 PUSH2 0x1062 SWAP1 PUSH2 0x1C5F JUMP JUMPDEST SWAP2 POP POP PUSH2 0xF44 JUMP JUMPDEST POP PUSH1 0x2 PUSH0 CALLER PUSH20 0xFFFFFFFFFFFFFFFFFFFFFFFFFFFFFFFFFFFFFFFF AND PUSH20 0xFFFFFFFFFFFFFFFFFFFFFFFFFFFFFFFFFFFFFFFF AND DUP2 MSTORE PUSH1 0x20 ADD SWAP1 DUP2 MSTORE PUSH1 0x20 ADD PUSH0 KECCAK256 DUP1 SLOAD DUP1 PUSH2 0x10B8 JUMPI PUSH2 0x10B7 PUSH2 0x1E0A JUMP JUMPDEST JUMPDEST PUSH1 0x1 SWAP1 SUB DUP2 DUP2 SWAP1 PUSH0 MSTORE PUSH1 0x20 PUSH0 KECCAK256 ADD PUSH0 SWAP1 SSTORE SWAP1 SSTORE JUMPDEST POP JUMP JUMPDEST DUP3 DUP1 SLOAD DUP3 DUP3 SSTORE SWAP1 PUSH0 MSTORE PUSH1 0x20 PUSH0 KECCAK256 SWAP1 DUP2 ADD SWAP3 DUP3 ISZERO PUSH2 0x1115 JUMPI SWAP2 PUSH1 0x20 MUL DUP3 ADD JUMPDEST DUP3 DUP2 GT ISZERO PUSH2 0x1114 JUMPI DUP3 MLOAD DUP3 SWAP1 DUP2 PUSH2 0x1104 SWAP2 SWAP1 PUSH2 0x1B63 JUMP JUMPDEST POP SWAP2 PUSH1 0x20 ADD SWAP2 SWAP1 PUSH1 0x1 ADD SWAP1 PUSH2 0x10ED JUMP JUMPDEST JUMPDEST POP SWAP1 POP PUSH2 0x1122 SWAP2 SWAP1 PUSH2 0x1144 JUMP JUMPDEST POP SWAP1 JUMP JUMPDEST POP DUP1 SLOAD PUSH0 DUP3 SSTORE SWAP1 PUSH0 MSTORE PUSH1 0x20 PUSH0 KECCAK256 SWAP1 DUP2 ADD SWAP1 PUSH2 0x1141 SWAP2 SWAP1 PUSH2 0x1144 JUMP JUMPDEST POP JUMP JUMPDEST JUMPDEST DUP1 DUP3 GT ISZERO PUSH2 0x1163 JUMPI PUSH0 DUP2 DUP2 PUSH2 0x115A SWAP2 SWAP1 PUSH2 0x1167 JUMP JUMPDEST POP PUSH1 0x1 ADD PUSH2 0x1145 JUMP JUMPDEST POP SWAP1 JUMP JUMPDEST POP DUP1 SLOAD PUSH2 0x1173 SWAP1 PUSH2 0x1996 JUMP JUMPDEST PUSH0 DUP3 SSTORE DUP1 PUSH1 0x1F LT PUSH2 0x1184 JUMPI POP PUSH2 0x11A1 JUMP JUMPDEST PUSH1 0x1F ADD PUSH1 0x20 SWAP1 DIV SWAP1 PUSH0 MSTORE PUSH1 0x20 PUSH0 KECCAK256 SWAP1 DUP2 ADD SWAP1 PUSH2 0x11A0 SWAP2 SWAP1 PUSH2 0x11A4 JUMP JUMPDEST JUMPDEST POP JUMP JUMPDEST JUMPDEST DUP1 DUP3 GT ISZERO PUSH2 0x11BB JUMPI PUSH0 DUP2 PUSH0 SWAP1 SSTORE POP PUSH1 0x1 ADD PUSH2 0x11A5 JUMP JUMPDEST POP SWAP1 JUMP JUMPDEST PUSH0 PUSH1 0x40 MLOAD SWAP1 POP SWAP1 JUMP JUMPDEST PUSH0 DUP1 REVERT JUMPDEST PUSH0 DUP1 REVERT JUMPDEST PUSH0 DUP2 SWAP1 POP SWAP2 SWAP1 POP JUMP JUMPDEST PUSH2 0x11E2 DUP2 PUSH2 0x11D0 JUMP JUMPDEST DUP2 EQ PUSH2 0x11EC JUMPI PUSH0 DUP1 REVERT JUMPDEST POP JUMP JUMPDEST PUSH0 DUP2 CALLDATALOAD SWAP1 POP PUSH2 0x11FD DUP2 PUSH2 0x11D9 JUMP JUMPDEST SWAP3 SWAP2 POP POP JUMP JUMPDEST PUSH0 DUP1 REVERT JUMPDEST PUSH0 PUSH1 0x1F NOT PUSH1 0x1F DUP4 ADD AND SWAP1 POP SWAP2 SWAP1 POP JUMP JUMPDEST PUSH32 0x4E487B7100000000000000000000000000000000000000000000000000000000 PUSH0 MSTORE PUSH1 0x41 PUSH1 0x4 MSTORE PUSH1 0x24 PUSH0 REVERT JUMPDEST PUSH2 0x124D DUP3 PUSH2 0x1207 JUMP JUMPDEST DUP2 ADD DUP2 DUP2 LT PUSH8 0xFFFFFFFFFFFFFFFF DUP3 GT OR ISZERO PUSH2 0x126C JUMPI PUSH2 0x126B PUSH2 0x1217 JUMP JUMPDEST JUMPDEST DUP1 PUSH1 0x40 MSTORE POP POP POP JUMP JUMPDEST PUSH0 PUSH2 0x127E PUSH2 0x11BF JUMP JUMPDEST SWAP1 POP PUSH2 0x128A DUP3 DUP3 PUSH2 0x1244 JUMP JUMPDEST SWAP2 SWAP1 POP JUMP JUMPDEST PUSH0 PUSH8 0xFFFFFFFFFFFFFFFF DUP3 GT ISZERO PUSH2 0x12A9 JUMPI PUSH2 0x12A8 PUSH2 0x1217 JUMP JUMPDEST JUMPDEST PUSH1 0x20 DUP3 MUL SWAP1 POP PUSH1 0x20 DUP2 ADD SWAP1 POP SWAP2 SWAP1 POP JUMP JUMPDEST PUSH0 DUP1 REVERT JUMPDEST PUSH0 DUP1 REVERT JUMPDEST PUSH0 PUSH8 0xFFFFFFFFFFFFFFFF DUP3 GT ISZERO PUSH2 0x12DC JUMPI PUSH2 0x12DB PUSH2 0x1217 JUMP JUMPDEST JUMPDEST PUSH2 0x12E5 DUP3 PUSH2 0x1207 JUMP JUMPDEST SWAP1 POP PUSH1 0x20 DUP2 ADD SWAP1 POP SWAP2 SWAP1 POP JUMP JUMPDEST DUP3 DUP2 DUP4 CALLDATACOPY PUSH0 DUP4 DUP4 ADD MSTORE POP POP POP JUMP JUMPDEST PUSH0 PUSH2 0x1312 PUSH2 0x130D DUP5 PUSH2 0x12C2 JUMP JUMPDEST PUSH2 0x1275 JUMP JUMPDEST SWAP1 POP DUP3 DUP2 MSTORE PUSH1 0x20 DUP2 ADD DUP5 DUP5 DUP5 ADD GT ISZERO PUSH2 0x132E JUMPI PUSH2 0x132D PUSH2 0x12BE JUMP JUMPDEST JUMPDEST PUSH2 0x1339 DUP5 DUP3 DUP6 PUSH2 0x12F2 JUMP JUMPDEST POP SWAP4 SWAP3 POP POP POP JUMP JUMPDEST PUSH0 DUP3 PUSH1 0x1F DUP4 ADD SLT PUSH2 0x1355 JUMPI PUSH2 0x1354 PUSH2 0x1203 JUMP JUMPDEST JUMPDEST DUP2 CALLDATALOAD PUSH2 0x1365 DUP5 DUP3 PUSH1 0x20 DUP7 ADD PUSH2 0x1300 JUMP JUMPDEST SWAP2 POP POP SWAP3 SWAP2 POP POP JUMP JUMPDEST PUSH0 PUSH2 0x1380 PUSH2 0x137B DUP5 PUSH2 0x128F JUMP JUMPDEST PUSH2 0x1275 JUMP JUMPDEST SWAP1 POP DUP1 DUP4 DUP3 MSTORE PUSH1 0x20 DUP3 ADD SWAP1 POP PUSH1 0x20 DUP5 MUL DUP4 ADD DUP6 DUP2 GT ISZERO PUSH2 0x13A3 JUMPI PUSH2 0x13A2 PUSH2 0x12BA JUMP JUMPDEST JUMPDEST DUP4 JUMPDEST DUP2 DUP2 LT ISZERO PUSH2 0x13EA JUMPI DUP1 CALLDATALOAD PUSH8 0xFFFFFFFFFFFFFFFF DUP2 GT ISZERO PUSH2 0x13C8 JUMPI PUSH2 0x13C7 PUSH2 0x1203 JUMP JUMPDEST JUMPDEST DUP1 DUP7 ADD PUSH2 0x13D5 DUP10 DUP3 PUSH2 0x1341 JUMP JUMPDEST DUP6 MSTORE PUSH1 0x20 DUP6 ADD SWAP5 POP POP POP PUSH1 0x20 DUP2 ADD SWAP1 POP PUSH2 0x13A5 JUMP JUMPDEST POP POP POP SWAP4 SWAP3 POP POP POP JUMP JUMPDEST PUSH0 DUP3 PUSH1 0x1F DUP4 ADD SLT PUSH2 0x1408 JUMPI PUSH2 0x1407 PUSH2 0x1203 JUMP JUMPDEST JUMPDEST DUP2 CALLDATALOAD PUSH2 0x1418 DUP5 DUP3 PUSH1 0x20 DUP7 ADD PUSH2 0x136E JUMP JUMPDEST SWAP2 POP POP SWAP3 SWAP2 POP POP JUMP JUMPDEST PUSH0 DUP1 PUSH0 PUSH1 0x60 DUP5 DUP7 SUB SLT ISZERO PUSH2 0x1438 JUMPI PUSH2 0x1437 PUSH2 0x11C8 JUMP JUMPDEST JUMPDEST PUSH0 PUSH2 0x1445 DUP7 DUP3 DUP8 ADD PUSH2 0x11EF JUMP JUMPDEST SWAP4 POP POP PUSH1 0x20 DUP5 ADD CALLDATALOAD PUSH8 0xFFFFFFFFFFFFFFFF DUP2 GT ISZERO PUSH2 0x1466 JUMPI PUSH2 0x1465 PUSH2 0x11CC JUMP JUMPDEST JUMPDEST PUSH2 0x1472 DUP7 DUP3 DUP8 ADD PUSH2 0x13F4 JUMP JUMPDEST SWAP3 POP POP PUSH1 0x40 DUP5 ADD CALLDATALOAD PUSH8 0xFFFFFFFFFFFFFFFF DUP2 GT ISZERO PUSH2 0x1493 JUMPI PUSH2 0x1492 PUSH2 0x11CC JUMP JUMPDEST JUMPDEST PUSH2 0x149F DUP7 DUP3 DUP8 ADD PUSH2 0x13F4 JUMP JUMPDEST SWAP2 POP POP SWAP3 POP SWAP3 POP SWAP3 JUMP JUMPDEST PUSH2 0x14B2 DUP2 PUSH2 0x11D0 JUMP JUMPDEST DUP3 MSTORE POP POP JUMP JUMPDEST PUSH0 PUSH1 0x20 DUP3 ADD SWAP1 POP PUSH2 0x14CB PUSH0 DUP4 ADD DUP5 PUSH2 0x14A9 JUMP JUMPDEST SWAP3 SWAP2 POP POP JUMP JUMPDEST PUSH0 DUP1 PUSH1 0x40 DUP4 DUP6 SUB SLT ISZERO PUSH2 0x14E7 JUMPI PUSH2 0x14E6 PUSH2 0x11C8 JUMP JUMPDEST JUMPDEST PUSH0 DUP4 ADD CALLDATALOAD PUSH8 0xFFFFFFFFFFFFFFFF DUP2 GT ISZERO PUSH2 0x1504 JUMPI PUSH2 0x1503 PUSH2 0x11CC JUMP JUMPDEST JUMPDEST PUSH2 0x1510 DUP6 DUP3 DUP7 ADD PUSH2 0x1341 JUMP JUMPDEST SWAP3 POP POP PUSH1 0x20 DUP4 ADD CALLDATALOAD PUSH8 0xFFFFFFFFFFFFFFFF DUP2 GT ISZERO PUSH2 0x1531 JUMPI PUSH2 0x1530 PUSH2 0x11CC JUMP JUMPDEST JUMPDEST PUSH2 0x153D DUP6 DUP3 DUP7 ADD PUSH2 0x1341 JUMP JUMPDEST SWAP2 POP POP SWAP3 POP SWAP3 SWAP1 POP JUMP JUMPDEST PUSH0 DUP2 ISZERO ISZERO SWAP1 POP SWAP2 SWAP1 POP JUMP JUMPDEST PUSH2 0x155B DUP2 PUSH2 0x1547 JUMP JUMPDEST DUP3 MSTORE POP POP JUMP JUMPDEST PUSH0 PUSH1 0x20 DUP3 ADD SWAP1 POP PUSH2 0x1574 PUSH0 DUP4 ADD DUP5 PUSH2 0x1552 JUMP JUMPDEST SWAP3 SWAP2 POP POP JUMP JUMPDEST PUSH0 PUSH1 0x20 DUP3 DUP5 SUB SLT ISZERO PUSH2 0x158F JUMPI PUSH2 0x158E PUSH2 0x11C8 JUMP JUMPDEST JUMPDEST PUSH0 PUSH2 0x159C DUP5 DUP3 DUP6 ADD PUSH2 0x11EF JUMP JUMPDEST SWAP2 POP POP SWAP3 SWAP2 POP POP JUMP JUMPDEST PUSH0 DUP2 MLOAD SWAP1 POP SWAP2 SWAP1 POP JUMP JUMPDEST PUSH0 DUP3 DUP3 MSTORE PUSH1 0x20 DUP3 ADD SWAP1 POP SWAP3 SWAP2 POP POP JUMP JUMPDEST PUSH0 DUP2 SWAP1 POP PUSH1 0x20 DUP3 ADD SWAP1 POP SWAP2 SWAP1 POP JUMP JUMPDEST PUSH0 DUP2 MLOAD SWAP1 POP SWAP2 SWAP1 POP JUMP JUMPDEST PUSH0 DUP3 DUP3 MSTORE PUSH1 0x20 DUP3 ADD SWAP1 POP SWAP3 SWAP2 POP POP JUMP JUMPDEST PUSH0 JUMPDEST DUP4 DUP2 LT ISZERO PUSH2 0x1605 JUMPI DUP1 DUP3 ADD MLOAD DUP2 DUP5 ADD MSTORE PUSH1 0x20 DUP2 ADD SWAP1 POP PUSH2 0x15EA JUMP JUMPDEST PUSH0 DUP5 DUP5 ADD MSTORE POP POP POP POP JUMP JUMPDEST PUSH0 PUSH2 0x161A DUP3 PUSH2 0x15CE JUMP JUMPDEST PUSH2 0x1624 DUP2 DUP6 PUSH2 0x15D8 JUMP JUMPDEST SWAP4 POP PUSH2 0x1634 DUP2 DUP6 PUSH1 0x20 DUP7 ADD PUSH2 0x15E8 JUMP JUMPDEST PUSH2 0x163D DUP2 PUSH2 0x1207 JUMP JUMPDEST DUP5 ADD SWAP2 POP POP SWAP3 SWAP2 POP POP JUMP JUMPDEST PUSH0 PUSH2 0x1653 DUP4 DUP4 PUSH2 0x1610 JUMP JUMPDEST SWAP1 POP SWAP3 SWAP2 POP POP JUMP JUMPDEST PUSH0 PUSH1 0x20 DUP3 ADD SWAP1 POP SWAP2 SWAP1 POP JUMP JUMPDEST PUSH0 PUSH2 0x1671 DUP3 PUSH2 0x15A5 JUMP JUMPDEST PUSH2 0x167B DUP2 DUP6 PUSH2 0x15AF JUMP JUMPDEST SWAP4 POP DUP4 PUSH1 0x20 DUP3 MUL DUP6 ADD PUSH2 0x168D DUP6 PUSH2 0x15BF JUMP JUMPDEST DUP1 PUSH0 JUMPDEST DUP6 DUP2 LT ISZERO PUSH2 0x16C8 JUMPI DUP5 DUP5 SUB DUP10 MSTORE DUP2 MLOAD PUSH2 0x16A9 DUP6 DUP3 PUSH2 0x1648 JUMP JUMPDEST SWAP5 POP PUSH2 0x16B4 DUP4 PUSH2 0x165B JUMP JUMPDEST SWAP3 POP PUSH1 0x20 DUP11 ADD SWAP10 POP POP PUSH1 0x1 DUP2 ADD SWAP1 POP PUSH2 0x1690 JUMP JUMPDEST POP DUP3 SWAP8 POP DUP8 SWAP6 POP POP POP POP POP POP SWAP3 SWAP2 POP POP JUMP JUMPDEST PUSH0 PUSH1 0x40 DUP3 ADD SWAP1 POP DUP2 DUP2 SUB PUSH0 DUP4 ADD MSTORE PUSH2 0x16F2 DUP2 DUP6 PUSH2 0x1667 JUMP JUMPDEST SWAP1 POP DUP2 DUP2 SUB PUSH1 0x20 DUP4 ADD MSTORE PUSH2 0x1706 DUP2 DUP5 PUSH2 0x1667 JUMP JUMPDEST SWAP1 POP SWAP4 SWAP3 POP POP POP JUMP JUMPDEST PUSH0 DUP2 MLOAD SWAP1 POP SWAP2 SWAP1 POP JUMP JUMPDEST PUSH0 DUP3 DUP3 MSTORE PUSH1 0x20 DUP3 ADD SWAP1 POP SWAP3 SWAP2 POP POP JUMP JUMPDEST PUSH0 DUP2 SWAP1 POP PUSH1 0x20 DUP3 ADD SWAP1 POP SWAP2 SWAP1 POP JUMP JUMPDEST PUSH2 0x1741 DUP2 PUSH2 0x11D0 JUMP JUMPDEST DUP3 MSTORE POP POP JUMP JUMPDEST PUSH0 PUSH2 0x1752 DUP4 DUP4 PUSH2 0x1738 JUMP JUMPDEST PUSH1 0x20 DUP4 ADD SWAP1 POP SWAP3 SWAP2 POP POP JUMP JUMPDEST PUSH0 PUSH1 0x20 DUP3 ADD SWAP1 POP SWAP2 SWAP1 POP JUMP JUMPDEST PUSH0 PUSH2 0x1774 DUP3 PUSH2 0x170F JUMP JUMPDEST PUSH2 0x177E DUP2 DUP6 PUSH2 0x1719 JUMP JUMPDEST SWAP4 POP PUSH2 0x1789 DUP4 PUSH2 0x1729 JUMP JUMPDEST DUP1 PUSH0 JUMPDEST DUP4 DUP2 LT ISZERO PUSH2 0x17B9 JUMPI DUP2 MLOAD PUSH2 0x17A0 DUP9 DUP3 PUSH2 0x1747 JUMP JUMPDEST SWAP8 POP PUSH2 0x17AB DUP4 PUSH2 0x175E JUMP JUMPDEST SWAP3 POP POP PUSH1 0x1 DUP2 ADD SWAP1 POP PUSH2 0x178C JUMP JUMPDEST POP DUP6 SWAP4 POP POP POP POP SWAP3 SWAP2 POP POP JUMP JUMPDEST PUSH0 PUSH1 0x20 DUP3 ADD SWAP1 POP DUP2 DUP2 SUB PUSH0 DUP4 ADD MSTORE PUSH2 0x17DE DUP2 DUP5 PUSH2 0x176A JUMP JUMPDEST SWAP1 POP SWAP3 SWAP2 POP POP JUMP JUMPDEST PUSH0 DUP3 DUP3 MSTORE PUSH1 0x20 DUP3 ADD SWAP1 POP SWAP3 SWAP2 POP POP JUMP JUMPDEST PUSH32 0x5B4552524F525D204944206E6F7420617661696C61626C650000000000000000 PUSH0 DUP3 ADD MSTORE POP JUMP JUMPDEST PUSH0 PUSH2 0x182A PUSH1 0x18 DUP4 PUSH2 0x17E6 JUMP JUMPDEST SWAP2 POP PUSH2 0x1835 DUP3 PUSH2 0x17F6 JUMP JUMPDEST PUSH1 0x20 DUP3 ADD SWAP1 POP SWAP2 SWAP1 POP JUMP JUMPDEST PUSH0 PUSH1 0x20 DUP3 ADD SWAP1 POP DUP2 DUP2 SUB PUSH0 DUP4 ADD MSTORE PUSH2 0x1857 DUP2 PUSH2 0x181E JUMP JUMPDEST SWAP1 POP SWAP2 SWAP1 POP JUMP JUMPDEST PUSH32 0x5B4552524F525D20546865206C656E677468206F6620746865206B6579732061 PUSH0 DUP3 ADD MSTORE PUSH32 0x6E642076616C75657320617265206E6F746520657175616C0000000000000000 PUSH1 0x20 DUP3 ADD MSTORE POP JUMP JUMPDEST PUSH0 PUSH2 0x18B8 PUSH1 0x38 DUP4 PUSH2 0x17E6 JUMP JUMPDEST SWAP2 POP PUSH2 0x18C3 DUP3 PUSH2 0x185E JUMP JUMPDEST PUSH1 0x40 DUP3 ADD SWAP1 POP SWAP2 SWAP1 POP JUMP JUMPDEST PUSH0 PUSH1 0x20 DUP3 ADD SWAP1 POP DUP2 DUP2 SUB PUSH0 DUP4 ADD MSTORE PUSH2 0x18E5 DUP2 PUSH2 0x18AC JUMP JUMPDEST SWAP1 POP SWAP2 SWAP1 POP JUMP JUMPDEST PUSH32 0x4E487B7100000000000000000000000000000000000000000000000000000000 PUSH0 MSTORE PUSH1 0x32 PUSH1 0x4 MSTORE PUSH1 0x24 PUSH0 REVERT JUMPDEST PUSH0 DUP2 SWAP1 POP SWAP3 SWAP2 POP POP JUMP JUMPDEST PUSH0 PUSH2 0x192D DUP3 PUSH2 0x15CE JUMP JUMPDEST PUSH2 0x1937 DUP2 DUP6 PUSH2 0x1919 JUMP JUMPDEST SWAP4 POP PUSH2 0x1947 DUP2 DUP6 PUSH1 0x20 DUP7 ADD PUSH2 0x15E8 JUMP JUMPDEST DUP1 DUP5 ADD SWAP2 POP POP SWAP3 SWAP2 POP POP JUMP JUMPDEST PUSH0 PUSH2 0x195E DUP3 DUP5 PUSH2 0x1923 JUMP JUMPDEST SWAP2 POP DUP2 SWAP1 POP SWAP3 SWAP2 POP POP JUMP JUMPDEST PUSH32 0x4E487B7100000000000000000000000000000000000000000000000000000000 PUSH0 MSTORE PUSH1 0x22 PUSH1 0x4 MSTORE PUSH1 0x24 PUSH0 REVERT JUMPDEST PUSH0 PUSH1 0x2 DUP3 DIV SWAP1 POP PUSH1 0x1 DUP3 AND DUP1 PUSH2 0x19AD JUMPI PUSH1 0x7F DUP3 AND SWAP2 POP JUMPDEST PUSH1 0x20 DUP3 LT DUP2 SUB PUSH2 0x19C0 JUMPI PUSH2 0x19BF PUSH2 0x1969 JUMP JUMPDEST JUMPDEST POP SWAP2 SWAP1 POP JUMP JUMPDEST PUSH0 DUP2 SWAP1 POP DUP2 PUSH0 MSTORE PUSH1 0x20 PUSH0 KECCAK256 SWAP1 POP SWAP2 SWAP1 POP JUMP JUMPDEST PUSH0 PUSH1 0x20 PUSH1 0x1F DUP4 ADD DIV SWAP1 POP SWAP2 SWAP1 POP JUMP JUMPDEST PUSH0 DUP3 DUP3 SHL SWAP1 POP SWAP3 SWAP2 POP POP JUMP JUMPDEST PUSH0 PUSH1 0x8 DUP4 MUL PUSH2 0x1A22 PUSH32 0xFFFFFFFFFFFFFFFFFFFFFFFFFFFFFFFFFFFFFFFFFFFFFFFFFFFFFFFFFFFFFFFF DUP3 PUSH2 0x19E7 JUMP JUMPDEST PUSH2 0x1A2C DUP7 DUP4 PUSH2 0x19E7 JUMP JUMPDEST SWAP6 POP DUP1 NOT DUP5 AND SWAP4 POP DUP1 DUP7 AND DUP5 OR SWAP3 POP POP POP SWAP4 SWAP3 POP POP POP JUMP JUMPDEST PUSH0 DUP2 SWAP1 POP SWAP2 SWAP1 POP JUMP JUMPDEST PUSH0 PUSH2 0x1A67 PUSH2 0x1A62 PUSH2 0x1A5D DUP5 PUSH2 0x11D0 JUMP JUMPDEST PUSH2 0x1A44 JUMP JUMPDEST PUSH2 0x11D0 JUMP JUMPDEST SWAP1 POP SWAP2 SWAP1 POP JUMP JUMPDEST PUSH0 DUP2 SWAP1 POP SWAP2 SWAP1 POP JUMP JUMPDEST PUSH2 0x1A80 DUP4 PUSH2 0x1A4D JUMP JUMPDEST PUSH2 0x1A94 PUSH2 0x1A8C DUP3 PUSH2 0x1A6E JUMP JUMPDEST DUP5 DUP5 SLOAD PUSH2 0x19F3 JUMP JUMPDEST DUP3 SSTORE POP POP POP POP JUMP JUMPDEST PUSH0 SWAP1 JUMP JUMPDEST PUSH2 0x1AA8 PUSH2 0x1A9C JUMP JUMPDEST PUSH2 0x1AB3 DUP2 DUP5 DUP5 PUSH2 0x1A77 JUMP JUMPDEST POP POP POP JUMP JUMPDEST JUMPDEST DUP2 DUP2 LT ISZERO PUSH2 0x1AD6 JUMPI PUSH2 0x1ACB PUSH0 DUP3 PUSH2 0x1AA0 JUMP JUMPDEST PUSH1 0x1 DUP2 ADD SWAP1 POP PUSH2 0x1AB9 JUMP JUMPDEST POP POP JUMP JUMPDEST PUSH1 0x1F DUP3 GT ISZERO PUSH2 0x1B1B JUMPI PUSH2 0x1AEC DUP2 PUSH2 0x19C6 JUMP JUMPDEST PUSH2 0x1AF5 DUP5 PUSH2 0x19D8 JUMP JUMPDEST DUP2 ADD PUSH1 0x20 DUP6 LT ISZERO PUSH2 0x1B04 JUMPI DUP2 SWAP1 POP JUMPDEST PUSH2 0x1B18 PUSH2 0x1B10 DUP6 PUSH2 0x19D8 JUMP JUMPDEST DUP4 ADD DUP3 PUSH2 0x1AB8 JUMP JUMPDEST POP POP JUMPDEST POP POP POP JUMP JUMPDEST PUSH0 DUP3 DUP3 SHR SWAP1 POP SWAP3 SWAP2 POP POP JUMP JUMPDEST PUSH0 PUSH2 0x1B3B PUSH0 NOT DUP5 PUSH1 0x8 MUL PUSH2 0x1B20 JUMP JUMPDEST NOT DUP1 DUP4 AND SWAP2 POP POP SWAP3 SWAP2 POP POP JUMP JUMPDEST PUSH0 PUSH2 0x1B53 DUP4 DUP4 PUSH2 0x1B2C JUMP JUMPDEST SWAP2 POP DUP3 PUSH1 0x2 MUL DUP3 OR SWAP1 POP SWAP3 SWAP2 POP POP JUMP JUMPDEST PUSH2 0x1B6C DUP3 PUSH2 0x15CE JUMP JUMPDEST PUSH8 0xFFFFFFFFFFFFFFFF DUP2 GT ISZERO PUSH2 0x1B85 JUMPI PUSH2 0x1B84 PUSH2 0x1217 JUMP JUMPDEST JUMPDEST PUSH2 0x1B8F DUP3 SLOAD PUSH2 0x1996 JUMP JUMPDEST PUSH2 0x1B9A DUP3 DUP3 DUP6 PUSH2 0x1ADA JUMP JUMPDEST PUSH0 PUSH1 0x20 SWAP1 POP PUSH1 0x1F DUP4 GT PUSH1 0x1 DUP2 EQ PUSH2 0x1BCB JUMPI PUSH0 DUP5 ISZERO PUSH2 0x1BB9 JUMPI DUP3 DUP8 ADD MLOAD SWAP1 POP JUMPDEST PUSH2 0x1BC3 DUP6 DUP3 PUSH2 0x1B48 JUMP JUMPDEST DUP7 SSTORE POP PUSH2 0x1C2A JUMP JUMPDEST PUSH1 0x1F NOT DUP5 AND PUSH2 0x1BD9 DUP7 PUSH2 0x19C6 JUMP JUMPDEST PUSH0 JUMPDEST DUP3 DUP2 LT ISZERO PUSH2 0x1C00 JUMPI DUP5 DUP10 ADD MLOAD DUP3 SSTORE PUSH1 0x1 DUP3 ADD SWAP2 POP PUSH1 0x20 DUP6 ADD SWAP5 POP PUSH1 0x20 DUP2 ADD SWAP1 POP PUSH2 0x1BDB JUMP JUMPDEST DUP7 DUP4 LT ISZERO PUSH2 0x1C1D JUMPI DUP5 DUP10 ADD MLOAD PUSH2 0x1C19 PUSH1 0x1F DUP10 AND DUP3 PUSH2 0x1B2C JUMP JUMPDEST DUP4 SSTORE POP JUMPDEST PUSH1 0x1 PUSH1 0x2 DUP9 MUL ADD DUP9 SSTORE POP POP POP JUMPDEST POP POP POP POP POP POP JUMP JUMPDEST PUSH32 0x4E487B7100000000000000000000000000000000000000000000000000000000 PUSH0 MSTORE PUSH1 0x11 PUSH1 0x4 MSTORE PUSH1 0x24 PUSH0 REVERT JUMPDEST PUSH0 PUSH2 0x1C69 DUP3 PUSH2 0x11D0 JUMP JUMPDEST SWAP2 POP PUSH32 0xFFFFFFFFFFFFFFFFFFFFFFFFFFFFFFFFFFFFFFFFFFFFFFFFFFFFFFFFFFFFFFFF DUP3 SUB PUSH2 0x1C9B JUMPI PUSH2 0x1C9A PUSH2 0x1C32 JUMP JUMPDEST JUMPDEST PUSH1 0x1 DUP3 ADD SWAP1 POP SWAP2 SWAP1 POP JUMP JUMPDEST PUSH32 0x5B4552524F525D20494420616C7761797320696E207573650000000000000000 PUSH0 DUP3 ADD MSTORE POP JUMP JUMPDEST PUSH0 PUSH2 0x1CDA PUSH1 0x18 DUP4 PUSH2 0x17E6 JUMP JUMPDEST SWAP2 POP PUSH2 0x1CE5 DUP3 PUSH2 0x1CA6 JUMP JUMPDEST PUSH1 0x20 DUP3 ADD SWAP1 POP SWAP2 SWAP1 POP JUMP JUMPDEST PUSH0 PUSH1 0x20 DUP3 ADD SWAP1 POP DUP2 DUP2 SUB PUSH0 DUP4 ADD MSTORE PUSH2 0x1D07 DUP2 PUSH2 0x1CCE JUMP JUMPDEST SWAP1 POP SWAP2 SWAP1 POP JUMP JUMPDEST PUSH0 DUP2 SLOAD PUSH2 0x1D1A DUP2 PUSH2 0x1996 JUMP JUMPDEST PUSH2 0x1D24 DUP2 DUP7 PUSH2 0x1919 JUMP JUMPDEST SWAP5 POP PUSH1 0x1 DUP3 AND PUSH0 DUP2 EQ PUSH2 0x1D3E JUMPI PUSH1 0x1 DUP2 EQ PUSH2 0x1D53 JUMPI PUSH2 0x1D85 JUMP JUMPDEST PUSH1 0xFF NOT DUP4 AND DUP7 MSTORE DUP2 ISZERO ISZERO DUP3 MUL DUP7 ADD SWAP4 POP PUSH2 0x1D85 JUMP JUMPDEST PUSH2 0x1D5C DUP6 PUSH2 0x19C6 JUMP JUMPDEST PUSH0 JUMPDEST DUP4 DUP2 LT ISZERO PUSH2 0x1D7D JUMPI DUP2 SLOAD DUP2 DUP10 ADD MSTORE PUSH1 0x1 DUP3 ADD SWAP2 POP PUSH1 0x20 DUP2 ADD SWAP1 POP PUSH2 0x1D5E JUMP JUMPDEST DUP4 DUP9 ADD SWAP6 POP POP POP JUMPDEST POP POP POP SWAP3 SWAP2 POP POP JUMP JUMPDEST PUSH0 PUSH2 0x1D99 DUP3 DUP5 PUSH2 0x1D0E JUMP JUMPDEST SWAP2 POP DUP2 SWAP1 POP SWAP3 SWAP2 POP POP JUMP JUMPDEST PUSH0 PUSH2 0x1DAE DUP3 PUSH2 0x11D0 JUMP JUMPDEST SWAP2 POP PUSH2 0x1DB9 DUP4 PUSH2 0x11D0 JUMP JUMPDEST SWAP3 POP DUP3 DUP3 SUB SWAP1 POP DUP2 DUP2 GT ISZERO PUSH2 0x1DD1 JUMPI PUSH2 0x1DD0 PUSH2 0x1C32 JUMP JUMPDEST JUMPDEST SWAP3 SWAP2 POP POP JUMP JUMPDEST PUSH0 PUSH2 0x1DE1 DUP3 PUSH2 0x11D0 JUMP JUMPDEST SWAP2 POP PUSH2 0x1DEC DUP4 PUSH2 0x11D0 JUMP JUMPDEST SWAP3 POP DUP3 DUP3 ADD SWAP1 POP DUP1 DUP3 GT ISZERO PUSH2 0x1E04 JUMPI PUSH2 0x1E03 PUSH2 0x1C32 JUMP JUMPDEST JUMPDEST SWAP3 SWAP2 POP POP JUMP JUMPDEST PUSH32 0x4E487B7100000000000000000000000000000000000000000000000000000000 PUSH0 MSTORE PUSH1 0x31 PUSH1 0x4 MSTORE PUSH1 0x24 PUSH0 REVERT INVALID LOG2 PUSH5 0x6970667358 0x22 SLT KECCAK256 PUSH30 0x50F8D97877E32C2846A692714908F033935580D0197927DDFB62E7E6C875 SWAP1 PUSH5 0x736F6C6343 STOP ADDMOD EQ STOP CALLER "
				},
				"gasEstimates": {
					"creation": {
						"codeDepositCost": "1557800",
						"executionCost": "25894",
						"totalCost": "1583694"
					},
					"external": {
						"AddressHasItem(string,string)": "infinite",
						"addItemToAdress(uint256,string[],string[])": "infinite",
						"getAllItemsFromAddress()": "infinite",
						"getAmountOfItems()": "2550",
						"getAttributesOfItemByID(uint256)": "infinite",
						"removeItemFromAddress(uint256)": "infinite",
						"updateItemFromAddress(uint256,string[],string[])": "infinite"
					},
					"internal": {
						"removeItemFromArray(uint256)": "infinite"
					}
				},
				"methodIdentifiers": {
					"AddressHasItem(string,string)": "474a1c15",
					"addItemToAdress(uint256,string[],string[])": "4f6e9de4",
					"getAllItemsFromAddress()": "f6ebbb76",
					"getAmountOfItems()": "40c8068d",
					"getAttributesOfItemByID(uint256)": "97ff7ae0",
					"removeItemFromAddress(uint256)": "ba54b7bf",
					"updateItemFromAddress(uint256,string[],string[])": "32636123"
				}
			},
			"storageLayout": {
				"storage": [
					{
						"astId": 3,
						"contract": "contracts/ItemOwnership.sol:ItemOwnership",
						"label": "owner",
						"offset": 0,
						"slot": "0",
						"type": "t_address"
					},
					{
						"astId": 32,
						"contract": "contracts/ItemOwnership.sol:ItemOwnership",
						"label": "itemDatabase",
						"offset": 0,
						"slot": "1",
						"type": "t_mapping(t_address,t_mapping(t_uint256,t_struct(Item)47_storage))"
					},
					{
						"astId": 37,
						"contract": "contracts/ItemOwnership.sol:ItemOwnership",
						"label": "itemIdList",
						"offset": 0,
						"slot": "2",
						"type": "t_mapping(t_address,t_array(t_uint256)dyn_storage)"
					}
				],
				"types": {
					"t_address": {
						"encoding": "inplace",
						"label": "address",
						"numberOfBytes": "20"
					},
					"t_array(t_string_storage)dyn_storage": {
						"base": "t_string_storage",
						"encoding": "dynamic_array",
						"label": "string[]",
						"numberOfBytes": "32"
					},
					"t_array(t_uint256)dyn_storage": {
						"base": "t_uint256",
						"encoding": "dynamic_array",
						"label": "uint256[]",
						"numberOfBytes": "32"
					},
					"t_mapping(t_address,t_array(t_uint256)dyn_storage)": {
						"encoding": "mapping",
						"key": "t_address",
						"label": "mapping(address => uint256[])",
						"numberOfBytes": "32",
						"value": "t_array(t_uint256)dyn_storage"
					},
					"t_mapping(t_address,t_mapping(t_uint256,t_struct(Item)47_storage))": {
						"encoding": "mapping",
						"key": "t_address",
						"label": "mapping(address => mapping(uint256 => struct ItemValidator.Item))",
						"numberOfBytes": "32",
						"value": "t_mapping(t_uint256,t_struct(Item)47_storage)"
					},
					"t_mapping(t_string_memory_ptr,t_string_storage)": {
						"encoding": "mapping",
						"key": "t_string_memory_ptr",
						"label": "mapping(string => string)",
						"numberOfBytes": "32",
						"value": "t_string_storage"
					},
					"t_mapping(t_uint256,t_struct(Item)47_storage)": {
						"encoding": "mapping",
						"key": "t_uint256",
						"label": "mapping(uint256 => struct ItemValidator.Item)",
						"numberOfBytes": "32",
						"value": "t_struct(Item)47_storage"
					},
					"t_string_memory_ptr": {
						"encoding": "bytes",
						"label": "string",
						"numberOfBytes": "32"
					},
					"t_string_storage": {
						"encoding": "bytes",
						"label": "string",
						"numberOfBytes": "32"
					},
					"t_struct(Item)47_storage": {
						"encoding": "inplace",
						"label": "struct ItemValidator.Item",
						"members": [
							{
								"astId": 39,
								"contract": "contracts/ItemOwnership.sol:ItemOwnership",
								"label": "owner",
								"offset": 0,
								"slot": "0",
								"type": "t_address"
							},
							{
								"astId": 43,
								"contract": "contracts/ItemOwnership.sol:ItemOwnership",
								"label": "attributes",
								"offset": 0,
								"slot": "1",
								"type": "t_mapping(t_string_memory_ptr,t_string_storage)"
							},
							{
								"astId": 46,
								"contract": "contracts/ItemOwnership.sol:ItemOwnership",
								"label": "attributeKeys",
								"offset": 0,
								"slot": "2",
								"type": "t_array(t_string_storage)dyn_storage"
							}
						],
						"numberOfBytes": "96"
					},
					"t_uint256": {
						"encoding": "inplace",
						"label": "uint256",
						"numberOfBytes": "32"
					}
				}
			},
			"userdoc": {
				"kind": "user",
				"methods": {},
				"version": 1
			}
		}
	}
}