{
	"contracts/ItemOwnership.sol": {
		"ItemOwnership": {
			"abi": [
				{
					"inputs": [],
					"stateMutability": "nonpayable",
					"type": "constructor"
				},
				{
					"inputs": [
						{
							"internalType": "uint256",
							"name": "_id",
							"type": "uint256"
						},
						{
							"internalType": "string[]",
							"name": "_attributeKeys",
							"type": "string[]"
						},
						{
							"internalType": "string[]",
							"name": "_attributeValues",
							"type": "string[]"
						}
					],
					"name": "addItemToAdress",
					"outputs": [],
					"stateMutability": "nonpayable",
					"type": "function"
				},
				{
					"inputs": [],
					"name": "getAmountOfItems",
					"outputs": [
						{
							"internalType": "uint256",
							"name": "",
							"type": "uint256"
						}
					],
					"stateMutability": "view",
					"type": "function"
				},
				{
					"inputs": [
						{
							"internalType": "uint256",
							"name": "_id",
							"type": "uint256"
						}
					],
					"name": "getAttributesOfItemByID",
					"outputs": [
						{
							"internalType": "string[]",
							"name": "",
							"type": "string[]"
						},
						{
							"internalType": "string[]",
							"name": "",
							"type": "string[]"
						}
					],
					"stateMutability": "view",
					"type": "function"
				},
				{
					"inputs": [
						{
							"internalType": "address",
							"name": "",
							"type": "address"
						},
						{
							"internalType": "uint256",
							"name": "",
							"type": "uint256"
						}
					],
					"name": "itemIdList",
					"outputs": [
						{
							"internalType": "uint256",
							"name": "",
							"type": "uint256"
						}
					],
					"stateMutability": "view",
					"type": "function"
				},
				{
					"inputs": [
						{
							"internalType": "uint256",
							"name": "_id",
							"type": "uint256"
						}
					],
					"name": "removeItemFromAddress",
					"outputs": [],
					"stateMutability": "nonpayable",
					"type": "function"
				},
				{
					"inputs": [
						{
							"internalType": "uint256",
							"name": "_id",
							"type": "uint256"
						},
						{
							"internalType": "string[]",
							"name": "_attributeKeys",
							"type": "string[]"
						},
						{
							"internalType": "string[]",
							"name": "_attributeValues",
							"type": "string[]"
						}
					],
					"name": "updateItemFromAddress",
					"outputs": [],
					"stateMutability": "nonpayable",
					"type": "function"
				}
			],
			"devdoc": {
				"kind": "dev",
				"methods": {},
				"version": 1
			},
			"evm": {
				"assembly": "    /* \"contracts/ItemOwnership.sol\":1035:4022  contract ItemOwnership is ContractOwnable, ItemValidator {... */\n  mstore(0x40, 0x80)\n    /* \"contracts/ItemOwnership.sol\":1098:1134  constructor() {... */\n  callvalue\n  dup1\n  iszero\n  tag_1\n  jumpi\n  0x00\n  dup1\n  revert\ntag_1:\n  pop\n    /* \"contracts/ItemOwnership.sol\":360:370  msg.sender */\n  caller\n    /* \"contracts/ItemOwnership.sol\":352:357  owner */\n  0x00\n  dup1\n    /* \"contracts/ItemOwnership.sol\":352:370  owner = msg.sender */\n  0x0100\n  exp\n  dup2\n  sload\n  dup2\n  0xffffffffffffffffffffffffffffffffffffffff\n  mul\n  not\n  and\n  swap1\n  dup4\n  0xffffffffffffffffffffffffffffffffffffffff\n  and\n  mul\n  or\n  swap1\n  sstore\n  pop\n    /* \"contracts/ItemOwnership.sol\":1035:4022  contract ItemOwnership is ContractOwnable, ItemValidator {... */\n  dataSize(sub_0)\n  dup1\n  dataOffset(sub_0)\n  0x00\n  codecopy\n  0x00\n  return\nstop\n\nsub_0: assembly {\n        /* \"contracts/ItemOwnership.sol\":1035:4022  contract ItemOwnership is ContractOwnable, ItemValidator {... */\n      mstore(0x40, 0x80)\n      callvalue\n      dup1\n      iszero\n      tag_1\n      jumpi\n      0x00\n      dup1\n      revert\n    tag_1:\n      pop\n      jumpi(tag_2, lt(calldatasize, 0x04))\n      shr(0xe0, calldataload(0x00))\n      dup1\n      0x32636123\n      eq\n      tag_3\n      jumpi\n      dup1\n      0x40c8068d\n      eq\n      tag_4\n      jumpi\n      dup1\n      0x4f3623e4\n      eq\n      tag_5\n      jumpi\n      dup1\n      0x4f6e9de4\n      eq\n      tag_6\n      jumpi\n      dup1\n      0x97ff7ae0\n      eq\n      tag_7\n      jumpi\n      dup1\n      0xba54b7bf\n      eq\n      tag_8\n      jumpi\n    tag_2:\n      0x00\n      dup1\n      revert\n        /* \"contracts/ItemOwnership.sol\":2781:3398  function updateItemFromAddress(... */\n    tag_3:\n      tag_9\n      0x04\n      dup1\n      calldatasize\n      sub\n      dup2\n      add\n      swap1\n      tag_10\n      swap2\n      swap1\n      tag_11\n      jump\t// in\n    tag_10:\n      tag_12\n      jump\t// in\n    tag_9:\n      stop\n        /* \"contracts/ItemOwnership.sol\":3404:3515  function getAmountOfItems() public view returns (uint256) {... */\n    tag_4:\n      tag_13\n      tag_14\n      jump\t// in\n    tag_13:\n      mload(0x40)\n      tag_15\n      swap2\n      swap1\n      tag_16\n      jump\t// in\n    tag_15:\n      mload(0x40)\n      dup1\n      swap2\n      sub\n      swap1\n      return\n        /* \"contracts/ItemOwnership.sol\":473:520  mapping(address => uint256[]) public itemIdList */\n    tag_5:\n      tag_17\n      0x04\n      dup1\n      calldatasize\n      sub\n      dup2\n      add\n      swap1\n      tag_18\n      swap2\n      swap1\n      tag_19\n      jump\t// in\n    tag_18:\n      tag_20\n      jump\t// in\n    tag_17:\n      mload(0x40)\n      tag_21\n      swap2\n      swap1\n      tag_16\n      jump\t// in\n    tag_21:\n      mload(0x40)\n      dup1\n      swap2\n      sub\n      swap1\n      return\n        /* \"contracts/ItemOwnership.sol\":1159:1824  function addItemToAdress(... */\n    tag_6:\n      tag_22\n      0x04\n      dup1\n      calldatasize\n      sub\n      dup2\n      add\n      swap1\n      tag_23\n      swap2\n      swap1\n      tag_11\n      jump\t// in\n    tag_23:\n      tag_24\n      jump\t// in\n    tag_22:\n      stop\n        /* \"contracts/ItemOwnership.sol\":1830:2363  function getAttributesOfItemByID(uint256 _id)... */\n    tag_7:\n      tag_25\n      0x04\n      dup1\n      calldatasize\n      sub\n      dup2\n      add\n      swap1\n      tag_26\n      swap2\n      swap1\n      tag_27\n      jump\t// in\n    tag_26:\n      tag_28\n      jump\t// in\n    tag_25:\n      mload(0x40)\n      tag_29\n      swap3\n      swap2\n      swap1\n      tag_30\n      jump\t// in\n    tag_29:\n      mload(0x40)\n      dup1\n      swap2\n      sub\n      swap1\n      return\n        /* \"contracts/ItemOwnership.sol\":2369:2775  function removeItemFromAddress(uint256 _id) public itemIsAvailable(_id) {... */\n    tag_8:\n      tag_31\n      0x04\n      dup1\n      calldatasize\n      sub\n      dup2\n      add\n      swap1\n      tag_32\n      swap2\n      swap1\n      tag_27\n      jump\t// in\n    tag_32:\n      tag_33\n      jump\t// in\n    tag_31:\n      stop\n        /* \"contracts/ItemOwnership.sol\":2781:3398  function updateItemFromAddress(... */\n    tag_12:\n        /* \"contracts/ItemOwnership.sol\":2944:2947  _id */\n      dup3\n        /* \"contracts/ItemOwnership.sol\":761:771  msg.sender */\n      caller\n        /* \"contracts/ItemOwnership.sol\":722:771  itemDatabase[msg.sender][_id].owner == msg.sender */\n      0xffffffffffffffffffffffffffffffffffffffff\n      and\n        /* \"contracts/ItemOwnership.sol\":722:734  itemDatabase */\n      0x01\n        /* \"contracts/ItemOwnership.sol\":722:746  itemDatabase[msg.sender] */\n      0x00\n        /* \"contracts/ItemOwnership.sol\":735:745  msg.sender */\n      caller\n        /* \"contracts/ItemOwnership.sol\":722:746  itemDatabase[msg.sender] */\n      0xffffffffffffffffffffffffffffffffffffffff\n      and\n      0xffffffffffffffffffffffffffffffffffffffff\n      and\n      dup2\n      mstore\n      0x20\n      add\n      swap1\n      dup2\n      mstore\n      0x20\n      add\n      0x00\n      keccak256\n        /* \"contracts/ItemOwnership.sol\":722:751  itemDatabase[msg.sender][_id] */\n      0x00\n        /* \"contracts/ItemOwnership.sol\":747:750  _id */\n      dup4\n        /* \"contracts/ItemOwnership.sol\":722:751  itemDatabase[msg.sender][_id] */\n      dup2\n      mstore\n      0x20\n      add\n      swap1\n      dup2\n      mstore\n      0x20\n      add\n      0x00\n      keccak256\n        /* \"contracts/ItemOwnership.sol\":722:757  itemDatabase[msg.sender][_id].owner */\n      0x00\n      add\n      0x00\n      swap1\n      sload\n      swap1\n      0x0100\n      exp\n      swap1\n      div\n      0xffffffffffffffffffffffffffffffffffffffff\n      and\n        /* \"contracts/ItemOwnership.sol\":722:771  itemDatabase[msg.sender][_id].owner == msg.sender */\n      0xffffffffffffffffffffffffffffffffffffffff\n      and\n      eq\n        /* \"contracts/ItemOwnership.sol\":701:821  require(... */\n      tag_35\n      jumpi\n      mload(0x40)\n      0x08c379a000000000000000000000000000000000000000000000000000000000\n      dup2\n      mstore\n      0x04\n      add\n      tag_36\n      swap1\n      tag_37\n      jump\t// in\n    tag_36:\n      mload(0x40)\n      dup1\n      swap2\n      sub\n      swap1\n      revert\n    tag_35:\n        /* \"contracts/ItemOwnership.sol\":3005:3021  _attributeValues */\n      dup2\n        /* \"contracts/ItemOwnership.sol\":3005:3028  _attributeValues.length */\n      mload\n        /* \"contracts/ItemOwnership.sol\":2980:2994  _attributeKeys */\n      dup4\n        /* \"contracts/ItemOwnership.sol\":2980:3001  _attributeKeys.length */\n      mload\n        /* \"contracts/ItemOwnership.sol\":2980:3028  _attributeKeys.length == _attributeValues.length */\n      eq\n        /* \"contracts/ItemOwnership.sol\":2959:3110  require(... */\n      tag_39\n      jumpi\n      mload(0x40)\n      0x08c379a000000000000000000000000000000000000000000000000000000000\n      dup2\n      mstore\n      0x04\n      add\n      tag_40\n      swap1\n      tag_41\n      jump\t// in\n    tag_40:\n      mload(0x40)\n      dup1\n      swap2\n      sub\n      swap1\n      revert\n    tag_39:\n        /* \"contracts/ItemOwnership.sol\":3121:3138  Item storage item */\n      0x00\n        /* \"contracts/ItemOwnership.sol\":3141:3153  itemDatabase */\n      0x01\n        /* \"contracts/ItemOwnership.sol\":3141:3165  itemDatabase[msg.sender] */\n      0x00\n        /* \"contracts/ItemOwnership.sol\":3154:3164  msg.sender */\n      caller\n        /* \"contracts/ItemOwnership.sol\":3141:3165  itemDatabase[msg.sender] */\n      0xffffffffffffffffffffffffffffffffffffffff\n      and\n      0xffffffffffffffffffffffffffffffffffffffff\n      and\n      dup2\n      mstore\n      0x20\n      add\n      swap1\n      dup2\n      mstore\n      0x20\n      add\n      0x00\n      keccak256\n        /* \"contracts/ItemOwnership.sol\":3141:3170  itemDatabase[msg.sender][_id] */\n      0x00\n        /* \"contracts/ItemOwnership.sol\":3166:3169  _id */\n      dup7\n        /* \"contracts/ItemOwnership.sol\":3141:3170  itemDatabase[msg.sender][_id] */\n      dup2\n      mstore\n      0x20\n      add\n      swap1\n      dup2\n      mstore\n      0x20\n      add\n      0x00\n      keccak256\n        /* \"contracts/ItemOwnership.sol\":3121:3170  Item storage item = itemDatabase[msg.sender][_id] */\n      swap1\n      pop\n        /* \"contracts/ItemOwnership.sol\":3193:3203  msg.sender */\n      caller\n        /* \"contracts/ItemOwnership.sol\":3180:3184  item */\n      dup2\n        /* \"contracts/ItemOwnership.sol\":3180:3190  item.owner */\n      0x00\n      add\n      0x00\n        /* \"contracts/ItemOwnership.sol\":3180:3203  item.owner = msg.sender */\n      0x0100\n      exp\n      dup2\n      sload\n      dup2\n      0xffffffffffffffffffffffffffffffffffffffff\n      mul\n      not\n      and\n      swap1\n      dup4\n      0xffffffffffffffffffffffffffffffffffffffff\n      and\n      mul\n      or\n      swap1\n      sstore\n      pop\n        /* \"contracts/ItemOwnership.sol\":3219:3228  uint256 i */\n      0x00\n        /* \"contracts/ItemOwnership.sol\":3214:3347  for (uint256 i = 0; i < _attributeKeys.length; i++) {... */\n    tag_42:\n        /* \"contracts/ItemOwnership.sol\":3238:3252  _attributeKeys */\n      dup5\n        /* \"contracts/ItemOwnership.sol\":3238:3259  _attributeKeys.length */\n      mload\n        /* \"contracts/ItemOwnership.sol\":3234:3235  i */\n      dup2\n        /* \"contracts/ItemOwnership.sol\":3234:3259  i < _attributeKeys.length */\n      lt\n        /* \"contracts/ItemOwnership.sol\":3214:3347  for (uint256 i = 0; i < _attributeKeys.length; i++) {... */\n      iszero\n      tag_43\n      jumpi\n        /* \"contracts/ItemOwnership.sol\":3317:3333  _attributeValues */\n      dup4\n        /* \"contracts/ItemOwnership.sol\":3334:3335  i */\n      dup2\n        /* \"contracts/ItemOwnership.sol\":3317:3336  _attributeValues[i] */\n      dup2\n      mload\n      dup2\n      lt\n      tag_45\n      jumpi\n      tag_46\n      tag_47\n      jump\t// in\n    tag_46:\n    tag_45:\n      0x20\n      mul\n      0x20\n      add\n      add\n      mload\n        /* \"contracts/ItemOwnership.sol\":3280:3284  item */\n      dup3\n        /* \"contracts/ItemOwnership.sol\":3280:3295  item.attributes */\n      0x01\n      add\n        /* \"contracts/ItemOwnership.sol\":3296:3310  _attributeKeys */\n      dup7\n        /* \"contracts/ItemOwnership.sol\":3311:3312  i */\n      dup4\n        /* \"contracts/ItemOwnership.sol\":3296:3313  _attributeKeys[i] */\n      dup2\n      mload\n      dup2\n      lt\n      tag_48\n      jumpi\n      tag_49\n      tag_47\n      jump\t// in\n    tag_49:\n    tag_48:\n      0x20\n      mul\n      0x20\n      add\n      add\n      mload\n        /* \"contracts/ItemOwnership.sol\":3280:3314  item.attributes[_attributeKeys[i]] */\n      mload(0x40)\n      tag_50\n      swap2\n      swap1\n      tag_51\n      jump\t// in\n    tag_50:\n      swap1\n      dup2\n      mstore\n      0x20\n      add\n      mload(0x40)\n      dup1\n      swap2\n      sub\n      swap1\n      keccak256\n        /* \"contracts/ItemOwnership.sol\":3280:3336  item.attributes[_attributeKeys[i]] = _attributeValues[i] */\n      swap1\n      dup2\n      tag_52\n      swap2\n      swap1\n      tag_53\n      jump\t// in\n    tag_52:\n      pop\n        /* \"contracts/ItemOwnership.sol\":3261:3264  i++ */\n      dup1\n      dup1\n      tag_54\n      swap1\n      tag_55\n      jump\t// in\n    tag_54:\n      swap2\n      pop\n      pop\n        /* \"contracts/ItemOwnership.sol\":3214:3347  for (uint256 i = 0; i < _attributeKeys.length; i++) {... */\n      jump(tag_42)\n    tag_43:\n      pop\n        /* \"contracts/ItemOwnership.sol\":3377:3391  _attributeKeys */\n      dup4\n        /* \"contracts/ItemOwnership.sol\":3356:3360  item */\n      dup2\n        /* \"contracts/ItemOwnership.sol\":3356:3374  item.attributeKeys */\n      0x02\n      add\n        /* \"contracts/ItemOwnership.sol\":3356:3391  item.attributeKeys = _attributeKeys */\n      swap1\n      dup1\n      mload\n      swap1\n      0x20\n      add\n      swap1\n      tag_56\n      swap3\n      swap2\n      swap1\n      tag_57\n      jump\t// in\n    tag_56:\n      pop\n        /* \"contracts/ItemOwnership.sol\":2949:3398  {... */\n      pop\n        /* \"contracts/ItemOwnership.sol\":2781:3398  function updateItemFromAddress(... */\n      pop\n      pop\n      pop\n      pop\n      jump\t// out\n        /* \"contracts/ItemOwnership.sol\":3404:3515  function getAmountOfItems() public view returns (uint256) {... */\n    tag_14:\n        /* \"contracts/ItemOwnership.sol\":3453:3460  uint256 */\n      0x00\n        /* \"contracts/ItemOwnership.sol\":3479:3489  itemIdList */\n      0x02\n        /* \"contracts/ItemOwnership.sol\":3479:3501  itemIdList[msg.sender] */\n      0x00\n        /* \"contracts/ItemOwnership.sol\":3490:3500  msg.sender */\n      caller\n        /* \"contracts/ItemOwnership.sol\":3479:3501  itemIdList[msg.sender] */\n      0xffffffffffffffffffffffffffffffffffffffff\n      and\n      0xffffffffffffffffffffffffffffffffffffffff\n      and\n      dup2\n      mstore\n      0x20\n      add\n      swap1\n      dup2\n      mstore\n      0x20\n      add\n      0x00\n      keccak256\n        /* \"contracts/ItemOwnership.sol\":3479:3508  itemIdList[msg.sender].length */\n      dup1\n      sload\n      swap1\n      pop\n        /* \"contracts/ItemOwnership.sol\":3472:3508  return itemIdList[msg.sender].length */\n      swap1\n      pop\n        /* \"contracts/ItemOwnership.sol\":3404:3515  function getAmountOfItems() public view returns (uint256) {... */\n      swap1\n      jump\t// out\n        /* \"contracts/ItemOwnership.sol\":473:520  mapping(address => uint256[]) public itemIdList */\n    tag_20:\n      mstore(0x20, 0x02)\n      dup2\n      0x00\n      mstore\n      keccak256(0x00, 0x40)\n      dup2\n      dup2\n      sload\n      dup2\n      lt\n      tag_59\n      jumpi\n      0x00\n      dup1\n      revert\n    tag_59:\n      swap1\n      0x00\n      mstore\n      keccak256(0x00, 0x20)\n      add\n      0x00\n      swap2\n      pop\n      swap2\n      pop\n      pop\n      sload\n      dup2\n      jump\t// out\n        /* \"contracts/ItemOwnership.sol\":1159:1824  function addItemToAdress(... */\n    tag_24:\n        /* \"contracts/ItemOwnership.sol\":1316:1319  _id */\n      dup3\n        /* \"contracts/ItemOwnership.sol\":953:963  msg.sender */\n      caller\n        /* \"contracts/ItemOwnership.sol\":914:963  itemDatabase[msg.sender][_id].owner != msg.sender */\n      0xffffffffffffffffffffffffffffffffffffffff\n      and\n        /* \"contracts/ItemOwnership.sol\":914:926  itemDatabase */\n      0x01\n        /* \"contracts/ItemOwnership.sol\":914:938  itemDatabase[msg.sender] */\n      0x00\n        /* \"contracts/ItemOwnership.sol\":927:937  msg.sender */\n      caller\n        /* \"contracts/ItemOwnership.sol\":914:938  itemDatabase[msg.sender] */\n      0xffffffffffffffffffffffffffffffffffffffff\n      and\n      0xffffffffffffffffffffffffffffffffffffffff\n      and\n      dup2\n      mstore\n      0x20\n      add\n      swap1\n      dup2\n      mstore\n      0x20\n      add\n      0x00\n      keccak256\n        /* \"contracts/ItemOwnership.sol\":914:943  itemDatabase[msg.sender][_id] */\n      0x00\n        /* \"contracts/ItemOwnership.sol\":939:942  _id */\n      dup4\n        /* \"contracts/ItemOwnership.sol\":914:943  itemDatabase[msg.sender][_id] */\n      dup2\n      mstore\n      0x20\n      add\n      swap1\n      dup2\n      mstore\n      0x20\n      add\n      0x00\n      keccak256\n        /* \"contracts/ItemOwnership.sol\":914:949  itemDatabase[msg.sender][_id].owner */\n      0x00\n      add\n      0x00\n      swap1\n      sload\n      swap1\n      0x0100\n      exp\n      swap1\n      div\n      0xffffffffffffffffffffffffffffffffffffffff\n      and\n        /* \"contracts/ItemOwnership.sol\":914:963  itemDatabase[msg.sender][_id].owner != msg.sender */\n      0xffffffffffffffffffffffffffffffffffffffff\n      and\n      sub\n        /* \"contracts/ItemOwnership.sol\":893:1013  require(... */\n      tag_62\n      jumpi\n      mload(0x40)\n      0x08c379a000000000000000000000000000000000000000000000000000000000\n      dup2\n      mstore\n      0x04\n      add\n      tag_63\n      swap1\n      tag_64\n      jump\t// in\n    tag_63:\n      mload(0x40)\n      dup1\n      swap2\n      sub\n      swap1\n      revert\n    tag_62:\n        /* \"contracts/ItemOwnership.sol\":1377:1393  _attributeValues */\n      dup2\n        /* \"contracts/ItemOwnership.sol\":1377:1400  _attributeValues.length */\n      mload\n        /* \"contracts/ItemOwnership.sol\":1352:1366  _attributeKeys */\n      dup4\n        /* \"contracts/ItemOwnership.sol\":1352:1373  _attributeKeys.length */\n      mload\n        /* \"contracts/ItemOwnership.sol\":1352:1400  _attributeKeys.length == _attributeValues.length */\n      eq\n        /* \"contracts/ItemOwnership.sol\":1331:1482  require(... */\n      tag_66\n      jumpi\n      mload(0x40)\n      0x08c379a000000000000000000000000000000000000000000000000000000000\n      dup2\n      mstore\n      0x04\n      add\n      tag_67\n      swap1\n      tag_41\n      jump\t// in\n    tag_67:\n      mload(0x40)\n      dup1\n      swap2\n      sub\n      swap1\n      revert\n    tag_66:\n        /* \"contracts/ItemOwnership.sol\":1493:1513  Item storage newItem */\n      0x00\n        /* \"contracts/ItemOwnership.sol\":1516:1528  itemDatabase */\n      0x01\n        /* \"contracts/ItemOwnership.sol\":1516:1540  itemDatabase[msg.sender] */\n      0x00\n        /* \"contracts/ItemOwnership.sol\":1529:1539  msg.sender */\n      caller\n        /* \"contracts/ItemOwnership.sol\":1516:1540  itemDatabase[msg.sender] */\n      0xffffffffffffffffffffffffffffffffffffffff\n      and\n      0xffffffffffffffffffffffffffffffffffffffff\n      and\n      dup2\n      mstore\n      0x20\n      add\n      swap1\n      dup2\n      mstore\n      0x20\n      add\n      0x00\n      keccak256\n        /* \"contracts/ItemOwnership.sol\":1516:1545  itemDatabase[msg.sender][_id] */\n      0x00\n        /* \"contracts/ItemOwnership.sol\":1541:1544  _id */\n      dup7\n        /* \"contracts/ItemOwnership.sol\":1516:1545  itemDatabase[msg.sender][_id] */\n      dup2\n      mstore\n      0x20\n      add\n      swap1\n      dup2\n      mstore\n      0x20\n      add\n      0x00\n      keccak256\n        /* \"contracts/ItemOwnership.sol\":1493:1545  Item storage newItem = itemDatabase[msg.sender][_id] */\n      swap1\n      pop\n        /* \"contracts/ItemOwnership.sol\":1571:1581  msg.sender */\n      caller\n        /* \"contracts/ItemOwnership.sol\":1555:1562  newItem */\n      dup2\n        /* \"contracts/ItemOwnership.sol\":1555:1568  newItem.owner */\n      0x00\n      add\n      0x00\n        /* \"contracts/ItemOwnership.sol\":1555:1581  newItem.owner = msg.sender */\n      0x0100\n      exp\n      dup2\n      sload\n      dup2\n      0xffffffffffffffffffffffffffffffffffffffff\n      mul\n      not\n      and\n      swap1\n      dup4\n      0xffffffffffffffffffffffffffffffffffffffff\n      and\n      mul\n      or\n      swap1\n      sstore\n      pop\n        /* \"contracts/ItemOwnership.sol\":1597:1606  uint256 i */\n      0x00\n        /* \"contracts/ItemOwnership.sol\":1592:1728  for (uint256 i = 0; i < _attributeKeys.length; i++) {... */\n    tag_68:\n        /* \"contracts/ItemOwnership.sol\":1616:1630  _attributeKeys */\n      dup5\n        /* \"contracts/ItemOwnership.sol\":1616:1637  _attributeKeys.length */\n      mload\n        /* \"contracts/ItemOwnership.sol\":1612:1613  i */\n      dup2\n        /* \"contracts/ItemOwnership.sol\":1612:1637  i < _attributeKeys.length */\n      lt\n        /* \"contracts/ItemOwnership.sol\":1592:1728  for (uint256 i = 0; i < _attributeKeys.length; i++) {... */\n      iszero\n      tag_69\n      jumpi\n        /* \"contracts/ItemOwnership.sol\":1698:1714  _attributeValues */\n      dup4\n        /* \"contracts/ItemOwnership.sol\":1715:1716  i */\n      dup2\n        /* \"contracts/ItemOwnership.sol\":1698:1717  _attributeValues[i] */\n      dup2\n      mload\n      dup2\n      lt\n      tag_71\n      jumpi\n      tag_72\n      tag_47\n      jump\t// in\n    tag_72:\n    tag_71:\n      0x20\n      mul\n      0x20\n      add\n      add\n      mload\n        /* \"contracts/ItemOwnership.sol\":1658:1665  newItem */\n      dup3\n        /* \"contracts/ItemOwnership.sol\":1658:1676  newItem.attributes */\n      0x01\n      add\n        /* \"contracts/ItemOwnership.sol\":1677:1691  _attributeKeys */\n      dup7\n        /* \"contracts/ItemOwnership.sol\":1692:1693  i */\n      dup4\n        /* \"contracts/ItemOwnership.sol\":1677:1694  _attributeKeys[i] */\n      dup2\n      mload\n      dup2\n      lt\n      tag_73\n      jumpi\n      tag_74\n      tag_47\n      jump\t// in\n    tag_74:\n    tag_73:\n      0x20\n      mul\n      0x20\n      add\n      add\n      mload\n        /* \"contracts/ItemOwnership.sol\":1658:1695  newItem.attributes[_attributeKeys[i]] */\n      mload(0x40)\n      tag_75\n      swap2\n      swap1\n      tag_51\n      jump\t// in\n    tag_75:\n      swap1\n      dup2\n      mstore\n      0x20\n      add\n      mload(0x40)\n      dup1\n      swap2\n      sub\n      swap1\n      keccak256\n        /* \"contracts/ItemOwnership.sol\":1658:1717  newItem.attributes[_attributeKeys[i]] = _attributeValues[i] */\n      swap1\n      dup2\n      tag_76\n      swap2\n      swap1\n      tag_53\n      jump\t// in\n    tag_76:\n      pop\n        /* \"contracts/ItemOwnership.sol\":1639:1642  i++ */\n      dup1\n      dup1\n      tag_77\n      swap1\n      tag_55\n      jump\t// in\n    tag_77:\n      swap2\n      pop\n      pop\n        /* \"contracts/ItemOwnership.sol\":1592:1728  for (uint256 i = 0; i < _attributeKeys.length; i++) {... */\n      jump(tag_68)\n    tag_69:\n      pop\n        /* \"contracts/ItemOwnership.sol\":1761:1775  _attributeKeys */\n      dup4\n        /* \"contracts/ItemOwnership.sol\":1737:1744  newItem */\n      dup2\n        /* \"contracts/ItemOwnership.sol\":1737:1758  newItem.attributeKeys */\n      0x02\n      add\n        /* \"contracts/ItemOwnership.sol\":1737:1775  newItem.attributeKeys = _attributeKeys */\n      swap1\n      dup1\n      mload\n      swap1\n      0x20\n      add\n      swap1\n      tag_78\n      swap3\n      swap2\n      swap1\n      tag_57\n      jump\t// in\n    tag_78:\n      pop\n        /* \"contracts/ItemOwnership.sol\":1785:1795  itemIdList */\n      0x02\n        /* \"contracts/ItemOwnership.sol\":1785:1807  itemIdList[msg.sender] */\n      0x00\n        /* \"contracts/ItemOwnership.sol\":1796:1806  msg.sender */\n      caller\n        /* \"contracts/ItemOwnership.sol\":1785:1807  itemIdList[msg.sender] */\n      0xffffffffffffffffffffffffffffffffffffffff\n      and\n      0xffffffffffffffffffffffffffffffffffffffff\n      and\n      dup2\n      mstore\n      0x20\n      add\n      swap1\n      dup2\n      mstore\n      0x20\n      add\n      0x00\n      keccak256\n        /* \"contracts/ItemOwnership.sol\":1813:1816  _id */\n      dup6\n        /* \"contracts/ItemOwnership.sol\":1785:1817  itemIdList[msg.sender].push(_id) */\n      swap1\n      dup1\n      0x01\n      dup2\n      sload\n      add\n      dup1\n      dup3\n      sstore\n      dup1\n      swap2\n      pop\n      pop\n      0x01\n      swap1\n      sub\n      swap1\n      0x00\n      mstore\n      keccak256(0x00, 0x20)\n      add\n      0x00\n      swap1\n      swap2\n      swap1\n      swap2\n      swap1\n      swap2\n      pop\n      sstore\n        /* \"contracts/ItemOwnership.sol\":1321:1824  {... */\n      pop\n        /* \"contracts/ItemOwnership.sol\":1159:1824  function addItemToAdress(... */\n      pop\n      pop\n      pop\n      pop\n      jump\t// out\n        /* \"contracts/ItemOwnership.sol\":1830:2363  function getAttributesOfItemByID(uint256 _id)... */\n    tag_28:\n        /* \"contracts/ItemOwnership.sol\":1950:1965  string[] memory */\n      0x60\n        /* \"contracts/ItemOwnership.sol\":1967:1982  string[] memory */\n      dup1\n        /* \"contracts/ItemOwnership.sol\":1928:1931  _id */\n      dup3\n        /* \"contracts/ItemOwnership.sol\":761:771  msg.sender */\n      caller\n        /* \"contracts/ItemOwnership.sol\":722:771  itemDatabase[msg.sender][_id].owner == msg.sender */\n      0xffffffffffffffffffffffffffffffffffffffff\n      and\n        /* \"contracts/ItemOwnership.sol\":722:734  itemDatabase */\n      0x01\n        /* \"contracts/ItemOwnership.sol\":722:746  itemDatabase[msg.sender] */\n      0x00\n        /* \"contracts/ItemOwnership.sol\":735:745  msg.sender */\n      caller\n        /* \"contracts/ItemOwnership.sol\":722:746  itemDatabase[msg.sender] */\n      0xffffffffffffffffffffffffffffffffffffffff\n      and\n      0xffffffffffffffffffffffffffffffffffffffff\n      and\n      dup2\n      mstore\n      0x20\n      add\n      swap1\n      dup2\n      mstore\n      0x20\n      add\n      0x00\n      keccak256\n        /* \"contracts/ItemOwnership.sol\":722:751  itemDatabase[msg.sender][_id] */\n      0x00\n        /* \"contracts/ItemOwnership.sol\":747:750  _id */\n      dup4\n        /* \"contracts/ItemOwnership.sol\":722:751  itemDatabase[msg.sender][_id] */\n      dup2\n      mstore\n      0x20\n      add\n      swap1\n      dup2\n      mstore\n      0x20\n      add\n      0x00\n      keccak256\n        /* \"contracts/ItemOwnership.sol\":722:757  itemDatabase[msg.sender][_id].owner */\n      0x00\n      add\n      0x00\n      swap1\n      sload\n      swap1\n      0x0100\n      exp\n      swap1\n      div\n      0xffffffffffffffffffffffffffffffffffffffff\n      and\n        /* \"contracts/ItemOwnership.sol\":722:771  itemDatabase[msg.sender][_id].owner == msg.sender */\n      0xffffffffffffffffffffffffffffffffffffffff\n      and\n      eq\n        /* \"contracts/ItemOwnership.sol\":701:821  require(... */\n      tag_81\n      jumpi\n      mload(0x40)\n      0x08c379a000000000000000000000000000000000000000000000000000000000\n      dup2\n      mstore\n      0x04\n      add\n      tag_82\n      swap1\n      tag_37\n      jump\t// in\n    tag_82:\n      mload(0x40)\n      dup1\n      swap2\n      sub\n      swap1\n      revert\n    tag_81:\n        /* \"contracts/ItemOwnership.sol\":1998:2015  Item storage item */\n      0x00\n        /* \"contracts/ItemOwnership.sol\":2018:2030  itemDatabase */\n      0x01\n        /* \"contracts/ItemOwnership.sol\":2018:2042  itemDatabase[msg.sender] */\n      0x00\n        /* \"contracts/ItemOwnership.sol\":2031:2041  msg.sender */\n      caller\n        /* \"contracts/ItemOwnership.sol\":2018:2042  itemDatabase[msg.sender] */\n      0xffffffffffffffffffffffffffffffffffffffff\n      and\n      0xffffffffffffffffffffffffffffffffffffffff\n      and\n      dup2\n      mstore\n      0x20\n      add\n      swap1\n      dup2\n      mstore\n      0x20\n      add\n      0x00\n      keccak256\n        /* \"contracts/ItemOwnership.sol\":2018:2047  itemDatabase[msg.sender][_id] */\n      0x00\n        /* \"contracts/ItemOwnership.sol\":2043:2046  _id */\n      dup7\n        /* \"contracts/ItemOwnership.sol\":2018:2047  itemDatabase[msg.sender][_id] */\n      dup2\n      mstore\n      0x20\n      add\n      swap1\n      dup2\n      mstore\n      0x20\n      add\n      0x00\n      keccak256\n        /* \"contracts/ItemOwnership.sol\":1998:2047  Item storage item = itemDatabase[msg.sender][_id] */\n      swap1\n      pop\n        /* \"contracts/ItemOwnership.sol\":2057:2088  string[] memory attributeValues */\n      0x00\n        /* \"contracts/ItemOwnership.sol\":2117:2121  item */\n      dup2\n        /* \"contracts/ItemOwnership.sol\":2117:2135  item.attributeKeys */\n      0x02\n      add\n        /* \"contracts/ItemOwnership.sol\":2117:2142  item.attributeKeys.length */\n      dup1\n      sload\n      swap1\n      pop\n        /* \"contracts/ItemOwnership.sol\":2091:2152  new string[](... */\n      0xffffffffffffffff\n      dup2\n      gt\n      iszero\n      tag_84\n      jumpi\n      tag_85\n      tag_86\n      jump\t// in\n    tag_85:\n    tag_84:\n      mload(0x40)\n      swap1\n      dup1\n      dup3\n      mstore\n      dup1\n      0x20\n      mul\n      0x20\n      add\n      dup3\n      add\n      0x40\n      mstore\n      dup1\n      iszero\n      tag_87\n      jumpi\n      dup2\n      0x20\n      add\n    tag_88:\n      0x60\n      dup2\n      mstore\n      0x20\n      add\n      swap1\n      0x01\n      swap1\n      sub\n      swap1\n      dup2\n      tag_88\n      jumpi\n      swap1\n      pop\n    tag_87:\n      pop\n        /* \"contracts/ItemOwnership.sol\":2057:2152  string[] memory attributeValues = new string[](... */\n      swap1\n      pop\n        /* \"contracts/ItemOwnership.sol\":2168:2177  uint256 i */\n      0x00\n        /* \"contracts/ItemOwnership.sol\":2163:2303  for (uint256 i = 0; i < item.attributeKeys.length; i++) {... */\n    tag_89:\n        /* \"contracts/ItemOwnership.sol\":2187:2191  item */\n      dup3\n        /* \"contracts/ItemOwnership.sol\":2187:2205  item.attributeKeys */\n      0x02\n      add\n        /* \"contracts/ItemOwnership.sol\":2187:2212  item.attributeKeys.length */\n      dup1\n      sload\n      swap1\n      pop\n        /* \"contracts/ItemOwnership.sol\":2183:2184  i */\n      dup2\n        /* \"contracts/ItemOwnership.sol\":2183:2212  i < item.attributeKeys.length */\n      lt\n        /* \"contracts/ItemOwnership.sol\":2163:2303  for (uint256 i = 0; i < item.attributeKeys.length; i++) {... */\n      iszero\n      tag_90\n      jumpi\n        /* \"contracts/ItemOwnership.sol\":2254:2258  item */\n      dup3\n        /* \"contracts/ItemOwnership.sol\":2254:2269  item.attributes */\n      0x01\n      add\n        /* \"contracts/ItemOwnership.sol\":2270:2274  item */\n      dup4\n        /* \"contracts/ItemOwnership.sol\":2270:2288  item.attributeKeys */\n      0x02\n      add\n        /* \"contracts/ItemOwnership.sol\":2289:2290  i */\n      dup3\n        /* \"contracts/ItemOwnership.sol\":2270:2291  item.attributeKeys[i] */\n      dup2\n      sload\n      dup2\n      lt\n      tag_92\n      jumpi\n      tag_93\n      tag_47\n      jump\t// in\n    tag_93:\n    tag_92:\n      swap1\n      0x00\n      mstore\n      keccak256(0x00, 0x20)\n      add\n        /* \"contracts/ItemOwnership.sol\":2254:2292  item.attributes[item.attributeKeys[i]] */\n      mload(0x40)\n      tag_95\n      swap2\n      swap1\n      tag_96\n      jump\t// in\n    tag_95:\n      swap1\n      dup2\n      mstore\n      0x20\n      add\n      mload(0x40)\n      dup1\n      swap2\n      sub\n      swap1\n      keccak256\n        /* \"contracts/ItemOwnership.sol\":2233:2292  attributeValues[i] = item.attributes[item.attributeKeys[i]] */\n      dup1\n      sload\n      tag_97\n      swap1\n      tag_98\n      jump\t// in\n    tag_97:\n      dup1\n      0x1f\n      add\n      0x20\n      dup1\n      swap2\n      div\n      mul\n      0x20\n      add\n      mload(0x40)\n      swap1\n      dup2\n      add\n      0x40\n      mstore\n      dup1\n      swap3\n      swap2\n      swap1\n      dup2\n      dup2\n      mstore\n      0x20\n      add\n      dup3\n      dup1\n      sload\n      tag_99\n      swap1\n      tag_98\n      jump\t// in\n    tag_99:\n      dup1\n      iszero\n      tag_100\n      jumpi\n      dup1\n      0x1f\n      lt\n      tag_101\n      jumpi\n      0x0100\n      dup1\n      dup4\n      sload\n      div\n      mul\n      dup4\n      mstore\n      swap2\n      0x20\n      add\n      swap2\n      jump(tag_100)\n    tag_101:\n      dup3\n      add\n      swap2\n      swap1\n      0x00\n      mstore\n      keccak256(0x00, 0x20)\n      swap1\n    tag_102:\n      dup2\n      sload\n      dup2\n      mstore\n      swap1\n      0x01\n      add\n      swap1\n      0x20\n      add\n      dup1\n      dup4\n      gt\n      tag_102\n      jumpi\n      dup3\n      swap1\n      sub\n      0x1f\n      and\n      dup3\n      add\n      swap2\n    tag_100:\n      pop\n      pop\n      pop\n      pop\n      pop\n        /* \"contracts/ItemOwnership.sol\":2233:2248  attributeValues */\n      dup3\n        /* \"contracts/ItemOwnership.sol\":2249:2250  i */\n      dup3\n        /* \"contracts/ItemOwnership.sol\":2233:2251  attributeValues[i] */\n      dup2\n      mload\n      dup2\n      lt\n      tag_103\n      jumpi\n      tag_104\n      tag_47\n      jump\t// in\n    tag_104:\n    tag_103:\n      0x20\n      mul\n      0x20\n      add\n      add\n        /* \"contracts/ItemOwnership.sol\":2233:2292  attributeValues[i] = item.attributes[item.attributeKeys[i]] */\n      dup2\n      swap1\n      mstore\n      pop\n        /* \"contracts/ItemOwnership.sol\":2214:2217  i++ */\n      dup1\n      dup1\n      tag_105\n      swap1\n      tag_55\n      jump\t// in\n    tag_105:\n      swap2\n      pop\n      pop\n        /* \"contracts/ItemOwnership.sol\":2163:2303  for (uint256 i = 0; i < item.attributeKeys.length; i++) {... */\n      jump(tag_89)\n    tag_90:\n      pop\n        /* \"contracts/ItemOwnership.sol\":2320:2324  item */\n      dup2\n        /* \"contracts/ItemOwnership.sol\":2320:2338  item.attributeKeys */\n      0x02\n      add\n        /* \"contracts/ItemOwnership.sol\":2340:2355  attributeValues */\n      dup2\n        /* \"contracts/ItemOwnership.sol\":2312:2356  return (item.attributeKeys, attributeValues) */\n      dup2\n      dup1\n      sload\n      dup1\n      0x20\n      mul\n      0x20\n      add\n      mload(0x40)\n      swap1\n      dup2\n      add\n      0x40\n      mstore\n      dup1\n      swap3\n      swap2\n      swap1\n      dup2\n      dup2\n      mstore\n      0x20\n      add\n      0x00\n      swap1\n    tag_106:\n      dup3\n      dup3\n      lt\n      iszero\n      tag_107\n      jumpi\n      dup4\n      dup3\n      swap1\n      0x00\n      mstore\n      keccak256(0x00, 0x20)\n      add\n      dup1\n      sload\n      tag_109\n      swap1\n      tag_98\n      jump\t// in\n    tag_109:\n      dup1\n      0x1f\n      add\n      0x20\n      dup1\n      swap2\n      div\n      mul\n      0x20\n      add\n      mload(0x40)\n      swap1\n      dup2\n      add\n      0x40\n      mstore\n      dup1\n      swap3\n      swap2\n      swap1\n      dup2\n      dup2\n      mstore\n      0x20\n      add\n      dup3\n      dup1\n      sload\n      tag_110\n      swap1\n      tag_98\n      jump\t// in\n    tag_110:\n      dup1\n      iszero\n      tag_111\n      jumpi\n      dup1\n      0x1f\n      lt\n      tag_112\n      jumpi\n      0x0100\n      dup1\n      dup4\n      sload\n      div\n      mul\n      dup4\n      mstore\n      swap2\n      0x20\n      add\n      swap2\n      jump(tag_111)\n    tag_112:\n      dup3\n      add\n      swap2\n      swap1\n      0x00\n      mstore\n      keccak256(0x00, 0x20)\n      swap1\n    tag_113:\n      dup2\n      sload\n      dup2\n      mstore\n      swap1\n      0x01\n      add\n      swap1\n      0x20\n      add\n      dup1\n      dup4\n      gt\n      tag_113\n      jumpi\n      dup3\n      swap1\n      sub\n      0x1f\n      and\n      dup3\n      add\n      swap2\n    tag_111:\n      pop\n      pop\n      pop\n      pop\n      pop\n      dup2\n      mstore\n      0x20\n      add\n      swap1\n      0x01\n      add\n      swap1\n      jump(tag_106)\n    tag_107:\n      pop\n      pop\n      pop\n      pop\n      swap2\n      pop\n      swap5\n      pop\n      swap5\n      pop\n      pop\n      pop\n        /* \"contracts/ItemOwnership.sol\":1830:2363  function getAttributesOfItemByID(uint256 _id)... */\n      pop\n      swap2\n      pop\n      swap2\n      jump\t// out\n        /* \"contracts/ItemOwnership.sol\":2369:2775  function removeItemFromAddress(uint256 _id) public itemIsAvailable(_id) {... */\n    tag_33:\n        /* \"contracts/ItemOwnership.sol\":2436:2439  _id */\n      dup1\n        /* \"contracts/ItemOwnership.sol\":761:771  msg.sender */\n      caller\n        /* \"contracts/ItemOwnership.sol\":722:771  itemDatabase[msg.sender][_id].owner == msg.sender */\n      0xffffffffffffffffffffffffffffffffffffffff\n      and\n        /* \"contracts/ItemOwnership.sol\":722:734  itemDatabase */\n      0x01\n        /* \"contracts/ItemOwnership.sol\":722:746  itemDatabase[msg.sender] */\n      0x00\n        /* \"contracts/ItemOwnership.sol\":735:745  msg.sender */\n      caller\n        /* \"contracts/ItemOwnership.sol\":722:746  itemDatabase[msg.sender] */\n      0xffffffffffffffffffffffffffffffffffffffff\n      and\n      0xffffffffffffffffffffffffffffffffffffffff\n      and\n      dup2\n      mstore\n      0x20\n      add\n      swap1\n      dup2\n      mstore\n      0x20\n      add\n      0x00\n      keccak256\n        /* \"contracts/ItemOwnership.sol\":722:751  itemDatabase[msg.sender][_id] */\n      0x00\n        /* \"contracts/ItemOwnership.sol\":747:750  _id */\n      dup4\n        /* \"contracts/ItemOwnership.sol\":722:751  itemDatabase[msg.sender][_id] */\n      dup2\n      mstore\n      0x20\n      add\n      swap1\n      dup2\n      mstore\n      0x20\n      add\n      0x00\n      keccak256\n        /* \"contracts/ItemOwnership.sol\":722:757  itemDatabase[msg.sender][_id].owner */\n      0x00\n      add\n      0x00\n      swap1\n      sload\n      swap1\n      0x0100\n      exp\n      swap1\n      div\n      0xffffffffffffffffffffffffffffffffffffffff\n      and\n        /* \"contracts/ItemOwnership.sol\":722:771  itemDatabase[msg.sender][_id].owner == msg.sender */\n      0xffffffffffffffffffffffffffffffffffffffff\n      and\n      eq\n        /* \"contracts/ItemOwnership.sol\":701:821  require(... */\n      tag_115\n      jumpi\n      mload(0x40)\n      0x08c379a000000000000000000000000000000000000000000000000000000000\n      dup2\n      mstore\n      0x04\n      add\n      tag_116\n      swap1\n      tag_37\n      jump\t// in\n    tag_116:\n      mload(0x40)\n      dup1\n      swap2\n      sub\n      swap1\n      revert\n    tag_115:\n        /* \"contracts/ItemOwnership.sol\":2456:2465  uint256 i */\n      0x00\n        /* \"contracts/ItemOwnership.sol\":2451:2722  for (uint256 i = 0; i < itemIdList[msg.sender].length; i++) {... */\n    tag_118:\n        /* \"contracts/ItemOwnership.sol\":2475:2485  itemIdList */\n      0x02\n        /* \"contracts/ItemOwnership.sol\":2475:2497  itemIdList[msg.sender] */\n      0x00\n        /* \"contracts/ItemOwnership.sol\":2486:2496  msg.sender */\n      caller\n        /* \"contracts/ItemOwnership.sol\":2475:2497  itemIdList[msg.sender] */\n      0xffffffffffffffffffffffffffffffffffffffff\n      and\n      0xffffffffffffffffffffffffffffffffffffffff\n      and\n      dup2\n      mstore\n      0x20\n      add\n      swap1\n      dup2\n      mstore\n      0x20\n      add\n      0x00\n      keccak256\n        /* \"contracts/ItemOwnership.sol\":2475:2504  itemIdList[msg.sender].length */\n      dup1\n      sload\n      swap1\n      pop\n        /* \"contracts/ItemOwnership.sol\":2471:2472  i */\n      dup2\n        /* \"contracts/ItemOwnership.sol\":2471:2504  i < itemIdList[msg.sender].length */\n      lt\n        /* \"contracts/ItemOwnership.sol\":2451:2722  for (uint256 i = 0; i < itemIdList[msg.sender].length; i++) {... */\n      iszero\n      tag_119\n      jumpi\n        /* \"contracts/ItemOwnership.sol\":2558:2561  _id */\n      dup3\n        /* \"contracts/ItemOwnership.sol\":2529:2539  itemIdList */\n      0x02\n        /* \"contracts/ItemOwnership.sol\":2529:2551  itemIdList[msg.sender] */\n      0x00\n        /* \"contracts/ItemOwnership.sol\":2540:2550  msg.sender */\n      caller\n        /* \"contracts/ItemOwnership.sol\":2529:2551  itemIdList[msg.sender] */\n      0xffffffffffffffffffffffffffffffffffffffff\n      and\n      0xffffffffffffffffffffffffffffffffffffffff\n      and\n      dup2\n      mstore\n      0x20\n      add\n      swap1\n      dup2\n      mstore\n      0x20\n      add\n      0x00\n      keccak256\n        /* \"contracts/ItemOwnership.sol\":2552:2553  i */\n      dup3\n        /* \"contracts/ItemOwnership.sol\":2529:2554  itemIdList[msg.sender][i] */\n      dup2\n      sload\n      dup2\n      lt\n      tag_121\n      jumpi\n      tag_122\n      tag_47\n      jump\t// in\n    tag_122:\n    tag_121:\n      swap1\n      0x00\n      mstore\n      keccak256(0x00, 0x20)\n      add\n      sload\n        /* \"contracts/ItemOwnership.sol\":2529:2561  itemIdList[msg.sender][i] == _id */\n      sub\n        /* \"contracts/ItemOwnership.sol\":2525:2601  if (itemIdList[msg.sender][i] == _id)... */\n      tag_124\n      jumpi\n        /* \"contracts/ItemOwnership.sol\":2579:2601  removeItemFromArray(i) */\n      tag_125\n        /* \"contracts/ItemOwnership.sol\":2599:2600  i */\n      dup2\n        /* \"contracts/ItemOwnership.sol\":2579:2598  removeItemFromArray */\n      tag_126\n        /* \"contracts/ItemOwnership.sol\":2579:2601  removeItemFromArray(i) */\n      jump\t// in\n    tag_125:\n        /* \"contracts/ItemOwnership.sol\":2525:2601  if (itemIdList[msg.sender][i] == _id)... */\n    tag_124:\n        /* \"contracts/ItemOwnership.sol\":2506:2509  i++ */\n      dup1\n      dup1\n      tag_127\n      swap1\n      tag_55\n      jump\t// in\n    tag_127:\n      swap2\n      pop\n      pop\n        /* \"contracts/ItemOwnership.sol\":2451:2722  for (uint256 i = 0; i < itemIdList[msg.sender].length; i++) {... */\n      jump(tag_118)\n    tag_119:\n      pop\n        /* \"contracts/ItemOwnership.sol\":2739:2751  itemDatabase */\n      0x01\n        /* \"contracts/ItemOwnership.sol\":2739:2763  itemDatabase[msg.sender] */\n      0x00\n        /* \"contracts/ItemOwnership.sol\":2752:2762  msg.sender */\n      caller\n        /* \"contracts/ItemOwnership.sol\":2739:2763  itemDatabase[msg.sender] */\n      0xffffffffffffffffffffffffffffffffffffffff\n      and\n      0xffffffffffffffffffffffffffffffffffffffff\n      and\n      dup2\n      mstore\n      0x20\n      add\n      swap1\n      dup2\n      mstore\n      0x20\n      add\n      0x00\n      keccak256\n        /* \"contracts/ItemOwnership.sol\":2739:2768  itemDatabase[msg.sender][_id] */\n      0x00\n        /* \"contracts/ItemOwnership.sol\":2764:2767  _id */\n      dup4\n        /* \"contracts/ItemOwnership.sol\":2739:2768  itemDatabase[msg.sender][_id] */\n      dup2\n      mstore\n      0x20\n      add\n      swap1\n      dup2\n      mstore\n      0x20\n      add\n      0x00\n      keccak256\n      0x00\n        /* \"contracts/ItemOwnership.sol\":2732:2768  delete itemDatabase[msg.sender][_id] */\n      dup1\n      dup3\n      add\n      exp(0x0100, 0x00)\n      dup2\n      sload\n      swap1\n      0xffffffffffffffffffffffffffffffffffffffff\n      mul\n      not\n      and\n      swap1\n      sstore\n      0x02\n      dup3\n      add\n      0x00\n      tag_128\n      swap2\n      swap1\n      tag_129\n      jump\t// in\n    tag_128:\n      pop\n      pop\n        /* \"contracts/ItemOwnership.sol\":2369:2775  function removeItemFromAddress(uint256 _id) public itemIsAvailable(_id) {... */\n      pop\n      pop\n      jump\t// out\n        /* \"contracts/ItemOwnership.sol\":3521:3863  function removeItemFromArray(uint256 index) private  {... */\n    tag_126:\n        /* \"contracts/ItemOwnership.sol\":3597:3607  itemIdList */\n      0x02\n        /* \"contracts/ItemOwnership.sol\":3597:3619  itemIdList[msg.sender] */\n      0x00\n        /* \"contracts/ItemOwnership.sol\":3608:3618  msg.sender */\n      caller\n        /* \"contracts/ItemOwnership.sol\":3597:3619  itemIdList[msg.sender] */\n      0xffffffffffffffffffffffffffffffffffffffff\n      and\n      0xffffffffffffffffffffffffffffffffffffffff\n      and\n      dup2\n      mstore\n      0x20\n      add\n      swap1\n      dup2\n      mstore\n      0x20\n      add\n      0x00\n      keccak256\n        /* \"contracts/ItemOwnership.sol\":3597:3626  itemIdList[msg.sender].length */\n      dup1\n      sload\n      swap1\n      pop\n        /* \"contracts/ItemOwnership.sol\":3588:3593  index */\n      dup2\n        /* \"contracts/ItemOwnership.sol\":3588:3626  index >= itemIdList[msg.sender].length */\n      lt\n        /* \"contracts/ItemOwnership.sol\":3584:3635  if (index >= itemIdList[msg.sender].length) return; */\n      iszero\n        /* \"contracts/ItemOwnership.sol\":3628:3635  return; */\n      tag_130\n        /* \"contracts/ItemOwnership.sol\":3584:3635  if (index >= itemIdList[msg.sender].length) return; */\n      jumpi\n        /* \"contracts/ItemOwnership.sol\":3681:3690  uint256 i */\n      0x00\n        /* \"contracts/ItemOwnership.sol\":3693:3698  index */\n      dup2\n        /* \"contracts/ItemOwnership.sol\":3681:3698  uint256 i = index */\n      swap1\n      pop\n        /* \"contracts/ItemOwnership.sol\":3676:3819  for (uint256 i = index; i<itemIdList[msg.sender].length-1; i++){... */\n    tag_132:\n        /* \"contracts/ItemOwnership.sol\":3732:3733  1 */\n      0x01\n        /* \"contracts/ItemOwnership.sol\":3702:3712  itemIdList */\n      0x02\n        /* \"contracts/ItemOwnership.sol\":3702:3724  itemIdList[msg.sender] */\n      0x00\n        /* \"contracts/ItemOwnership.sol\":3713:3723  msg.sender */\n      caller\n        /* \"contracts/ItemOwnership.sol\":3702:3724  itemIdList[msg.sender] */\n      0xffffffffffffffffffffffffffffffffffffffff\n      and\n      0xffffffffffffffffffffffffffffffffffffffff\n      and\n      dup2\n      mstore\n      0x20\n      add\n      swap1\n      dup2\n      mstore\n      0x20\n      add\n      0x00\n      keccak256\n        /* \"contracts/ItemOwnership.sol\":3702:3731  itemIdList[msg.sender].length */\n      dup1\n      sload\n      swap1\n      pop\n        /* \"contracts/ItemOwnership.sol\":3702:3733  itemIdList[msg.sender].length-1 */\n      tag_135\n      swap2\n      swap1\n      tag_136\n      jump\t// in\n    tag_135:\n        /* \"contracts/ItemOwnership.sol\":3700:3701  i */\n      dup2\n        /* \"contracts/ItemOwnership.sol\":3700:3733  i<itemIdList[msg.sender].length-1 */\n      lt\n        /* \"contracts/ItemOwnership.sol\":3676:3819  for (uint256 i = index; i<itemIdList[msg.sender].length-1; i++){... */\n      iszero\n      tag_133\n      jumpi\n        /* \"contracts/ItemOwnership.sol\":3781:3791  itemIdList */\n      0x02\n        /* \"contracts/ItemOwnership.sol\":3781:3803  itemIdList[msg.sender] */\n      0x00\n        /* \"contracts/ItemOwnership.sol\":3792:3802  msg.sender */\n      caller\n        /* \"contracts/ItemOwnership.sol\":3781:3803  itemIdList[msg.sender] */\n      0xffffffffffffffffffffffffffffffffffffffff\n      and\n      0xffffffffffffffffffffffffffffffffffffffff\n      and\n      dup2\n      mstore\n      0x20\n      add\n      swap1\n      dup2\n      mstore\n      0x20\n      add\n      0x00\n      keccak256\n        /* \"contracts/ItemOwnership.sol\":3806:3807  1 */\n      0x01\n        /* \"contracts/ItemOwnership.sol\":3804:3805  i */\n      dup3\n        /* \"contracts/ItemOwnership.sol\":3804:3807  i+1 */\n      tag_137\n      swap2\n      swap1\n      tag_138\n      jump\t// in\n    tag_137:\n        /* \"contracts/ItemOwnership.sol\":3781:3808  itemIdList[msg.sender][i+1] */\n      dup2\n      sload\n      dup2\n      lt\n      tag_139\n      jumpi\n      tag_140\n      tag_47\n      jump\t// in\n    tag_140:\n    tag_139:\n      swap1\n      0x00\n      mstore\n      keccak256(0x00, 0x20)\n      add\n      sload\n        /* \"contracts/ItemOwnership.sol\":3753:3763  itemIdList */\n      0x02\n        /* \"contracts/ItemOwnership.sol\":3753:3775  itemIdList[msg.sender] */\n      0x00\n        /* \"contracts/ItemOwnership.sol\":3764:3774  msg.sender */\n      caller\n        /* \"contracts/ItemOwnership.sol\":3753:3775  itemIdList[msg.sender] */\n      0xffffffffffffffffffffffffffffffffffffffff\n      and\n      0xffffffffffffffffffffffffffffffffffffffff\n      and\n      dup2\n      mstore\n      0x20\n      add\n      swap1\n      dup2\n      mstore\n      0x20\n      add\n      0x00\n      keccak256\n        /* \"contracts/ItemOwnership.sol\":3776:3777  i */\n      dup3\n        /* \"contracts/ItemOwnership.sol\":3753:3778  itemIdList[msg.sender][i] */\n      dup2\n      sload\n      dup2\n      lt\n      tag_142\n      jumpi\n      tag_143\n      tag_47\n      jump\t// in\n    tag_143:\n    tag_142:\n      swap1\n      0x00\n      mstore\n      keccak256(0x00, 0x20)\n      add\n        /* \"contracts/ItemOwnership.sol\":3753:3808  itemIdList[msg.sender][i] = itemIdList[msg.sender][i+1] */\n      dup2\n      swap1\n      sstore\n      pop\n        /* \"contracts/ItemOwnership.sol\":3735:3738  i++ */\n      dup1\n      dup1\n      tag_145\n      swap1\n      tag_55\n      jump\t// in\n    tag_145:\n      swap2\n      pop\n      pop\n        /* \"contracts/ItemOwnership.sol\":3676:3819  for (uint256 i = index; i<itemIdList[msg.sender].length-1; i++){... */\n      jump(tag_132)\n    tag_133:\n      pop\n        /* \"contracts/ItemOwnership.sol\":3828:3838  itemIdList */\n      0x02\n        /* \"contracts/ItemOwnership.sol\":3828:3850  itemIdList[msg.sender] */\n      0x00\n        /* \"contracts/ItemOwnership.sol\":3839:3849  msg.sender */\n      caller\n        /* \"contracts/ItemOwnership.sol\":3828:3850  itemIdList[msg.sender] */\n      0xffffffffffffffffffffffffffffffffffffffff\n      and\n      0xffffffffffffffffffffffffffffffffffffffff\n      and\n      dup2\n      mstore\n      0x20\n      add\n      swap1\n      dup2\n      mstore\n      0x20\n      add\n      0x00\n      keccak256\n        /* \"contracts/ItemOwnership.sol\":3828:3856  itemIdList[msg.sender].pop() */\n      dup1\n      sload\n      dup1\n      tag_146\n      jumpi\n      tag_147\n      tag_148\n      jump\t// in\n    tag_147:\n    tag_146:\n      0x01\n      swap1\n      sub\n      dup2\n      dup2\n      swap1\n      0x00\n      mstore\n      keccak256(0x00, 0x20)\n      add\n      0x00\n      swap1\n      sstore\n      swap1\n      sstore\n        /* \"contracts/ItemOwnership.sol\":3521:3863  function removeItemFromArray(uint256 index) private  {... */\n    tag_130:\n      pop\n      jump\t// out\n    tag_57:\n      dup3\n      dup1\n      sload\n      dup3\n      dup3\n      sstore\n      swap1\n      0x00\n      mstore\n      keccak256(0x00, 0x20)\n      swap1\n      dup2\n      add\n      swap3\n      dup3\n      iszero\n      tag_150\n      jumpi\n      swap2\n      0x20\n      mul\n      dup3\n      add\n    tag_151:\n      dup3\n      dup2\n      gt\n      iszero\n      tag_152\n      jumpi\n      dup3\n      mload\n      dup3\n      swap1\n      dup2\n      tag_153\n      swap2\n      swap1\n      tag_53\n      jump\t// in\n    tag_153:\n      pop\n      swap2\n      0x20\n      add\n      swap2\n      swap1\n      0x01\n      add\n      swap1\n      jump(tag_151)\n    tag_152:\n    tag_150:\n      pop\n      swap1\n      pop\n      tag_154\n      swap2\n      swap1\n      tag_155\n      jump\t// in\n    tag_154:\n      pop\n      swap1\n      jump\t// out\n    tag_129:\n      pop\n      dup1\n      sload\n      0x00\n      dup3\n      sstore\n      swap1\n      0x00\n      mstore\n      keccak256(0x00, 0x20)\n      swap1\n      dup2\n      add\n      swap1\n      tag_157\n      swap2\n      swap1\n      tag_155\n      jump\t// in\n    tag_157:\n      pop\n      jump\t// out\n    tag_155:\n    tag_158:\n      dup1\n      dup3\n      gt\n      iszero\n      tag_159\n      jumpi\n      0x00\n      dup2\n      dup2\n      tag_160\n      swap2\n      swap1\n      tag_161\n      jump\t// in\n    tag_160:\n      pop\n      0x01\n      add\n      jump(tag_158)\n    tag_159:\n      pop\n      swap1\n      jump\t// out\n    tag_161:\n      pop\n      dup1\n      sload\n      tag_162\n      swap1\n      tag_98\n      jump\t// in\n    tag_162:\n      0x00\n      dup3\n      sstore\n      dup1\n      0x1f\n      lt\n      tag_164\n      jumpi\n      pop\n      jump(tag_163)\n    tag_164:\n      0x1f\n      add\n      0x20\n      swap1\n      div\n      swap1\n      0x00\n      mstore\n      keccak256(0x00, 0x20)\n      swap1\n      dup2\n      add\n      swap1\n      tag_165\n      swap2\n      swap1\n      tag_166\n      jump\t// in\n    tag_165:\n    tag_163:\n      pop\n      jump\t// out\n    tag_166:\n    tag_167:\n      dup1\n      dup3\n      gt\n      iszero\n      tag_168\n      jumpi\n      0x00\n      dup2\n      0x00\n      swap1\n      sstore\n      pop\n      0x01\n      add\n      jump(tag_167)\n    tag_168:\n      pop\n      swap1\n      jump\t// out\n        /* \"#utility.yul\":7:82   */\n    tag_169:\n        /* \"#utility.yul\":40:46   */\n      0x00\n        /* \"#utility.yul\":73:75   */\n      0x40\n        /* \"#utility.yul\":67:76   */\n      mload\n        /* \"#utility.yul\":57:76   */\n      swap1\n      pop\n        /* \"#utility.yul\":7:82   */\n      swap1\n      jump\t// out\n        /* \"#utility.yul\":88:205   */\n    tag_170:\n        /* \"#utility.yul\":197:198   */\n      0x00\n        /* \"#utility.yul\":194:195   */\n      dup1\n        /* \"#utility.yul\":187:199   */\n      revert\n        /* \"#utility.yul\":211:328   */\n    tag_171:\n        /* \"#utility.yul\":320:321   */\n      0x00\n        /* \"#utility.yul\":317:318   */\n      dup1\n        /* \"#utility.yul\":310:322   */\n      revert\n        /* \"#utility.yul\":334:411   */\n    tag_172:\n        /* \"#utility.yul\":371:378   */\n      0x00\n        /* \"#utility.yul\":400:405   */\n      dup2\n        /* \"#utility.yul\":389:405   */\n      swap1\n      pop\n        /* \"#utility.yul\":334:411   */\n      swap2\n      swap1\n      pop\n      jump\t// out\n        /* \"#utility.yul\":417:539   */\n    tag_173:\n        /* \"#utility.yul\":490:514   */\n      tag_236\n        /* \"#utility.yul\":508:513   */\n      dup2\n        /* \"#utility.yul\":490:514   */\n      tag_172\n      jump\t// in\n    tag_236:\n        /* \"#utility.yul\":483:488   */\n      dup2\n        /* \"#utility.yul\":480:515   */\n      eq\n        /* \"#utility.yul\":470:533   */\n      tag_237\n      jumpi\n        /* \"#utility.yul\":529:530   */\n      0x00\n        /* \"#utility.yul\":526:527   */\n      dup1\n        /* \"#utility.yul\":519:531   */\n      revert\n        /* \"#utility.yul\":470:533   */\n    tag_237:\n        /* \"#utility.yul\":417:539   */\n      pop\n      jump\t// out\n        /* \"#utility.yul\":545:684   */\n    tag_174:\n        /* \"#utility.yul\":591:596   */\n      0x00\n        /* \"#utility.yul\":629:635   */\n      dup2\n        /* \"#utility.yul\":616:636   */\n      calldataload\n        /* \"#utility.yul\":607:636   */\n      swap1\n      pop\n        /* \"#utility.yul\":645:678   */\n      tag_239\n        /* \"#utility.yul\":672:677   */\n      dup2\n        /* \"#utility.yul\":645:678   */\n      tag_173\n      jump\t// in\n    tag_239:\n        /* \"#utility.yul\":545:684   */\n      swap3\n      swap2\n      pop\n      pop\n      jump\t// out\n        /* \"#utility.yul\":690:807   */\n    tag_175:\n        /* \"#utility.yul\":799:800   */\n      0x00\n        /* \"#utility.yul\":796:797   */\n      dup1\n        /* \"#utility.yul\":789:801   */\n      revert\n        /* \"#utility.yul\":813:915   */\n    tag_176:\n        /* \"#utility.yul\":854:860   */\n      0x00\n        /* \"#utility.yul\":905:907   */\n      0x1f\n        /* \"#utility.yul\":901:908   */\n      not\n        /* \"#utility.yul\":896:898   */\n      0x1f\n        /* \"#utility.yul\":889:894   */\n      dup4\n        /* \"#utility.yul\":885:899   */\n      add\n        /* \"#utility.yul\":881:909   */\n      and\n        /* \"#utility.yul\":871:909   */\n      swap1\n      pop\n        /* \"#utility.yul\":813:915   */\n      swap2\n      swap1\n      pop\n      jump\t// out\n        /* \"#utility.yul\":921:1101   */\n    tag_86:\n        /* \"#utility.yul\":969:1046   */\n      0x4e487b7100000000000000000000000000000000000000000000000000000000\n        /* \"#utility.yul\":966:967   */\n      0x00\n        /* \"#utility.yul\":959:1047   */\n      mstore\n        /* \"#utility.yul\":1066:1070   */\n      0x41\n        /* \"#utility.yul\":1063:1064   */\n      0x04\n        /* \"#utility.yul\":1056:1071   */\n      mstore\n        /* \"#utility.yul\":1090:1094   */\n      0x24\n        /* \"#utility.yul\":1087:1088   */\n      0x00\n        /* \"#utility.yul\":1080:1095   */\n      revert\n        /* \"#utility.yul\":1107:1388   */\n    tag_177:\n        /* \"#utility.yul\":1190:1217   */\n      tag_244\n        /* \"#utility.yul\":1212:1216   */\n      dup3\n        /* \"#utility.yul\":1190:1217   */\n      tag_176\n      jump\t// in\n    tag_244:\n        /* \"#utility.yul\":1182:1188   */\n      dup2\n        /* \"#utility.yul\":1178:1218   */\n      add\n        /* \"#utility.yul\":1320:1326   */\n      dup2\n        /* \"#utility.yul\":1308:1318   */\n      dup2\n        /* \"#utility.yul\":1305:1327   */\n      lt\n        /* \"#utility.yul\":1284:1302   */\n      0xffffffffffffffff\n        /* \"#utility.yul\":1272:1282   */\n      dup3\n        /* \"#utility.yul\":1269:1303   */\n      gt\n        /* \"#utility.yul\":1266:1328   */\n      or\n        /* \"#utility.yul\":1263:1351   */\n      iszero\n      tag_245\n      jumpi\n        /* \"#utility.yul\":1331:1349   */\n      tag_246\n      tag_86\n      jump\t// in\n    tag_246:\n        /* \"#utility.yul\":1263:1351   */\n    tag_245:\n        /* \"#utility.yul\":1371:1381   */\n      dup1\n        /* \"#utility.yul\":1367:1369   */\n      0x40\n        /* \"#utility.yul\":1360:1382   */\n      mstore\n        /* \"#utility.yul\":1150:1388   */\n      pop\n        /* \"#utility.yul\":1107:1388   */\n      pop\n      pop\n      jump\t// out\n        /* \"#utility.yul\":1394:1523   */\n    tag_178:\n        /* \"#utility.yul\":1428:1434   */\n      0x00\n        /* \"#utility.yul\":1455:1475   */\n      tag_248\n      tag_169\n      jump\t// in\n    tag_248:\n        /* \"#utility.yul\":1445:1475   */\n      swap1\n      pop\n        /* \"#utility.yul\":1484:1517   */\n      tag_249\n        /* \"#utility.yul\":1512:1516   */\n      dup3\n        /* \"#utility.yul\":1504:1510   */\n      dup3\n        /* \"#utility.yul\":1484:1517   */\n      tag_177\n      jump\t// in\n    tag_249:\n        /* \"#utility.yul\":1394:1523   */\n      swap2\n      swap1\n      pop\n      jump\t// out\n        /* \"#utility.yul\":1529:1850   */\n    tag_179:\n        /* \"#utility.yul\":1616:1620   */\n      0x00\n        /* \"#utility.yul\":1706:1724   */\n      0xffffffffffffffff\n        /* \"#utility.yul\":1698:1704   */\n      dup3\n        /* \"#utility.yul\":1695:1725   */\n      gt\n        /* \"#utility.yul\":1692:1748   */\n      iszero\n      tag_251\n      jumpi\n        /* \"#utility.yul\":1728:1746   */\n      tag_252\n      tag_86\n      jump\t// in\n    tag_252:\n        /* \"#utility.yul\":1692:1748   */\n    tag_251:\n        /* \"#utility.yul\":1778:1782   */\n      0x20\n        /* \"#utility.yul\":1770:1776   */\n      dup3\n        /* \"#utility.yul\":1766:1783   */\n      mul\n        /* \"#utility.yul\":1758:1783   */\n      swap1\n      pop\n        /* \"#utility.yul\":1838:1842   */\n      0x20\n        /* \"#utility.yul\":1832:1836   */\n      dup2\n        /* \"#utility.yul\":1828:1843   */\n      add\n        /* \"#utility.yul\":1820:1843   */\n      swap1\n      pop\n        /* \"#utility.yul\":1529:1850   */\n      swap2\n      swap1\n      pop\n      jump\t// out\n        /* \"#utility.yul\":1856:1973   */\n    tag_180:\n        /* \"#utility.yul\":1965:1966   */\n      0x00\n        /* \"#utility.yul\":1962:1963   */\n      dup1\n        /* \"#utility.yul\":1955:1967   */\n      revert\n        /* \"#utility.yul\":1979:2096   */\n    tag_181:\n        /* \"#utility.yul\":2088:2089   */\n      0x00\n        /* \"#utility.yul\":2085:2086   */\n      dup1\n        /* \"#utility.yul\":2078:2090   */\n      revert\n        /* \"#utility.yul\":2102:2410   */\n    tag_182:\n        /* \"#utility.yul\":2164:2168   */\n      0x00\n        /* \"#utility.yul\":2254:2272   */\n      0xffffffffffffffff\n        /* \"#utility.yul\":2246:2252   */\n      dup3\n        /* \"#utility.yul\":2243:2273   */\n      gt\n        /* \"#utility.yul\":2240:2296   */\n      iszero\n      tag_256\n      jumpi\n        /* \"#utility.yul\":2276:2294   */\n      tag_257\n      tag_86\n      jump\t// in\n    tag_257:\n        /* \"#utility.yul\":2240:2296   */\n    tag_256:\n        /* \"#utility.yul\":2314:2343   */\n      tag_258\n        /* \"#utility.yul\":2336:2342   */\n      dup3\n        /* \"#utility.yul\":2314:2343   */\n      tag_176\n      jump\t// in\n    tag_258:\n        /* \"#utility.yul\":2306:2343   */\n      swap1\n      pop\n        /* \"#utility.yul\":2398:2402   */\n      0x20\n        /* \"#utility.yul\":2392:2396   */\n      dup2\n        /* \"#utility.yul\":2388:2403   */\n      add\n        /* \"#utility.yul\":2380:2403   */\n      swap1\n      pop\n        /* \"#utility.yul\":2102:2410   */\n      swap2\n      swap1\n      pop\n      jump\t// out\n        /* \"#utility.yul\":2416:2562   */\n    tag_183:\n        /* \"#utility.yul\":2513:2519   */\n      dup3\n        /* \"#utility.yul\":2508:2511   */\n      dup2\n        /* \"#utility.yul\":2503:2506   */\n      dup4\n        /* \"#utility.yul\":2490:2520   */\n      calldatacopy\n        /* \"#utility.yul\":2554:2555   */\n      0x00\n        /* \"#utility.yul\":2545:2551   */\n      dup4\n        /* \"#utility.yul\":2540:2543   */\n      dup4\n        /* \"#utility.yul\":2536:2552   */\n      add\n        /* \"#utility.yul\":2529:2556   */\n      mstore\n        /* \"#utility.yul\":2416:2562   */\n      pop\n      pop\n      pop\n      jump\t// out\n        /* \"#utility.yul\":2568:2993   */\n    tag_184:\n        /* \"#utility.yul\":2646:2651   */\n      0x00\n        /* \"#utility.yul\":2671:2737   */\n      tag_261\n        /* \"#utility.yul\":2687:2736   */\n      tag_262\n        /* \"#utility.yul\":2729:2735   */\n      dup5\n        /* \"#utility.yul\":2687:2736   */\n      tag_182\n      jump\t// in\n    tag_262:\n        /* \"#utility.yul\":2671:2737   */\n      tag_178\n      jump\t// in\n    tag_261:\n        /* \"#utility.yul\":2662:2737   */\n      swap1\n      pop\n        /* \"#utility.yul\":2760:2766   */\n      dup3\n        /* \"#utility.yul\":2753:2758   */\n      dup2\n        /* \"#utility.yul\":2746:2767   */\n      mstore\n        /* \"#utility.yul\":2798:2802   */\n      0x20\n        /* \"#utility.yul\":2791:2796   */\n      dup2\n        /* \"#utility.yul\":2787:2803   */\n      add\n        /* \"#utility.yul\":2836:2839   */\n      dup5\n        /* \"#utility.yul\":2827:2833   */\n      dup5\n        /* \"#utility.yul\":2822:2825   */\n      dup5\n        /* \"#utility.yul\":2818:2834   */\n      add\n        /* \"#utility.yul\":2815:2840   */\n      gt\n        /* \"#utility.yul\":2812:2924   */\n      iszero\n      tag_263\n      jumpi\n        /* \"#utility.yul\":2843:2922   */\n      tag_264\n      tag_181\n      jump\t// in\n    tag_264:\n        /* \"#utility.yul\":2812:2924   */\n    tag_263:\n        /* \"#utility.yul\":2933:2987   */\n      tag_265\n        /* \"#utility.yul\":2980:2986   */\n      dup5\n        /* \"#utility.yul\":2975:2978   */\n      dup3\n        /* \"#utility.yul\":2970:2973   */\n      dup6\n        /* \"#utility.yul\":2933:2987   */\n      tag_183\n      jump\t// in\n    tag_265:\n        /* \"#utility.yul\":2652:2993   */\n      pop\n        /* \"#utility.yul\":2568:2993   */\n      swap4\n      swap3\n      pop\n      pop\n      pop\n      jump\t// out\n        /* \"#utility.yul\":3013:3353   */\n    tag_185:\n        /* \"#utility.yul\":3069:3074   */\n      0x00\n        /* \"#utility.yul\":3118:3121   */\n      dup3\n        /* \"#utility.yul\":3111:3115   */\n      0x1f\n        /* \"#utility.yul\":3103:3109   */\n      dup4\n        /* \"#utility.yul\":3099:3116   */\n      add\n        /* \"#utility.yul\":3095:3122   */\n      slt\n        /* \"#utility.yul\":3085:3207   */\n      tag_267\n      jumpi\n        /* \"#utility.yul\":3126:3205   */\n      tag_268\n      tag_175\n      jump\t// in\n    tag_268:\n        /* \"#utility.yul\":3085:3207   */\n    tag_267:\n        /* \"#utility.yul\":3243:3249   */\n      dup2\n        /* \"#utility.yul\":3230:3250   */\n      calldataload\n        /* \"#utility.yul\":3268:3347   */\n      tag_269\n        /* \"#utility.yul\":3343:3346   */\n      dup5\n        /* \"#utility.yul\":3335:3341   */\n      dup3\n        /* \"#utility.yul\":3328:3332   */\n      0x20\n        /* \"#utility.yul\":3320:3326   */\n      dup7\n        /* \"#utility.yul\":3316:3333   */\n      add\n        /* \"#utility.yul\":3268:3347   */\n      tag_184\n      jump\t// in\n    tag_269:\n        /* \"#utility.yul\":3259:3347   */\n      swap2\n      pop\n        /* \"#utility.yul\":3075:3353   */\n      pop\n        /* \"#utility.yul\":3013:3353   */\n      swap3\n      swap2\n      pop\n      pop\n      jump\t// out\n        /* \"#utility.yul\":3375:4320   */\n    tag_186:\n        /* \"#utility.yul\":3481:3486   */\n      0x00\n        /* \"#utility.yul\":3506:3597   */\n      tag_271\n        /* \"#utility.yul\":3522:3596   */\n      tag_272\n        /* \"#utility.yul\":3589:3595   */\n      dup5\n        /* \"#utility.yul\":3522:3596   */\n      tag_179\n      jump\t// in\n    tag_272:\n        /* \"#utility.yul\":3506:3597   */\n      tag_178\n      jump\t// in\n    tag_271:\n        /* \"#utility.yul\":3497:3597   */\n      swap1\n      pop\n        /* \"#utility.yul\":3617:3622   */\n      dup1\n        /* \"#utility.yul\":3646:3652   */\n      dup4\n        /* \"#utility.yul\":3639:3644   */\n      dup3\n        /* \"#utility.yul\":3632:3653   */\n      mstore\n        /* \"#utility.yul\":3680:3684   */\n      0x20\n        /* \"#utility.yul\":3673:3678   */\n      dup3\n        /* \"#utility.yul\":3669:3685   */\n      add\n        /* \"#utility.yul\":3662:3685   */\n      swap1\n      pop\n        /* \"#utility.yul\":3733:3737   */\n      0x20\n        /* \"#utility.yul\":3725:3731   */\n      dup5\n        /* \"#utility.yul\":3721:3738   */\n      mul\n        /* \"#utility.yul\":3713:3719   */\n      dup4\n        /* \"#utility.yul\":3709:3739   */\n      add\n        /* \"#utility.yul\":3762:3765   */\n      dup6\n        /* \"#utility.yul\":3754:3760   */\n      dup2\n        /* \"#utility.yul\":3751:3766   */\n      gt\n        /* \"#utility.yul\":3748:3870   */\n      iszero\n      tag_273\n      jumpi\n        /* \"#utility.yul\":3781:3860   */\n      tag_274\n      tag_180\n      jump\t// in\n    tag_274:\n        /* \"#utility.yul\":3748:3870   */\n    tag_273:\n        /* \"#utility.yul\":3896:3902   */\n      dup4\n        /* \"#utility.yul\":3879:4314   */\n    tag_275:\n        /* \"#utility.yul\":3913:3919   */\n      dup2\n        /* \"#utility.yul\":3908:3911   */\n      dup2\n        /* \"#utility.yul\":3905:3920   */\n      lt\n        /* \"#utility.yul\":3879:4314   */\n      iszero\n      tag_277\n      jumpi\n        /* \"#utility.yul\":4002:4005   */\n      dup1\n        /* \"#utility.yul\":3989:4006   */\n      calldataload\n        /* \"#utility.yul\":4038:4056   */\n      0xffffffffffffffff\n        /* \"#utility.yul\":4025:4036   */\n      dup2\n        /* \"#utility.yul\":4022:4057   */\n      gt\n        /* \"#utility.yul\":4019:4141   */\n      iszero\n      tag_278\n      jumpi\n        /* \"#utility.yul\":4060:4139   */\n      tag_279\n      tag_175\n      jump\t// in\n    tag_279:\n        /* \"#utility.yul\":4019:4141   */\n    tag_278:\n        /* \"#utility.yul\":4184:4195   */\n      dup1\n        /* \"#utility.yul\":4176:4182   */\n      dup7\n        /* \"#utility.yul\":4172:4196   */\n      add\n        /* \"#utility.yul\":4222:4269   */\n      tag_280\n        /* \"#utility.yul\":4265:4268   */\n      dup10\n        /* \"#utility.yul\":4253:4263   */\n      dup3\n        /* \"#utility.yul\":4222:4269   */\n      tag_185\n      jump\t// in\n    tag_280:\n        /* \"#utility.yul\":4217:4220   */\n      dup6\n        /* \"#utility.yul\":4210:4270   */\n      mstore\n        /* \"#utility.yul\":4299:4303   */\n      0x20\n        /* \"#utility.yul\":4294:4297   */\n      dup6\n        /* \"#utility.yul\":4290:4304   */\n      add\n        /* \"#utility.yul\":4283:4304   */\n      swap5\n      pop\n        /* \"#utility.yul\":3955:4314   */\n      pop\n      pop\n        /* \"#utility.yul\":3939:3943   */\n      0x20\n        /* \"#utility.yul\":3934:3937   */\n      dup2\n        /* \"#utility.yul\":3930:3944   */\n      add\n        /* \"#utility.yul\":3923:3944   */\n      swap1\n      pop\n        /* \"#utility.yul\":3879:4314   */\n      jump(tag_275)\n    tag_277:\n        /* \"#utility.yul\":3883:3904   */\n      pop\n        /* \"#utility.yul\":3487:4320   */\n      pop\n      pop\n        /* \"#utility.yul\":3375:4320   */\n      swap4\n      swap3\n      pop\n      pop\n      pop\n      jump\t// out\n        /* \"#utility.yul\":4342:4732   */\n    tag_187:\n        /* \"#utility.yul\":4423:4428   */\n      0x00\n        /* \"#utility.yul\":4472:4475   */\n      dup3\n        /* \"#utility.yul\":4465:4469   */\n      0x1f\n        /* \"#utility.yul\":4457:4463   */\n      dup4\n        /* \"#utility.yul\":4453:4470   */\n      add\n        /* \"#utility.yul\":4449:4476   */\n      slt\n        /* \"#utility.yul\":4439:4561   */\n      tag_282\n      jumpi\n        /* \"#utility.yul\":4480:4559   */\n      tag_283\n      tag_175\n      jump\t// in\n    tag_283:\n        /* \"#utility.yul\":4439:4561   */\n    tag_282:\n        /* \"#utility.yul\":4597:4603   */\n      dup2\n        /* \"#utility.yul\":4584:4604   */\n      calldataload\n        /* \"#utility.yul\":4622:4726   */\n      tag_284\n        /* \"#utility.yul\":4722:4725   */\n      dup5\n        /* \"#utility.yul\":4714:4720   */\n      dup3\n        /* \"#utility.yul\":4707:4711   */\n      0x20\n        /* \"#utility.yul\":4699:4705   */\n      dup7\n        /* \"#utility.yul\":4695:4712   */\n      add\n        /* \"#utility.yul\":4622:4726   */\n      tag_186\n      jump\t// in\n    tag_284:\n        /* \"#utility.yul\":4613:4726   */\n      swap2\n      pop\n        /* \"#utility.yul\":4429:4732   */\n      pop\n        /* \"#utility.yul\":4342:4732   */\n      swap3\n      swap2\n      pop\n      pop\n      jump\t// out\n        /* \"#utility.yul\":4738:5817   */\n    tag_11:\n        /* \"#utility.yul\":4885:4891   */\n      0x00\n        /* \"#utility.yul\":4893:4899   */\n      dup1\n        /* \"#utility.yul\":4901:4907   */\n      0x00\n        /* \"#utility.yul\":4950:4952   */\n      0x60\n        /* \"#utility.yul\":4938:4947   */\n      dup5\n        /* \"#utility.yul\":4929:4936   */\n      dup7\n        /* \"#utility.yul\":4925:4948   */\n      sub\n        /* \"#utility.yul\":4921:4953   */\n      slt\n        /* \"#utility.yul\":4918:5037   */\n      iszero\n      tag_286\n      jumpi\n        /* \"#utility.yul\":4956:5035   */\n      tag_287\n      tag_170\n      jump\t// in\n    tag_287:\n        /* \"#utility.yul\":4918:5037   */\n    tag_286:\n        /* \"#utility.yul\":5076:5077   */\n      0x00\n        /* \"#utility.yul\":5101:5154   */\n      tag_288\n        /* \"#utility.yul\":5146:5153   */\n      dup7\n        /* \"#utility.yul\":5137:5143   */\n      dup3\n        /* \"#utility.yul\":5126:5135   */\n      dup8\n        /* \"#utility.yul\":5122:5144   */\n      add\n        /* \"#utility.yul\":5101:5154   */\n      tag_174\n      jump\t// in\n    tag_288:\n        /* \"#utility.yul\":5091:5154   */\n      swap4\n      pop\n        /* \"#utility.yul\":5047:5164   */\n      pop\n        /* \"#utility.yul\":5231:5233   */\n      0x20\n        /* \"#utility.yul\":5220:5229   */\n      dup5\n        /* \"#utility.yul\":5216:5234   */\n      add\n        /* \"#utility.yul\":5203:5235   */\n      calldataload\n        /* \"#utility.yul\":5262:5280   */\n      0xffffffffffffffff\n        /* \"#utility.yul\":5254:5260   */\n      dup2\n        /* \"#utility.yul\":5251:5281   */\n      gt\n        /* \"#utility.yul\":5248:5365   */\n      iszero\n      tag_289\n      jumpi\n        /* \"#utility.yul\":5284:5363   */\n      tag_290\n      tag_171\n      jump\t// in\n    tag_290:\n        /* \"#utility.yul\":5248:5365   */\n    tag_289:\n        /* \"#utility.yul\":5389:5477   */\n      tag_291\n        /* \"#utility.yul\":5469:5476   */\n      dup7\n        /* \"#utility.yul\":5460:5466   */\n      dup3\n        /* \"#utility.yul\":5449:5458   */\n      dup8\n        /* \"#utility.yul\":5445:5467   */\n      add\n        /* \"#utility.yul\":5389:5477   */\n      tag_187\n      jump\t// in\n    tag_291:\n        /* \"#utility.yul\":5379:5477   */\n      swap3\n      pop\n        /* \"#utility.yul\":5174:5487   */\n      pop\n        /* \"#utility.yul\":5554:5556   */\n      0x40\n        /* \"#utility.yul\":5543:5552   */\n      dup5\n        /* \"#utility.yul\":5539:5557   */\n      add\n        /* \"#utility.yul\":5526:5558   */\n      calldataload\n        /* \"#utility.yul\":5585:5603   */\n      0xffffffffffffffff\n        /* \"#utility.yul\":5577:5583   */\n      dup2\n        /* \"#utility.yul\":5574:5604   */\n      gt\n        /* \"#utility.yul\":5571:5688   */\n      iszero\n      tag_292\n      jumpi\n        /* \"#utility.yul\":5607:5686   */\n      tag_293\n      tag_171\n      jump\t// in\n    tag_293:\n        /* \"#utility.yul\":5571:5688   */\n    tag_292:\n        /* \"#utility.yul\":5712:5800   */\n      tag_294\n        /* \"#utility.yul\":5792:5799   */\n      dup7\n        /* \"#utility.yul\":5783:5789   */\n      dup3\n        /* \"#utility.yul\":5772:5781   */\n      dup8\n        /* \"#utility.yul\":5768:5790   */\n      add\n        /* \"#utility.yul\":5712:5800   */\n      tag_187\n      jump\t// in\n    tag_294:\n        /* \"#utility.yul\":5702:5800   */\n      swap2\n      pop\n        /* \"#utility.yul\":5497:5810   */\n      pop\n        /* \"#utility.yul\":4738:5817   */\n      swap3\n      pop\n      swap3\n      pop\n      swap3\n      jump\t// out\n        /* \"#utility.yul\":5823:5941   */\n    tag_188:\n        /* \"#utility.yul\":5910:5934   */\n      tag_296\n        /* \"#utility.yul\":5928:5933   */\n      dup2\n        /* \"#utility.yul\":5910:5934   */\n      tag_172\n      jump\t// in\n    tag_296:\n        /* \"#utility.yul\":5905:5908   */\n      dup3\n        /* \"#utility.yul\":5898:5935   */\n      mstore\n        /* \"#utility.yul\":5823:5941   */\n      pop\n      pop\n      jump\t// out\n        /* \"#utility.yul\":5947:6169   */\n    tag_16:\n        /* \"#utility.yul\":6040:6044   */\n      0x00\n        /* \"#utility.yul\":6078:6080   */\n      0x20\n        /* \"#utility.yul\":6067:6076   */\n      dup3\n        /* \"#utility.yul\":6063:6081   */\n      add\n        /* \"#utility.yul\":6055:6081   */\n      swap1\n      pop\n        /* \"#utility.yul\":6091:6162   */\n      tag_298\n        /* \"#utility.yul\":6159:6160   */\n      0x00\n        /* \"#utility.yul\":6148:6157   */\n      dup4\n        /* \"#utility.yul\":6144:6161   */\n      add\n        /* \"#utility.yul\":6135:6141   */\n      dup5\n        /* \"#utility.yul\":6091:6162   */\n      tag_188\n      jump\t// in\n    tag_298:\n        /* \"#utility.yul\":5947:6169   */\n      swap3\n      swap2\n      pop\n      pop\n      jump\t// out\n        /* \"#utility.yul\":6175:6301   */\n    tag_189:\n        /* \"#utility.yul\":6212:6219   */\n      0x00\n        /* \"#utility.yul\":6252:6294   */\n      0xffffffffffffffffffffffffffffffffffffffff\n        /* \"#utility.yul\":6245:6250   */\n      dup3\n        /* \"#utility.yul\":6241:6295   */\n      and\n        /* \"#utility.yul\":6230:6295   */\n      swap1\n      pop\n        /* \"#utility.yul\":6175:6301   */\n      swap2\n      swap1\n      pop\n      jump\t// out\n        /* \"#utility.yul\":6307:6403   */\n    tag_190:\n        /* \"#utility.yul\":6344:6351   */\n      0x00\n        /* \"#utility.yul\":6373:6397   */\n      tag_301\n        /* \"#utility.yul\":6391:6396   */\n      dup3\n        /* \"#utility.yul\":6373:6397   */\n      tag_189\n      jump\t// in\n    tag_301:\n        /* \"#utility.yul\":6362:6397   */\n      swap1\n      pop\n        /* \"#utility.yul\":6307:6403   */\n      swap2\n      swap1\n      pop\n      jump\t// out\n        /* \"#utility.yul\":6409:6531   */\n    tag_191:\n        /* \"#utility.yul\":6482:6506   */\n      tag_303\n        /* \"#utility.yul\":6500:6505   */\n      dup2\n        /* \"#utility.yul\":6482:6506   */\n      tag_190\n      jump\t// in\n    tag_303:\n        /* \"#utility.yul\":6475:6480   */\n      dup2\n        /* \"#utility.yul\":6472:6507   */\n      eq\n        /* \"#utility.yul\":6462:6525   */\n      tag_304\n      jumpi\n        /* \"#utility.yul\":6521:6522   */\n      0x00\n        /* \"#utility.yul\":6518:6519   */\n      dup1\n        /* \"#utility.yul\":6511:6523   */\n      revert\n        /* \"#utility.yul\":6462:6525   */\n    tag_304:\n        /* \"#utility.yul\":6409:6531   */\n      pop\n      jump\t// out\n        /* \"#utility.yul\":6537:6676   */\n    tag_192:\n        /* \"#utility.yul\":6583:6588   */\n      0x00\n        /* \"#utility.yul\":6621:6627   */\n      dup2\n        /* \"#utility.yul\":6608:6628   */\n      calldataload\n        /* \"#utility.yul\":6599:6628   */\n      swap1\n      pop\n        /* \"#utility.yul\":6637:6670   */\n      tag_306\n        /* \"#utility.yul\":6664:6669   */\n      dup2\n        /* \"#utility.yul\":6637:6670   */\n      tag_191\n      jump\t// in\n    tag_306:\n        /* \"#utility.yul\":6537:6676   */\n      swap3\n      swap2\n      pop\n      pop\n      jump\t// out\n        /* \"#utility.yul\":6682:7156   */\n    tag_19:\n        /* \"#utility.yul\":6750:6756   */\n      0x00\n        /* \"#utility.yul\":6758:6764   */\n      dup1\n        /* \"#utility.yul\":6807:6809   */\n      0x40\n        /* \"#utility.yul\":6795:6804   */\n      dup4\n        /* \"#utility.yul\":6786:6793   */\n      dup6\n        /* \"#utility.yul\":6782:6805   */\n      sub\n        /* \"#utility.yul\":6778:6810   */\n      slt\n        /* \"#utility.yul\":6775:6894   */\n      iszero\n      tag_308\n      jumpi\n        /* \"#utility.yul\":6813:6892   */\n      tag_309\n      tag_170\n      jump\t// in\n    tag_309:\n        /* \"#utility.yul\":6775:6894   */\n    tag_308:\n        /* \"#utility.yul\":6933:6934   */\n      0x00\n        /* \"#utility.yul\":6958:7011   */\n      tag_310\n        /* \"#utility.yul\":7003:7010   */\n      dup6\n        /* \"#utility.yul\":6994:7000   */\n      dup3\n        /* \"#utility.yul\":6983:6992   */\n      dup7\n        /* \"#utility.yul\":6979:7001   */\n      add\n        /* \"#utility.yul\":6958:7011   */\n      tag_192\n      jump\t// in\n    tag_310:\n        /* \"#utility.yul\":6948:7011   */\n      swap3\n      pop\n        /* \"#utility.yul\":6904:7021   */\n      pop\n        /* \"#utility.yul\":7060:7062   */\n      0x20\n        /* \"#utility.yul\":7086:7139   */\n      tag_311\n        /* \"#utility.yul\":7131:7138   */\n      dup6\n        /* \"#utility.yul\":7122:7128   */\n      dup3\n        /* \"#utility.yul\":7111:7120   */\n      dup7\n        /* \"#utility.yul\":7107:7129   */\n      add\n        /* \"#utility.yul\":7086:7139   */\n      tag_174\n      jump\t// in\n    tag_311:\n        /* \"#utility.yul\":7076:7139   */\n      swap2\n      pop\n        /* \"#utility.yul\":7031:7149   */\n      pop\n        /* \"#utility.yul\":6682:7156   */\n      swap3\n      pop\n      swap3\n      swap1\n      pop\n      jump\t// out\n        /* \"#utility.yul\":7162:7491   */\n    tag_27:\n        /* \"#utility.yul\":7221:7227   */\n      0x00\n        /* \"#utility.yul\":7270:7272   */\n      0x20\n        /* \"#utility.yul\":7258:7267   */\n      dup3\n        /* \"#utility.yul\":7249:7256   */\n      dup5\n        /* \"#utility.yul\":7245:7268   */\n      sub\n        /* \"#utility.yul\":7241:7273   */\n      slt\n        /* \"#utility.yul\":7238:7357   */\n      iszero\n      tag_313\n      jumpi\n        /* \"#utility.yul\":7276:7355   */\n      tag_314\n      tag_170\n      jump\t// in\n    tag_314:\n        /* \"#utility.yul\":7238:7357   */\n    tag_313:\n        /* \"#utility.yul\":7396:7397   */\n      0x00\n        /* \"#utility.yul\":7421:7474   */\n      tag_315\n        /* \"#utility.yul\":7466:7473   */\n      dup5\n        /* \"#utility.yul\":7457:7463   */\n      dup3\n        /* \"#utility.yul\":7446:7455   */\n      dup6\n        /* \"#utility.yul\":7442:7464   */\n      add\n        /* \"#utility.yul\":7421:7474   */\n      tag_174\n      jump\t// in\n    tag_315:\n        /* \"#utility.yul\":7411:7474   */\n      swap2\n      pop\n        /* \"#utility.yul\":7367:7484   */\n      pop\n        /* \"#utility.yul\":7162:7491   */\n      swap3\n      swap2\n      pop\n      pop\n      jump\t// out\n        /* \"#utility.yul\":7497:7621   */\n    tag_193:\n        /* \"#utility.yul\":7574:7580   */\n      0x00\n        /* \"#utility.yul\":7608:7613   */\n      dup2\n        /* \"#utility.yul\":7602:7614   */\n      mload\n        /* \"#utility.yul\":7592:7614   */\n      swap1\n      pop\n        /* \"#utility.yul\":7497:7621   */\n      swap2\n      swap1\n      pop\n      jump\t// out\n        /* \"#utility.yul\":7627:7821   */\n    tag_194:\n        /* \"#utility.yul\":7736:7747   */\n      0x00\n        /* \"#utility.yul\":7770:7776   */\n      dup3\n        /* \"#utility.yul\":7765:7768   */\n      dup3\n        /* \"#utility.yul\":7758:7777   */\n      mstore\n        /* \"#utility.yul\":7810:7814   */\n      0x20\n        /* \"#utility.yul\":7805:7808   */\n      dup3\n        /* \"#utility.yul\":7801:7815   */\n      add\n        /* \"#utility.yul\":7786:7815   */\n      swap1\n      pop\n        /* \"#utility.yul\":7627:7821   */\n      swap3\n      swap2\n      pop\n      pop\n      jump\t// out\n        /* \"#utility.yul\":7827:7969   */\n    tag_195:\n        /* \"#utility.yul\":7904:7908   */\n      0x00\n        /* \"#utility.yul\":7927:7930   */\n      dup2\n        /* \"#utility.yul\":7919:7930   */\n      swap1\n      pop\n        /* \"#utility.yul\":7957:7961   */\n      0x20\n        /* \"#utility.yul\":7952:7955   */\n      dup3\n        /* \"#utility.yul\":7948:7962   */\n      add\n        /* \"#utility.yul\":7940:7962   */\n      swap1\n      pop\n        /* \"#utility.yul\":7827:7969   */\n      swap2\n      swap1\n      pop\n      jump\t// out\n        /* \"#utility.yul\":7975:8074   */\n    tag_196:\n        /* \"#utility.yul\":8027:8033   */\n      0x00\n        /* \"#utility.yul\":8061:8066   */\n      dup2\n        /* \"#utility.yul\":8055:8067   */\n      mload\n        /* \"#utility.yul\":8045:8067   */\n      swap1\n      pop\n        /* \"#utility.yul\":7975:8074   */\n      swap2\n      swap1\n      pop\n      jump\t// out\n        /* \"#utility.yul\":8080:8239   */\n    tag_197:\n        /* \"#utility.yul\":8154:8165   */\n      0x00\n        /* \"#utility.yul\":8188:8194   */\n      dup3\n        /* \"#utility.yul\":8183:8186   */\n      dup3\n        /* \"#utility.yul\":8176:8195   */\n      mstore\n        /* \"#utility.yul\":8228:8232   */\n      0x20\n        /* \"#utility.yul\":8223:8226   */\n      dup3\n        /* \"#utility.yul\":8219:8233   */\n      add\n        /* \"#utility.yul\":8204:8233   */\n      swap1\n      pop\n        /* \"#utility.yul\":8080:8239   */\n      swap3\n      swap2\n      pop\n      pop\n      jump\t// out\n        /* \"#utility.yul\":8245:8491   */\n    tag_198:\n        /* \"#utility.yul\":8326:8327   */\n      0x00\n        /* \"#utility.yul\":8336:8449   */\n    tag_322:\n        /* \"#utility.yul\":8350:8356   */\n      dup4\n        /* \"#utility.yul\":8347:8348   */\n      dup2\n        /* \"#utility.yul\":8344:8357   */\n      lt\n        /* \"#utility.yul\":8336:8449   */\n      iszero\n      tag_324\n      jumpi\n        /* \"#utility.yul\":8435:8436   */\n      dup1\n        /* \"#utility.yul\":8430:8433   */\n      dup3\n        /* \"#utility.yul\":8426:8437   */\n      add\n        /* \"#utility.yul\":8420:8438   */\n      mload\n        /* \"#utility.yul\":8416:8417   */\n      dup2\n        /* \"#utility.yul\":8411:8414   */\n      dup5\n        /* \"#utility.yul\":8407:8418   */\n      add\n        /* \"#utility.yul\":8400:8439   */\n      mstore\n        /* \"#utility.yul\":8372:8374   */\n      0x20\n        /* \"#utility.yul\":8369:8370   */\n      dup2\n        /* \"#utility.yul\":8365:8375   */\n      add\n        /* \"#utility.yul\":8360:8375   */\n      swap1\n      pop\n        /* \"#utility.yul\":8336:8449   */\n      jump(tag_322)\n    tag_324:\n        /* \"#utility.yul\":8483:8484   */\n      0x00\n        /* \"#utility.yul\":8474:8480   */\n      dup5\n        /* \"#utility.yul\":8469:8472   */\n      dup5\n        /* \"#utility.yul\":8465:8481   */\n      add\n        /* \"#utility.yul\":8458:8485   */\n      mstore\n        /* \"#utility.yul\":8307:8491   */\n      pop\n        /* \"#utility.yul\":8245:8491   */\n      pop\n      pop\n      pop\n      jump\t// out\n        /* \"#utility.yul\":8497:8854   */\n    tag_199:\n        /* \"#utility.yul\":8575:8578   */\n      0x00\n        /* \"#utility.yul\":8603:8642   */\n      tag_326\n        /* \"#utility.yul\":8636:8641   */\n      dup3\n        /* \"#utility.yul\":8603:8642   */\n      tag_196\n      jump\t// in\n    tag_326:\n        /* \"#utility.yul\":8658:8719   */\n      tag_327\n        /* \"#utility.yul\":8712:8718   */\n      dup2\n        /* \"#utility.yul\":8707:8710   */\n      dup6\n        /* \"#utility.yul\":8658:8719   */\n      tag_197\n      jump\t// in\n    tag_327:\n        /* \"#utility.yul\":8651:8719   */\n      swap4\n      pop\n        /* \"#utility.yul\":8728:8793   */\n      tag_328\n        /* \"#utility.yul\":8786:8792   */\n      dup2\n        /* \"#utility.yul\":8781:8784   */\n      dup6\n        /* \"#utility.yul\":8774:8778   */\n      0x20\n        /* \"#utility.yul\":8767:8772   */\n      dup7\n        /* \"#utility.yul\":8763:8779   */\n      add\n        /* \"#utility.yul\":8728:8793   */\n      tag_198\n      jump\t// in\n    tag_328:\n        /* \"#utility.yul\":8818:8847   */\n      tag_329\n        /* \"#utility.yul\":8840:8846   */\n      dup2\n        /* \"#utility.yul\":8818:8847   */\n      tag_176\n      jump\t// in\n    tag_329:\n        /* \"#utility.yul\":8813:8816   */\n      dup5\n        /* \"#utility.yul\":8809:8848   */\n      add\n        /* \"#utility.yul\":8802:8848   */\n      swap2\n      pop\n        /* \"#utility.yul\":8579:8854   */\n      pop\n        /* \"#utility.yul\":8497:8854   */\n      swap3\n      swap2\n      pop\n      pop\n      jump\t// out\n        /* \"#utility.yul\":8860:9056   */\n    tag_200:\n        /* \"#utility.yul\":8949:8959   */\n      0x00\n        /* \"#utility.yul\":8984:9050   */\n      tag_331\n        /* \"#utility.yul\":9046:9049   */\n      dup4\n        /* \"#utility.yul\":9038:9044   */\n      dup4\n        /* \"#utility.yul\":8984:9050   */\n      tag_199\n      jump\t// in\n    tag_331:\n        /* \"#utility.yul\":8970:9050   */\n      swap1\n      pop\n        /* \"#utility.yul\":8860:9056   */\n      swap3\n      swap2\n      pop\n      pop\n      jump\t// out\n        /* \"#utility.yul\":9062:9185   */\n    tag_201:\n        /* \"#utility.yul\":9142:9146   */\n      0x00\n        /* \"#utility.yul\":9174:9178   */\n      0x20\n        /* \"#utility.yul\":9169:9172   */\n      dup3\n        /* \"#utility.yul\":9165:9179   */\n      add\n        /* \"#utility.yul\":9157:9179   */\n      swap1\n      pop\n        /* \"#utility.yul\":9062:9185   */\n      swap2\n      swap1\n      pop\n      jump\t// out\n        /* \"#utility.yul\":9219:10210   */\n    tag_202:\n        /* \"#utility.yul\":9358:9361   */\n      0x00\n        /* \"#utility.yul\":9387:9451   */\n      tag_334\n        /* \"#utility.yul\":9445:9450   */\n      dup3\n        /* \"#utility.yul\":9387:9451   */\n      tag_193\n      jump\t// in\n    tag_334:\n        /* \"#utility.yul\":9467:9563   */\n      tag_335\n        /* \"#utility.yul\":9556:9562   */\n      dup2\n        /* \"#utility.yul\":9551:9554   */\n      dup6\n        /* \"#utility.yul\":9467:9563   */\n      tag_194\n      jump\t// in\n    tag_335:\n        /* \"#utility.yul\":9460:9563   */\n      swap4\n      pop\n        /* \"#utility.yul\":9589:9592   */\n      dup4\n        /* \"#utility.yul\":9634:9638   */\n      0x20\n        /* \"#utility.yul\":9626:9632   */\n      dup3\n        /* \"#utility.yul\":9622:9639   */\n      mul\n        /* \"#utility.yul\":9617:9620   */\n      dup6\n        /* \"#utility.yul\":9613:9640   */\n      add\n        /* \"#utility.yul\":9664:9730   */\n      tag_336\n        /* \"#utility.yul\":9724:9729   */\n      dup6\n        /* \"#utility.yul\":9664:9730   */\n      tag_195\n      jump\t// in\n    tag_336:\n        /* \"#utility.yul\":9753:9760   */\n      dup1\n        /* \"#utility.yul\":9784:9785   */\n      0x00\n        /* \"#utility.yul\":9769:10165   */\n    tag_337:\n        /* \"#utility.yul\":9794:9800   */\n      dup6\n        /* \"#utility.yul\":9791:9792   */\n      dup2\n        /* \"#utility.yul\":9788:9801   */\n      lt\n        /* \"#utility.yul\":9769:10165   */\n      iszero\n      tag_339\n      jumpi\n        /* \"#utility.yul\":9865:9874   */\n      dup5\n        /* \"#utility.yul\":9859:9863   */\n      dup5\n        /* \"#utility.yul\":9855:9875   */\n      sub\n        /* \"#utility.yul\":9850:9853   */\n      dup10\n        /* \"#utility.yul\":9843:9876   */\n      mstore\n        /* \"#utility.yul\":9916:9922   */\n      dup2\n        /* \"#utility.yul\":9910:9923   */\n      mload\n        /* \"#utility.yul\":9944:10028   */\n      tag_340\n        /* \"#utility.yul\":10023:10027   */\n      dup6\n        /* \"#utility.yul\":10008:10021   */\n      dup3\n        /* \"#utility.yul\":9944:10028   */\n      tag_200\n      jump\t// in\n    tag_340:\n        /* \"#utility.yul\":9936:10028   */\n      swap5\n      pop\n        /* \"#utility.yul\":10051:10121   */\n      tag_341\n        /* \"#utility.yul\":10114:10120   */\n      dup4\n        /* \"#utility.yul\":10051:10121   */\n      tag_201\n      jump\t// in\n    tag_341:\n        /* \"#utility.yul\":10041:10121   */\n      swap3\n      pop\n        /* \"#utility.yul\":10150:10154   */\n      0x20\n        /* \"#utility.yul\":10145:10148   */\n      dup11\n        /* \"#utility.yul\":10141:10155   */\n      add\n        /* \"#utility.yul\":10134:10155   */\n      swap10\n      pop\n        /* \"#utility.yul\":9829:10165   */\n      pop\n        /* \"#utility.yul\":9816:9817   */\n      0x01\n        /* \"#utility.yul\":9813:9814   */\n      dup2\n        /* \"#utility.yul\":9809:9818   */\n      add\n        /* \"#utility.yul\":9804:9818   */\n      swap1\n      pop\n        /* \"#utility.yul\":9769:10165   */\n      jump(tag_337)\n    tag_339:\n        /* \"#utility.yul\":9773:9787   */\n      pop\n        /* \"#utility.yul\":10181:10185   */\n      dup3\n        /* \"#utility.yul\":10174:10185   */\n      swap8\n      pop\n        /* \"#utility.yul\":10201:10204   */\n      dup8\n        /* \"#utility.yul\":10194:10204   */\n      swap6\n      pop\n        /* \"#utility.yul\":9363:10210   */\n      pop\n      pop\n      pop\n      pop\n      pop\n        /* \"#utility.yul\":9219:10210   */\n      swap3\n      swap2\n      pop\n      pop\n      jump\t// out\n        /* \"#utility.yul\":10216:10930   */\n    tag_30:\n        /* \"#utility.yul\":10477:10481   */\n      0x00\n        /* \"#utility.yul\":10515:10517   */\n      0x40\n        /* \"#utility.yul\":10504:10513   */\n      dup3\n        /* \"#utility.yul\":10500:10518   */\n      add\n        /* \"#utility.yul\":10492:10518   */\n      swap1\n      pop\n        /* \"#utility.yul\":10564:10573   */\n      dup2\n        /* \"#utility.yul\":10558:10562   */\n      dup2\n        /* \"#utility.yul\":10554:10574   */\n      sub\n        /* \"#utility.yul\":10550:10551   */\n      0x00\n        /* \"#utility.yul\":10539:10548   */\n      dup4\n        /* \"#utility.yul\":10535:10552   */\n      add\n        /* \"#utility.yul\":10528:10575   */\n      mstore\n        /* \"#utility.yul\":10592:10720   */\n      tag_343\n        /* \"#utility.yul\":10715:10719   */\n      dup2\n        /* \"#utility.yul\":10706:10712   */\n      dup6\n        /* \"#utility.yul\":10592:10720   */\n      tag_202\n      jump\t// in\n    tag_343:\n        /* \"#utility.yul\":10584:10720   */\n      swap1\n      pop\n        /* \"#utility.yul\":10767:10776   */\n      dup2\n        /* \"#utility.yul\":10761:10765   */\n      dup2\n        /* \"#utility.yul\":10757:10777   */\n      sub\n        /* \"#utility.yul\":10752:10754   */\n      0x20\n        /* \"#utility.yul\":10741:10750   */\n      dup4\n        /* \"#utility.yul\":10737:10755   */\n      add\n        /* \"#utility.yul\":10730:10778   */\n      mstore\n        /* \"#utility.yul\":10795:10923   */\n      tag_344\n        /* \"#utility.yul\":10918:10922   */\n      dup2\n        /* \"#utility.yul\":10909:10915   */\n      dup5\n        /* \"#utility.yul\":10795:10923   */\n      tag_202\n      jump\t// in\n    tag_344:\n        /* \"#utility.yul\":10787:10923   */\n      swap1\n      pop\n        /* \"#utility.yul\":10216:10930   */\n      swap4\n      swap3\n      pop\n      pop\n      pop\n      jump\t// out\n        /* \"#utility.yul\":10936:11105   */\n    tag_203:\n        /* \"#utility.yul\":11020:11031   */\n      0x00\n        /* \"#utility.yul\":11054:11060   */\n      dup3\n        /* \"#utility.yul\":11049:11052   */\n      dup3\n        /* \"#utility.yul\":11042:11061   */\n      mstore\n        /* \"#utility.yul\":11094:11098   */\n      0x20\n        /* \"#utility.yul\":11089:11092   */\n      dup3\n        /* \"#utility.yul\":11085:11099   */\n      add\n        /* \"#utility.yul\":11070:11099   */\n      swap1\n      pop\n        /* \"#utility.yul\":10936:11105   */\n      swap3\n      swap2\n      pop\n      pop\n      jump\t// out\n        /* \"#utility.yul\":11111:11285   */\n    tag_204:\n        /* \"#utility.yul\":11251:11277   */\n      0x5b4552524f525d204944206e6f7420617661696c61626c650000000000000000\n        /* \"#utility.yul\":11247:11248   */\n      0x00\n        /* \"#utility.yul\":11239:11245   */\n      dup3\n        /* \"#utility.yul\":11235:11249   */\n      add\n        /* \"#utility.yul\":11228:11278   */\n      mstore\n        /* \"#utility.yul\":11111:11285   */\n      pop\n      jump\t// out\n        /* \"#utility.yul\":11291:11657   */\n    tag_205:\n        /* \"#utility.yul\":11433:11436   */\n      0x00\n        /* \"#utility.yul\":11454:11521   */\n      tag_348\n        /* \"#utility.yul\":11518:11520   */\n      0x18\n        /* \"#utility.yul\":11513:11516   */\n      dup4\n        /* \"#utility.yul\":11454:11521   */\n      tag_203\n      jump\t// in\n    tag_348:\n        /* \"#utility.yul\":11447:11521   */\n      swap2\n      pop\n        /* \"#utility.yul\":11530:11623   */\n      tag_349\n        /* \"#utility.yul\":11619:11622   */\n      dup3\n        /* \"#utility.yul\":11530:11623   */\n      tag_204\n      jump\t// in\n    tag_349:\n        /* \"#utility.yul\":11648:11650   */\n      0x20\n        /* \"#utility.yul\":11643:11646   */\n      dup3\n        /* \"#utility.yul\":11639:11651   */\n      add\n        /* \"#utility.yul\":11632:11651   */\n      swap1\n      pop\n        /* \"#utility.yul\":11291:11657   */\n      swap2\n      swap1\n      pop\n      jump\t// out\n        /* \"#utility.yul\":11663:12082   */\n    tag_37:\n        /* \"#utility.yul\":11829:11833   */\n      0x00\n        /* \"#utility.yul\":11867:11869   */\n      0x20\n        /* \"#utility.yul\":11856:11865   */\n      dup3\n        /* \"#utility.yul\":11852:11870   */\n      add\n        /* \"#utility.yul\":11844:11870   */\n      swap1\n      pop\n        /* \"#utility.yul\":11916:11925   */\n      dup2\n        /* \"#utility.yul\":11910:11914   */\n      dup2\n        /* \"#utility.yul\":11906:11926   */\n      sub\n        /* \"#utility.yul\":11902:11903   */\n      0x00\n        /* \"#utility.yul\":11891:11900   */\n      dup4\n        /* \"#utility.yul\":11887:11904   */\n      add\n        /* \"#utility.yul\":11880:11927   */\n      mstore\n        /* \"#utility.yul\":11944:12075   */\n      tag_351\n        /* \"#utility.yul\":12070:12074   */\n      dup2\n        /* \"#utility.yul\":11944:12075   */\n      tag_205\n      jump\t// in\n    tag_351:\n        /* \"#utility.yul\":11936:12075   */\n      swap1\n      pop\n        /* \"#utility.yul\":11663:12082   */\n      swap2\n      swap1\n      pop\n      jump\t// out\n        /* \"#utility.yul\":12088:12331   */\n    tag_206:\n        /* \"#utility.yul\":12228:12262   */\n      0x5b4552524f525d20546865206c656e677468206f6620746865206b6579732061\n        /* \"#utility.yul\":12224:12225   */\n      0x00\n        /* \"#utility.yul\":12216:12222   */\n      dup3\n        /* \"#utility.yul\":12212:12226   */\n      add\n        /* \"#utility.yul\":12205:12263   */\n      mstore\n        /* \"#utility.yul\":12297:12323   */\n      0x6e642076616c75657320617265206e6f746520657175616c0000000000000000\n        /* \"#utility.yul\":12292:12294   */\n      0x20\n        /* \"#utility.yul\":12284:12290   */\n      dup3\n        /* \"#utility.yul\":12280:12295   */\n      add\n        /* \"#utility.yul\":12273:12324   */\n      mstore\n        /* \"#utility.yul\":12088:12331   */\n      pop\n      jump\t// out\n        /* \"#utility.yul\":12337:12703   */\n    tag_207:\n        /* \"#utility.yul\":12479:12482   */\n      0x00\n        /* \"#utility.yul\":12500:12567   */\n      tag_354\n        /* \"#utility.yul\":12564:12566   */\n      0x38\n        /* \"#utility.yul\":12559:12562   */\n      dup4\n        /* \"#utility.yul\":12500:12567   */\n      tag_203\n      jump\t// in\n    tag_354:\n        /* \"#utility.yul\":12493:12567   */\n      swap2\n      pop\n        /* \"#utility.yul\":12576:12669   */\n      tag_355\n        /* \"#utility.yul\":12665:12668   */\n      dup3\n        /* \"#utility.yul\":12576:12669   */\n      tag_206\n      jump\t// in\n    tag_355:\n        /* \"#utility.yul\":12694:12696   */\n      0x40\n        /* \"#utility.yul\":12689:12692   */\n      dup3\n        /* \"#utility.yul\":12685:12697   */\n      add\n        /* \"#utility.yul\":12678:12697   */\n      swap1\n      pop\n        /* \"#utility.yul\":12337:12703   */\n      swap2\n      swap1\n      pop\n      jump\t// out\n        /* \"#utility.yul\":12709:13128   */\n    tag_41:\n        /* \"#utility.yul\":12875:12879   */\n      0x00\n        /* \"#utility.yul\":12913:12915   */\n      0x20\n        /* \"#utility.yul\":12902:12911   */\n      dup3\n        /* \"#utility.yul\":12898:12916   */\n      add\n        /* \"#utility.yul\":12890:12916   */\n      swap1\n      pop\n        /* \"#utility.yul\":12962:12971   */\n      dup2\n        /* \"#utility.yul\":12956:12960   */\n      dup2\n        /* \"#utility.yul\":12952:12972   */\n      sub\n        /* \"#utility.yul\":12948:12949   */\n      0x00\n        /* \"#utility.yul\":12937:12946   */\n      dup4\n        /* \"#utility.yul\":12933:12950   */\n      add\n        /* \"#utility.yul\":12926:12973   */\n      mstore\n        /* \"#utility.yul\":12990:13121   */\n      tag_357\n        /* \"#utility.yul\":13116:13120   */\n      dup2\n        /* \"#utility.yul\":12990:13121   */\n      tag_207\n      jump\t// in\n    tag_357:\n        /* \"#utility.yul\":12982:13121   */\n      swap1\n      pop\n        /* \"#utility.yul\":12709:13128   */\n      swap2\n      swap1\n      pop\n      jump\t// out\n        /* \"#utility.yul\":13134:13314   */\n    tag_47:\n        /* \"#utility.yul\":13182:13259   */\n      0x4e487b7100000000000000000000000000000000000000000000000000000000\n        /* \"#utility.yul\":13179:13180   */\n      0x00\n        /* \"#utility.yul\":13172:13260   */\n      mstore\n        /* \"#utility.yul\":13279:13283   */\n      0x32\n        /* \"#utility.yul\":13276:13277   */\n      0x04\n        /* \"#utility.yul\":13269:13284   */\n      mstore\n        /* \"#utility.yul\":13303:13307   */\n      0x24\n        /* \"#utility.yul\":13300:13301   */\n      0x00\n        /* \"#utility.yul\":13293:13308   */\n      revert\n        /* \"#utility.yul\":13320:13468   */\n    tag_208:\n        /* \"#utility.yul\":13422:13433   */\n      0x00\n        /* \"#utility.yul\":13459:13462   */\n      dup2\n        /* \"#utility.yul\":13444:13462   */\n      swap1\n      pop\n        /* \"#utility.yul\":13320:13468   */\n      swap3\n      swap2\n      pop\n      pop\n      jump\t// out\n        /* \"#utility.yul\":13474:13864   */\n    tag_209:\n        /* \"#utility.yul\":13580:13583   */\n      0x00\n        /* \"#utility.yul\":13608:13647   */\n      tag_361\n        /* \"#utility.yul\":13641:13646   */\n      dup3\n        /* \"#utility.yul\":13608:13647   */\n      tag_196\n      jump\t// in\n    tag_361:\n        /* \"#utility.yul\":13663:13752   */\n      tag_362\n        /* \"#utility.yul\":13745:13751   */\n      dup2\n        /* \"#utility.yul\":13740:13743   */\n      dup6\n        /* \"#utility.yul\":13663:13752   */\n      tag_208\n      jump\t// in\n    tag_362:\n        /* \"#utility.yul\":13656:13752   */\n      swap4\n      pop\n        /* \"#utility.yul\":13761:13826   */\n      tag_363\n        /* \"#utility.yul\":13819:13825   */\n      dup2\n        /* \"#utility.yul\":13814:13817   */\n      dup6\n        /* \"#utility.yul\":13807:13811   */\n      0x20\n        /* \"#utility.yul\":13800:13805   */\n      dup7\n        /* \"#utility.yul\":13796:13812   */\n      add\n        /* \"#utility.yul\":13761:13826   */\n      tag_198\n      jump\t// in\n    tag_363:\n        /* \"#utility.yul\":13851:13857   */\n      dup1\n        /* \"#utility.yul\":13846:13849   */\n      dup5\n        /* \"#utility.yul\":13842:13858   */\n      add\n        /* \"#utility.yul\":13835:13858   */\n      swap2\n      pop\n        /* \"#utility.yul\":13584:13864   */\n      pop\n        /* \"#utility.yul\":13474:13864   */\n      swap3\n      swap2\n      pop\n      pop\n      jump\t// out\n        /* \"#utility.yul\":13870:14145   */\n    tag_51:\n        /* \"#utility.yul\":14002:14005   */\n      0x00\n        /* \"#utility.yul\":14024:14119   */\n      tag_365\n        /* \"#utility.yul\":14115:14118   */\n      dup3\n        /* \"#utility.yul\":14106:14112   */\n      dup5\n        /* \"#utility.yul\":14024:14119   */\n      tag_209\n      jump\t// in\n    tag_365:\n        /* \"#utility.yul\":14017:14119   */\n      swap2\n      pop\n        /* \"#utility.yul\":14136:14139   */\n      dup2\n        /* \"#utility.yul\":14129:14139   */\n      swap1\n      pop\n        /* \"#utility.yul\":13870:14145   */\n      swap3\n      swap2\n      pop\n      pop\n      jump\t// out\n        /* \"#utility.yul\":14151:14331   */\n    tag_210:\n        /* \"#utility.yul\":14199:14276   */\n      0x4e487b7100000000000000000000000000000000000000000000000000000000\n        /* \"#utility.yul\":14196:14197   */\n      0x00\n        /* \"#utility.yul\":14189:14277   */\n      mstore\n        /* \"#utility.yul\":14296:14300   */\n      0x22\n        /* \"#utility.yul\":14293:14294   */\n      0x04\n        /* \"#utility.yul\":14286:14301   */\n      mstore\n        /* \"#utility.yul\":14320:14324   */\n      0x24\n        /* \"#utility.yul\":14317:14318   */\n      0x00\n        /* \"#utility.yul\":14310:14325   */\n      revert\n        /* \"#utility.yul\":14337:14657   */\n    tag_98:\n        /* \"#utility.yul\":14381:14387   */\n      0x00\n        /* \"#utility.yul\":14418:14419   */\n      0x02\n        /* \"#utility.yul\":14412:14416   */\n      dup3\n        /* \"#utility.yul\":14408:14420   */\n      div\n        /* \"#utility.yul\":14398:14420   */\n      swap1\n      pop\n        /* \"#utility.yul\":14465:14466   */\n      0x01\n        /* \"#utility.yul\":14459:14463   */\n      dup3\n        /* \"#utility.yul\":14455:14467   */\n      and\n        /* \"#utility.yul\":14486:14504   */\n      dup1\n        /* \"#utility.yul\":14476:14557   */\n      tag_368\n      jumpi\n        /* \"#utility.yul\":14542:14546   */\n      0x7f\n        /* \"#utility.yul\":14534:14540   */\n      dup3\n        /* \"#utility.yul\":14530:14547   */\n      and\n        /* \"#utility.yul\":14520:14547   */\n      swap2\n      pop\n        /* \"#utility.yul\":14476:14557   */\n    tag_368:\n        /* \"#utility.yul\":14604:14606   */\n      0x20\n        /* \"#utility.yul\":14596:14602   */\n      dup3\n        /* \"#utility.yul\":14593:14607   */\n      lt\n        /* \"#utility.yul\":14573:14591   */\n      dup2\n        /* \"#utility.yul\":14570:14608   */\n      sub\n        /* \"#utility.yul\":14567:14651   */\n      tag_369\n      jumpi\n        /* \"#utility.yul\":14623:14641   */\n      tag_370\n      tag_210\n      jump\t// in\n    tag_370:\n        /* \"#utility.yul\":14567:14651   */\n    tag_369:\n        /* \"#utility.yul\":14388:14657   */\n      pop\n        /* \"#utility.yul\":14337:14657   */\n      swap2\n      swap1\n      pop\n      jump\t// out\n        /* \"#utility.yul\":14663:14804   */\n    tag_211:\n        /* \"#utility.yul\":14712:14716   */\n      0x00\n        /* \"#utility.yul\":14735:14738   */\n      dup2\n        /* \"#utility.yul\":14727:14738   */\n      swap1\n      pop\n        /* \"#utility.yul\":14758:14761   */\n      dup2\n        /* \"#utility.yul\":14755:14756   */\n      0x00\n        /* \"#utility.yul\":14748:14762   */\n      mstore\n        /* \"#utility.yul\":14792:14796   */\n      0x20\n        /* \"#utility.yul\":14789:14790   */\n      0x00\n        /* \"#utility.yul\":14779:14797   */\n      keccak256\n        /* \"#utility.yul\":14771:14797   */\n      swap1\n      pop\n        /* \"#utility.yul\":14663:14804   */\n      swap2\n      swap1\n      pop\n      jump\t// out\n        /* \"#utility.yul\":14810:14903   */\n    tag_212:\n        /* \"#utility.yul\":14847:14853   */\n      0x00\n        /* \"#utility.yul\":14894:14896   */\n      0x20\n        /* \"#utility.yul\":14889:14891   */\n      0x1f\n        /* \"#utility.yul\":14882:14887   */\n      dup4\n        /* \"#utility.yul\":14878:14892   */\n      add\n        /* \"#utility.yul\":14874:14897   */\n      div\n        /* \"#utility.yul\":14864:14897   */\n      swap1\n      pop\n        /* \"#utility.yul\":14810:14903   */\n      swap2\n      swap1\n      pop\n      jump\t// out\n        /* \"#utility.yul\":14909:15016   */\n    tag_213:\n        /* \"#utility.yul\":14953:14961   */\n      0x00\n        /* \"#utility.yul\":15003:15008   */\n      dup3\n        /* \"#utility.yul\":14997:15001   */\n      dup3\n        /* \"#utility.yul\":14993:15009   */\n      shl\n        /* \"#utility.yul\":14972:15009   */\n      swap1\n      pop\n        /* \"#utility.yul\":14909:15016   */\n      swap3\n      swap2\n      pop\n      pop\n      jump\t// out\n        /* \"#utility.yul\":15022:15415   */\n    tag_214:\n        /* \"#utility.yul\":15091:15097   */\n      0x00\n        /* \"#utility.yul\":15141:15142   */\n      0x08\n        /* \"#utility.yul\":15129:15139   */\n      dup4\n        /* \"#utility.yul\":15125:15143   */\n      mul\n        /* \"#utility.yul\":15164:15261   */\n      tag_375\n        /* \"#utility.yul\":15194:15260   */\n      0xffffffffffffffffffffffffffffffffffffffffffffffffffffffffffffffff\n        /* \"#utility.yul\":15183:15192   */\n      dup3\n        /* \"#utility.yul\":15164:15261   */\n      tag_213\n      jump\t// in\n    tag_375:\n        /* \"#utility.yul\":15282:15321   */\n      tag_376\n        /* \"#utility.yul\":15312:15320   */\n      dup7\n        /* \"#utility.yul\":15301:15310   */\n      dup4\n        /* \"#utility.yul\":15282:15321   */\n      tag_213\n      jump\t// in\n    tag_376:\n        /* \"#utility.yul\":15270:15321   */\n      swap6\n      pop\n        /* \"#utility.yul\":15354:15358   */\n      dup1\n        /* \"#utility.yul\":15350:15359   */\n      not\n        /* \"#utility.yul\":15343:15348   */\n      dup5\n        /* \"#utility.yul\":15339:15360   */\n      and\n        /* \"#utility.yul\":15330:15360   */\n      swap4\n      pop\n        /* \"#utility.yul\":15403:15407   */\n      dup1\n        /* \"#utility.yul\":15393:15401   */\n      dup7\n        /* \"#utility.yul\":15389:15408   */\n      and\n        /* \"#utility.yul\":15382:15387   */\n      dup5\n        /* \"#utility.yul\":15379:15409   */\n      or\n        /* \"#utility.yul\":15369:15409   */\n      swap3\n      pop\n        /* \"#utility.yul\":15098:15415   */\n      pop\n      pop\n        /* \"#utility.yul\":15022:15415   */\n      swap4\n      swap3\n      pop\n      pop\n      pop\n      jump\t// out\n        /* \"#utility.yul\":15421:15481   */\n    tag_215:\n        /* \"#utility.yul\":15449:15452   */\n      0x00\n        /* \"#utility.yul\":15470:15475   */\n      dup2\n        /* \"#utility.yul\":15463:15475   */\n      swap1\n      pop\n        /* \"#utility.yul\":15421:15481   */\n      swap2\n      swap1\n      pop\n      jump\t// out\n        /* \"#utility.yul\":15487:15629   */\n    tag_216:\n        /* \"#utility.yul\":15537:15546   */\n      0x00\n        /* \"#utility.yul\":15570:15623   */\n      tag_379\n        /* \"#utility.yul\":15588:15622   */\n      tag_380\n        /* \"#utility.yul\":15597:15621   */\n      tag_381\n        /* \"#utility.yul\":15615:15620   */\n      dup5\n        /* \"#utility.yul\":15597:15621   */\n      tag_172\n      jump\t// in\n    tag_381:\n        /* \"#utility.yul\":15588:15622   */\n      tag_215\n      jump\t// in\n    tag_380:\n        /* \"#utility.yul\":15570:15623   */\n      tag_172\n      jump\t// in\n    tag_379:\n        /* \"#utility.yul\":15557:15623   */\n      swap1\n      pop\n        /* \"#utility.yul\":15487:15629   */\n      swap2\n      swap1\n      pop\n      jump\t// out\n        /* \"#utility.yul\":15635:15710   */\n    tag_217:\n        /* \"#utility.yul\":15678:15681   */\n      0x00\n        /* \"#utility.yul\":15699:15704   */\n      dup2\n        /* \"#utility.yul\":15692:15704   */\n      swap1\n      pop\n        /* \"#utility.yul\":15635:15710   */\n      swap2\n      swap1\n      pop\n      jump\t// out\n        /* \"#utility.yul\":15716:15985   */\n    tag_218:\n        /* \"#utility.yul\":15826:15865   */\n      tag_384\n        /* \"#utility.yul\":15857:15864   */\n      dup4\n        /* \"#utility.yul\":15826:15865   */\n      tag_216\n      jump\t// in\n    tag_384:\n        /* \"#utility.yul\":15887:15978   */\n      tag_385\n        /* \"#utility.yul\":15936:15977   */\n      tag_386\n        /* \"#utility.yul\":15960:15976   */\n      dup3\n        /* \"#utility.yul\":15936:15977   */\n      tag_217\n      jump\t// in\n    tag_386:\n        /* \"#utility.yul\":15928:15934   */\n      dup5\n        /* \"#utility.yul\":15921:15925   */\n      dup5\n        /* \"#utility.yul\":15915:15926   */\n      sload\n        /* \"#utility.yul\":15887:15978   */\n      tag_214\n      jump\t// in\n    tag_385:\n        /* \"#utility.yul\":15881:15885   */\n      dup3\n        /* \"#utility.yul\":15874:15979   */\n      sstore\n        /* \"#utility.yul\":15792:15985   */\n      pop\n        /* \"#utility.yul\":15716:15985   */\n      pop\n      pop\n      pop\n      jump\t// out\n        /* \"#utility.yul\":15991:16064   */\n    tag_219:\n        /* \"#utility.yul\":16036:16039   */\n      0x00\n        /* \"#utility.yul\":15991:16064   */\n      swap1\n      jump\t// out\n        /* \"#utility.yul\":16070:16259   */\n    tag_220:\n        /* \"#utility.yul\":16147:16179   */\n      tag_389\n      tag_219\n      jump\t// in\n    tag_389:\n        /* \"#utility.yul\":16188:16253   */\n      tag_390\n        /* \"#utility.yul\":16246:16252   */\n      dup2\n        /* \"#utility.yul\":16238:16244   */\n      dup5\n        /* \"#utility.yul\":16232:16236   */\n      dup5\n        /* \"#utility.yul\":16188:16253   */\n      tag_218\n      jump\t// in\n    tag_390:\n        /* \"#utility.yul\":16123:16259   */\n      pop\n        /* \"#utility.yul\":16070:16259   */\n      pop\n      pop\n      jump\t// out\n        /* \"#utility.yul\":16265:16451   */\n    tag_221:\n        /* \"#utility.yul\":16325:16445   */\n    tag_392:\n        /* \"#utility.yul\":16342:16345   */\n      dup2\n        /* \"#utility.yul\":16335:16340   */\n      dup2\n        /* \"#utility.yul\":16332:16346   */\n      lt\n        /* \"#utility.yul\":16325:16445   */\n      iszero\n      tag_394\n      jumpi\n        /* \"#utility.yul\":16396:16435   */\n      tag_395\n        /* \"#utility.yul\":16433:16434   */\n      0x00\n        /* \"#utility.yul\":16426:16431   */\n      dup3\n        /* \"#utility.yul\":16396:16435   */\n      tag_220\n      jump\t// in\n    tag_395:\n        /* \"#utility.yul\":16369:16370   */\n      0x01\n        /* \"#utility.yul\":16362:16367   */\n      dup2\n        /* \"#utility.yul\":16358:16371   */\n      add\n        /* \"#utility.yul\":16349:16371   */\n      swap1\n      pop\n        /* \"#utility.yul\":16325:16445   */\n      jump(tag_392)\n    tag_394:\n        /* \"#utility.yul\":16265:16451   */\n      pop\n      pop\n      jump\t// out\n        /* \"#utility.yul\":16457:17000   */\n    tag_222:\n        /* \"#utility.yul\":16558:16560   */\n      0x1f\n        /* \"#utility.yul\":16553:16556   */\n      dup3\n        /* \"#utility.yul\":16550:16561   */\n      gt\n        /* \"#utility.yul\":16547:16993   */\n      iszero\n      tag_397\n      jumpi\n        /* \"#utility.yul\":16592:16630   */\n      tag_398\n        /* \"#utility.yul\":16624:16629   */\n      dup2\n        /* \"#utility.yul\":16592:16630   */\n      tag_211\n      jump\t// in\n    tag_398:\n        /* \"#utility.yul\":16676:16705   */\n      tag_399\n        /* \"#utility.yul\":16694:16704   */\n      dup5\n        /* \"#utility.yul\":16676:16705   */\n      tag_212\n      jump\t// in\n    tag_399:\n        /* \"#utility.yul\":16666:16674   */\n      dup2\n        /* \"#utility.yul\":16662:16706   */\n      add\n        /* \"#utility.yul\":16859:16861   */\n      0x20\n        /* \"#utility.yul\":16847:16857   */\n      dup6\n        /* \"#utility.yul\":16844:16862   */\n      lt\n        /* \"#utility.yul\":16841:16890   */\n      iszero\n      tag_400\n      jumpi\n        /* \"#utility.yul\":16880:16888   */\n      dup2\n        /* \"#utility.yul\":16865:16888   */\n      swap1\n      pop\n        /* \"#utility.yul\":16841:16890   */\n    tag_400:\n        /* \"#utility.yul\":16903:16983   */\n      tag_401\n        /* \"#utility.yul\":16959:16981   */\n      tag_402\n        /* \"#utility.yul\":16977:16980   */\n      dup6\n        /* \"#utility.yul\":16959:16981   */\n      tag_212\n      jump\t// in\n    tag_402:\n        /* \"#utility.yul\":16949:16957   */\n      dup4\n        /* \"#utility.yul\":16945:16982   */\n      add\n        /* \"#utility.yul\":16932:16943   */\n      dup3\n        /* \"#utility.yul\":16903:16983   */\n      tag_221\n      jump\t// in\n    tag_401:\n        /* \"#utility.yul\":16562:16993   */\n      pop\n      pop\n        /* \"#utility.yul\":16547:16993   */\n    tag_397:\n        /* \"#utility.yul\":16457:17000   */\n      pop\n      pop\n      pop\n      jump\t// out\n        /* \"#utility.yul\":17006:17123   */\n    tag_223:\n        /* \"#utility.yul\":17060:17068   */\n      0x00\n        /* \"#utility.yul\":17110:17115   */\n      dup3\n        /* \"#utility.yul\":17104:17108   */\n      dup3\n        /* \"#utility.yul\":17100:17116   */\n      shr\n        /* \"#utility.yul\":17079:17116   */\n      swap1\n      pop\n        /* \"#utility.yul\":17006:17123   */\n      swap3\n      swap2\n      pop\n      pop\n      jump\t// out\n        /* \"#utility.yul\":17129:17298   */\n    tag_224:\n        /* \"#utility.yul\":17173:17179   */\n      0x00\n        /* \"#utility.yul\":17206:17257   */\n      tag_405\n        /* \"#utility.yul\":17254:17255   */\n      0x00\n        /* \"#utility.yul\":17250:17256   */\n      not\n        /* \"#utility.yul\":17242:17247   */\n      dup5\n        /* \"#utility.yul\":17239:17240   */\n      0x08\n        /* \"#utility.yul\":17235:17248   */\n      mul\n        /* \"#utility.yul\":17206:17257   */\n      tag_223\n      jump\t// in\n    tag_405:\n        /* \"#utility.yul\":17202:17258   */\n      not\n        /* \"#utility.yul\":17287:17291   */\n      dup1\n        /* \"#utility.yul\":17281:17285   */\n      dup4\n        /* \"#utility.yul\":17277:17292   */\n      and\n        /* \"#utility.yul\":17267:17292   */\n      swap2\n      pop\n        /* \"#utility.yul\":17180:17298   */\n      pop\n        /* \"#utility.yul\":17129:17298   */\n      swap3\n      swap2\n      pop\n      pop\n      jump\t// out\n        /* \"#utility.yul\":17303:17598   */\n    tag_225:\n        /* \"#utility.yul\":17379:17383   */\n      0x00\n        /* \"#utility.yul\":17525:17554   */\n      tag_407\n        /* \"#utility.yul\":17550:17553   */\n      dup4\n        /* \"#utility.yul\":17544:17548   */\n      dup4\n        /* \"#utility.yul\":17525:17554   */\n      tag_224\n      jump\t// in\n    tag_407:\n        /* \"#utility.yul\":17517:17554   */\n      swap2\n      pop\n        /* \"#utility.yul\":17587:17590   */\n      dup3\n        /* \"#utility.yul\":17584:17585   */\n      0x02\n        /* \"#utility.yul\":17580:17591   */\n      mul\n        /* \"#utility.yul\":17574:17578   */\n      dup3\n        /* \"#utility.yul\":17571:17592   */\n      or\n        /* \"#utility.yul\":17563:17592   */\n      swap1\n      pop\n        /* \"#utility.yul\":17303:17598   */\n      swap3\n      swap2\n      pop\n      pop\n      jump\t// out\n        /* \"#utility.yul\":17603:18998   */\n    tag_53:\n        /* \"#utility.yul\":17720:17757   */\n      tag_409\n        /* \"#utility.yul\":17753:17756   */\n      dup3\n        /* \"#utility.yul\":17720:17757   */\n      tag_196\n      jump\t// in\n    tag_409:\n        /* \"#utility.yul\":17822:17840   */\n      0xffffffffffffffff\n        /* \"#utility.yul\":17814:17820   */\n      dup2\n        /* \"#utility.yul\":17811:17841   */\n      gt\n        /* \"#utility.yul\":17808:17864   */\n      iszero\n      tag_410\n      jumpi\n        /* \"#utility.yul\":17844:17862   */\n      tag_411\n      tag_86\n      jump\t// in\n    tag_411:\n        /* \"#utility.yul\":17808:17864   */\n    tag_410:\n        /* \"#utility.yul\":17888:17926   */\n      tag_412\n        /* \"#utility.yul\":17920:17924   */\n      dup3\n        /* \"#utility.yul\":17914:17925   */\n      sload\n        /* \"#utility.yul\":17888:17926   */\n      tag_98\n      jump\t// in\n    tag_412:\n        /* \"#utility.yul\":17973:18040   */\n      tag_413\n        /* \"#utility.yul\":18033:18039   */\n      dup3\n        /* \"#utility.yul\":18025:18031   */\n      dup3\n        /* \"#utility.yul\":18019:18023   */\n      dup6\n        /* \"#utility.yul\":17973:18040   */\n      tag_222\n      jump\t// in\n    tag_413:\n        /* \"#utility.yul\":18067:18068   */\n      0x00\n        /* \"#utility.yul\":18091:18095   */\n      0x20\n        /* \"#utility.yul\":18078:18095   */\n      swap1\n      pop\n        /* \"#utility.yul\":18123:18125   */\n      0x1f\n        /* \"#utility.yul\":18115:18121   */\n      dup4\n        /* \"#utility.yul\":18112:18126   */\n      gt\n        /* \"#utility.yul\":18140:18141   */\n      0x01\n        /* \"#utility.yul\":18135:18753   */\n      dup2\n      eq\n      tag_415\n      jumpi\n        /* \"#utility.yul\":18797:18798   */\n      0x00\n        /* \"#utility.yul\":18814:18820   */\n      dup5\n        /* \"#utility.yul\":18811:18888   */\n      iszero\n      tag_416\n      jumpi\n        /* \"#utility.yul\":18863:18872   */\n      dup3\n        /* \"#utility.yul\":18858:18861   */\n      dup8\n        /* \"#utility.yul\":18854:18873   */\n      add\n        /* \"#utility.yul\":18848:18874   */\n      mload\n        /* \"#utility.yul\":18839:18874   */\n      swap1\n      pop\n        /* \"#utility.yul\":18811:18888   */\n    tag_416:\n        /* \"#utility.yul\":18914:18981   */\n      tag_417\n        /* \"#utility.yul\":18974:18980   */\n      dup6\n        /* \"#utility.yul\":18967:18972   */\n      dup3\n        /* \"#utility.yul\":18914:18981   */\n      tag_225\n      jump\t// in\n    tag_417:\n        /* \"#utility.yul\":18908:18912   */\n      dup7\n        /* \"#utility.yul\":18901:18982   */\n      sstore\n        /* \"#utility.yul\":18770:18992   */\n      pop\n        /* \"#utility.yul\":18105:18992   */\n      jump(tag_414)\n        /* \"#utility.yul\":18135:18753   */\n    tag_415:\n        /* \"#utility.yul\":18187:18191   */\n      0x1f\n        /* \"#utility.yul\":18183:18192   */\n      not\n        /* \"#utility.yul\":18175:18181   */\n      dup5\n        /* \"#utility.yul\":18171:18193   */\n      and\n        /* \"#utility.yul\":18221:18258   */\n      tag_418\n        /* \"#utility.yul\":18253:18257   */\n      dup7\n        /* \"#utility.yul\":18221:18258   */\n      tag_211\n      jump\t// in\n    tag_418:\n        /* \"#utility.yul\":18280:18281   */\n      0x00\n        /* \"#utility.yul\":18294:18502   */\n    tag_419:\n        /* \"#utility.yul\":18308:18315   */\n      dup3\n        /* \"#utility.yul\":18305:18306   */\n      dup2\n        /* \"#utility.yul\":18302:18316   */\n      lt\n        /* \"#utility.yul\":18294:18502   */\n      iszero\n      tag_421\n      jumpi\n        /* \"#utility.yul\":18387:18396   */\n      dup5\n        /* \"#utility.yul\":18382:18385   */\n      dup10\n        /* \"#utility.yul\":18378:18397   */\n      add\n        /* \"#utility.yul\":18372:18398   */\n      mload\n        /* \"#utility.yul\":18364:18370   */\n      dup3\n        /* \"#utility.yul\":18357:18399   */\n      sstore\n        /* \"#utility.yul\":18438:18439   */\n      0x01\n        /* \"#utility.yul\":18430:18436   */\n      dup3\n        /* \"#utility.yul\":18426:18440   */\n      add\n        /* \"#utility.yul\":18416:18440   */\n      swap2\n      pop\n        /* \"#utility.yul\":18485:18487   */\n      0x20\n        /* \"#utility.yul\":18474:18483   */\n      dup6\n        /* \"#utility.yul\":18470:18488   */\n      add\n        /* \"#utility.yul\":18457:18488   */\n      swap5\n      pop\n        /* \"#utility.yul\":18331:18335   */\n      0x20\n        /* \"#utility.yul\":18328:18329   */\n      dup2\n        /* \"#utility.yul\":18324:18336   */\n      add\n        /* \"#utility.yul\":18319:18336   */\n      swap1\n      pop\n        /* \"#utility.yul\":18294:18502   */\n      jump(tag_419)\n    tag_421:\n        /* \"#utility.yul\":18530:18536   */\n      dup7\n        /* \"#utility.yul\":18521:18528   */\n      dup4\n        /* \"#utility.yul\":18518:18537   */\n      lt\n        /* \"#utility.yul\":18515:18694   */\n      iszero\n      tag_422\n      jumpi\n        /* \"#utility.yul\":18588:18597   */\n      dup5\n        /* \"#utility.yul\":18583:18586   */\n      dup10\n        /* \"#utility.yul\":18579:18598   */\n      add\n        /* \"#utility.yul\":18573:18599   */\n      mload\n        /* \"#utility.yul\":18631:18679   */\n      tag_423\n        /* \"#utility.yul\":18673:18677   */\n      0x1f\n        /* \"#utility.yul\":18665:18671   */\n      dup10\n        /* \"#utility.yul\":18661:18678   */\n      and\n        /* \"#utility.yul\":18650:18659   */\n      dup3\n        /* \"#utility.yul\":18631:18679   */\n      tag_224\n      jump\t// in\n    tag_423:\n        /* \"#utility.yul\":18623:18629   */\n      dup4\n        /* \"#utility.yul\":18616:18680   */\n      sstore\n        /* \"#utility.yul\":18538:18694   */\n      pop\n        /* \"#utility.yul\":18515:18694   */\n    tag_422:\n        /* \"#utility.yul\":18740:18741   */\n      0x01\n        /* \"#utility.yul\":18736:18737   */\n      0x02\n        /* \"#utility.yul\":18728:18734   */\n      dup9\n        /* \"#utility.yul\":18724:18738   */\n      mul\n        /* \"#utility.yul\":18720:18742   */\n      add\n        /* \"#utility.yul\":18714:18718   */\n      dup9\n        /* \"#utility.yul\":18707:18743   */\n      sstore\n        /* \"#utility.yul\":18142:18753   */\n      pop\n      pop\n      pop\n        /* \"#utility.yul\":18105:18992   */\n    tag_414:\n      pop\n        /* \"#utility.yul\":17695:18998   */\n      pop\n      pop\n      pop\n        /* \"#utility.yul\":17603:18998   */\n      pop\n      pop\n      jump\t// out\n        /* \"#utility.yul\":19004:19184   */\n    tag_226:\n        /* \"#utility.yul\":19052:19129   */\n      0x4e487b7100000000000000000000000000000000000000000000000000000000\n        /* \"#utility.yul\":19049:19050   */\n      0x00\n        /* \"#utility.yul\":19042:19130   */\n      mstore\n        /* \"#utility.yul\":19149:19153   */\n      0x11\n        /* \"#utility.yul\":19146:19147   */\n      0x04\n        /* \"#utility.yul\":19139:19154   */\n      mstore\n        /* \"#utility.yul\":19173:19177   */\n      0x24\n        /* \"#utility.yul\":19170:19171   */\n      0x00\n        /* \"#utility.yul\":19163:19178   */\n      revert\n        /* \"#utility.yul\":19190:19423   */\n    tag_55:\n        /* \"#utility.yul\":19229:19232   */\n      0x00\n        /* \"#utility.yul\":19252:19276   */\n      tag_426\n        /* \"#utility.yul\":19270:19275   */\n      dup3\n        /* \"#utility.yul\":19252:19276   */\n      tag_172\n      jump\t// in\n    tag_426:\n        /* \"#utility.yul\":19243:19276   */\n      swap2\n      pop\n        /* \"#utility.yul\":19298:19364   */\n      0xffffffffffffffffffffffffffffffffffffffffffffffffffffffffffffffff\n        /* \"#utility.yul\":19291:19296   */\n      dup3\n        /* \"#utility.yul\":19288:19365   */\n      sub\n        /* \"#utility.yul\":19285:19388   */\n      tag_427\n      jumpi\n        /* \"#utility.yul\":19368:19386   */\n      tag_428\n      tag_226\n      jump\t// in\n    tag_428:\n        /* \"#utility.yul\":19285:19388   */\n    tag_427:\n        /* \"#utility.yul\":19415:19416   */\n      0x01\n        /* \"#utility.yul\":19408:19413   */\n      dup3\n        /* \"#utility.yul\":19404:19417   */\n      add\n        /* \"#utility.yul\":19397:19417   */\n      swap1\n      pop\n        /* \"#utility.yul\":19190:19423   */\n      swap2\n      swap1\n      pop\n      jump\t// out\n        /* \"#utility.yul\":19429:19603   */\n    tag_227:\n        /* \"#utility.yul\":19569:19595   */\n      0x5b4552524f525d20494420616c7761797320696e207573650000000000000000\n        /* \"#utility.yul\":19565:19566   */\n      0x00\n        /* \"#utility.yul\":19557:19563   */\n      dup3\n        /* \"#utility.yul\":19553:19567   */\n      add\n        /* \"#utility.yul\":19546:19596   */\n      mstore\n        /* \"#utility.yul\":19429:19603   */\n      pop\n      jump\t// out\n        /* \"#utility.yul\":19609:19975   */\n    tag_228:\n        /* \"#utility.yul\":19751:19754   */\n      0x00\n        /* \"#utility.yul\":19772:19839   */\n      tag_431\n        /* \"#utility.yul\":19836:19838   */\n      0x18\n        /* \"#utility.yul\":19831:19834   */\n      dup4\n        /* \"#utility.yul\":19772:19839   */\n      tag_203\n      jump\t// in\n    tag_431:\n        /* \"#utility.yul\":19765:19839   */\n      swap2\n      pop\n        /* \"#utility.yul\":19848:19941   */\n      tag_432\n        /* \"#utility.yul\":19937:19940   */\n      dup3\n        /* \"#utility.yul\":19848:19941   */\n      tag_227\n      jump\t// in\n    tag_432:\n        /* \"#utility.yul\":19966:19968   */\n      0x20\n        /* \"#utility.yul\":19961:19964   */\n      dup3\n        /* \"#utility.yul\":19957:19969   */\n      add\n        /* \"#utility.yul\":19950:19969   */\n      swap1\n      pop\n        /* \"#utility.yul\":19609:19975   */\n      swap2\n      swap1\n      pop\n      jump\t// out\n        /* \"#utility.yul\":19981:20400   */\n    tag_64:\n        /* \"#utility.yul\":20147:20151   */\n      0x00\n        /* \"#utility.yul\":20185:20187   */\n      0x20\n        /* \"#utility.yul\":20174:20183   */\n      dup3\n        /* \"#utility.yul\":20170:20188   */\n      add\n        /* \"#utility.yul\":20162:20188   */\n      swap1\n      pop\n        /* \"#utility.yul\":20234:20243   */\n      dup2\n        /* \"#utility.yul\":20228:20232   */\n      dup2\n        /* \"#utility.yul\":20224:20244   */\n      sub\n        /* \"#utility.yul\":20220:20221   */\n      0x00\n        /* \"#utility.yul\":20209:20218   */\n      dup4\n        /* \"#utility.yul\":20205:20222   */\n      add\n        /* \"#utility.yul\":20198:20245   */\n      mstore\n        /* \"#utility.yul\":20262:20393   */\n      tag_434\n        /* \"#utility.yul\":20388:20392   */\n      dup2\n        /* \"#utility.yul\":20262:20393   */\n      tag_228\n      jump\t// in\n    tag_434:\n        /* \"#utility.yul\":20254:20393   */\n      swap1\n      pop\n        /* \"#utility.yul\":19981:20400   */\n      swap2\n      swap1\n      pop\n      jump\t// out\n        /* \"#utility.yul\":20430:21304   */\n    tag_229:\n        /* \"#utility.yul\":20533:20536   */\n      0x00\n        /* \"#utility.yul\":20570:20575   */\n      dup2\n        /* \"#utility.yul\":20564:20576   */\n      sload\n        /* \"#utility.yul\":20599:20635   */\n      tag_436\n        /* \"#utility.yul\":20625:20634   */\n      dup2\n        /* \"#utility.yul\":20599:20635   */\n      tag_98\n      jump\t// in\n    tag_436:\n        /* \"#utility.yul\":20651:20740   */\n      tag_437\n        /* \"#utility.yul\":20733:20739   */\n      dup2\n        /* \"#utility.yul\":20728:20731   */\n      dup7\n        /* \"#utility.yul\":20651:20740   */\n      tag_208\n      jump\t// in\n    tag_437:\n        /* \"#utility.yul\":20644:20740   */\n      swap5\n      pop\n        /* \"#utility.yul\":20771:20772   */\n      0x01\n        /* \"#utility.yul\":20760:20769   */\n      dup3\n        /* \"#utility.yul\":20756:20773   */\n      and\n        /* \"#utility.yul\":20787:20788   */\n      0x00\n        /* \"#utility.yul\":20782:20948   */\n      dup2\n      eq\n      tag_439\n      jumpi\n        /* \"#utility.yul\":20962:20963   */\n      0x01\n        /* \"#utility.yul\":20957:21298   */\n      dup2\n      eq\n      tag_440\n      jumpi\n        /* \"#utility.yul\":20749:21298   */\n      jump(tag_438)\n        /* \"#utility.yul\":20782:20948   */\n    tag_439:\n        /* \"#utility.yul\":20866:20870   */\n      0xff\n        /* \"#utility.yul\":20862:20871   */\n      not\n        /* \"#utility.yul\":20851:20860   */\n      dup4\n        /* \"#utility.yul\":20847:20872   */\n      and\n        /* \"#utility.yul\":20842:20845   */\n      dup7\n        /* \"#utility.yul\":20835:20873   */\n      mstore\n        /* \"#utility.yul\":20928:20934   */\n      dup2\n        /* \"#utility.yul\":20921:20935   */\n      iszero\n        /* \"#utility.yul\":20914:20936   */\n      iszero\n        /* \"#utility.yul\":20906:20912   */\n      dup3\n        /* \"#utility.yul\":20902:20937   */\n      mul\n        /* \"#utility.yul\":20897:20900   */\n      dup7\n        /* \"#utility.yul\":20893:20938   */\n      add\n        /* \"#utility.yul\":20886:20938   */\n      swap4\n      pop\n        /* \"#utility.yul\":20782:20948   */\n      jump(tag_438)\n        /* \"#utility.yul\":20957:21298   */\n    tag_440:\n        /* \"#utility.yul\":21024:21062   */\n      tag_441\n        /* \"#utility.yul\":21056:21061   */\n      dup6\n        /* \"#utility.yul\":21024:21062   */\n      tag_211\n      jump\t// in\n    tag_441:\n        /* \"#utility.yul\":21084:21085   */\n      0x00\n        /* \"#utility.yul\":21098:21252   */\n    tag_442:\n        /* \"#utility.yul\":21112:21118   */\n      dup4\n        /* \"#utility.yul\":21109:21110   */\n      dup2\n        /* \"#utility.yul\":21106:21119   */\n      lt\n        /* \"#utility.yul\":21098:21252   */\n      iszero\n      tag_444\n      jumpi\n        /* \"#utility.yul\":21186:21193   */\n      dup2\n        /* \"#utility.yul\":21180:21194   */\n      sload\n        /* \"#utility.yul\":21176:21177   */\n      dup2\n        /* \"#utility.yul\":21171:21174   */\n      dup10\n        /* \"#utility.yul\":21167:21178   */\n      add\n        /* \"#utility.yul\":21160:21195   */\n      mstore\n        /* \"#utility.yul\":21236:21237   */\n      0x01\n        /* \"#utility.yul\":21227:21234   */\n      dup3\n        /* \"#utility.yul\":21223:21238   */\n      add\n        /* \"#utility.yul\":21212:21238   */\n      swap2\n      pop\n        /* \"#utility.yul\":21134:21138   */\n      0x20\n        /* \"#utility.yul\":21131:21132   */\n      dup2\n        /* \"#utility.yul\":21127:21139   */\n      add\n        /* \"#utility.yul\":21122:21139   */\n      swap1\n      pop\n        /* \"#utility.yul\":21098:21252   */\n      jump(tag_442)\n    tag_444:\n        /* \"#utility.yul\":21281:21287   */\n      dup4\n        /* \"#utility.yul\":21276:21279   */\n      dup9\n        /* \"#utility.yul\":21272:21288   */\n      add\n        /* \"#utility.yul\":21265:21288   */\n      swap6\n      pop\n        /* \"#utility.yul\":20964:21298   */\n      pop\n      pop\n        /* \"#utility.yul\":20749:21298   */\n    tag_438:\n      pop\n        /* \"#utility.yul\":20537:21304   */\n      pop\n      pop\n        /* \"#utility.yul\":20430:21304   */\n      swap3\n      swap2\n      pop\n      pop\n      jump\t// out\n        /* \"#utility.yul\":21310:21579   */\n    tag_96:\n        /* \"#utility.yul\":21439:21442   */\n      0x00\n        /* \"#utility.yul\":21461:21553   */\n      tag_446\n        /* \"#utility.yul\":21549:21552   */\n      dup3\n        /* \"#utility.yul\":21540:21546   */\n      dup5\n        /* \"#utility.yul\":21461:21553   */\n      tag_229\n      jump\t// in\n    tag_446:\n        /* \"#utility.yul\":21454:21553   */\n      swap2\n      pop\n        /* \"#utility.yul\":21570:21573   */\n      dup2\n        /* \"#utility.yul\":21563:21573   */\n      swap1\n      pop\n        /* \"#utility.yul\":21310:21579   */\n      swap3\n      swap2\n      pop\n      pop\n      jump\t// out\n        /* \"#utility.yul\":21585:21779   */\n    tag_136:\n        /* \"#utility.yul\":21625:21629   */\n      0x00\n        /* \"#utility.yul\":21645:21665   */\n      tag_448\n        /* \"#utility.yul\":21663:21664   */\n      dup3\n        /* \"#utility.yul\":21645:21665   */\n      tag_172\n      jump\t// in\n    tag_448:\n        /* \"#utility.yul\":21640:21665   */\n      swap2\n      pop\n        /* \"#utility.yul\":21679:21699   */\n      tag_449\n        /* \"#utility.yul\":21697:21698   */\n      dup4\n        /* \"#utility.yul\":21679:21699   */\n      tag_172\n      jump\t// in\n    tag_449:\n        /* \"#utility.yul\":21674:21699   */\n      swap3\n      pop\n        /* \"#utility.yul\":21723:21724   */\n      dup3\n        /* \"#utility.yul\":21720:21721   */\n      dup3\n        /* \"#utility.yul\":21716:21725   */\n      sub\n        /* \"#utility.yul\":21708:21725   */\n      swap1\n      pop\n        /* \"#utility.yul\":21747:21748   */\n      dup2\n        /* \"#utility.yul\":21741:21745   */\n      dup2\n        /* \"#utility.yul\":21738:21749   */\n      gt\n        /* \"#utility.yul\":21735:21772   */\n      iszero\n      tag_450\n      jumpi\n        /* \"#utility.yul\":21752:21770   */\n      tag_451\n      tag_226\n      jump\t// in\n    tag_451:\n        /* \"#utility.yul\":21735:21772   */\n    tag_450:\n        /* \"#utility.yul\":21585:21779   */\n      swap3\n      swap2\n      pop\n      pop\n      jump\t// out\n        /* \"#utility.yul\":21785:21976   */\n    tag_138:\n        /* \"#utility.yul\":21825:21828   */\n      0x00\n        /* \"#utility.yul\":21844:21864   */\n      tag_453\n        /* \"#utility.yul\":21862:21863   */\n      dup3\n        /* \"#utility.yul\":21844:21864   */\n      tag_172\n      jump\t// in\n    tag_453:\n        /* \"#utility.yul\":21839:21864   */\n      swap2\n      pop\n        /* \"#utility.yul\":21878:21898   */\n      tag_454\n        /* \"#utility.yul\":21896:21897   */\n      dup4\n        /* \"#utility.yul\":21878:21898   */\n      tag_172\n      jump\t// in\n    tag_454:\n        /* \"#utility.yul\":21873:21898   */\n      swap3\n      pop\n        /* \"#utility.yul\":21921:21922   */\n      dup3\n        /* \"#utility.yul\":21918:21919   */\n      dup3\n        /* \"#utility.yul\":21914:21923   */\n      add\n        /* \"#utility.yul\":21907:21923   */\n      swap1\n      pop\n        /* \"#utility.yul\":21942:21945   */\n      dup1\n        /* \"#utility.yul\":21939:21940   */\n      dup3\n        /* \"#utility.yul\":21936:21946   */\n      gt\n        /* \"#utility.yul\":21933:21969   */\n      iszero\n      tag_455\n      jumpi\n        /* \"#utility.yul\":21949:21967   */\n      tag_456\n      tag_226\n      jump\t// in\n    tag_456:\n        /* \"#utility.yul\":21933:21969   */\n    tag_455:\n        /* \"#utility.yul\":21785:21976   */\n      swap3\n      swap2\n      pop\n      pop\n      jump\t// out\n        /* \"#utility.yul\":21982:22162   */\n    tag_148:\n        /* \"#utility.yul\":22030:22107   */\n      0x4e487b7100000000000000000000000000000000000000000000000000000000\n        /* \"#utility.yul\":22027:22028   */\n      0x00\n        /* \"#utility.yul\":22020:22108   */\n      mstore\n        /* \"#utility.yul\":22127:22131   */\n      0x31\n        /* \"#utility.yul\":22124:22125   */\n      0x04\n        /* \"#utility.yul\":22117:22132   */\n      mstore\n        /* \"#utility.yul\":22151:22155   */\n      0x24\n        /* \"#utility.yul\":22148:22149   */\n      0x00\n        /* \"#utility.yul\":22141:22156   */\n      revert\n\n    auxdata: 0xa26469706673582212208d0944d43084d909c9b66a60b233f7aa3451f099608d98ea57cd97e83e4d333164736f6c63430008140033\n}\n",
				"bytecode": {
					"linkReferences": {},
					"object": "608060405234801561000f575f80fd5b50335f806101000a81548173ffffffffffffffffffffffffffffffffffffffff021916908373ffffffffffffffffffffffffffffffffffffffff160217905550611acf8061005c5f395ff3fe608060405234801561000f575f80fd5b5060043610610060575f3560e01c8063326361231461006457806340c8068d146100805780634f3623e41461009e5780634f6e9de4146100ce57806397ff7ae0146100ea578063ba54b7bf1461011b575b5f80fd5b61007e6004803603810190610079919061116b565b610137565b005b610088610388565b6040516100959190611202565b60405180910390f35b6100b860048036038101906100b39190611275565b6103cf565b6040516100c59190611202565b60405180910390f35b6100e860048036038101906100e3919061116b565b6103fa565b005b61010460048036038101906100ff91906112b3565b6106ac565b604051610112929190611413565b60405180910390f35b610135600480360381019061013091906112b3565b610a18565b005b823373ffffffffffffffffffffffffffffffffffffffff1660015f3373ffffffffffffffffffffffffffffffffffffffff1673ffffffffffffffffffffffffffffffffffffffff1681526020019081526020015f205f8381526020019081526020015f205f015f9054906101000a900473ffffffffffffffffffffffffffffffffffffffff1673ffffffffffffffffffffffffffffffffffffffff1614610213576040517f08c379a000000000000000000000000000000000000000000000000000000000815260040161020a906114a2565b60405180910390fd5b8151835114610257576040517f08c379a000000000000000000000000000000000000000000000000000000000815260040161024e90611530565b60405180910390fd5b5f60015f3373ffffffffffffffffffffffffffffffffffffffff1673ffffffffffffffffffffffffffffffffffffffff1681526020019081526020015f205f8681526020019081526020015f20905033815f015f6101000a81548173ffffffffffffffffffffffffffffffffffffffff021916908373ffffffffffffffffffffffffffffffffffffffff1602179055505f5b8451811015610367578381815181106103055761030461154e565b5b6020026020010151826001018683815181106103245761032361154e565b5b602002602001015160405161033991906115b5565b9081526020016040518091039020908161035391906117c5565b50808061035f906118c1565b9150506102e9565b5083816002019080519060200190610380929190610e19565b505050505050565b5f60025f3373ffffffffffffffffffffffffffffffffffffffff1673ffffffffffffffffffffffffffffffffffffffff1681526020019081526020015f2080549050905090565b6002602052815f5260405f2081815481106103e8575f80fd5b905f5260205f20015f91509150505481565b823373ffffffffffffffffffffffffffffffffffffffff1660015f3373ffffffffffffffffffffffffffffffffffffffff1673ffffffffffffffffffffffffffffffffffffffff1681526020019081526020015f205f8381526020019081526020015f205f015f9054906101000a900473ffffffffffffffffffffffffffffffffffffffff1673ffffffffffffffffffffffffffffffffffffffff16036104d6576040517f08c379a00000000000000000000000000000000000000000000000000000000081526004016104cd90611952565b60405180910390fd5b815183511461051a576040517f08c379a000000000000000000000000000000000000000000000000000000000815260040161051190611530565b60405180910390fd5b5f60015f3373ffffffffffffffffffffffffffffffffffffffff1673ffffffffffffffffffffffffffffffffffffffff1681526020019081526020015f205f8681526020019081526020015f20905033815f015f6101000a81548173ffffffffffffffffffffffffffffffffffffffff021916908373ffffffffffffffffffffffffffffffffffffffff1602179055505f5b845181101561062a578381815181106105c8576105c761154e565b5b6020026020010151826001018683815181106105e7576105e661154e565b5b60200260200101516040516105fc91906115b5565b9081526020016040518091039020908161061691906117c5565b508080610622906118c1565b9150506105ac565b5083816002019080519060200190610643929190610e19565b5060025f3373ffffffffffffffffffffffffffffffffffffffff1673ffffffffffffffffffffffffffffffffffffffff1681526020019081526020015f2085908060018154018082558091505060019003905f5260205f20015f90919091909150555050505050565b606080823373ffffffffffffffffffffffffffffffffffffffff1660015f3373ffffffffffffffffffffffffffffffffffffffff1673ffffffffffffffffffffffffffffffffffffffff1681526020019081526020015f205f8381526020019081526020015f205f015f9054906101000a900473ffffffffffffffffffffffffffffffffffffffff1673ffffffffffffffffffffffffffffffffffffffff161461078b576040517f08c379a0000000000000000000000000000000000000000000000000000000008152600401610782906114a2565b60405180910390fd5b5f60015f3373ffffffffffffffffffffffffffffffffffffffff1673ffffffffffffffffffffffffffffffffffffffff1681526020019081526020015f205f8681526020019081526020015f2090505f816002018054905067ffffffffffffffff8111156107fc576107fb610f61565b5b60405190808252806020026020018201604052801561082f57816020015b606081526020019060019003908161081a5790505b5090505f5b8260020180549050811015610938578260010183600201828154811061085d5761085c61154e565b5b905f5260205f200160405161087291906119f0565b9081526020016040518091039020805461088b906115f8565b80601f01602080910402602001604051908101604052809291908181526020018280546108b7906115f8565b80156109025780601f106108d957610100808354040283529160200191610902565b820191905f5260205f20905b8154815290600101906020018083116108e557829003601f168201915b505050505082828151811061091a5761091961154e565b5b60200260200101819052508080610930906118c1565b915050610834565b50816002018181805480602002602001604051908101604052809291908181526020015f905b82821015610a06578382905f5260205f2001805461097b906115f8565b80601f01602080910402602001604051908101604052809291908181526020018280546109a7906115f8565b80156109f25780601f106109c9576101008083540402835291602001916109f2565b820191905f5260205f20905b8154815290600101906020018083116109d557829003601f168201915b50505050508152602001906001019061095e565b50505050915094509450505050915091565b803373ffffffffffffffffffffffffffffffffffffffff1660015f3373ffffffffffffffffffffffffffffffffffffffff1673ffffffffffffffffffffffffffffffffffffffff1681526020019081526020015f205f8381526020019081526020015f205f015f9054906101000a900473ffffffffffffffffffffffffffffffffffffffff1673ffffffffffffffffffffffffffffffffffffffff1614610af4576040517f08c379a0000000000000000000000000000000000000000000000000000000008152600401610aeb906114a2565b60405180910390fd5b5f5b60025f3373ffffffffffffffffffffffffffffffffffffffff1673ffffffffffffffffffffffffffffffffffffffff1681526020019081526020015f2080549050811015610bb9578260025f3373ffffffffffffffffffffffffffffffffffffffff1673ffffffffffffffffffffffffffffffffffffffff1681526020019081526020015f208281548110610b8e57610b8d61154e565b5b905f5260205f20015403610ba657610ba581610c41565b5b8080610bb1906118c1565b915050610af6565b5060015f3373ffffffffffffffffffffffffffffffffffffffff1673ffffffffffffffffffffffffffffffffffffffff1681526020019081526020015f205f8381526020019081526020015f205f8082015f6101000a81549073ffffffffffffffffffffffffffffffffffffffff0219169055600282015f610c3b9190610e70565b50505050565b60025f3373ffffffffffffffffffffffffffffffffffffffff1673ffffffffffffffffffffffffffffffffffffffff1681526020019081526020015f2080549050811015610e16575f8190505b600160025f3373ffffffffffffffffffffffffffffffffffffffff1673ffffffffffffffffffffffffffffffffffffffff1681526020019081526020015f2080549050610cdb9190611a06565b811015610db45760025f3373ffffffffffffffffffffffffffffffffffffffff1673ffffffffffffffffffffffffffffffffffffffff1681526020019081526020015f20600182610d2c9190611a39565b81548110610d3d57610d3c61154e565b5b905f5260205f20015460025f3373ffffffffffffffffffffffffffffffffffffffff1673ffffffffffffffffffffffffffffffffffffffff1681526020019081526020015f208281548110610d9557610d9461154e565b5b905f5260205f2001819055508080610dac906118c1565b915050610c8e565b5060025f3373ffffffffffffffffffffffffffffffffffffffff1673ffffffffffffffffffffffffffffffffffffffff1681526020019081526020015f20805480610e0257610e01611a6c565b5b600190038181905f5260205f20015f905590555b50565b828054828255905f5260205f20908101928215610e5f579160200282015b82811115610e5e578251829081610e4e91906117c5565b5091602001919060010190610e37565b5b509050610e6c9190610e8e565b5090565b5080545f8255905f5260205f2090810190610e8b9190610e8e565b50565b5b80821115610ead575f8181610ea49190610eb1565b50600101610e8f565b5090565b508054610ebd906115f8565b5f825580601f10610ece5750610eeb565b601f0160209004905f5260205f2090810190610eea9190610eee565b5b50565b5b80821115610f05575f815f905550600101610eef565b5090565b5f604051905090565b5f80fd5b5f80fd5b5f819050919050565b610f2c81610f1a565b8114610f36575f80fd5b50565b5f81359050610f4781610f23565b92915050565b5f80fd5b5f601f19601f8301169050919050565b7f4e487b71000000000000000000000000000000000000000000000000000000005f52604160045260245ffd5b610f9782610f51565b810181811067ffffffffffffffff82111715610fb657610fb5610f61565b5b80604052505050565b5f610fc8610f09565b9050610fd48282610f8e565b919050565b5f67ffffffffffffffff821115610ff357610ff2610f61565b5b602082029050602081019050919050565b5f80fd5b5f80fd5b5f67ffffffffffffffff82111561102657611025610f61565b5b61102f82610f51565b9050602081019050919050565b828183375f83830152505050565b5f61105c6110578461100c565b610fbf565b90508281526020810184848401111561107857611077611008565b5b61108384828561103c565b509392505050565b5f82601f83011261109f5761109e610f4d565b5b81356110af84826020860161104a565b91505092915050565b5f6110ca6110c584610fd9565b610fbf565b905080838252602082019050602084028301858111156110ed576110ec611004565b5b835b8181101561113457803567ffffffffffffffff81111561111257611111610f4d565b5b80860161111f898261108b565b855260208501945050506020810190506110ef565b5050509392505050565b5f82601f83011261115257611151610f4d565b5b81356111628482602086016110b8565b91505092915050565b5f805f6060848603121561118257611181610f12565b5b5f61118f86828701610f39565b935050602084013567ffffffffffffffff8111156111b0576111af610f16565b5b6111bc8682870161113e565b925050604084013567ffffffffffffffff8111156111dd576111dc610f16565b5b6111e98682870161113e565b9150509250925092565b6111fc81610f1a565b82525050565b5f6020820190506112155f8301846111f3565b92915050565b5f73ffffffffffffffffffffffffffffffffffffffff82169050919050565b5f6112448261121b565b9050919050565b6112548161123a565b811461125e575f80fd5b50565b5f8135905061126f8161124b565b92915050565b5f806040838503121561128b5761128a610f12565b5b5f61129885828601611261565b92505060206112a985828601610f39565b9150509250929050565b5f602082840312156112c8576112c7610f12565b5b5f6112d584828501610f39565b91505092915050565b5f81519050919050565b5f82825260208201905092915050565b5f819050602082019050919050565b5f81519050919050565b5f82825260208201905092915050565b5f5b8381101561133e578082015181840152602081019050611323565b5f8484015250505050565b5f61135382611307565b61135d8185611311565b935061136d818560208601611321565b61137681610f51565b840191505092915050565b5f61138c8383611349565b905092915050565b5f602082019050919050565b5f6113aa826112de565b6113b481856112e8565b9350836020820285016113c6856112f8565b805f5b8581101561140157848403895281516113e28582611381565b94506113ed83611394565b925060208a019950506001810190506113c9565b50829750879550505050505092915050565b5f6040820190508181035f83015261142b81856113a0565b9050818103602083015261143f81846113a0565b90509392505050565b5f82825260208201905092915050565b7f5b4552524f525d204944206e6f7420617661696c61626c6500000000000000005f82015250565b5f61148c601883611448565b915061149782611458565b602082019050919050565b5f6020820190508181035f8301526114b981611480565b9050919050565b7f5b4552524f525d20546865206c656e677468206f6620746865206b65797320615f8201527f6e642076616c75657320617265206e6f746520657175616c0000000000000000602082015250565b5f61151a603883611448565b9150611525826114c0565b604082019050919050565b5f6020820190508181035f8301526115478161150e565b9050919050565b7f4e487b71000000000000000000000000000000000000000000000000000000005f52603260045260245ffd5b5f81905092915050565b5f61158f82611307565b611599818561157b565b93506115a9818560208601611321565b80840191505092915050565b5f6115c08284611585565b915081905092915050565b7f4e487b71000000000000000000000000000000000000000000000000000000005f52602260045260245ffd5b5f600282049050600182168061160f57607f821691505b602082108103611622576116216115cb565b5b50919050565b5f819050815f5260205f209050919050565b5f6020601f8301049050919050565b5f82821b905092915050565b5f600883026116847fffffffffffffffffffffffffffffffffffffffffffffffffffffffffffffffff82611649565b61168e8683611649565b95508019841693508086168417925050509392505050565b5f819050919050565b5f6116c96116c46116bf84610f1a565b6116a6565b610f1a565b9050919050565b5f819050919050565b6116e2836116af565b6116f66116ee826116d0565b848454611655565b825550505050565b5f90565b61170a6116fe565b6117158184846116d9565b505050565b5b818110156117385761172d5f82611702565b60018101905061171b565b5050565b601f82111561177d5761174e81611628565b6117578461163a565b81016020851015611766578190505b61177a6117728561163a565b83018261171a565b50505b505050565b5f82821c905092915050565b5f61179d5f1984600802611782565b1980831691505092915050565b5f6117b5838361178e565b9150826002028217905092915050565b6117ce82611307565b67ffffffffffffffff8111156117e7576117e6610f61565b5b6117f182546115f8565b6117fc82828561173c565b5f60209050601f83116001811461182d575f841561181b578287015190505b61182585826117aa565b86555061188c565b601f19841661183b86611628565b5f5b828110156118625784890151825560018201915060208501945060208101905061183d565b8683101561187f578489015161187b601f89168261178e565b8355505b6001600288020188555050505b505050505050565b7f4e487b71000000000000000000000000000000000000000000000000000000005f52601160045260245ffd5b5f6118cb82610f1a565b91507fffffffffffffffffffffffffffffffffffffffffffffffffffffffffffffffff82036118fd576118fc611894565b5b600182019050919050565b7f5b4552524f525d20494420616c7761797320696e2075736500000000000000005f82015250565b5f61193c601883611448565b915061194782611908565b602082019050919050565b5f6020820190508181035f83015261196981611930565b9050919050565b5f815461197c816115f8565b611986818661157b565b9450600182165f81146119a057600181146119b5576119e7565b60ff19831686528115158202860193506119e7565b6119be85611628565b5f5b838110156119df578154818901526001820191506020810190506119c0565b838801955050505b50505092915050565b5f6119fb8284611970565b915081905092915050565b5f611a1082610f1a565b9150611a1b83610f1a565b9250828203905081811115611a3357611a32611894565b5b92915050565b5f611a4382610f1a565b9150611a4e83610f1a565b9250828201905080821115611a6657611a65611894565b5b92915050565b7f4e487b71000000000000000000000000000000000000000000000000000000005f52603160045260245ffdfea26469706673582212208d0944d43084d909c9b66a60b233f7aa3451f099608d98ea57cd97e83e4d333164736f6c63430008140033",
					"opcodes": "PUSH1 0x80 PUSH1 0x40 MSTORE CALLVALUE DUP1 ISZERO PUSH2 0xF JUMPI PUSH0 DUP1 REVERT JUMPDEST POP CALLER PUSH0 DUP1 PUSH2 0x100 EXP DUP2 SLOAD DUP2 PUSH20 0xFFFFFFFFFFFFFFFFFFFFFFFFFFFFFFFFFFFFFFFF MUL NOT AND SWAP1 DUP4 PUSH20 0xFFFFFFFFFFFFFFFFFFFFFFFFFFFFFFFFFFFFFFFF AND MUL OR SWAP1 SSTORE POP PUSH2 0x1ACF DUP1 PUSH2 0x5C PUSH0 CODECOPY PUSH0 RETURN INVALID PUSH1 0x80 PUSH1 0x40 MSTORE CALLVALUE DUP1 ISZERO PUSH2 0xF JUMPI PUSH0 DUP1 REVERT JUMPDEST POP PUSH1 0x4 CALLDATASIZE LT PUSH2 0x60 JUMPI PUSH0 CALLDATALOAD PUSH1 0xE0 SHR DUP1 PUSH4 0x32636123 EQ PUSH2 0x64 JUMPI DUP1 PUSH4 0x40C8068D EQ PUSH2 0x80 JUMPI DUP1 PUSH4 0x4F3623E4 EQ PUSH2 0x9E JUMPI DUP1 PUSH4 0x4F6E9DE4 EQ PUSH2 0xCE JUMPI DUP1 PUSH4 0x97FF7AE0 EQ PUSH2 0xEA JUMPI DUP1 PUSH4 0xBA54B7BF EQ PUSH2 0x11B JUMPI JUMPDEST PUSH0 DUP1 REVERT JUMPDEST PUSH2 0x7E PUSH1 0x4 DUP1 CALLDATASIZE SUB DUP2 ADD SWAP1 PUSH2 0x79 SWAP2 SWAP1 PUSH2 0x116B JUMP JUMPDEST PUSH2 0x137 JUMP JUMPDEST STOP JUMPDEST PUSH2 0x88 PUSH2 0x388 JUMP JUMPDEST PUSH1 0x40 MLOAD PUSH2 0x95 SWAP2 SWAP1 PUSH2 0x1202 JUMP JUMPDEST PUSH1 0x40 MLOAD DUP1 SWAP2 SUB SWAP1 RETURN JUMPDEST PUSH2 0xB8 PUSH1 0x4 DUP1 CALLDATASIZE SUB DUP2 ADD SWAP1 PUSH2 0xB3 SWAP2 SWAP1 PUSH2 0x1275 JUMP JUMPDEST PUSH2 0x3CF JUMP JUMPDEST PUSH1 0x40 MLOAD PUSH2 0xC5 SWAP2 SWAP1 PUSH2 0x1202 JUMP JUMPDEST PUSH1 0x40 MLOAD DUP1 SWAP2 SUB SWAP1 RETURN JUMPDEST PUSH2 0xE8 PUSH1 0x4 DUP1 CALLDATASIZE SUB DUP2 ADD SWAP1 PUSH2 0xE3 SWAP2 SWAP1 PUSH2 0x116B JUMP JUMPDEST PUSH2 0x3FA JUMP JUMPDEST STOP JUMPDEST PUSH2 0x104 PUSH1 0x4 DUP1 CALLDATASIZE SUB DUP2 ADD SWAP1 PUSH2 0xFF SWAP2 SWAP1 PUSH2 0x12B3 JUMP JUMPDEST PUSH2 0x6AC JUMP JUMPDEST PUSH1 0x40 MLOAD PUSH2 0x112 SWAP3 SWAP2 SWAP1 PUSH2 0x1413 JUMP JUMPDEST PUSH1 0x40 MLOAD DUP1 SWAP2 SUB SWAP1 RETURN JUMPDEST PUSH2 0x135 PUSH1 0x4 DUP1 CALLDATASIZE SUB DUP2 ADD SWAP1 PUSH2 0x130 SWAP2 SWAP1 PUSH2 0x12B3 JUMP JUMPDEST PUSH2 0xA18 JUMP JUMPDEST STOP JUMPDEST DUP3 CALLER PUSH20 0xFFFFFFFFFFFFFFFFFFFFFFFFFFFFFFFFFFFFFFFF AND PUSH1 0x1 PUSH0 CALLER PUSH20 0xFFFFFFFFFFFFFFFFFFFFFFFFFFFFFFFFFFFFFFFF AND PUSH20 0xFFFFFFFFFFFFFFFFFFFFFFFFFFFFFFFFFFFFFFFF AND DUP2 MSTORE PUSH1 0x20 ADD SWAP1 DUP2 MSTORE PUSH1 0x20 ADD PUSH0 KECCAK256 PUSH0 DUP4 DUP2 MSTORE PUSH1 0x20 ADD SWAP1 DUP2 MSTORE PUSH1 0x20 ADD PUSH0 KECCAK256 PUSH0 ADD PUSH0 SWAP1 SLOAD SWAP1 PUSH2 0x100 EXP SWAP1 DIV PUSH20 0xFFFFFFFFFFFFFFFFFFFFFFFFFFFFFFFFFFFFFFFF AND PUSH20 0xFFFFFFFFFFFFFFFFFFFFFFFFFFFFFFFFFFFFFFFF AND EQ PUSH2 0x213 JUMPI PUSH1 0x40 MLOAD PUSH32 0x8C379A000000000000000000000000000000000000000000000000000000000 DUP2 MSTORE PUSH1 0x4 ADD PUSH2 0x20A SWAP1 PUSH2 0x14A2 JUMP JUMPDEST PUSH1 0x40 MLOAD DUP1 SWAP2 SUB SWAP1 REVERT JUMPDEST DUP2 MLOAD DUP4 MLOAD EQ PUSH2 0x257 JUMPI PUSH1 0x40 MLOAD PUSH32 0x8C379A000000000000000000000000000000000000000000000000000000000 DUP2 MSTORE PUSH1 0x4 ADD PUSH2 0x24E SWAP1 PUSH2 0x1530 JUMP JUMPDEST PUSH1 0x40 MLOAD DUP1 SWAP2 SUB SWAP1 REVERT JUMPDEST PUSH0 PUSH1 0x1 PUSH0 CALLER PUSH20 0xFFFFFFFFFFFFFFFFFFFFFFFFFFFFFFFFFFFFFFFF AND PUSH20 0xFFFFFFFFFFFFFFFFFFFFFFFFFFFFFFFFFFFFFFFF AND DUP2 MSTORE PUSH1 0x20 ADD SWAP1 DUP2 MSTORE PUSH1 0x20 ADD PUSH0 KECCAK256 PUSH0 DUP7 DUP2 MSTORE PUSH1 0x20 ADD SWAP1 DUP2 MSTORE PUSH1 0x20 ADD PUSH0 KECCAK256 SWAP1 POP CALLER DUP2 PUSH0 ADD PUSH0 PUSH2 0x100 EXP DUP2 SLOAD DUP2 PUSH20 0xFFFFFFFFFFFFFFFFFFFFFFFFFFFFFFFFFFFFFFFF MUL NOT AND SWAP1 DUP4 PUSH20 0xFFFFFFFFFFFFFFFFFFFFFFFFFFFFFFFFFFFFFFFF AND MUL OR SWAP1 SSTORE POP PUSH0 JUMPDEST DUP5 MLOAD DUP2 LT ISZERO PUSH2 0x367 JUMPI DUP4 DUP2 DUP2 MLOAD DUP2 LT PUSH2 0x305 JUMPI PUSH2 0x304 PUSH2 0x154E JUMP JUMPDEST JUMPDEST PUSH1 0x20 MUL PUSH1 0x20 ADD ADD MLOAD DUP3 PUSH1 0x1 ADD DUP7 DUP4 DUP2 MLOAD DUP2 LT PUSH2 0x324 JUMPI PUSH2 0x323 PUSH2 0x154E JUMP JUMPDEST JUMPDEST PUSH1 0x20 MUL PUSH1 0x20 ADD ADD MLOAD PUSH1 0x40 MLOAD PUSH2 0x339 SWAP2 SWAP1 PUSH2 0x15B5 JUMP JUMPDEST SWAP1 DUP2 MSTORE PUSH1 0x20 ADD PUSH1 0x40 MLOAD DUP1 SWAP2 SUB SWAP1 KECCAK256 SWAP1 DUP2 PUSH2 0x353 SWAP2 SWAP1 PUSH2 0x17C5 JUMP JUMPDEST POP DUP1 DUP1 PUSH2 0x35F SWAP1 PUSH2 0x18C1 JUMP JUMPDEST SWAP2 POP POP PUSH2 0x2E9 JUMP JUMPDEST POP DUP4 DUP2 PUSH1 0x2 ADD SWAP1 DUP1 MLOAD SWAP1 PUSH1 0x20 ADD SWAP1 PUSH2 0x380 SWAP3 SWAP2 SWAP1 PUSH2 0xE19 JUMP JUMPDEST POP POP POP POP POP POP JUMP JUMPDEST PUSH0 PUSH1 0x2 PUSH0 CALLER PUSH20 0xFFFFFFFFFFFFFFFFFFFFFFFFFFFFFFFFFFFFFFFF AND PUSH20 0xFFFFFFFFFFFFFFFFFFFFFFFFFFFFFFFFFFFFFFFF AND DUP2 MSTORE PUSH1 0x20 ADD SWAP1 DUP2 MSTORE PUSH1 0x20 ADD PUSH0 KECCAK256 DUP1 SLOAD SWAP1 POP SWAP1 POP SWAP1 JUMP JUMPDEST PUSH1 0x2 PUSH1 0x20 MSTORE DUP2 PUSH0 MSTORE PUSH1 0x40 PUSH0 KECCAK256 DUP2 DUP2 SLOAD DUP2 LT PUSH2 0x3E8 JUMPI PUSH0 DUP1 REVERT JUMPDEST SWAP1 PUSH0 MSTORE PUSH1 0x20 PUSH0 KECCAK256 ADD PUSH0 SWAP2 POP SWAP2 POP POP SLOAD DUP2 JUMP JUMPDEST DUP3 CALLER PUSH20 0xFFFFFFFFFFFFFFFFFFFFFFFFFFFFFFFFFFFFFFFF AND PUSH1 0x1 PUSH0 CALLER PUSH20 0xFFFFFFFFFFFFFFFFFFFFFFFFFFFFFFFFFFFFFFFF AND PUSH20 0xFFFFFFFFFFFFFFFFFFFFFFFFFFFFFFFFFFFFFFFF AND DUP2 MSTORE PUSH1 0x20 ADD SWAP1 DUP2 MSTORE PUSH1 0x20 ADD PUSH0 KECCAK256 PUSH0 DUP4 DUP2 MSTORE PUSH1 0x20 ADD SWAP1 DUP2 MSTORE PUSH1 0x20 ADD PUSH0 KECCAK256 PUSH0 ADD PUSH0 SWAP1 SLOAD SWAP1 PUSH2 0x100 EXP SWAP1 DIV PUSH20 0xFFFFFFFFFFFFFFFFFFFFFFFFFFFFFFFFFFFFFFFF AND PUSH20 0xFFFFFFFFFFFFFFFFFFFFFFFFFFFFFFFFFFFFFFFF AND SUB PUSH2 0x4D6 JUMPI PUSH1 0x40 MLOAD PUSH32 0x8C379A000000000000000000000000000000000000000000000000000000000 DUP2 MSTORE PUSH1 0x4 ADD PUSH2 0x4CD SWAP1 PUSH2 0x1952 JUMP JUMPDEST PUSH1 0x40 MLOAD DUP1 SWAP2 SUB SWAP1 REVERT JUMPDEST DUP2 MLOAD DUP4 MLOAD EQ PUSH2 0x51A JUMPI PUSH1 0x40 MLOAD PUSH32 0x8C379A000000000000000000000000000000000000000000000000000000000 DUP2 MSTORE PUSH1 0x4 ADD PUSH2 0x511 SWAP1 PUSH2 0x1530 JUMP JUMPDEST PUSH1 0x40 MLOAD DUP1 SWAP2 SUB SWAP1 REVERT JUMPDEST PUSH0 PUSH1 0x1 PUSH0 CALLER PUSH20 0xFFFFFFFFFFFFFFFFFFFFFFFFFFFFFFFFFFFFFFFF AND PUSH20 0xFFFFFFFFFFFFFFFFFFFFFFFFFFFFFFFFFFFFFFFF AND DUP2 MSTORE PUSH1 0x20 ADD SWAP1 DUP2 MSTORE PUSH1 0x20 ADD PUSH0 KECCAK256 PUSH0 DUP7 DUP2 MSTORE PUSH1 0x20 ADD SWAP1 DUP2 MSTORE PUSH1 0x20 ADD PUSH0 KECCAK256 SWAP1 POP CALLER DUP2 PUSH0 ADD PUSH0 PUSH2 0x100 EXP DUP2 SLOAD DUP2 PUSH20 0xFFFFFFFFFFFFFFFFFFFFFFFFFFFFFFFFFFFFFFFF MUL NOT AND SWAP1 DUP4 PUSH20 0xFFFFFFFFFFFFFFFFFFFFFFFFFFFFFFFFFFFFFFFF AND MUL OR SWAP1 SSTORE POP PUSH0 JUMPDEST DUP5 MLOAD DUP2 LT ISZERO PUSH2 0x62A JUMPI DUP4 DUP2 DUP2 MLOAD DUP2 LT PUSH2 0x5C8 JUMPI PUSH2 0x5C7 PUSH2 0x154E JUMP JUMPDEST JUMPDEST PUSH1 0x20 MUL PUSH1 0x20 ADD ADD MLOAD DUP3 PUSH1 0x1 ADD DUP7 DUP4 DUP2 MLOAD DUP2 LT PUSH2 0x5E7 JUMPI PUSH2 0x5E6 PUSH2 0x154E JUMP JUMPDEST JUMPDEST PUSH1 0x20 MUL PUSH1 0x20 ADD ADD MLOAD PUSH1 0x40 MLOAD PUSH2 0x5FC SWAP2 SWAP1 PUSH2 0x15B5 JUMP JUMPDEST SWAP1 DUP2 MSTORE PUSH1 0x20 ADD PUSH1 0x40 MLOAD DUP1 SWAP2 SUB SWAP1 KECCAK256 SWAP1 DUP2 PUSH2 0x616 SWAP2 SWAP1 PUSH2 0x17C5 JUMP JUMPDEST POP DUP1 DUP1 PUSH2 0x622 SWAP1 PUSH2 0x18C1 JUMP JUMPDEST SWAP2 POP POP PUSH2 0x5AC JUMP JUMPDEST POP DUP4 DUP2 PUSH1 0x2 ADD SWAP1 DUP1 MLOAD SWAP1 PUSH1 0x20 ADD SWAP1 PUSH2 0x643 SWAP3 SWAP2 SWAP1 PUSH2 0xE19 JUMP JUMPDEST POP PUSH1 0x2 PUSH0 CALLER PUSH20 0xFFFFFFFFFFFFFFFFFFFFFFFFFFFFFFFFFFFFFFFF AND PUSH20 0xFFFFFFFFFFFFFFFFFFFFFFFFFFFFFFFFFFFFFFFF AND DUP2 MSTORE PUSH1 0x20 ADD SWAP1 DUP2 MSTORE PUSH1 0x20 ADD PUSH0 KECCAK256 DUP6 SWAP1 DUP1 PUSH1 0x1 DUP2 SLOAD ADD DUP1 DUP3 SSTORE DUP1 SWAP2 POP POP PUSH1 0x1 SWAP1 SUB SWAP1 PUSH0 MSTORE PUSH1 0x20 PUSH0 KECCAK256 ADD PUSH0 SWAP1 SWAP2 SWAP1 SWAP2 SWAP1 SWAP2 POP SSTORE POP POP POP POP POP JUMP JUMPDEST PUSH1 0x60 DUP1 DUP3 CALLER PUSH20 0xFFFFFFFFFFFFFFFFFFFFFFFFFFFFFFFFFFFFFFFF AND PUSH1 0x1 PUSH0 CALLER PUSH20 0xFFFFFFFFFFFFFFFFFFFFFFFFFFFFFFFFFFFFFFFF AND PUSH20 0xFFFFFFFFFFFFFFFFFFFFFFFFFFFFFFFFFFFFFFFF AND DUP2 MSTORE PUSH1 0x20 ADD SWAP1 DUP2 MSTORE PUSH1 0x20 ADD PUSH0 KECCAK256 PUSH0 DUP4 DUP2 MSTORE PUSH1 0x20 ADD SWAP1 DUP2 MSTORE PUSH1 0x20 ADD PUSH0 KECCAK256 PUSH0 ADD PUSH0 SWAP1 SLOAD SWAP1 PUSH2 0x100 EXP SWAP1 DIV PUSH20 0xFFFFFFFFFFFFFFFFFFFFFFFFFFFFFFFFFFFFFFFF AND PUSH20 0xFFFFFFFFFFFFFFFFFFFFFFFFFFFFFFFFFFFFFFFF AND EQ PUSH2 0x78B JUMPI PUSH1 0x40 MLOAD PUSH32 0x8C379A000000000000000000000000000000000000000000000000000000000 DUP2 MSTORE PUSH1 0x4 ADD PUSH2 0x782 SWAP1 PUSH2 0x14A2 JUMP JUMPDEST PUSH1 0x40 MLOAD DUP1 SWAP2 SUB SWAP1 REVERT JUMPDEST PUSH0 PUSH1 0x1 PUSH0 CALLER PUSH20 0xFFFFFFFFFFFFFFFFFFFFFFFFFFFFFFFFFFFFFFFF AND PUSH20 0xFFFFFFFFFFFFFFFFFFFFFFFFFFFFFFFFFFFFFFFF AND DUP2 MSTORE PUSH1 0x20 ADD SWAP1 DUP2 MSTORE PUSH1 0x20 ADD PUSH0 KECCAK256 PUSH0 DUP7 DUP2 MSTORE PUSH1 0x20 ADD SWAP1 DUP2 MSTORE PUSH1 0x20 ADD PUSH0 KECCAK256 SWAP1 POP PUSH0 DUP2 PUSH1 0x2 ADD DUP1 SLOAD SWAP1 POP PUSH8 0xFFFFFFFFFFFFFFFF DUP2 GT ISZERO PUSH2 0x7FC JUMPI PUSH2 0x7FB PUSH2 0xF61 JUMP JUMPDEST JUMPDEST PUSH1 0x40 MLOAD SWAP1 DUP1 DUP3 MSTORE DUP1 PUSH1 0x20 MUL PUSH1 0x20 ADD DUP3 ADD PUSH1 0x40 MSTORE DUP1 ISZERO PUSH2 0x82F JUMPI DUP2 PUSH1 0x20 ADD JUMPDEST PUSH1 0x60 DUP2 MSTORE PUSH1 0x20 ADD SWAP1 PUSH1 0x1 SWAP1 SUB SWAP1 DUP2 PUSH2 0x81A JUMPI SWAP1 POP JUMPDEST POP SWAP1 POP PUSH0 JUMPDEST DUP3 PUSH1 0x2 ADD DUP1 SLOAD SWAP1 POP DUP2 LT ISZERO PUSH2 0x938 JUMPI DUP3 PUSH1 0x1 ADD DUP4 PUSH1 0x2 ADD DUP3 DUP2 SLOAD DUP2 LT PUSH2 0x85D JUMPI PUSH2 0x85C PUSH2 0x154E JUMP JUMPDEST JUMPDEST SWAP1 PUSH0 MSTORE PUSH1 0x20 PUSH0 KECCAK256 ADD PUSH1 0x40 MLOAD PUSH2 0x872 SWAP2 SWAP1 PUSH2 0x19F0 JUMP JUMPDEST SWAP1 DUP2 MSTORE PUSH1 0x20 ADD PUSH1 0x40 MLOAD DUP1 SWAP2 SUB SWAP1 KECCAK256 DUP1 SLOAD PUSH2 0x88B SWAP1 PUSH2 0x15F8 JUMP JUMPDEST DUP1 PUSH1 0x1F ADD PUSH1 0x20 DUP1 SWAP2 DIV MUL PUSH1 0x20 ADD PUSH1 0x40 MLOAD SWAP1 DUP2 ADD PUSH1 0x40 MSTORE DUP1 SWAP3 SWAP2 SWAP1 DUP2 DUP2 MSTORE PUSH1 0x20 ADD DUP3 DUP1 SLOAD PUSH2 0x8B7 SWAP1 PUSH2 0x15F8 JUMP JUMPDEST DUP1 ISZERO PUSH2 0x902 JUMPI DUP1 PUSH1 0x1F LT PUSH2 0x8D9 JUMPI PUSH2 0x100 DUP1 DUP4 SLOAD DIV MUL DUP4 MSTORE SWAP2 PUSH1 0x20 ADD SWAP2 PUSH2 0x902 JUMP JUMPDEST DUP3 ADD SWAP2 SWAP1 PUSH0 MSTORE PUSH1 0x20 PUSH0 KECCAK256 SWAP1 JUMPDEST DUP2 SLOAD DUP2 MSTORE SWAP1 PUSH1 0x1 ADD SWAP1 PUSH1 0x20 ADD DUP1 DUP4 GT PUSH2 0x8E5 JUMPI DUP3 SWAP1 SUB PUSH1 0x1F AND DUP3 ADD SWAP2 JUMPDEST POP POP POP POP POP DUP3 DUP3 DUP2 MLOAD DUP2 LT PUSH2 0x91A JUMPI PUSH2 0x919 PUSH2 0x154E JUMP JUMPDEST JUMPDEST PUSH1 0x20 MUL PUSH1 0x20 ADD ADD DUP2 SWAP1 MSTORE POP DUP1 DUP1 PUSH2 0x930 SWAP1 PUSH2 0x18C1 JUMP JUMPDEST SWAP2 POP POP PUSH2 0x834 JUMP JUMPDEST POP DUP2 PUSH1 0x2 ADD DUP2 DUP2 DUP1 SLOAD DUP1 PUSH1 0x20 MUL PUSH1 0x20 ADD PUSH1 0x40 MLOAD SWAP1 DUP2 ADD PUSH1 0x40 MSTORE DUP1 SWAP3 SWAP2 SWAP1 DUP2 DUP2 MSTORE PUSH1 0x20 ADD PUSH0 SWAP1 JUMPDEST DUP3 DUP3 LT ISZERO PUSH2 0xA06 JUMPI DUP4 DUP3 SWAP1 PUSH0 MSTORE PUSH1 0x20 PUSH0 KECCAK256 ADD DUP1 SLOAD PUSH2 0x97B SWAP1 PUSH2 0x15F8 JUMP JUMPDEST DUP1 PUSH1 0x1F ADD PUSH1 0x20 DUP1 SWAP2 DIV MUL PUSH1 0x20 ADD PUSH1 0x40 MLOAD SWAP1 DUP2 ADD PUSH1 0x40 MSTORE DUP1 SWAP3 SWAP2 SWAP1 DUP2 DUP2 MSTORE PUSH1 0x20 ADD DUP3 DUP1 SLOAD PUSH2 0x9A7 SWAP1 PUSH2 0x15F8 JUMP JUMPDEST DUP1 ISZERO PUSH2 0x9F2 JUMPI DUP1 PUSH1 0x1F LT PUSH2 0x9C9 JUMPI PUSH2 0x100 DUP1 DUP4 SLOAD DIV MUL DUP4 MSTORE SWAP2 PUSH1 0x20 ADD SWAP2 PUSH2 0x9F2 JUMP JUMPDEST DUP3 ADD SWAP2 SWAP1 PUSH0 MSTORE PUSH1 0x20 PUSH0 KECCAK256 SWAP1 JUMPDEST DUP2 SLOAD DUP2 MSTORE SWAP1 PUSH1 0x1 ADD SWAP1 PUSH1 0x20 ADD DUP1 DUP4 GT PUSH2 0x9D5 JUMPI DUP3 SWAP1 SUB PUSH1 0x1F AND DUP3 ADD SWAP2 JUMPDEST POP POP POP POP POP DUP2 MSTORE PUSH1 0x20 ADD SWAP1 PUSH1 0x1 ADD SWAP1 PUSH2 0x95E JUMP JUMPDEST POP POP POP POP SWAP2 POP SWAP5 POP SWAP5 POP POP POP POP SWAP2 POP SWAP2 JUMP JUMPDEST DUP1 CALLER PUSH20 0xFFFFFFFFFFFFFFFFFFFFFFFFFFFFFFFFFFFFFFFF AND PUSH1 0x1 PUSH0 CALLER PUSH20 0xFFFFFFFFFFFFFFFFFFFFFFFFFFFFFFFFFFFFFFFF AND PUSH20 0xFFFFFFFFFFFFFFFFFFFFFFFFFFFFFFFFFFFFFFFF AND DUP2 MSTORE PUSH1 0x20 ADD SWAP1 DUP2 MSTORE PUSH1 0x20 ADD PUSH0 KECCAK256 PUSH0 DUP4 DUP2 MSTORE PUSH1 0x20 ADD SWAP1 DUP2 MSTORE PUSH1 0x20 ADD PUSH0 KECCAK256 PUSH0 ADD PUSH0 SWAP1 SLOAD SWAP1 PUSH2 0x100 EXP SWAP1 DIV PUSH20 0xFFFFFFFFFFFFFFFFFFFFFFFFFFFFFFFFFFFFFFFF AND PUSH20 0xFFFFFFFFFFFFFFFFFFFFFFFFFFFFFFFFFFFFFFFF AND EQ PUSH2 0xAF4 JUMPI PUSH1 0x40 MLOAD PUSH32 0x8C379A000000000000000000000000000000000000000000000000000000000 DUP2 MSTORE PUSH1 0x4 ADD PUSH2 0xAEB SWAP1 PUSH2 0x14A2 JUMP JUMPDEST PUSH1 0x40 MLOAD DUP1 SWAP2 SUB SWAP1 REVERT JUMPDEST PUSH0 JUMPDEST PUSH1 0x2 PUSH0 CALLER PUSH20 0xFFFFFFFFFFFFFFFFFFFFFFFFFFFFFFFFFFFFFFFF AND PUSH20 0xFFFFFFFFFFFFFFFFFFFFFFFFFFFFFFFFFFFFFFFF AND DUP2 MSTORE PUSH1 0x20 ADD SWAP1 DUP2 MSTORE PUSH1 0x20 ADD PUSH0 KECCAK256 DUP1 SLOAD SWAP1 POP DUP2 LT ISZERO PUSH2 0xBB9 JUMPI DUP3 PUSH1 0x2 PUSH0 CALLER PUSH20 0xFFFFFFFFFFFFFFFFFFFFFFFFFFFFFFFFFFFFFFFF AND PUSH20 0xFFFFFFFFFFFFFFFFFFFFFFFFFFFFFFFFFFFFFFFF AND DUP2 MSTORE PUSH1 0x20 ADD SWAP1 DUP2 MSTORE PUSH1 0x20 ADD PUSH0 KECCAK256 DUP3 DUP2 SLOAD DUP2 LT PUSH2 0xB8E JUMPI PUSH2 0xB8D PUSH2 0x154E JUMP JUMPDEST JUMPDEST SWAP1 PUSH0 MSTORE PUSH1 0x20 PUSH0 KECCAK256 ADD SLOAD SUB PUSH2 0xBA6 JUMPI PUSH2 0xBA5 DUP2 PUSH2 0xC41 JUMP JUMPDEST JUMPDEST DUP1 DUP1 PUSH2 0xBB1 SWAP1 PUSH2 0x18C1 JUMP JUMPDEST SWAP2 POP POP PUSH2 0xAF6 JUMP JUMPDEST POP PUSH1 0x1 PUSH0 CALLER PUSH20 0xFFFFFFFFFFFFFFFFFFFFFFFFFFFFFFFFFFFFFFFF AND PUSH20 0xFFFFFFFFFFFFFFFFFFFFFFFFFFFFFFFFFFFFFFFF AND DUP2 MSTORE PUSH1 0x20 ADD SWAP1 DUP2 MSTORE PUSH1 0x20 ADD PUSH0 KECCAK256 PUSH0 DUP4 DUP2 MSTORE PUSH1 0x20 ADD SWAP1 DUP2 MSTORE PUSH1 0x20 ADD PUSH0 KECCAK256 PUSH0 DUP1 DUP3 ADD PUSH0 PUSH2 0x100 EXP DUP2 SLOAD SWAP1 PUSH20 0xFFFFFFFFFFFFFFFFFFFFFFFFFFFFFFFFFFFFFFFF MUL NOT AND SWAP1 SSTORE PUSH1 0x2 DUP3 ADD PUSH0 PUSH2 0xC3B SWAP2 SWAP1 PUSH2 0xE70 JUMP JUMPDEST POP POP POP POP JUMP JUMPDEST PUSH1 0x2 PUSH0 CALLER PUSH20 0xFFFFFFFFFFFFFFFFFFFFFFFFFFFFFFFFFFFFFFFF AND PUSH20 0xFFFFFFFFFFFFFFFFFFFFFFFFFFFFFFFFFFFFFFFF AND DUP2 MSTORE PUSH1 0x20 ADD SWAP1 DUP2 MSTORE PUSH1 0x20 ADD PUSH0 KECCAK256 DUP1 SLOAD SWAP1 POP DUP2 LT ISZERO PUSH2 0xE16 JUMPI PUSH0 DUP2 SWAP1 POP JUMPDEST PUSH1 0x1 PUSH1 0x2 PUSH0 CALLER PUSH20 0xFFFFFFFFFFFFFFFFFFFFFFFFFFFFFFFFFFFFFFFF AND PUSH20 0xFFFFFFFFFFFFFFFFFFFFFFFFFFFFFFFFFFFFFFFF AND DUP2 MSTORE PUSH1 0x20 ADD SWAP1 DUP2 MSTORE PUSH1 0x20 ADD PUSH0 KECCAK256 DUP1 SLOAD SWAP1 POP PUSH2 0xCDB SWAP2 SWAP1 PUSH2 0x1A06 JUMP JUMPDEST DUP2 LT ISZERO PUSH2 0xDB4 JUMPI PUSH1 0x2 PUSH0 CALLER PUSH20 0xFFFFFFFFFFFFFFFFFFFFFFFFFFFFFFFFFFFFFFFF AND PUSH20 0xFFFFFFFFFFFFFFFFFFFFFFFFFFFFFFFFFFFFFFFF AND DUP2 MSTORE PUSH1 0x20 ADD SWAP1 DUP2 MSTORE PUSH1 0x20 ADD PUSH0 KECCAK256 PUSH1 0x1 DUP3 PUSH2 0xD2C SWAP2 SWAP1 PUSH2 0x1A39 JUMP JUMPDEST DUP2 SLOAD DUP2 LT PUSH2 0xD3D JUMPI PUSH2 0xD3C PUSH2 0x154E JUMP JUMPDEST JUMPDEST SWAP1 PUSH0 MSTORE PUSH1 0x20 PUSH0 KECCAK256 ADD SLOAD PUSH1 0x2 PUSH0 CALLER PUSH20 0xFFFFFFFFFFFFFFFFFFFFFFFFFFFFFFFFFFFFFFFF AND PUSH20 0xFFFFFFFFFFFFFFFFFFFFFFFFFFFFFFFFFFFFFFFF AND DUP2 MSTORE PUSH1 0x20 ADD SWAP1 DUP2 MSTORE PUSH1 0x20 ADD PUSH0 KECCAK256 DUP3 DUP2 SLOAD DUP2 LT PUSH2 0xD95 JUMPI PUSH2 0xD94 PUSH2 0x154E JUMP JUMPDEST JUMPDEST SWAP1 PUSH0 MSTORE PUSH1 0x20 PUSH0 KECCAK256 ADD DUP2 SWAP1 SSTORE POP DUP1 DUP1 PUSH2 0xDAC SWAP1 PUSH2 0x18C1 JUMP JUMPDEST SWAP2 POP POP PUSH2 0xC8E JUMP JUMPDEST POP PUSH1 0x2 PUSH0 CALLER PUSH20 0xFFFFFFFFFFFFFFFFFFFFFFFFFFFFFFFFFFFFFFFF AND PUSH20 0xFFFFFFFFFFFFFFFFFFFFFFFFFFFFFFFFFFFFFFFF AND DUP2 MSTORE PUSH1 0x20 ADD SWAP1 DUP2 MSTORE PUSH1 0x20 ADD PUSH0 KECCAK256 DUP1 SLOAD DUP1 PUSH2 0xE02 JUMPI PUSH2 0xE01 PUSH2 0x1A6C JUMP JUMPDEST JUMPDEST PUSH1 0x1 SWAP1 SUB DUP2 DUP2 SWAP1 PUSH0 MSTORE PUSH1 0x20 PUSH0 KECCAK256 ADD PUSH0 SWAP1 SSTORE SWAP1 SSTORE JUMPDEST POP JUMP JUMPDEST DUP3 DUP1 SLOAD DUP3 DUP3 SSTORE SWAP1 PUSH0 MSTORE PUSH1 0x20 PUSH0 KECCAK256 SWAP1 DUP2 ADD SWAP3 DUP3 ISZERO PUSH2 0xE5F JUMPI SWAP2 PUSH1 0x20 MUL DUP3 ADD JUMPDEST DUP3 DUP2 GT ISZERO PUSH2 0xE5E JUMPI DUP3 MLOAD DUP3 SWAP1 DUP2 PUSH2 0xE4E SWAP2 SWAP1 PUSH2 0x17C5 JUMP JUMPDEST POP SWAP2 PUSH1 0x20 ADD SWAP2 SWAP1 PUSH1 0x1 ADD SWAP1 PUSH2 0xE37 JUMP JUMPDEST JUMPDEST POP SWAP1 POP PUSH2 0xE6C SWAP2 SWAP1 PUSH2 0xE8E JUMP JUMPDEST POP SWAP1 JUMP JUMPDEST POP DUP1 SLOAD PUSH0 DUP3 SSTORE SWAP1 PUSH0 MSTORE PUSH1 0x20 PUSH0 KECCAK256 SWAP1 DUP2 ADD SWAP1 PUSH2 0xE8B SWAP2 SWAP1 PUSH2 0xE8E JUMP JUMPDEST POP JUMP JUMPDEST JUMPDEST DUP1 DUP3 GT ISZERO PUSH2 0xEAD JUMPI PUSH0 DUP2 DUP2 PUSH2 0xEA4 SWAP2 SWAP1 PUSH2 0xEB1 JUMP JUMPDEST POP PUSH1 0x1 ADD PUSH2 0xE8F JUMP JUMPDEST POP SWAP1 JUMP JUMPDEST POP DUP1 SLOAD PUSH2 0xEBD SWAP1 PUSH2 0x15F8 JUMP JUMPDEST PUSH0 DUP3 SSTORE DUP1 PUSH1 0x1F LT PUSH2 0xECE JUMPI POP PUSH2 0xEEB JUMP JUMPDEST PUSH1 0x1F ADD PUSH1 0x20 SWAP1 DIV SWAP1 PUSH0 MSTORE PUSH1 0x20 PUSH0 KECCAK256 SWAP1 DUP2 ADD SWAP1 PUSH2 0xEEA SWAP2 SWAP1 PUSH2 0xEEE JUMP JUMPDEST JUMPDEST POP JUMP JUMPDEST JUMPDEST DUP1 DUP3 GT ISZERO PUSH2 0xF05 JUMPI PUSH0 DUP2 PUSH0 SWAP1 SSTORE POP PUSH1 0x1 ADD PUSH2 0xEEF JUMP JUMPDEST POP SWAP1 JUMP JUMPDEST PUSH0 PUSH1 0x40 MLOAD SWAP1 POP SWAP1 JUMP JUMPDEST PUSH0 DUP1 REVERT JUMPDEST PUSH0 DUP1 REVERT JUMPDEST PUSH0 DUP2 SWAP1 POP SWAP2 SWAP1 POP JUMP JUMPDEST PUSH2 0xF2C DUP2 PUSH2 0xF1A JUMP JUMPDEST DUP2 EQ PUSH2 0xF36 JUMPI PUSH0 DUP1 REVERT JUMPDEST POP JUMP JUMPDEST PUSH0 DUP2 CALLDATALOAD SWAP1 POP PUSH2 0xF47 DUP2 PUSH2 0xF23 JUMP JUMPDEST SWAP3 SWAP2 POP POP JUMP JUMPDEST PUSH0 DUP1 REVERT JUMPDEST PUSH0 PUSH1 0x1F NOT PUSH1 0x1F DUP4 ADD AND SWAP1 POP SWAP2 SWAP1 POP JUMP JUMPDEST PUSH32 0x4E487B7100000000000000000000000000000000000000000000000000000000 PUSH0 MSTORE PUSH1 0x41 PUSH1 0x4 MSTORE PUSH1 0x24 PUSH0 REVERT JUMPDEST PUSH2 0xF97 DUP3 PUSH2 0xF51 JUMP JUMPDEST DUP2 ADD DUP2 DUP2 LT PUSH8 0xFFFFFFFFFFFFFFFF DUP3 GT OR ISZERO PUSH2 0xFB6 JUMPI PUSH2 0xFB5 PUSH2 0xF61 JUMP JUMPDEST JUMPDEST DUP1 PUSH1 0x40 MSTORE POP POP POP JUMP JUMPDEST PUSH0 PUSH2 0xFC8 PUSH2 0xF09 JUMP JUMPDEST SWAP1 POP PUSH2 0xFD4 DUP3 DUP3 PUSH2 0xF8E JUMP JUMPDEST SWAP2 SWAP1 POP JUMP JUMPDEST PUSH0 PUSH8 0xFFFFFFFFFFFFFFFF DUP3 GT ISZERO PUSH2 0xFF3 JUMPI PUSH2 0xFF2 PUSH2 0xF61 JUMP JUMPDEST JUMPDEST PUSH1 0x20 DUP3 MUL SWAP1 POP PUSH1 0x20 DUP2 ADD SWAP1 POP SWAP2 SWAP1 POP JUMP JUMPDEST PUSH0 DUP1 REVERT JUMPDEST PUSH0 DUP1 REVERT JUMPDEST PUSH0 PUSH8 0xFFFFFFFFFFFFFFFF DUP3 GT ISZERO PUSH2 0x1026 JUMPI PUSH2 0x1025 PUSH2 0xF61 JUMP JUMPDEST JUMPDEST PUSH2 0x102F DUP3 PUSH2 0xF51 JUMP JUMPDEST SWAP1 POP PUSH1 0x20 DUP2 ADD SWAP1 POP SWAP2 SWAP1 POP JUMP JUMPDEST DUP3 DUP2 DUP4 CALLDATACOPY PUSH0 DUP4 DUP4 ADD MSTORE POP POP POP JUMP JUMPDEST PUSH0 PUSH2 0x105C PUSH2 0x1057 DUP5 PUSH2 0x100C JUMP JUMPDEST PUSH2 0xFBF JUMP JUMPDEST SWAP1 POP DUP3 DUP2 MSTORE PUSH1 0x20 DUP2 ADD DUP5 DUP5 DUP5 ADD GT ISZERO PUSH2 0x1078 JUMPI PUSH2 0x1077 PUSH2 0x1008 JUMP JUMPDEST JUMPDEST PUSH2 0x1083 DUP5 DUP3 DUP6 PUSH2 0x103C JUMP JUMPDEST POP SWAP4 SWAP3 POP POP POP JUMP JUMPDEST PUSH0 DUP3 PUSH1 0x1F DUP4 ADD SLT PUSH2 0x109F JUMPI PUSH2 0x109E PUSH2 0xF4D JUMP JUMPDEST JUMPDEST DUP2 CALLDATALOAD PUSH2 0x10AF DUP5 DUP3 PUSH1 0x20 DUP7 ADD PUSH2 0x104A JUMP JUMPDEST SWAP2 POP POP SWAP3 SWAP2 POP POP JUMP JUMPDEST PUSH0 PUSH2 0x10CA PUSH2 0x10C5 DUP5 PUSH2 0xFD9 JUMP JUMPDEST PUSH2 0xFBF JUMP JUMPDEST SWAP1 POP DUP1 DUP4 DUP3 MSTORE PUSH1 0x20 DUP3 ADD SWAP1 POP PUSH1 0x20 DUP5 MUL DUP4 ADD DUP6 DUP2 GT ISZERO PUSH2 0x10ED JUMPI PUSH2 0x10EC PUSH2 0x1004 JUMP JUMPDEST JUMPDEST DUP4 JUMPDEST DUP2 DUP2 LT ISZERO PUSH2 0x1134 JUMPI DUP1 CALLDATALOAD PUSH8 0xFFFFFFFFFFFFFFFF DUP2 GT ISZERO PUSH2 0x1112 JUMPI PUSH2 0x1111 PUSH2 0xF4D JUMP JUMPDEST JUMPDEST DUP1 DUP7 ADD PUSH2 0x111F DUP10 DUP3 PUSH2 0x108B JUMP JUMPDEST DUP6 MSTORE PUSH1 0x20 DUP6 ADD SWAP5 POP POP POP PUSH1 0x20 DUP2 ADD SWAP1 POP PUSH2 0x10EF JUMP JUMPDEST POP POP POP SWAP4 SWAP3 POP POP POP JUMP JUMPDEST PUSH0 DUP3 PUSH1 0x1F DUP4 ADD SLT PUSH2 0x1152 JUMPI PUSH2 0x1151 PUSH2 0xF4D JUMP JUMPDEST JUMPDEST DUP2 CALLDATALOAD PUSH2 0x1162 DUP5 DUP3 PUSH1 0x20 DUP7 ADD PUSH2 0x10B8 JUMP JUMPDEST SWAP2 POP POP SWAP3 SWAP2 POP POP JUMP JUMPDEST PUSH0 DUP1 PUSH0 PUSH1 0x60 DUP5 DUP7 SUB SLT ISZERO PUSH2 0x1182 JUMPI PUSH2 0x1181 PUSH2 0xF12 JUMP JUMPDEST JUMPDEST PUSH0 PUSH2 0x118F DUP7 DUP3 DUP8 ADD PUSH2 0xF39 JUMP JUMPDEST SWAP4 POP POP PUSH1 0x20 DUP5 ADD CALLDATALOAD PUSH8 0xFFFFFFFFFFFFFFFF DUP2 GT ISZERO PUSH2 0x11B0 JUMPI PUSH2 0x11AF PUSH2 0xF16 JUMP JUMPDEST JUMPDEST PUSH2 0x11BC DUP7 DUP3 DUP8 ADD PUSH2 0x113E JUMP JUMPDEST SWAP3 POP POP PUSH1 0x40 DUP5 ADD CALLDATALOAD PUSH8 0xFFFFFFFFFFFFFFFF DUP2 GT ISZERO PUSH2 0x11DD JUMPI PUSH2 0x11DC PUSH2 0xF16 JUMP JUMPDEST JUMPDEST PUSH2 0x11E9 DUP7 DUP3 DUP8 ADD PUSH2 0x113E JUMP JUMPDEST SWAP2 POP POP SWAP3 POP SWAP3 POP SWAP3 JUMP JUMPDEST PUSH2 0x11FC DUP2 PUSH2 0xF1A JUMP JUMPDEST DUP3 MSTORE POP POP JUMP JUMPDEST PUSH0 PUSH1 0x20 DUP3 ADD SWAP1 POP PUSH2 0x1215 PUSH0 DUP4 ADD DUP5 PUSH2 0x11F3 JUMP JUMPDEST SWAP3 SWAP2 POP POP JUMP JUMPDEST PUSH0 PUSH20 0xFFFFFFFFFFFFFFFFFFFFFFFFFFFFFFFFFFFFFFFF DUP3 AND SWAP1 POP SWAP2 SWAP1 POP JUMP JUMPDEST PUSH0 PUSH2 0x1244 DUP3 PUSH2 0x121B JUMP JUMPDEST SWAP1 POP SWAP2 SWAP1 POP JUMP JUMPDEST PUSH2 0x1254 DUP2 PUSH2 0x123A JUMP JUMPDEST DUP2 EQ PUSH2 0x125E JUMPI PUSH0 DUP1 REVERT JUMPDEST POP JUMP JUMPDEST PUSH0 DUP2 CALLDATALOAD SWAP1 POP PUSH2 0x126F DUP2 PUSH2 0x124B JUMP JUMPDEST SWAP3 SWAP2 POP POP JUMP JUMPDEST PUSH0 DUP1 PUSH1 0x40 DUP4 DUP6 SUB SLT ISZERO PUSH2 0x128B JUMPI PUSH2 0x128A PUSH2 0xF12 JUMP JUMPDEST JUMPDEST PUSH0 PUSH2 0x1298 DUP6 DUP3 DUP7 ADD PUSH2 0x1261 JUMP JUMPDEST SWAP3 POP POP PUSH1 0x20 PUSH2 0x12A9 DUP6 DUP3 DUP7 ADD PUSH2 0xF39 JUMP JUMPDEST SWAP2 POP POP SWAP3 POP SWAP3 SWAP1 POP JUMP JUMPDEST PUSH0 PUSH1 0x20 DUP3 DUP5 SUB SLT ISZERO PUSH2 0x12C8 JUMPI PUSH2 0x12C7 PUSH2 0xF12 JUMP JUMPDEST JUMPDEST PUSH0 PUSH2 0x12D5 DUP5 DUP3 DUP6 ADD PUSH2 0xF39 JUMP JUMPDEST SWAP2 POP POP SWAP3 SWAP2 POP POP JUMP JUMPDEST PUSH0 DUP2 MLOAD SWAP1 POP SWAP2 SWAP1 POP JUMP JUMPDEST PUSH0 DUP3 DUP3 MSTORE PUSH1 0x20 DUP3 ADD SWAP1 POP SWAP3 SWAP2 POP POP JUMP JUMPDEST PUSH0 DUP2 SWAP1 POP PUSH1 0x20 DUP3 ADD SWAP1 POP SWAP2 SWAP1 POP JUMP JUMPDEST PUSH0 DUP2 MLOAD SWAP1 POP SWAP2 SWAP1 POP JUMP JUMPDEST PUSH0 DUP3 DUP3 MSTORE PUSH1 0x20 DUP3 ADD SWAP1 POP SWAP3 SWAP2 POP POP JUMP JUMPDEST PUSH0 JUMPDEST DUP4 DUP2 LT ISZERO PUSH2 0x133E JUMPI DUP1 DUP3 ADD MLOAD DUP2 DUP5 ADD MSTORE PUSH1 0x20 DUP2 ADD SWAP1 POP PUSH2 0x1323 JUMP JUMPDEST PUSH0 DUP5 DUP5 ADD MSTORE POP POP POP POP JUMP JUMPDEST PUSH0 PUSH2 0x1353 DUP3 PUSH2 0x1307 JUMP JUMPDEST PUSH2 0x135D DUP2 DUP6 PUSH2 0x1311 JUMP JUMPDEST SWAP4 POP PUSH2 0x136D DUP2 DUP6 PUSH1 0x20 DUP7 ADD PUSH2 0x1321 JUMP JUMPDEST PUSH2 0x1376 DUP2 PUSH2 0xF51 JUMP JUMPDEST DUP5 ADD SWAP2 POP POP SWAP3 SWAP2 POP POP JUMP JUMPDEST PUSH0 PUSH2 0x138C DUP4 DUP4 PUSH2 0x1349 JUMP JUMPDEST SWAP1 POP SWAP3 SWAP2 POP POP JUMP JUMPDEST PUSH0 PUSH1 0x20 DUP3 ADD SWAP1 POP SWAP2 SWAP1 POP JUMP JUMPDEST PUSH0 PUSH2 0x13AA DUP3 PUSH2 0x12DE JUMP JUMPDEST PUSH2 0x13B4 DUP2 DUP6 PUSH2 0x12E8 JUMP JUMPDEST SWAP4 POP DUP4 PUSH1 0x20 DUP3 MUL DUP6 ADD PUSH2 0x13C6 DUP6 PUSH2 0x12F8 JUMP JUMPDEST DUP1 PUSH0 JUMPDEST DUP6 DUP2 LT ISZERO PUSH2 0x1401 JUMPI DUP5 DUP5 SUB DUP10 MSTORE DUP2 MLOAD PUSH2 0x13E2 DUP6 DUP3 PUSH2 0x1381 JUMP JUMPDEST SWAP5 POP PUSH2 0x13ED DUP4 PUSH2 0x1394 JUMP JUMPDEST SWAP3 POP PUSH1 0x20 DUP11 ADD SWAP10 POP POP PUSH1 0x1 DUP2 ADD SWAP1 POP PUSH2 0x13C9 JUMP JUMPDEST POP DUP3 SWAP8 POP DUP8 SWAP6 POP POP POP POP POP POP SWAP3 SWAP2 POP POP JUMP JUMPDEST PUSH0 PUSH1 0x40 DUP3 ADD SWAP1 POP DUP2 DUP2 SUB PUSH0 DUP4 ADD MSTORE PUSH2 0x142B DUP2 DUP6 PUSH2 0x13A0 JUMP JUMPDEST SWAP1 POP DUP2 DUP2 SUB PUSH1 0x20 DUP4 ADD MSTORE PUSH2 0x143F DUP2 DUP5 PUSH2 0x13A0 JUMP JUMPDEST SWAP1 POP SWAP4 SWAP3 POP POP POP JUMP JUMPDEST PUSH0 DUP3 DUP3 MSTORE PUSH1 0x20 DUP3 ADD SWAP1 POP SWAP3 SWAP2 POP POP JUMP JUMPDEST PUSH32 0x5B4552524F525D204944206E6F7420617661696C61626C650000000000000000 PUSH0 DUP3 ADD MSTORE POP JUMP JUMPDEST PUSH0 PUSH2 0x148C PUSH1 0x18 DUP4 PUSH2 0x1448 JUMP JUMPDEST SWAP2 POP PUSH2 0x1497 DUP3 PUSH2 0x1458 JUMP JUMPDEST PUSH1 0x20 DUP3 ADD SWAP1 POP SWAP2 SWAP1 POP JUMP JUMPDEST PUSH0 PUSH1 0x20 DUP3 ADD SWAP1 POP DUP2 DUP2 SUB PUSH0 DUP4 ADD MSTORE PUSH2 0x14B9 DUP2 PUSH2 0x1480 JUMP JUMPDEST SWAP1 POP SWAP2 SWAP1 POP JUMP JUMPDEST PUSH32 0x5B4552524F525D20546865206C656E677468206F6620746865206B6579732061 PUSH0 DUP3 ADD MSTORE PUSH32 0x6E642076616C75657320617265206E6F746520657175616C0000000000000000 PUSH1 0x20 DUP3 ADD MSTORE POP JUMP JUMPDEST PUSH0 PUSH2 0x151A PUSH1 0x38 DUP4 PUSH2 0x1448 JUMP JUMPDEST SWAP2 POP PUSH2 0x1525 DUP3 PUSH2 0x14C0 JUMP JUMPDEST PUSH1 0x40 DUP3 ADD SWAP1 POP SWAP2 SWAP1 POP JUMP JUMPDEST PUSH0 PUSH1 0x20 DUP3 ADD SWAP1 POP DUP2 DUP2 SUB PUSH0 DUP4 ADD MSTORE PUSH2 0x1547 DUP2 PUSH2 0x150E JUMP JUMPDEST SWAP1 POP SWAP2 SWAP1 POP JUMP JUMPDEST PUSH32 0x4E487B7100000000000000000000000000000000000000000000000000000000 PUSH0 MSTORE PUSH1 0x32 PUSH1 0x4 MSTORE PUSH1 0x24 PUSH0 REVERT JUMPDEST PUSH0 DUP2 SWAP1 POP SWAP3 SWAP2 POP POP JUMP JUMPDEST PUSH0 PUSH2 0x158F DUP3 PUSH2 0x1307 JUMP JUMPDEST PUSH2 0x1599 DUP2 DUP6 PUSH2 0x157B JUMP JUMPDEST SWAP4 POP PUSH2 0x15A9 DUP2 DUP6 PUSH1 0x20 DUP7 ADD PUSH2 0x1321 JUMP JUMPDEST DUP1 DUP5 ADD SWAP2 POP POP SWAP3 SWAP2 POP POP JUMP JUMPDEST PUSH0 PUSH2 0x15C0 DUP3 DUP5 PUSH2 0x1585 JUMP JUMPDEST SWAP2 POP DUP2 SWAP1 POP SWAP3 SWAP2 POP POP JUMP JUMPDEST PUSH32 0x4E487B7100000000000000000000000000000000000000000000000000000000 PUSH0 MSTORE PUSH1 0x22 PUSH1 0x4 MSTORE PUSH1 0x24 PUSH0 REVERT JUMPDEST PUSH0 PUSH1 0x2 DUP3 DIV SWAP1 POP PUSH1 0x1 DUP3 AND DUP1 PUSH2 0x160F JUMPI PUSH1 0x7F DUP3 AND SWAP2 POP JUMPDEST PUSH1 0x20 DUP3 LT DUP2 SUB PUSH2 0x1622 JUMPI PUSH2 0x1621 PUSH2 0x15CB JUMP JUMPDEST JUMPDEST POP SWAP2 SWAP1 POP JUMP JUMPDEST PUSH0 DUP2 SWAP1 POP DUP2 PUSH0 MSTORE PUSH1 0x20 PUSH0 KECCAK256 SWAP1 POP SWAP2 SWAP1 POP JUMP JUMPDEST PUSH0 PUSH1 0x20 PUSH1 0x1F DUP4 ADD DIV SWAP1 POP SWAP2 SWAP1 POP JUMP JUMPDEST PUSH0 DUP3 DUP3 SHL SWAP1 POP SWAP3 SWAP2 POP POP JUMP JUMPDEST PUSH0 PUSH1 0x8 DUP4 MUL PUSH2 0x1684 PUSH32 0xFFFFFFFFFFFFFFFFFFFFFFFFFFFFFFFFFFFFFFFFFFFFFFFFFFFFFFFFFFFFFFFF DUP3 PUSH2 0x1649 JUMP JUMPDEST PUSH2 0x168E DUP7 DUP4 PUSH2 0x1649 JUMP JUMPDEST SWAP6 POP DUP1 NOT DUP5 AND SWAP4 POP DUP1 DUP7 AND DUP5 OR SWAP3 POP POP POP SWAP4 SWAP3 POP POP POP JUMP JUMPDEST PUSH0 DUP2 SWAP1 POP SWAP2 SWAP1 POP JUMP JUMPDEST PUSH0 PUSH2 0x16C9 PUSH2 0x16C4 PUSH2 0x16BF DUP5 PUSH2 0xF1A JUMP JUMPDEST PUSH2 0x16A6 JUMP JUMPDEST PUSH2 0xF1A JUMP JUMPDEST SWAP1 POP SWAP2 SWAP1 POP JUMP JUMPDEST PUSH0 DUP2 SWAP1 POP SWAP2 SWAP1 POP JUMP JUMPDEST PUSH2 0x16E2 DUP4 PUSH2 0x16AF JUMP JUMPDEST PUSH2 0x16F6 PUSH2 0x16EE DUP3 PUSH2 0x16D0 JUMP JUMPDEST DUP5 DUP5 SLOAD PUSH2 0x1655 JUMP JUMPDEST DUP3 SSTORE POP POP POP POP JUMP JUMPDEST PUSH0 SWAP1 JUMP JUMPDEST PUSH2 0x170A PUSH2 0x16FE JUMP JUMPDEST PUSH2 0x1715 DUP2 DUP5 DUP5 PUSH2 0x16D9 JUMP JUMPDEST POP POP POP JUMP JUMPDEST JUMPDEST DUP2 DUP2 LT ISZERO PUSH2 0x1738 JUMPI PUSH2 0x172D PUSH0 DUP3 PUSH2 0x1702 JUMP JUMPDEST PUSH1 0x1 DUP2 ADD SWAP1 POP PUSH2 0x171B JUMP JUMPDEST POP POP JUMP JUMPDEST PUSH1 0x1F DUP3 GT ISZERO PUSH2 0x177D JUMPI PUSH2 0x174E DUP2 PUSH2 0x1628 JUMP JUMPDEST PUSH2 0x1757 DUP5 PUSH2 0x163A JUMP JUMPDEST DUP2 ADD PUSH1 0x20 DUP6 LT ISZERO PUSH2 0x1766 JUMPI DUP2 SWAP1 POP JUMPDEST PUSH2 0x177A PUSH2 0x1772 DUP6 PUSH2 0x163A JUMP JUMPDEST DUP4 ADD DUP3 PUSH2 0x171A JUMP JUMPDEST POP POP JUMPDEST POP POP POP JUMP JUMPDEST PUSH0 DUP3 DUP3 SHR SWAP1 POP SWAP3 SWAP2 POP POP JUMP JUMPDEST PUSH0 PUSH2 0x179D PUSH0 NOT DUP5 PUSH1 0x8 MUL PUSH2 0x1782 JUMP JUMPDEST NOT DUP1 DUP4 AND SWAP2 POP POP SWAP3 SWAP2 POP POP JUMP JUMPDEST PUSH0 PUSH2 0x17B5 DUP4 DUP4 PUSH2 0x178E JUMP JUMPDEST SWAP2 POP DUP3 PUSH1 0x2 MUL DUP3 OR SWAP1 POP SWAP3 SWAP2 POP POP JUMP JUMPDEST PUSH2 0x17CE DUP3 PUSH2 0x1307 JUMP JUMPDEST PUSH8 0xFFFFFFFFFFFFFFFF DUP2 GT ISZERO PUSH2 0x17E7 JUMPI PUSH2 0x17E6 PUSH2 0xF61 JUMP JUMPDEST JUMPDEST PUSH2 0x17F1 DUP3 SLOAD PUSH2 0x15F8 JUMP JUMPDEST PUSH2 0x17FC DUP3 DUP3 DUP6 PUSH2 0x173C JUMP JUMPDEST PUSH0 PUSH1 0x20 SWAP1 POP PUSH1 0x1F DUP4 GT PUSH1 0x1 DUP2 EQ PUSH2 0x182D JUMPI PUSH0 DUP5 ISZERO PUSH2 0x181B JUMPI DUP3 DUP8 ADD MLOAD SWAP1 POP JUMPDEST PUSH2 0x1825 DUP6 DUP3 PUSH2 0x17AA JUMP JUMPDEST DUP7 SSTORE POP PUSH2 0x188C JUMP JUMPDEST PUSH1 0x1F NOT DUP5 AND PUSH2 0x183B DUP7 PUSH2 0x1628 JUMP JUMPDEST PUSH0 JUMPDEST DUP3 DUP2 LT ISZERO PUSH2 0x1862 JUMPI DUP5 DUP10 ADD MLOAD DUP3 SSTORE PUSH1 0x1 DUP3 ADD SWAP2 POP PUSH1 0x20 DUP6 ADD SWAP5 POP PUSH1 0x20 DUP2 ADD SWAP1 POP PUSH2 0x183D JUMP JUMPDEST DUP7 DUP4 LT ISZERO PUSH2 0x187F JUMPI DUP5 DUP10 ADD MLOAD PUSH2 0x187B PUSH1 0x1F DUP10 AND DUP3 PUSH2 0x178E JUMP JUMPDEST DUP4 SSTORE POP JUMPDEST PUSH1 0x1 PUSH1 0x2 DUP9 MUL ADD DUP9 SSTORE POP POP POP JUMPDEST POP POP POP POP POP POP JUMP JUMPDEST PUSH32 0x4E487B7100000000000000000000000000000000000000000000000000000000 PUSH0 MSTORE PUSH1 0x11 PUSH1 0x4 MSTORE PUSH1 0x24 PUSH0 REVERT JUMPDEST PUSH0 PUSH2 0x18CB DUP3 PUSH2 0xF1A JUMP JUMPDEST SWAP2 POP PUSH32 0xFFFFFFFFFFFFFFFFFFFFFFFFFFFFFFFFFFFFFFFFFFFFFFFFFFFFFFFFFFFFFFFF DUP3 SUB PUSH2 0x18FD JUMPI PUSH2 0x18FC PUSH2 0x1894 JUMP JUMPDEST JUMPDEST PUSH1 0x1 DUP3 ADD SWAP1 POP SWAP2 SWAP1 POP JUMP JUMPDEST PUSH32 0x5B4552524F525D20494420616C7761797320696E207573650000000000000000 PUSH0 DUP3 ADD MSTORE POP JUMP JUMPDEST PUSH0 PUSH2 0x193C PUSH1 0x18 DUP4 PUSH2 0x1448 JUMP JUMPDEST SWAP2 POP PUSH2 0x1947 DUP3 PUSH2 0x1908 JUMP JUMPDEST PUSH1 0x20 DUP3 ADD SWAP1 POP SWAP2 SWAP1 POP JUMP JUMPDEST PUSH0 PUSH1 0x20 DUP3 ADD SWAP1 POP DUP2 DUP2 SUB PUSH0 DUP4 ADD MSTORE PUSH2 0x1969 DUP2 PUSH2 0x1930 JUMP JUMPDEST SWAP1 POP SWAP2 SWAP1 POP JUMP JUMPDEST PUSH0 DUP2 SLOAD PUSH2 0x197C DUP2 PUSH2 0x15F8 JUMP JUMPDEST PUSH2 0x1986 DUP2 DUP7 PUSH2 0x157B JUMP JUMPDEST SWAP5 POP PUSH1 0x1 DUP3 AND PUSH0 DUP2 EQ PUSH2 0x19A0 JUMPI PUSH1 0x1 DUP2 EQ PUSH2 0x19B5 JUMPI PUSH2 0x19E7 JUMP JUMPDEST PUSH1 0xFF NOT DUP4 AND DUP7 MSTORE DUP2 ISZERO ISZERO DUP3 MUL DUP7 ADD SWAP4 POP PUSH2 0x19E7 JUMP JUMPDEST PUSH2 0x19BE DUP6 PUSH2 0x1628 JUMP JUMPDEST PUSH0 JUMPDEST DUP4 DUP2 LT ISZERO PUSH2 0x19DF JUMPI DUP2 SLOAD DUP2 DUP10 ADD MSTORE PUSH1 0x1 DUP3 ADD SWAP2 POP PUSH1 0x20 DUP2 ADD SWAP1 POP PUSH2 0x19C0 JUMP JUMPDEST DUP4 DUP9 ADD SWAP6 POP POP POP JUMPDEST POP POP POP SWAP3 SWAP2 POP POP JUMP JUMPDEST PUSH0 PUSH2 0x19FB DUP3 DUP5 PUSH2 0x1970 JUMP JUMPDEST SWAP2 POP DUP2 SWAP1 POP SWAP3 SWAP2 POP POP JUMP JUMPDEST PUSH0 PUSH2 0x1A10 DUP3 PUSH2 0xF1A JUMP JUMPDEST SWAP2 POP PUSH2 0x1A1B DUP4 PUSH2 0xF1A JUMP JUMPDEST SWAP3 POP DUP3 DUP3 SUB SWAP1 POP DUP2 DUP2 GT ISZERO PUSH2 0x1A33 JUMPI PUSH2 0x1A32 PUSH2 0x1894 JUMP JUMPDEST JUMPDEST SWAP3 SWAP2 POP POP JUMP JUMPDEST PUSH0 PUSH2 0x1A43 DUP3 PUSH2 0xF1A JUMP JUMPDEST SWAP2 POP PUSH2 0x1A4E DUP4 PUSH2 0xF1A JUMP JUMPDEST SWAP3 POP DUP3 DUP3 ADD SWAP1 POP DUP1 DUP3 GT ISZERO PUSH2 0x1A66 JUMPI PUSH2 0x1A65 PUSH2 0x1894 JUMP JUMPDEST JUMPDEST SWAP3 SWAP2 POP POP JUMP JUMPDEST PUSH32 0x4E487B7100000000000000000000000000000000000000000000000000000000 PUSH0 MSTORE PUSH1 0x31 PUSH1 0x4 MSTORE PUSH1 0x24 PUSH0 REVERT INVALID LOG2 PUSH5 0x6970667358 0x22 SLT KECCAK256 DUP14 MULMOD PREVRANDAO 0xD4 ADDRESS DUP5 0xD9 MULMOD 0xC9 0xB6 PUSH11 0x60B233F7AA3451F099608D SWAP9 0xEA JUMPI 0xCD SWAP8 0xE8 RETURNDATACOPY 0x4D CALLER BALANCE PUSH5 0x736F6C6343 STOP ADDMOD EQ STOP CALLER "
				},
				"gasEstimates": {
					"creation": {
						"codeDepositCost": "1372600",
						"executionCost": "25694",
						"totalCost": "1398294"
					},
					"external": {
						"addItemToAdress(uint256,string[],string[])": "infinite",
						"getAmountOfItems()": "2527",
						"getAttributesOfItemByID(uint256)": "infinite",
						"itemIdList(address,uint256)": "infinite",
						"removeItemFromAddress(uint256)": "infinite",
						"updateItemFromAddress(uint256,string[],string[])": "infinite"
					},
					"internal": {
						"removeItemFromArray(uint256)": "infinite"
					}
				},
				"methodIdentifiers": {
					"addItemToAdress(uint256,string[],string[])": "4f6e9de4",
					"getAmountOfItems()": "40c8068d",
					"getAttributesOfItemByID(uint256)": "97ff7ae0",
					"itemIdList(address,uint256)": "4f3623e4",
					"removeItemFromAddress(uint256)": "ba54b7bf",
					"updateItemFromAddress(uint256,string[],string[])": "32636123"
				}
			},
			"storageLayout": {
				"storage": [
					{
						"astId": 3,
						"contract": "contracts/ItemOwnership.sol:ItemOwnership",
						"label": "owner",
						"offset": 0,
						"slot": "0",
						"type": "t_address"
					},
					{
						"astId": 32,
						"contract": "contracts/ItemOwnership.sol:ItemOwnership",
						"label": "itemDatabase",
						"offset": 0,
						"slot": "1",
						"type": "t_mapping(t_address,t_mapping(t_uint256,t_struct(Item)47_storage))"
					},
					{
						"astId": 37,
						"contract": "contracts/ItemOwnership.sol:ItemOwnership",
						"label": "itemIdList",
						"offset": 0,
						"slot": "2",
						"type": "t_mapping(t_address,t_array(t_uint256)dyn_storage)"
					}
				],
				"types": {
					"t_address": {
						"encoding": "inplace",
						"label": "address",
						"numberOfBytes": "20"
					},
					"t_array(t_string_storage)dyn_storage": {
						"base": "t_string_storage",
						"encoding": "dynamic_array",
						"label": "string[]",
						"numberOfBytes": "32"
					},
					"t_array(t_uint256)dyn_storage": {
						"base": "t_uint256",
						"encoding": "dynamic_array",
						"label": "uint256[]",
						"numberOfBytes": "32"
					},
					"t_mapping(t_address,t_array(t_uint256)dyn_storage)": {
						"encoding": "mapping",
						"key": "t_address",
						"label": "mapping(address => uint256[])",
						"numberOfBytes": "32",
						"value": "t_array(t_uint256)dyn_storage"
					},
					"t_mapping(t_address,t_mapping(t_uint256,t_struct(Item)47_storage))": {
						"encoding": "mapping",
						"key": "t_address",
						"label": "mapping(address => mapping(uint256 => struct ItemValidator.Item))",
						"numberOfBytes": "32",
						"value": "t_mapping(t_uint256,t_struct(Item)47_storage)"
					},
					"t_mapping(t_string_memory_ptr,t_string_storage)": {
						"encoding": "mapping",
						"key": "t_string_memory_ptr",
						"label": "mapping(string => string)",
						"numberOfBytes": "32",
						"value": "t_string_storage"
					},
					"t_mapping(t_uint256,t_struct(Item)47_storage)": {
						"encoding": "mapping",
						"key": "t_uint256",
						"label": "mapping(uint256 => struct ItemValidator.Item)",
						"numberOfBytes": "32",
						"value": "t_struct(Item)47_storage"
					},
					"t_string_memory_ptr": {
						"encoding": "bytes",
						"label": "string",
						"numberOfBytes": "32"
					},
					"t_string_storage": {
						"encoding": "bytes",
						"label": "string",
						"numberOfBytes": "32"
					},
					"t_struct(Item)47_storage": {
						"encoding": "inplace",
						"label": "struct ItemValidator.Item",
						"members": [
							{
								"astId": 39,
								"contract": "contracts/ItemOwnership.sol:ItemOwnership",
								"label": "owner",
								"offset": 0,
								"slot": "0",
								"type": "t_address"
							},
							{
								"astId": 43,
								"contract": "contracts/ItemOwnership.sol:ItemOwnership",
								"label": "attributes",
								"offset": 0,
								"slot": "1",
								"type": "t_mapping(t_string_memory_ptr,t_string_storage)"
							},
							{
								"astId": 46,
								"contract": "contracts/ItemOwnership.sol:ItemOwnership",
								"label": "attributeKeys",
								"offset": 0,
								"slot": "2",
								"type": "t_array(t_string_storage)dyn_storage"
							}
						],
						"numberOfBytes": "96"
					},
					"t_uint256": {
						"encoding": "inplace",
						"label": "uint256",
						"numberOfBytes": "32"
					}
				}
			},
			"userdoc": {
				"kind": "user",
				"methods": {},
				"version": 1
			}
		}
	}
}