{
	"contracts/ItemOwnership.sol": {
		"ItemOwnership": {
			"abi": [
				{
					"inputs": [],
					"stateMutability": "nonpayable",
					"type": "constructor"
				},
				{
					"inputs": [
						{
							"internalType": "uint256",
							"name": "_id",
							"type": "uint256"
						},
						{
							"internalType": "string[]",
							"name": "_attributeKeys",
							"type": "string[]"
						},
						{
							"internalType": "string[]",
							"name": "_attributeValues",
							"type": "string[]"
						}
					],
					"name": "addItemToAdress",
					"outputs": [],
					"stateMutability": "nonpayable",
					"type": "function"
				},
				{
					"inputs": [],
					"name": "getAllItemsFromAddress",
					"outputs": [
						{
							"internalType": "uint256[]",
							"name": "",
							"type": "uint256[]"
						}
					],
					"stateMutability": "view",
					"type": "function"
				},
				{
					"inputs": [],
					"name": "getAmountOfItems",
					"outputs": [
						{
							"internalType": "uint256",
							"name": "",
							"type": "uint256"
						}
					],
					"stateMutability": "view",
					"type": "function"
				},
				{
					"inputs": [
						{
							"internalType": "uint256",
							"name": "_id",
							"type": "uint256"
						}
					],
					"name": "getAttributesOfItemByID",
					"outputs": [
						{
							"internalType": "string[]",
							"name": "",
							"type": "string[]"
						},
						{
							"internalType": "string[]",
							"name": "",
							"type": "string[]"
						}
					],
					"stateMutability": "view",
					"type": "function"
				},
				{
					"inputs": [
						{
							"internalType": "uint256",
							"name": "_id",
							"type": "uint256"
						}
					],
					"name": "removeItemFromAddress",
					"outputs": [],
					"stateMutability": "nonpayable",
					"type": "function"
				},
				{
					"inputs": [
						{
							"internalType": "uint256",
							"name": "_id",
							"type": "uint256"
						},
						{
							"internalType": "string[]",
							"name": "_attributeKeys",
							"type": "string[]"
						},
						{
							"internalType": "string[]",
							"name": "_attributeValues",
							"type": "string[]"
						}
					],
					"name": "updateItemFromAddress",
					"outputs": [],
					"stateMutability": "nonpayable",
					"type": "function"
				}
			],
			"devdoc": {
				"kind": "dev",
				"methods": {},
				"version": 1
			},
			"evm": {
				"assembly": "    /* \"contracts/ItemOwnership.sol\":1028:4139  contract ItemOwnership is ContractOwnable, ItemValidator {... */\n  mstore(0x40, 0x80)\n    /* \"contracts/ItemOwnership.sol\":1091:1127  constructor() {... */\n  callvalue\n  dup1\n  iszero\n  tag_1\n  jumpi\n  0x00\n  dup1\n  revert\ntag_1:\n  pop\n    /* \"contracts/ItemOwnership.sol\":360:370  msg.sender */\n  caller\n    /* \"contracts/ItemOwnership.sol\":352:357  owner */\n  0x00\n  dup1\n    /* \"contracts/ItemOwnership.sol\":352:370  owner = msg.sender */\n  0x0100\n  exp\n  dup2\n  sload\n  dup2\n  0xffffffffffffffffffffffffffffffffffffffff\n  mul\n  not\n  and\n  swap1\n  dup4\n  0xffffffffffffffffffffffffffffffffffffffff\n  and\n  mul\n  or\n  swap1\n  sstore\n  pop\n    /* \"contracts/ItemOwnership.sol\":1028:4139  contract ItemOwnership is ContractOwnable, ItemValidator {... */\n  dataSize(sub_0)\n  dup1\n  dataOffset(sub_0)\n  0x00\n  codecopy\n  0x00\n  return\nstop\n\nsub_0: assembly {\n        /* \"contracts/ItemOwnership.sol\":1028:4139  contract ItemOwnership is ContractOwnable, ItemValidator {... */\n      mstore(0x40, 0x80)\n      callvalue\n      dup1\n      iszero\n      tag_1\n      jumpi\n      0x00\n      dup1\n      revert\n    tag_1:\n      pop\n      jumpi(tag_2, lt(calldatasize, 0x04))\n      shr(0xe0, calldataload(0x00))\n      dup1\n      0x32636123\n      eq\n      tag_3\n      jumpi\n      dup1\n      0x40c8068d\n      eq\n      tag_4\n      jumpi\n      dup1\n      0x4f6e9de4\n      eq\n      tag_5\n      jumpi\n      dup1\n      0x97ff7ae0\n      eq\n      tag_6\n      jumpi\n      dup1\n      0xba54b7bf\n      eq\n      tag_7\n      jumpi\n      dup1\n      0xf6ebbb76\n      eq\n      tag_8\n      jumpi\n    tag_2:\n      0x00\n      dup1\n      revert\n        /* \"contracts/ItemOwnership.sol\":2774:3391  function updateItemFromAddress(... */\n    tag_3:\n      tag_9\n      0x04\n      dup1\n      calldatasize\n      sub\n      dup2\n      add\n      swap1\n      tag_10\n      swap2\n      swap1\n      tag_11\n      jump\t// in\n    tag_10:\n      tag_12\n      jump\t// in\n    tag_9:\n      stop\n        /* \"contracts/ItemOwnership.sol\":3397:3508  function getAmountOfItems() public view returns (uint256) {... */\n    tag_4:\n      tag_13\n      tag_14\n      jump\t// in\n    tag_13:\n      mload(0x40)\n      tag_15\n      swap2\n      swap1\n      tag_16\n      jump\t// in\n    tag_15:\n      mload(0x40)\n      dup1\n      swap2\n      sub\n      swap1\n      return\n        /* \"contracts/ItemOwnership.sol\":1152:1817  function addItemToAdress(... */\n    tag_5:\n      tag_17\n      0x04\n      dup1\n      calldatasize\n      sub\n      dup2\n      add\n      swap1\n      tag_18\n      swap2\n      swap1\n      tag_11\n      jump\t// in\n    tag_18:\n      tag_19\n      jump\t// in\n    tag_17:\n      stop\n        /* \"contracts/ItemOwnership.sol\":1823:2356  function getAttributesOfItemByID(uint256 _id)... */\n    tag_6:\n      tag_20\n      0x04\n      dup1\n      calldatasize\n      sub\n      dup2\n      add\n      swap1\n      tag_21\n      swap2\n      swap1\n      tag_22\n      jump\t// in\n    tag_21:\n      tag_23\n      jump\t// in\n    tag_20:\n      mload(0x40)\n      tag_24\n      swap3\n      swap2\n      swap1\n      tag_25\n      jump\t// in\n    tag_24:\n      mload(0x40)\n      dup1\n      swap2\n      sub\n      swap1\n      return\n        /* \"contracts/ItemOwnership.sol\":2362:2768  function removeItemFromAddress(uint256 _id) public itemIsAvailable(_id) {... */\n    tag_7:\n      tag_26\n      0x04\n      dup1\n      calldatasize\n      sub\n      dup2\n      add\n      swap1\n      tag_27\n      swap2\n      swap1\n      tag_22\n      jump\t// in\n    tag_27:\n      tag_28\n      jump\t// in\n    tag_26:\n      stop\n        /* \"contracts/ItemOwnership.sol\":3862:3980  function getAllItemsFromAddress() public view returns(uint256[] memory) {... */\n    tag_8:\n      tag_29\n      tag_30\n      jump\t// in\n    tag_29:\n      mload(0x40)\n      tag_31\n      swap2\n      swap1\n      tag_32\n      jump\t// in\n    tag_31:\n      mload(0x40)\n      dup1\n      swap2\n      sub\n      swap1\n      return\n        /* \"contracts/ItemOwnership.sol\":2774:3391  function updateItemFromAddress(... */\n    tag_12:\n        /* \"contracts/ItemOwnership.sol\":2937:2940  _id */\n      dup3\n        /* \"contracts/ItemOwnership.sol\":754:764  msg.sender */\n      caller\n        /* \"contracts/ItemOwnership.sol\":715:764  itemDatabase[msg.sender][_id].owner == msg.sender */\n      0xffffffffffffffffffffffffffffffffffffffff\n      and\n        /* \"contracts/ItemOwnership.sol\":715:727  itemDatabase */\n      0x01\n        /* \"contracts/ItemOwnership.sol\":715:739  itemDatabase[msg.sender] */\n      0x00\n        /* \"contracts/ItemOwnership.sol\":728:738  msg.sender */\n      caller\n        /* \"contracts/ItemOwnership.sol\":715:739  itemDatabase[msg.sender] */\n      0xffffffffffffffffffffffffffffffffffffffff\n      and\n      0xffffffffffffffffffffffffffffffffffffffff\n      and\n      dup2\n      mstore\n      0x20\n      add\n      swap1\n      dup2\n      mstore\n      0x20\n      add\n      0x00\n      keccak256\n        /* \"contracts/ItemOwnership.sol\":715:744  itemDatabase[msg.sender][_id] */\n      0x00\n        /* \"contracts/ItemOwnership.sol\":740:743  _id */\n      dup4\n        /* \"contracts/ItemOwnership.sol\":715:744  itemDatabase[msg.sender][_id] */\n      dup2\n      mstore\n      0x20\n      add\n      swap1\n      dup2\n      mstore\n      0x20\n      add\n      0x00\n      keccak256\n        /* \"contracts/ItemOwnership.sol\":715:750  itemDatabase[msg.sender][_id].owner */\n      0x00\n      add\n      0x00\n      swap1\n      sload\n      swap1\n      0x0100\n      exp\n      swap1\n      div\n      0xffffffffffffffffffffffffffffffffffffffff\n      and\n        /* \"contracts/ItemOwnership.sol\":715:764  itemDatabase[msg.sender][_id].owner == msg.sender */\n      0xffffffffffffffffffffffffffffffffffffffff\n      and\n      eq\n        /* \"contracts/ItemOwnership.sol\":694:814  require(... */\n      tag_34\n      jumpi\n      mload(0x40)\n      0x08c379a000000000000000000000000000000000000000000000000000000000\n      dup2\n      mstore\n      0x04\n      add\n      tag_35\n      swap1\n      tag_36\n      jump\t// in\n    tag_35:\n      mload(0x40)\n      dup1\n      swap2\n      sub\n      swap1\n      revert\n    tag_34:\n        /* \"contracts/ItemOwnership.sol\":2998:3014  _attributeValues */\n      dup2\n        /* \"contracts/ItemOwnership.sol\":2998:3021  _attributeValues.length */\n      mload\n        /* \"contracts/ItemOwnership.sol\":2973:2987  _attributeKeys */\n      dup4\n        /* \"contracts/ItemOwnership.sol\":2973:2994  _attributeKeys.length */\n      mload\n        /* \"contracts/ItemOwnership.sol\":2973:3021  _attributeKeys.length == _attributeValues.length */\n      eq\n        /* \"contracts/ItemOwnership.sol\":2952:3103  require(... */\n      tag_38\n      jumpi\n      mload(0x40)\n      0x08c379a000000000000000000000000000000000000000000000000000000000\n      dup2\n      mstore\n      0x04\n      add\n      tag_39\n      swap1\n      tag_40\n      jump\t// in\n    tag_39:\n      mload(0x40)\n      dup1\n      swap2\n      sub\n      swap1\n      revert\n    tag_38:\n        /* \"contracts/ItemOwnership.sol\":3114:3131  Item storage item */\n      0x00\n        /* \"contracts/ItemOwnership.sol\":3134:3146  itemDatabase */\n      0x01\n        /* \"contracts/ItemOwnership.sol\":3134:3158  itemDatabase[msg.sender] */\n      0x00\n        /* \"contracts/ItemOwnership.sol\":3147:3157  msg.sender */\n      caller\n        /* \"contracts/ItemOwnership.sol\":3134:3158  itemDatabase[msg.sender] */\n      0xffffffffffffffffffffffffffffffffffffffff\n      and\n      0xffffffffffffffffffffffffffffffffffffffff\n      and\n      dup2\n      mstore\n      0x20\n      add\n      swap1\n      dup2\n      mstore\n      0x20\n      add\n      0x00\n      keccak256\n        /* \"contracts/ItemOwnership.sol\":3134:3163  itemDatabase[msg.sender][_id] */\n      0x00\n        /* \"contracts/ItemOwnership.sol\":3159:3162  _id */\n      dup7\n        /* \"contracts/ItemOwnership.sol\":3134:3163  itemDatabase[msg.sender][_id] */\n      dup2\n      mstore\n      0x20\n      add\n      swap1\n      dup2\n      mstore\n      0x20\n      add\n      0x00\n      keccak256\n        /* \"contracts/ItemOwnership.sol\":3114:3163  Item storage item = itemDatabase[msg.sender][_id] */\n      swap1\n      pop\n        /* \"contracts/ItemOwnership.sol\":3186:3196  msg.sender */\n      caller\n        /* \"contracts/ItemOwnership.sol\":3173:3177  item */\n      dup2\n        /* \"contracts/ItemOwnership.sol\":3173:3183  item.owner */\n      0x00\n      add\n      0x00\n        /* \"contracts/ItemOwnership.sol\":3173:3196  item.owner = msg.sender */\n      0x0100\n      exp\n      dup2\n      sload\n      dup2\n      0xffffffffffffffffffffffffffffffffffffffff\n      mul\n      not\n      and\n      swap1\n      dup4\n      0xffffffffffffffffffffffffffffffffffffffff\n      and\n      mul\n      or\n      swap1\n      sstore\n      pop\n        /* \"contracts/ItemOwnership.sol\":3212:3221  uint256 i */\n      0x00\n        /* \"contracts/ItemOwnership.sol\":3207:3340  for (uint256 i = 0; i < _attributeKeys.length; i++) {... */\n    tag_41:\n        /* \"contracts/ItemOwnership.sol\":3231:3245  _attributeKeys */\n      dup5\n        /* \"contracts/ItemOwnership.sol\":3231:3252  _attributeKeys.length */\n      mload\n        /* \"contracts/ItemOwnership.sol\":3227:3228  i */\n      dup2\n        /* \"contracts/ItemOwnership.sol\":3227:3252  i < _attributeKeys.length */\n      lt\n        /* \"contracts/ItemOwnership.sol\":3207:3340  for (uint256 i = 0; i < _attributeKeys.length; i++) {... */\n      iszero\n      tag_42\n      jumpi\n        /* \"contracts/ItemOwnership.sol\":3310:3326  _attributeValues */\n      dup4\n        /* \"contracts/ItemOwnership.sol\":3327:3328  i */\n      dup2\n        /* \"contracts/ItemOwnership.sol\":3310:3329  _attributeValues[i] */\n      dup2\n      mload\n      dup2\n      lt\n      tag_44\n      jumpi\n      tag_45\n      tag_46\n      jump\t// in\n    tag_45:\n    tag_44:\n      0x20\n      mul\n      0x20\n      add\n      add\n      mload\n        /* \"contracts/ItemOwnership.sol\":3273:3277  item */\n      dup3\n        /* \"contracts/ItemOwnership.sol\":3273:3288  item.attributes */\n      0x01\n      add\n        /* \"contracts/ItemOwnership.sol\":3289:3303  _attributeKeys */\n      dup7\n        /* \"contracts/ItemOwnership.sol\":3304:3305  i */\n      dup4\n        /* \"contracts/ItemOwnership.sol\":3289:3306  _attributeKeys[i] */\n      dup2\n      mload\n      dup2\n      lt\n      tag_47\n      jumpi\n      tag_48\n      tag_46\n      jump\t// in\n    tag_48:\n    tag_47:\n      0x20\n      mul\n      0x20\n      add\n      add\n      mload\n        /* \"contracts/ItemOwnership.sol\":3273:3307  item.attributes[_attributeKeys[i]] */\n      mload(0x40)\n      tag_49\n      swap2\n      swap1\n      tag_50\n      jump\t// in\n    tag_49:\n      swap1\n      dup2\n      mstore\n      0x20\n      add\n      mload(0x40)\n      dup1\n      swap2\n      sub\n      swap1\n      keccak256\n        /* \"contracts/ItemOwnership.sol\":3273:3329  item.attributes[_attributeKeys[i]] = _attributeValues[i] */\n      swap1\n      dup2\n      tag_51\n      swap2\n      swap1\n      tag_52\n      jump\t// in\n    tag_51:\n      pop\n        /* \"contracts/ItemOwnership.sol\":3254:3257  i++ */\n      dup1\n      dup1\n      tag_53\n      swap1\n      tag_54\n      jump\t// in\n    tag_53:\n      swap2\n      pop\n      pop\n        /* \"contracts/ItemOwnership.sol\":3207:3340  for (uint256 i = 0; i < _attributeKeys.length; i++) {... */\n      jump(tag_41)\n    tag_42:\n      pop\n        /* \"contracts/ItemOwnership.sol\":3370:3384  _attributeKeys */\n      dup4\n        /* \"contracts/ItemOwnership.sol\":3349:3353  item */\n      dup2\n        /* \"contracts/ItemOwnership.sol\":3349:3367  item.attributeKeys */\n      0x02\n      add\n        /* \"contracts/ItemOwnership.sol\":3349:3384  item.attributeKeys = _attributeKeys */\n      swap1\n      dup1\n      mload\n      swap1\n      0x20\n      add\n      swap1\n      tag_55\n      swap3\n      swap2\n      swap1\n      tag_56\n      jump\t// in\n    tag_55:\n      pop\n        /* \"contracts/ItemOwnership.sol\":2942:3391  {... */\n      pop\n        /* \"contracts/ItemOwnership.sol\":2774:3391  function updateItemFromAddress(... */\n      pop\n      pop\n      pop\n      pop\n      jump\t// out\n        /* \"contracts/ItemOwnership.sol\":3397:3508  function getAmountOfItems() public view returns (uint256) {... */\n    tag_14:\n        /* \"contracts/ItemOwnership.sol\":3446:3453  uint256 */\n      0x00\n        /* \"contracts/ItemOwnership.sol\":3472:3482  itemIdList */\n      0x02\n        /* \"contracts/ItemOwnership.sol\":3472:3494  itemIdList[msg.sender] */\n      0x00\n        /* \"contracts/ItemOwnership.sol\":3483:3493  msg.sender */\n      caller\n        /* \"contracts/ItemOwnership.sol\":3472:3494  itemIdList[msg.sender] */\n      0xffffffffffffffffffffffffffffffffffffffff\n      and\n      0xffffffffffffffffffffffffffffffffffffffff\n      and\n      dup2\n      mstore\n      0x20\n      add\n      swap1\n      dup2\n      mstore\n      0x20\n      add\n      0x00\n      keccak256\n        /* \"contracts/ItemOwnership.sol\":3472:3501  itemIdList[msg.sender].length */\n      dup1\n      sload\n      swap1\n      pop\n        /* \"contracts/ItemOwnership.sol\":3465:3501  return itemIdList[msg.sender].length */\n      swap1\n      pop\n        /* \"contracts/ItemOwnership.sol\":3397:3508  function getAmountOfItems() public view returns (uint256) {... */\n      swap1\n      jump\t// out\n        /* \"contracts/ItemOwnership.sol\":1152:1817  function addItemToAdress(... */\n    tag_19:\n        /* \"contracts/ItemOwnership.sol\":1309:1312  _id */\n      dup3\n        /* \"contracts/ItemOwnership.sol\":946:956  msg.sender */\n      caller\n        /* \"contracts/ItemOwnership.sol\":907:956  itemDatabase[msg.sender][_id].owner != msg.sender */\n      0xffffffffffffffffffffffffffffffffffffffff\n      and\n        /* \"contracts/ItemOwnership.sol\":907:919  itemDatabase */\n      0x01\n        /* \"contracts/ItemOwnership.sol\":907:931  itemDatabase[msg.sender] */\n      0x00\n        /* \"contracts/ItemOwnership.sol\":920:930  msg.sender */\n      caller\n        /* \"contracts/ItemOwnership.sol\":907:931  itemDatabase[msg.sender] */\n      0xffffffffffffffffffffffffffffffffffffffff\n      and\n      0xffffffffffffffffffffffffffffffffffffffff\n      and\n      dup2\n      mstore\n      0x20\n      add\n      swap1\n      dup2\n      mstore\n      0x20\n      add\n      0x00\n      keccak256\n        /* \"contracts/ItemOwnership.sol\":907:936  itemDatabase[msg.sender][_id] */\n      0x00\n        /* \"contracts/ItemOwnership.sol\":932:935  _id */\n      dup4\n        /* \"contracts/ItemOwnership.sol\":907:936  itemDatabase[msg.sender][_id] */\n      dup2\n      mstore\n      0x20\n      add\n      swap1\n      dup2\n      mstore\n      0x20\n      add\n      0x00\n      keccak256\n        /* \"contracts/ItemOwnership.sol\":907:942  itemDatabase[msg.sender][_id].owner */\n      0x00\n      add\n      0x00\n      swap1\n      sload\n      swap1\n      0x0100\n      exp\n      swap1\n      div\n      0xffffffffffffffffffffffffffffffffffffffff\n      and\n        /* \"contracts/ItemOwnership.sol\":907:956  itemDatabase[msg.sender][_id].owner != msg.sender */\n      0xffffffffffffffffffffffffffffffffffffffff\n      and\n      sub\n        /* \"contracts/ItemOwnership.sol\":886:1006  require(... */\n      tag_59\n      jumpi\n      mload(0x40)\n      0x08c379a000000000000000000000000000000000000000000000000000000000\n      dup2\n      mstore\n      0x04\n      add\n      tag_60\n      swap1\n      tag_61\n      jump\t// in\n    tag_60:\n      mload(0x40)\n      dup1\n      swap2\n      sub\n      swap1\n      revert\n    tag_59:\n        /* \"contracts/ItemOwnership.sol\":1370:1386  _attributeValues */\n      dup2\n        /* \"contracts/ItemOwnership.sol\":1370:1393  _attributeValues.length */\n      mload\n        /* \"contracts/ItemOwnership.sol\":1345:1359  _attributeKeys */\n      dup4\n        /* \"contracts/ItemOwnership.sol\":1345:1366  _attributeKeys.length */\n      mload\n        /* \"contracts/ItemOwnership.sol\":1345:1393  _attributeKeys.length == _attributeValues.length */\n      eq\n        /* \"contracts/ItemOwnership.sol\":1324:1475  require(... */\n      tag_63\n      jumpi\n      mload(0x40)\n      0x08c379a000000000000000000000000000000000000000000000000000000000\n      dup2\n      mstore\n      0x04\n      add\n      tag_64\n      swap1\n      tag_40\n      jump\t// in\n    tag_64:\n      mload(0x40)\n      dup1\n      swap2\n      sub\n      swap1\n      revert\n    tag_63:\n        /* \"contracts/ItemOwnership.sol\":1486:1506  Item storage newItem */\n      0x00\n        /* \"contracts/ItemOwnership.sol\":1509:1521  itemDatabase */\n      0x01\n        /* \"contracts/ItemOwnership.sol\":1509:1533  itemDatabase[msg.sender] */\n      0x00\n        /* \"contracts/ItemOwnership.sol\":1522:1532  msg.sender */\n      caller\n        /* \"contracts/ItemOwnership.sol\":1509:1533  itemDatabase[msg.sender] */\n      0xffffffffffffffffffffffffffffffffffffffff\n      and\n      0xffffffffffffffffffffffffffffffffffffffff\n      and\n      dup2\n      mstore\n      0x20\n      add\n      swap1\n      dup2\n      mstore\n      0x20\n      add\n      0x00\n      keccak256\n        /* \"contracts/ItemOwnership.sol\":1509:1538  itemDatabase[msg.sender][_id] */\n      0x00\n        /* \"contracts/ItemOwnership.sol\":1534:1537  _id */\n      dup7\n        /* \"contracts/ItemOwnership.sol\":1509:1538  itemDatabase[msg.sender][_id] */\n      dup2\n      mstore\n      0x20\n      add\n      swap1\n      dup2\n      mstore\n      0x20\n      add\n      0x00\n      keccak256\n        /* \"contracts/ItemOwnership.sol\":1486:1538  Item storage newItem = itemDatabase[msg.sender][_id] */\n      swap1\n      pop\n        /* \"contracts/ItemOwnership.sol\":1564:1574  msg.sender */\n      caller\n        /* \"contracts/ItemOwnership.sol\":1548:1555  newItem */\n      dup2\n        /* \"contracts/ItemOwnership.sol\":1548:1561  newItem.owner */\n      0x00\n      add\n      0x00\n        /* \"contracts/ItemOwnership.sol\":1548:1574  newItem.owner = msg.sender */\n      0x0100\n      exp\n      dup2\n      sload\n      dup2\n      0xffffffffffffffffffffffffffffffffffffffff\n      mul\n      not\n      and\n      swap1\n      dup4\n      0xffffffffffffffffffffffffffffffffffffffff\n      and\n      mul\n      or\n      swap1\n      sstore\n      pop\n        /* \"contracts/ItemOwnership.sol\":1590:1599  uint256 i */\n      0x00\n        /* \"contracts/ItemOwnership.sol\":1585:1721  for (uint256 i = 0; i < _attributeKeys.length; i++) {... */\n    tag_65:\n        /* \"contracts/ItemOwnership.sol\":1609:1623  _attributeKeys */\n      dup5\n        /* \"contracts/ItemOwnership.sol\":1609:1630  _attributeKeys.length */\n      mload\n        /* \"contracts/ItemOwnership.sol\":1605:1606  i */\n      dup2\n        /* \"contracts/ItemOwnership.sol\":1605:1630  i < _attributeKeys.length */\n      lt\n        /* \"contracts/ItemOwnership.sol\":1585:1721  for (uint256 i = 0; i < _attributeKeys.length; i++) {... */\n      iszero\n      tag_66\n      jumpi\n        /* \"contracts/ItemOwnership.sol\":1691:1707  _attributeValues */\n      dup4\n        /* \"contracts/ItemOwnership.sol\":1708:1709  i */\n      dup2\n        /* \"contracts/ItemOwnership.sol\":1691:1710  _attributeValues[i] */\n      dup2\n      mload\n      dup2\n      lt\n      tag_68\n      jumpi\n      tag_69\n      tag_46\n      jump\t// in\n    tag_69:\n    tag_68:\n      0x20\n      mul\n      0x20\n      add\n      add\n      mload\n        /* \"contracts/ItemOwnership.sol\":1651:1658  newItem */\n      dup3\n        /* \"contracts/ItemOwnership.sol\":1651:1669  newItem.attributes */\n      0x01\n      add\n        /* \"contracts/ItemOwnership.sol\":1670:1684  _attributeKeys */\n      dup7\n        /* \"contracts/ItemOwnership.sol\":1685:1686  i */\n      dup4\n        /* \"contracts/ItemOwnership.sol\":1670:1687  _attributeKeys[i] */\n      dup2\n      mload\n      dup2\n      lt\n      tag_70\n      jumpi\n      tag_71\n      tag_46\n      jump\t// in\n    tag_71:\n    tag_70:\n      0x20\n      mul\n      0x20\n      add\n      add\n      mload\n        /* \"contracts/ItemOwnership.sol\":1651:1688  newItem.attributes[_attributeKeys[i]] */\n      mload(0x40)\n      tag_72\n      swap2\n      swap1\n      tag_50\n      jump\t// in\n    tag_72:\n      swap1\n      dup2\n      mstore\n      0x20\n      add\n      mload(0x40)\n      dup1\n      swap2\n      sub\n      swap1\n      keccak256\n        /* \"contracts/ItemOwnership.sol\":1651:1710  newItem.attributes[_attributeKeys[i]] = _attributeValues[i] */\n      swap1\n      dup2\n      tag_73\n      swap2\n      swap1\n      tag_52\n      jump\t// in\n    tag_73:\n      pop\n        /* \"contracts/ItemOwnership.sol\":1632:1635  i++ */\n      dup1\n      dup1\n      tag_74\n      swap1\n      tag_54\n      jump\t// in\n    tag_74:\n      swap2\n      pop\n      pop\n        /* \"contracts/ItemOwnership.sol\":1585:1721  for (uint256 i = 0; i < _attributeKeys.length; i++) {... */\n      jump(tag_65)\n    tag_66:\n      pop\n        /* \"contracts/ItemOwnership.sol\":1754:1768  _attributeKeys */\n      dup4\n        /* \"contracts/ItemOwnership.sol\":1730:1737  newItem */\n      dup2\n        /* \"contracts/ItemOwnership.sol\":1730:1751  newItem.attributeKeys */\n      0x02\n      add\n        /* \"contracts/ItemOwnership.sol\":1730:1768  newItem.attributeKeys = _attributeKeys */\n      swap1\n      dup1\n      mload\n      swap1\n      0x20\n      add\n      swap1\n      tag_75\n      swap3\n      swap2\n      swap1\n      tag_56\n      jump\t// in\n    tag_75:\n      pop\n        /* \"contracts/ItemOwnership.sol\":1778:1788  itemIdList */\n      0x02\n        /* \"contracts/ItemOwnership.sol\":1778:1800  itemIdList[msg.sender] */\n      0x00\n        /* \"contracts/ItemOwnership.sol\":1789:1799  msg.sender */\n      caller\n        /* \"contracts/ItemOwnership.sol\":1778:1800  itemIdList[msg.sender] */\n      0xffffffffffffffffffffffffffffffffffffffff\n      and\n      0xffffffffffffffffffffffffffffffffffffffff\n      and\n      dup2\n      mstore\n      0x20\n      add\n      swap1\n      dup2\n      mstore\n      0x20\n      add\n      0x00\n      keccak256\n        /* \"contracts/ItemOwnership.sol\":1806:1809  _id */\n      dup6\n        /* \"contracts/ItemOwnership.sol\":1778:1810  itemIdList[msg.sender].push(_id) */\n      swap1\n      dup1\n      0x01\n      dup2\n      sload\n      add\n      dup1\n      dup3\n      sstore\n      dup1\n      swap2\n      pop\n      pop\n      0x01\n      swap1\n      sub\n      swap1\n      0x00\n      mstore\n      keccak256(0x00, 0x20)\n      add\n      0x00\n      swap1\n      swap2\n      swap1\n      swap2\n      swap1\n      swap2\n      pop\n      sstore\n        /* \"contracts/ItemOwnership.sol\":1314:1817  {... */\n      pop\n        /* \"contracts/ItemOwnership.sol\":1152:1817  function addItemToAdress(... */\n      pop\n      pop\n      pop\n      pop\n      jump\t// out\n        /* \"contracts/ItemOwnership.sol\":1823:2356  function getAttributesOfItemByID(uint256 _id)... */\n    tag_23:\n        /* \"contracts/ItemOwnership.sol\":1943:1958  string[] memory */\n      0x60\n        /* \"contracts/ItemOwnership.sol\":1960:1975  string[] memory */\n      dup1\n        /* \"contracts/ItemOwnership.sol\":1921:1924  _id */\n      dup3\n        /* \"contracts/ItemOwnership.sol\":754:764  msg.sender */\n      caller\n        /* \"contracts/ItemOwnership.sol\":715:764  itemDatabase[msg.sender][_id].owner == msg.sender */\n      0xffffffffffffffffffffffffffffffffffffffff\n      and\n        /* \"contracts/ItemOwnership.sol\":715:727  itemDatabase */\n      0x01\n        /* \"contracts/ItemOwnership.sol\":715:739  itemDatabase[msg.sender] */\n      0x00\n        /* \"contracts/ItemOwnership.sol\":728:738  msg.sender */\n      caller\n        /* \"contracts/ItemOwnership.sol\":715:739  itemDatabase[msg.sender] */\n      0xffffffffffffffffffffffffffffffffffffffff\n      and\n      0xffffffffffffffffffffffffffffffffffffffff\n      and\n      dup2\n      mstore\n      0x20\n      add\n      swap1\n      dup2\n      mstore\n      0x20\n      add\n      0x00\n      keccak256\n        /* \"contracts/ItemOwnership.sol\":715:744  itemDatabase[msg.sender][_id] */\n      0x00\n        /* \"contracts/ItemOwnership.sol\":740:743  _id */\n      dup4\n        /* \"contracts/ItemOwnership.sol\":715:744  itemDatabase[msg.sender][_id] */\n      dup2\n      mstore\n      0x20\n      add\n      swap1\n      dup2\n      mstore\n      0x20\n      add\n      0x00\n      keccak256\n        /* \"contracts/ItemOwnership.sol\":715:750  itemDatabase[msg.sender][_id].owner */\n      0x00\n      add\n      0x00\n      swap1\n      sload\n      swap1\n      0x0100\n      exp\n      swap1\n      div\n      0xffffffffffffffffffffffffffffffffffffffff\n      and\n        /* \"contracts/ItemOwnership.sol\":715:764  itemDatabase[msg.sender][_id].owner == msg.sender */\n      0xffffffffffffffffffffffffffffffffffffffff\n      and\n      eq\n        /* \"contracts/ItemOwnership.sol\":694:814  require(... */\n      tag_78\n      jumpi\n      mload(0x40)\n      0x08c379a000000000000000000000000000000000000000000000000000000000\n      dup2\n      mstore\n      0x04\n      add\n      tag_79\n      swap1\n      tag_36\n      jump\t// in\n    tag_79:\n      mload(0x40)\n      dup1\n      swap2\n      sub\n      swap1\n      revert\n    tag_78:\n        /* \"contracts/ItemOwnership.sol\":1991:2008  Item storage item */\n      0x00\n        /* \"contracts/ItemOwnership.sol\":2011:2023  itemDatabase */\n      0x01\n        /* \"contracts/ItemOwnership.sol\":2011:2035  itemDatabase[msg.sender] */\n      0x00\n        /* \"contracts/ItemOwnership.sol\":2024:2034  msg.sender */\n      caller\n        /* \"contracts/ItemOwnership.sol\":2011:2035  itemDatabase[msg.sender] */\n      0xffffffffffffffffffffffffffffffffffffffff\n      and\n      0xffffffffffffffffffffffffffffffffffffffff\n      and\n      dup2\n      mstore\n      0x20\n      add\n      swap1\n      dup2\n      mstore\n      0x20\n      add\n      0x00\n      keccak256\n        /* \"contracts/ItemOwnership.sol\":2011:2040  itemDatabase[msg.sender][_id] */\n      0x00\n        /* \"contracts/ItemOwnership.sol\":2036:2039  _id */\n      dup7\n        /* \"contracts/ItemOwnership.sol\":2011:2040  itemDatabase[msg.sender][_id] */\n      dup2\n      mstore\n      0x20\n      add\n      swap1\n      dup2\n      mstore\n      0x20\n      add\n      0x00\n      keccak256\n        /* \"contracts/ItemOwnership.sol\":1991:2040  Item storage item = itemDatabase[msg.sender][_id] */\n      swap1\n      pop\n        /* \"contracts/ItemOwnership.sol\":2050:2081  string[] memory attributeValues */\n      0x00\n        /* \"contracts/ItemOwnership.sol\":2110:2114  item */\n      dup2\n        /* \"contracts/ItemOwnership.sol\":2110:2128  item.attributeKeys */\n      0x02\n      add\n        /* \"contracts/ItemOwnership.sol\":2110:2135  item.attributeKeys.length */\n      dup1\n      sload\n      swap1\n      pop\n        /* \"contracts/ItemOwnership.sol\":2084:2145  new string[](... */\n      0xffffffffffffffff\n      dup2\n      gt\n      iszero\n      tag_81\n      jumpi\n      tag_82\n      tag_83\n      jump\t// in\n    tag_82:\n    tag_81:\n      mload(0x40)\n      swap1\n      dup1\n      dup3\n      mstore\n      dup1\n      0x20\n      mul\n      0x20\n      add\n      dup3\n      add\n      0x40\n      mstore\n      dup1\n      iszero\n      tag_84\n      jumpi\n      dup2\n      0x20\n      add\n    tag_85:\n      0x60\n      dup2\n      mstore\n      0x20\n      add\n      swap1\n      0x01\n      swap1\n      sub\n      swap1\n      dup2\n      tag_85\n      jumpi\n      swap1\n      pop\n    tag_84:\n      pop\n        /* \"contracts/ItemOwnership.sol\":2050:2145  string[] memory attributeValues = new string[](... */\n      swap1\n      pop\n        /* \"contracts/ItemOwnership.sol\":2161:2170  uint256 i */\n      0x00\n        /* \"contracts/ItemOwnership.sol\":2156:2296  for (uint256 i = 0; i < item.attributeKeys.length; i++) {... */\n    tag_86:\n        /* \"contracts/ItemOwnership.sol\":2180:2184  item */\n      dup3\n        /* \"contracts/ItemOwnership.sol\":2180:2198  item.attributeKeys */\n      0x02\n      add\n        /* \"contracts/ItemOwnership.sol\":2180:2205  item.attributeKeys.length */\n      dup1\n      sload\n      swap1\n      pop\n        /* \"contracts/ItemOwnership.sol\":2176:2177  i */\n      dup2\n        /* \"contracts/ItemOwnership.sol\":2176:2205  i < item.attributeKeys.length */\n      lt\n        /* \"contracts/ItemOwnership.sol\":2156:2296  for (uint256 i = 0; i < item.attributeKeys.length; i++) {... */\n      iszero\n      tag_87\n      jumpi\n        /* \"contracts/ItemOwnership.sol\":2247:2251  item */\n      dup3\n        /* \"contracts/ItemOwnership.sol\":2247:2262  item.attributes */\n      0x01\n      add\n        /* \"contracts/ItemOwnership.sol\":2263:2267  item */\n      dup4\n        /* \"contracts/ItemOwnership.sol\":2263:2281  item.attributeKeys */\n      0x02\n      add\n        /* \"contracts/ItemOwnership.sol\":2282:2283  i */\n      dup3\n        /* \"contracts/ItemOwnership.sol\":2263:2284  item.attributeKeys[i] */\n      dup2\n      sload\n      dup2\n      lt\n      tag_89\n      jumpi\n      tag_90\n      tag_46\n      jump\t// in\n    tag_90:\n    tag_89:\n      swap1\n      0x00\n      mstore\n      keccak256(0x00, 0x20)\n      add\n        /* \"contracts/ItemOwnership.sol\":2247:2285  item.attributes[item.attributeKeys[i]] */\n      mload(0x40)\n      tag_92\n      swap2\n      swap1\n      tag_93\n      jump\t// in\n    tag_92:\n      swap1\n      dup2\n      mstore\n      0x20\n      add\n      mload(0x40)\n      dup1\n      swap2\n      sub\n      swap1\n      keccak256\n        /* \"contracts/ItemOwnership.sol\":2226:2285  attributeValues[i] = item.attributes[item.attributeKeys[i]] */\n      dup1\n      sload\n      tag_94\n      swap1\n      tag_95\n      jump\t// in\n    tag_94:\n      dup1\n      0x1f\n      add\n      0x20\n      dup1\n      swap2\n      div\n      mul\n      0x20\n      add\n      mload(0x40)\n      swap1\n      dup2\n      add\n      0x40\n      mstore\n      dup1\n      swap3\n      swap2\n      swap1\n      dup2\n      dup2\n      mstore\n      0x20\n      add\n      dup3\n      dup1\n      sload\n      tag_96\n      swap1\n      tag_95\n      jump\t// in\n    tag_96:\n      dup1\n      iszero\n      tag_97\n      jumpi\n      dup1\n      0x1f\n      lt\n      tag_98\n      jumpi\n      0x0100\n      dup1\n      dup4\n      sload\n      div\n      mul\n      dup4\n      mstore\n      swap2\n      0x20\n      add\n      swap2\n      jump(tag_97)\n    tag_98:\n      dup3\n      add\n      swap2\n      swap1\n      0x00\n      mstore\n      keccak256(0x00, 0x20)\n      swap1\n    tag_99:\n      dup2\n      sload\n      dup2\n      mstore\n      swap1\n      0x01\n      add\n      swap1\n      0x20\n      add\n      dup1\n      dup4\n      gt\n      tag_99\n      jumpi\n      dup3\n      swap1\n      sub\n      0x1f\n      and\n      dup3\n      add\n      swap2\n    tag_97:\n      pop\n      pop\n      pop\n      pop\n      pop\n        /* \"contracts/ItemOwnership.sol\":2226:2241  attributeValues */\n      dup3\n        /* \"contracts/ItemOwnership.sol\":2242:2243  i */\n      dup3\n        /* \"contracts/ItemOwnership.sol\":2226:2244  attributeValues[i] */\n      dup2\n      mload\n      dup2\n      lt\n      tag_100\n      jumpi\n      tag_101\n      tag_46\n      jump\t// in\n    tag_101:\n    tag_100:\n      0x20\n      mul\n      0x20\n      add\n      add\n        /* \"contracts/ItemOwnership.sol\":2226:2285  attributeValues[i] = item.attributes[item.attributeKeys[i]] */\n      dup2\n      swap1\n      mstore\n      pop\n        /* \"contracts/ItemOwnership.sol\":2207:2210  i++ */\n      dup1\n      dup1\n      tag_102\n      swap1\n      tag_54\n      jump\t// in\n    tag_102:\n      swap2\n      pop\n      pop\n        /* \"contracts/ItemOwnership.sol\":2156:2296  for (uint256 i = 0; i < item.attributeKeys.length; i++) {... */\n      jump(tag_86)\n    tag_87:\n      pop\n        /* \"contracts/ItemOwnership.sol\":2313:2317  item */\n      dup2\n        /* \"contracts/ItemOwnership.sol\":2313:2331  item.attributeKeys */\n      0x02\n      add\n        /* \"contracts/ItemOwnership.sol\":2333:2348  attributeValues */\n      dup2\n        /* \"contracts/ItemOwnership.sol\":2305:2349  return (item.attributeKeys, attributeValues) */\n      dup2\n      dup1\n      sload\n      dup1\n      0x20\n      mul\n      0x20\n      add\n      mload(0x40)\n      swap1\n      dup2\n      add\n      0x40\n      mstore\n      dup1\n      swap3\n      swap2\n      swap1\n      dup2\n      dup2\n      mstore\n      0x20\n      add\n      0x00\n      swap1\n    tag_103:\n      dup3\n      dup3\n      lt\n      iszero\n      tag_104\n      jumpi\n      dup4\n      dup3\n      swap1\n      0x00\n      mstore\n      keccak256(0x00, 0x20)\n      add\n      dup1\n      sload\n      tag_106\n      swap1\n      tag_95\n      jump\t// in\n    tag_106:\n      dup1\n      0x1f\n      add\n      0x20\n      dup1\n      swap2\n      div\n      mul\n      0x20\n      add\n      mload(0x40)\n      swap1\n      dup2\n      add\n      0x40\n      mstore\n      dup1\n      swap3\n      swap2\n      swap1\n      dup2\n      dup2\n      mstore\n      0x20\n      add\n      dup3\n      dup1\n      sload\n      tag_107\n      swap1\n      tag_95\n      jump\t// in\n    tag_107:\n      dup1\n      iszero\n      tag_108\n      jumpi\n      dup1\n      0x1f\n      lt\n      tag_109\n      jumpi\n      0x0100\n      dup1\n      dup4\n      sload\n      div\n      mul\n      dup4\n      mstore\n      swap2\n      0x20\n      add\n      swap2\n      jump(tag_108)\n    tag_109:\n      dup3\n      add\n      swap2\n      swap1\n      0x00\n      mstore\n      keccak256(0x00, 0x20)\n      swap1\n    tag_110:\n      dup2\n      sload\n      dup2\n      mstore\n      swap1\n      0x01\n      add\n      swap1\n      0x20\n      add\n      dup1\n      dup4\n      gt\n      tag_110\n      jumpi\n      dup3\n      swap1\n      sub\n      0x1f\n      and\n      dup3\n      add\n      swap2\n    tag_108:\n      pop\n      pop\n      pop\n      pop\n      pop\n      dup2\n      mstore\n      0x20\n      add\n      swap1\n      0x01\n      add\n      swap1\n      jump(tag_103)\n    tag_104:\n      pop\n      pop\n      pop\n      pop\n      swap2\n      pop\n      swap5\n      pop\n      swap5\n      pop\n      pop\n      pop\n        /* \"contracts/ItemOwnership.sol\":1823:2356  function getAttributesOfItemByID(uint256 _id)... */\n      pop\n      swap2\n      pop\n      swap2\n      jump\t// out\n        /* \"contracts/ItemOwnership.sol\":2362:2768  function removeItemFromAddress(uint256 _id) public itemIsAvailable(_id) {... */\n    tag_28:\n        /* \"contracts/ItemOwnership.sol\":2429:2432  _id */\n      dup1\n        /* \"contracts/ItemOwnership.sol\":754:764  msg.sender */\n      caller\n        /* \"contracts/ItemOwnership.sol\":715:764  itemDatabase[msg.sender][_id].owner == msg.sender */\n      0xffffffffffffffffffffffffffffffffffffffff\n      and\n        /* \"contracts/ItemOwnership.sol\":715:727  itemDatabase */\n      0x01\n        /* \"contracts/ItemOwnership.sol\":715:739  itemDatabase[msg.sender] */\n      0x00\n        /* \"contracts/ItemOwnership.sol\":728:738  msg.sender */\n      caller\n        /* \"contracts/ItemOwnership.sol\":715:739  itemDatabase[msg.sender] */\n      0xffffffffffffffffffffffffffffffffffffffff\n      and\n      0xffffffffffffffffffffffffffffffffffffffff\n      and\n      dup2\n      mstore\n      0x20\n      add\n      swap1\n      dup2\n      mstore\n      0x20\n      add\n      0x00\n      keccak256\n        /* \"contracts/ItemOwnership.sol\":715:744  itemDatabase[msg.sender][_id] */\n      0x00\n        /* \"contracts/ItemOwnership.sol\":740:743  _id */\n      dup4\n        /* \"contracts/ItemOwnership.sol\":715:744  itemDatabase[msg.sender][_id] */\n      dup2\n      mstore\n      0x20\n      add\n      swap1\n      dup2\n      mstore\n      0x20\n      add\n      0x00\n      keccak256\n        /* \"contracts/ItemOwnership.sol\":715:750  itemDatabase[msg.sender][_id].owner */\n      0x00\n      add\n      0x00\n      swap1\n      sload\n      swap1\n      0x0100\n      exp\n      swap1\n      div\n      0xffffffffffffffffffffffffffffffffffffffff\n      and\n        /* \"contracts/ItemOwnership.sol\":715:764  itemDatabase[msg.sender][_id].owner == msg.sender */\n      0xffffffffffffffffffffffffffffffffffffffff\n      and\n      eq\n        /* \"contracts/ItemOwnership.sol\":694:814  require(... */\n      tag_112\n      jumpi\n      mload(0x40)\n      0x08c379a000000000000000000000000000000000000000000000000000000000\n      dup2\n      mstore\n      0x04\n      add\n      tag_113\n      swap1\n      tag_36\n      jump\t// in\n    tag_113:\n      mload(0x40)\n      dup1\n      swap2\n      sub\n      swap1\n      revert\n    tag_112:\n        /* \"contracts/ItemOwnership.sol\":2449:2458  uint256 i */\n      0x00\n        /* \"contracts/ItemOwnership.sol\":2444:2715  for (uint256 i = 0; i < itemIdList[msg.sender].length; i++) {... */\n    tag_115:\n        /* \"contracts/ItemOwnership.sol\":2468:2478  itemIdList */\n      0x02\n        /* \"contracts/ItemOwnership.sol\":2468:2490  itemIdList[msg.sender] */\n      0x00\n        /* \"contracts/ItemOwnership.sol\":2479:2489  msg.sender */\n      caller\n        /* \"contracts/ItemOwnership.sol\":2468:2490  itemIdList[msg.sender] */\n      0xffffffffffffffffffffffffffffffffffffffff\n      and\n      0xffffffffffffffffffffffffffffffffffffffff\n      and\n      dup2\n      mstore\n      0x20\n      add\n      swap1\n      dup2\n      mstore\n      0x20\n      add\n      0x00\n      keccak256\n        /* \"contracts/ItemOwnership.sol\":2468:2497  itemIdList[msg.sender].length */\n      dup1\n      sload\n      swap1\n      pop\n        /* \"contracts/ItemOwnership.sol\":2464:2465  i */\n      dup2\n        /* \"contracts/ItemOwnership.sol\":2464:2497  i < itemIdList[msg.sender].length */\n      lt\n        /* \"contracts/ItemOwnership.sol\":2444:2715  for (uint256 i = 0; i < itemIdList[msg.sender].length; i++) {... */\n      iszero\n      tag_116\n      jumpi\n        /* \"contracts/ItemOwnership.sol\":2551:2554  _id */\n      dup3\n        /* \"contracts/ItemOwnership.sol\":2522:2532  itemIdList */\n      0x02\n        /* \"contracts/ItemOwnership.sol\":2522:2544  itemIdList[msg.sender] */\n      0x00\n        /* \"contracts/ItemOwnership.sol\":2533:2543  msg.sender */\n      caller\n        /* \"contracts/ItemOwnership.sol\":2522:2544  itemIdList[msg.sender] */\n      0xffffffffffffffffffffffffffffffffffffffff\n      and\n      0xffffffffffffffffffffffffffffffffffffffff\n      and\n      dup2\n      mstore\n      0x20\n      add\n      swap1\n      dup2\n      mstore\n      0x20\n      add\n      0x00\n      keccak256\n        /* \"contracts/ItemOwnership.sol\":2545:2546  i */\n      dup3\n        /* \"contracts/ItemOwnership.sol\":2522:2547  itemIdList[msg.sender][i] */\n      dup2\n      sload\n      dup2\n      lt\n      tag_118\n      jumpi\n      tag_119\n      tag_46\n      jump\t// in\n    tag_119:\n    tag_118:\n      swap1\n      0x00\n      mstore\n      keccak256(0x00, 0x20)\n      add\n      sload\n        /* \"contracts/ItemOwnership.sol\":2522:2554  itemIdList[msg.sender][i] == _id */\n      sub\n        /* \"contracts/ItemOwnership.sol\":2518:2594  if (itemIdList[msg.sender][i] == _id)... */\n      tag_121\n      jumpi\n        /* \"contracts/ItemOwnership.sol\":2572:2594  removeItemFromArray(i) */\n      tag_122\n        /* \"contracts/ItemOwnership.sol\":2592:2593  i */\n      dup2\n        /* \"contracts/ItemOwnership.sol\":2572:2591  removeItemFromArray */\n      tag_123\n        /* \"contracts/ItemOwnership.sol\":2572:2594  removeItemFromArray(i) */\n      jump\t// in\n    tag_122:\n        /* \"contracts/ItemOwnership.sol\":2518:2594  if (itemIdList[msg.sender][i] == _id)... */\n    tag_121:\n        /* \"contracts/ItemOwnership.sol\":2499:2502  i++ */\n      dup1\n      dup1\n      tag_124\n      swap1\n      tag_54\n      jump\t// in\n    tag_124:\n      swap2\n      pop\n      pop\n        /* \"contracts/ItemOwnership.sol\":2444:2715  for (uint256 i = 0; i < itemIdList[msg.sender].length; i++) {... */\n      jump(tag_115)\n    tag_116:\n      pop\n        /* \"contracts/ItemOwnership.sol\":2732:2744  itemDatabase */\n      0x01\n        /* \"contracts/ItemOwnership.sol\":2732:2756  itemDatabase[msg.sender] */\n      0x00\n        /* \"contracts/ItemOwnership.sol\":2745:2755  msg.sender */\n      caller\n        /* \"contracts/ItemOwnership.sol\":2732:2756  itemDatabase[msg.sender] */\n      0xffffffffffffffffffffffffffffffffffffffff\n      and\n      0xffffffffffffffffffffffffffffffffffffffff\n      and\n      dup2\n      mstore\n      0x20\n      add\n      swap1\n      dup2\n      mstore\n      0x20\n      add\n      0x00\n      keccak256\n        /* \"contracts/ItemOwnership.sol\":2732:2761  itemDatabase[msg.sender][_id] */\n      0x00\n        /* \"contracts/ItemOwnership.sol\":2757:2760  _id */\n      dup4\n        /* \"contracts/ItemOwnership.sol\":2732:2761  itemDatabase[msg.sender][_id] */\n      dup2\n      mstore\n      0x20\n      add\n      swap1\n      dup2\n      mstore\n      0x20\n      add\n      0x00\n      keccak256\n      0x00\n        /* \"contracts/ItemOwnership.sol\":2725:2761  delete itemDatabase[msg.sender][_id] */\n      dup1\n      dup3\n      add\n      exp(0x0100, 0x00)\n      dup2\n      sload\n      swap1\n      0xffffffffffffffffffffffffffffffffffffffff\n      mul\n      not\n      and\n      swap1\n      sstore\n      0x02\n      dup3\n      add\n      0x00\n      tag_125\n      swap2\n      swap1\n      tag_126\n      jump\t// in\n    tag_125:\n      pop\n      pop\n        /* \"contracts/ItemOwnership.sol\":2362:2768  function removeItemFromAddress(uint256 _id) public itemIsAvailable(_id) {... */\n      pop\n      pop\n      jump\t// out\n        /* \"contracts/ItemOwnership.sol\":3862:3980  function getAllItemsFromAddress() public view returns(uint256[] memory) {... */\n    tag_30:\n        /* \"contracts/ItemOwnership.sol\":3916:3932  uint256[] memory */\n      0x60\n        /* \"contracts/ItemOwnership.sol\":3951:3961  itemIdList */\n      0x02\n        /* \"contracts/ItemOwnership.sol\":3951:3973  itemIdList[msg.sender] */\n      0x00\n        /* \"contracts/ItemOwnership.sol\":3962:3972  msg.sender */\n      caller\n        /* \"contracts/ItemOwnership.sol\":3951:3973  itemIdList[msg.sender] */\n      0xffffffffffffffffffffffffffffffffffffffff\n      and\n      0xffffffffffffffffffffffffffffffffffffffff\n      and\n      dup2\n      mstore\n      0x20\n      add\n      swap1\n      dup2\n      mstore\n      0x20\n      add\n      0x00\n      keccak256\n        /* \"contracts/ItemOwnership.sol\":3944:3973  return itemIdList[msg.sender] */\n      dup1\n      sload\n      dup1\n      0x20\n      mul\n      0x20\n      add\n      mload(0x40)\n      swap1\n      dup2\n      add\n      0x40\n      mstore\n      dup1\n      swap3\n      swap2\n      swap1\n      dup2\n      dup2\n      mstore\n      0x20\n      add\n      dup3\n      dup1\n      sload\n      dup1\n      iszero\n      tag_128\n      jumpi\n      0x20\n      mul\n      dup3\n      add\n      swap2\n      swap1\n      0x00\n      mstore\n      keccak256(0x00, 0x20)\n      swap1\n    tag_129:\n      dup2\n      sload\n      dup2\n      mstore\n      0x20\n      add\n      swap1\n      0x01\n      add\n      swap1\n      dup1\n      dup4\n      gt\n      tag_129\n      jumpi\n    tag_128:\n      pop\n      pop\n      pop\n      pop\n      pop\n      swap1\n      pop\n        /* \"contracts/ItemOwnership.sol\":3862:3980  function getAllItemsFromAddress() public view returns(uint256[] memory) {... */\n      swap1\n      jump\t// out\n        /* \"contracts/ItemOwnership.sol\":3514:3856  function removeItemFromArray(uint256 index) private  {... */\n    tag_123:\n        /* \"contracts/ItemOwnership.sol\":3590:3600  itemIdList */\n      0x02\n        /* \"contracts/ItemOwnership.sol\":3590:3612  itemIdList[msg.sender] */\n      0x00\n        /* \"contracts/ItemOwnership.sol\":3601:3611  msg.sender */\n      caller\n        /* \"contracts/ItemOwnership.sol\":3590:3612  itemIdList[msg.sender] */\n      0xffffffffffffffffffffffffffffffffffffffff\n      and\n      0xffffffffffffffffffffffffffffffffffffffff\n      and\n      dup2\n      mstore\n      0x20\n      add\n      swap1\n      dup2\n      mstore\n      0x20\n      add\n      0x00\n      keccak256\n        /* \"contracts/ItemOwnership.sol\":3590:3619  itemIdList[msg.sender].length */\n      dup1\n      sload\n      swap1\n      pop\n        /* \"contracts/ItemOwnership.sol\":3581:3586  index */\n      dup2\n        /* \"contracts/ItemOwnership.sol\":3581:3619  index >= itemIdList[msg.sender].length */\n      lt\n        /* \"contracts/ItemOwnership.sol\":3577:3628  if (index >= itemIdList[msg.sender].length) return; */\n      iszero\n        /* \"contracts/ItemOwnership.sol\":3621:3628  return; */\n      tag_130\n        /* \"contracts/ItemOwnership.sol\":3577:3628  if (index >= itemIdList[msg.sender].length) return; */\n      jumpi\n        /* \"contracts/ItemOwnership.sol\":3674:3683  uint256 i */\n      0x00\n        /* \"contracts/ItemOwnership.sol\":3686:3691  index */\n      dup2\n        /* \"contracts/ItemOwnership.sol\":3674:3691  uint256 i = index */\n      swap1\n      pop\n        /* \"contracts/ItemOwnership.sol\":3669:3812  for (uint256 i = index; i<itemIdList[msg.sender].length-1; i++){... */\n    tag_132:\n        /* \"contracts/ItemOwnership.sol\":3725:3726  1 */\n      0x01\n        /* \"contracts/ItemOwnership.sol\":3695:3705  itemIdList */\n      0x02\n        /* \"contracts/ItemOwnership.sol\":3695:3717  itemIdList[msg.sender] */\n      0x00\n        /* \"contracts/ItemOwnership.sol\":3706:3716  msg.sender */\n      caller\n        /* \"contracts/ItemOwnership.sol\":3695:3717  itemIdList[msg.sender] */\n      0xffffffffffffffffffffffffffffffffffffffff\n      and\n      0xffffffffffffffffffffffffffffffffffffffff\n      and\n      dup2\n      mstore\n      0x20\n      add\n      swap1\n      dup2\n      mstore\n      0x20\n      add\n      0x00\n      keccak256\n        /* \"contracts/ItemOwnership.sol\":3695:3724  itemIdList[msg.sender].length */\n      dup1\n      sload\n      swap1\n      pop\n        /* \"contracts/ItemOwnership.sol\":3695:3726  itemIdList[msg.sender].length-1 */\n      tag_135\n      swap2\n      swap1\n      tag_136\n      jump\t// in\n    tag_135:\n        /* \"contracts/ItemOwnership.sol\":3693:3694  i */\n      dup2\n        /* \"contracts/ItemOwnership.sol\":3693:3726  i<itemIdList[msg.sender].length-1 */\n      lt\n        /* \"contracts/ItemOwnership.sol\":3669:3812  for (uint256 i = index; i<itemIdList[msg.sender].length-1; i++){... */\n      iszero\n      tag_133\n      jumpi\n        /* \"contracts/ItemOwnership.sol\":3774:3784  itemIdList */\n      0x02\n        /* \"contracts/ItemOwnership.sol\":3774:3796  itemIdList[msg.sender] */\n      0x00\n        /* \"contracts/ItemOwnership.sol\":3785:3795  msg.sender */\n      caller\n        /* \"contracts/ItemOwnership.sol\":3774:3796  itemIdList[msg.sender] */\n      0xffffffffffffffffffffffffffffffffffffffff\n      and\n      0xffffffffffffffffffffffffffffffffffffffff\n      and\n      dup2\n      mstore\n      0x20\n      add\n      swap1\n      dup2\n      mstore\n      0x20\n      add\n      0x00\n      keccak256\n        /* \"contracts/ItemOwnership.sol\":3799:3800  1 */\n      0x01\n        /* \"contracts/ItemOwnership.sol\":3797:3798  i */\n      dup3\n        /* \"contracts/ItemOwnership.sol\":3797:3800  i+1 */\n      tag_137\n      swap2\n      swap1\n      tag_138\n      jump\t// in\n    tag_137:\n        /* \"contracts/ItemOwnership.sol\":3774:3801  itemIdList[msg.sender][i+1] */\n      dup2\n      sload\n      dup2\n      lt\n      tag_139\n      jumpi\n      tag_140\n      tag_46\n      jump\t// in\n    tag_140:\n    tag_139:\n      swap1\n      0x00\n      mstore\n      keccak256(0x00, 0x20)\n      add\n      sload\n        /* \"contracts/ItemOwnership.sol\":3746:3756  itemIdList */\n      0x02\n        /* \"contracts/ItemOwnership.sol\":3746:3768  itemIdList[msg.sender] */\n      0x00\n        /* \"contracts/ItemOwnership.sol\":3757:3767  msg.sender */\n      caller\n        /* \"contracts/ItemOwnership.sol\":3746:3768  itemIdList[msg.sender] */\n      0xffffffffffffffffffffffffffffffffffffffff\n      and\n      0xffffffffffffffffffffffffffffffffffffffff\n      and\n      dup2\n      mstore\n      0x20\n      add\n      swap1\n      dup2\n      mstore\n      0x20\n      add\n      0x00\n      keccak256\n        /* \"contracts/ItemOwnership.sol\":3769:3770  i */\n      dup3\n        /* \"contracts/ItemOwnership.sol\":3746:3771  itemIdList[msg.sender][i] */\n      dup2\n      sload\n      dup2\n      lt\n      tag_142\n      jumpi\n      tag_143\n      tag_46\n      jump\t// in\n    tag_143:\n    tag_142:\n      swap1\n      0x00\n      mstore\n      keccak256(0x00, 0x20)\n      add\n        /* \"contracts/ItemOwnership.sol\":3746:3801  itemIdList[msg.sender][i] = itemIdList[msg.sender][i+1] */\n      dup2\n      swap1\n      sstore\n      pop\n        /* \"contracts/ItemOwnership.sol\":3728:3731  i++ */\n      dup1\n      dup1\n      tag_145\n      swap1\n      tag_54\n      jump\t// in\n    tag_145:\n      swap2\n      pop\n      pop\n        /* \"contracts/ItemOwnership.sol\":3669:3812  for (uint256 i = index; i<itemIdList[msg.sender].length-1; i++){... */\n      jump(tag_132)\n    tag_133:\n      pop\n        /* \"contracts/ItemOwnership.sol\":3821:3831  itemIdList */\n      0x02\n        /* \"contracts/ItemOwnership.sol\":3821:3843  itemIdList[msg.sender] */\n      0x00\n        /* \"contracts/ItemOwnership.sol\":3832:3842  msg.sender */\n      caller\n        /* \"contracts/ItemOwnership.sol\":3821:3843  itemIdList[msg.sender] */\n      0xffffffffffffffffffffffffffffffffffffffff\n      and\n      0xffffffffffffffffffffffffffffffffffffffff\n      and\n      dup2\n      mstore\n      0x20\n      add\n      swap1\n      dup2\n      mstore\n      0x20\n      add\n      0x00\n      keccak256\n        /* \"contracts/ItemOwnership.sol\":3821:3849  itemIdList[msg.sender].pop() */\n      dup1\n      sload\n      dup1\n      tag_146\n      jumpi\n      tag_147\n      tag_148\n      jump\t// in\n    tag_147:\n    tag_146:\n      0x01\n      swap1\n      sub\n      dup2\n      dup2\n      swap1\n      0x00\n      mstore\n      keccak256(0x00, 0x20)\n      add\n      0x00\n      swap1\n      sstore\n      swap1\n      sstore\n        /* \"contracts/ItemOwnership.sol\":3514:3856  function removeItemFromArray(uint256 index) private  {... */\n    tag_130:\n      pop\n      jump\t// out\n    tag_56:\n      dup3\n      dup1\n      sload\n      dup3\n      dup3\n      sstore\n      swap1\n      0x00\n      mstore\n      keccak256(0x00, 0x20)\n      swap1\n      dup2\n      add\n      swap3\n      dup3\n      iszero\n      tag_150\n      jumpi\n      swap2\n      0x20\n      mul\n      dup3\n      add\n    tag_151:\n      dup3\n      dup2\n      gt\n      iszero\n      tag_152\n      jumpi\n      dup3\n      mload\n      dup3\n      swap1\n      dup2\n      tag_153\n      swap2\n      swap1\n      tag_52\n      jump\t// in\n    tag_153:\n      pop\n      swap2\n      0x20\n      add\n      swap2\n      swap1\n      0x01\n      add\n      swap1\n      jump(tag_151)\n    tag_152:\n    tag_150:\n      pop\n      swap1\n      pop\n      tag_154\n      swap2\n      swap1\n      tag_155\n      jump\t// in\n    tag_154:\n      pop\n      swap1\n      jump\t// out\n    tag_126:\n      pop\n      dup1\n      sload\n      0x00\n      dup3\n      sstore\n      swap1\n      0x00\n      mstore\n      keccak256(0x00, 0x20)\n      swap1\n      dup2\n      add\n      swap1\n      tag_157\n      swap2\n      swap1\n      tag_155\n      jump\t// in\n    tag_157:\n      pop\n      jump\t// out\n    tag_155:\n    tag_158:\n      dup1\n      dup3\n      gt\n      iszero\n      tag_159\n      jumpi\n      0x00\n      dup2\n      dup2\n      tag_160\n      swap2\n      swap1\n      tag_161\n      jump\t// in\n    tag_160:\n      pop\n      0x01\n      add\n      jump(tag_158)\n    tag_159:\n      pop\n      swap1\n      jump\t// out\n    tag_161:\n      pop\n      dup1\n      sload\n      tag_162\n      swap1\n      tag_95\n      jump\t// in\n    tag_162:\n      0x00\n      dup3\n      sstore\n      dup1\n      0x1f\n      lt\n      tag_164\n      jumpi\n      pop\n      jump(tag_163)\n    tag_164:\n      0x1f\n      add\n      0x20\n      swap1\n      div\n      swap1\n      0x00\n      mstore\n      keccak256(0x00, 0x20)\n      swap1\n      dup2\n      add\n      swap1\n      tag_165\n      swap2\n      swap1\n      tag_166\n      jump\t// in\n    tag_165:\n    tag_163:\n      pop\n      jump\t// out\n    tag_166:\n    tag_167:\n      dup1\n      dup3\n      gt\n      iszero\n      tag_168\n      jumpi\n      0x00\n      dup2\n      0x00\n      swap1\n      sstore\n      pop\n      0x01\n      add\n      jump(tag_167)\n    tag_168:\n      pop\n      swap1\n      jump\t// out\n        /* \"#utility.yul\":7:82   */\n    tag_169:\n        /* \"#utility.yul\":40:46   */\n      0x00\n        /* \"#utility.yul\":73:75   */\n      0x40\n        /* \"#utility.yul\":67:76   */\n      mload\n        /* \"#utility.yul\":57:76   */\n      swap1\n      pop\n        /* \"#utility.yul\":7:82   */\n      swap1\n      jump\t// out\n        /* \"#utility.yul\":88:205   */\n    tag_170:\n        /* \"#utility.yul\":197:198   */\n      0x00\n        /* \"#utility.yul\":194:195   */\n      dup1\n        /* \"#utility.yul\":187:199   */\n      revert\n        /* \"#utility.yul\":211:328   */\n    tag_171:\n        /* \"#utility.yul\":320:321   */\n      0x00\n        /* \"#utility.yul\":317:318   */\n      dup1\n        /* \"#utility.yul\":310:322   */\n      revert\n        /* \"#utility.yul\":334:411   */\n    tag_172:\n        /* \"#utility.yul\":371:378   */\n      0x00\n        /* \"#utility.yul\":400:405   */\n      dup2\n        /* \"#utility.yul\":389:405   */\n      swap1\n      pop\n        /* \"#utility.yul\":334:411   */\n      swap2\n      swap1\n      pop\n      jump\t// out\n        /* \"#utility.yul\":417:539   */\n    tag_173:\n        /* \"#utility.yul\":490:514   */\n      tag_239\n        /* \"#utility.yul\":508:513   */\n      dup2\n        /* \"#utility.yul\":490:514   */\n      tag_172\n      jump\t// in\n    tag_239:\n        /* \"#utility.yul\":483:488   */\n      dup2\n        /* \"#utility.yul\":480:515   */\n      eq\n        /* \"#utility.yul\":470:533   */\n      tag_240\n      jumpi\n        /* \"#utility.yul\":529:530   */\n      0x00\n        /* \"#utility.yul\":526:527   */\n      dup1\n        /* \"#utility.yul\":519:531   */\n      revert\n        /* \"#utility.yul\":470:533   */\n    tag_240:\n        /* \"#utility.yul\":417:539   */\n      pop\n      jump\t// out\n        /* \"#utility.yul\":545:684   */\n    tag_174:\n        /* \"#utility.yul\":591:596   */\n      0x00\n        /* \"#utility.yul\":629:635   */\n      dup2\n        /* \"#utility.yul\":616:636   */\n      calldataload\n        /* \"#utility.yul\":607:636   */\n      swap1\n      pop\n        /* \"#utility.yul\":645:678   */\n      tag_242\n        /* \"#utility.yul\":672:677   */\n      dup2\n        /* \"#utility.yul\":645:678   */\n      tag_173\n      jump\t// in\n    tag_242:\n        /* \"#utility.yul\":545:684   */\n      swap3\n      swap2\n      pop\n      pop\n      jump\t// out\n        /* \"#utility.yul\":690:807   */\n    tag_175:\n        /* \"#utility.yul\":799:800   */\n      0x00\n        /* \"#utility.yul\":796:797   */\n      dup1\n        /* \"#utility.yul\":789:801   */\n      revert\n        /* \"#utility.yul\":813:915   */\n    tag_176:\n        /* \"#utility.yul\":854:860   */\n      0x00\n        /* \"#utility.yul\":905:907   */\n      0x1f\n        /* \"#utility.yul\":901:908   */\n      not\n        /* \"#utility.yul\":896:898   */\n      0x1f\n        /* \"#utility.yul\":889:894   */\n      dup4\n        /* \"#utility.yul\":885:899   */\n      add\n        /* \"#utility.yul\":881:909   */\n      and\n        /* \"#utility.yul\":871:909   */\n      swap1\n      pop\n        /* \"#utility.yul\":813:915   */\n      swap2\n      swap1\n      pop\n      jump\t// out\n        /* \"#utility.yul\":921:1101   */\n    tag_83:\n        /* \"#utility.yul\":969:1046   */\n      0x4e487b7100000000000000000000000000000000000000000000000000000000\n        /* \"#utility.yul\":966:967   */\n      0x00\n        /* \"#utility.yul\":959:1047   */\n      mstore\n        /* \"#utility.yul\":1066:1070   */\n      0x41\n        /* \"#utility.yul\":1063:1064   */\n      0x04\n        /* \"#utility.yul\":1056:1071   */\n      mstore\n        /* \"#utility.yul\":1090:1094   */\n      0x24\n        /* \"#utility.yul\":1087:1088   */\n      0x00\n        /* \"#utility.yul\":1080:1095   */\n      revert\n        /* \"#utility.yul\":1107:1388   */\n    tag_177:\n        /* \"#utility.yul\":1190:1217   */\n      tag_247\n        /* \"#utility.yul\":1212:1216   */\n      dup3\n        /* \"#utility.yul\":1190:1217   */\n      tag_176\n      jump\t// in\n    tag_247:\n        /* \"#utility.yul\":1182:1188   */\n      dup2\n        /* \"#utility.yul\":1178:1218   */\n      add\n        /* \"#utility.yul\":1320:1326   */\n      dup2\n        /* \"#utility.yul\":1308:1318   */\n      dup2\n        /* \"#utility.yul\":1305:1327   */\n      lt\n        /* \"#utility.yul\":1284:1302   */\n      0xffffffffffffffff\n        /* \"#utility.yul\":1272:1282   */\n      dup3\n        /* \"#utility.yul\":1269:1303   */\n      gt\n        /* \"#utility.yul\":1266:1328   */\n      or\n        /* \"#utility.yul\":1263:1351   */\n      iszero\n      tag_248\n      jumpi\n        /* \"#utility.yul\":1331:1349   */\n      tag_249\n      tag_83\n      jump\t// in\n    tag_249:\n        /* \"#utility.yul\":1263:1351   */\n    tag_248:\n        /* \"#utility.yul\":1371:1381   */\n      dup1\n        /* \"#utility.yul\":1367:1369   */\n      0x40\n        /* \"#utility.yul\":1360:1382   */\n      mstore\n        /* \"#utility.yul\":1150:1388   */\n      pop\n        /* \"#utility.yul\":1107:1388   */\n      pop\n      pop\n      jump\t// out\n        /* \"#utility.yul\":1394:1523   */\n    tag_178:\n        /* \"#utility.yul\":1428:1434   */\n      0x00\n        /* \"#utility.yul\":1455:1475   */\n      tag_251\n      tag_169\n      jump\t// in\n    tag_251:\n        /* \"#utility.yul\":1445:1475   */\n      swap1\n      pop\n        /* \"#utility.yul\":1484:1517   */\n      tag_252\n        /* \"#utility.yul\":1512:1516   */\n      dup3\n        /* \"#utility.yul\":1504:1510   */\n      dup3\n        /* \"#utility.yul\":1484:1517   */\n      tag_177\n      jump\t// in\n    tag_252:\n        /* \"#utility.yul\":1394:1523   */\n      swap2\n      swap1\n      pop\n      jump\t// out\n        /* \"#utility.yul\":1529:1850   */\n    tag_179:\n        /* \"#utility.yul\":1616:1620   */\n      0x00\n        /* \"#utility.yul\":1706:1724   */\n      0xffffffffffffffff\n        /* \"#utility.yul\":1698:1704   */\n      dup3\n        /* \"#utility.yul\":1695:1725   */\n      gt\n        /* \"#utility.yul\":1692:1748   */\n      iszero\n      tag_254\n      jumpi\n        /* \"#utility.yul\":1728:1746   */\n      tag_255\n      tag_83\n      jump\t// in\n    tag_255:\n        /* \"#utility.yul\":1692:1748   */\n    tag_254:\n        /* \"#utility.yul\":1778:1782   */\n      0x20\n        /* \"#utility.yul\":1770:1776   */\n      dup3\n        /* \"#utility.yul\":1766:1783   */\n      mul\n        /* \"#utility.yul\":1758:1783   */\n      swap1\n      pop\n        /* \"#utility.yul\":1838:1842   */\n      0x20\n        /* \"#utility.yul\":1832:1836   */\n      dup2\n        /* \"#utility.yul\":1828:1843   */\n      add\n        /* \"#utility.yul\":1820:1843   */\n      swap1\n      pop\n        /* \"#utility.yul\":1529:1850   */\n      swap2\n      swap1\n      pop\n      jump\t// out\n        /* \"#utility.yul\":1856:1973   */\n    tag_180:\n        /* \"#utility.yul\":1965:1966   */\n      0x00\n        /* \"#utility.yul\":1962:1963   */\n      dup1\n        /* \"#utility.yul\":1955:1967   */\n      revert\n        /* \"#utility.yul\":1979:2096   */\n    tag_181:\n        /* \"#utility.yul\":2088:2089   */\n      0x00\n        /* \"#utility.yul\":2085:2086   */\n      dup1\n        /* \"#utility.yul\":2078:2090   */\n      revert\n        /* \"#utility.yul\":2102:2410   */\n    tag_182:\n        /* \"#utility.yul\":2164:2168   */\n      0x00\n        /* \"#utility.yul\":2254:2272   */\n      0xffffffffffffffff\n        /* \"#utility.yul\":2246:2252   */\n      dup3\n        /* \"#utility.yul\":2243:2273   */\n      gt\n        /* \"#utility.yul\":2240:2296   */\n      iszero\n      tag_259\n      jumpi\n        /* \"#utility.yul\":2276:2294   */\n      tag_260\n      tag_83\n      jump\t// in\n    tag_260:\n        /* \"#utility.yul\":2240:2296   */\n    tag_259:\n        /* \"#utility.yul\":2314:2343   */\n      tag_261\n        /* \"#utility.yul\":2336:2342   */\n      dup3\n        /* \"#utility.yul\":2314:2343   */\n      tag_176\n      jump\t// in\n    tag_261:\n        /* \"#utility.yul\":2306:2343   */\n      swap1\n      pop\n        /* \"#utility.yul\":2398:2402   */\n      0x20\n        /* \"#utility.yul\":2392:2396   */\n      dup2\n        /* \"#utility.yul\":2388:2403   */\n      add\n        /* \"#utility.yul\":2380:2403   */\n      swap1\n      pop\n        /* \"#utility.yul\":2102:2410   */\n      swap2\n      swap1\n      pop\n      jump\t// out\n        /* \"#utility.yul\":2416:2562   */\n    tag_183:\n        /* \"#utility.yul\":2513:2519   */\n      dup3\n        /* \"#utility.yul\":2508:2511   */\n      dup2\n        /* \"#utility.yul\":2503:2506   */\n      dup4\n        /* \"#utility.yul\":2490:2520   */\n      calldatacopy\n        /* \"#utility.yul\":2554:2555   */\n      0x00\n        /* \"#utility.yul\":2545:2551   */\n      dup4\n        /* \"#utility.yul\":2540:2543   */\n      dup4\n        /* \"#utility.yul\":2536:2552   */\n      add\n        /* \"#utility.yul\":2529:2556   */\n      mstore\n        /* \"#utility.yul\":2416:2562   */\n      pop\n      pop\n      pop\n      jump\t// out\n        /* \"#utility.yul\":2568:2993   */\n    tag_184:\n        /* \"#utility.yul\":2646:2651   */\n      0x00\n        /* \"#utility.yul\":2671:2737   */\n      tag_264\n        /* \"#utility.yul\":2687:2736   */\n      tag_265\n        /* \"#utility.yul\":2729:2735   */\n      dup5\n        /* \"#utility.yul\":2687:2736   */\n      tag_182\n      jump\t// in\n    tag_265:\n        /* \"#utility.yul\":2671:2737   */\n      tag_178\n      jump\t// in\n    tag_264:\n        /* \"#utility.yul\":2662:2737   */\n      swap1\n      pop\n        /* \"#utility.yul\":2760:2766   */\n      dup3\n        /* \"#utility.yul\":2753:2758   */\n      dup2\n        /* \"#utility.yul\":2746:2767   */\n      mstore\n        /* \"#utility.yul\":2798:2802   */\n      0x20\n        /* \"#utility.yul\":2791:2796   */\n      dup2\n        /* \"#utility.yul\":2787:2803   */\n      add\n        /* \"#utility.yul\":2836:2839   */\n      dup5\n        /* \"#utility.yul\":2827:2833   */\n      dup5\n        /* \"#utility.yul\":2822:2825   */\n      dup5\n        /* \"#utility.yul\":2818:2834   */\n      add\n        /* \"#utility.yul\":2815:2840   */\n      gt\n        /* \"#utility.yul\":2812:2924   */\n      iszero\n      tag_266\n      jumpi\n        /* \"#utility.yul\":2843:2922   */\n      tag_267\n      tag_181\n      jump\t// in\n    tag_267:\n        /* \"#utility.yul\":2812:2924   */\n    tag_266:\n        /* \"#utility.yul\":2933:2987   */\n      tag_268\n        /* \"#utility.yul\":2980:2986   */\n      dup5\n        /* \"#utility.yul\":2975:2978   */\n      dup3\n        /* \"#utility.yul\":2970:2973   */\n      dup6\n        /* \"#utility.yul\":2933:2987   */\n      tag_183\n      jump\t// in\n    tag_268:\n        /* \"#utility.yul\":2652:2993   */\n      pop\n        /* \"#utility.yul\":2568:2993   */\n      swap4\n      swap3\n      pop\n      pop\n      pop\n      jump\t// out\n        /* \"#utility.yul\":3013:3353   */\n    tag_185:\n        /* \"#utility.yul\":3069:3074   */\n      0x00\n        /* \"#utility.yul\":3118:3121   */\n      dup3\n        /* \"#utility.yul\":3111:3115   */\n      0x1f\n        /* \"#utility.yul\":3103:3109   */\n      dup4\n        /* \"#utility.yul\":3099:3116   */\n      add\n        /* \"#utility.yul\":3095:3122   */\n      slt\n        /* \"#utility.yul\":3085:3207   */\n      tag_270\n      jumpi\n        /* \"#utility.yul\":3126:3205   */\n      tag_271\n      tag_175\n      jump\t// in\n    tag_271:\n        /* \"#utility.yul\":3085:3207   */\n    tag_270:\n        /* \"#utility.yul\":3243:3249   */\n      dup2\n        /* \"#utility.yul\":3230:3250   */\n      calldataload\n        /* \"#utility.yul\":3268:3347   */\n      tag_272\n        /* \"#utility.yul\":3343:3346   */\n      dup5\n        /* \"#utility.yul\":3335:3341   */\n      dup3\n        /* \"#utility.yul\":3328:3332   */\n      0x20\n        /* \"#utility.yul\":3320:3326   */\n      dup7\n        /* \"#utility.yul\":3316:3333   */\n      add\n        /* \"#utility.yul\":3268:3347   */\n      tag_184\n      jump\t// in\n    tag_272:\n        /* \"#utility.yul\":3259:3347   */\n      swap2\n      pop\n        /* \"#utility.yul\":3075:3353   */\n      pop\n        /* \"#utility.yul\":3013:3353   */\n      swap3\n      swap2\n      pop\n      pop\n      jump\t// out\n        /* \"#utility.yul\":3375:4320   */\n    tag_186:\n        /* \"#utility.yul\":3481:3486   */\n      0x00\n        /* \"#utility.yul\":3506:3597   */\n      tag_274\n        /* \"#utility.yul\":3522:3596   */\n      tag_275\n        /* \"#utility.yul\":3589:3595   */\n      dup5\n        /* \"#utility.yul\":3522:3596   */\n      tag_179\n      jump\t// in\n    tag_275:\n        /* \"#utility.yul\":3506:3597   */\n      tag_178\n      jump\t// in\n    tag_274:\n        /* \"#utility.yul\":3497:3597   */\n      swap1\n      pop\n        /* \"#utility.yul\":3617:3622   */\n      dup1\n        /* \"#utility.yul\":3646:3652   */\n      dup4\n        /* \"#utility.yul\":3639:3644   */\n      dup3\n        /* \"#utility.yul\":3632:3653   */\n      mstore\n        /* \"#utility.yul\":3680:3684   */\n      0x20\n        /* \"#utility.yul\":3673:3678   */\n      dup3\n        /* \"#utility.yul\":3669:3685   */\n      add\n        /* \"#utility.yul\":3662:3685   */\n      swap1\n      pop\n        /* \"#utility.yul\":3733:3737   */\n      0x20\n        /* \"#utility.yul\":3725:3731   */\n      dup5\n        /* \"#utility.yul\":3721:3738   */\n      mul\n        /* \"#utility.yul\":3713:3719   */\n      dup4\n        /* \"#utility.yul\":3709:3739   */\n      add\n        /* \"#utility.yul\":3762:3765   */\n      dup6\n        /* \"#utility.yul\":3754:3760   */\n      dup2\n        /* \"#utility.yul\":3751:3766   */\n      gt\n        /* \"#utility.yul\":3748:3870   */\n      iszero\n      tag_276\n      jumpi\n        /* \"#utility.yul\":3781:3860   */\n      tag_277\n      tag_180\n      jump\t// in\n    tag_277:\n        /* \"#utility.yul\":3748:3870   */\n    tag_276:\n        /* \"#utility.yul\":3896:3902   */\n      dup4\n        /* \"#utility.yul\":3879:4314   */\n    tag_278:\n        /* \"#utility.yul\":3913:3919   */\n      dup2\n        /* \"#utility.yul\":3908:3911   */\n      dup2\n        /* \"#utility.yul\":3905:3920   */\n      lt\n        /* \"#utility.yul\":3879:4314   */\n      iszero\n      tag_280\n      jumpi\n        /* \"#utility.yul\":4002:4005   */\n      dup1\n        /* \"#utility.yul\":3989:4006   */\n      calldataload\n        /* \"#utility.yul\":4038:4056   */\n      0xffffffffffffffff\n        /* \"#utility.yul\":4025:4036   */\n      dup2\n        /* \"#utility.yul\":4022:4057   */\n      gt\n        /* \"#utility.yul\":4019:4141   */\n      iszero\n      tag_281\n      jumpi\n        /* \"#utility.yul\":4060:4139   */\n      tag_282\n      tag_175\n      jump\t// in\n    tag_282:\n        /* \"#utility.yul\":4019:4141   */\n    tag_281:\n        /* \"#utility.yul\":4184:4195   */\n      dup1\n        /* \"#utility.yul\":4176:4182   */\n      dup7\n        /* \"#utility.yul\":4172:4196   */\n      add\n        /* \"#utility.yul\":4222:4269   */\n      tag_283\n        /* \"#utility.yul\":4265:4268   */\n      dup10\n        /* \"#utility.yul\":4253:4263   */\n      dup3\n        /* \"#utility.yul\":4222:4269   */\n      tag_185\n      jump\t// in\n    tag_283:\n        /* \"#utility.yul\":4217:4220   */\n      dup6\n        /* \"#utility.yul\":4210:4270   */\n      mstore\n        /* \"#utility.yul\":4299:4303   */\n      0x20\n        /* \"#utility.yul\":4294:4297   */\n      dup6\n        /* \"#utility.yul\":4290:4304   */\n      add\n        /* \"#utility.yul\":4283:4304   */\n      swap5\n      pop\n        /* \"#utility.yul\":3955:4314   */\n      pop\n      pop\n        /* \"#utility.yul\":3939:3943   */\n      0x20\n        /* \"#utility.yul\":3934:3937   */\n      dup2\n        /* \"#utility.yul\":3930:3944   */\n      add\n        /* \"#utility.yul\":3923:3944   */\n      swap1\n      pop\n        /* \"#utility.yul\":3879:4314   */\n      jump(tag_278)\n    tag_280:\n        /* \"#utility.yul\":3883:3904   */\n      pop\n        /* \"#utility.yul\":3487:4320   */\n      pop\n      pop\n        /* \"#utility.yul\":3375:4320   */\n      swap4\n      swap3\n      pop\n      pop\n      pop\n      jump\t// out\n        /* \"#utility.yul\":4342:4732   */\n    tag_187:\n        /* \"#utility.yul\":4423:4428   */\n      0x00\n        /* \"#utility.yul\":4472:4475   */\n      dup3\n        /* \"#utility.yul\":4465:4469   */\n      0x1f\n        /* \"#utility.yul\":4457:4463   */\n      dup4\n        /* \"#utility.yul\":4453:4470   */\n      add\n        /* \"#utility.yul\":4449:4476   */\n      slt\n        /* \"#utility.yul\":4439:4561   */\n      tag_285\n      jumpi\n        /* \"#utility.yul\":4480:4559   */\n      tag_286\n      tag_175\n      jump\t// in\n    tag_286:\n        /* \"#utility.yul\":4439:4561   */\n    tag_285:\n        /* \"#utility.yul\":4597:4603   */\n      dup2\n        /* \"#utility.yul\":4584:4604   */\n      calldataload\n        /* \"#utility.yul\":4622:4726   */\n      tag_287\n        /* \"#utility.yul\":4722:4725   */\n      dup5\n        /* \"#utility.yul\":4714:4720   */\n      dup3\n        /* \"#utility.yul\":4707:4711   */\n      0x20\n        /* \"#utility.yul\":4699:4705   */\n      dup7\n        /* \"#utility.yul\":4695:4712   */\n      add\n        /* \"#utility.yul\":4622:4726   */\n      tag_186\n      jump\t// in\n    tag_287:\n        /* \"#utility.yul\":4613:4726   */\n      swap2\n      pop\n        /* \"#utility.yul\":4429:4732   */\n      pop\n        /* \"#utility.yul\":4342:4732   */\n      swap3\n      swap2\n      pop\n      pop\n      jump\t// out\n        /* \"#utility.yul\":4738:5817   */\n    tag_11:\n        /* \"#utility.yul\":4885:4891   */\n      0x00\n        /* \"#utility.yul\":4893:4899   */\n      dup1\n        /* \"#utility.yul\":4901:4907   */\n      0x00\n        /* \"#utility.yul\":4950:4952   */\n      0x60\n        /* \"#utility.yul\":4938:4947   */\n      dup5\n        /* \"#utility.yul\":4929:4936   */\n      dup7\n        /* \"#utility.yul\":4925:4948   */\n      sub\n        /* \"#utility.yul\":4921:4953   */\n      slt\n        /* \"#utility.yul\":4918:5037   */\n      iszero\n      tag_289\n      jumpi\n        /* \"#utility.yul\":4956:5035   */\n      tag_290\n      tag_170\n      jump\t// in\n    tag_290:\n        /* \"#utility.yul\":4918:5037   */\n    tag_289:\n        /* \"#utility.yul\":5076:5077   */\n      0x00\n        /* \"#utility.yul\":5101:5154   */\n      tag_291\n        /* \"#utility.yul\":5146:5153   */\n      dup7\n        /* \"#utility.yul\":5137:5143   */\n      dup3\n        /* \"#utility.yul\":5126:5135   */\n      dup8\n        /* \"#utility.yul\":5122:5144   */\n      add\n        /* \"#utility.yul\":5101:5154   */\n      tag_174\n      jump\t// in\n    tag_291:\n        /* \"#utility.yul\":5091:5154   */\n      swap4\n      pop\n        /* \"#utility.yul\":5047:5164   */\n      pop\n        /* \"#utility.yul\":5231:5233   */\n      0x20\n        /* \"#utility.yul\":5220:5229   */\n      dup5\n        /* \"#utility.yul\":5216:5234   */\n      add\n        /* \"#utility.yul\":5203:5235   */\n      calldataload\n        /* \"#utility.yul\":5262:5280   */\n      0xffffffffffffffff\n        /* \"#utility.yul\":5254:5260   */\n      dup2\n        /* \"#utility.yul\":5251:5281   */\n      gt\n        /* \"#utility.yul\":5248:5365   */\n      iszero\n      tag_292\n      jumpi\n        /* \"#utility.yul\":5284:5363   */\n      tag_293\n      tag_171\n      jump\t// in\n    tag_293:\n        /* \"#utility.yul\":5248:5365   */\n    tag_292:\n        /* \"#utility.yul\":5389:5477   */\n      tag_294\n        /* \"#utility.yul\":5469:5476   */\n      dup7\n        /* \"#utility.yul\":5460:5466   */\n      dup3\n        /* \"#utility.yul\":5449:5458   */\n      dup8\n        /* \"#utility.yul\":5445:5467   */\n      add\n        /* \"#utility.yul\":5389:5477   */\n      tag_187\n      jump\t// in\n    tag_294:\n        /* \"#utility.yul\":5379:5477   */\n      swap3\n      pop\n        /* \"#utility.yul\":5174:5487   */\n      pop\n        /* \"#utility.yul\":5554:5556   */\n      0x40\n        /* \"#utility.yul\":5543:5552   */\n      dup5\n        /* \"#utility.yul\":5539:5557   */\n      add\n        /* \"#utility.yul\":5526:5558   */\n      calldataload\n        /* \"#utility.yul\":5585:5603   */\n      0xffffffffffffffff\n        /* \"#utility.yul\":5577:5583   */\n      dup2\n        /* \"#utility.yul\":5574:5604   */\n      gt\n        /* \"#utility.yul\":5571:5688   */\n      iszero\n      tag_295\n      jumpi\n        /* \"#utility.yul\":5607:5686   */\n      tag_296\n      tag_171\n      jump\t// in\n    tag_296:\n        /* \"#utility.yul\":5571:5688   */\n    tag_295:\n        /* \"#utility.yul\":5712:5800   */\n      tag_297\n        /* \"#utility.yul\":5792:5799   */\n      dup7\n        /* \"#utility.yul\":5783:5789   */\n      dup3\n        /* \"#utility.yul\":5772:5781   */\n      dup8\n        /* \"#utility.yul\":5768:5790   */\n      add\n        /* \"#utility.yul\":5712:5800   */\n      tag_187\n      jump\t// in\n    tag_297:\n        /* \"#utility.yul\":5702:5800   */\n      swap2\n      pop\n        /* \"#utility.yul\":5497:5810   */\n      pop\n        /* \"#utility.yul\":4738:5817   */\n      swap3\n      pop\n      swap3\n      pop\n      swap3\n      jump\t// out\n        /* \"#utility.yul\":5823:5941   */\n    tag_188:\n        /* \"#utility.yul\":5910:5934   */\n      tag_299\n        /* \"#utility.yul\":5928:5933   */\n      dup2\n        /* \"#utility.yul\":5910:5934   */\n      tag_172\n      jump\t// in\n    tag_299:\n        /* \"#utility.yul\":5905:5908   */\n      dup3\n        /* \"#utility.yul\":5898:5935   */\n      mstore\n        /* \"#utility.yul\":5823:5941   */\n      pop\n      pop\n      jump\t// out\n        /* \"#utility.yul\":5947:6169   */\n    tag_16:\n        /* \"#utility.yul\":6040:6044   */\n      0x00\n        /* \"#utility.yul\":6078:6080   */\n      0x20\n        /* \"#utility.yul\":6067:6076   */\n      dup3\n        /* \"#utility.yul\":6063:6081   */\n      add\n        /* \"#utility.yul\":6055:6081   */\n      swap1\n      pop\n        /* \"#utility.yul\":6091:6162   */\n      tag_301\n        /* \"#utility.yul\":6159:6160   */\n      0x00\n        /* \"#utility.yul\":6148:6157   */\n      dup4\n        /* \"#utility.yul\":6144:6161   */\n      add\n        /* \"#utility.yul\":6135:6141   */\n      dup5\n        /* \"#utility.yul\":6091:6162   */\n      tag_188\n      jump\t// in\n    tag_301:\n        /* \"#utility.yul\":5947:6169   */\n      swap3\n      swap2\n      pop\n      pop\n      jump\t// out\n        /* \"#utility.yul\":6175:6504   */\n    tag_22:\n        /* \"#utility.yul\":6234:6240   */\n      0x00\n        /* \"#utility.yul\":6283:6285   */\n      0x20\n        /* \"#utility.yul\":6271:6280   */\n      dup3\n        /* \"#utility.yul\":6262:6269   */\n      dup5\n        /* \"#utility.yul\":6258:6281   */\n      sub\n        /* \"#utility.yul\":6254:6286   */\n      slt\n        /* \"#utility.yul\":6251:6370   */\n      iszero\n      tag_303\n      jumpi\n        /* \"#utility.yul\":6289:6368   */\n      tag_304\n      tag_170\n      jump\t// in\n    tag_304:\n        /* \"#utility.yul\":6251:6370   */\n    tag_303:\n        /* \"#utility.yul\":6409:6410   */\n      0x00\n        /* \"#utility.yul\":6434:6487   */\n      tag_305\n        /* \"#utility.yul\":6479:6486   */\n      dup5\n        /* \"#utility.yul\":6470:6476   */\n      dup3\n        /* \"#utility.yul\":6459:6468   */\n      dup6\n        /* \"#utility.yul\":6455:6477   */\n      add\n        /* \"#utility.yul\":6434:6487   */\n      tag_174\n      jump\t// in\n    tag_305:\n        /* \"#utility.yul\":6424:6487   */\n      swap2\n      pop\n        /* \"#utility.yul\":6380:6497   */\n      pop\n        /* \"#utility.yul\":6175:6504   */\n      swap3\n      swap2\n      pop\n      pop\n      jump\t// out\n        /* \"#utility.yul\":6510:6634   */\n    tag_189:\n        /* \"#utility.yul\":6587:6593   */\n      0x00\n        /* \"#utility.yul\":6621:6626   */\n      dup2\n        /* \"#utility.yul\":6615:6627   */\n      mload\n        /* \"#utility.yul\":6605:6627   */\n      swap1\n      pop\n        /* \"#utility.yul\":6510:6634   */\n      swap2\n      swap1\n      pop\n      jump\t// out\n        /* \"#utility.yul\":6640:6834   */\n    tag_190:\n        /* \"#utility.yul\":6749:6760   */\n      0x00\n        /* \"#utility.yul\":6783:6789   */\n      dup3\n        /* \"#utility.yul\":6778:6781   */\n      dup3\n        /* \"#utility.yul\":6771:6790   */\n      mstore\n        /* \"#utility.yul\":6823:6827   */\n      0x20\n        /* \"#utility.yul\":6818:6821   */\n      dup3\n        /* \"#utility.yul\":6814:6828   */\n      add\n        /* \"#utility.yul\":6799:6828   */\n      swap1\n      pop\n        /* \"#utility.yul\":6640:6834   */\n      swap3\n      swap2\n      pop\n      pop\n      jump\t// out\n        /* \"#utility.yul\":6840:6982   */\n    tag_191:\n        /* \"#utility.yul\":6917:6921   */\n      0x00\n        /* \"#utility.yul\":6940:6943   */\n      dup2\n        /* \"#utility.yul\":6932:6943   */\n      swap1\n      pop\n        /* \"#utility.yul\":6970:6974   */\n      0x20\n        /* \"#utility.yul\":6965:6968   */\n      dup3\n        /* \"#utility.yul\":6961:6975   */\n      add\n        /* \"#utility.yul\":6953:6975   */\n      swap1\n      pop\n        /* \"#utility.yul\":6840:6982   */\n      swap2\n      swap1\n      pop\n      jump\t// out\n        /* \"#utility.yul\":6988:7087   */\n    tag_192:\n        /* \"#utility.yul\":7040:7046   */\n      0x00\n        /* \"#utility.yul\":7074:7079   */\n      dup2\n        /* \"#utility.yul\":7068:7080   */\n      mload\n        /* \"#utility.yul\":7058:7080   */\n      swap1\n      pop\n        /* \"#utility.yul\":6988:7087   */\n      swap2\n      swap1\n      pop\n      jump\t// out\n        /* \"#utility.yul\":7093:7252   */\n    tag_193:\n        /* \"#utility.yul\":7167:7178   */\n      0x00\n        /* \"#utility.yul\":7201:7207   */\n      dup3\n        /* \"#utility.yul\":7196:7199   */\n      dup3\n        /* \"#utility.yul\":7189:7208   */\n      mstore\n        /* \"#utility.yul\":7241:7245   */\n      0x20\n        /* \"#utility.yul\":7236:7239   */\n      dup3\n        /* \"#utility.yul\":7232:7246   */\n      add\n        /* \"#utility.yul\":7217:7246   */\n      swap1\n      pop\n        /* \"#utility.yul\":7093:7252   */\n      swap3\n      swap2\n      pop\n      pop\n      jump\t// out\n        /* \"#utility.yul\":7258:7504   */\n    tag_194:\n        /* \"#utility.yul\":7339:7340   */\n      0x00\n        /* \"#utility.yul\":7349:7462   */\n    tag_312:\n        /* \"#utility.yul\":7363:7369   */\n      dup4\n        /* \"#utility.yul\":7360:7361   */\n      dup2\n        /* \"#utility.yul\":7357:7370   */\n      lt\n        /* \"#utility.yul\":7349:7462   */\n      iszero\n      tag_314\n      jumpi\n        /* \"#utility.yul\":7448:7449   */\n      dup1\n        /* \"#utility.yul\":7443:7446   */\n      dup3\n        /* \"#utility.yul\":7439:7450   */\n      add\n        /* \"#utility.yul\":7433:7451   */\n      mload\n        /* \"#utility.yul\":7429:7430   */\n      dup2\n        /* \"#utility.yul\":7424:7427   */\n      dup5\n        /* \"#utility.yul\":7420:7431   */\n      add\n        /* \"#utility.yul\":7413:7452   */\n      mstore\n        /* \"#utility.yul\":7385:7387   */\n      0x20\n        /* \"#utility.yul\":7382:7383   */\n      dup2\n        /* \"#utility.yul\":7378:7388   */\n      add\n        /* \"#utility.yul\":7373:7388   */\n      swap1\n      pop\n        /* \"#utility.yul\":7349:7462   */\n      jump(tag_312)\n    tag_314:\n        /* \"#utility.yul\":7496:7497   */\n      0x00\n        /* \"#utility.yul\":7487:7493   */\n      dup5\n        /* \"#utility.yul\":7482:7485   */\n      dup5\n        /* \"#utility.yul\":7478:7494   */\n      add\n        /* \"#utility.yul\":7471:7498   */\n      mstore\n        /* \"#utility.yul\":7320:7504   */\n      pop\n        /* \"#utility.yul\":7258:7504   */\n      pop\n      pop\n      pop\n      jump\t// out\n        /* \"#utility.yul\":7510:7867   */\n    tag_195:\n        /* \"#utility.yul\":7588:7591   */\n      0x00\n        /* \"#utility.yul\":7616:7655   */\n      tag_316\n        /* \"#utility.yul\":7649:7654   */\n      dup3\n        /* \"#utility.yul\":7616:7655   */\n      tag_192\n      jump\t// in\n    tag_316:\n        /* \"#utility.yul\":7671:7732   */\n      tag_317\n        /* \"#utility.yul\":7725:7731   */\n      dup2\n        /* \"#utility.yul\":7720:7723   */\n      dup6\n        /* \"#utility.yul\":7671:7732   */\n      tag_193\n      jump\t// in\n    tag_317:\n        /* \"#utility.yul\":7664:7732   */\n      swap4\n      pop\n        /* \"#utility.yul\":7741:7806   */\n      tag_318\n        /* \"#utility.yul\":7799:7805   */\n      dup2\n        /* \"#utility.yul\":7794:7797   */\n      dup6\n        /* \"#utility.yul\":7787:7791   */\n      0x20\n        /* \"#utility.yul\":7780:7785   */\n      dup7\n        /* \"#utility.yul\":7776:7792   */\n      add\n        /* \"#utility.yul\":7741:7806   */\n      tag_194\n      jump\t// in\n    tag_318:\n        /* \"#utility.yul\":7831:7860   */\n      tag_319\n        /* \"#utility.yul\":7853:7859   */\n      dup2\n        /* \"#utility.yul\":7831:7860   */\n      tag_176\n      jump\t// in\n    tag_319:\n        /* \"#utility.yul\":7826:7829   */\n      dup5\n        /* \"#utility.yul\":7822:7861   */\n      add\n        /* \"#utility.yul\":7815:7861   */\n      swap2\n      pop\n        /* \"#utility.yul\":7592:7867   */\n      pop\n        /* \"#utility.yul\":7510:7867   */\n      swap3\n      swap2\n      pop\n      pop\n      jump\t// out\n        /* \"#utility.yul\":7873:8069   */\n    tag_196:\n        /* \"#utility.yul\":7962:7972   */\n      0x00\n        /* \"#utility.yul\":7997:8063   */\n      tag_321\n        /* \"#utility.yul\":8059:8062   */\n      dup4\n        /* \"#utility.yul\":8051:8057   */\n      dup4\n        /* \"#utility.yul\":7997:8063   */\n      tag_195\n      jump\t// in\n    tag_321:\n        /* \"#utility.yul\":7983:8063   */\n      swap1\n      pop\n        /* \"#utility.yul\":7873:8069   */\n      swap3\n      swap2\n      pop\n      pop\n      jump\t// out\n        /* \"#utility.yul\":8075:8198   */\n    tag_197:\n        /* \"#utility.yul\":8155:8159   */\n      0x00\n        /* \"#utility.yul\":8187:8191   */\n      0x20\n        /* \"#utility.yul\":8182:8185   */\n      dup3\n        /* \"#utility.yul\":8178:8192   */\n      add\n        /* \"#utility.yul\":8170:8192   */\n      swap1\n      pop\n        /* \"#utility.yul\":8075:8198   */\n      swap2\n      swap1\n      pop\n      jump\t// out\n        /* \"#utility.yul\":8232:9223   */\n    tag_198:\n        /* \"#utility.yul\":8371:8374   */\n      0x00\n        /* \"#utility.yul\":8400:8464   */\n      tag_324\n        /* \"#utility.yul\":8458:8463   */\n      dup3\n        /* \"#utility.yul\":8400:8464   */\n      tag_189\n      jump\t// in\n    tag_324:\n        /* \"#utility.yul\":8480:8576   */\n      tag_325\n        /* \"#utility.yul\":8569:8575   */\n      dup2\n        /* \"#utility.yul\":8564:8567   */\n      dup6\n        /* \"#utility.yul\":8480:8576   */\n      tag_190\n      jump\t// in\n    tag_325:\n        /* \"#utility.yul\":8473:8576   */\n      swap4\n      pop\n        /* \"#utility.yul\":8602:8605   */\n      dup4\n        /* \"#utility.yul\":8647:8651   */\n      0x20\n        /* \"#utility.yul\":8639:8645   */\n      dup3\n        /* \"#utility.yul\":8635:8652   */\n      mul\n        /* \"#utility.yul\":8630:8633   */\n      dup6\n        /* \"#utility.yul\":8626:8653   */\n      add\n        /* \"#utility.yul\":8677:8743   */\n      tag_326\n        /* \"#utility.yul\":8737:8742   */\n      dup6\n        /* \"#utility.yul\":8677:8743   */\n      tag_191\n      jump\t// in\n    tag_326:\n        /* \"#utility.yul\":8766:8773   */\n      dup1\n        /* \"#utility.yul\":8797:8798   */\n      0x00\n        /* \"#utility.yul\":8782:9178   */\n    tag_327:\n        /* \"#utility.yul\":8807:8813   */\n      dup6\n        /* \"#utility.yul\":8804:8805   */\n      dup2\n        /* \"#utility.yul\":8801:8814   */\n      lt\n        /* \"#utility.yul\":8782:9178   */\n      iszero\n      tag_329\n      jumpi\n        /* \"#utility.yul\":8878:8887   */\n      dup5\n        /* \"#utility.yul\":8872:8876   */\n      dup5\n        /* \"#utility.yul\":8868:8888   */\n      sub\n        /* \"#utility.yul\":8863:8866   */\n      dup10\n        /* \"#utility.yul\":8856:8889   */\n      mstore\n        /* \"#utility.yul\":8929:8935   */\n      dup2\n        /* \"#utility.yul\":8923:8936   */\n      mload\n        /* \"#utility.yul\":8957:9041   */\n      tag_330\n        /* \"#utility.yul\":9036:9040   */\n      dup6\n        /* \"#utility.yul\":9021:9034   */\n      dup3\n        /* \"#utility.yul\":8957:9041   */\n      tag_196\n      jump\t// in\n    tag_330:\n        /* \"#utility.yul\":8949:9041   */\n      swap5\n      pop\n        /* \"#utility.yul\":9064:9134   */\n      tag_331\n        /* \"#utility.yul\":9127:9133   */\n      dup4\n        /* \"#utility.yul\":9064:9134   */\n      tag_197\n      jump\t// in\n    tag_331:\n        /* \"#utility.yul\":9054:9134   */\n      swap3\n      pop\n        /* \"#utility.yul\":9163:9167   */\n      0x20\n        /* \"#utility.yul\":9158:9161   */\n      dup11\n        /* \"#utility.yul\":9154:9168   */\n      add\n        /* \"#utility.yul\":9147:9168   */\n      swap10\n      pop\n        /* \"#utility.yul\":8842:9178   */\n      pop\n        /* \"#utility.yul\":8829:8830   */\n      0x01\n        /* \"#utility.yul\":8826:8827   */\n      dup2\n        /* \"#utility.yul\":8822:8831   */\n      add\n        /* \"#utility.yul\":8817:8831   */\n      swap1\n      pop\n        /* \"#utility.yul\":8782:9178   */\n      jump(tag_327)\n    tag_329:\n        /* \"#utility.yul\":8786:8800   */\n      pop\n        /* \"#utility.yul\":9194:9198   */\n      dup3\n        /* \"#utility.yul\":9187:9198   */\n      swap8\n      pop\n        /* \"#utility.yul\":9214:9217   */\n      dup8\n        /* \"#utility.yul\":9207:9217   */\n      swap6\n      pop\n        /* \"#utility.yul\":8376:9223   */\n      pop\n      pop\n      pop\n      pop\n      pop\n        /* \"#utility.yul\":8232:9223   */\n      swap3\n      swap2\n      pop\n      pop\n      jump\t// out\n        /* \"#utility.yul\":9229:9943   */\n    tag_25:\n        /* \"#utility.yul\":9490:9494   */\n      0x00\n        /* \"#utility.yul\":9528:9530   */\n      0x40\n        /* \"#utility.yul\":9517:9526   */\n      dup3\n        /* \"#utility.yul\":9513:9531   */\n      add\n        /* \"#utility.yul\":9505:9531   */\n      swap1\n      pop\n        /* \"#utility.yul\":9577:9586   */\n      dup2\n        /* \"#utility.yul\":9571:9575   */\n      dup2\n        /* \"#utility.yul\":9567:9587   */\n      sub\n        /* \"#utility.yul\":9563:9564   */\n      0x00\n        /* \"#utility.yul\":9552:9561   */\n      dup4\n        /* \"#utility.yul\":9548:9565   */\n      add\n        /* \"#utility.yul\":9541:9588   */\n      mstore\n        /* \"#utility.yul\":9605:9733   */\n      tag_333\n        /* \"#utility.yul\":9728:9732   */\n      dup2\n        /* \"#utility.yul\":9719:9725   */\n      dup6\n        /* \"#utility.yul\":9605:9733   */\n      tag_198\n      jump\t// in\n    tag_333:\n        /* \"#utility.yul\":9597:9733   */\n      swap1\n      pop\n        /* \"#utility.yul\":9780:9789   */\n      dup2\n        /* \"#utility.yul\":9774:9778   */\n      dup2\n        /* \"#utility.yul\":9770:9790   */\n      sub\n        /* \"#utility.yul\":9765:9767   */\n      0x20\n        /* \"#utility.yul\":9754:9763   */\n      dup4\n        /* \"#utility.yul\":9750:9768   */\n      add\n        /* \"#utility.yul\":9743:9791   */\n      mstore\n        /* \"#utility.yul\":9808:9936   */\n      tag_334\n        /* \"#utility.yul\":9931:9935   */\n      dup2\n        /* \"#utility.yul\":9922:9928   */\n      dup5\n        /* \"#utility.yul\":9808:9936   */\n      tag_198\n      jump\t// in\n    tag_334:\n        /* \"#utility.yul\":9800:9936   */\n      swap1\n      pop\n        /* \"#utility.yul\":9229:9943   */\n      swap4\n      swap3\n      pop\n      pop\n      pop\n      jump\t// out\n        /* \"#utility.yul\":9949:10063   */\n    tag_199:\n        /* \"#utility.yul\":10016:10022   */\n      0x00\n        /* \"#utility.yul\":10050:10055   */\n      dup2\n        /* \"#utility.yul\":10044:10056   */\n      mload\n        /* \"#utility.yul\":10034:10056   */\n      swap1\n      pop\n        /* \"#utility.yul\":9949:10063   */\n      swap2\n      swap1\n      pop\n      jump\t// out\n        /* \"#utility.yul\":10069:10253   */\n    tag_200:\n        /* \"#utility.yul\":10168:10179   */\n      0x00\n        /* \"#utility.yul\":10202:10208   */\n      dup3\n        /* \"#utility.yul\":10197:10200   */\n      dup3\n        /* \"#utility.yul\":10190:10209   */\n      mstore\n        /* \"#utility.yul\":10242:10246   */\n      0x20\n        /* \"#utility.yul\":10237:10240   */\n      dup3\n        /* \"#utility.yul\":10233:10247   */\n      add\n        /* \"#utility.yul\":10218:10247   */\n      swap1\n      pop\n        /* \"#utility.yul\":10069:10253   */\n      swap3\n      swap2\n      pop\n      pop\n      jump\t// out\n        /* \"#utility.yul\":10259:10391   */\n    tag_201:\n        /* \"#utility.yul\":10326:10330   */\n      0x00\n        /* \"#utility.yul\":10349:10352   */\n      dup2\n        /* \"#utility.yul\":10341:10352   */\n      swap1\n      pop\n        /* \"#utility.yul\":10379:10383   */\n      0x20\n        /* \"#utility.yul\":10374:10377   */\n      dup3\n        /* \"#utility.yul\":10370:10384   */\n      add\n        /* \"#utility.yul\":10362:10384   */\n      swap1\n      pop\n        /* \"#utility.yul\":10259:10391   */\n      swap2\n      swap1\n      pop\n      jump\t// out\n        /* \"#utility.yul\":10397:10505   */\n    tag_202:\n        /* \"#utility.yul\":10474:10498   */\n      tag_339\n        /* \"#utility.yul\":10492:10497   */\n      dup2\n        /* \"#utility.yul\":10474:10498   */\n      tag_172\n      jump\t// in\n    tag_339:\n        /* \"#utility.yul\":10469:10472   */\n      dup3\n        /* \"#utility.yul\":10462:10499   */\n      mstore\n        /* \"#utility.yul\":10397:10505   */\n      pop\n      pop\n      jump\t// out\n        /* \"#utility.yul\":10511:10690   */\n    tag_203:\n        /* \"#utility.yul\":10580:10590   */\n      0x00\n        /* \"#utility.yul\":10601:10647   */\n      tag_341\n        /* \"#utility.yul\":10643:10646   */\n      dup4\n        /* \"#utility.yul\":10635:10641   */\n      dup4\n        /* \"#utility.yul\":10601:10647   */\n      tag_202\n      jump\t// in\n    tag_341:\n        /* \"#utility.yul\":10679:10683   */\n      0x20\n        /* \"#utility.yul\":10674:10677   */\n      dup4\n        /* \"#utility.yul\":10670:10684   */\n      add\n        /* \"#utility.yul\":10656:10684   */\n      swap1\n      pop\n        /* \"#utility.yul\":10511:10690   */\n      swap3\n      swap2\n      pop\n      pop\n      jump\t// out\n        /* \"#utility.yul\":10696:10809   */\n    tag_204:\n        /* \"#utility.yul\":10766:10770   */\n      0x00\n        /* \"#utility.yul\":10798:10802   */\n      0x20\n        /* \"#utility.yul\":10793:10796   */\n      dup3\n        /* \"#utility.yul\":10789:10803   */\n      add\n        /* \"#utility.yul\":10781:10803   */\n      swap1\n      pop\n        /* \"#utility.yul\":10696:10809   */\n      swap2\n      swap1\n      pop\n      jump\t// out\n        /* \"#utility.yul\":10845:11577   */\n    tag_205:\n        /* \"#utility.yul\":10964:10967   */\n      0x00\n        /* \"#utility.yul\":10993:11047   */\n      tag_344\n        /* \"#utility.yul\":11041:11046   */\n      dup3\n        /* \"#utility.yul\":10993:11047   */\n      tag_199\n      jump\t// in\n    tag_344:\n        /* \"#utility.yul\":11063:11149   */\n      tag_345\n        /* \"#utility.yul\":11142:11148   */\n      dup2\n        /* \"#utility.yul\":11137:11140   */\n      dup6\n        /* \"#utility.yul\":11063:11149   */\n      tag_200\n      jump\t// in\n    tag_345:\n        /* \"#utility.yul\":11056:11149   */\n      swap4\n      pop\n        /* \"#utility.yul\":11173:11229   */\n      tag_346\n        /* \"#utility.yul\":11223:11228   */\n      dup4\n        /* \"#utility.yul\":11173:11229   */\n      tag_201\n      jump\t// in\n    tag_346:\n        /* \"#utility.yul\":11252:11259   */\n      dup1\n        /* \"#utility.yul\":11283:11284   */\n      0x00\n        /* \"#utility.yul\":11268:11552   */\n    tag_347:\n        /* \"#utility.yul\":11293:11299   */\n      dup4\n        /* \"#utility.yul\":11290:11291   */\n      dup2\n        /* \"#utility.yul\":11287:11300   */\n      lt\n        /* \"#utility.yul\":11268:11552   */\n      iszero\n      tag_349\n      jumpi\n        /* \"#utility.yul\":11369:11375   */\n      dup2\n        /* \"#utility.yul\":11363:11376   */\n      mload\n        /* \"#utility.yul\":11396:11459   */\n      tag_350\n        /* \"#utility.yul\":11455:11458   */\n      dup9\n        /* \"#utility.yul\":11440:11453   */\n      dup3\n        /* \"#utility.yul\":11396:11459   */\n      tag_203\n      jump\t// in\n    tag_350:\n        /* \"#utility.yul\":11389:11459   */\n      swap8\n      pop\n        /* \"#utility.yul\":11482:11542   */\n      tag_351\n        /* \"#utility.yul\":11535:11541   */\n      dup4\n        /* \"#utility.yul\":11482:11542   */\n      tag_204\n      jump\t// in\n    tag_351:\n        /* \"#utility.yul\":11472:11542   */\n      swap3\n      pop\n        /* \"#utility.yul\":11328:11552   */\n      pop\n        /* \"#utility.yul\":11315:11316   */\n      0x01\n        /* \"#utility.yul\":11312:11313   */\n      dup2\n        /* \"#utility.yul\":11308:11317   */\n      add\n        /* \"#utility.yul\":11303:11317   */\n      swap1\n      pop\n        /* \"#utility.yul\":11268:11552   */\n      jump(tag_347)\n    tag_349:\n        /* \"#utility.yul\":11272:11286   */\n      pop\n        /* \"#utility.yul\":11568:11571   */\n      dup6\n        /* \"#utility.yul\":11561:11571   */\n      swap4\n      pop\n        /* \"#utility.yul\":10969:11577   */\n      pop\n      pop\n      pop\n        /* \"#utility.yul\":10845:11577   */\n      swap3\n      swap2\n      pop\n      pop\n      jump\t// out\n        /* \"#utility.yul\":11583:11956   */\n    tag_32:\n        /* \"#utility.yul\":11726:11730   */\n      0x00\n        /* \"#utility.yul\":11764:11766   */\n      0x20\n        /* \"#utility.yul\":11753:11762   */\n      dup3\n        /* \"#utility.yul\":11749:11767   */\n      add\n        /* \"#utility.yul\":11741:11767   */\n      swap1\n      pop\n        /* \"#utility.yul\":11813:11822   */\n      dup2\n        /* \"#utility.yul\":11807:11811   */\n      dup2\n        /* \"#utility.yul\":11803:11823   */\n      sub\n        /* \"#utility.yul\":11799:11800   */\n      0x00\n        /* \"#utility.yul\":11788:11797   */\n      dup4\n        /* \"#utility.yul\":11784:11801   */\n      add\n        /* \"#utility.yul\":11777:11824   */\n      mstore\n        /* \"#utility.yul\":11841:11949   */\n      tag_353\n        /* \"#utility.yul\":11944:11948   */\n      dup2\n        /* \"#utility.yul\":11935:11941   */\n      dup5\n        /* \"#utility.yul\":11841:11949   */\n      tag_205\n      jump\t// in\n    tag_353:\n        /* \"#utility.yul\":11833:11949   */\n      swap1\n      pop\n        /* \"#utility.yul\":11583:11956   */\n      swap3\n      swap2\n      pop\n      pop\n      jump\t// out\n        /* \"#utility.yul\":11962:12131   */\n    tag_206:\n        /* \"#utility.yul\":12046:12057   */\n      0x00\n        /* \"#utility.yul\":12080:12086   */\n      dup3\n        /* \"#utility.yul\":12075:12078   */\n      dup3\n        /* \"#utility.yul\":12068:12087   */\n      mstore\n        /* \"#utility.yul\":12120:12124   */\n      0x20\n        /* \"#utility.yul\":12115:12118   */\n      dup3\n        /* \"#utility.yul\":12111:12125   */\n      add\n        /* \"#utility.yul\":12096:12125   */\n      swap1\n      pop\n        /* \"#utility.yul\":11962:12131   */\n      swap3\n      swap2\n      pop\n      pop\n      jump\t// out\n        /* \"#utility.yul\":12137:12311   */\n    tag_207:\n        /* \"#utility.yul\":12277:12303   */\n      0x5b4552524f525d204944206e6f7420617661696c61626c650000000000000000\n        /* \"#utility.yul\":12273:12274   */\n      0x00\n        /* \"#utility.yul\":12265:12271   */\n      dup3\n        /* \"#utility.yul\":12261:12275   */\n      add\n        /* \"#utility.yul\":12254:12304   */\n      mstore\n        /* \"#utility.yul\":12137:12311   */\n      pop\n      jump\t// out\n        /* \"#utility.yul\":12317:12683   */\n    tag_208:\n        /* \"#utility.yul\":12459:12462   */\n      0x00\n        /* \"#utility.yul\":12480:12547   */\n      tag_357\n        /* \"#utility.yul\":12544:12546   */\n      0x18\n        /* \"#utility.yul\":12539:12542   */\n      dup4\n        /* \"#utility.yul\":12480:12547   */\n      tag_206\n      jump\t// in\n    tag_357:\n        /* \"#utility.yul\":12473:12547   */\n      swap2\n      pop\n        /* \"#utility.yul\":12556:12649   */\n      tag_358\n        /* \"#utility.yul\":12645:12648   */\n      dup3\n        /* \"#utility.yul\":12556:12649   */\n      tag_207\n      jump\t// in\n    tag_358:\n        /* \"#utility.yul\":12674:12676   */\n      0x20\n        /* \"#utility.yul\":12669:12672   */\n      dup3\n        /* \"#utility.yul\":12665:12677   */\n      add\n        /* \"#utility.yul\":12658:12677   */\n      swap1\n      pop\n        /* \"#utility.yul\":12317:12683   */\n      swap2\n      swap1\n      pop\n      jump\t// out\n        /* \"#utility.yul\":12689:13108   */\n    tag_36:\n        /* \"#utility.yul\":12855:12859   */\n      0x00\n        /* \"#utility.yul\":12893:12895   */\n      0x20\n        /* \"#utility.yul\":12882:12891   */\n      dup3\n        /* \"#utility.yul\":12878:12896   */\n      add\n        /* \"#utility.yul\":12870:12896   */\n      swap1\n      pop\n        /* \"#utility.yul\":12942:12951   */\n      dup2\n        /* \"#utility.yul\":12936:12940   */\n      dup2\n        /* \"#utility.yul\":12932:12952   */\n      sub\n        /* \"#utility.yul\":12928:12929   */\n      0x00\n        /* \"#utility.yul\":12917:12926   */\n      dup4\n        /* \"#utility.yul\":12913:12930   */\n      add\n        /* \"#utility.yul\":12906:12953   */\n      mstore\n        /* \"#utility.yul\":12970:13101   */\n      tag_360\n        /* \"#utility.yul\":13096:13100   */\n      dup2\n        /* \"#utility.yul\":12970:13101   */\n      tag_208\n      jump\t// in\n    tag_360:\n        /* \"#utility.yul\":12962:13101   */\n      swap1\n      pop\n        /* \"#utility.yul\":12689:13108   */\n      swap2\n      swap1\n      pop\n      jump\t// out\n        /* \"#utility.yul\":13114:13357   */\n    tag_209:\n        /* \"#utility.yul\":13254:13288   */\n      0x5b4552524f525d20546865206c656e677468206f6620746865206b6579732061\n        /* \"#utility.yul\":13250:13251   */\n      0x00\n        /* \"#utility.yul\":13242:13248   */\n      dup3\n        /* \"#utility.yul\":13238:13252   */\n      add\n        /* \"#utility.yul\":13231:13289   */\n      mstore\n        /* \"#utility.yul\":13323:13349   */\n      0x6e642076616c75657320617265206e6f746520657175616c0000000000000000\n        /* \"#utility.yul\":13318:13320   */\n      0x20\n        /* \"#utility.yul\":13310:13316   */\n      dup3\n        /* \"#utility.yul\":13306:13321   */\n      add\n        /* \"#utility.yul\":13299:13350   */\n      mstore\n        /* \"#utility.yul\":13114:13357   */\n      pop\n      jump\t// out\n        /* \"#utility.yul\":13363:13729   */\n    tag_210:\n        /* \"#utility.yul\":13505:13508   */\n      0x00\n        /* \"#utility.yul\":13526:13593   */\n      tag_363\n        /* \"#utility.yul\":13590:13592   */\n      0x38\n        /* \"#utility.yul\":13585:13588   */\n      dup4\n        /* \"#utility.yul\":13526:13593   */\n      tag_206\n      jump\t// in\n    tag_363:\n        /* \"#utility.yul\":13519:13593   */\n      swap2\n      pop\n        /* \"#utility.yul\":13602:13695   */\n      tag_364\n        /* \"#utility.yul\":13691:13694   */\n      dup3\n        /* \"#utility.yul\":13602:13695   */\n      tag_209\n      jump\t// in\n    tag_364:\n        /* \"#utility.yul\":13720:13722   */\n      0x40\n        /* \"#utility.yul\":13715:13718   */\n      dup3\n        /* \"#utility.yul\":13711:13723   */\n      add\n        /* \"#utility.yul\":13704:13723   */\n      swap1\n      pop\n        /* \"#utility.yul\":13363:13729   */\n      swap2\n      swap1\n      pop\n      jump\t// out\n        /* \"#utility.yul\":13735:14154   */\n    tag_40:\n        /* \"#utility.yul\":13901:13905   */\n      0x00\n        /* \"#utility.yul\":13939:13941   */\n      0x20\n        /* \"#utility.yul\":13928:13937   */\n      dup3\n        /* \"#utility.yul\":13924:13942   */\n      add\n        /* \"#utility.yul\":13916:13942   */\n      swap1\n      pop\n        /* \"#utility.yul\":13988:13997   */\n      dup2\n        /* \"#utility.yul\":13982:13986   */\n      dup2\n        /* \"#utility.yul\":13978:13998   */\n      sub\n        /* \"#utility.yul\":13974:13975   */\n      0x00\n        /* \"#utility.yul\":13963:13972   */\n      dup4\n        /* \"#utility.yul\":13959:13976   */\n      add\n        /* \"#utility.yul\":13952:13999   */\n      mstore\n        /* \"#utility.yul\":14016:14147   */\n      tag_366\n        /* \"#utility.yul\":14142:14146   */\n      dup2\n        /* \"#utility.yul\":14016:14147   */\n      tag_210\n      jump\t// in\n    tag_366:\n        /* \"#utility.yul\":14008:14147   */\n      swap1\n      pop\n        /* \"#utility.yul\":13735:14154   */\n      swap2\n      swap1\n      pop\n      jump\t// out\n        /* \"#utility.yul\":14160:14340   */\n    tag_46:\n        /* \"#utility.yul\":14208:14285   */\n      0x4e487b7100000000000000000000000000000000000000000000000000000000\n        /* \"#utility.yul\":14205:14206   */\n      0x00\n        /* \"#utility.yul\":14198:14286   */\n      mstore\n        /* \"#utility.yul\":14305:14309   */\n      0x32\n        /* \"#utility.yul\":14302:14303   */\n      0x04\n        /* \"#utility.yul\":14295:14310   */\n      mstore\n        /* \"#utility.yul\":14329:14333   */\n      0x24\n        /* \"#utility.yul\":14326:14327   */\n      0x00\n        /* \"#utility.yul\":14319:14334   */\n      revert\n        /* \"#utility.yul\":14346:14494   */\n    tag_211:\n        /* \"#utility.yul\":14448:14459   */\n      0x00\n        /* \"#utility.yul\":14485:14488   */\n      dup2\n        /* \"#utility.yul\":14470:14488   */\n      swap1\n      pop\n        /* \"#utility.yul\":14346:14494   */\n      swap3\n      swap2\n      pop\n      pop\n      jump\t// out\n        /* \"#utility.yul\":14500:14890   */\n    tag_212:\n        /* \"#utility.yul\":14606:14609   */\n      0x00\n        /* \"#utility.yul\":14634:14673   */\n      tag_370\n        /* \"#utility.yul\":14667:14672   */\n      dup3\n        /* \"#utility.yul\":14634:14673   */\n      tag_192\n      jump\t// in\n    tag_370:\n        /* \"#utility.yul\":14689:14778   */\n      tag_371\n        /* \"#utility.yul\":14771:14777   */\n      dup2\n        /* \"#utility.yul\":14766:14769   */\n      dup6\n        /* \"#utility.yul\":14689:14778   */\n      tag_211\n      jump\t// in\n    tag_371:\n        /* \"#utility.yul\":14682:14778   */\n      swap4\n      pop\n        /* \"#utility.yul\":14787:14852   */\n      tag_372\n        /* \"#utility.yul\":14845:14851   */\n      dup2\n        /* \"#utility.yul\":14840:14843   */\n      dup6\n        /* \"#utility.yul\":14833:14837   */\n      0x20\n        /* \"#utility.yul\":14826:14831   */\n      dup7\n        /* \"#utility.yul\":14822:14838   */\n      add\n        /* \"#utility.yul\":14787:14852   */\n      tag_194\n      jump\t// in\n    tag_372:\n        /* \"#utility.yul\":14877:14883   */\n      dup1\n        /* \"#utility.yul\":14872:14875   */\n      dup5\n        /* \"#utility.yul\":14868:14884   */\n      add\n        /* \"#utility.yul\":14861:14884   */\n      swap2\n      pop\n        /* \"#utility.yul\":14610:14890   */\n      pop\n        /* \"#utility.yul\":14500:14890   */\n      swap3\n      swap2\n      pop\n      pop\n      jump\t// out\n        /* \"#utility.yul\":14896:15171   */\n    tag_50:\n        /* \"#utility.yul\":15028:15031   */\n      0x00\n        /* \"#utility.yul\":15050:15145   */\n      tag_374\n        /* \"#utility.yul\":15141:15144   */\n      dup3\n        /* \"#utility.yul\":15132:15138   */\n      dup5\n        /* \"#utility.yul\":15050:15145   */\n      tag_212\n      jump\t// in\n    tag_374:\n        /* \"#utility.yul\":15043:15145   */\n      swap2\n      pop\n        /* \"#utility.yul\":15162:15165   */\n      dup2\n        /* \"#utility.yul\":15155:15165   */\n      swap1\n      pop\n        /* \"#utility.yul\":14896:15171   */\n      swap3\n      swap2\n      pop\n      pop\n      jump\t// out\n        /* \"#utility.yul\":15177:15357   */\n    tag_213:\n        /* \"#utility.yul\":15225:15302   */\n      0x4e487b7100000000000000000000000000000000000000000000000000000000\n        /* \"#utility.yul\":15222:15223   */\n      0x00\n        /* \"#utility.yul\":15215:15303   */\n      mstore\n        /* \"#utility.yul\":15322:15326   */\n      0x22\n        /* \"#utility.yul\":15319:15320   */\n      0x04\n        /* \"#utility.yul\":15312:15327   */\n      mstore\n        /* \"#utility.yul\":15346:15350   */\n      0x24\n        /* \"#utility.yul\":15343:15344   */\n      0x00\n        /* \"#utility.yul\":15336:15351   */\n      revert\n        /* \"#utility.yul\":15363:15683   */\n    tag_95:\n        /* \"#utility.yul\":15407:15413   */\n      0x00\n        /* \"#utility.yul\":15444:15445   */\n      0x02\n        /* \"#utility.yul\":15438:15442   */\n      dup3\n        /* \"#utility.yul\":15434:15446   */\n      div\n        /* \"#utility.yul\":15424:15446   */\n      swap1\n      pop\n        /* \"#utility.yul\":15491:15492   */\n      0x01\n        /* \"#utility.yul\":15485:15489   */\n      dup3\n        /* \"#utility.yul\":15481:15493   */\n      and\n        /* \"#utility.yul\":15512:15530   */\n      dup1\n        /* \"#utility.yul\":15502:15583   */\n      tag_377\n      jumpi\n        /* \"#utility.yul\":15568:15572   */\n      0x7f\n        /* \"#utility.yul\":15560:15566   */\n      dup3\n        /* \"#utility.yul\":15556:15573   */\n      and\n        /* \"#utility.yul\":15546:15573   */\n      swap2\n      pop\n        /* \"#utility.yul\":15502:15583   */\n    tag_377:\n        /* \"#utility.yul\":15630:15632   */\n      0x20\n        /* \"#utility.yul\":15622:15628   */\n      dup3\n        /* \"#utility.yul\":15619:15633   */\n      lt\n        /* \"#utility.yul\":15599:15617   */\n      dup2\n        /* \"#utility.yul\":15596:15634   */\n      sub\n        /* \"#utility.yul\":15593:15677   */\n      tag_378\n      jumpi\n        /* \"#utility.yul\":15649:15667   */\n      tag_379\n      tag_213\n      jump\t// in\n    tag_379:\n        /* \"#utility.yul\":15593:15677   */\n    tag_378:\n        /* \"#utility.yul\":15414:15683   */\n      pop\n        /* \"#utility.yul\":15363:15683   */\n      swap2\n      swap1\n      pop\n      jump\t// out\n        /* \"#utility.yul\":15689:15830   */\n    tag_214:\n        /* \"#utility.yul\":15738:15742   */\n      0x00\n        /* \"#utility.yul\":15761:15764   */\n      dup2\n        /* \"#utility.yul\":15753:15764   */\n      swap1\n      pop\n        /* \"#utility.yul\":15784:15787   */\n      dup2\n        /* \"#utility.yul\":15781:15782   */\n      0x00\n        /* \"#utility.yul\":15774:15788   */\n      mstore\n        /* \"#utility.yul\":15818:15822   */\n      0x20\n        /* \"#utility.yul\":15815:15816   */\n      0x00\n        /* \"#utility.yul\":15805:15823   */\n      keccak256\n        /* \"#utility.yul\":15797:15823   */\n      swap1\n      pop\n        /* \"#utility.yul\":15689:15830   */\n      swap2\n      swap1\n      pop\n      jump\t// out\n        /* \"#utility.yul\":15836:15929   */\n    tag_215:\n        /* \"#utility.yul\":15873:15879   */\n      0x00\n        /* \"#utility.yul\":15920:15922   */\n      0x20\n        /* \"#utility.yul\":15915:15917   */\n      0x1f\n        /* \"#utility.yul\":15908:15913   */\n      dup4\n        /* \"#utility.yul\":15904:15918   */\n      add\n        /* \"#utility.yul\":15900:15923   */\n      div\n        /* \"#utility.yul\":15890:15923   */\n      swap1\n      pop\n        /* \"#utility.yul\":15836:15929   */\n      swap2\n      swap1\n      pop\n      jump\t// out\n        /* \"#utility.yul\":15935:16042   */\n    tag_216:\n        /* \"#utility.yul\":15979:15987   */\n      0x00\n        /* \"#utility.yul\":16029:16034   */\n      dup3\n        /* \"#utility.yul\":16023:16027   */\n      dup3\n        /* \"#utility.yul\":16019:16035   */\n      shl\n        /* \"#utility.yul\":15998:16035   */\n      swap1\n      pop\n        /* \"#utility.yul\":15935:16042   */\n      swap3\n      swap2\n      pop\n      pop\n      jump\t// out\n        /* \"#utility.yul\":16048:16441   */\n    tag_217:\n        /* \"#utility.yul\":16117:16123   */\n      0x00\n        /* \"#utility.yul\":16167:16168   */\n      0x08\n        /* \"#utility.yul\":16155:16165   */\n      dup4\n        /* \"#utility.yul\":16151:16169   */\n      mul\n        /* \"#utility.yul\":16190:16287   */\n      tag_384\n        /* \"#utility.yul\":16220:16286   */\n      0xffffffffffffffffffffffffffffffffffffffffffffffffffffffffffffffff\n        /* \"#utility.yul\":16209:16218   */\n      dup3\n        /* \"#utility.yul\":16190:16287   */\n      tag_216\n      jump\t// in\n    tag_384:\n        /* \"#utility.yul\":16308:16347   */\n      tag_385\n        /* \"#utility.yul\":16338:16346   */\n      dup7\n        /* \"#utility.yul\":16327:16336   */\n      dup4\n        /* \"#utility.yul\":16308:16347   */\n      tag_216\n      jump\t// in\n    tag_385:\n        /* \"#utility.yul\":16296:16347   */\n      swap6\n      pop\n        /* \"#utility.yul\":16380:16384   */\n      dup1\n        /* \"#utility.yul\":16376:16385   */\n      not\n        /* \"#utility.yul\":16369:16374   */\n      dup5\n        /* \"#utility.yul\":16365:16386   */\n      and\n        /* \"#utility.yul\":16356:16386   */\n      swap4\n      pop\n        /* \"#utility.yul\":16429:16433   */\n      dup1\n        /* \"#utility.yul\":16419:16427   */\n      dup7\n        /* \"#utility.yul\":16415:16434   */\n      and\n        /* \"#utility.yul\":16408:16413   */\n      dup5\n        /* \"#utility.yul\":16405:16435   */\n      or\n        /* \"#utility.yul\":16395:16435   */\n      swap3\n      pop\n        /* \"#utility.yul\":16124:16441   */\n      pop\n      pop\n        /* \"#utility.yul\":16048:16441   */\n      swap4\n      swap3\n      pop\n      pop\n      pop\n      jump\t// out\n        /* \"#utility.yul\":16447:16507   */\n    tag_218:\n        /* \"#utility.yul\":16475:16478   */\n      0x00\n        /* \"#utility.yul\":16496:16501   */\n      dup2\n        /* \"#utility.yul\":16489:16501   */\n      swap1\n      pop\n        /* \"#utility.yul\":16447:16507   */\n      swap2\n      swap1\n      pop\n      jump\t// out\n        /* \"#utility.yul\":16513:16655   */\n    tag_219:\n        /* \"#utility.yul\":16563:16572   */\n      0x00\n        /* \"#utility.yul\":16596:16649   */\n      tag_388\n        /* \"#utility.yul\":16614:16648   */\n      tag_389\n        /* \"#utility.yul\":16623:16647   */\n      tag_390\n        /* \"#utility.yul\":16641:16646   */\n      dup5\n        /* \"#utility.yul\":16623:16647   */\n      tag_172\n      jump\t// in\n    tag_390:\n        /* \"#utility.yul\":16614:16648   */\n      tag_218\n      jump\t// in\n    tag_389:\n        /* \"#utility.yul\":16596:16649   */\n      tag_172\n      jump\t// in\n    tag_388:\n        /* \"#utility.yul\":16583:16649   */\n      swap1\n      pop\n        /* \"#utility.yul\":16513:16655   */\n      swap2\n      swap1\n      pop\n      jump\t// out\n        /* \"#utility.yul\":16661:16736   */\n    tag_220:\n        /* \"#utility.yul\":16704:16707   */\n      0x00\n        /* \"#utility.yul\":16725:16730   */\n      dup2\n        /* \"#utility.yul\":16718:16730   */\n      swap1\n      pop\n        /* \"#utility.yul\":16661:16736   */\n      swap2\n      swap1\n      pop\n      jump\t// out\n        /* \"#utility.yul\":16742:17011   */\n    tag_221:\n        /* \"#utility.yul\":16852:16891   */\n      tag_393\n        /* \"#utility.yul\":16883:16890   */\n      dup4\n        /* \"#utility.yul\":16852:16891   */\n      tag_219\n      jump\t// in\n    tag_393:\n        /* \"#utility.yul\":16913:17004   */\n      tag_394\n        /* \"#utility.yul\":16962:17003   */\n      tag_395\n        /* \"#utility.yul\":16986:17002   */\n      dup3\n        /* \"#utility.yul\":16962:17003   */\n      tag_220\n      jump\t// in\n    tag_395:\n        /* \"#utility.yul\":16954:16960   */\n      dup5\n        /* \"#utility.yul\":16947:16951   */\n      dup5\n        /* \"#utility.yul\":16941:16952   */\n      sload\n        /* \"#utility.yul\":16913:17004   */\n      tag_217\n      jump\t// in\n    tag_394:\n        /* \"#utility.yul\":16907:16911   */\n      dup3\n        /* \"#utility.yul\":16900:17005   */\n      sstore\n        /* \"#utility.yul\":16818:17011   */\n      pop\n        /* \"#utility.yul\":16742:17011   */\n      pop\n      pop\n      pop\n      jump\t// out\n        /* \"#utility.yul\":17017:17090   */\n    tag_222:\n        /* \"#utility.yul\":17062:17065   */\n      0x00\n        /* \"#utility.yul\":17017:17090   */\n      swap1\n      jump\t// out\n        /* \"#utility.yul\":17096:17285   */\n    tag_223:\n        /* \"#utility.yul\":17173:17205   */\n      tag_398\n      tag_222\n      jump\t// in\n    tag_398:\n        /* \"#utility.yul\":17214:17279   */\n      tag_399\n        /* \"#utility.yul\":17272:17278   */\n      dup2\n        /* \"#utility.yul\":17264:17270   */\n      dup5\n        /* \"#utility.yul\":17258:17262   */\n      dup5\n        /* \"#utility.yul\":17214:17279   */\n      tag_221\n      jump\t// in\n    tag_399:\n        /* \"#utility.yul\":17149:17285   */\n      pop\n        /* \"#utility.yul\":17096:17285   */\n      pop\n      pop\n      jump\t// out\n        /* \"#utility.yul\":17291:17477   */\n    tag_224:\n        /* \"#utility.yul\":17351:17471   */\n    tag_401:\n        /* \"#utility.yul\":17368:17371   */\n      dup2\n        /* \"#utility.yul\":17361:17366   */\n      dup2\n        /* \"#utility.yul\":17358:17372   */\n      lt\n        /* \"#utility.yul\":17351:17471   */\n      iszero\n      tag_403\n      jumpi\n        /* \"#utility.yul\":17422:17461   */\n      tag_404\n        /* \"#utility.yul\":17459:17460   */\n      0x00\n        /* \"#utility.yul\":17452:17457   */\n      dup3\n        /* \"#utility.yul\":17422:17461   */\n      tag_223\n      jump\t// in\n    tag_404:\n        /* \"#utility.yul\":17395:17396   */\n      0x01\n        /* \"#utility.yul\":17388:17393   */\n      dup2\n        /* \"#utility.yul\":17384:17397   */\n      add\n        /* \"#utility.yul\":17375:17397   */\n      swap1\n      pop\n        /* \"#utility.yul\":17351:17471   */\n      jump(tag_401)\n    tag_403:\n        /* \"#utility.yul\":17291:17477   */\n      pop\n      pop\n      jump\t// out\n        /* \"#utility.yul\":17483:18026   */\n    tag_225:\n        /* \"#utility.yul\":17584:17586   */\n      0x1f\n        /* \"#utility.yul\":17579:17582   */\n      dup3\n        /* \"#utility.yul\":17576:17587   */\n      gt\n        /* \"#utility.yul\":17573:18019   */\n      iszero\n      tag_406\n      jumpi\n        /* \"#utility.yul\":17618:17656   */\n      tag_407\n        /* \"#utility.yul\":17650:17655   */\n      dup2\n        /* \"#utility.yul\":17618:17656   */\n      tag_214\n      jump\t// in\n    tag_407:\n        /* \"#utility.yul\":17702:17731   */\n      tag_408\n        /* \"#utility.yul\":17720:17730   */\n      dup5\n        /* \"#utility.yul\":17702:17731   */\n      tag_215\n      jump\t// in\n    tag_408:\n        /* \"#utility.yul\":17692:17700   */\n      dup2\n        /* \"#utility.yul\":17688:17732   */\n      add\n        /* \"#utility.yul\":17885:17887   */\n      0x20\n        /* \"#utility.yul\":17873:17883   */\n      dup6\n        /* \"#utility.yul\":17870:17888   */\n      lt\n        /* \"#utility.yul\":17867:17916   */\n      iszero\n      tag_409\n      jumpi\n        /* \"#utility.yul\":17906:17914   */\n      dup2\n        /* \"#utility.yul\":17891:17914   */\n      swap1\n      pop\n        /* \"#utility.yul\":17867:17916   */\n    tag_409:\n        /* \"#utility.yul\":17929:18009   */\n      tag_410\n        /* \"#utility.yul\":17985:18007   */\n      tag_411\n        /* \"#utility.yul\":18003:18006   */\n      dup6\n        /* \"#utility.yul\":17985:18007   */\n      tag_215\n      jump\t// in\n    tag_411:\n        /* \"#utility.yul\":17975:17983   */\n      dup4\n        /* \"#utility.yul\":17971:18008   */\n      add\n        /* \"#utility.yul\":17958:17969   */\n      dup3\n        /* \"#utility.yul\":17929:18009   */\n      tag_224\n      jump\t// in\n    tag_410:\n        /* \"#utility.yul\":17588:18019   */\n      pop\n      pop\n        /* \"#utility.yul\":17573:18019   */\n    tag_406:\n        /* \"#utility.yul\":17483:18026   */\n      pop\n      pop\n      pop\n      jump\t// out\n        /* \"#utility.yul\":18032:18149   */\n    tag_226:\n        /* \"#utility.yul\":18086:18094   */\n      0x00\n        /* \"#utility.yul\":18136:18141   */\n      dup3\n        /* \"#utility.yul\":18130:18134   */\n      dup3\n        /* \"#utility.yul\":18126:18142   */\n      shr\n        /* \"#utility.yul\":18105:18142   */\n      swap1\n      pop\n        /* \"#utility.yul\":18032:18149   */\n      swap3\n      swap2\n      pop\n      pop\n      jump\t// out\n        /* \"#utility.yul\":18155:18324   */\n    tag_227:\n        /* \"#utility.yul\":18199:18205   */\n      0x00\n        /* \"#utility.yul\":18232:18283   */\n      tag_414\n        /* \"#utility.yul\":18280:18281   */\n      0x00\n        /* \"#utility.yul\":18276:18282   */\n      not\n        /* \"#utility.yul\":18268:18273   */\n      dup5\n        /* \"#utility.yul\":18265:18266   */\n      0x08\n        /* \"#utility.yul\":18261:18274   */\n      mul\n        /* \"#utility.yul\":18232:18283   */\n      tag_226\n      jump\t// in\n    tag_414:\n        /* \"#utility.yul\":18228:18284   */\n      not\n        /* \"#utility.yul\":18313:18317   */\n      dup1\n        /* \"#utility.yul\":18307:18311   */\n      dup4\n        /* \"#utility.yul\":18303:18318   */\n      and\n        /* \"#utility.yul\":18293:18318   */\n      swap2\n      pop\n        /* \"#utility.yul\":18206:18324   */\n      pop\n        /* \"#utility.yul\":18155:18324   */\n      swap3\n      swap2\n      pop\n      pop\n      jump\t// out\n        /* \"#utility.yul\":18329:18624   */\n    tag_228:\n        /* \"#utility.yul\":18405:18409   */\n      0x00\n        /* \"#utility.yul\":18551:18580   */\n      tag_416\n        /* \"#utility.yul\":18576:18579   */\n      dup4\n        /* \"#utility.yul\":18570:18574   */\n      dup4\n        /* \"#utility.yul\":18551:18580   */\n      tag_227\n      jump\t// in\n    tag_416:\n        /* \"#utility.yul\":18543:18580   */\n      swap2\n      pop\n        /* \"#utility.yul\":18613:18616   */\n      dup3\n        /* \"#utility.yul\":18610:18611   */\n      0x02\n        /* \"#utility.yul\":18606:18617   */\n      mul\n        /* \"#utility.yul\":18600:18604   */\n      dup3\n        /* \"#utility.yul\":18597:18618   */\n      or\n        /* \"#utility.yul\":18589:18618   */\n      swap1\n      pop\n        /* \"#utility.yul\":18329:18624   */\n      swap3\n      swap2\n      pop\n      pop\n      jump\t// out\n        /* \"#utility.yul\":18629:20024   */\n    tag_52:\n        /* \"#utility.yul\":18746:18783   */\n      tag_418\n        /* \"#utility.yul\":18779:18782   */\n      dup3\n        /* \"#utility.yul\":18746:18783   */\n      tag_192\n      jump\t// in\n    tag_418:\n        /* \"#utility.yul\":18848:18866   */\n      0xffffffffffffffff\n        /* \"#utility.yul\":18840:18846   */\n      dup2\n        /* \"#utility.yul\":18837:18867   */\n      gt\n        /* \"#utility.yul\":18834:18890   */\n      iszero\n      tag_419\n      jumpi\n        /* \"#utility.yul\":18870:18888   */\n      tag_420\n      tag_83\n      jump\t// in\n    tag_420:\n        /* \"#utility.yul\":18834:18890   */\n    tag_419:\n        /* \"#utility.yul\":18914:18952   */\n      tag_421\n        /* \"#utility.yul\":18946:18950   */\n      dup3\n        /* \"#utility.yul\":18940:18951   */\n      sload\n        /* \"#utility.yul\":18914:18952   */\n      tag_95\n      jump\t// in\n    tag_421:\n        /* \"#utility.yul\":18999:19066   */\n      tag_422\n        /* \"#utility.yul\":19059:19065   */\n      dup3\n        /* \"#utility.yul\":19051:19057   */\n      dup3\n        /* \"#utility.yul\":19045:19049   */\n      dup6\n        /* \"#utility.yul\":18999:19066   */\n      tag_225\n      jump\t// in\n    tag_422:\n        /* \"#utility.yul\":19093:19094   */\n      0x00\n        /* \"#utility.yul\":19117:19121   */\n      0x20\n        /* \"#utility.yul\":19104:19121   */\n      swap1\n      pop\n        /* \"#utility.yul\":19149:19151   */\n      0x1f\n        /* \"#utility.yul\":19141:19147   */\n      dup4\n        /* \"#utility.yul\":19138:19152   */\n      gt\n        /* \"#utility.yul\":19166:19167   */\n      0x01\n        /* \"#utility.yul\":19161:19779   */\n      dup2\n      eq\n      tag_424\n      jumpi\n        /* \"#utility.yul\":19823:19824   */\n      0x00\n        /* \"#utility.yul\":19840:19846   */\n      dup5\n        /* \"#utility.yul\":19837:19914   */\n      iszero\n      tag_425\n      jumpi\n        /* \"#utility.yul\":19889:19898   */\n      dup3\n        /* \"#utility.yul\":19884:19887   */\n      dup8\n        /* \"#utility.yul\":19880:19899   */\n      add\n        /* \"#utility.yul\":19874:19900   */\n      mload\n        /* \"#utility.yul\":19865:19900   */\n      swap1\n      pop\n        /* \"#utility.yul\":19837:19914   */\n    tag_425:\n        /* \"#utility.yul\":19940:20007   */\n      tag_426\n        /* \"#utility.yul\":20000:20006   */\n      dup6\n        /* \"#utility.yul\":19993:19998   */\n      dup3\n        /* \"#utility.yul\":19940:20007   */\n      tag_228\n      jump\t// in\n    tag_426:\n        /* \"#utility.yul\":19934:19938   */\n      dup7\n        /* \"#utility.yul\":19927:20008   */\n      sstore\n        /* \"#utility.yul\":19796:20018   */\n      pop\n        /* \"#utility.yul\":19131:20018   */\n      jump(tag_423)\n        /* \"#utility.yul\":19161:19779   */\n    tag_424:\n        /* \"#utility.yul\":19213:19217   */\n      0x1f\n        /* \"#utility.yul\":19209:19218   */\n      not\n        /* \"#utility.yul\":19201:19207   */\n      dup5\n        /* \"#utility.yul\":19197:19219   */\n      and\n        /* \"#utility.yul\":19247:19284   */\n      tag_427\n        /* \"#utility.yul\":19279:19283   */\n      dup7\n        /* \"#utility.yul\":19247:19284   */\n      tag_214\n      jump\t// in\n    tag_427:\n        /* \"#utility.yul\":19306:19307   */\n      0x00\n        /* \"#utility.yul\":19320:19528   */\n    tag_428:\n        /* \"#utility.yul\":19334:19341   */\n      dup3\n        /* \"#utility.yul\":19331:19332   */\n      dup2\n        /* \"#utility.yul\":19328:19342   */\n      lt\n        /* \"#utility.yul\":19320:19528   */\n      iszero\n      tag_430\n      jumpi\n        /* \"#utility.yul\":19413:19422   */\n      dup5\n        /* \"#utility.yul\":19408:19411   */\n      dup10\n        /* \"#utility.yul\":19404:19423   */\n      add\n        /* \"#utility.yul\":19398:19424   */\n      mload\n        /* \"#utility.yul\":19390:19396   */\n      dup3\n        /* \"#utility.yul\":19383:19425   */\n      sstore\n        /* \"#utility.yul\":19464:19465   */\n      0x01\n        /* \"#utility.yul\":19456:19462   */\n      dup3\n        /* \"#utility.yul\":19452:19466   */\n      add\n        /* \"#utility.yul\":19442:19466   */\n      swap2\n      pop\n        /* \"#utility.yul\":19511:19513   */\n      0x20\n        /* \"#utility.yul\":19500:19509   */\n      dup6\n        /* \"#utility.yul\":19496:19514   */\n      add\n        /* \"#utility.yul\":19483:19514   */\n      swap5\n      pop\n        /* \"#utility.yul\":19357:19361   */\n      0x20\n        /* \"#utility.yul\":19354:19355   */\n      dup2\n        /* \"#utility.yul\":19350:19362   */\n      add\n        /* \"#utility.yul\":19345:19362   */\n      swap1\n      pop\n        /* \"#utility.yul\":19320:19528   */\n      jump(tag_428)\n    tag_430:\n        /* \"#utility.yul\":19556:19562   */\n      dup7\n        /* \"#utility.yul\":19547:19554   */\n      dup4\n        /* \"#utility.yul\":19544:19563   */\n      lt\n        /* \"#utility.yul\":19541:19720   */\n      iszero\n      tag_431\n      jumpi\n        /* \"#utility.yul\":19614:19623   */\n      dup5\n        /* \"#utility.yul\":19609:19612   */\n      dup10\n        /* \"#utility.yul\":19605:19624   */\n      add\n        /* \"#utility.yul\":19599:19625   */\n      mload\n        /* \"#utility.yul\":19657:19705   */\n      tag_432\n        /* \"#utility.yul\":19699:19703   */\n      0x1f\n        /* \"#utility.yul\":19691:19697   */\n      dup10\n        /* \"#utility.yul\":19687:19704   */\n      and\n        /* \"#utility.yul\":19676:19685   */\n      dup3\n        /* \"#utility.yul\":19657:19705   */\n      tag_227\n      jump\t// in\n    tag_432:\n        /* \"#utility.yul\":19649:19655   */\n      dup4\n        /* \"#utility.yul\":19642:19706   */\n      sstore\n        /* \"#utility.yul\":19564:19720   */\n      pop\n        /* \"#utility.yul\":19541:19720   */\n    tag_431:\n        /* \"#utility.yul\":19766:19767   */\n      0x01\n        /* \"#utility.yul\":19762:19763   */\n      0x02\n        /* \"#utility.yul\":19754:19760   */\n      dup9\n        /* \"#utility.yul\":19750:19764   */\n      mul\n        /* \"#utility.yul\":19746:19768   */\n      add\n        /* \"#utility.yul\":19740:19744   */\n      dup9\n        /* \"#utility.yul\":19733:19769   */\n      sstore\n        /* \"#utility.yul\":19168:19779   */\n      pop\n      pop\n      pop\n        /* \"#utility.yul\":19131:20018   */\n    tag_423:\n      pop\n        /* \"#utility.yul\":18721:20024   */\n      pop\n      pop\n      pop\n        /* \"#utility.yul\":18629:20024   */\n      pop\n      pop\n      jump\t// out\n        /* \"#utility.yul\":20030:20210   */\n    tag_229:\n        /* \"#utility.yul\":20078:20155   */\n      0x4e487b7100000000000000000000000000000000000000000000000000000000\n        /* \"#utility.yul\":20075:20076   */\n      0x00\n        /* \"#utility.yul\":20068:20156   */\n      mstore\n        /* \"#utility.yul\":20175:20179   */\n      0x11\n        /* \"#utility.yul\":20172:20173   */\n      0x04\n        /* \"#utility.yul\":20165:20180   */\n      mstore\n        /* \"#utility.yul\":20199:20203   */\n      0x24\n        /* \"#utility.yul\":20196:20197   */\n      0x00\n        /* \"#utility.yul\":20189:20204   */\n      revert\n        /* \"#utility.yul\":20216:20449   */\n    tag_54:\n        /* \"#utility.yul\":20255:20258   */\n      0x00\n        /* \"#utility.yul\":20278:20302   */\n      tag_435\n        /* \"#utility.yul\":20296:20301   */\n      dup3\n        /* \"#utility.yul\":20278:20302   */\n      tag_172\n      jump\t// in\n    tag_435:\n        /* \"#utility.yul\":20269:20302   */\n      swap2\n      pop\n        /* \"#utility.yul\":20324:20390   */\n      0xffffffffffffffffffffffffffffffffffffffffffffffffffffffffffffffff\n        /* \"#utility.yul\":20317:20322   */\n      dup3\n        /* \"#utility.yul\":20314:20391   */\n      sub\n        /* \"#utility.yul\":20311:20414   */\n      tag_436\n      jumpi\n        /* \"#utility.yul\":20394:20412   */\n      tag_437\n      tag_229\n      jump\t// in\n    tag_437:\n        /* \"#utility.yul\":20311:20414   */\n    tag_436:\n        /* \"#utility.yul\":20441:20442   */\n      0x01\n        /* \"#utility.yul\":20434:20439   */\n      dup3\n        /* \"#utility.yul\":20430:20443   */\n      add\n        /* \"#utility.yul\":20423:20443   */\n      swap1\n      pop\n        /* \"#utility.yul\":20216:20449   */\n      swap2\n      swap1\n      pop\n      jump\t// out\n        /* \"#utility.yul\":20455:20629   */\n    tag_230:\n        /* \"#utility.yul\":20595:20621   */\n      0x5b4552524f525d20494420616c7761797320696e207573650000000000000000\n        /* \"#utility.yul\":20591:20592   */\n      0x00\n        /* \"#utility.yul\":20583:20589   */\n      dup3\n        /* \"#utility.yul\":20579:20593   */\n      add\n        /* \"#utility.yul\":20572:20622   */\n      mstore\n        /* \"#utility.yul\":20455:20629   */\n      pop\n      jump\t// out\n        /* \"#utility.yul\":20635:21001   */\n    tag_231:\n        /* \"#utility.yul\":20777:20780   */\n      0x00\n        /* \"#utility.yul\":20798:20865   */\n      tag_440\n        /* \"#utility.yul\":20862:20864   */\n      0x18\n        /* \"#utility.yul\":20857:20860   */\n      dup4\n        /* \"#utility.yul\":20798:20865   */\n      tag_206\n      jump\t// in\n    tag_440:\n        /* \"#utility.yul\":20791:20865   */\n      swap2\n      pop\n        /* \"#utility.yul\":20874:20967   */\n      tag_441\n        /* \"#utility.yul\":20963:20966   */\n      dup3\n        /* \"#utility.yul\":20874:20967   */\n      tag_230\n      jump\t// in\n    tag_441:\n        /* \"#utility.yul\":20992:20994   */\n      0x20\n        /* \"#utility.yul\":20987:20990   */\n      dup3\n        /* \"#utility.yul\":20983:20995   */\n      add\n        /* \"#utility.yul\":20976:20995   */\n      swap1\n      pop\n        /* \"#utility.yul\":20635:21001   */\n      swap2\n      swap1\n      pop\n      jump\t// out\n        /* \"#utility.yul\":21007:21426   */\n    tag_61:\n        /* \"#utility.yul\":21173:21177   */\n      0x00\n        /* \"#utility.yul\":21211:21213   */\n      0x20\n        /* \"#utility.yul\":21200:21209   */\n      dup3\n        /* \"#utility.yul\":21196:21214   */\n      add\n        /* \"#utility.yul\":21188:21214   */\n      swap1\n      pop\n        /* \"#utility.yul\":21260:21269   */\n      dup2\n        /* \"#utility.yul\":21254:21258   */\n      dup2\n        /* \"#utility.yul\":21250:21270   */\n      sub\n        /* \"#utility.yul\":21246:21247   */\n      0x00\n        /* \"#utility.yul\":21235:21244   */\n      dup4\n        /* \"#utility.yul\":21231:21248   */\n      add\n        /* \"#utility.yul\":21224:21271   */\n      mstore\n        /* \"#utility.yul\":21288:21419   */\n      tag_443\n        /* \"#utility.yul\":21414:21418   */\n      dup2\n        /* \"#utility.yul\":21288:21419   */\n      tag_231\n      jump\t// in\n    tag_443:\n        /* \"#utility.yul\":21280:21419   */\n      swap1\n      pop\n        /* \"#utility.yul\":21007:21426   */\n      swap2\n      swap1\n      pop\n      jump\t// out\n        /* \"#utility.yul\":21456:22330   */\n    tag_232:\n        /* \"#utility.yul\":21559:21562   */\n      0x00\n        /* \"#utility.yul\":21596:21601   */\n      dup2\n        /* \"#utility.yul\":21590:21602   */\n      sload\n        /* \"#utility.yul\":21625:21661   */\n      tag_445\n        /* \"#utility.yul\":21651:21660   */\n      dup2\n        /* \"#utility.yul\":21625:21661   */\n      tag_95\n      jump\t// in\n    tag_445:\n        /* \"#utility.yul\":21677:21766   */\n      tag_446\n        /* \"#utility.yul\":21759:21765   */\n      dup2\n        /* \"#utility.yul\":21754:21757   */\n      dup7\n        /* \"#utility.yul\":21677:21766   */\n      tag_211\n      jump\t// in\n    tag_446:\n        /* \"#utility.yul\":21670:21766   */\n      swap5\n      pop\n        /* \"#utility.yul\":21797:21798   */\n      0x01\n        /* \"#utility.yul\":21786:21795   */\n      dup3\n        /* \"#utility.yul\":21782:21799   */\n      and\n        /* \"#utility.yul\":21813:21814   */\n      0x00\n        /* \"#utility.yul\":21808:21974   */\n      dup2\n      eq\n      tag_448\n      jumpi\n        /* \"#utility.yul\":21988:21989   */\n      0x01\n        /* \"#utility.yul\":21983:22324   */\n      dup2\n      eq\n      tag_449\n      jumpi\n        /* \"#utility.yul\":21775:22324   */\n      jump(tag_447)\n        /* \"#utility.yul\":21808:21974   */\n    tag_448:\n        /* \"#utility.yul\":21892:21896   */\n      0xff\n        /* \"#utility.yul\":21888:21897   */\n      not\n        /* \"#utility.yul\":21877:21886   */\n      dup4\n        /* \"#utility.yul\":21873:21898   */\n      and\n        /* \"#utility.yul\":21868:21871   */\n      dup7\n        /* \"#utility.yul\":21861:21899   */\n      mstore\n        /* \"#utility.yul\":21954:21960   */\n      dup2\n        /* \"#utility.yul\":21947:21961   */\n      iszero\n        /* \"#utility.yul\":21940:21962   */\n      iszero\n        /* \"#utility.yul\":21932:21938   */\n      dup3\n        /* \"#utility.yul\":21928:21963   */\n      mul\n        /* \"#utility.yul\":21923:21926   */\n      dup7\n        /* \"#utility.yul\":21919:21964   */\n      add\n        /* \"#utility.yul\":21912:21964   */\n      swap4\n      pop\n        /* \"#utility.yul\":21808:21974   */\n      jump(tag_447)\n        /* \"#utility.yul\":21983:22324   */\n    tag_449:\n        /* \"#utility.yul\":22050:22088   */\n      tag_450\n        /* \"#utility.yul\":22082:22087   */\n      dup6\n        /* \"#utility.yul\":22050:22088   */\n      tag_214\n      jump\t// in\n    tag_450:\n        /* \"#utility.yul\":22110:22111   */\n      0x00\n        /* \"#utility.yul\":22124:22278   */\n    tag_451:\n        /* \"#utility.yul\":22138:22144   */\n      dup4\n        /* \"#utility.yul\":22135:22136   */\n      dup2\n        /* \"#utility.yul\":22132:22145   */\n      lt\n        /* \"#utility.yul\":22124:22278   */\n      iszero\n      tag_453\n      jumpi\n        /* \"#utility.yul\":22212:22219   */\n      dup2\n        /* \"#utility.yul\":22206:22220   */\n      sload\n        /* \"#utility.yul\":22202:22203   */\n      dup2\n        /* \"#utility.yul\":22197:22200   */\n      dup10\n        /* \"#utility.yul\":22193:22204   */\n      add\n        /* \"#utility.yul\":22186:22221   */\n      mstore\n        /* \"#utility.yul\":22262:22263   */\n      0x01\n        /* \"#utility.yul\":22253:22260   */\n      dup3\n        /* \"#utility.yul\":22249:22264   */\n      add\n        /* \"#utility.yul\":22238:22264   */\n      swap2\n      pop\n        /* \"#utility.yul\":22160:22164   */\n      0x20\n        /* \"#utility.yul\":22157:22158   */\n      dup2\n        /* \"#utility.yul\":22153:22165   */\n      add\n        /* \"#utility.yul\":22148:22165   */\n      swap1\n      pop\n        /* \"#utility.yul\":22124:22278   */\n      jump(tag_451)\n    tag_453:\n        /* \"#utility.yul\":22307:22313   */\n      dup4\n        /* \"#utility.yul\":22302:22305   */\n      dup9\n        /* \"#utility.yul\":22298:22314   */\n      add\n        /* \"#utility.yul\":22291:22314   */\n      swap6\n      pop\n        /* \"#utility.yul\":21990:22324   */\n      pop\n      pop\n        /* \"#utility.yul\":21775:22324   */\n    tag_447:\n      pop\n        /* \"#utility.yul\":21563:22330   */\n      pop\n      pop\n        /* \"#utility.yul\":21456:22330   */\n      swap3\n      swap2\n      pop\n      pop\n      jump\t// out\n        /* \"#utility.yul\":22336:22605   */\n    tag_93:\n        /* \"#utility.yul\":22465:22468   */\n      0x00\n        /* \"#utility.yul\":22487:22579   */\n      tag_455\n        /* \"#utility.yul\":22575:22578   */\n      dup3\n        /* \"#utility.yul\":22566:22572   */\n      dup5\n        /* \"#utility.yul\":22487:22579   */\n      tag_232\n      jump\t// in\n    tag_455:\n        /* \"#utility.yul\":22480:22579   */\n      swap2\n      pop\n        /* \"#utility.yul\":22596:22599   */\n      dup2\n        /* \"#utility.yul\":22589:22599   */\n      swap1\n      pop\n        /* \"#utility.yul\":22336:22605   */\n      swap3\n      swap2\n      pop\n      pop\n      jump\t// out\n        /* \"#utility.yul\":22611:22805   */\n    tag_136:\n        /* \"#utility.yul\":22651:22655   */\n      0x00\n        /* \"#utility.yul\":22671:22691   */\n      tag_457\n        /* \"#utility.yul\":22689:22690   */\n      dup3\n        /* \"#utility.yul\":22671:22691   */\n      tag_172\n      jump\t// in\n    tag_457:\n        /* \"#utility.yul\":22666:22691   */\n      swap2\n      pop\n        /* \"#utility.yul\":22705:22725   */\n      tag_458\n        /* \"#utility.yul\":22723:22724   */\n      dup4\n        /* \"#utility.yul\":22705:22725   */\n      tag_172\n      jump\t// in\n    tag_458:\n        /* \"#utility.yul\":22700:22725   */\n      swap3\n      pop\n        /* \"#utility.yul\":22749:22750   */\n      dup3\n        /* \"#utility.yul\":22746:22747   */\n      dup3\n        /* \"#utility.yul\":22742:22751   */\n      sub\n        /* \"#utility.yul\":22734:22751   */\n      swap1\n      pop\n        /* \"#utility.yul\":22773:22774   */\n      dup2\n        /* \"#utility.yul\":22767:22771   */\n      dup2\n        /* \"#utility.yul\":22764:22775   */\n      gt\n        /* \"#utility.yul\":22761:22798   */\n      iszero\n      tag_459\n      jumpi\n        /* \"#utility.yul\":22778:22796   */\n      tag_460\n      tag_229\n      jump\t// in\n    tag_460:\n        /* \"#utility.yul\":22761:22798   */\n    tag_459:\n        /* \"#utility.yul\":22611:22805   */\n      swap3\n      swap2\n      pop\n      pop\n      jump\t// out\n        /* \"#utility.yul\":22811:23002   */\n    tag_138:\n        /* \"#utility.yul\":22851:22854   */\n      0x00\n        /* \"#utility.yul\":22870:22890   */\n      tag_462\n        /* \"#utility.yul\":22888:22889   */\n      dup3\n        /* \"#utility.yul\":22870:22890   */\n      tag_172\n      jump\t// in\n    tag_462:\n        /* \"#utility.yul\":22865:22890   */\n      swap2\n      pop\n        /* \"#utility.yul\":22904:22924   */\n      tag_463\n        /* \"#utility.yul\":22922:22923   */\n      dup4\n        /* \"#utility.yul\":22904:22924   */\n      tag_172\n      jump\t// in\n    tag_463:\n        /* \"#utility.yul\":22899:22924   */\n      swap3\n      pop\n        /* \"#utility.yul\":22947:22948   */\n      dup3\n        /* \"#utility.yul\":22944:22945   */\n      dup3\n        /* \"#utility.yul\":22940:22949   */\n      add\n        /* \"#utility.yul\":22933:22949   */\n      swap1\n      pop\n        /* \"#utility.yul\":22968:22971   */\n      dup1\n        /* \"#utility.yul\":22965:22966   */\n      dup3\n        /* \"#utility.yul\":22962:22972   */\n      gt\n        /* \"#utility.yul\":22959:22995   */\n      iszero\n      tag_464\n      jumpi\n        /* \"#utility.yul\":22975:22993   */\n      tag_465\n      tag_229\n      jump\t// in\n    tag_465:\n        /* \"#utility.yul\":22959:22995   */\n    tag_464:\n        /* \"#utility.yul\":22811:23002   */\n      swap3\n      swap2\n      pop\n      pop\n      jump\t// out\n        /* \"#utility.yul\":23008:23188   */\n    tag_148:\n        /* \"#utility.yul\":23056:23133   */\n      0x4e487b7100000000000000000000000000000000000000000000000000000000\n        /* \"#utility.yul\":23053:23054   */\n      0x00\n        /* \"#utility.yul\":23046:23134   */\n      mstore\n        /* \"#utility.yul\":23153:23157   */\n      0x31\n        /* \"#utility.yul\":23150:23151   */\n      0x04\n        /* \"#utility.yul\":23143:23158   */\n      mstore\n        /* \"#utility.yul\":23177:23181   */\n      0x24\n        /* \"#utility.yul\":23174:23175   */\n      0x00\n        /* \"#utility.yul\":23167:23182   */\n      revert\n\n    auxdata: 0xa2646970667358221220a5e4f750e5fa68b721715a2f753d00c185de935211c6984003da4a1324421db864736f6c63430008140033\n}\n",
				"bytecode": {
					"linkReferences": {},
					"object": "608060405234801561000f575f80fd5b50335f806101000a81548173ffffffffffffffffffffffffffffffffffffffff021916908373ffffffffffffffffffffffffffffffffffffffff160217905550611b628061005c5f395ff3fe608060405234801561000f575f80fd5b5060043610610060575f3560e01c8063326361231461006457806340c8068d146100805780634f6e9de41461009e57806397ff7ae0146100ba578063ba54b7bf146100eb578063f6ebbb7614610107575b5f80fd5b61007e600480360381019061007991906111bf565b610125565b005b610088610376565b6040516100959190611256565b60405180910390f35b6100b860048036038101906100b391906111bf565b6103bd565b005b6100d460048036038101906100cf919061126f565b61066f565b6040516100e29291906113cf565b60405180910390f35b6101056004803603810190610100919061126f565b6109db565b005b61010f610c04565b60405161011c91906114bb565b60405180910390f35b823373ffffffffffffffffffffffffffffffffffffffff1660015f3373ffffffffffffffffffffffffffffffffffffffff1673ffffffffffffffffffffffffffffffffffffffff1681526020019081526020015f205f8381526020019081526020015f205f015f9054906101000a900473ffffffffffffffffffffffffffffffffffffffff1673ffffffffffffffffffffffffffffffffffffffff1614610201576040517f08c379a00000000000000000000000000000000000000000000000000000000081526004016101f890611535565b60405180910390fd5b8151835114610245576040517f08c379a000000000000000000000000000000000000000000000000000000000815260040161023c906115c3565b60405180910390fd5b5f60015f3373ffffffffffffffffffffffffffffffffffffffff1673ffffffffffffffffffffffffffffffffffffffff1681526020019081526020015f205f8681526020019081526020015f20905033815f015f6101000a81548173ffffffffffffffffffffffffffffffffffffffff021916908373ffffffffffffffffffffffffffffffffffffffff1602179055505f5b8451811015610355578381815181106102f3576102f26115e1565b5b602002602001015182600101868381518110610312576103116115e1565b5b60200260200101516040516103279190611648565b908152602001604051809103902090816103419190611858565b50808061034d90611954565b9150506102d7565b508381600201908051906020019061036e929190610e6d565b505050505050565b5f60025f3373ffffffffffffffffffffffffffffffffffffffff1673ffffffffffffffffffffffffffffffffffffffff1681526020019081526020015f2080549050905090565b823373ffffffffffffffffffffffffffffffffffffffff1660015f3373ffffffffffffffffffffffffffffffffffffffff1673ffffffffffffffffffffffffffffffffffffffff1681526020019081526020015f205f8381526020019081526020015f205f015f9054906101000a900473ffffffffffffffffffffffffffffffffffffffff1673ffffffffffffffffffffffffffffffffffffffff1603610499576040517f08c379a0000000000000000000000000000000000000000000000000000000008152600401610490906119e5565b60405180910390fd5b81518351146104dd576040517f08c379a00000000000000000000000000000000000000000000000000000000081526004016104d4906115c3565b60405180910390fd5b5f60015f3373ffffffffffffffffffffffffffffffffffffffff1673ffffffffffffffffffffffffffffffffffffffff1681526020019081526020015f205f8681526020019081526020015f20905033815f015f6101000a81548173ffffffffffffffffffffffffffffffffffffffff021916908373ffffffffffffffffffffffffffffffffffffffff1602179055505f5b84518110156105ed5783818151811061058b5761058a6115e1565b5b6020026020010151826001018683815181106105aa576105a96115e1565b5b60200260200101516040516105bf9190611648565b908152602001604051809103902090816105d99190611858565b5080806105e590611954565b91505061056f565b5083816002019080519060200190610606929190610e6d565b5060025f3373ffffffffffffffffffffffffffffffffffffffff1673ffffffffffffffffffffffffffffffffffffffff1681526020019081526020015f2085908060018154018082558091505060019003905f5260205f20015f90919091909150555050505050565b606080823373ffffffffffffffffffffffffffffffffffffffff1660015f3373ffffffffffffffffffffffffffffffffffffffff1673ffffffffffffffffffffffffffffffffffffffff1681526020019081526020015f205f8381526020019081526020015f205f015f9054906101000a900473ffffffffffffffffffffffffffffffffffffffff1673ffffffffffffffffffffffffffffffffffffffff161461074e576040517f08c379a000000000000000000000000000000000000000000000000000000000815260040161074590611535565b60405180910390fd5b5f60015f3373ffffffffffffffffffffffffffffffffffffffff1673ffffffffffffffffffffffffffffffffffffffff1681526020019081526020015f205f8681526020019081526020015f2090505f816002018054905067ffffffffffffffff8111156107bf576107be610fb5565b5b6040519080825280602002602001820160405280156107f257816020015b60608152602001906001900390816107dd5790505b5090505f5b82600201805490508110156108fb57826001018360020182815481106108205761081f6115e1565b5b905f5260205f20016040516108359190611a83565b9081526020016040518091039020805461084e9061168b565b80601f016020809104026020016040519081016040528092919081815260200182805461087a9061168b565b80156108c55780601f1061089c576101008083540402835291602001916108c5565b820191905f5260205f20905b8154815290600101906020018083116108a857829003601f168201915b50505050508282815181106108dd576108dc6115e1565b5b602002602001018190525080806108f390611954565b9150506107f7565b50816002018181805480602002602001604051908101604052809291908181526020015f905b828210156109c9578382905f5260205f2001805461093e9061168b565b80601f016020809104026020016040519081016040528092919081815260200182805461096a9061168b565b80156109b55780601f1061098c576101008083540402835291602001916109b5565b820191905f5260205f20905b81548152906001019060200180831161099857829003601f168201915b505050505081526020019060010190610921565b50505050915094509450505050915091565b803373ffffffffffffffffffffffffffffffffffffffff1660015f3373ffffffffffffffffffffffffffffffffffffffff1673ffffffffffffffffffffffffffffffffffffffff1681526020019081526020015f205f8381526020019081526020015f205f015f9054906101000a900473ffffffffffffffffffffffffffffffffffffffff1673ffffffffffffffffffffffffffffffffffffffff1614610ab7576040517f08c379a0000000000000000000000000000000000000000000000000000000008152600401610aae90611535565b60405180910390fd5b5f5b60025f3373ffffffffffffffffffffffffffffffffffffffff1673ffffffffffffffffffffffffffffffffffffffff1681526020019081526020015f2080549050811015610b7c578260025f3373ffffffffffffffffffffffffffffffffffffffff1673ffffffffffffffffffffffffffffffffffffffff1681526020019081526020015f208281548110610b5157610b506115e1565b5b905f5260205f20015403610b6957610b6881610c95565b5b8080610b7490611954565b915050610ab9565b5060015f3373ffffffffffffffffffffffffffffffffffffffff1673ffffffffffffffffffffffffffffffffffffffff1681526020019081526020015f205f8381526020019081526020015f205f8082015f6101000a81549073ffffffffffffffffffffffffffffffffffffffff0219169055600282015f610bfe9190610ec4565b50505050565b606060025f3373ffffffffffffffffffffffffffffffffffffffff1673ffffffffffffffffffffffffffffffffffffffff1681526020019081526020015f20805480602002602001604051908101604052809291908181526020018280548015610c8b57602002820191905f5260205f20905b815481526020019060010190808311610c77575b5050505050905090565b60025f3373ffffffffffffffffffffffffffffffffffffffff1673ffffffffffffffffffffffffffffffffffffffff1681526020019081526020015f2080549050811015610e6a575f8190505b600160025f3373ffffffffffffffffffffffffffffffffffffffff1673ffffffffffffffffffffffffffffffffffffffff1681526020019081526020015f2080549050610d2f9190611a99565b811015610e085760025f3373ffffffffffffffffffffffffffffffffffffffff1673ffffffffffffffffffffffffffffffffffffffff1681526020019081526020015f20600182610d809190611acc565b81548110610d9157610d906115e1565b5b905f5260205f20015460025f3373ffffffffffffffffffffffffffffffffffffffff1673ffffffffffffffffffffffffffffffffffffffff1681526020019081526020015f208281548110610de957610de86115e1565b5b905f5260205f2001819055508080610e0090611954565b915050610ce2565b5060025f3373ffffffffffffffffffffffffffffffffffffffff1673ffffffffffffffffffffffffffffffffffffffff1681526020019081526020015f20805480610e5657610e55611aff565b5b600190038181905f5260205f20015f905590555b50565b828054828255905f5260205f20908101928215610eb3579160200282015b82811115610eb2578251829081610ea29190611858565b5091602001919060010190610e8b565b5b509050610ec09190610ee2565b5090565b5080545f8255905f5260205f2090810190610edf9190610ee2565b50565b5b80821115610f01575f8181610ef89190610f05565b50600101610ee3565b5090565b508054610f119061168b565b5f825580601f10610f225750610f3f565b601f0160209004905f5260205f2090810190610f3e9190610f42565b5b50565b5b80821115610f59575f815f905550600101610f43565b5090565b5f604051905090565b5f80fd5b5f80fd5b5f819050919050565b610f8081610f6e565b8114610f8a575f80fd5b50565b5f81359050610f9b81610f77565b92915050565b5f80fd5b5f601f19601f8301169050919050565b7f4e487b71000000000000000000000000000000000000000000000000000000005f52604160045260245ffd5b610feb82610fa5565b810181811067ffffffffffffffff8211171561100a57611009610fb5565b5b80604052505050565b5f61101c610f5d565b90506110288282610fe2565b919050565b5f67ffffffffffffffff82111561104757611046610fb5565b5b602082029050602081019050919050565b5f80fd5b5f80fd5b5f67ffffffffffffffff82111561107a57611079610fb5565b5b61108382610fa5565b9050602081019050919050565b828183375f83830152505050565b5f6110b06110ab84611060565b611013565b9050828152602081018484840111156110cc576110cb61105c565b5b6110d7848285611090565b509392505050565b5f82601f8301126110f3576110f2610fa1565b5b813561110384826020860161109e565b91505092915050565b5f61111e6111198461102d565b611013565b9050808382526020820190506020840283018581111561114157611140611058565b5b835b8181101561118857803567ffffffffffffffff81111561116657611165610fa1565b5b80860161117389826110df565b85526020850194505050602081019050611143565b5050509392505050565b5f82601f8301126111a6576111a5610fa1565b5b81356111b684826020860161110c565b91505092915050565b5f805f606084860312156111d6576111d5610f66565b5b5f6111e386828701610f8d565b935050602084013567ffffffffffffffff81111561120457611203610f6a565b5b61121086828701611192565b925050604084013567ffffffffffffffff81111561123157611230610f6a565b5b61123d86828701611192565b9150509250925092565b61125081610f6e565b82525050565b5f6020820190506112695f830184611247565b92915050565b5f6020828403121561128457611283610f66565b5b5f61129184828501610f8d565b91505092915050565b5f81519050919050565b5f82825260208201905092915050565b5f819050602082019050919050565b5f81519050919050565b5f82825260208201905092915050565b5f5b838110156112fa5780820151818401526020810190506112df565b5f8484015250505050565b5f61130f826112c3565b61131981856112cd565b93506113298185602086016112dd565b61133281610fa5565b840191505092915050565b5f6113488383611305565b905092915050565b5f602082019050919050565b5f6113668261129a565b61137081856112a4565b935083602082028501611382856112b4565b805f5b858110156113bd578484038952815161139e858261133d565b94506113a983611350565b925060208a01995050600181019050611385565b50829750879550505050505092915050565b5f6040820190508181035f8301526113e7818561135c565b905081810360208301526113fb818461135c565b90509392505050565b5f81519050919050565b5f82825260208201905092915050565b5f819050602082019050919050565b61143681610f6e565b82525050565b5f611447838361142d565b60208301905092915050565b5f602082019050919050565b5f61146982611404565b611473818561140e565b935061147e8361141e565b805f5b838110156114ae578151611495888261143c565b97506114a083611453565b925050600181019050611481565b5085935050505092915050565b5f6020820190508181035f8301526114d3818461145f565b905092915050565b5f82825260208201905092915050565b7f5b4552524f525d204944206e6f7420617661696c61626c6500000000000000005f82015250565b5f61151f6018836114db565b915061152a826114eb565b602082019050919050565b5f6020820190508181035f83015261154c81611513565b9050919050565b7f5b4552524f525d20546865206c656e677468206f6620746865206b65797320615f8201527f6e642076616c75657320617265206e6f746520657175616c0000000000000000602082015250565b5f6115ad6038836114db565b91506115b882611553565b604082019050919050565b5f6020820190508181035f8301526115da816115a1565b9050919050565b7f4e487b71000000000000000000000000000000000000000000000000000000005f52603260045260245ffd5b5f81905092915050565b5f611622826112c3565b61162c818561160e565b935061163c8185602086016112dd565b80840191505092915050565b5f6116538284611618565b915081905092915050565b7f4e487b71000000000000000000000000000000000000000000000000000000005f52602260045260245ffd5b5f60028204905060018216806116a257607f821691505b6020821081036116b5576116b461165e565b5b50919050565b5f819050815f5260205f209050919050565b5f6020601f8301049050919050565b5f82821b905092915050565b5f600883026117177fffffffffffffffffffffffffffffffffffffffffffffffffffffffffffffffff826116dc565b61172186836116dc565b95508019841693508086168417925050509392505050565b5f819050919050565b5f61175c61175761175284610f6e565b611739565b610f6e565b9050919050565b5f819050919050565b61177583611742565b61178961178182611763565b8484546116e8565b825550505050565b5f90565b61179d611791565b6117a881848461176c565b505050565b5b818110156117cb576117c05f82611795565b6001810190506117ae565b5050565b601f821115611810576117e1816116bb565b6117ea846116cd565b810160208510156117f9578190505b61180d611805856116cd565b8301826117ad565b50505b505050565b5f82821c905092915050565b5f6118305f1984600802611815565b1980831691505092915050565b5f6118488383611821565b9150826002028217905092915050565b611861826112c3565b67ffffffffffffffff81111561187a57611879610fb5565b5b611884825461168b565b61188f8282856117cf565b5f60209050601f8311600181146118c0575f84156118ae578287015190505b6118b8858261183d565b86555061191f565b601f1984166118ce866116bb565b5f5b828110156118f5578489015182556001820191506020850194506020810190506118d0565b86831015611912578489015161190e601f891682611821565b8355505b6001600288020188555050505b505050505050565b7f4e487b71000000000000000000000000000000000000000000000000000000005f52601160045260245ffd5b5f61195e82610f6e565b91507fffffffffffffffffffffffffffffffffffffffffffffffffffffffffffffffff82036119905761198f611927565b5b600182019050919050565b7f5b4552524f525d20494420616c7761797320696e2075736500000000000000005f82015250565b5f6119cf6018836114db565b91506119da8261199b565b602082019050919050565b5f6020820190508181035f8301526119fc816119c3565b9050919050565b5f8154611a0f8161168b565b611a19818661160e565b9450600182165f8114611a335760018114611a4857611a7a565b60ff1983168652811515820286019350611a7a565b611a51856116bb565b5f5b83811015611a7257815481890152600182019150602081019050611a53565b838801955050505b50505092915050565b5f611a8e8284611a03565b915081905092915050565b5f611aa382610f6e565b9150611aae83610f6e565b9250828203905081811115611ac657611ac5611927565b5b92915050565b5f611ad682610f6e565b9150611ae183610f6e565b9250828201905080821115611af957611af8611927565b5b92915050565b7f4e487b71000000000000000000000000000000000000000000000000000000005f52603160045260245ffdfea2646970667358221220a5e4f750e5fa68b721715a2f753d00c185de935211c6984003da4a1324421db864736f6c63430008140033",
					"opcodes": "PUSH1 0x80 PUSH1 0x40 MSTORE CALLVALUE DUP1 ISZERO PUSH2 0xF JUMPI PUSH0 DUP1 REVERT JUMPDEST POP CALLER PUSH0 DUP1 PUSH2 0x100 EXP DUP2 SLOAD DUP2 PUSH20 0xFFFFFFFFFFFFFFFFFFFFFFFFFFFFFFFFFFFFFFFF MUL NOT AND SWAP1 DUP4 PUSH20 0xFFFFFFFFFFFFFFFFFFFFFFFFFFFFFFFFFFFFFFFF AND MUL OR SWAP1 SSTORE POP PUSH2 0x1B62 DUP1 PUSH2 0x5C PUSH0 CODECOPY PUSH0 RETURN INVALID PUSH1 0x80 PUSH1 0x40 MSTORE CALLVALUE DUP1 ISZERO PUSH2 0xF JUMPI PUSH0 DUP1 REVERT JUMPDEST POP PUSH1 0x4 CALLDATASIZE LT PUSH2 0x60 JUMPI PUSH0 CALLDATALOAD PUSH1 0xE0 SHR DUP1 PUSH4 0x32636123 EQ PUSH2 0x64 JUMPI DUP1 PUSH4 0x40C8068D EQ PUSH2 0x80 JUMPI DUP1 PUSH4 0x4F6E9DE4 EQ PUSH2 0x9E JUMPI DUP1 PUSH4 0x97FF7AE0 EQ PUSH2 0xBA JUMPI DUP1 PUSH4 0xBA54B7BF EQ PUSH2 0xEB JUMPI DUP1 PUSH4 0xF6EBBB76 EQ PUSH2 0x107 JUMPI JUMPDEST PUSH0 DUP1 REVERT JUMPDEST PUSH2 0x7E PUSH1 0x4 DUP1 CALLDATASIZE SUB DUP2 ADD SWAP1 PUSH2 0x79 SWAP2 SWAP1 PUSH2 0x11BF JUMP JUMPDEST PUSH2 0x125 JUMP JUMPDEST STOP JUMPDEST PUSH2 0x88 PUSH2 0x376 JUMP JUMPDEST PUSH1 0x40 MLOAD PUSH2 0x95 SWAP2 SWAP1 PUSH2 0x1256 JUMP JUMPDEST PUSH1 0x40 MLOAD DUP1 SWAP2 SUB SWAP1 RETURN JUMPDEST PUSH2 0xB8 PUSH1 0x4 DUP1 CALLDATASIZE SUB DUP2 ADD SWAP1 PUSH2 0xB3 SWAP2 SWAP1 PUSH2 0x11BF JUMP JUMPDEST PUSH2 0x3BD JUMP JUMPDEST STOP JUMPDEST PUSH2 0xD4 PUSH1 0x4 DUP1 CALLDATASIZE SUB DUP2 ADD SWAP1 PUSH2 0xCF SWAP2 SWAP1 PUSH2 0x126F JUMP JUMPDEST PUSH2 0x66F JUMP JUMPDEST PUSH1 0x40 MLOAD PUSH2 0xE2 SWAP3 SWAP2 SWAP1 PUSH2 0x13CF JUMP JUMPDEST PUSH1 0x40 MLOAD DUP1 SWAP2 SUB SWAP1 RETURN JUMPDEST PUSH2 0x105 PUSH1 0x4 DUP1 CALLDATASIZE SUB DUP2 ADD SWAP1 PUSH2 0x100 SWAP2 SWAP1 PUSH2 0x126F JUMP JUMPDEST PUSH2 0x9DB JUMP JUMPDEST STOP JUMPDEST PUSH2 0x10F PUSH2 0xC04 JUMP JUMPDEST PUSH1 0x40 MLOAD PUSH2 0x11C SWAP2 SWAP1 PUSH2 0x14BB JUMP JUMPDEST PUSH1 0x40 MLOAD DUP1 SWAP2 SUB SWAP1 RETURN JUMPDEST DUP3 CALLER PUSH20 0xFFFFFFFFFFFFFFFFFFFFFFFFFFFFFFFFFFFFFFFF AND PUSH1 0x1 PUSH0 CALLER PUSH20 0xFFFFFFFFFFFFFFFFFFFFFFFFFFFFFFFFFFFFFFFF AND PUSH20 0xFFFFFFFFFFFFFFFFFFFFFFFFFFFFFFFFFFFFFFFF AND DUP2 MSTORE PUSH1 0x20 ADD SWAP1 DUP2 MSTORE PUSH1 0x20 ADD PUSH0 KECCAK256 PUSH0 DUP4 DUP2 MSTORE PUSH1 0x20 ADD SWAP1 DUP2 MSTORE PUSH1 0x20 ADD PUSH0 KECCAK256 PUSH0 ADD PUSH0 SWAP1 SLOAD SWAP1 PUSH2 0x100 EXP SWAP1 DIV PUSH20 0xFFFFFFFFFFFFFFFFFFFFFFFFFFFFFFFFFFFFFFFF AND PUSH20 0xFFFFFFFFFFFFFFFFFFFFFFFFFFFFFFFFFFFFFFFF AND EQ PUSH2 0x201 JUMPI PUSH1 0x40 MLOAD PUSH32 0x8C379A000000000000000000000000000000000000000000000000000000000 DUP2 MSTORE PUSH1 0x4 ADD PUSH2 0x1F8 SWAP1 PUSH2 0x1535 JUMP JUMPDEST PUSH1 0x40 MLOAD DUP1 SWAP2 SUB SWAP1 REVERT JUMPDEST DUP2 MLOAD DUP4 MLOAD EQ PUSH2 0x245 JUMPI PUSH1 0x40 MLOAD PUSH32 0x8C379A000000000000000000000000000000000000000000000000000000000 DUP2 MSTORE PUSH1 0x4 ADD PUSH2 0x23C SWAP1 PUSH2 0x15C3 JUMP JUMPDEST PUSH1 0x40 MLOAD DUP1 SWAP2 SUB SWAP1 REVERT JUMPDEST PUSH0 PUSH1 0x1 PUSH0 CALLER PUSH20 0xFFFFFFFFFFFFFFFFFFFFFFFFFFFFFFFFFFFFFFFF AND PUSH20 0xFFFFFFFFFFFFFFFFFFFFFFFFFFFFFFFFFFFFFFFF AND DUP2 MSTORE PUSH1 0x20 ADD SWAP1 DUP2 MSTORE PUSH1 0x20 ADD PUSH0 KECCAK256 PUSH0 DUP7 DUP2 MSTORE PUSH1 0x20 ADD SWAP1 DUP2 MSTORE PUSH1 0x20 ADD PUSH0 KECCAK256 SWAP1 POP CALLER DUP2 PUSH0 ADD PUSH0 PUSH2 0x100 EXP DUP2 SLOAD DUP2 PUSH20 0xFFFFFFFFFFFFFFFFFFFFFFFFFFFFFFFFFFFFFFFF MUL NOT AND SWAP1 DUP4 PUSH20 0xFFFFFFFFFFFFFFFFFFFFFFFFFFFFFFFFFFFFFFFF AND MUL OR SWAP1 SSTORE POP PUSH0 JUMPDEST DUP5 MLOAD DUP2 LT ISZERO PUSH2 0x355 JUMPI DUP4 DUP2 DUP2 MLOAD DUP2 LT PUSH2 0x2F3 JUMPI PUSH2 0x2F2 PUSH2 0x15E1 JUMP JUMPDEST JUMPDEST PUSH1 0x20 MUL PUSH1 0x20 ADD ADD MLOAD DUP3 PUSH1 0x1 ADD DUP7 DUP4 DUP2 MLOAD DUP2 LT PUSH2 0x312 JUMPI PUSH2 0x311 PUSH2 0x15E1 JUMP JUMPDEST JUMPDEST PUSH1 0x20 MUL PUSH1 0x20 ADD ADD MLOAD PUSH1 0x40 MLOAD PUSH2 0x327 SWAP2 SWAP1 PUSH2 0x1648 JUMP JUMPDEST SWAP1 DUP2 MSTORE PUSH1 0x20 ADD PUSH1 0x40 MLOAD DUP1 SWAP2 SUB SWAP1 KECCAK256 SWAP1 DUP2 PUSH2 0x341 SWAP2 SWAP1 PUSH2 0x1858 JUMP JUMPDEST POP DUP1 DUP1 PUSH2 0x34D SWAP1 PUSH2 0x1954 JUMP JUMPDEST SWAP2 POP POP PUSH2 0x2D7 JUMP JUMPDEST POP DUP4 DUP2 PUSH1 0x2 ADD SWAP1 DUP1 MLOAD SWAP1 PUSH1 0x20 ADD SWAP1 PUSH2 0x36E SWAP3 SWAP2 SWAP1 PUSH2 0xE6D JUMP JUMPDEST POP POP POP POP POP POP JUMP JUMPDEST PUSH0 PUSH1 0x2 PUSH0 CALLER PUSH20 0xFFFFFFFFFFFFFFFFFFFFFFFFFFFFFFFFFFFFFFFF AND PUSH20 0xFFFFFFFFFFFFFFFFFFFFFFFFFFFFFFFFFFFFFFFF AND DUP2 MSTORE PUSH1 0x20 ADD SWAP1 DUP2 MSTORE PUSH1 0x20 ADD PUSH0 KECCAK256 DUP1 SLOAD SWAP1 POP SWAP1 POP SWAP1 JUMP JUMPDEST DUP3 CALLER PUSH20 0xFFFFFFFFFFFFFFFFFFFFFFFFFFFFFFFFFFFFFFFF AND PUSH1 0x1 PUSH0 CALLER PUSH20 0xFFFFFFFFFFFFFFFFFFFFFFFFFFFFFFFFFFFFFFFF AND PUSH20 0xFFFFFFFFFFFFFFFFFFFFFFFFFFFFFFFFFFFFFFFF AND DUP2 MSTORE PUSH1 0x20 ADD SWAP1 DUP2 MSTORE PUSH1 0x20 ADD PUSH0 KECCAK256 PUSH0 DUP4 DUP2 MSTORE PUSH1 0x20 ADD SWAP1 DUP2 MSTORE PUSH1 0x20 ADD PUSH0 KECCAK256 PUSH0 ADD PUSH0 SWAP1 SLOAD SWAP1 PUSH2 0x100 EXP SWAP1 DIV PUSH20 0xFFFFFFFFFFFFFFFFFFFFFFFFFFFFFFFFFFFFFFFF AND PUSH20 0xFFFFFFFFFFFFFFFFFFFFFFFFFFFFFFFFFFFFFFFF AND SUB PUSH2 0x499 JUMPI PUSH1 0x40 MLOAD PUSH32 0x8C379A000000000000000000000000000000000000000000000000000000000 DUP2 MSTORE PUSH1 0x4 ADD PUSH2 0x490 SWAP1 PUSH2 0x19E5 JUMP JUMPDEST PUSH1 0x40 MLOAD DUP1 SWAP2 SUB SWAP1 REVERT JUMPDEST DUP2 MLOAD DUP4 MLOAD EQ PUSH2 0x4DD JUMPI PUSH1 0x40 MLOAD PUSH32 0x8C379A000000000000000000000000000000000000000000000000000000000 DUP2 MSTORE PUSH1 0x4 ADD PUSH2 0x4D4 SWAP1 PUSH2 0x15C3 JUMP JUMPDEST PUSH1 0x40 MLOAD DUP1 SWAP2 SUB SWAP1 REVERT JUMPDEST PUSH0 PUSH1 0x1 PUSH0 CALLER PUSH20 0xFFFFFFFFFFFFFFFFFFFFFFFFFFFFFFFFFFFFFFFF AND PUSH20 0xFFFFFFFFFFFFFFFFFFFFFFFFFFFFFFFFFFFFFFFF AND DUP2 MSTORE PUSH1 0x20 ADD SWAP1 DUP2 MSTORE PUSH1 0x20 ADD PUSH0 KECCAK256 PUSH0 DUP7 DUP2 MSTORE PUSH1 0x20 ADD SWAP1 DUP2 MSTORE PUSH1 0x20 ADD PUSH0 KECCAK256 SWAP1 POP CALLER DUP2 PUSH0 ADD PUSH0 PUSH2 0x100 EXP DUP2 SLOAD DUP2 PUSH20 0xFFFFFFFFFFFFFFFFFFFFFFFFFFFFFFFFFFFFFFFF MUL NOT AND SWAP1 DUP4 PUSH20 0xFFFFFFFFFFFFFFFFFFFFFFFFFFFFFFFFFFFFFFFF AND MUL OR SWAP1 SSTORE POP PUSH0 JUMPDEST DUP5 MLOAD DUP2 LT ISZERO PUSH2 0x5ED JUMPI DUP4 DUP2 DUP2 MLOAD DUP2 LT PUSH2 0x58B JUMPI PUSH2 0x58A PUSH2 0x15E1 JUMP JUMPDEST JUMPDEST PUSH1 0x20 MUL PUSH1 0x20 ADD ADD MLOAD DUP3 PUSH1 0x1 ADD DUP7 DUP4 DUP2 MLOAD DUP2 LT PUSH2 0x5AA JUMPI PUSH2 0x5A9 PUSH2 0x15E1 JUMP JUMPDEST JUMPDEST PUSH1 0x20 MUL PUSH1 0x20 ADD ADD MLOAD PUSH1 0x40 MLOAD PUSH2 0x5BF SWAP2 SWAP1 PUSH2 0x1648 JUMP JUMPDEST SWAP1 DUP2 MSTORE PUSH1 0x20 ADD PUSH1 0x40 MLOAD DUP1 SWAP2 SUB SWAP1 KECCAK256 SWAP1 DUP2 PUSH2 0x5D9 SWAP2 SWAP1 PUSH2 0x1858 JUMP JUMPDEST POP DUP1 DUP1 PUSH2 0x5E5 SWAP1 PUSH2 0x1954 JUMP JUMPDEST SWAP2 POP POP PUSH2 0x56F JUMP JUMPDEST POP DUP4 DUP2 PUSH1 0x2 ADD SWAP1 DUP1 MLOAD SWAP1 PUSH1 0x20 ADD SWAP1 PUSH2 0x606 SWAP3 SWAP2 SWAP1 PUSH2 0xE6D JUMP JUMPDEST POP PUSH1 0x2 PUSH0 CALLER PUSH20 0xFFFFFFFFFFFFFFFFFFFFFFFFFFFFFFFFFFFFFFFF AND PUSH20 0xFFFFFFFFFFFFFFFFFFFFFFFFFFFFFFFFFFFFFFFF AND DUP2 MSTORE PUSH1 0x20 ADD SWAP1 DUP2 MSTORE PUSH1 0x20 ADD PUSH0 KECCAK256 DUP6 SWAP1 DUP1 PUSH1 0x1 DUP2 SLOAD ADD DUP1 DUP3 SSTORE DUP1 SWAP2 POP POP PUSH1 0x1 SWAP1 SUB SWAP1 PUSH0 MSTORE PUSH1 0x20 PUSH0 KECCAK256 ADD PUSH0 SWAP1 SWAP2 SWAP1 SWAP2 SWAP1 SWAP2 POP SSTORE POP POP POP POP POP JUMP JUMPDEST PUSH1 0x60 DUP1 DUP3 CALLER PUSH20 0xFFFFFFFFFFFFFFFFFFFFFFFFFFFFFFFFFFFFFFFF AND PUSH1 0x1 PUSH0 CALLER PUSH20 0xFFFFFFFFFFFFFFFFFFFFFFFFFFFFFFFFFFFFFFFF AND PUSH20 0xFFFFFFFFFFFFFFFFFFFFFFFFFFFFFFFFFFFFFFFF AND DUP2 MSTORE PUSH1 0x20 ADD SWAP1 DUP2 MSTORE PUSH1 0x20 ADD PUSH0 KECCAK256 PUSH0 DUP4 DUP2 MSTORE PUSH1 0x20 ADD SWAP1 DUP2 MSTORE PUSH1 0x20 ADD PUSH0 KECCAK256 PUSH0 ADD PUSH0 SWAP1 SLOAD SWAP1 PUSH2 0x100 EXP SWAP1 DIV PUSH20 0xFFFFFFFFFFFFFFFFFFFFFFFFFFFFFFFFFFFFFFFF AND PUSH20 0xFFFFFFFFFFFFFFFFFFFFFFFFFFFFFFFFFFFFFFFF AND EQ PUSH2 0x74E JUMPI PUSH1 0x40 MLOAD PUSH32 0x8C379A000000000000000000000000000000000000000000000000000000000 DUP2 MSTORE PUSH1 0x4 ADD PUSH2 0x745 SWAP1 PUSH2 0x1535 JUMP JUMPDEST PUSH1 0x40 MLOAD DUP1 SWAP2 SUB SWAP1 REVERT JUMPDEST PUSH0 PUSH1 0x1 PUSH0 CALLER PUSH20 0xFFFFFFFFFFFFFFFFFFFFFFFFFFFFFFFFFFFFFFFF AND PUSH20 0xFFFFFFFFFFFFFFFFFFFFFFFFFFFFFFFFFFFFFFFF AND DUP2 MSTORE PUSH1 0x20 ADD SWAP1 DUP2 MSTORE PUSH1 0x20 ADD PUSH0 KECCAK256 PUSH0 DUP7 DUP2 MSTORE PUSH1 0x20 ADD SWAP1 DUP2 MSTORE PUSH1 0x20 ADD PUSH0 KECCAK256 SWAP1 POP PUSH0 DUP2 PUSH1 0x2 ADD DUP1 SLOAD SWAP1 POP PUSH8 0xFFFFFFFFFFFFFFFF DUP2 GT ISZERO PUSH2 0x7BF JUMPI PUSH2 0x7BE PUSH2 0xFB5 JUMP JUMPDEST JUMPDEST PUSH1 0x40 MLOAD SWAP1 DUP1 DUP3 MSTORE DUP1 PUSH1 0x20 MUL PUSH1 0x20 ADD DUP3 ADD PUSH1 0x40 MSTORE DUP1 ISZERO PUSH2 0x7F2 JUMPI DUP2 PUSH1 0x20 ADD JUMPDEST PUSH1 0x60 DUP2 MSTORE PUSH1 0x20 ADD SWAP1 PUSH1 0x1 SWAP1 SUB SWAP1 DUP2 PUSH2 0x7DD JUMPI SWAP1 POP JUMPDEST POP SWAP1 POP PUSH0 JUMPDEST DUP3 PUSH1 0x2 ADD DUP1 SLOAD SWAP1 POP DUP2 LT ISZERO PUSH2 0x8FB JUMPI DUP3 PUSH1 0x1 ADD DUP4 PUSH1 0x2 ADD DUP3 DUP2 SLOAD DUP2 LT PUSH2 0x820 JUMPI PUSH2 0x81F PUSH2 0x15E1 JUMP JUMPDEST JUMPDEST SWAP1 PUSH0 MSTORE PUSH1 0x20 PUSH0 KECCAK256 ADD PUSH1 0x40 MLOAD PUSH2 0x835 SWAP2 SWAP1 PUSH2 0x1A83 JUMP JUMPDEST SWAP1 DUP2 MSTORE PUSH1 0x20 ADD PUSH1 0x40 MLOAD DUP1 SWAP2 SUB SWAP1 KECCAK256 DUP1 SLOAD PUSH2 0x84E SWAP1 PUSH2 0x168B JUMP JUMPDEST DUP1 PUSH1 0x1F ADD PUSH1 0x20 DUP1 SWAP2 DIV MUL PUSH1 0x20 ADD PUSH1 0x40 MLOAD SWAP1 DUP2 ADD PUSH1 0x40 MSTORE DUP1 SWAP3 SWAP2 SWAP1 DUP2 DUP2 MSTORE PUSH1 0x20 ADD DUP3 DUP1 SLOAD PUSH2 0x87A SWAP1 PUSH2 0x168B JUMP JUMPDEST DUP1 ISZERO PUSH2 0x8C5 JUMPI DUP1 PUSH1 0x1F LT PUSH2 0x89C JUMPI PUSH2 0x100 DUP1 DUP4 SLOAD DIV MUL DUP4 MSTORE SWAP2 PUSH1 0x20 ADD SWAP2 PUSH2 0x8C5 JUMP JUMPDEST DUP3 ADD SWAP2 SWAP1 PUSH0 MSTORE PUSH1 0x20 PUSH0 KECCAK256 SWAP1 JUMPDEST DUP2 SLOAD DUP2 MSTORE SWAP1 PUSH1 0x1 ADD SWAP1 PUSH1 0x20 ADD DUP1 DUP4 GT PUSH2 0x8A8 JUMPI DUP3 SWAP1 SUB PUSH1 0x1F AND DUP3 ADD SWAP2 JUMPDEST POP POP POP POP POP DUP3 DUP3 DUP2 MLOAD DUP2 LT PUSH2 0x8DD JUMPI PUSH2 0x8DC PUSH2 0x15E1 JUMP JUMPDEST JUMPDEST PUSH1 0x20 MUL PUSH1 0x20 ADD ADD DUP2 SWAP1 MSTORE POP DUP1 DUP1 PUSH2 0x8F3 SWAP1 PUSH2 0x1954 JUMP JUMPDEST SWAP2 POP POP PUSH2 0x7F7 JUMP JUMPDEST POP DUP2 PUSH1 0x2 ADD DUP2 DUP2 DUP1 SLOAD DUP1 PUSH1 0x20 MUL PUSH1 0x20 ADD PUSH1 0x40 MLOAD SWAP1 DUP2 ADD PUSH1 0x40 MSTORE DUP1 SWAP3 SWAP2 SWAP1 DUP2 DUP2 MSTORE PUSH1 0x20 ADD PUSH0 SWAP1 JUMPDEST DUP3 DUP3 LT ISZERO PUSH2 0x9C9 JUMPI DUP4 DUP3 SWAP1 PUSH0 MSTORE PUSH1 0x20 PUSH0 KECCAK256 ADD DUP1 SLOAD PUSH2 0x93E SWAP1 PUSH2 0x168B JUMP JUMPDEST DUP1 PUSH1 0x1F ADD PUSH1 0x20 DUP1 SWAP2 DIV MUL PUSH1 0x20 ADD PUSH1 0x40 MLOAD SWAP1 DUP2 ADD PUSH1 0x40 MSTORE DUP1 SWAP3 SWAP2 SWAP1 DUP2 DUP2 MSTORE PUSH1 0x20 ADD DUP3 DUP1 SLOAD PUSH2 0x96A SWAP1 PUSH2 0x168B JUMP JUMPDEST DUP1 ISZERO PUSH2 0x9B5 JUMPI DUP1 PUSH1 0x1F LT PUSH2 0x98C JUMPI PUSH2 0x100 DUP1 DUP4 SLOAD DIV MUL DUP4 MSTORE SWAP2 PUSH1 0x20 ADD SWAP2 PUSH2 0x9B5 JUMP JUMPDEST DUP3 ADD SWAP2 SWAP1 PUSH0 MSTORE PUSH1 0x20 PUSH0 KECCAK256 SWAP1 JUMPDEST DUP2 SLOAD DUP2 MSTORE SWAP1 PUSH1 0x1 ADD SWAP1 PUSH1 0x20 ADD DUP1 DUP4 GT PUSH2 0x998 JUMPI DUP3 SWAP1 SUB PUSH1 0x1F AND DUP3 ADD SWAP2 JUMPDEST POP POP POP POP POP DUP2 MSTORE PUSH1 0x20 ADD SWAP1 PUSH1 0x1 ADD SWAP1 PUSH2 0x921 JUMP JUMPDEST POP POP POP POP SWAP2 POP SWAP5 POP SWAP5 POP POP POP POP SWAP2 POP SWAP2 JUMP JUMPDEST DUP1 CALLER PUSH20 0xFFFFFFFFFFFFFFFFFFFFFFFFFFFFFFFFFFFFFFFF AND PUSH1 0x1 PUSH0 CALLER PUSH20 0xFFFFFFFFFFFFFFFFFFFFFFFFFFFFFFFFFFFFFFFF AND PUSH20 0xFFFFFFFFFFFFFFFFFFFFFFFFFFFFFFFFFFFFFFFF AND DUP2 MSTORE PUSH1 0x20 ADD SWAP1 DUP2 MSTORE PUSH1 0x20 ADD PUSH0 KECCAK256 PUSH0 DUP4 DUP2 MSTORE PUSH1 0x20 ADD SWAP1 DUP2 MSTORE PUSH1 0x20 ADD PUSH0 KECCAK256 PUSH0 ADD PUSH0 SWAP1 SLOAD SWAP1 PUSH2 0x100 EXP SWAP1 DIV PUSH20 0xFFFFFFFFFFFFFFFFFFFFFFFFFFFFFFFFFFFFFFFF AND PUSH20 0xFFFFFFFFFFFFFFFFFFFFFFFFFFFFFFFFFFFFFFFF AND EQ PUSH2 0xAB7 JUMPI PUSH1 0x40 MLOAD PUSH32 0x8C379A000000000000000000000000000000000000000000000000000000000 DUP2 MSTORE PUSH1 0x4 ADD PUSH2 0xAAE SWAP1 PUSH2 0x1535 JUMP JUMPDEST PUSH1 0x40 MLOAD DUP1 SWAP2 SUB SWAP1 REVERT JUMPDEST PUSH0 JUMPDEST PUSH1 0x2 PUSH0 CALLER PUSH20 0xFFFFFFFFFFFFFFFFFFFFFFFFFFFFFFFFFFFFFFFF AND PUSH20 0xFFFFFFFFFFFFFFFFFFFFFFFFFFFFFFFFFFFFFFFF AND DUP2 MSTORE PUSH1 0x20 ADD SWAP1 DUP2 MSTORE PUSH1 0x20 ADD PUSH0 KECCAK256 DUP1 SLOAD SWAP1 POP DUP2 LT ISZERO PUSH2 0xB7C JUMPI DUP3 PUSH1 0x2 PUSH0 CALLER PUSH20 0xFFFFFFFFFFFFFFFFFFFFFFFFFFFFFFFFFFFFFFFF AND PUSH20 0xFFFFFFFFFFFFFFFFFFFFFFFFFFFFFFFFFFFFFFFF AND DUP2 MSTORE PUSH1 0x20 ADD SWAP1 DUP2 MSTORE PUSH1 0x20 ADD PUSH0 KECCAK256 DUP3 DUP2 SLOAD DUP2 LT PUSH2 0xB51 JUMPI PUSH2 0xB50 PUSH2 0x15E1 JUMP JUMPDEST JUMPDEST SWAP1 PUSH0 MSTORE PUSH1 0x20 PUSH0 KECCAK256 ADD SLOAD SUB PUSH2 0xB69 JUMPI PUSH2 0xB68 DUP2 PUSH2 0xC95 JUMP JUMPDEST JUMPDEST DUP1 DUP1 PUSH2 0xB74 SWAP1 PUSH2 0x1954 JUMP JUMPDEST SWAP2 POP POP PUSH2 0xAB9 JUMP JUMPDEST POP PUSH1 0x1 PUSH0 CALLER PUSH20 0xFFFFFFFFFFFFFFFFFFFFFFFFFFFFFFFFFFFFFFFF AND PUSH20 0xFFFFFFFFFFFFFFFFFFFFFFFFFFFFFFFFFFFFFFFF AND DUP2 MSTORE PUSH1 0x20 ADD SWAP1 DUP2 MSTORE PUSH1 0x20 ADD PUSH0 KECCAK256 PUSH0 DUP4 DUP2 MSTORE PUSH1 0x20 ADD SWAP1 DUP2 MSTORE PUSH1 0x20 ADD PUSH0 KECCAK256 PUSH0 DUP1 DUP3 ADD PUSH0 PUSH2 0x100 EXP DUP2 SLOAD SWAP1 PUSH20 0xFFFFFFFFFFFFFFFFFFFFFFFFFFFFFFFFFFFFFFFF MUL NOT AND SWAP1 SSTORE PUSH1 0x2 DUP3 ADD PUSH0 PUSH2 0xBFE SWAP2 SWAP1 PUSH2 0xEC4 JUMP JUMPDEST POP POP POP POP JUMP JUMPDEST PUSH1 0x60 PUSH1 0x2 PUSH0 CALLER PUSH20 0xFFFFFFFFFFFFFFFFFFFFFFFFFFFFFFFFFFFFFFFF AND PUSH20 0xFFFFFFFFFFFFFFFFFFFFFFFFFFFFFFFFFFFFFFFF AND DUP2 MSTORE PUSH1 0x20 ADD SWAP1 DUP2 MSTORE PUSH1 0x20 ADD PUSH0 KECCAK256 DUP1 SLOAD DUP1 PUSH1 0x20 MUL PUSH1 0x20 ADD PUSH1 0x40 MLOAD SWAP1 DUP2 ADD PUSH1 0x40 MSTORE DUP1 SWAP3 SWAP2 SWAP1 DUP2 DUP2 MSTORE PUSH1 0x20 ADD DUP3 DUP1 SLOAD DUP1 ISZERO PUSH2 0xC8B JUMPI PUSH1 0x20 MUL DUP3 ADD SWAP2 SWAP1 PUSH0 MSTORE PUSH1 0x20 PUSH0 KECCAK256 SWAP1 JUMPDEST DUP2 SLOAD DUP2 MSTORE PUSH1 0x20 ADD SWAP1 PUSH1 0x1 ADD SWAP1 DUP1 DUP4 GT PUSH2 0xC77 JUMPI JUMPDEST POP POP POP POP POP SWAP1 POP SWAP1 JUMP JUMPDEST PUSH1 0x2 PUSH0 CALLER PUSH20 0xFFFFFFFFFFFFFFFFFFFFFFFFFFFFFFFFFFFFFFFF AND PUSH20 0xFFFFFFFFFFFFFFFFFFFFFFFFFFFFFFFFFFFFFFFF AND DUP2 MSTORE PUSH1 0x20 ADD SWAP1 DUP2 MSTORE PUSH1 0x20 ADD PUSH0 KECCAK256 DUP1 SLOAD SWAP1 POP DUP2 LT ISZERO PUSH2 0xE6A JUMPI PUSH0 DUP2 SWAP1 POP JUMPDEST PUSH1 0x1 PUSH1 0x2 PUSH0 CALLER PUSH20 0xFFFFFFFFFFFFFFFFFFFFFFFFFFFFFFFFFFFFFFFF AND PUSH20 0xFFFFFFFFFFFFFFFFFFFFFFFFFFFFFFFFFFFFFFFF AND DUP2 MSTORE PUSH1 0x20 ADD SWAP1 DUP2 MSTORE PUSH1 0x20 ADD PUSH0 KECCAK256 DUP1 SLOAD SWAP1 POP PUSH2 0xD2F SWAP2 SWAP1 PUSH2 0x1A99 JUMP JUMPDEST DUP2 LT ISZERO PUSH2 0xE08 JUMPI PUSH1 0x2 PUSH0 CALLER PUSH20 0xFFFFFFFFFFFFFFFFFFFFFFFFFFFFFFFFFFFFFFFF AND PUSH20 0xFFFFFFFFFFFFFFFFFFFFFFFFFFFFFFFFFFFFFFFF AND DUP2 MSTORE PUSH1 0x20 ADD SWAP1 DUP2 MSTORE PUSH1 0x20 ADD PUSH0 KECCAK256 PUSH1 0x1 DUP3 PUSH2 0xD80 SWAP2 SWAP1 PUSH2 0x1ACC JUMP JUMPDEST DUP2 SLOAD DUP2 LT PUSH2 0xD91 JUMPI PUSH2 0xD90 PUSH2 0x15E1 JUMP JUMPDEST JUMPDEST SWAP1 PUSH0 MSTORE PUSH1 0x20 PUSH0 KECCAK256 ADD SLOAD PUSH1 0x2 PUSH0 CALLER PUSH20 0xFFFFFFFFFFFFFFFFFFFFFFFFFFFFFFFFFFFFFFFF AND PUSH20 0xFFFFFFFFFFFFFFFFFFFFFFFFFFFFFFFFFFFFFFFF AND DUP2 MSTORE PUSH1 0x20 ADD SWAP1 DUP2 MSTORE PUSH1 0x20 ADD PUSH0 KECCAK256 DUP3 DUP2 SLOAD DUP2 LT PUSH2 0xDE9 JUMPI PUSH2 0xDE8 PUSH2 0x15E1 JUMP JUMPDEST JUMPDEST SWAP1 PUSH0 MSTORE PUSH1 0x20 PUSH0 KECCAK256 ADD DUP2 SWAP1 SSTORE POP DUP1 DUP1 PUSH2 0xE00 SWAP1 PUSH2 0x1954 JUMP JUMPDEST SWAP2 POP POP PUSH2 0xCE2 JUMP JUMPDEST POP PUSH1 0x2 PUSH0 CALLER PUSH20 0xFFFFFFFFFFFFFFFFFFFFFFFFFFFFFFFFFFFFFFFF AND PUSH20 0xFFFFFFFFFFFFFFFFFFFFFFFFFFFFFFFFFFFFFFFF AND DUP2 MSTORE PUSH1 0x20 ADD SWAP1 DUP2 MSTORE PUSH1 0x20 ADD PUSH0 KECCAK256 DUP1 SLOAD DUP1 PUSH2 0xE56 JUMPI PUSH2 0xE55 PUSH2 0x1AFF JUMP JUMPDEST JUMPDEST PUSH1 0x1 SWAP1 SUB DUP2 DUP2 SWAP1 PUSH0 MSTORE PUSH1 0x20 PUSH0 KECCAK256 ADD PUSH0 SWAP1 SSTORE SWAP1 SSTORE JUMPDEST POP JUMP JUMPDEST DUP3 DUP1 SLOAD DUP3 DUP3 SSTORE SWAP1 PUSH0 MSTORE PUSH1 0x20 PUSH0 KECCAK256 SWAP1 DUP2 ADD SWAP3 DUP3 ISZERO PUSH2 0xEB3 JUMPI SWAP2 PUSH1 0x20 MUL DUP3 ADD JUMPDEST DUP3 DUP2 GT ISZERO PUSH2 0xEB2 JUMPI DUP3 MLOAD DUP3 SWAP1 DUP2 PUSH2 0xEA2 SWAP2 SWAP1 PUSH2 0x1858 JUMP JUMPDEST POP SWAP2 PUSH1 0x20 ADD SWAP2 SWAP1 PUSH1 0x1 ADD SWAP1 PUSH2 0xE8B JUMP JUMPDEST JUMPDEST POP SWAP1 POP PUSH2 0xEC0 SWAP2 SWAP1 PUSH2 0xEE2 JUMP JUMPDEST POP SWAP1 JUMP JUMPDEST POP DUP1 SLOAD PUSH0 DUP3 SSTORE SWAP1 PUSH0 MSTORE PUSH1 0x20 PUSH0 KECCAK256 SWAP1 DUP2 ADD SWAP1 PUSH2 0xEDF SWAP2 SWAP1 PUSH2 0xEE2 JUMP JUMPDEST POP JUMP JUMPDEST JUMPDEST DUP1 DUP3 GT ISZERO PUSH2 0xF01 JUMPI PUSH0 DUP2 DUP2 PUSH2 0xEF8 SWAP2 SWAP1 PUSH2 0xF05 JUMP JUMPDEST POP PUSH1 0x1 ADD PUSH2 0xEE3 JUMP JUMPDEST POP SWAP1 JUMP JUMPDEST POP DUP1 SLOAD PUSH2 0xF11 SWAP1 PUSH2 0x168B JUMP JUMPDEST PUSH0 DUP3 SSTORE DUP1 PUSH1 0x1F LT PUSH2 0xF22 JUMPI POP PUSH2 0xF3F JUMP JUMPDEST PUSH1 0x1F ADD PUSH1 0x20 SWAP1 DIV SWAP1 PUSH0 MSTORE PUSH1 0x20 PUSH0 KECCAK256 SWAP1 DUP2 ADD SWAP1 PUSH2 0xF3E SWAP2 SWAP1 PUSH2 0xF42 JUMP JUMPDEST JUMPDEST POP JUMP JUMPDEST JUMPDEST DUP1 DUP3 GT ISZERO PUSH2 0xF59 JUMPI PUSH0 DUP2 PUSH0 SWAP1 SSTORE POP PUSH1 0x1 ADD PUSH2 0xF43 JUMP JUMPDEST POP SWAP1 JUMP JUMPDEST PUSH0 PUSH1 0x40 MLOAD SWAP1 POP SWAP1 JUMP JUMPDEST PUSH0 DUP1 REVERT JUMPDEST PUSH0 DUP1 REVERT JUMPDEST PUSH0 DUP2 SWAP1 POP SWAP2 SWAP1 POP JUMP JUMPDEST PUSH2 0xF80 DUP2 PUSH2 0xF6E JUMP JUMPDEST DUP2 EQ PUSH2 0xF8A JUMPI PUSH0 DUP1 REVERT JUMPDEST POP JUMP JUMPDEST PUSH0 DUP2 CALLDATALOAD SWAP1 POP PUSH2 0xF9B DUP2 PUSH2 0xF77 JUMP JUMPDEST SWAP3 SWAP2 POP POP JUMP JUMPDEST PUSH0 DUP1 REVERT JUMPDEST PUSH0 PUSH1 0x1F NOT PUSH1 0x1F DUP4 ADD AND SWAP1 POP SWAP2 SWAP1 POP JUMP JUMPDEST PUSH32 0x4E487B7100000000000000000000000000000000000000000000000000000000 PUSH0 MSTORE PUSH1 0x41 PUSH1 0x4 MSTORE PUSH1 0x24 PUSH0 REVERT JUMPDEST PUSH2 0xFEB DUP3 PUSH2 0xFA5 JUMP JUMPDEST DUP2 ADD DUP2 DUP2 LT PUSH8 0xFFFFFFFFFFFFFFFF DUP3 GT OR ISZERO PUSH2 0x100A JUMPI PUSH2 0x1009 PUSH2 0xFB5 JUMP JUMPDEST JUMPDEST DUP1 PUSH1 0x40 MSTORE POP POP POP JUMP JUMPDEST PUSH0 PUSH2 0x101C PUSH2 0xF5D JUMP JUMPDEST SWAP1 POP PUSH2 0x1028 DUP3 DUP3 PUSH2 0xFE2 JUMP JUMPDEST SWAP2 SWAP1 POP JUMP JUMPDEST PUSH0 PUSH8 0xFFFFFFFFFFFFFFFF DUP3 GT ISZERO PUSH2 0x1047 JUMPI PUSH2 0x1046 PUSH2 0xFB5 JUMP JUMPDEST JUMPDEST PUSH1 0x20 DUP3 MUL SWAP1 POP PUSH1 0x20 DUP2 ADD SWAP1 POP SWAP2 SWAP1 POP JUMP JUMPDEST PUSH0 DUP1 REVERT JUMPDEST PUSH0 DUP1 REVERT JUMPDEST PUSH0 PUSH8 0xFFFFFFFFFFFFFFFF DUP3 GT ISZERO PUSH2 0x107A JUMPI PUSH2 0x1079 PUSH2 0xFB5 JUMP JUMPDEST JUMPDEST PUSH2 0x1083 DUP3 PUSH2 0xFA5 JUMP JUMPDEST SWAP1 POP PUSH1 0x20 DUP2 ADD SWAP1 POP SWAP2 SWAP1 POP JUMP JUMPDEST DUP3 DUP2 DUP4 CALLDATACOPY PUSH0 DUP4 DUP4 ADD MSTORE POP POP POP JUMP JUMPDEST PUSH0 PUSH2 0x10B0 PUSH2 0x10AB DUP5 PUSH2 0x1060 JUMP JUMPDEST PUSH2 0x1013 JUMP JUMPDEST SWAP1 POP DUP3 DUP2 MSTORE PUSH1 0x20 DUP2 ADD DUP5 DUP5 DUP5 ADD GT ISZERO PUSH2 0x10CC JUMPI PUSH2 0x10CB PUSH2 0x105C JUMP JUMPDEST JUMPDEST PUSH2 0x10D7 DUP5 DUP3 DUP6 PUSH2 0x1090 JUMP JUMPDEST POP SWAP4 SWAP3 POP POP POP JUMP JUMPDEST PUSH0 DUP3 PUSH1 0x1F DUP4 ADD SLT PUSH2 0x10F3 JUMPI PUSH2 0x10F2 PUSH2 0xFA1 JUMP JUMPDEST JUMPDEST DUP2 CALLDATALOAD PUSH2 0x1103 DUP5 DUP3 PUSH1 0x20 DUP7 ADD PUSH2 0x109E JUMP JUMPDEST SWAP2 POP POP SWAP3 SWAP2 POP POP JUMP JUMPDEST PUSH0 PUSH2 0x111E PUSH2 0x1119 DUP5 PUSH2 0x102D JUMP JUMPDEST PUSH2 0x1013 JUMP JUMPDEST SWAP1 POP DUP1 DUP4 DUP3 MSTORE PUSH1 0x20 DUP3 ADD SWAP1 POP PUSH1 0x20 DUP5 MUL DUP4 ADD DUP6 DUP2 GT ISZERO PUSH2 0x1141 JUMPI PUSH2 0x1140 PUSH2 0x1058 JUMP JUMPDEST JUMPDEST DUP4 JUMPDEST DUP2 DUP2 LT ISZERO PUSH2 0x1188 JUMPI DUP1 CALLDATALOAD PUSH8 0xFFFFFFFFFFFFFFFF DUP2 GT ISZERO PUSH2 0x1166 JUMPI PUSH2 0x1165 PUSH2 0xFA1 JUMP JUMPDEST JUMPDEST DUP1 DUP7 ADD PUSH2 0x1173 DUP10 DUP3 PUSH2 0x10DF JUMP JUMPDEST DUP6 MSTORE PUSH1 0x20 DUP6 ADD SWAP5 POP POP POP PUSH1 0x20 DUP2 ADD SWAP1 POP PUSH2 0x1143 JUMP JUMPDEST POP POP POP SWAP4 SWAP3 POP POP POP JUMP JUMPDEST PUSH0 DUP3 PUSH1 0x1F DUP4 ADD SLT PUSH2 0x11A6 JUMPI PUSH2 0x11A5 PUSH2 0xFA1 JUMP JUMPDEST JUMPDEST DUP2 CALLDATALOAD PUSH2 0x11B6 DUP5 DUP3 PUSH1 0x20 DUP7 ADD PUSH2 0x110C JUMP JUMPDEST SWAP2 POP POP SWAP3 SWAP2 POP POP JUMP JUMPDEST PUSH0 DUP1 PUSH0 PUSH1 0x60 DUP5 DUP7 SUB SLT ISZERO PUSH2 0x11D6 JUMPI PUSH2 0x11D5 PUSH2 0xF66 JUMP JUMPDEST JUMPDEST PUSH0 PUSH2 0x11E3 DUP7 DUP3 DUP8 ADD PUSH2 0xF8D JUMP JUMPDEST SWAP4 POP POP PUSH1 0x20 DUP5 ADD CALLDATALOAD PUSH8 0xFFFFFFFFFFFFFFFF DUP2 GT ISZERO PUSH2 0x1204 JUMPI PUSH2 0x1203 PUSH2 0xF6A JUMP JUMPDEST JUMPDEST PUSH2 0x1210 DUP7 DUP3 DUP8 ADD PUSH2 0x1192 JUMP JUMPDEST SWAP3 POP POP PUSH1 0x40 DUP5 ADD CALLDATALOAD PUSH8 0xFFFFFFFFFFFFFFFF DUP2 GT ISZERO PUSH2 0x1231 JUMPI PUSH2 0x1230 PUSH2 0xF6A JUMP JUMPDEST JUMPDEST PUSH2 0x123D DUP7 DUP3 DUP8 ADD PUSH2 0x1192 JUMP JUMPDEST SWAP2 POP POP SWAP3 POP SWAP3 POP SWAP3 JUMP JUMPDEST PUSH2 0x1250 DUP2 PUSH2 0xF6E JUMP JUMPDEST DUP3 MSTORE POP POP JUMP JUMPDEST PUSH0 PUSH1 0x20 DUP3 ADD SWAP1 POP PUSH2 0x1269 PUSH0 DUP4 ADD DUP5 PUSH2 0x1247 JUMP JUMPDEST SWAP3 SWAP2 POP POP JUMP JUMPDEST PUSH0 PUSH1 0x20 DUP3 DUP5 SUB SLT ISZERO PUSH2 0x1284 JUMPI PUSH2 0x1283 PUSH2 0xF66 JUMP JUMPDEST JUMPDEST PUSH0 PUSH2 0x1291 DUP5 DUP3 DUP6 ADD PUSH2 0xF8D JUMP JUMPDEST SWAP2 POP POP SWAP3 SWAP2 POP POP JUMP JUMPDEST PUSH0 DUP2 MLOAD SWAP1 POP SWAP2 SWAP1 POP JUMP JUMPDEST PUSH0 DUP3 DUP3 MSTORE PUSH1 0x20 DUP3 ADD SWAP1 POP SWAP3 SWAP2 POP POP JUMP JUMPDEST PUSH0 DUP2 SWAP1 POP PUSH1 0x20 DUP3 ADD SWAP1 POP SWAP2 SWAP1 POP JUMP JUMPDEST PUSH0 DUP2 MLOAD SWAP1 POP SWAP2 SWAP1 POP JUMP JUMPDEST PUSH0 DUP3 DUP3 MSTORE PUSH1 0x20 DUP3 ADD SWAP1 POP SWAP3 SWAP2 POP POP JUMP JUMPDEST PUSH0 JUMPDEST DUP4 DUP2 LT ISZERO PUSH2 0x12FA JUMPI DUP1 DUP3 ADD MLOAD DUP2 DUP5 ADD MSTORE PUSH1 0x20 DUP2 ADD SWAP1 POP PUSH2 0x12DF JUMP JUMPDEST PUSH0 DUP5 DUP5 ADD MSTORE POP POP POP POP JUMP JUMPDEST PUSH0 PUSH2 0x130F DUP3 PUSH2 0x12C3 JUMP JUMPDEST PUSH2 0x1319 DUP2 DUP6 PUSH2 0x12CD JUMP JUMPDEST SWAP4 POP PUSH2 0x1329 DUP2 DUP6 PUSH1 0x20 DUP7 ADD PUSH2 0x12DD JUMP JUMPDEST PUSH2 0x1332 DUP2 PUSH2 0xFA5 JUMP JUMPDEST DUP5 ADD SWAP2 POP POP SWAP3 SWAP2 POP POP JUMP JUMPDEST PUSH0 PUSH2 0x1348 DUP4 DUP4 PUSH2 0x1305 JUMP JUMPDEST SWAP1 POP SWAP3 SWAP2 POP POP JUMP JUMPDEST PUSH0 PUSH1 0x20 DUP3 ADD SWAP1 POP SWAP2 SWAP1 POP JUMP JUMPDEST PUSH0 PUSH2 0x1366 DUP3 PUSH2 0x129A JUMP JUMPDEST PUSH2 0x1370 DUP2 DUP6 PUSH2 0x12A4 JUMP JUMPDEST SWAP4 POP DUP4 PUSH1 0x20 DUP3 MUL DUP6 ADD PUSH2 0x1382 DUP6 PUSH2 0x12B4 JUMP JUMPDEST DUP1 PUSH0 JUMPDEST DUP6 DUP2 LT ISZERO PUSH2 0x13BD JUMPI DUP5 DUP5 SUB DUP10 MSTORE DUP2 MLOAD PUSH2 0x139E DUP6 DUP3 PUSH2 0x133D JUMP JUMPDEST SWAP5 POP PUSH2 0x13A9 DUP4 PUSH2 0x1350 JUMP JUMPDEST SWAP3 POP PUSH1 0x20 DUP11 ADD SWAP10 POP POP PUSH1 0x1 DUP2 ADD SWAP1 POP PUSH2 0x1385 JUMP JUMPDEST POP DUP3 SWAP8 POP DUP8 SWAP6 POP POP POP POP POP POP SWAP3 SWAP2 POP POP JUMP JUMPDEST PUSH0 PUSH1 0x40 DUP3 ADD SWAP1 POP DUP2 DUP2 SUB PUSH0 DUP4 ADD MSTORE PUSH2 0x13E7 DUP2 DUP6 PUSH2 0x135C JUMP JUMPDEST SWAP1 POP DUP2 DUP2 SUB PUSH1 0x20 DUP4 ADD MSTORE PUSH2 0x13FB DUP2 DUP5 PUSH2 0x135C JUMP JUMPDEST SWAP1 POP SWAP4 SWAP3 POP POP POP JUMP JUMPDEST PUSH0 DUP2 MLOAD SWAP1 POP SWAP2 SWAP1 POP JUMP JUMPDEST PUSH0 DUP3 DUP3 MSTORE PUSH1 0x20 DUP3 ADD SWAP1 POP SWAP3 SWAP2 POP POP JUMP JUMPDEST PUSH0 DUP2 SWAP1 POP PUSH1 0x20 DUP3 ADD SWAP1 POP SWAP2 SWAP1 POP JUMP JUMPDEST PUSH2 0x1436 DUP2 PUSH2 0xF6E JUMP JUMPDEST DUP3 MSTORE POP POP JUMP JUMPDEST PUSH0 PUSH2 0x1447 DUP4 DUP4 PUSH2 0x142D JUMP JUMPDEST PUSH1 0x20 DUP4 ADD SWAP1 POP SWAP3 SWAP2 POP POP JUMP JUMPDEST PUSH0 PUSH1 0x20 DUP3 ADD SWAP1 POP SWAP2 SWAP1 POP JUMP JUMPDEST PUSH0 PUSH2 0x1469 DUP3 PUSH2 0x1404 JUMP JUMPDEST PUSH2 0x1473 DUP2 DUP6 PUSH2 0x140E JUMP JUMPDEST SWAP4 POP PUSH2 0x147E DUP4 PUSH2 0x141E JUMP JUMPDEST DUP1 PUSH0 JUMPDEST DUP4 DUP2 LT ISZERO PUSH2 0x14AE JUMPI DUP2 MLOAD PUSH2 0x1495 DUP9 DUP3 PUSH2 0x143C JUMP JUMPDEST SWAP8 POP PUSH2 0x14A0 DUP4 PUSH2 0x1453 JUMP JUMPDEST SWAP3 POP POP PUSH1 0x1 DUP2 ADD SWAP1 POP PUSH2 0x1481 JUMP JUMPDEST POP DUP6 SWAP4 POP POP POP POP SWAP3 SWAP2 POP POP JUMP JUMPDEST PUSH0 PUSH1 0x20 DUP3 ADD SWAP1 POP DUP2 DUP2 SUB PUSH0 DUP4 ADD MSTORE PUSH2 0x14D3 DUP2 DUP5 PUSH2 0x145F JUMP JUMPDEST SWAP1 POP SWAP3 SWAP2 POP POP JUMP JUMPDEST PUSH0 DUP3 DUP3 MSTORE PUSH1 0x20 DUP3 ADD SWAP1 POP SWAP3 SWAP2 POP POP JUMP JUMPDEST PUSH32 0x5B4552524F525D204944206E6F7420617661696C61626C650000000000000000 PUSH0 DUP3 ADD MSTORE POP JUMP JUMPDEST PUSH0 PUSH2 0x151F PUSH1 0x18 DUP4 PUSH2 0x14DB JUMP JUMPDEST SWAP2 POP PUSH2 0x152A DUP3 PUSH2 0x14EB JUMP JUMPDEST PUSH1 0x20 DUP3 ADD SWAP1 POP SWAP2 SWAP1 POP JUMP JUMPDEST PUSH0 PUSH1 0x20 DUP3 ADD SWAP1 POP DUP2 DUP2 SUB PUSH0 DUP4 ADD MSTORE PUSH2 0x154C DUP2 PUSH2 0x1513 JUMP JUMPDEST SWAP1 POP SWAP2 SWAP1 POP JUMP JUMPDEST PUSH32 0x5B4552524F525D20546865206C656E677468206F6620746865206B6579732061 PUSH0 DUP3 ADD MSTORE PUSH32 0x6E642076616C75657320617265206E6F746520657175616C0000000000000000 PUSH1 0x20 DUP3 ADD MSTORE POP JUMP JUMPDEST PUSH0 PUSH2 0x15AD PUSH1 0x38 DUP4 PUSH2 0x14DB JUMP JUMPDEST SWAP2 POP PUSH2 0x15B8 DUP3 PUSH2 0x1553 JUMP JUMPDEST PUSH1 0x40 DUP3 ADD SWAP1 POP SWAP2 SWAP1 POP JUMP JUMPDEST PUSH0 PUSH1 0x20 DUP3 ADD SWAP1 POP DUP2 DUP2 SUB PUSH0 DUP4 ADD MSTORE PUSH2 0x15DA DUP2 PUSH2 0x15A1 JUMP JUMPDEST SWAP1 POP SWAP2 SWAP1 POP JUMP JUMPDEST PUSH32 0x4E487B7100000000000000000000000000000000000000000000000000000000 PUSH0 MSTORE PUSH1 0x32 PUSH1 0x4 MSTORE PUSH1 0x24 PUSH0 REVERT JUMPDEST PUSH0 DUP2 SWAP1 POP SWAP3 SWAP2 POP POP JUMP JUMPDEST PUSH0 PUSH2 0x1622 DUP3 PUSH2 0x12C3 JUMP JUMPDEST PUSH2 0x162C DUP2 DUP6 PUSH2 0x160E JUMP JUMPDEST SWAP4 POP PUSH2 0x163C DUP2 DUP6 PUSH1 0x20 DUP7 ADD PUSH2 0x12DD JUMP JUMPDEST DUP1 DUP5 ADD SWAP2 POP POP SWAP3 SWAP2 POP POP JUMP JUMPDEST PUSH0 PUSH2 0x1653 DUP3 DUP5 PUSH2 0x1618 JUMP JUMPDEST SWAP2 POP DUP2 SWAP1 POP SWAP3 SWAP2 POP POP JUMP JUMPDEST PUSH32 0x4E487B7100000000000000000000000000000000000000000000000000000000 PUSH0 MSTORE PUSH1 0x22 PUSH1 0x4 MSTORE PUSH1 0x24 PUSH0 REVERT JUMPDEST PUSH0 PUSH1 0x2 DUP3 DIV SWAP1 POP PUSH1 0x1 DUP3 AND DUP1 PUSH2 0x16A2 JUMPI PUSH1 0x7F DUP3 AND SWAP2 POP JUMPDEST PUSH1 0x20 DUP3 LT DUP2 SUB PUSH2 0x16B5 JUMPI PUSH2 0x16B4 PUSH2 0x165E JUMP JUMPDEST JUMPDEST POP SWAP2 SWAP1 POP JUMP JUMPDEST PUSH0 DUP2 SWAP1 POP DUP2 PUSH0 MSTORE PUSH1 0x20 PUSH0 KECCAK256 SWAP1 POP SWAP2 SWAP1 POP JUMP JUMPDEST PUSH0 PUSH1 0x20 PUSH1 0x1F DUP4 ADD DIV SWAP1 POP SWAP2 SWAP1 POP JUMP JUMPDEST PUSH0 DUP3 DUP3 SHL SWAP1 POP SWAP3 SWAP2 POP POP JUMP JUMPDEST PUSH0 PUSH1 0x8 DUP4 MUL PUSH2 0x1717 PUSH32 0xFFFFFFFFFFFFFFFFFFFFFFFFFFFFFFFFFFFFFFFFFFFFFFFFFFFFFFFFFFFFFFFF DUP3 PUSH2 0x16DC JUMP JUMPDEST PUSH2 0x1721 DUP7 DUP4 PUSH2 0x16DC JUMP JUMPDEST SWAP6 POP DUP1 NOT DUP5 AND SWAP4 POP DUP1 DUP7 AND DUP5 OR SWAP3 POP POP POP SWAP4 SWAP3 POP POP POP JUMP JUMPDEST PUSH0 DUP2 SWAP1 POP SWAP2 SWAP1 POP JUMP JUMPDEST PUSH0 PUSH2 0x175C PUSH2 0x1757 PUSH2 0x1752 DUP5 PUSH2 0xF6E JUMP JUMPDEST PUSH2 0x1739 JUMP JUMPDEST PUSH2 0xF6E JUMP JUMPDEST SWAP1 POP SWAP2 SWAP1 POP JUMP JUMPDEST PUSH0 DUP2 SWAP1 POP SWAP2 SWAP1 POP JUMP JUMPDEST PUSH2 0x1775 DUP4 PUSH2 0x1742 JUMP JUMPDEST PUSH2 0x1789 PUSH2 0x1781 DUP3 PUSH2 0x1763 JUMP JUMPDEST DUP5 DUP5 SLOAD PUSH2 0x16E8 JUMP JUMPDEST DUP3 SSTORE POP POP POP POP JUMP JUMPDEST PUSH0 SWAP1 JUMP JUMPDEST PUSH2 0x179D PUSH2 0x1791 JUMP JUMPDEST PUSH2 0x17A8 DUP2 DUP5 DUP5 PUSH2 0x176C JUMP JUMPDEST POP POP POP JUMP JUMPDEST JUMPDEST DUP2 DUP2 LT ISZERO PUSH2 0x17CB JUMPI PUSH2 0x17C0 PUSH0 DUP3 PUSH2 0x1795 JUMP JUMPDEST PUSH1 0x1 DUP2 ADD SWAP1 POP PUSH2 0x17AE JUMP JUMPDEST POP POP JUMP JUMPDEST PUSH1 0x1F DUP3 GT ISZERO PUSH2 0x1810 JUMPI PUSH2 0x17E1 DUP2 PUSH2 0x16BB JUMP JUMPDEST PUSH2 0x17EA DUP5 PUSH2 0x16CD JUMP JUMPDEST DUP2 ADD PUSH1 0x20 DUP6 LT ISZERO PUSH2 0x17F9 JUMPI DUP2 SWAP1 POP JUMPDEST PUSH2 0x180D PUSH2 0x1805 DUP6 PUSH2 0x16CD JUMP JUMPDEST DUP4 ADD DUP3 PUSH2 0x17AD JUMP JUMPDEST POP POP JUMPDEST POP POP POP JUMP JUMPDEST PUSH0 DUP3 DUP3 SHR SWAP1 POP SWAP3 SWAP2 POP POP JUMP JUMPDEST PUSH0 PUSH2 0x1830 PUSH0 NOT DUP5 PUSH1 0x8 MUL PUSH2 0x1815 JUMP JUMPDEST NOT DUP1 DUP4 AND SWAP2 POP POP SWAP3 SWAP2 POP POP JUMP JUMPDEST PUSH0 PUSH2 0x1848 DUP4 DUP4 PUSH2 0x1821 JUMP JUMPDEST SWAP2 POP DUP3 PUSH1 0x2 MUL DUP3 OR SWAP1 POP SWAP3 SWAP2 POP POP JUMP JUMPDEST PUSH2 0x1861 DUP3 PUSH2 0x12C3 JUMP JUMPDEST PUSH8 0xFFFFFFFFFFFFFFFF DUP2 GT ISZERO PUSH2 0x187A JUMPI PUSH2 0x1879 PUSH2 0xFB5 JUMP JUMPDEST JUMPDEST PUSH2 0x1884 DUP3 SLOAD PUSH2 0x168B JUMP JUMPDEST PUSH2 0x188F DUP3 DUP3 DUP6 PUSH2 0x17CF JUMP JUMPDEST PUSH0 PUSH1 0x20 SWAP1 POP PUSH1 0x1F DUP4 GT PUSH1 0x1 DUP2 EQ PUSH2 0x18C0 JUMPI PUSH0 DUP5 ISZERO PUSH2 0x18AE JUMPI DUP3 DUP8 ADD MLOAD SWAP1 POP JUMPDEST PUSH2 0x18B8 DUP6 DUP3 PUSH2 0x183D JUMP JUMPDEST DUP7 SSTORE POP PUSH2 0x191F JUMP JUMPDEST PUSH1 0x1F NOT DUP5 AND PUSH2 0x18CE DUP7 PUSH2 0x16BB JUMP JUMPDEST PUSH0 JUMPDEST DUP3 DUP2 LT ISZERO PUSH2 0x18F5 JUMPI DUP5 DUP10 ADD MLOAD DUP3 SSTORE PUSH1 0x1 DUP3 ADD SWAP2 POP PUSH1 0x20 DUP6 ADD SWAP5 POP PUSH1 0x20 DUP2 ADD SWAP1 POP PUSH2 0x18D0 JUMP JUMPDEST DUP7 DUP4 LT ISZERO PUSH2 0x1912 JUMPI DUP5 DUP10 ADD MLOAD PUSH2 0x190E PUSH1 0x1F DUP10 AND DUP3 PUSH2 0x1821 JUMP JUMPDEST DUP4 SSTORE POP JUMPDEST PUSH1 0x1 PUSH1 0x2 DUP9 MUL ADD DUP9 SSTORE POP POP POP JUMPDEST POP POP POP POP POP POP JUMP JUMPDEST PUSH32 0x4E487B7100000000000000000000000000000000000000000000000000000000 PUSH0 MSTORE PUSH1 0x11 PUSH1 0x4 MSTORE PUSH1 0x24 PUSH0 REVERT JUMPDEST PUSH0 PUSH2 0x195E DUP3 PUSH2 0xF6E JUMP JUMPDEST SWAP2 POP PUSH32 0xFFFFFFFFFFFFFFFFFFFFFFFFFFFFFFFFFFFFFFFFFFFFFFFFFFFFFFFFFFFFFFFF DUP3 SUB PUSH2 0x1990 JUMPI PUSH2 0x198F PUSH2 0x1927 JUMP JUMPDEST JUMPDEST PUSH1 0x1 DUP3 ADD SWAP1 POP SWAP2 SWAP1 POP JUMP JUMPDEST PUSH32 0x5B4552524F525D20494420616C7761797320696E207573650000000000000000 PUSH0 DUP3 ADD MSTORE POP JUMP JUMPDEST PUSH0 PUSH2 0x19CF PUSH1 0x18 DUP4 PUSH2 0x14DB JUMP JUMPDEST SWAP2 POP PUSH2 0x19DA DUP3 PUSH2 0x199B JUMP JUMPDEST PUSH1 0x20 DUP3 ADD SWAP1 POP SWAP2 SWAP1 POP JUMP JUMPDEST PUSH0 PUSH1 0x20 DUP3 ADD SWAP1 POP DUP2 DUP2 SUB PUSH0 DUP4 ADD MSTORE PUSH2 0x19FC DUP2 PUSH2 0x19C3 JUMP JUMPDEST SWAP1 POP SWAP2 SWAP1 POP JUMP JUMPDEST PUSH0 DUP2 SLOAD PUSH2 0x1A0F DUP2 PUSH2 0x168B JUMP JUMPDEST PUSH2 0x1A19 DUP2 DUP7 PUSH2 0x160E JUMP JUMPDEST SWAP5 POP PUSH1 0x1 DUP3 AND PUSH0 DUP2 EQ PUSH2 0x1A33 JUMPI PUSH1 0x1 DUP2 EQ PUSH2 0x1A48 JUMPI PUSH2 0x1A7A JUMP JUMPDEST PUSH1 0xFF NOT DUP4 AND DUP7 MSTORE DUP2 ISZERO ISZERO DUP3 MUL DUP7 ADD SWAP4 POP PUSH2 0x1A7A JUMP JUMPDEST PUSH2 0x1A51 DUP6 PUSH2 0x16BB JUMP JUMPDEST PUSH0 JUMPDEST DUP4 DUP2 LT ISZERO PUSH2 0x1A72 JUMPI DUP2 SLOAD DUP2 DUP10 ADD MSTORE PUSH1 0x1 DUP3 ADD SWAP2 POP PUSH1 0x20 DUP2 ADD SWAP1 POP PUSH2 0x1A53 JUMP JUMPDEST DUP4 DUP9 ADD SWAP6 POP POP POP JUMPDEST POP POP POP SWAP3 SWAP2 POP POP JUMP JUMPDEST PUSH0 PUSH2 0x1A8E DUP3 DUP5 PUSH2 0x1A03 JUMP JUMPDEST SWAP2 POP DUP2 SWAP1 POP SWAP3 SWAP2 POP POP JUMP JUMPDEST PUSH0 PUSH2 0x1AA3 DUP3 PUSH2 0xF6E JUMP JUMPDEST SWAP2 POP PUSH2 0x1AAE DUP4 PUSH2 0xF6E JUMP JUMPDEST SWAP3 POP DUP3 DUP3 SUB SWAP1 POP DUP2 DUP2 GT ISZERO PUSH2 0x1AC6 JUMPI PUSH2 0x1AC5 PUSH2 0x1927 JUMP JUMPDEST JUMPDEST SWAP3 SWAP2 POP POP JUMP JUMPDEST PUSH0 PUSH2 0x1AD6 DUP3 PUSH2 0xF6E JUMP JUMPDEST SWAP2 POP PUSH2 0x1AE1 DUP4 PUSH2 0xF6E JUMP JUMPDEST SWAP3 POP DUP3 DUP3 ADD SWAP1 POP DUP1 DUP3 GT ISZERO PUSH2 0x1AF9 JUMPI PUSH2 0x1AF8 PUSH2 0x1927 JUMP JUMPDEST JUMPDEST SWAP3 SWAP2 POP POP JUMP JUMPDEST PUSH32 0x4E487B7100000000000000000000000000000000000000000000000000000000 PUSH0 MSTORE PUSH1 0x31 PUSH1 0x4 MSTORE PUSH1 0x24 PUSH0 REVERT INVALID LOG2 PUSH5 0x6970667358 0x22 SLT KECCAK256 0xA5 0xE4 0xF7 POP 0xE5 STATICCALL PUSH9 0xB721715A2F753D00C1 DUP6 0xDE SWAP4 MSTORE GT 0xC6 SWAP9 BLOCKHASH SUB 0xDA 0x4A SGT 0x24 TIMESTAMP SAR 0xB8 PUSH5 0x736F6C6343 STOP ADDMOD EQ STOP CALLER "
				},
				"gasEstimates": {
					"creation": {
						"codeDepositCost": "1402000",
						"executionCost": "25728",
						"totalCost": "1427728"
					},
					"external": {
						"addItemToAdress(uint256,string[],string[])": "infinite",
						"getAllItemsFromAddress()": "infinite",
						"getAmountOfItems()": "2527",
						"getAttributesOfItemByID(uint256)": "infinite",
						"removeItemFromAddress(uint256)": "infinite",
						"updateItemFromAddress(uint256,string[],string[])": "infinite"
					},
					"internal": {
						"removeItemFromArray(uint256)": "infinite"
					}
				},
				"methodIdentifiers": {
					"addItemToAdress(uint256,string[],string[])": "4f6e9de4",
					"getAllItemsFromAddress()": "f6ebbb76",
					"getAmountOfItems()": "40c8068d",
					"getAttributesOfItemByID(uint256)": "97ff7ae0",
					"removeItemFromAddress(uint256)": "ba54b7bf",
					"updateItemFromAddress(uint256,string[],string[])": "32636123"
				}
			},
			"storageLayout": {
				"storage": [
					{
						"astId": 3,
						"contract": "contracts/ItemOwnership.sol:ItemOwnership",
						"label": "owner",
						"offset": 0,
						"slot": "0",
						"type": "t_address"
					},
					{
						"astId": 32,
						"contract": "contracts/ItemOwnership.sol:ItemOwnership",
						"label": "itemDatabase",
						"offset": 0,
						"slot": "1",
						"type": "t_mapping(t_address,t_mapping(t_uint256,t_struct(Item)47_storage))"
					},
					{
						"astId": 37,
						"contract": "contracts/ItemOwnership.sol:ItemOwnership",
						"label": "itemIdList",
						"offset": 0,
						"slot": "2",
						"type": "t_mapping(t_address,t_array(t_uint256)dyn_storage)"
					}
				],
				"types": {
					"t_address": {
						"encoding": "inplace",
						"label": "address",
						"numberOfBytes": "20"
					},
					"t_array(t_string_storage)dyn_storage": {
						"base": "t_string_storage",
						"encoding": "dynamic_array",
						"label": "string[]",
						"numberOfBytes": "32"
					},
					"t_array(t_uint256)dyn_storage": {
						"base": "t_uint256",
						"encoding": "dynamic_array",
						"label": "uint256[]",
						"numberOfBytes": "32"
					},
					"t_mapping(t_address,t_array(t_uint256)dyn_storage)": {
						"encoding": "mapping",
						"key": "t_address",
						"label": "mapping(address => uint256[])",
						"numberOfBytes": "32",
						"value": "t_array(t_uint256)dyn_storage"
					},
					"t_mapping(t_address,t_mapping(t_uint256,t_struct(Item)47_storage))": {
						"encoding": "mapping",
						"key": "t_address",
						"label": "mapping(address => mapping(uint256 => struct ItemValidator.Item))",
						"numberOfBytes": "32",
						"value": "t_mapping(t_uint256,t_struct(Item)47_storage)"
					},
					"t_mapping(t_string_memory_ptr,t_string_storage)": {
						"encoding": "mapping",
						"key": "t_string_memory_ptr",
						"label": "mapping(string => string)",
						"numberOfBytes": "32",
						"value": "t_string_storage"
					},
					"t_mapping(t_uint256,t_struct(Item)47_storage)": {
						"encoding": "mapping",
						"key": "t_uint256",
						"label": "mapping(uint256 => struct ItemValidator.Item)",
						"numberOfBytes": "32",
						"value": "t_struct(Item)47_storage"
					},
					"t_string_memory_ptr": {
						"encoding": "bytes",
						"label": "string",
						"numberOfBytes": "32"
					},
					"t_string_storage": {
						"encoding": "bytes",
						"label": "string",
						"numberOfBytes": "32"
					},
					"t_struct(Item)47_storage": {
						"encoding": "inplace",
						"label": "struct ItemValidator.Item",
						"members": [
							{
								"astId": 39,
								"contract": "contracts/ItemOwnership.sol:ItemOwnership",
								"label": "owner",
								"offset": 0,
								"slot": "0",
								"type": "t_address"
							},
							{
								"astId": 43,
								"contract": "contracts/ItemOwnership.sol:ItemOwnership",
								"label": "attributes",
								"offset": 0,
								"slot": "1",
								"type": "t_mapping(t_string_memory_ptr,t_string_storage)"
							},
							{
								"astId": 46,
								"contract": "contracts/ItemOwnership.sol:ItemOwnership",
								"label": "attributeKeys",
								"offset": 0,
								"slot": "2",
								"type": "t_array(t_string_storage)dyn_storage"
							}
						],
						"numberOfBytes": "96"
					},
					"t_uint256": {
						"encoding": "inplace",
						"label": "uint256",
						"numberOfBytes": "32"
					}
				}
			},
			"userdoc": {
				"kind": "user",
				"methods": {},
				"version": 1
			}
		}
	}
}