{
	"data": {
		"bytecode": {
			"linkReferences": {},
			"object": "608060405234801561000f575f80fd5b50335f806101000a81548173ffffffffffffffffffffffffffffffffffffffff021916908373ffffffffffffffffffffffffffffffffffffffff160217905550610efd8061005c5f395ff3fe608060405234801561000f575f80fd5b5060043610610034575f3560e01c80634f6e9de41461003857806397ff7ae014610054575b5f80fd5b610052600480360381019061004d91906107bc565b610085565b005b61006e60048036038101906100699190610844565b6101f9565b60405161007c9291906109a4565b60405180910390f35b5f60015f3373ffffffffffffffffffffffffffffffffffffffff1673ffffffffffffffffffffffffffffffffffffffff1681526020019081526020015f205f8581526020019081526020015f20905033815f015f6101000a81548173ffffffffffffffffffffffffffffffffffffffff021916908373ffffffffffffffffffffffffffffffffffffffff1602179055508151835114610159576040517f08c379a000000000000000000000000000000000000000000000000000000000815260040161015090610a59565b60405180910390fd5b5f5b83518110156101d95782818151811061017757610176610a77565b5b60200260200101518260010185838151811061019657610195610a77565b5b60200260200101516040516101ab9190610ade565b908152602001604051809103902090816101c59190610cee565b5080806101d190610dea565b91505061015b565b50828160020190805190602001906101f2929190610488565b5050505050565b6060805f60015f3373ffffffffffffffffffffffffffffffffffffffff1673ffffffffffffffffffffffffffffffffffffffff1681526020019081526020015f205f8581526020019081526020015f2090505f816002018054905067ffffffffffffffff81111561026d5761026c6105b2565b5b6040519080825280602002602001820160405280156102a057816020015b606081526020019060019003908161028b5790505b5090505f5b82600201805490508110156103a957826001018360020182815481106102ce576102cd610a77565b5b905f5260205f20016040516102e39190610eb1565b908152602001604051809103902080546102fc90610b21565b80601f016020809104026020016040519081016040528092919081815260200182805461032890610b21565b80156103735780601f1061034a57610100808354040283529160200191610373565b820191905f5260205f20905b81548152906001019060200180831161035657829003601f168201915b505050505082828151811061038b5761038a610a77565b5b602002602001018190525080806103a190610dea565b9150506102a5565b50816002018181805480602002602001604051908101604052809291908181526020015f905b82821015610477578382905f5260205f200180546103ec90610b21565b80601f016020809104026020016040519081016040528092919081815260200182805461041890610b21565b80156104635780601f1061043a57610100808354040283529160200191610463565b820191905f5260205f20905b81548152906001019060200180831161044657829003601f168201915b5050505050815260200190600101906103cf565b505050509150935093505050915091565b828054828255905f5260205f209081019282156104ce579160200282015b828111156104cd5782518290816104bd9190610cee565b50916020019190600101906104a6565b5b5090506104db91906104df565b5090565b5b808211156104fe575f81816104f59190610502565b506001016104e0565b5090565b50805461050e90610b21565b5f825580601f1061051f575061053c565b601f0160209004905f5260205f209081019061053b919061053f565b5b50565b5b80821115610556575f815f905550600101610540565b5090565b5f604051905090565b5f80fd5b5f80fd5b5f819050919050565b61057d8161056b565b8114610587575f80fd5b50565b5f8135905061059881610574565b92915050565b5f80fd5b5f601f19601f8301169050919050565b7f4e487b71000000000000000000000000000000000000000000000000000000005f52604160045260245ffd5b6105e8826105a2565b810181811067ffffffffffffffff82111715610607576106066105b2565b5b80604052505050565b5f61061961055a565b905061062582826105df565b919050565b5f67ffffffffffffffff821115610644576106436105b2565b5b602082029050602081019050919050565b5f80fd5b5f80fd5b5f67ffffffffffffffff821115610677576106766105b2565b5b610680826105a2565b9050602081019050919050565b828183375f83830152505050565b5f6106ad6106a88461065d565b610610565b9050828152602081018484840111156106c9576106c8610659565b5b6106d484828561068d565b509392505050565b5f82601f8301126106f0576106ef61059e565b5b813561070084826020860161069b565b91505092915050565b5f61071b6107168461062a565b610610565b9050808382526020820190506020840283018581111561073e5761073d610655565b5b835b8181101561078557803567ffffffffffffffff8111156107635761076261059e565b5b80860161077089826106dc565b85526020850194505050602081019050610740565b5050509392505050565b5f82601f8301126107a3576107a261059e565b5b81356107b3848260208601610709565b91505092915050565b5f805f606084860312156107d3576107d2610563565b5b5f6107e08682870161058a565b935050602084013567ffffffffffffffff81111561080157610800610567565b5b61080d8682870161078f565b925050604084013567ffffffffffffffff81111561082e5761082d610567565b5b61083a8682870161078f565b9150509250925092565b5f6020828403121561085957610858610563565b5b5f6108668482850161058a565b91505092915050565b5f81519050919050565b5f82825260208201905092915050565b5f819050602082019050919050565b5f81519050919050565b5f82825260208201905092915050565b5f5b838110156108cf5780820151818401526020810190506108b4565b5f8484015250505050565b5f6108e482610898565b6108ee81856108a2565b93506108fe8185602086016108b2565b610907816105a2565b840191505092915050565b5f61091d83836108da565b905092915050565b5f602082019050919050565b5f61093b8261086f565b6109458185610879565b93508360208202850161095785610889565b805f5b8581101561099257848403895281516109738582610912565b945061097e83610925565b925060208a0199505060018101905061095a565b50829750879550505050505092915050565b5f6040820190508181035f8301526109bc8185610931565b905081810360208301526109d08184610931565b90509392505050565b5f82825260208201905092915050565b7f5b4552524f525d20546865206c656e677468206f6620746865206b65797320615f8201527f6e642076616c75657320617265206e6f746520657175616c0000000000000000602082015250565b5f610a436038836109d9565b9150610a4e826109e9565b604082019050919050565b5f6020820190508181035f830152610a7081610a37565b9050919050565b7f4e487b71000000000000000000000000000000000000000000000000000000005f52603260045260245ffd5b5f81905092915050565b5f610ab882610898565b610ac28185610aa4565b9350610ad28185602086016108b2565b80840191505092915050565b5f610ae98284610aae565b915081905092915050565b7f4e487b71000000000000000000000000000000000000000000000000000000005f52602260045260245ffd5b5f6002820490506001821680610b3857607f821691505b602082108103610b4b57610b4a610af4565b5b50919050565b5f819050815f5260205f209050919050565b5f6020601f8301049050919050565b5f82821b905092915050565b5f60088302610bad7fffffffffffffffffffffffffffffffffffffffffffffffffffffffffffffffff82610b72565b610bb78683610b72565b95508019841693508086168417925050509392505050565b5f819050919050565b5f610bf2610bed610be88461056b565b610bcf565b61056b565b9050919050565b5f819050919050565b610c0b83610bd8565b610c1f610c1782610bf9565b848454610b7e565b825550505050565b5f90565b610c33610c27565b610c3e818484610c02565b505050565b5b81811015610c6157610c565f82610c2b565b600181019050610c44565b5050565b601f821115610ca657610c7781610b51565b610c8084610b63565b81016020851015610c8f578190505b610ca3610c9b85610b63565b830182610c43565b50505b505050565b5f82821c905092915050565b5f610cc65f1984600802610cab565b1980831691505092915050565b5f610cde8383610cb7565b9150826002028217905092915050565b610cf782610898565b67ffffffffffffffff811115610d1057610d0f6105b2565b5b610d1a8254610b21565b610d25828285610c65565b5f60209050601f831160018114610d56575f8415610d44578287015190505b610d4e8582610cd3565b865550610db5565b601f198416610d6486610b51565b5f5b82811015610d8b57848901518255600182019150602085019450602081019050610d66565b86831015610da85784890151610da4601f891682610cb7565b8355505b6001600288020188555050505b505050505050565b7f4e487b71000000000000000000000000000000000000000000000000000000005f52601160045260245ffd5b5f610df48261056b565b91507fffffffffffffffffffffffffffffffffffffffffffffffffffffffffffffffff8203610e2657610e25610dbd565b5b600182019050919050565b5f8154610e3d81610b21565b610e478186610aa4565b9450600182165f8114610e615760018114610e7657610ea8565b60ff1983168652811515820286019350610ea8565b610e7f85610b51565b5f5b83811015610ea057815481890152600182019150602081019050610e81565b838801955050505b50505092915050565b5f610ebc8284610e31565b91508190509291505056fea26469706673582212206e432b419cff370cc8e6bcfa261485c7684490fb5f052c8b80b2cf07b98108b264736f6c63430008140033",
			"opcodes": "PUSH1 0x80 PUSH1 0x40 MSTORE CALLVALUE DUP1 ISZERO PUSH2 0xF JUMPI PUSH0 DUP1 REVERT JUMPDEST POP CALLER PUSH0 DUP1 PUSH2 0x100 EXP DUP2 SLOAD DUP2 PUSH20 0xFFFFFFFFFFFFFFFFFFFFFFFFFFFFFFFFFFFFFFFF MUL NOT AND SWAP1 DUP4 PUSH20 0xFFFFFFFFFFFFFFFFFFFFFFFFFFFFFFFFFFFFFFFF AND MUL OR SWAP1 SSTORE POP PUSH2 0xEFD DUP1 PUSH2 0x5C PUSH0 CODECOPY PUSH0 RETURN INVALID PUSH1 0x80 PUSH1 0x40 MSTORE CALLVALUE DUP1 ISZERO PUSH2 0xF JUMPI PUSH0 DUP1 REVERT JUMPDEST POP PUSH1 0x4 CALLDATASIZE LT PUSH2 0x34 JUMPI PUSH0 CALLDATALOAD PUSH1 0xE0 SHR DUP1 PUSH4 0x4F6E9DE4 EQ PUSH2 0x38 JUMPI DUP1 PUSH4 0x97FF7AE0 EQ PUSH2 0x54 JUMPI JUMPDEST PUSH0 DUP1 REVERT JUMPDEST PUSH2 0x52 PUSH1 0x4 DUP1 CALLDATASIZE SUB DUP2 ADD SWAP1 PUSH2 0x4D SWAP2 SWAP1 PUSH2 0x7BC JUMP JUMPDEST PUSH2 0x85 JUMP JUMPDEST STOP JUMPDEST PUSH2 0x6E PUSH1 0x4 DUP1 CALLDATASIZE SUB DUP2 ADD SWAP1 PUSH2 0x69 SWAP2 SWAP1 PUSH2 0x844 JUMP JUMPDEST PUSH2 0x1F9 JUMP JUMPDEST PUSH1 0x40 MLOAD PUSH2 0x7C SWAP3 SWAP2 SWAP1 PUSH2 0x9A4 JUMP JUMPDEST PUSH1 0x40 MLOAD DUP1 SWAP2 SUB SWAP1 RETURN JUMPDEST PUSH0 PUSH1 0x1 PUSH0 CALLER PUSH20 0xFFFFFFFFFFFFFFFFFFFFFFFFFFFFFFFFFFFFFFFF AND PUSH20 0xFFFFFFFFFFFFFFFFFFFFFFFFFFFFFFFFFFFFFFFF AND DUP2 MSTORE PUSH1 0x20 ADD SWAP1 DUP2 MSTORE PUSH1 0x20 ADD PUSH0 KECCAK256 PUSH0 DUP6 DUP2 MSTORE PUSH1 0x20 ADD SWAP1 DUP2 MSTORE PUSH1 0x20 ADD PUSH0 KECCAK256 SWAP1 POP CALLER DUP2 PUSH0 ADD PUSH0 PUSH2 0x100 EXP DUP2 SLOAD DUP2 PUSH20 0xFFFFFFFFFFFFFFFFFFFFFFFFFFFFFFFFFFFFFFFF MUL NOT AND SWAP1 DUP4 PUSH20 0xFFFFFFFFFFFFFFFFFFFFFFFFFFFFFFFFFFFFFFFF AND MUL OR SWAP1 SSTORE POP DUP2 MLOAD DUP4 MLOAD EQ PUSH2 0x159 JUMPI PUSH1 0x40 MLOAD PUSH32 0x8C379A000000000000000000000000000000000000000000000000000000000 DUP2 MSTORE PUSH1 0x4 ADD PUSH2 0x150 SWAP1 PUSH2 0xA59 JUMP JUMPDEST PUSH1 0x40 MLOAD DUP1 SWAP2 SUB SWAP1 REVERT JUMPDEST PUSH0 JUMPDEST DUP4 MLOAD DUP2 LT ISZERO PUSH2 0x1D9 JUMPI DUP3 DUP2 DUP2 MLOAD DUP2 LT PUSH2 0x177 JUMPI PUSH2 0x176 PUSH2 0xA77 JUMP JUMPDEST JUMPDEST PUSH1 0x20 MUL PUSH1 0x20 ADD ADD MLOAD DUP3 PUSH1 0x1 ADD DUP6 DUP4 DUP2 MLOAD DUP2 LT PUSH2 0x196 JUMPI PUSH2 0x195 PUSH2 0xA77 JUMP JUMPDEST JUMPDEST PUSH1 0x20 MUL PUSH1 0x20 ADD ADD MLOAD PUSH1 0x40 MLOAD PUSH2 0x1AB SWAP2 SWAP1 PUSH2 0xADE JUMP JUMPDEST SWAP1 DUP2 MSTORE PUSH1 0x20 ADD PUSH1 0x40 MLOAD DUP1 SWAP2 SUB SWAP1 KECCAK256 SWAP1 DUP2 PUSH2 0x1C5 SWAP2 SWAP1 PUSH2 0xCEE JUMP JUMPDEST POP DUP1 DUP1 PUSH2 0x1D1 SWAP1 PUSH2 0xDEA JUMP JUMPDEST SWAP2 POP POP PUSH2 0x15B JUMP JUMPDEST POP DUP3 DUP2 PUSH1 0x2 ADD SWAP1 DUP1 MLOAD SWAP1 PUSH1 0x20 ADD SWAP1 PUSH2 0x1F2 SWAP3 SWAP2 SWAP1 PUSH2 0x488 JUMP JUMPDEST POP POP POP POP POP JUMP JUMPDEST PUSH1 0x60 DUP1 PUSH0 PUSH1 0x1 PUSH0 CALLER PUSH20 0xFFFFFFFFFFFFFFFFFFFFFFFFFFFFFFFFFFFFFFFF AND PUSH20 0xFFFFFFFFFFFFFFFFFFFFFFFFFFFFFFFFFFFFFFFF AND DUP2 MSTORE PUSH1 0x20 ADD SWAP1 DUP2 MSTORE PUSH1 0x20 ADD PUSH0 KECCAK256 PUSH0 DUP6 DUP2 MSTORE PUSH1 0x20 ADD SWAP1 DUP2 MSTORE PUSH1 0x20 ADD PUSH0 KECCAK256 SWAP1 POP PUSH0 DUP2 PUSH1 0x2 ADD DUP1 SLOAD SWAP1 POP PUSH8 0xFFFFFFFFFFFFFFFF DUP2 GT ISZERO PUSH2 0x26D JUMPI PUSH2 0x26C PUSH2 0x5B2 JUMP JUMPDEST JUMPDEST PUSH1 0x40 MLOAD SWAP1 DUP1 DUP3 MSTORE DUP1 PUSH1 0x20 MUL PUSH1 0x20 ADD DUP3 ADD PUSH1 0x40 MSTORE DUP1 ISZERO PUSH2 0x2A0 JUMPI DUP2 PUSH1 0x20 ADD JUMPDEST PUSH1 0x60 DUP2 MSTORE PUSH1 0x20 ADD SWAP1 PUSH1 0x1 SWAP1 SUB SWAP1 DUP2 PUSH2 0x28B JUMPI SWAP1 POP JUMPDEST POP SWAP1 POP PUSH0 JUMPDEST DUP3 PUSH1 0x2 ADD DUP1 SLOAD SWAP1 POP DUP2 LT ISZERO PUSH2 0x3A9 JUMPI DUP3 PUSH1 0x1 ADD DUP4 PUSH1 0x2 ADD DUP3 DUP2 SLOAD DUP2 LT PUSH2 0x2CE JUMPI PUSH2 0x2CD PUSH2 0xA77 JUMP JUMPDEST JUMPDEST SWAP1 PUSH0 MSTORE PUSH1 0x20 PUSH0 KECCAK256 ADD PUSH1 0x40 MLOAD PUSH2 0x2E3 SWAP2 SWAP1 PUSH2 0xEB1 JUMP JUMPDEST SWAP1 DUP2 MSTORE PUSH1 0x20 ADD PUSH1 0x40 MLOAD DUP1 SWAP2 SUB SWAP1 KECCAK256 DUP1 SLOAD PUSH2 0x2FC SWAP1 PUSH2 0xB21 JUMP JUMPDEST DUP1 PUSH1 0x1F ADD PUSH1 0x20 DUP1 SWAP2 DIV MUL PUSH1 0x20 ADD PUSH1 0x40 MLOAD SWAP1 DUP2 ADD PUSH1 0x40 MSTORE DUP1 SWAP3 SWAP2 SWAP1 DUP2 DUP2 MSTORE PUSH1 0x20 ADD DUP3 DUP1 SLOAD PUSH2 0x328 SWAP1 PUSH2 0xB21 JUMP JUMPDEST DUP1 ISZERO PUSH2 0x373 JUMPI DUP1 PUSH1 0x1F LT PUSH2 0x34A JUMPI PUSH2 0x100 DUP1 DUP4 SLOAD DIV MUL DUP4 MSTORE SWAP2 PUSH1 0x20 ADD SWAP2 PUSH2 0x373 JUMP JUMPDEST DUP3 ADD SWAP2 SWAP1 PUSH0 MSTORE PUSH1 0x20 PUSH0 KECCAK256 SWAP1 JUMPDEST DUP2 SLOAD DUP2 MSTORE SWAP1 PUSH1 0x1 ADD SWAP1 PUSH1 0x20 ADD DUP1 DUP4 GT PUSH2 0x356 JUMPI DUP3 SWAP1 SUB PUSH1 0x1F AND DUP3 ADD SWAP2 JUMPDEST POP POP POP POP POP DUP3 DUP3 DUP2 MLOAD DUP2 LT PUSH2 0x38B JUMPI PUSH2 0x38A PUSH2 0xA77 JUMP JUMPDEST JUMPDEST PUSH1 0x20 MUL PUSH1 0x20 ADD ADD DUP2 SWAP1 MSTORE POP DUP1 DUP1 PUSH2 0x3A1 SWAP1 PUSH2 0xDEA JUMP JUMPDEST SWAP2 POP POP PUSH2 0x2A5 JUMP JUMPDEST POP DUP2 PUSH1 0x2 ADD DUP2 DUP2 DUP1 SLOAD DUP1 PUSH1 0x20 MUL PUSH1 0x20 ADD PUSH1 0x40 MLOAD SWAP1 DUP2 ADD PUSH1 0x40 MSTORE DUP1 SWAP3 SWAP2 SWAP1 DUP2 DUP2 MSTORE PUSH1 0x20 ADD PUSH0 SWAP1 JUMPDEST DUP3 DUP3 LT ISZERO PUSH2 0x477 JUMPI DUP4 DUP3 SWAP1 PUSH0 MSTORE PUSH1 0x20 PUSH0 KECCAK256 ADD DUP1 SLOAD PUSH2 0x3EC SWAP1 PUSH2 0xB21 JUMP JUMPDEST DUP1 PUSH1 0x1F ADD PUSH1 0x20 DUP1 SWAP2 DIV MUL PUSH1 0x20 ADD PUSH1 0x40 MLOAD SWAP1 DUP2 ADD PUSH1 0x40 MSTORE DUP1 SWAP3 SWAP2 SWAP1 DUP2 DUP2 MSTORE PUSH1 0x20 ADD DUP3 DUP1 SLOAD PUSH2 0x418 SWAP1 PUSH2 0xB21 JUMP JUMPDEST DUP1 ISZERO PUSH2 0x463 JUMPI DUP1 PUSH1 0x1F LT PUSH2 0x43A JUMPI PUSH2 0x100 DUP1 DUP4 SLOAD DIV MUL DUP4 MSTORE SWAP2 PUSH1 0x20 ADD SWAP2 PUSH2 0x463 JUMP JUMPDEST DUP3 ADD SWAP2 SWAP1 PUSH0 MSTORE PUSH1 0x20 PUSH0 KECCAK256 SWAP1 JUMPDEST DUP2 SLOAD DUP2 MSTORE SWAP1 PUSH1 0x1 ADD SWAP1 PUSH1 0x20 ADD DUP1 DUP4 GT PUSH2 0x446 JUMPI DUP3 SWAP1 SUB PUSH1 0x1F AND DUP3 ADD SWAP2 JUMPDEST POP POP POP POP POP DUP2 MSTORE PUSH1 0x20 ADD SWAP1 PUSH1 0x1 ADD SWAP1 PUSH2 0x3CF JUMP JUMPDEST POP POP POP POP SWAP2 POP SWAP4 POP SWAP4 POP POP POP SWAP2 POP SWAP2 JUMP JUMPDEST DUP3 DUP1 SLOAD DUP3 DUP3 SSTORE SWAP1 PUSH0 MSTORE PUSH1 0x20 PUSH0 KECCAK256 SWAP1 DUP2 ADD SWAP3 DUP3 ISZERO PUSH2 0x4CE JUMPI SWAP2 PUSH1 0x20 MUL DUP3 ADD JUMPDEST DUP3 DUP2 GT ISZERO PUSH2 0x4CD JUMPI DUP3 MLOAD DUP3 SWAP1 DUP2 PUSH2 0x4BD SWAP2 SWAP1 PUSH2 0xCEE JUMP JUMPDEST POP SWAP2 PUSH1 0x20 ADD SWAP2 SWAP1 PUSH1 0x1 ADD SWAP1 PUSH2 0x4A6 JUMP JUMPDEST JUMPDEST POP SWAP1 POP PUSH2 0x4DB SWAP2 SWAP1 PUSH2 0x4DF JUMP JUMPDEST POP SWAP1 JUMP JUMPDEST JUMPDEST DUP1 DUP3 GT ISZERO PUSH2 0x4FE JUMPI PUSH0 DUP2 DUP2 PUSH2 0x4F5 SWAP2 SWAP1 PUSH2 0x502 JUMP JUMPDEST POP PUSH1 0x1 ADD PUSH2 0x4E0 JUMP JUMPDEST POP SWAP1 JUMP JUMPDEST POP DUP1 SLOAD PUSH2 0x50E SWAP1 PUSH2 0xB21 JUMP JUMPDEST PUSH0 DUP3 SSTORE DUP1 PUSH1 0x1F LT PUSH2 0x51F JUMPI POP PUSH2 0x53C JUMP JUMPDEST PUSH1 0x1F ADD PUSH1 0x20 SWAP1 DIV SWAP1 PUSH0 MSTORE PUSH1 0x20 PUSH0 KECCAK256 SWAP1 DUP2 ADD SWAP1 PUSH2 0x53B SWAP2 SWAP1 PUSH2 0x53F JUMP JUMPDEST JUMPDEST POP JUMP JUMPDEST JUMPDEST DUP1 DUP3 GT ISZERO PUSH2 0x556 JUMPI PUSH0 DUP2 PUSH0 SWAP1 SSTORE POP PUSH1 0x1 ADD PUSH2 0x540 JUMP JUMPDEST POP SWAP1 JUMP JUMPDEST PUSH0 PUSH1 0x40 MLOAD SWAP1 POP SWAP1 JUMP JUMPDEST PUSH0 DUP1 REVERT JUMPDEST PUSH0 DUP1 REVERT JUMPDEST PUSH0 DUP2 SWAP1 POP SWAP2 SWAP1 POP JUMP JUMPDEST PUSH2 0x57D DUP2 PUSH2 0x56B JUMP JUMPDEST DUP2 EQ PUSH2 0x587 JUMPI PUSH0 DUP1 REVERT JUMPDEST POP JUMP JUMPDEST PUSH0 DUP2 CALLDATALOAD SWAP1 POP PUSH2 0x598 DUP2 PUSH2 0x574 JUMP JUMPDEST SWAP3 SWAP2 POP POP JUMP JUMPDEST PUSH0 DUP1 REVERT JUMPDEST PUSH0 PUSH1 0x1F NOT PUSH1 0x1F DUP4 ADD AND SWAP1 POP SWAP2 SWAP1 POP JUMP JUMPDEST PUSH32 0x4E487B7100000000000000000000000000000000000000000000000000000000 PUSH0 MSTORE PUSH1 0x41 PUSH1 0x4 MSTORE PUSH1 0x24 PUSH0 REVERT JUMPDEST PUSH2 0x5E8 DUP3 PUSH2 0x5A2 JUMP JUMPDEST DUP2 ADD DUP2 DUP2 LT PUSH8 0xFFFFFFFFFFFFFFFF DUP3 GT OR ISZERO PUSH2 0x607 JUMPI PUSH2 0x606 PUSH2 0x5B2 JUMP JUMPDEST JUMPDEST DUP1 PUSH1 0x40 MSTORE POP POP POP JUMP JUMPDEST PUSH0 PUSH2 0x619 PUSH2 0x55A JUMP JUMPDEST SWAP1 POP PUSH2 0x625 DUP3 DUP3 PUSH2 0x5DF JUMP JUMPDEST SWAP2 SWAP1 POP JUMP JUMPDEST PUSH0 PUSH8 0xFFFFFFFFFFFFFFFF DUP3 GT ISZERO PUSH2 0x644 JUMPI PUSH2 0x643 PUSH2 0x5B2 JUMP JUMPDEST JUMPDEST PUSH1 0x20 DUP3 MUL SWAP1 POP PUSH1 0x20 DUP2 ADD SWAP1 POP SWAP2 SWAP1 POP JUMP JUMPDEST PUSH0 DUP1 REVERT JUMPDEST PUSH0 DUP1 REVERT JUMPDEST PUSH0 PUSH8 0xFFFFFFFFFFFFFFFF DUP3 GT ISZERO PUSH2 0x677 JUMPI PUSH2 0x676 PUSH2 0x5B2 JUMP JUMPDEST JUMPDEST PUSH2 0x680 DUP3 PUSH2 0x5A2 JUMP JUMPDEST SWAP1 POP PUSH1 0x20 DUP2 ADD SWAP1 POP SWAP2 SWAP1 POP JUMP JUMPDEST DUP3 DUP2 DUP4 CALLDATACOPY PUSH0 DUP4 DUP4 ADD MSTORE POP POP POP JUMP JUMPDEST PUSH0 PUSH2 0x6AD PUSH2 0x6A8 DUP5 PUSH2 0x65D JUMP JUMPDEST PUSH2 0x610 JUMP JUMPDEST SWAP1 POP DUP3 DUP2 MSTORE PUSH1 0x20 DUP2 ADD DUP5 DUP5 DUP5 ADD GT ISZERO PUSH2 0x6C9 JUMPI PUSH2 0x6C8 PUSH2 0x659 JUMP JUMPDEST JUMPDEST PUSH2 0x6D4 DUP5 DUP3 DUP6 PUSH2 0x68D JUMP JUMPDEST POP SWAP4 SWAP3 POP POP POP JUMP JUMPDEST PUSH0 DUP3 PUSH1 0x1F DUP4 ADD SLT PUSH2 0x6F0 JUMPI PUSH2 0x6EF PUSH2 0x59E JUMP JUMPDEST JUMPDEST DUP2 CALLDATALOAD PUSH2 0x700 DUP5 DUP3 PUSH1 0x20 DUP7 ADD PUSH2 0x69B JUMP JUMPDEST SWAP2 POP POP SWAP3 SWAP2 POP POP JUMP JUMPDEST PUSH0 PUSH2 0x71B PUSH2 0x716 DUP5 PUSH2 0x62A JUMP JUMPDEST PUSH2 0x610 JUMP JUMPDEST SWAP1 POP DUP1 DUP4 DUP3 MSTORE PUSH1 0x20 DUP3 ADD SWAP1 POP PUSH1 0x20 DUP5 MUL DUP4 ADD DUP6 DUP2 GT ISZERO PUSH2 0x73E JUMPI PUSH2 0x73D PUSH2 0x655 JUMP JUMPDEST JUMPDEST DUP4 JUMPDEST DUP2 DUP2 LT ISZERO PUSH2 0x785 JUMPI DUP1 CALLDATALOAD PUSH8 0xFFFFFFFFFFFFFFFF DUP2 GT ISZERO PUSH2 0x763 JUMPI PUSH2 0x762 PUSH2 0x59E JUMP JUMPDEST JUMPDEST DUP1 DUP7 ADD PUSH2 0x770 DUP10 DUP3 PUSH2 0x6DC JUMP JUMPDEST DUP6 MSTORE PUSH1 0x20 DUP6 ADD SWAP5 POP POP POP PUSH1 0x20 DUP2 ADD SWAP1 POP PUSH2 0x740 JUMP JUMPDEST POP POP POP SWAP4 SWAP3 POP POP POP JUMP JUMPDEST PUSH0 DUP3 PUSH1 0x1F DUP4 ADD SLT PUSH2 0x7A3 JUMPI PUSH2 0x7A2 PUSH2 0x59E JUMP JUMPDEST JUMPDEST DUP2 CALLDATALOAD PUSH2 0x7B3 DUP5 DUP3 PUSH1 0x20 DUP7 ADD PUSH2 0x709 JUMP JUMPDEST SWAP2 POP POP SWAP3 SWAP2 POP POP JUMP JUMPDEST PUSH0 DUP1 PUSH0 PUSH1 0x60 DUP5 DUP7 SUB SLT ISZERO PUSH2 0x7D3 JUMPI PUSH2 0x7D2 PUSH2 0x563 JUMP JUMPDEST JUMPDEST PUSH0 PUSH2 0x7E0 DUP7 DUP3 DUP8 ADD PUSH2 0x58A JUMP JUMPDEST SWAP4 POP POP PUSH1 0x20 DUP5 ADD CALLDATALOAD PUSH8 0xFFFFFFFFFFFFFFFF DUP2 GT ISZERO PUSH2 0x801 JUMPI PUSH2 0x800 PUSH2 0x567 JUMP JUMPDEST JUMPDEST PUSH2 0x80D DUP7 DUP3 DUP8 ADD PUSH2 0x78F JUMP JUMPDEST SWAP3 POP POP PUSH1 0x40 DUP5 ADD CALLDATALOAD PUSH8 0xFFFFFFFFFFFFFFFF DUP2 GT ISZERO PUSH2 0x82E JUMPI PUSH2 0x82D PUSH2 0x567 JUMP JUMPDEST JUMPDEST PUSH2 0x83A DUP7 DUP3 DUP8 ADD PUSH2 0x78F JUMP JUMPDEST SWAP2 POP POP SWAP3 POP SWAP3 POP SWAP3 JUMP JUMPDEST PUSH0 PUSH1 0x20 DUP3 DUP5 SUB SLT ISZERO PUSH2 0x859 JUMPI PUSH2 0x858 PUSH2 0x563 JUMP JUMPDEST JUMPDEST PUSH0 PUSH2 0x866 DUP5 DUP3 DUP6 ADD PUSH2 0x58A JUMP JUMPDEST SWAP2 POP POP SWAP3 SWAP2 POP POP JUMP JUMPDEST PUSH0 DUP2 MLOAD SWAP1 POP SWAP2 SWAP1 POP JUMP JUMPDEST PUSH0 DUP3 DUP3 MSTORE PUSH1 0x20 DUP3 ADD SWAP1 POP SWAP3 SWAP2 POP POP JUMP JUMPDEST PUSH0 DUP2 SWAP1 POP PUSH1 0x20 DUP3 ADD SWAP1 POP SWAP2 SWAP1 POP JUMP JUMPDEST PUSH0 DUP2 MLOAD SWAP1 POP SWAP2 SWAP1 POP JUMP JUMPDEST PUSH0 DUP3 DUP3 MSTORE PUSH1 0x20 DUP3 ADD SWAP1 POP SWAP3 SWAP2 POP POP JUMP JUMPDEST PUSH0 JUMPDEST DUP4 DUP2 LT ISZERO PUSH2 0x8CF JUMPI DUP1 DUP3 ADD MLOAD DUP2 DUP5 ADD MSTORE PUSH1 0x20 DUP2 ADD SWAP1 POP PUSH2 0x8B4 JUMP JUMPDEST PUSH0 DUP5 DUP5 ADD MSTORE POP POP POP POP JUMP JUMPDEST PUSH0 PUSH2 0x8E4 DUP3 PUSH2 0x898 JUMP JUMPDEST PUSH2 0x8EE DUP2 DUP6 PUSH2 0x8A2 JUMP JUMPDEST SWAP4 POP PUSH2 0x8FE DUP2 DUP6 PUSH1 0x20 DUP7 ADD PUSH2 0x8B2 JUMP JUMPDEST PUSH2 0x907 DUP2 PUSH2 0x5A2 JUMP JUMPDEST DUP5 ADD SWAP2 POP POP SWAP3 SWAP2 POP POP JUMP JUMPDEST PUSH0 PUSH2 0x91D DUP4 DUP4 PUSH2 0x8DA JUMP JUMPDEST SWAP1 POP SWAP3 SWAP2 POP POP JUMP JUMPDEST PUSH0 PUSH1 0x20 DUP3 ADD SWAP1 POP SWAP2 SWAP1 POP JUMP JUMPDEST PUSH0 PUSH2 0x93B DUP3 PUSH2 0x86F JUMP JUMPDEST PUSH2 0x945 DUP2 DUP6 PUSH2 0x879 JUMP JUMPDEST SWAP4 POP DUP4 PUSH1 0x20 DUP3 MUL DUP6 ADD PUSH2 0x957 DUP6 PUSH2 0x889 JUMP JUMPDEST DUP1 PUSH0 JUMPDEST DUP6 DUP2 LT ISZERO PUSH2 0x992 JUMPI DUP5 DUP5 SUB DUP10 MSTORE DUP2 MLOAD PUSH2 0x973 DUP6 DUP3 PUSH2 0x912 JUMP JUMPDEST SWAP5 POP PUSH2 0x97E DUP4 PUSH2 0x925 JUMP JUMPDEST SWAP3 POP PUSH1 0x20 DUP11 ADD SWAP10 POP POP PUSH1 0x1 DUP2 ADD SWAP1 POP PUSH2 0x95A JUMP JUMPDEST POP DUP3 SWAP8 POP DUP8 SWAP6 POP POP POP POP POP POP SWAP3 SWAP2 POP POP JUMP JUMPDEST PUSH0 PUSH1 0x40 DUP3 ADD SWAP1 POP DUP2 DUP2 SUB PUSH0 DUP4 ADD MSTORE PUSH2 0x9BC DUP2 DUP6 PUSH2 0x931 JUMP JUMPDEST SWAP1 POP DUP2 DUP2 SUB PUSH1 0x20 DUP4 ADD MSTORE PUSH2 0x9D0 DUP2 DUP5 PUSH2 0x931 JUMP JUMPDEST SWAP1 POP SWAP4 SWAP3 POP POP POP JUMP JUMPDEST PUSH0 DUP3 DUP3 MSTORE PUSH1 0x20 DUP3 ADD SWAP1 POP SWAP3 SWAP2 POP POP JUMP JUMPDEST PUSH32 0x5B4552524F525D20546865206C656E677468206F6620746865206B6579732061 PUSH0 DUP3 ADD MSTORE PUSH32 0x6E642076616C75657320617265206E6F746520657175616C0000000000000000 PUSH1 0x20 DUP3 ADD MSTORE POP JUMP JUMPDEST PUSH0 PUSH2 0xA43 PUSH1 0x38 DUP4 PUSH2 0x9D9 JUMP JUMPDEST SWAP2 POP PUSH2 0xA4E DUP3 PUSH2 0x9E9 JUMP JUMPDEST PUSH1 0x40 DUP3 ADD SWAP1 POP SWAP2 SWAP1 POP JUMP JUMPDEST PUSH0 PUSH1 0x20 DUP3 ADD SWAP1 POP DUP2 DUP2 SUB PUSH0 DUP4 ADD MSTORE PUSH2 0xA70 DUP2 PUSH2 0xA37 JUMP JUMPDEST SWAP1 POP SWAP2 SWAP1 POP JUMP JUMPDEST PUSH32 0x4E487B7100000000000000000000000000000000000000000000000000000000 PUSH0 MSTORE PUSH1 0x32 PUSH1 0x4 MSTORE PUSH1 0x24 PUSH0 REVERT JUMPDEST PUSH0 DUP2 SWAP1 POP SWAP3 SWAP2 POP POP JUMP JUMPDEST PUSH0 PUSH2 0xAB8 DUP3 PUSH2 0x898 JUMP JUMPDEST PUSH2 0xAC2 DUP2 DUP6 PUSH2 0xAA4 JUMP JUMPDEST SWAP4 POP PUSH2 0xAD2 DUP2 DUP6 PUSH1 0x20 DUP7 ADD PUSH2 0x8B2 JUMP JUMPDEST DUP1 DUP5 ADD SWAP2 POP POP SWAP3 SWAP2 POP POP JUMP JUMPDEST PUSH0 PUSH2 0xAE9 DUP3 DUP5 PUSH2 0xAAE JUMP JUMPDEST SWAP2 POP DUP2 SWAP1 POP SWAP3 SWAP2 POP POP JUMP JUMPDEST PUSH32 0x4E487B7100000000000000000000000000000000000000000000000000000000 PUSH0 MSTORE PUSH1 0x22 PUSH1 0x4 MSTORE PUSH1 0x24 PUSH0 REVERT JUMPDEST PUSH0 PUSH1 0x2 DUP3 DIV SWAP1 POP PUSH1 0x1 DUP3 AND DUP1 PUSH2 0xB38 JUMPI PUSH1 0x7F DUP3 AND SWAP2 POP JUMPDEST PUSH1 0x20 DUP3 LT DUP2 SUB PUSH2 0xB4B JUMPI PUSH2 0xB4A PUSH2 0xAF4 JUMP JUMPDEST JUMPDEST POP SWAP2 SWAP1 POP JUMP JUMPDEST PUSH0 DUP2 SWAP1 POP DUP2 PUSH0 MSTORE PUSH1 0x20 PUSH0 KECCAK256 SWAP1 POP SWAP2 SWAP1 POP JUMP JUMPDEST PUSH0 PUSH1 0x20 PUSH1 0x1F DUP4 ADD DIV SWAP1 POP SWAP2 SWAP1 POP JUMP JUMPDEST PUSH0 DUP3 DUP3 SHL SWAP1 POP SWAP3 SWAP2 POP POP JUMP JUMPDEST PUSH0 PUSH1 0x8 DUP4 MUL PUSH2 0xBAD PUSH32 0xFFFFFFFFFFFFFFFFFFFFFFFFFFFFFFFFFFFFFFFFFFFFFFFFFFFFFFFFFFFFFFFF DUP3 PUSH2 0xB72 JUMP JUMPDEST PUSH2 0xBB7 DUP7 DUP4 PUSH2 0xB72 JUMP JUMPDEST SWAP6 POP DUP1 NOT DUP5 AND SWAP4 POP DUP1 DUP7 AND DUP5 OR SWAP3 POP POP POP SWAP4 SWAP3 POP POP POP JUMP JUMPDEST PUSH0 DUP2 SWAP1 POP SWAP2 SWAP1 POP JUMP JUMPDEST PUSH0 PUSH2 0xBF2 PUSH2 0xBED PUSH2 0xBE8 DUP5 PUSH2 0x56B JUMP JUMPDEST PUSH2 0xBCF JUMP JUMPDEST PUSH2 0x56B JUMP JUMPDEST SWAP1 POP SWAP2 SWAP1 POP JUMP JUMPDEST PUSH0 DUP2 SWAP1 POP SWAP2 SWAP1 POP JUMP JUMPDEST PUSH2 0xC0B DUP4 PUSH2 0xBD8 JUMP JUMPDEST PUSH2 0xC1F PUSH2 0xC17 DUP3 PUSH2 0xBF9 JUMP JUMPDEST DUP5 DUP5 SLOAD PUSH2 0xB7E JUMP JUMPDEST DUP3 SSTORE POP POP POP POP JUMP JUMPDEST PUSH0 SWAP1 JUMP JUMPDEST PUSH2 0xC33 PUSH2 0xC27 JUMP JUMPDEST PUSH2 0xC3E DUP2 DUP5 DUP5 PUSH2 0xC02 JUMP JUMPDEST POP POP POP JUMP JUMPDEST JUMPDEST DUP2 DUP2 LT ISZERO PUSH2 0xC61 JUMPI PUSH2 0xC56 PUSH0 DUP3 PUSH2 0xC2B JUMP JUMPDEST PUSH1 0x1 DUP2 ADD SWAP1 POP PUSH2 0xC44 JUMP JUMPDEST POP POP JUMP JUMPDEST PUSH1 0x1F DUP3 GT ISZERO PUSH2 0xCA6 JUMPI PUSH2 0xC77 DUP2 PUSH2 0xB51 JUMP JUMPDEST PUSH2 0xC80 DUP5 PUSH2 0xB63 JUMP JUMPDEST DUP2 ADD PUSH1 0x20 DUP6 LT ISZERO PUSH2 0xC8F JUMPI DUP2 SWAP1 POP JUMPDEST PUSH2 0xCA3 PUSH2 0xC9B DUP6 PUSH2 0xB63 JUMP JUMPDEST DUP4 ADD DUP3 PUSH2 0xC43 JUMP JUMPDEST POP POP JUMPDEST POP POP POP JUMP JUMPDEST PUSH0 DUP3 DUP3 SHR SWAP1 POP SWAP3 SWAP2 POP POP JUMP JUMPDEST PUSH0 PUSH2 0xCC6 PUSH0 NOT DUP5 PUSH1 0x8 MUL PUSH2 0xCAB JUMP JUMPDEST NOT DUP1 DUP4 AND SWAP2 POP POP SWAP3 SWAP2 POP POP JUMP JUMPDEST PUSH0 PUSH2 0xCDE DUP4 DUP4 PUSH2 0xCB7 JUMP JUMPDEST SWAP2 POP DUP3 PUSH1 0x2 MUL DUP3 OR SWAP1 POP SWAP3 SWAP2 POP POP JUMP JUMPDEST PUSH2 0xCF7 DUP3 PUSH2 0x898 JUMP JUMPDEST PUSH8 0xFFFFFFFFFFFFFFFF DUP2 GT ISZERO PUSH2 0xD10 JUMPI PUSH2 0xD0F PUSH2 0x5B2 JUMP JUMPDEST JUMPDEST PUSH2 0xD1A DUP3 SLOAD PUSH2 0xB21 JUMP JUMPDEST PUSH2 0xD25 DUP3 DUP3 DUP6 PUSH2 0xC65 JUMP JUMPDEST PUSH0 PUSH1 0x20 SWAP1 POP PUSH1 0x1F DUP4 GT PUSH1 0x1 DUP2 EQ PUSH2 0xD56 JUMPI PUSH0 DUP5 ISZERO PUSH2 0xD44 JUMPI DUP3 DUP8 ADD MLOAD SWAP1 POP JUMPDEST PUSH2 0xD4E DUP6 DUP3 PUSH2 0xCD3 JUMP JUMPDEST DUP7 SSTORE POP PUSH2 0xDB5 JUMP JUMPDEST PUSH1 0x1F NOT DUP5 AND PUSH2 0xD64 DUP7 PUSH2 0xB51 JUMP JUMPDEST PUSH0 JUMPDEST DUP3 DUP2 LT ISZERO PUSH2 0xD8B JUMPI DUP5 DUP10 ADD MLOAD DUP3 SSTORE PUSH1 0x1 DUP3 ADD SWAP2 POP PUSH1 0x20 DUP6 ADD SWAP5 POP PUSH1 0x20 DUP2 ADD SWAP1 POP PUSH2 0xD66 JUMP JUMPDEST DUP7 DUP4 LT ISZERO PUSH2 0xDA8 JUMPI DUP5 DUP10 ADD MLOAD PUSH2 0xDA4 PUSH1 0x1F DUP10 AND DUP3 PUSH2 0xCB7 JUMP JUMPDEST DUP4 SSTORE POP JUMPDEST PUSH1 0x1 PUSH1 0x2 DUP9 MUL ADD DUP9 SSTORE POP POP POP JUMPDEST POP POP POP POP POP POP JUMP JUMPDEST PUSH32 0x4E487B7100000000000000000000000000000000000000000000000000000000 PUSH0 MSTORE PUSH1 0x11 PUSH1 0x4 MSTORE PUSH1 0x24 PUSH0 REVERT JUMPDEST PUSH0 PUSH2 0xDF4 DUP3 PUSH2 0x56B JUMP JUMPDEST SWAP2 POP PUSH32 0xFFFFFFFFFFFFFFFFFFFFFFFFFFFFFFFFFFFFFFFFFFFFFFFFFFFFFFFFFFFFFFFF DUP3 SUB PUSH2 0xE26 JUMPI PUSH2 0xE25 PUSH2 0xDBD JUMP JUMPDEST JUMPDEST PUSH1 0x1 DUP3 ADD SWAP1 POP SWAP2 SWAP1 POP JUMP JUMPDEST PUSH0 DUP2 SLOAD PUSH2 0xE3D DUP2 PUSH2 0xB21 JUMP JUMPDEST PUSH2 0xE47 DUP2 DUP7 PUSH2 0xAA4 JUMP JUMPDEST SWAP5 POP PUSH1 0x1 DUP3 AND PUSH0 DUP2 EQ PUSH2 0xE61 JUMPI PUSH1 0x1 DUP2 EQ PUSH2 0xE76 JUMPI PUSH2 0xEA8 JUMP JUMPDEST PUSH1 0xFF NOT DUP4 AND DUP7 MSTORE DUP2 ISZERO ISZERO DUP3 MUL DUP7 ADD SWAP4 POP PUSH2 0xEA8 JUMP JUMPDEST PUSH2 0xE7F DUP6 PUSH2 0xB51 JUMP JUMPDEST PUSH0 JUMPDEST DUP4 DUP2 LT ISZERO PUSH2 0xEA0 JUMPI DUP2 SLOAD DUP2 DUP10 ADD MSTORE PUSH1 0x1 DUP3 ADD SWAP2 POP PUSH1 0x20 DUP2 ADD SWAP1 POP PUSH2 0xE81 JUMP JUMPDEST DUP4 DUP9 ADD SWAP6 POP POP POP JUMPDEST POP POP POP SWAP3 SWAP2 POP POP JUMP JUMPDEST PUSH0 PUSH2 0xEBC DUP3 DUP5 PUSH2 0xE31 JUMP JUMPDEST SWAP2 POP DUP2 SWAP1 POP SWAP3 SWAP2 POP POP JUMP INVALID LOG2 PUSH5 0x6970667358 0x22 SLT KECCAK256 PUSH15 0x432B419CFF370CC8E6BCFA261485C7 PUSH9 0x4490FB5F052C8B80B2 0xCF SMOD 0xB9 DUP2 ADDMOD 0xB2 PUSH5 0x736F6C6343 STOP ADDMOD EQ STOP CALLER "
		},
		"gasEstimates": {
			"creation": {
				"codeDepositCost": "767400",
				"executionCost": "25062",
				"totalCost": "792462"
			},
			"external": {
				"addItemToAdress(uint256,string[],string[])": "infinite",
				"getAttributesOfItemByID(uint256)": "infinite"
			}
		},
		"methodIdentifiers": {
			"addItemToAdress(uint256,string[],string[])": "4f6e9de4",
			"getAttributesOfItemByID(uint256)": "97ff7ae0"
		}
	},
	"abi": [
		{
			"inputs": [],
			"stateMutability": "nonpayable",
			"type": "constructor"
		},
		{
			"inputs": [
				{
					"internalType": "uint256",
					"name": "_id",
					"type": "uint256"
				},
				{
					"internalType": "string[]",
					"name": "_attributeKeys",
					"type": "string[]"
				},
				{
					"internalType": "string[]",
					"name": "_attributeValues",
					"type": "string[]"
				}
			],
			"name": "addItemToAdress",
			"outputs": [],
			"stateMutability": "nonpayable",
			"type": "function"
		},
		{
			"inputs": [
				{
					"internalType": "uint256",
					"name": "_id",
					"type": "uint256"
				}
			],
			"name": "getAttributesOfItemByID",
			"outputs": [
				{
					"internalType": "string[]",
					"name": "",
					"type": "string[]"
				},
				{
					"internalType": "string[]",
					"name": "",
					"type": "string[]"
				}
			],
			"stateMutability": "view",
			"type": "function"
		}
	]
}